:100000000C944A030C9467030C9467030C946703E5
:100010000C9467030C9467030C9467030C946703B8
:100020000C9467030C9467030C9467030C946703A8
:100030000C9467030C9467030C9456040C946703A8
:100040000C9467030C9467030C94D51F0C946703FE
:100050000C949A1F0C9467030C9467030C94670329
:100060000C9467030C9467030C9467030C94670368
:100070000C9467030C9467030C9467030C94670358
:100080000C9467030C9467030C9467030C94670348
:100090000C9467030C9467030C9467030C94670338
:1000A0000C9467030C9467030C9467030C94670328
:1000B0000C9467033A00206F3A200057796B7279ED
:1000C000746F20737465726F77616E6965207A3A18
:1000D0002000FF4142434400000043444547484953
:1000E0004A352B6370696E3F00000000000000007D
:1000F0002B636E6D693D322C312C322C31002B6D0F
:100100006F72696E673D3100000000002B636C69FF
:10011000703D31000000000000002B646465743DF8
:10012000312C31302C3100002B63616C6D3D31007E
:100130000000000000002B6372736C3D3100000072
:10014000000000002B637573643D31000000000067
:1001500000002B637062773D32362C223122000082
:100160002B636C74733D30000000000000002B63B3
:100170006D69633D302C3135002B636D6764613DE3
:1001800036002B6370696E3D223139373622002BE1
:100190006966633D322C32002B63706D733D2253D0
:1001A0004D222C22534D222C22534D22002B6364CE
:1001B000736362002B63636C6B3F002B636F707320
:1001C0003F002B637062723D3236002B63726567AD
:1001D0003F002B637371002B7674733D3100610017
:1001E00068002B434D54493A002B636D67643D0012
:1001F0002B636D67723D002B636D67733D002B436E
:100200005553443A002B434D54493A002B44544D26
:10021000463A002B434C49503A003E002B434D4791
:10022000523A002B434F50533A002B435245473A22
:10023000002B4353513A002B4350494E3A2052452C
:10024000414459002B43434C4B3A00206F3A200065
:1002500057796B7279746F20737465726F77616E02
:100260006965207A3A2000303031414520426C6186
:10027000642050616D69656369007777772E736FCD
:100280006E66792E706C00576C61637A79204F55D9
:1002900054206E613A200057796C61637A79204F5F
:1002A0005554207A613A200057796C61637A6F6EF9
:1002B000792028426973746162696C6E79290A0039
:1002C000576C61637A6F6E7920284269737461623A
:1002D000696C6E79290A00437A6173204F55543A4C
:1002E00020002044544D460020534D530020534DD0
:1002F000530020434C495000537465726F77616E10
:1003000069653A20005075626C69637A6E790A00FB
:100310005072797761746E790A00547279623A206A
:1003200000557A79746B6F776E6963792000557A1E
:1003300079746B6F776E6963793A2000506F7A69D0
:100340006F6D2047534D3A200041432D32303030FD
:100350002D44544D462D460A002B435553443A0034
:100360002B434D53204552524F523A002B434D459B
:10037000204552524F523A0042555359004E4F2099
:100380004449414C544F4E45004E4F204341525238
:10039000494552002B434D54493A002B44544D4695
:1003A0003A002B434C49503A004D4F20434F4E4E9C
:1003B0004543544544004D4F2052494E4700455255
:1003C000524F52002B434D47533A005472796220EA
:1003D0007365727769736F777920616B7479776E63
:1003E00079004F4646004F4E0043334434000443E7
:1003F0004F44450000000000034144440000000059
:1004000000000344454C0000000000000458585808
:10041000580000000000065245504F5254000000A2
:1004200004555345520000000000044F50454E0053
:100430000000000005434C4F5345000000000443FA
:100440004C495000000000000444544D4600000098
:100450000000035345540000000000000454494DBF
:1004600045000000000006534B5259424100000075
:100470000544454255470000000003535542000023
:1004800000000000054D594E554D00000000045578
:10049000535344000000000003434F4E000000008F
:1004A0000000024F4E0000000000000005544F47BE
:1004B0004C450000000003525354000000000000AF
:1004C00008534D5320434C49500003534D530000F3
:1004D00000000000045354414E000000000004548A
:1004E000454348000000000003535953000000003A
:1004F0000000303132333435363738392B2A232156
:1005000021003031323334353637383941424344B3
:100510004546003F3F3F3F3F3F3F3F3F3F0A3F3F52
:100520000D3F3F3F3F3F3F3F3F3F3F3F3F3F3F3F0D
:100530003F3F3F202122230225262728292A2B2C32
:100540002D2E2F303132333435363738393A3B3C63
:100550003D3E3F004142434445464748494A4B4C93
:100560004D4E4F505152535455565758595A3F3F7C
:100570003F3F113F6162636465666768696A6B6CDF
:100580006D6E6F707172737475767778797A3F3F9C
:100590003F3F3F3F3F3F3F3F3F3F3F3F3F3F3F3F6B
:1005A0003F3F3F3F3F3F3F3F3F3F3F3F3F3F3F3F5B
:1005B0003F3F3F3F403F0124033F5F3F3F3F3F3FBF
:1005C0003F3F3F3F3F3F3F3F3F3F3F3F3F3F3F3F3B
:1005D0003F3F603F3F3F3F5B0E1C093F1F3F3F3F98
:1005E0003F3F3F3F5D3F3F3F3F5C3F0B3F3F3F5EF5
:1005F0003F3F1E7F3F3F3F7B0F1D3F04053F3F07AF
:100600003F3F3F3F7D083F3F3F7C3F0C063F3F7EE3
:100610003F3F3F40A324A5E8E9F9ECF2C70AD8F828
:100620000DC5E53F5F3F3F3F3F3F3F3F3F3F3FC639
:10063000E6DFC920212223A425262728292A2B2CBE
:100640002D2E2F303132333435363738393A3B3C62
:100650003D3E3FA14142434445464748494A4B4CF1
:100660004D4E4F505152535455565758595AC4D65F
:10067000D1DCA7BF6162636465666768696A6B6C99
:100680006D6E6F707172737475767778797AE4F63F
:10069000F1FCE00011241FBECFEFD8E0DEBFCDBFDC
:1006A00012E0A0E0B1E0E8E1FEE602C005900D92A4
:1006B000A031B107D9F727E0A0E1B2E001C01D9257
:1006C000AF3AB207E1F70E94182F0C94DF360C9472
:1006D0000000CF93DF930F92CDB7DEB7CE018E5AD5
:1006E000974097FD0BC020910001309101018217C6
:1006F000930720F490930101809300010F90DF9104
:10070000CF9108951092380210923702109236025B
:100710000895CF93DF93CDB7DEB764970FB6F89403
:10072000DEBF0FBECDBFAC01E0E0DA019D91AD01AF
:10073000992351F1E431D0F08E2FE93008F489E0AB
:1007400097EF980F4E2F491B8950990B21E030E00D
:100750002C0F3D1F820F931F362FDB012A2F231BE7
:100760002417F8F0FB01E40FF11D11C080ED890F93
:100770008A30D8F621E030E02C0F3D1F2E0F311DBE
:10078000D9019C93EF5FD1CFE111D6CFFB0110824D
:1007900064960FB6F894DEBF0FBECDBFDF91CF9148
:1007A0000895FC012191CF012D93D8CF8091500263
:1007B00095EB980F8C5E943108F083E30C941A2823
:1007C00080916B0290916C028F3F980729F00196FF
:1007D00090936C0280936B028AE0809322021092C5
:1007E0002102109289030E94820383E30C941A2849
:1007F000CF93DF93D0E0C0E06FEFCE010E946F2E69
:100800000E948C2E8823E1F3CE018F709927892BCB
:1008100009F4A8952196CD3E84E3D80769F7DF91C6
:10082000CF910895BC018CEB93E00C9423338FEFB0
:100830009FE80197F1F700C000008FEF9FE8019754
:10084000F1F700C000008FEF9FE80197F1F700C0BB
:1008500000008FEF9FE80197F1F700C000008FEFD5
:100860009FE80197F1F700C00000A89508958091D6
:1008700065028F5F843618F48093650208951092A4
:1008800065028091640291E0811190E0909364028E
:10089000811102C040980895409A08958091A00364
:1008A000807F11F4409A08954098089578940F92AB
:1008B0000FB60F921F9211242F938F939F93EF9354
:1008C000FF93809119028F5F80931902823128F083
:1008D000109219028FEF80931B024B9B57C000B6FA
:1008E00001FC16C080917702811112C010923F0561
:1008F00010923E0510924E0580B7826080BFF8943A
:100900008091C10080688093C10078940000439872
:1009100032992FC0F8948091C10086FF29C0809140
:10092000C1008F7B8093C1007894809178028823E6
:10093000C9F080917602811104C0809150028D32FD
:1009400089F4109278028091420590914305FC0150
:10095000E550FA4F2081019690934305809342051C
:100960002093C600F8948091C10080648093C100F8
:1009700078948FEF80931C02FF91EF919F918F915C
:100980002F911F900F900FBE0F901895439AF894D7
:100990008091C1008F738093C10080B78D7F80BF2D
:1009A00078940000E6CF0F931F93CF93DF938C01D1
:1009B000DC01CD91DC914FE050E069E473E0CE01C1
:1009C0000E94E2326CE373E0CE010F960E94F63291
:1009D00080910B01803210F5909118029923F1F06B
:1009E0006B96B4E68B9FC00111246FE170E00E940A
:1009F0007D30CB014AE0BE010E94A933099000205E
:100A0000E9F7FE01319785E281931082D801ED93D9
:100A1000FC93DF91CF911F910F9108958DE28B8F01
:100A20008C8FFE017E968D8FF0CF8F929F92AF922A
:100A3000BF92CF92DF92EF92FF920F931F93CF93CB
:100A4000DF938C01FC01C081D1816EE273E0CE01A5
:100A50000E94F63209900020E9F7219788E0882E5D
:100A6000912CD12CC12CF12CE12CB12CA12CC60144
:100A70008F719927892B21F4C114D10409F0A8950D
:100A8000C4010E94C12E8F3F91F1FFEFAF1ABF0A40
:100A9000EFEFCE1ADE0AF5E08F0E911C84ECC8163B
:100AA00089E0D80621F74AE0BE01C5010E94A933BA
:100AB00009900020E9F721978FE289934AE0BE016F
:100AC000C7010E94A93309900020E9F72197F80196
:100AD000D183C083DF91CF911F910F91FF90EF9051
:100AE000DF90CF90BF90AF909F908F9008958FEF41
:100AF000E81AF80ACDCFCF92DF92EF92FF920F93D0
:100B00001F93CF93DF938C01FC01C081D1814CE016
:100B100050E061E273E0CE010E94E2322C9688E060
:100B2000E82EF12CD12CC12CC7010E94C12E8F3F81
:100B300059F1C394F5E0EF0EF11C8CEDE81680E35B
:100B4000F80691F74AE0BE018C2D90E00E94A9338F
:100B500009900020E9F721978FE289934AE0BE01CE
:100B60008D2D90E00E94A93309900020E9F721978C
:100B7000F801D183C083DF91CF911F910F91FF9036
:100B8000EF90DF90CF900895D394D4CFAF92BF92DF
:100B9000CF92DF92EF92FF920F931F93CF93DF9349
:100BA00000D0CDB7DEB7A8958AE595E09A83898312
:100BB000CE0101960E94D304E981FA81CF0101960A
:100BC0009A8389831AE01083E981FA811082CE0129
:100BD00001960E941505E981FA81CF0101969A8359
:100BE00089831083E981FA8110826AE173E0898147
:100BF0009A810E94F63289819A8106969A83898326
:100C00002091020160E173E0222311F065E073E0BE
:100C10000E94F63289819A81FC0101900020E9F757
:100C2000CF0101979A83898368EF72E00E94F632C0
:100C300089819A810C969A838983209108012223C5
:100C400009F46CC062EF72E00E94F63289819A81E9
:100C5000FC0101900020E9F7CF0101979A83898375
:100C6000209107016DEE72E0211160C0E981FA81E7
:100C7000CF0101969A8389838AE08083E981FA8192
:100C8000108209811A81F80101900020E9F78F0193
:100C9000015011091A830983C0900301D090040107
:100CA000E0900501F0900601FFE9CF16F6E8DF06B7
:100CB000F1E0EF06F10409F046C067ED72E0C8010B
:100CC0000E94F63289819A810A969A8389832091BB
:100CD000900260EC72E0211102C068EA72E00E94AA
:100CE000F63289819A81FC0101900020E9F7CF0159
:100CF00001979A8389836AE772E089819A810E94C9
:100D0000F6320F900F90DF91CF911F910F91FF90CE
:100D1000EF90DF90CF90BF90AF90089520910701A2
:100D200068EE72E0211102C062EE72E00E94F632BB
:100D300089819A81FC0101900020E9F7CF01019798
:100D40009A83898393CF8091900267E872E0882329
:100D500091F06091AA037091AB038091AC039091E4
:100D6000AD032AE030E040E050E00E94913069019C
:100D70007A0167E972E0C8010E94F632E981FA81DE
:100D800001900020E9F7CF0101975C019A838983E4
:100D9000C701B60120E13EE040E050E00E94913002
:100DA000CB016CE370E00E946930F62E082F1AE048
:100DB000822F612F0E945D30E92E4AE0B50190E05C
:100DC0000E94A93369817A81FB0101900020E9F733
:100DD000BF01615071097A8369834AE08E2D90E0EA
:100DE0000E94A933E981FA8101900020E9F7DF012F
:100DF0001197FA83E98388E68C93E981FA81CF0120
:100E000001969A8389838AE3E82EE08229813A81D8
:100E10008F2D612F0E945D30F92E4AE0B90190E0DC
:100E20000E94A93369817A81FB0101900020E9F7D2
:100E3000BF01615071097A8369834AE08F2D90E088
:100E40000E94A933E981FA8101900020E9F7DF01CE
:100E50001197FA83E9838DE68C93E981FA81CF01BA
:100E600001969A838983E08229813A81802F612FBC
:100E70000E945D30092F4AE0B90190E00E94A93339
:100E800069817A81FB0101900020E9F7BF0161507F
:100E900071097A8369834AE0802F90E00E94A93328
:100EA000E981FA8101900020E9F7DF011197FA83C7
:100EB000E98383E78C93E981FA81CF0101969A83D4
:100EC00089831083E981FA81108215CF10929002F4
:100ED0001092AA031092AB031092AC031092AD03D0
:100EE0005D9808958091290290912A02892BA1F59D
:100EF0008AE090E090932A028093290220910301D6
:100F00003091040140910501509106012F3986E886
:100F1000380781E04807510581F481E09091900203
:100F2000911180E0809390021092AA031092AB037B
:100F30001092AC031092AD0308958FEF809390024E
:100F4000AAE0B0E00E94B9306093AA037093AB03AB
:100F50008093AC039093AD0308950895CF92DF92F0
:100F6000FF920F931F93CF93DF93CDB7DEB76697B2
:100F70000FB6F894DEBF0FBECDBF0E94690310927A
:100F80003A07A8958FEF809338021092370210929B
:100F900036028CE197E00E948625182F809132025C
:100FA000811149C08091790204E6602F0E945D3072
:100FB0001F929F9380917A020E945D301F929F93AF
:100FC00080917B020E945D301F929F9385E191E0AA
:100FD0009F938F931F9289E08F938CE091E09F9372
:100FE0008F930E94C33380917902602F0E945D30FD
:100FF0001F929F9380917A020E945D301F929F936F
:1010000080917B020E945D301F929F9384E291E069
:101010009F938F931F928EE18F9387E597E09F9325
:101020008F930E94C3338FE90E9408280FB6F8946B
:10103000DEBF0FBECDBF109232028091130281112C
:10104000109213028CEF810F8230C0F480917302F2
:101050008C30A0F00E94D6030E94E0030E9482031D
:1010600066960FB6F894DEBF0FBECDBFDF91CF916D
:101070001F910F91FF90DF90CF90089580914702CC
:10108000882311F0193031F7EDE4F7E047E557E038
:1010900020E090E08191882329F02F5F84578230EF
:1010A00008F49F5F4E175F07A9F7233218F0193035
:1010B000A9F2D0CF9630D8F7113180F6E12FF0E0C9
:1010C000EF51F94C0C94B33080910701882331F231
:1010D00080910201813009F43EC08E010F5F1F4FE5
:1010E000B80185E693E00E9489038981882359F13C
:1010F000F80101900020E9F7BF0161507109AE01CC
:101100004E5E5F4FC8010E94732898E0C92ED12C13
:1011100010E000E0C8018F719927892B21F4011597
:10112000110509F0A895B601CE0142960E9440290A
:10113000811111C00F5F1F4FF5E0CF0ED11C043C91
:1011400089E0180739F781E080932202109221028A
:101150001092890383CF809112028111F4CF65E64A
:1011600073E08EE893E00E9479330E947207EBCF20
:1011700080911102811115C080911202882389F09B
:1011800067E672E08AE595E00E94F63265E673E074
:101190008EE992E00E94793384E70E94082884E176
:1011A000D3CF809173028F5F8093730282EC91E0C2
:1011B000909372028093710265E673E08EE992E08B
:1011C0000E947933A8950E94C60584E70E940828EA
:1011D00082E0BACF809173028F5F8093730282ECBA
:1011E00091E0909372028093710265E673E08EE95C
:1011F00092E00E94793366E773E0FB0101900020E2
:10120000E9F7BF0161507109AE014E5E5F4F86E79D
:1012100093E00E94732888E0C82ED12C10E000E0F3
:10122000C8018F719927892B21F40115110509F047
:10123000A895B601CE0142960E944029F82E811150
:101240003FC00F5F1F4FF5E0CF0ED11C043C89E07B
:10125000180731F741E1BE016F5F7F4FCE01429623
:101260000E94BC28BE016F5F7F4F8AE595E00E9417
:10127000793367E471E08AE595E00E945A336AE4C5
:1012800071E0F11002C06DE471E08AE595E00E9422
:101290005A3384E70E94082882E080932202109249
:1012A0002102109289038091770790918602892B01
:1012B00090917807892B09F0D1CE0E94162FCECEBF
:1012C000FF24FA94C7CF65E673E08EE992E00E94AE
:1012D00079336CE671E08AE595E00E94793382E02B
:1012E00080932202109221021092890384E70E94C7
:1012F0000828B4CE65E673E08EE992E00E94793367
:10130000109264031092630389E260CF63E282E08B
:101310000E9451288111A2CE89E18093220210926D
:101320002102109289030E94F80383E0E0CF68E86D
:1013300071E085E693E00E948F33892B09F454C055
:1013400040912B0250912C0260912D0270912E023F
:1013500040349DE0590793E06907710508F040C0EB
:1013600080E49DE0A3E0B0E0841B950BA60BB70BD7
:10137000BF93AF939F938F931F9283E08F938DE0E2
:101380008F9380E48F937F936F935F934F931F921C
:1013900085E18F931F9286E08F931F928DE18F934B
:1013A00085E991E09F938F938AE595E09F938F93D2
:1013B0000E94F33365E673E08EE992E00E94793390
:1013C00084E70E94082882E0809322021092210282
:1013D000109289030FB6F894DEBF0FBECDBF3ECE8C
:1013E00080E090E0DC01C4CF85E0AECE83E0ACCEFF
:1013F000809163029091A90390FF06C0883C88F415
:101400008F5F809363020895883C60F063E282E01E
:101410000E945128811103C083E00E940828109285
:10142000630208958233D8F363E282E00E94512878
:101430008111F5CF82E0F1CFCF92DF92EF92FF9250
:101440000F931F93CF93DF93CDB7DEB72A970FB6D5
:10145000F894DEBF0FBECDBF80911202882329F021
:1014600080911102882309F497C01091080111118D
:1014700055C080910701811141C0809102018130E6
:1014800011F41FEF3BC080918E038823B9F1CE0188
:1014900001967C01BC018EE893E00E94890389815A
:1014A000882361F1F70101900020E9F7BF01615045
:1014B000710949E757E0C7010E94732898E0C92ED7
:1014C000D12CF12CE12CC7018F719927892B21F4A4
:1014D000E114F10409F0A895B60189E797E00E94AC
:1014E00040298111CECFFFEFEF1AFF0A85E0C80E29
:1014F000D11C94ECE91699E0F90629F7812F2A9678
:101500000FB6F894DEBF0FBECDBFDF91CF911F9114
:101510000F91FF90EF90DF90CF900895809102019E
:10152000813009F4AECF80918E038823A9F18E011A
:101530000F5F1F4FB8018EE893E00E9489038981F5
:10154000882351F1F80101900020E9F7BF016150B3
:10155000710949E757E0C8010E94732888E0E82E26
:10156000F12C10E000E0C8018F719927892B21F43C
:101570000115110509F0A895B70189E797E00E94C8
:10158000402981117ECF0F5F1F4FF5E0EF0EF11C58
:10159000043C89E0180739F710E0B0CF8CE3809362
:1015A000520210924B0210924A0210924402109280
:1015B00045021092390280917002882309F456C0C6
:1015C00080913B07882309F44FC06BE377E08EE9F5
:1015D00092E00E94793360E572E08AE595E00E942E
:1015E000F6326EE873E08AE595E00E945A336BE4C8
:1015F00072E08AE595E00E94EB328AE595E0FC0115
:1016000001900020E9F7CF018B559540FC01E65A87
:10161000FA4F90910C019083E1E0E80FF0E0E65A78
:10162000FA4F90910D019083E2E0E80FF0E0E65A66
:10163000FA4F9AE39083E3E0E80FF0E0E65AFA4FBE
:1016400090910F019083E4E0E80FF0E0E65AFA4F42
:101650009091100190838B5FE82FF0E0E65AFA4FEB
:10166000108284E70E9408281092700210928E0364
:1016700008958CE380935202109210020895109204
:10168000B90310924B0210924A0210924F0210922C
:101690004E021092500210923D058CE3809352024C
:1016A0001092470208950E943F0B10924F02109231
:1016B0004E02109250021092590510928703109218
:1016C0003D051092B80310924C0210921002109235
:1016D000480208950E94530B86E980930A011092F4
:1016E0007602109275021092400210923F02109200
:1016F000930210923E0210923D0210923902109213
:101700004D0283E680930B0162E78FE50E942E284D
:101710006FE38BE20E942E2869E480E40E942E2869
:1017200066E784E70E942E2810921802089580919F
:1017300077028D3051F410924602109210021092EE
:10174000470286E4809352020895809177028630A2
:1017500059F5209146022F5F2093460280917F0227
:1017600090918002853032E0930761F08A3331E056
:10177000930741F0833032E0930721F0805192408B
:10178000029770F48CE380935202809147022230DA
:1017900080F11092460210921002109247020895B2
:1017A0008CE380935202F5CF80917702843021F54B
:1017B0008CE38093520210923D058091BE038E33DC
:1017C00031F480913E0590913F050A9720F0809179
:1017D0004702811107C010924602109210020E9427
:1017E0006A0BDBCF909146029F5F90934602923046
:1017F00080F60E940828D1CF809177028530B9F415
:1018000080918102909182028A30910539F09C0189
:101810002D7F2D30310511F04E9769F4109246025C
:101820008CE380935202109210020C946A0B809108
:1018300077028091770208950F931F93CF93DF93E0
:10184000D0917702C0915002CF3309F4C7C008F09D
:1018500070C0C63309F429C238F5C03309F4C8C2D0
:1018600088F4CD3209F4B4C0CF3209F437C11092F4
:101870004F0210924E0210925002DF91CF911F91B1
:101880000F910895C33309F44DC1C53381F7D130A9
:1018900009F4B5C2809188038F5F809388038330F9
:1018A00008F0ADC28C2F7BC1CA3309F49FC188F404
:1018B000C73309F402C2C833D1F688E3D13009F046
:1018C000F6C081E00E94CE0A10924C021092B90339
:1018D000CECFCC3309F467C108F49CC1CE3339F6BE
:1018E000D13029F68AE292E00E941204FC01892B91
:1018F00009F4BDCF27812C3209F06CC13796808165
:101900008C3229F081818C3209F066C131964AE02F
:1019100050E070E060E0CF0101960E94D330662372
:1019200029F08DEF860F823008F058C10E946A0BB3
:101930009ECFCB3458F5C73408F0A9CFC23409F490
:10194000A6CFE8F4C03409F494C0C13409F08FCFB5
:1019500080E3D13009F4ABC0D63009F002C18091E8
:101960007F02909180028A3321E0920721F0853036
:10197000924009F07CCF84E180935202D5C0C334F9
:1019800009F4F1C0C53409F482CF71CFC33790F4A4
:10199000CF3508F4C2C1D63009F000C280917F0271
:1019A000909180028134914009F4FBC18C2F0E94F8
:1019B0000828FCC1C73709F4FBC1CE3909F057CF5D
:1019C0008AE192E00E941204892B09F0AFCF5FCF29
:1019D0008EE20E94082810923A0249CFD13009F0D5
:1019E00046CF84E492E00E941204009709F43FCFAE
:1019F00062E270E00E946533009709F438CFEC0191
:101A0000219662E270E0CE010E9465338C01892B41
:101A100009F42DCF6CE270E0CE010E94653300978F
:101A200009F425CFEC012196C017D10708F01FCF8C
:101A30006AE370E0CE010E946533009709F417CF86
:101A40008017910708F013CFFE0101900020E9F7FD
:101A50003197EC1BFD0B389708F409CF88E0FE01A5
:101A6000ACE0B1E001900D928A95E1F7109214017B
:101A7000FECED13099F487E392E00E941204892BC4
:101A800059F08FEF809375021092830283E30E94D6
:101A9000082810926202EBCE8FE2F9CFD53051F4D4
:101AA00080918102909182020E9731F480E40E942D
:101AB0000828DDCED43021F0809177028038B1F74C
:101AC000809162028F5F80936202843118F00E94DD
:101AD0006A0BDFCF84E180935202E8CFD13061F40A
:101AE0008FEF809375021092830283E30E9408288F
:101AF00082E380935202BBCED53079F4809181028B
:101B0000909182028031910521F48FEF80938302BE
:101B1000AECE0E9721F48FE2CACFD430E1F380919C
:101B20007702F9CFD13011F481E4C1CFD63089F4F6
:101B300080917F02909180028A3321E0920721F008
:101B40008530924009F093CE8CE38093520283E378
:101B5000AECFD430E1F380917702803809F087CEA0
:101B6000F6CF8AE009CFD13049F0D53081F48091A9
:101B70008102909182020397029748F480914D026E
:101B80000E94082810924D02109288030AC080918A
:101B900088038F5F80938803833018F483E40E9466
:101BA000082882E0A6CFD13089F481E392E00E9438
:101BB0001204009709F45BCE4AE050E070E060E068
:101BC00006960E94D33060930B0151CE83E680933A
:101BD0000B014DCE389693CE329699CE6B7F613005
:101BE00009F045CE8FEF8093180241CED13049F0F5
:101BF000D53051F4809181029091820245970297ED
:101C000018F41092400233CE809140028F5F80938F
:101C100040022DCED13009F042C046E050E063E2F0
:101C200072E08EEB93E00E941533892BC1F583E2BD
:101C300092E00E9412046CE270E00E94653300970B
:101C400071F16CE270E00E946533009741F162E24D
:101C500070E00E946533009711F18C010F5F1F4FF8
:101C600062E270E0C8010E9465330097C1F0081776
:101C70001907A9F0801B910B8C30910514F08BE0B3
:101C800090E0EC01DD27AE01B80183E992E00E940B
:101C90004A33CD56DD4F188210923F02E8CD809135
:101CA0003F028F5F80933F02E2CDD63009F479CFB7
:101CB00086E3D13009F475CF72CFD13021F0809115
:101CC00077028C30A1F48FEF80934C02109288033E
:101CD000809108018111CBCD8CE291E09093280294
:101CE0008093270284E18093520286E4E0CED430D0
:101CF00021F080917702803849F4809188038F5FCA
:101D000080938803833010F487E3D1CED33011F46D
:101D100010924C0210928803AACDD130A9F58CE123
:101D200092E00E9412046AE070E00E94653300971E
:101D300041F1EC0121966DE070E0CE010E94653327
:101D40000097F9F08C1B9D0B97FD01969595879553
:101D5000853BA8F4809349024FEA52E06091490222
:101D6000CE010E943C2B83E70E94082880915002FC
:101D70008C5E0E9408288FEF8093480278CD84EB18
:101D8000E9CF1092480273CDD63021F0109248026C
:101D90008CE3AFCE8C2F0E940828F8CFD43009F402
:101DA00005CE80917702803809F400CE89E1A1CE7A
:101DB000D43029F080917702803809F0ABCF1092AF
:101DC000B903809188038F5F80938803833010F478
:101DD00087E76DCE1092880380E00E94CE0A1092B1
:101DE0004C021092B90310924B0210924A023FCD5E
:101DF000D13029F080E30E94082884E17ACE8091D6
:101E00004D020E94082880914D028B54843108F0C5
:101E1000B9CE10924802B6CE0F931F93CF93DF93A3
:101E20008091770280917702803821F08091510271
:101E3000882381F080E8809377020E941C0C82E363
:101E4000809352028FEF80935102DF91CF911F91C7
:101E50000F91089580917702813829F520913905F5
:101E600030913A0580913E0590913F05281739073A
:101E700061F44091390550913A056BEF75E08CEBB8
:101E800093E00E943D33892B01F380913D05811140
:101E9000DCCF80E8809377028FEF8093510282E35A
:101EA00080935202D2CF809177028A3009F044C0E9
:101EB00010928E0383E192E00E94120462E270E0CD
:101EC0000E946533009739F18C010F5F1F4F62E26A
:101ED00070E0C8010E9465330097E9F0EC01C01B77
:101EE000D10BC031C0F4DD27AE01B8018EE893E01C
:101EF0000E944A33C257DC4F188280913F02811101
:101F000010923F0280910B01882311F0833619F45F
:101F100080E180930B0189E30E941A28809150028E
:101F20008B54843110F41092480210924F02109298
:101F30004E021092500289CF80917702833089F44B
:101F400080E00E94CE0A10924C021092B9031092C7
:101F50004B0210924A0280915002873709F075CFE8
:101F6000E4CF80917702823039F580915002873733
:101F7000D1F40E941C0C809150028737A1F480910B
:101F8000440281110BC08AE5809345028FEF809354
:101F9000B90310924B0210924A0257CF8093450228
:101FA00010924402F3CF10928E0389E3DF91CF9118
:101FB0001F910F910C941A288CE092E00E94120459
:101FC000009799F0FC01379681918032E9F3909166
:101FD0000801911107C0813329F40E9472078BE038
:101FE000809389031092770230CF809177028C30F2
:101FF00071F480910801882309F427CF10924C02D4
:1020000088E3DF91CF911F910F910C940828809164
:102010007702893061F480915002873711F40E9471
:102020001C0C80E00E94CE0A1092B903B2CF8091BE
:102030007702873081F380917702883029F585E037
:1020400092E00E9412046CE270E00E9465330097F7
:10205000A1F04AE050E070E060E001960E94E331B8
:102060009B01215031092431310538F48AE4860F6F
:102070000E94082881E080935202809150028B5484
:10208000843108F0E2CE4FCF809177028E3009F094
:102090004CC084E180935202809150028B54843171
:1020A00040F41092480210924F0210924E02109289
:1020B00050028EEF91E00E94120462E270E00E94F2
:1020C0006533009709F4C1CE8C010F5F1F4F62E2A8
:1020D00070E0C8010E946533009709F4B6CE2091E4
:1020E0003102222309F4B1CEEC01C01BD10BC13A5D
:1020F000D10510F0C0EAD0E0AE01B8018AE595E064
:102100000E948033C65ADA4F188265E673E08EE982
:1021100092E00E94793384E70E94082810923102ED
:102120001092300210922F0290CE809147028111BE
:102130000E94970B80913E0590913F05892B09F4F1
:1021400084CE80917702882309F47FCEDF91CF91EE
:102150001F910F910C941C0CCF93C82FC901C11172
:1021600006C0862F0E9408288C2FCF9108951092C8
:102170004F0210924E026093500240934D020E9413
:10218000681FCFEFF1CF0F93CF93DF939FEF909323
:102190003D051092B80381114BC085E08093220267
:1021A000109221021092890384E780934702909352
:1021B000AF024AE069E777E08FEA92E00E94BC282C
:1021C00000E020E049E757E06EE972E08FEA92E034
:1021D0000E947D2C4AE555E0FA0101900020E9F7C4
:1021E000AF01415051096AE575E00E94C52A8F5A36
:1021F000924080934902C0914902C1508091AF0240
:10220000C81B46E050E067EF71E08DEF95E00E945B
:10221000E2324AE063E076E08C2F90E00E94A9333E
:102220008AEF80930901DF91CF910F910C94851F64
:1022300085E080932202109221021092890385E7A3
:102240008093470200915A059093AF024AE069E7F4
:1022500077E08FEA92E00E94BC2820E049E757E04F
:102260006EE972E08FEA92E00E947D2CEC014091D1
:102270005B0550E06CE575E00E944A3380915B0598
:102280008C0F9D2F911DB3CFEF92FF920F931F9351
:10229000CF93DF9300D00F92CDB7DEB730914802D5
:1022A0008091B9035091500290915202409147029F
:1022B000432B482B20914C02242B252B292BC9F58D
:1022C00060913D0521E0611101C020E0211132C083
:1022D0006091C10066FD2EC060917602662351F1C7
:1022E0006091770201E0611125C010914D07E12E48
:1022F000F12C1E3309F465C208F06BC0133309F4E6
:1023000066C330F51E3209F446C3B0F41C3209F43A
:10231000FCC208F013C31B3209F46FC380E00F90B6
:102320000F900F90DF91CF911F910F91FF90EF9041
:10233000089521E000E0D9CF103309F4D6C208F4A3
:1023400034C3113309F479C3123341F78FEFE7CF68
:10235000183309F4B7C1B0F4163309F4B9C208F060
:10236000C0C11533D9F68091770790918602892BE9
:1023700090917807892B21F40E94162F811149C36F
:1023800085E330C11A3309F43DC208F46CC11B3334
:1023900009F45AC21C3309F0C1CF40914A0250914E
:1023A0004B02452B61F490919102892B41F480916D
:1023B0003D0590911002892B282B09F4F4C18091DE
:1023C0000B01833611F08111C1CF80E180930B01A5
:1023D000BDCF133708F074C01F3508F01BC1163489
:1023E00009F493C1B0F41F3309F450C220EC210F5B
:1023F000E22FF0E0E852FF4F45915491FEE02F9F0D
:10240000900111242E513F4F612F802F0E94AC105C
:102410009DCF1B3458F380911802882309F47EC0A5
:1024200020914A0230914B02232B09F077C0942B64
:1024300080911002982B09F071C0533309F46EC0DB
:102440008091770790918602892B90917807892B4C
:1024500009F064C00E94162F882309F45FC061E070
:1024600081E00E945128811159C066E784E70E94EB
:102470005128811153C069E387E30E9451288111DB
:102480004DC0002309F44AC010924F0210924E0230
:10249000109350028FEF8093480246E050E060EFC7
:1024A00071E08DEF95E00E94E2324AE063E076E071
:1024B000C7018A5491090E94A9330E94851F46CF03
:1024C000163709F449C080F4133701F542E952E0A8
:1024D00065E673E08FEA92E00E94592B009709F0BD
:1024E00053C01092480232CF193709F47EC01F3909
:1024F00009F4ADC2173709F011CF20911802222339
:1025000019F0992309F41AC187E76CC020914A0297
:1025100030914B02232B11F4892B11F0812F62C0D3
:102520008091770790918602892B90917807892B6B
:10253000A9F70E94162F882389F3002379F31092BC
:102540004F0210924E021093500281E0153709F0AD
:1025500080E00E94C310FACE10923D0540914902DE
:102560006FEA72E08BEF95E00E94992C809149020E
:1025700090E0880F991FFC01E550FA4F2AE1208373
:1025800001960E944F1FE2CE9E012F5F3F4FAE018A
:102590004E5F5F4FBE016D5F7F4F0E94B22B2B815C
:1025A00020937E022A8120937D02298120937C0240
:1025B0009E012F5F3F4FAE014E5F5F4FBE016D5FCB
:1025C0007F4F0E94D52B2B8120937B022A81209361
:1025D0007A022981209379024FE16CE177E00E9431
:1025E000702A89E70E940828B1CE809177079091E0
:1025F0008602892B90917807892B99F70E94162FD4
:10260000882379F31092220282E0809389030E944A
:10261000AE0767CF40914A0250914B02452B09F01B
:102620007DCF832B30919102832B09F077CF80915E
:102630003D05811173CF002309F470CF10924F0232
:1026400010924E021093500246E050E069EE71E0A5
:102650008DEF95E00E94E2324AE063E076E0C70148
:102660008E55910928CF8091770790918602892B0A
:1026700090917807892B11F089E3B4CF0E94162F2F
:102680008823D1F31092220282E0809389030E9472
:102690001C0A882371F08091080190910701892B11
:1026A00079F082EE91E00E941204892B11F40E94CD
:1026B000720788E30E9408288FEF809339022FCE9B
:1026C00087E3F8CF011102C088E38CCF10924F024C
:1026D00010924E021093500280EE91E00E94681F0B
:1026E00035CE8091080190910701892B69F787E326
:1026F000002309F477CF10924F0210924E0287E325
:10270000809350028EED91E0E9CF992311F086E499
:1027100069CF8091C10086FDFACF8091760288232F
:10272000B1F380917702582B91F710924F021092DB
:102730004E021093500287ED91E0D0CF811106CE6A
:10274000002309F4E1CE10924F0210924E0287E767
:102750008093500285E18093890384E68093FD0590
:1027600066E773E08EEF95E00E94793386E793E0A9
:10277000FC0101900020E9F7CF01875793408F5F5C
:1027800090E0FC01E350FA4F2BE3208382509A4FF4
:10279000FC0110820E94851F8CE291E090934B0215
:1027A00080934A02D3CD8CE3002309F41BCF10920F
:1027B0004F0210924E028CE38093500282ED91E022
:1027C0008DCF40914A0250914B02452B09F0BECD6E
:1027D00090919102892B09F0B9CD80913D0590919E
:1027E0001002892B282B09F0B1CD8EE3002309F4C8
:1027F000F9CE10924F0210924E02109350028BECC1
:1028000091E06CCF40914A0250914B02452B59F414
:1028100090919102892B39F480913D05909110029D
:10282000892B282B19F01092400290CD8AE30023C7
:1028300009F4D8CE10924F0210924E028AE3809390
:10284000500282EC91E04ACF40914A0250914B02F3
:10285000452B59F490919102892B39F480913D05D3
:1028600090911002892B282B19F010923F026ECD07
:102870008BE3002309F4B6CE10924F0210924E0261
:102880008BE3809350028BEB91E028CF40914A027A
:1028900050914B02452B09F059CD90919102892B13
:1028A00009F054CD80913D0590911002892B282B81
:1028B00009F04CCD8FE3002309F494CE10924F021F
:1028C00010924E028FE38093500284EB91E006CF8A
:1028D00086E3002309F486CE10924F0210924E0236
:1028E000109350028DEA91E0F9CE80E3002309F4C1
:1028F00079CE10924F0210924E021093500282E451
:1029000080934D0288E991E0E9CE8DE20E9408288B
:1029100084E18093910210923F0510923E0510923F
:102920004E0580B7826080BFF8948091C1008068B6
:102930008093C10078940000439808CD80913A02BA
:10294000811104CD80919102882311F08DE24ACE4D
:102950008091C10086FDFACF10923F0510923E058E
:1029600010924E0580B7826080BFF8948091C100BC
:1029700080688093C10078940000439810924F02C1
:1029800010924E028DE28093500284E180933A02CD
:102990008FE891E0A3CE8FEF8093760280E40E94CF
:1029A000082888E280935202D1CC8FE2002309F4F8
:1029B00019CE10924F0210924E028FE28093500275
:1029C00062E871E08DEF95E00E94F63276CD80915D
:1029D0006102882311F081E405CE8FEF80936102BC
:1029E00083E3002309F4FECD10924F0210924E02B1
:1029F0001093500289E791E071CE0E940C0F8091F4
:102A00007702813819F084E18093090110927702EE
:102A10009DCC002309F4B4CC10924F0210924E02C8
:102A200085E3809350026EE671E08DEF95E00E94A1
:102A3000F63281E380934D0240CD80917502882368
:102A400009F484CC86E30E94082882E3CBCD8091F0
:102A5000770790918602892B90917807892B21F432
:102A60000E94162F811102C08FE9BCCD0023E1F333
:102A700010924F0210924E028FE98093500267E548
:102A800077E08DEF95E00E94793317CD8091520267
:102A9000882339F0815080935202811102C0109234
:102AA00051028091140290911502009729F001972C
:102AB000909315028093140280912702909128022E
:102AC000009771F001979093280280932702892B39
:102AD00039F480914C02882319F088E30E94082879
:102AE00080913A028823C1F0815080933A0281118B
:102AF00013C010924F0210924E02109250028DE2BB
:102B00000E94082810927802F8948091C1008F7B6F
:102B10008093C100789400000E941B21882319F043
:102B20008CE20E94082880914502882341F0815060
:102B300080934502811103C088E30E940828809198
:102B40004A0290914B02009771F0019790934B02CB
:102B500080934A02892B39F482E00E94CE0A1092B7
:102B60004C021092B903809160028F5F80936002E3
:102B7000803309F04EC08CE30E941A2880919102A4
:102B8000882319F081508093910280911802882344
:102B900009F45EC080910B01833611F0811158C099
:102BA0008091410290914202883522E0920750F4D0
:102BB0000196883522E0920709F443C090934202BF
:102BC0008093410280914002863020F480913F0240
:102BD000843110F00E946A0B80911702882339F02B
:102BE000815080931702811102C00E946A0B80916C
:102BF0001802811132C080913D0290913E020196EF
:102C000090933E0280933D02813B944050F10C949E
:102C10006A0B843311F48EE3AFCF883311F48BE366
:102C2000ABCF8C3311F48AE3A7CF803508F4A6CF5D
:102C30008091180210926002882309F49FCF8FE3DD
:102C40009BCF10924202109241020E946A0BBACFAF
:102C50001092420210924102B5CF10923E021092A1
:102C60003D02089580917702882309F457C08BE2D2
:102C70000E9408288091B803882329F086E70E94E3
:102C800008281092B80380911802882309F455C0CF
:102C900080914702882309F450C080915E02909190
:102CA0005F020196883823E1920708F03CC09093B8
:102CB0005F0280935E028091500290914C028823C3
:102CC00009F4A8C020915D0282136AC091116AC004
:102CD0008D3231F09AE8980F44EF51E0923010F4C1
:102CE00040EE5EE29CE8980F923010F44CED55E017
:102CF00020915B0230915C022F5F3F4F2417350714
:102D000008F530935C0220935B0210925A021092F5
:102D100059028091500280935D0208950E946C23B5
:102D20008111A5CFA7CF10925F0210925E0284E0BE
:102D3000809377020E94970BBECF10925F02109291
:102D40005E02B9CF10925C0210925B028E3929F1BB
:102D5000883301F191ED980F9230E0F09BEC980FE1
:102D60009230C0F090EC980F9A30A0F095EB980F4D
:102D7000983280F010924D020E94530B10924F0235
:102D800010924E028EE9809350021092FD050E942F
:102D9000851FBBCF80934D02EFCF0E946A0BB5CF4A
:102DA0009923C1F180917702811134C0F894809108
:102DB0003E0590913F0578942091590230915A0236
:102DC0002817390720F490935A0280935902809172
:102DD000590290915A020A9708F49BCF80915B02A6
:102DE00090915C020196843F21E0920728F4909331
:102DF0005C0280935B028DCF10925C0210925B02AA
:102E000081E00E94CE0A10925A02109259020E944A
:102E10006A0B7FCF10925C0210925B02992309F437
:102E200074CF77CF3F924F925F926F927F928F9243
:102E30009F92AF92BF92CF92DF92EF92FF920F9349
:102E40001F93CF93DF93CDB7DEB7E1970FB6F8941A
:102E5000DEBF0FBECDBF90914D07809148022091FB
:102E60004702822B2091B903822B20914C02822BA6
:102E700020915002822B20915202822B81F480916A
:102E80003D0581110CC08091C10086FD08C0809174
:102E90007602882321F02091770281E0211180E0E1
:102EA000993241F010E09A3209F094C08111ABC020
:102EB0008AE203C0811104C089E20E94082880C010
:102EC0008091100290917707892B90918602892B2F
:102ED00090917807892B81F70E94162F882361F340
:102EE0008AE280935A052BE5E22E25E0F22E35E0AA
:102EF000D32E43E2C42E5AE0B52E80916303909105
:102F000064038F719927892B09F4A8952091630395
:102F100030916403D29EC001D39E900D1124089677
:102F20000E94C12E182F20916303309164038F3FBC
:102F3000C1F1D29EC001D39E900D112441E1B70191
:102F400008960E941C298701080F111DF801C082F4
:102F50007801F2E0EF0EF11CF801B1828091630379
:102F600090916403019690936403809363039801A6
:102F70002D5E3F4F2A5F354068F4843C994008F449
:102F8000BCCFF801128284E70E94082881E0809378
:102F9000100216C0843C9940A0F789E20E940828DC
:102FA000F0CF2F5F3F4F3093640320936303243CA3
:102FB000394008F4A2CF2AE5E21625E0F20611F422
:102FC0001FEF08C0F701108284E70E94082881E003
:102FD00080931002812FE1960FB6F894DEBF0FBEEA
:102FE000CDBFDF91CF911F910F91FF90EF90DF90B8
:102FF000CF90BF90AF909F908F907F906F905F9099
:103000004F903F9008958091100290917707892BFF
:1030100090918602892B90917807892B09F048CFEF
:103020000E94162F882309F443CF10925A050AE50F
:1030300015E085E0382E6E01F5E1CF0ED11CCE01F2
:1030400086963C019BEC492E91E0592EFE0131966B
:103050007F018090630390906403F4EC8F16F9E095
:103060009F0628F00A55154009F08DCFA9CFC4015D
:103070008F719927892B09F4A895389C5001399CA8
:10308000B00C112448E0A40EB11CC5010E94C12E51
:103090008F3F09F468C08FEF881A980A41E1B601A2
:1030A000C5010E941C29F60101900020E9F7319723
:1030B000EC19FD09B601EA3018F039976E0F7F1F41
:1030C000C3010E9479337F926F929F928F925F9299
:1030D0004F92FF92EF920E94F333F701019000208C
:1030E000E9F73197EE19FF09E00FF11F0FB6F894D9
:1030F000DEBF0FBECDBFEA5FF54040F1E5E00A3527
:103100001E07C1F4B7018AE595E00E9479338AE28F
:103110000E94082884E70E94082881E0809310021A
:10312000809163039091640301969093640380936C
:10313000630346CF8AE20E94082884E70E94082899
:1031400081E080931002F80110823ACFB701C801E4
:103150000E947933F70101900020E9F73197EE19C9
:10316000FF090E0F1F1F8091630390916403019666
:1031700090936403809363036CCF08950E94E01DD5
:103180000E94F8090C94891ECF93DF930F92CDB75C
:10319000DEB78091770790918602892B909178070E
:1031A000892B59F50E94162F882339F1198291E055
:1031B00080919002811101C090E081E04091AA03CA
:1031C0005091AB036091AC037091AD03452B462B3E
:1031D000472B09F480E0981711F081E0898385E09E
:1031E00090E00E94C12E9981891739F041E065E095
:1031F00070E0CE0101960E94F9290F90DF91CF91E6
:1032000008950E94BE180E94461580918903882364
:1032100031F08150809389038111B3C0409A80912D
:10322000710290917202009739F0019790937202A7
:1032300080937102892B11F41092730280912902FC
:1032400090912A02892B49F08091290290912A02BB
:10325000019790932A02809329028091310288235A
:10326000F1F080912F02909130020097C1F0019708
:103270009093300280932F02892B89F465E673E0E6
:103280008EE992E00E94793362ED71E08AE595E083
:103290000E94793384E70E940828109231028091BD
:1032A0001302882309F40FC180915802811111C0C3
:1032B00080911802882369F08091560290915702FC
:1032C0008A3F910508F05FC0019690935702809362
:1032D000560280914D07882309F488C09CE8980F16
:1032E000923008F07CC090916F02981378C0809162
:1032F0006D0290916E028639910508F048C00196E2
:1033000090936E0280936D0280914702882309F4A6
:103310005FC080916702909168028C3221E0920731
:1033200008F067C0019690936802809367028091CD
:103330003802882309F486C08091360290913702C2
:103340008436910508F073C080913602909137025F
:10335000019690933702809336028091220288234F
:1033600009F48BC080912102823008F47CC0409A1D
:10337000809121028F5F863008F077C08093210210
:10338000089540984CCF8FEF80935802A2CF65E705
:1033900084E70E942E288091690290916A028F3FF3
:1033A000980729F0019690936A028093690283E35B
:1033B0000E941A28109273021092720210927102E7
:1033C00010926E0210926D0210926F0210924702DC
:1033D000109268021092670210926602A8CF809342
:1033E0006F0210926E0210926D028ECF10926F02D9
:1033F000F8CF10926802109267020E948203109226
:1034000047021092460210923D05109210028091E0
:1034100066028F3F29F4109266020E946A0B87CFE2
:103420008F5F80936602833008F481CFF4CF1092CF
:10343000350282E390E090933402809333020E943D
:1034400082038BCF8091330290913402892B09F44F
:1034500084CF80913302909134020197909334028B
:10346000809333027ACF409883CF109221028091CB
:1034700022028150809322020895809118028111C6
:1034800002C0409819C0809189038111FACF8091C0
:103490000B018031A8F4809155028F5F823370F464
:1034A0008093550280915502883259F38B3249F34B
:1034B0008E52843030F3409A0C94C41881E0F0CFDF
:1034C00010925502EFCF10925802109257021092AC
:1034D0005602FFCE0E947F1E0E9432160C949E2937
:1034E000F89480916E008D7F80936E007894000038
:1034F00080911C02811109C0F89480916E00826055
:1035000080936E0078940000089510921C028091C0
:103510001B02882329F081E080931A0210921B027B
:10352000F89480916E00826080936E007894000021
:1035300080911A0280FF33C0809154028F5F8A30DD
:1035400079F1809354020000F89400B601FE26C081
:103550008091C1008F778093C100789480913E055F
:1035600090913F05892B11F180914E058F5F8093DB
:103570004E058333D8F0439A8091C1008F778093B2
:10358000C10080B78D7F80BF1092BB031092BA0339
:1035900010923C0510923B051092B7037894089561
:1035A0001092540283E080931A02CDCFF894809158
:1035B000C10080688093C10078940000EFCFA89587
:1035C00082E084BD83E085BD8FE387BDEEE6F0E059
:1035D00080818260808383B7817F83BF08951F933A
:1035E000CF93DF9344E050E061E070E08AE893E03D
:1035F0000E94DE2E80918A0381508E3F00F181E48B
:103600008093790780938A0382E480937A0780937A
:103610008B0383E480937B0780938C0384E4809303
:103620007C0780938D030E94162F8823E1F344E0EA
:1036300050E061E070E08AE893E00E94E42E8DEEB5
:1036400090E30E94E52D853A09F050C081EE90E3A9
:103650000E94C12E8F3F09F455C08093020182EE73
:1036600090E30E94C12E8F3F09F459C08093080156
:1036700086E090E00E94C12E8F3F09F45DC08093E8
:1036800007018CED90E30E94C12ED82F8DED90E3C1
:103690000E94C12E182F8EED90E30E94C12EC82FDC
:1036A0008FED90E30E94C12E282F9D2F91239C2304
:1036B00098239F3F09F04DC082E090E0A0E0B0E089
:1036C0008093030190930401A0930501B093060138
:1036D00010927302109272021092710210924702BD
:1036E00010921302DF91CF911F9108950E94F80369
:1036F00065EA8DEE90E30E946F2E0E948C2E882347
:10370000E1F3A4CF81E0809302010E94162F882369
:10371000E1F361E081EE90E30E94CA2EA0CF81E048
:10372000809308010E94162F8823E1F361E082EE66
:1037300090E30E94CA2E9CCF81E0809307010E94F3
:10374000162F8823E1F361E086E090E00E94CA2E04
:1037500098CF8C2F90E0B0E0A0E0DC01992788277B
:10376000912B8D2BB22B8093030190930401A09396
:103770000501B0930601AC01BD0141505109610939
:1037800071094F3956486140710508F095CF8F395E
:103790009648A140B10509F09BCF85E090E00E94DA
:1037A000C12E8F3F69F081708195809390021092B5
:1037B000AA031092AB031092AC031092AD0388CF12
:1037C00010929002F4CFCF92DF92EF92FF920F937C
:1037D0001F93CF93DF93CDB7DEB761970FB6F89401
:1037E000DEBF0FBECDBF10914D07143209F410C1DA
:1037F000D0F4133208F0D2C0133008F088C0123071
:1038000009F457C010E0812F61960FB6F894DEBF1F
:103810000FBECDBFDF91CF911F910F91FF90EF9021
:10382000DF90CF900895183228F4163208F43AC188
:103830001FEFE9CF183231F766E773E0FB01019023
:103840000020E9F7BF016150710949E757E086E7B9
:1038500093E00E94732808E010E0B80189E797E040
:103860000E944029882309F48DC11092760349E70C
:1038700057E067E773E086E793E00E94732899E7D3
:10388000C92E97E0D92EF12CE12CF60161916F0140
:10389000C701800F911F0E946F2E0E948C2E8823DB
:1038A000E1F3FFEFEF1AFF0A25E0E216F10469F7F2
:1038B000BFCF8091770790918602892B90917807EE
:1038C000892B21F082E00E940828B2CF0E94162F97
:1038D0008823C1F381E48093790780938A0382E48B
:1038E00080937A0780938B0383E480937B07809394
:1038F0008C0384E480937C0780938D0364E081E0F3
:1039000090E00E941A2A83E38093890391CF8091EB
:10391000770790918602892B90917807892B11F077
:10392000812FD1CF0E94162F8823D1F30DEF010FE5
:1039300040E250E06FEF70E089E797E00E94533378
:10394000011120C081E480937A0780938A0382E486
:1039500080937B0780938B0383E480937C07809321
:103960008C0384E480937D0780938D0310927E07FF
:10397000109290021092AA031092AB031092AC0323
:103980001092AD0360E220E2029FC00111240E9468
:103990001A2A81E0810F0E940828B5CF009177078D
:1039A00080918602082B80917807082B11F083E222
:1039B0008ACF0E94162F8823D1F3F12CE12CC70166
:1039C0000E94C12EF701EE52FF4FE4918E130FEFCC
:1039D0008FEFE81AF80A96E0E916F10481F758E04B
:1039E000E52EF12CC7010E94C12E182F8F3F51F4F4
:1039F000EFEFEE1AFE0AFCEDEF16F0E3FF0691F78B
:103A0000002311F083E05FCF0E94EF1A409AFBCEB3
:103A10001091770780918602182B80917807182BD8
:103A200011F084E250CF0E94162F8823D1F36EE864
:103A300073E0CE0101967C010E947933F701019079
:103A40000020E9F7BF016150710949E757E0C7015C
:103A50000E94732880910201813091F048E0E42EA9
:103A6000F12CB70189E797E00E944029811114C029
:103A7000F5E0EF0EF11C2CEDE21620E3F20689F7DB
:103A800080910801882309F4D3CE8091020181300E
:103A900029F40E947207CCCE1FEFF2CF112309F454
:103AA000C7CEF7CF66E773E0FB0101900020E9F78E
:103AB000BF016150710949E757E086E793E00E9432
:103AC000732838E0E32EF12C10E000E0C8018F717C
:103AD0009927892B21F40115110509F0A895B70143
:103AE00089E797E00E9440298111A2CE0F5F1F4F06
:103AF000F5E0EF0EF11C043C29E0120739F766E708
:103B000073E0FB0101900020E9F7BF0161507109EA
:103B100049E757E086E793E00E94732888E0E82EA3
:103B2000F12C10E000E00AC00F5F1F4FF5E0EF0E30
:103B3000F11C043C29E0120709F47ACEC8018F7108
:103B40009927892B09F4A895C7010E94C12E8F3FA0
:103B500059F729E7C22E27E0D22E10E000E0F60147
:103B600061916F01C8018E0D9F1D0E946F2E0E94F2
:103B70008C2E8823E1F3A8950F5F1F4F05301105A8
:103B800071F756CE0B5F1F4F0C3D80E3180709F00D
:103B900064CE4ECE0E944411811106C00E94E31BE8
:103BA000811102C00E9412170C944628E82FF0E001
:103BB000E056FC4F9081907F81E009F080E008950D
:103BC0009091A903892F8D7F8093A9038091A003F1
:103BD000807F90FD56C081114BC08091B2039091BF
:103BE000B303A091B403B091B5034091AE035091DB
:103BF000AF036091B0037091B10384179507A607D6
:103C0000B70798F40196A11DB11D8093B20390935C
:103C1000B303A093B403B093B503481759076A07D9
:103C20007B0719F481E08093A9038091A903909107
:103C3000B603891781F08093B603982F9260909312
:103C4000A90380FD53C01092B2031092B3031092E7
:103C5000B4031092B50380919F03882341F09091A3
:103C6000A9039D7F9093A903815080939F0308959A
:103C70001092B2031092B3031092B4031092B503E2
:103C8000D4CF882351F18091A5039091A603A091F0
:103C9000A703B091A8034091A1035091A2036091A2
:103CA000A3037091A40384179507A607B70708F02C
:103CB000BCCF0196A11DB11D8093A5039093A603CF
:103CC000A093A703B093A803481759076A077B0777
:103CD00009F0ABCF1092A903A8CF1092A5031092C0
:103CE000A6031092A7031092A8039FCF1092A503DA
:103CF0001092A6031092A7031092A803ACCF809154
:103D0000A003189B869581601899880F8093A00363
:103D10000895CF92DF92EF92FF928091AA03909143
:103D2000AB03A091AC03B091AD032091900200973A
:103D3000A105B105A1F00197A109B1098093AA03DA
:103D40009093AB03A093AC03B093AD03892B8A2B64
:103D50008B2B29F481E0211180E0809390028091E7
:103D60009002882309F442C08091740281113EC000
:103D7000C0902B02D0902C02E0902D02F0902E02E9
:103D80002FEFC216D206E206F20681F18FEFC81AB3
:103D9000D80AE80AF80AC0922B02D0922C02E092CC
:103DA0002D02F0922E02C701B6012AE030E040E079
:103DB00050E00E949130672B682B692BB9F464EEB8
:103DC00070E38C2D0E94292A65EE70E380912C020D
:103DD0000E94292A66EE70E380912D020E94292A12
:103DE00067EE70E380912E020E94292A8091900252
:103DF00080937402882369F080912B0290912C02A9
:103E0000A0912D02B0912E028032914AA740B105B7
:103E100010F05D9801C05D9AFF90EF90DF90CF9019
:103E2000089584E190E0A0E0B0E08093A103909336
:103E3000A203A093A303B093A4038093AE03909333
:103E4000AF03A093B003B093B10384EE90E30E945C
:103E5000EE2E6F3F2FEF72078207920749F06093B3
:103E60002B0270932C0280932D0290932E020895C2
:103E700010922B0210922C0210922D0210922E0200
:103E800008951092B6031092AA031092AB031092F9
:103E9000AC031092AD038EE180939F03089590933D
:103EA0003A05809339051092430510924205E0ECE3
:103EB000F0E0808180648083F894E1ECF0E0808120
:103EC00080648083789400008FEF80937802089557
:103ED000CF93DF9321E42093FB0524E52093FC0599
:103EE000ADEFB5E0FC0193E0981B892F8E0FED013B
:103EF00024912D93211107C09DE0988390E0DF91DC
:103F0000CF910C944F1F3196F0CFEBEFF5E081E4A9
:103F1000808384E5818301900020E9F7CF018C5FE5
:103F200095409927FC01E550FA4F2DE0208301963A
:103F30000C944F1F78942F932FB72F933F938F9309
:103F40009F93EF93FF932091420530914305809119
:103F5000390590913A052817390788F0F89480912F
:103F6000C1008F7B8093C10078940000FF91EF9196
:103F70009F918F913F912F912FBF2F91189532993B
:103F800010C08091420590914305FC01E550FA4F25
:103F90002081019690934305809342052093C600AB
:103FA000E5CF8FEF80937802E1CF8F938FB78F9318
:103FB0008091C1008F778093C10078948091C60072
:103FC0000F924F931F9211242F933F93EF93FF93E0
:103FD000AF93BF939F9320913E0530913F058F3F54
:103FE00009F4E8C0ECEBF3E0A9012C3791E03907C4
:103FF00008F0CDC02115310521F48A3009F04AC0FE
:104000002CC09091BC038D3009F59D30F9F09A30A9
:10401000E9F09091B703911119C091E8909377025C
:10402000439AF8949091C1009F779093C10090B704
:104030009D7F90BF789400001092BB031092BA034A
:1040400010923C0510923B051092B70321153105E3
:10405000A1F290819D3089F61DC09091B703911116
:1040600019C091E890937702439AF8949091C10017
:104070009F779093C10090B79D7F90BF7894000088
:104080001092BB031092BA0310923C0510923B05AC
:104090001092B7038F01A9014F5F5F4FDF01A20F9D
:1040A000B31F00B601FE5DC02430310508F459C0CD
:1040B0008A3009F056C0BD0161507109EB01988149
:1040C0009D3009F04EC061507109EB0198819A3022
:1040D00009F447C061507109EB0198819D3009F4E2
:1040E00040C0EF0191819A30E1F590819D30C9F592
:1040F00060913B0570913C057093BB036093BA03DC
:1041000050933C0540933B059091B7039F5F90937C
:10411000B70360914A0570914B0570934D0560930C
:104120004C05609148057091490570934B0560936B
:104130004A05609146057091470570934905609363
:1041400048056091BA037091BB0370934705609373
:10415000460560913B0570913C0570934505609361
:10416000440590913D05992361F02330310549F4D0
:10417000803239F49091BE039E3319F49FEF9093EF
:10418000B8038C939A01E40FF51F10820FC030E042
:1041900020E080E8809377021092BB031092BA036C
:1041A00010923C0510923B051092B70330933F05E7
:1041B00020933E0510924E059F91BF91AF91FF91C4
:1041C000EF913F912F911F904F9100B601FE08C0D3
:1041D000F8948091C10080688093C10078940000B9
:1041E0000F908F918FBF8F91189583E08093C400BB
:1041F0001092C500E1ECF0E08081886180838BB192
:104200008C7F8BB95198429843983B98089599B107
:10421000892F887093FF0EC010920A0110923F05FB
:1042200010923E05519A8BB183608BB93B9A439AA9
:10423000429A8FEF089580910A018823B9F191E0A5
:10424000980F90930A01913A39F1A8F49F30D9F070
:1042500030F49230D1F09330E9F080E00895875245
:104260008430D8F70E94072191E0811101C090E0CD
:10427000892F819508959F3FA0F4953F98F7983C2A
:1042800049F0973D51F75498E8CF54980E94072180
:1042900081110BC0549AE1CF1092760210927502F0
:1042A000DCCF81E080930A01D8CF8FEF0895FC0125
:1042B0004217130609F048F4DB01A454BC4F90E008
:1042C000491305C0942F81E0491380E008952D9192
:1042D00084912813F8CF31969F5FF2CF8FB7F8946F
:1042E0001092BB031092BA0310923C0510923B054A
:1042F0008FBF08952F923F924F925F926F927F925D
:104300008F929F92AF92BF92CF92DF92EF92FF92E5
:104310000F931F93CF93DF93C8E047E0842E59E0BB
:10432000952E63E0762E78E0672EE5E15E2EF2E0D2
:104330004F2EADE03A2E222423949FB7F89480911B
:10434000B703811128C09FBFC0915905CC2301F14B
:10435000C150C0935905D0E0C15BDA4F888180938A
:1043600077021882C09177028C2FDF91CF911F9135
:104370000F91FF90EF90DF90CF90BF90AF909F9004
:104380008F907F906F905F904F903F902F90089507
:1043900010927702E9CF853008F084E0E82FF0E052
:1043A000EE0FFF1FEC5BFA4FC080D18011821082AC
:1043B0008150E82FF0E0EE0FFF1FEC5BFA4F2081F9
:1043C00031818093B7039FBFC216D306A8F58091B1
:1043D00059058A3010F09092590589010C191D0970
:1043E00004501109760142E0E40EF11CC901845425
:1043F0009C4FFC013397B0803197A080F601E454C4
:10440000FC4FD581EBE4BE121BC0FFE4AF1245C1E7
:104410000597FC018081803209F45AC126303105AC
:1044200008F456C1E091590581E08E0F809359053B
:10443000F0E0E15BFA4F2082C15009F07ECF94CFCB
:10444000D734A1F4980146E0B70184EC93E00E94D0
:104450005721882359F0E091590581E08E0F809310
:104460005905F0E0E15BFA4F3082E6CFFFE4AF128E
:1044700015C0980145E0B7018EEB93E00E945721EB
:10448000882361F0E091590581E08E0F80935905F2
:10449000F0E0E15BFA4F44E04083CECF87E4B8120E
:1044A00015C0980147E0B70186EB93E00E945721C1
:1044B000882309F4F5C0E091590581E08E0F8093BF
:1044C0005905F0E0E15BFA4F4082B6CFE4E4BE125A
:1044D000E7C098014CE0B70189EA93E00E945721B8
:1044E000882309F4DDC0E091590581E08E0F8093A7
:1044F0005905F0E0E15BFA4F8CE080839DCFDD341D
:10450000A1F4980146E0B7018BE993E00E9457219E
:10451000882309F1E091590581E08E0F80935905B8
:10452000F0E0E15BFA4F508287CFD435A1F49801D7
:1045300046E0B70184E993E00E945721882359F0AF
:10454000E091590581E08E0F80935905F0E0E15B21
:10455000FA4F608271CFF5E4AF1214C098014AE0BF
:10456000B70189E893E00E945721882359F0E09130
:10457000590581E08E0F80935905F0E0E15BFA4F19
:1045800070825ACF45E4B41214C098014BE0B701D1
:104590008DE793E00E945721882311F1E09159059E
:1045A00081E08E0F80935905F0E0E15BFA4F908235
:1045B00043CF89E5B81214C0980144E0B70188E7F9
:1045C00093E00E945721882359F0E091590581E03A
:1045D0008E0F80935905F0E0E15BFA4F80822CCF7B
:1045E000D53411F598014BE0B7018CE693E00E94B9
:1045F0005721882309F420CF4AE050E070E060E0C2
:10460000C60186539C4F0E94E331709382026093EF
:104610008102E091590581E08E0F80935905F0E009
:10462000E15BFA4F45E038CFD33509F005CF98016B
:104630004BE0B70180E693E00E9457218823C1F048
:104640004AE050E070E060E0C60186539C4F0E9453
:10465000E3317093800260937F02E091590581E01D
:104660008E0F80935905F0E0E15BFA4F86E045CF6D
:10467000980146E0B70189E593E00E94572188231D
:1046800009F4DACEE091590581E08E0F8093590547
:10469000F0E0E15BFA4F8EE030CFD73409F4D2CEB0
:1046A000D93409F02CCF980146E0B70182EA93E0B3
:1046B0000E945721882309F44ECFE091590581E0EB
:1046C0008E0F80935905F0E0E15BFA4F8AE015CF39
:1046D000D73409F0CECEB6CECF930E947A2188236C
:1046E000D9F080917702843021F0833111F081304C
:1046F00089F4CFB7F8940E946E21439AF894809180
:10470000C1008F778093C10080B78D7F80BF789480
:104710000000CFBF80917702CF910895AF92BF92F2
:10472000CF92DF92EF92FF920F931F93CF93DF937D
:104730006C01B62EA42EF601C081D181888190E053
:104740000E94C432892B39F5FAE0BF9E8001112402
:1047500002511C4FBA1498F4F801E490F12CB801FE
:104760006F5F7F4FA701CE010E94D532065F1F4FBA
:10477000892BB1F4CE0DDF1DF601D183C0838B2DC3
:10478000DF91CF911F910F91FF90EF90DF90CF902D
:10479000BF90AF9008952196F601D183C083CBCF0F
:1047A000B394D8CFEF92FF920F931F93CF93DF93E1
:1047B0007C01F701C081D181088110E0C8010E940D
:1047C000C432892B09F03FC0C8010E94CD328C0150
:1047D00080918A0390E00E94CD3208171907C1F535
:1047E000898190E00E94CD328C0180918B0390E012
:1047F0000E94CD320817190759F58A8190E00E946E
:10480000CD328C0180918C0390E00E94CD3208174C
:104810001907F1F48B8190E00E94CD328C018091D8
:104820008D0390E00E94CD320817190789F4249671
:10483000F701D183C0838FEFDF91CF911F910F914B
:10484000FF90EF9008952196F701D183C083B1CFF7
:1048500080E0F2CF44E050E069EE73E00E94D53290
:1048600021E0892B09F020E0822F08950C948E23FB
:10487000EF92FF920F931F93CF93DF93EC017B0195
:10488000088119814AE050E0BC01C8010E94D33080
:10489000F701608371838283938381E0288139816A
:1048A0002017310709F480E0DF91CF911F910F911C
:1048B000FF90EF900895DF92EF92FF920F931F9376
:1048C000CF93DF937C01D62EF701C081D18108817F
:1048D00010E0C8010E94C432892BA1F48D2D90E014
:1048E0000E94CD320817190791F42196F701D18360
:1048F000C0838FEFDF91CF911F910F91FF90EF90C9
:10490000DF9008952196F701D183C083DDCF80E049
:10491000F1CFDF92EF92FF920F931F93CF93DF932C
:104920008C01D62EF801E080F180CE2DDF2D89910B
:1049300090E00E94C432892B89F48D2D90E00E9472
:10494000CD32982FF7018191882361F07F01981370
:10495000F9CFD801ED93FC938FEF06C0D801CD932A
:10496000DC93E0CF9923A9F3DF91CF911F910F91B1
:10497000FF90EF90DF900895CF92DF92EF92FF9239
:104980000F931F93CF93DF938C01E62ED72EF42E37
:10499000F801C081D181888190E00E94C432892BC6
:1049A00089F4CE2DDD2DEF0C6E01EC1210C0F60156
:1049B0001082DF91CF911F910F91FF90EF90DF90C8
:1049C000CF9008952196D801CD93DC93E1CFD80103
:1049D000ED91FC91F0808F2D90E00E94C432892BE4
:1049E00031F7F992FF2019F3D8018D919C9111971D
:1049F00001968D939C93D8CF8F929F92AF92BF9246
:104A0000CF92DF92EF92FF920F931F93CF93DF939A
:104A1000CDB7DEB764970FB6F894DEBF0FBECDBF3B
:104A20007C016B01042FF701A080B180F50180812A
:104A300090E00E94C432892B09F049C010E0450182
:104A4000F50181915F01882349F0143138F48032F7
:104A5000B1F30E9460288D3009F040C0512F1A3008
:104A600008F059E0812F193008F489E08950990B3A
:104A7000A1E0B0E0AC0FBD1FA80FB91FC60130E028
:104A800020E00150110B251718F420173107BCF155
:104A9000F601E50FF11D1082F6018081882321F0D7
:104AA000F701808291828FEF64960FB6F894DEBF93
:104AB0000FBECDBFDF91CF911F910F91FF90EF906F
:104AC000DF90CF90BF90AF909F908F9008958FEF21
:104AD000A81AB80AF701B182A082A5CFF5013197D3
:104AE000808190ED980F9A3008F0A9CFE1E0F0E0D6
:104AF000EC0FFD1FE10FF11D80831F5FA0CF4D91D3
:104B0000FC014193CF012F5F3F4FBDCF9F92AF92EA
:104B1000BF92CF92DF92EF92FF920F931F93CF93AA
:104B2000DF9300D000D000D00F92CDB7DEB79F83C7
:104B30008E837C0182E3F701A9E7B7E001900D9233
:104B40008A95E1F75701F50181918F0190E00E946C
:104B5000C432892BE1F5CE0101966C0185015C011F
:104B600084E0982E900EF80181918F01882349F0FE
:104B700090E00E94CD32F60181936F019012F3CF45
:104B80008FEF1D82882329F161EF71E0C5010E943A
:104B90007033892BF1F468E871E085E693E00E94B8
:104BA0008F33892BB1F010E1812F27960FB6F8943F
:104BB000DEBF0FBECDBFDF91CF911F910F91FF9050
:104BC000EF90DF90CF90BF90AF909F9008955801E5
:104BD000BACFCE0106960E94D2232E819F818111E9
:104BE00008C0822F0E942A24182F8823E9F21BE094
:104BF000DBCF022F192FF80181918F01811110C095
:104C00004AE160E0CE0106960E948E23182F8A3179
:104C100008F0FCC1E82FF0E0EE50F94C0C94B330F2
:104C200090E00E94CD32F80131978083E4CF0F5F8E
:104C30001F4F1F830E830E811F81F801808190E03A
:104C40000E94C432892B99F730E020E0C8018E1908
:104C50009F098758984FFC01E20FF31F40815FEBDB
:104C6000540F5A3128F040534A3010F012E09CCFD4
:104C70002F5F3F4F2430310571F7FC014081518196
:104C80006281738140938A0350938B0360938C03FA
:104C900070938D0344E061E070E00E94F92913E015
:104CA00083CF4EE066E773E0CE0106960E94FC24B7
:104CB00081117ACF16E078CF4EE066E773E0CE013F
:104CC00006960E94FC24882389F285E20E94082827
:104CD000E6CF4EE066E773E0CE0106960E94FC2424
:104CE000882321F288E2F2CF47E168E0CE01069600
:104CF0000E948E23883071F481E08093020161EE7E
:104D000070E30E94292A8FEF8093080162EE70E31E
:104D100081E00EC08930C1F481E08093020161EE30
:104D200070E30E94292A1092080162EE70E380E08D
:104D30000E94292A1092070166E070E080E00E943C
:104D4000292A0E946607ABCF8631A9F481E08093BF
:104D5000020161EE70E30E94292A1092080162EEBE
:104D600070E380E00E94292A8FEF8093070166E0BC
:104D700070E081E0E4CF853109F078CF81E0809365
:104D8000020161EE70E30E94292A1FEF10930801CF
:104D900062EE70E381E00E94292A10930701E7CFB9
:104DA00047E168E0CE0106960E948E23883031F4F8
:104DB0001092020161EE70E380E0A3CF893031F4FC
:104DC0001092020161EE70E380E0ABCF863131F4E6
:104DD0001092020161EE70E380E0BDCF853109F0F1
:104DE00045CF1092020161EE70E380E0CCCF0F5FFF
:104DF0001F4F1F830E830E811F81F801F0808F2DBE
:104E000090E00E94C432892B91F7FF2009F42ECF45
:104E100081E48093FB0584E58093FC051F930F9349
:104E200086EF91E09F938F938DEF95E09F938F9303
:104E30000E94F3330E94851F8FEF809331028CE232
:104E400091E09093300280932F020F900F900F907B
:104E50000F900F900F9023CFB501CE0106960E94C0
:104E60003824882309F402CF8981482F5A816B8125
:104E70007C818A019B0101501109210931090F39F7
:104E800016482140310508F0F1CEC0900301D090C2
:104E90000401E0900501F090060140930301509356
:104EA000040160930501709306016CED70E30E94AC
:104EB000292A6DED70E3809104010E94292A6EED8C
:104EC00070E3809105010E94292A6FED70E38091C3
:104ED00006010E94292A2FE9C21626E8D20621E0FF
:104EE000E206F104C9F489819A81AB81BC818F39D2
:104EF0009648A140B10581F065E070E08FEF0E9417
:104F0000292A109290021092AA031092AB031092D9
:104F1000AC031092AD035D980E9466071FE044CE7B
:104F20000F5F1F4F1F830E830E811F81F801808149
:104F300090E00E94C432892B99F742E050E066EE7F
:104F400073E0C8010E94FD32892B21F58FE996E8B4
:104F5000A1E0B0E08093030190930401A0930501C8
:104F6000B09306016CED70E38FE90E94292A6DED84
:104F700070E3809104010E94292A6EED70E3809114
:104F800005010E94292A6FED70E3809106010E94BD
:104F9000292AC2CF43E050E062EE73E0C8010E94CC
:104FA000FD32892B09F062CE82E090E0A0E0B0E013
:104FB0008093030190930401A0930501B09306012F
:104FC0006CED70E3D2CF88E198E00FB6F894A89525
:104FD000809360000FBE90936000FFCF8FEF8093AF
:104FE000110291E0909302018093080180930701E0
:104FF00065E673E08EE992E00E9479336BEC73E032
:105000008AE595E00E94F63284E760CE11E0CCCDCF
:10501000EDE4F7E030E020E09191911105C0235BD1
:10502000384FF901808308952F5F3F4F2A303105B3
:1050300099F70895EDE4F7E030E020E091919817BA
:1050400061F0911105C0235B384FF9018083089509
:105050002F5F3F4F2A30310589F7089590E0E92FFF
:10506000F0E0E35BF84F2081281770F0621760F0E2
:10507000292F293028F0109256079A3081F7089589
:10508000318131932F5FF5CF9F5FF7CFEDE4F7E0EC
:105090008181819387E0E635F807D1F710925607B2
:1050A0000895EDE4F7E02AE02E0F9191981710F0A3
:1050B000691720F42E13F9CF80E008958FEF08953B
:1050C0008B3259F030F4833251F08A3251F08DE056
:1050D000089580538A30D8F708958AE008958CE0C7
:1050E00008958BE00895AF92BF92CF92DF92FF9226
:1050F0000F931F93CF93DF93182FEB016A0145E0C5
:1051000050E06FEF70E0C6010E9453338C2F811B7B
:10511000182F219700E0823058F4DF91CF911F9132
:105120000F91FF90DF90CF90BF90AF900895092F1F
:1051300088810E946028F82EF29480EFF822FE0108
:1051400082915F010E9460288F29113061F4E5018E
:105150008F6010E091E0900FF601E00FF11D808369
:105160001111E5CFDACF22971250F4CFE82FF0E0FB
:10517000EE50FB4F84910895CF93DF939C01EB0198
:105180001882BC0180E0DB016F5F7F4F9C919F3FE5
:1051900019F0853009F04AC0A217B30709F44AC0D4
:1051A000642F70E090E0880F991F119768177907B6
:1051B00044F4DB011197B7FDDB01B595A795A20F6C
:1051C000B31FEC918E2F8F708F3091F5E295EF70B9
:1051D000F0E0EE50FB4F84918883882319F02196EC
:1051E000119781E011961197A217B307D8F0EC91AF
:1051F000EF70F0E0EE50FB4FE491E883EE2311F006
:1052000021968F5F841771F0EC91E295EF70F0E0DA
:10521000EE50FB4FE491E9938F5F481719F02A177E
:105220003B0709F71882DF91CF9108958F5FABCFCD
:1052300080E0D8CF80E0F7CFFF920F931F93CF93FA
:10524000DF9300D000D00F92CDB7DEB78B01F42EE4
:1052500045E050E0BC01CE0101960E94DE2E4F2DAC
:10526000B801CE0101960E94BC280F900F900F90BC
:105270000F900F90DF91CF911F910F91FF900895A4
:105280000F931F93CF93DF93EC018B0188818F3FA6
:1052900089F0CB010E94C12E8F3F61F0C8010E94AE
:1052A000C12E382F307F9991292F207F303F89F0F0
:1052B000203F11F480E010C03213FCCF8F709F703C
:1052C0008F3079F09F30B1F38913F4CF0F5F1F4F08
:1052D000E5CF81E0203F71F7DF91CF911F910F91D2
:1052E000089581E09F3031F7F7CF0F931F93CF934D
:1052F000DF9300D000D00F92CDB7DEB78B01FC0159
:1053000001900020E9F73197BF01681B790B680F06
:10531000792F711DAE014F5F5F4F0E947328B80156
:10532000CE0101960E9440290F900F900F900F9090
:105330000F90DF91CF911F910F9108950F931F93BD
:10534000CF930E94162F882381F180917707909147
:105350008602892B90917807892B39F1C0918502BB
:105360000C2F10E08091750790917607800F911FA8
:105370000E94E52DF801E758F84F9081891301C08C
:10538000CF5F80918602C817A0F48C2F90E0FC01BB
:10539000E758F84F20917507309176076081820FAA
:1053A000931F0E946F2EC0938502CF911F910F9182
:1053B000089580917707109277078093860229E7F6
:1053C00037E0F901882379F39E2F921B981770F02C
:1053D0008091AB079091AC07909376078093750707
:1053E000609179070E946F2EC0E0DDCF90A5919368
:1053F000EBCF0F931F93CF938B01C42F4423B1F0B6
:1054000050E0BC0189E797E00E944A331093760789
:105410000093750710928502C09386026091790708
:10542000C801CF911F910F910C946F2ECF911F91B6
:105430000F910895662361F0909376078093750726
:105440001092850260938602609179070C946F2E0A
:1054500008951F93CF93DF93182FEB01CB010E9488
:10546000C12E811791F010937907D0937607C093DE
:1054700075071092850281E080938602612FCE012C
:10548000DF91CF911F910C946F2EDF91CF911F91DF
:1054900008950F931F93CF93DF9300D000D0CDB723
:1054A000DEB78C0119821A821B821C820E94C12ED7
:1054B0008983C80101960E94C12E8A83C801029681
:1054C0000E94C12E8B8369817A818B819C810F9090
:1054D0000F900F900F90DF91CF911F910F91089532
:1054E000DF92EF92FF920F931F93CF93DF93DC0134
:1054F0001D91141710F01FEF140F862F072FC0E017
:10550000D12C90E0D0E827E030E0C1130CC0C60FEA
:10551000D72FD11D1882DF91CF911F910F91FF904E
:10552000EF90DF9008954D2D50E0EC91F0E0ED2EDE
:10553000F12CE094F094EE21FF2102C0EE0FFF1F4A
:10554000DA94E2F7E90FF11DED5EF94F9491E82E40
:10555000F02EF70191937F01CF5FFC2FF770DF2EC4
:1055600089F0ED91ED23F0E0C901841B950B02C099
:10557000F595E7958A95E2F79E2FD695D0588E2D12
:105580000F2DC3CF90E0D0E8FACFCF92DF92EF9209
:10559000FF920F931F93CF93DF93EC01461B570BA2
:1055A000DC014D933FEF340F90E020E00FE710E077
:1055B00087E04FEF50E0231738F188818770D1F0F2
:1055C000FB01E20FF11DE081F0E0ED5EFA4F249166
:1055D0004FE750E0092E02C0440F551F0A94E2F72E
:1055E000E22FF0E0E423F52302C0F695E7959A95C3
:1055F000E2F7ED93CD01DF91CF911F910F91FF90D5
:10560000EF90DF90CF9008956B01C20ED11CF60190
:10561000F080EF2DF0E0ED5EFA4FE4917801092E75
:1056200002C0EE0CFF1C0A94E2F7F0E0EE22FF222B
:10563000092E02C0F694E7940A94E2F7F601F1808D
:10564000EF2DF0E0ED5EFA4FE491F82EF91A6A01C1
:105650000F2C02C0D694C7940A94E2F7EC2101C043
:10566000EE0FFA94EAF7EE29ED939F5F973011F46D
:105670002F5F90E02F5F9FCFFC01640F752F711D8E
:105680004617570709F4089590819A3370F49053A0
:10569000292F2295207F91819A3348F49053920FBD
:1056A000DA019D93AD013296EBCF9753F1CF97532B
:1056B000F6CF1F93CF93DF93DC01EA018C91873CF7
:1056C00050F0DB011C928FEF888390E080E0DF9147
:1056D000CF911F91089518828C9190E00196A80FA8
:1056E000B91F8C918B7F11F08FEF888311963C91BD
:1056F0001197313130F7FD01339612968C91982F26
:105700009F7E41E0913809F040E0813921F48BE23D
:10571000DB018D93BD01562F172F80E010C09081C3
:10572000222311F0929531969F70905D411101C036
:1057300090E3A52FB12F9D938F5F5A2F1B2F282FFA
:1057400021708313ECCF680F711DDB011C922111B6
:1057500001C031978281882311F08FEF8883CF01B8
:105760000396B5CFFC019081A92FAF708AE0929586
:105770009F70A89F900D1124DB019C939181692F4C
:105780006F7092959F70689F900D1124DA019C9321
:105790009281492F4F7092959F70489F900D1124D0
:1057A000D9019C93CF0103960895FC019081A92F04
:1057B000AF708AE092959F70A89F900D1124DB0135
:1057C0009C939181692F6F7092959F70689F900D47
:1057D0001124DA019C939281492F4F7092959F700A
:1057E000489F900D1124D9019C93CF0104960895F0
:1057F000CF93DF93DB012C9161E82B3211F41196EA
:1058000061E9FD0101900020E9F73197EA1BFB0BEC
:10581000EC01E11105C01992CE01DF91CF910895FD
:10582000E883AC014E5F5F4F6983CF0199270196F2
:1058300095958795D82F742FC52F60E06D1303C001
:10584000840F951FEACF2C91205311963C9111970C
:10585000332359F012963295307F232BE72FFC2FFC
:1058600021936F5F7E2FCF2FE9CF1196206FF6CF58
:10587000CF93DF93DB012C91211106C0FC01119223
:10588000CF01DF91CF91089561E82B3211F4119689
:1058900061E9FD0101900020E9F731979F012A1B82
:1058A0003B0B33272F5F3F4F35952795D22F41E094
:1058B000420FFC014083AC014E5F5F4F6183742F48
:1058C000C52F60E0D61304C0CA01820F931FD9CF41
:1058D0008C91805311969C911197992359F01296AF
:1058E0009295907F892BE72FFC2F81936F5F7E2FFE
:1058F000CF2FE8CF1196806FF6CFEF92FF920F93E4
:10590000CF937B01C22FBA010E94382C21E1FC0108
:1059100020831182B70102960E94F82BFC01C083FC
:1059200001832AEA22830396CF910F91FF90EF9093
:105930000895CF93DF930F92CDB7DEB79C01CB01D3
:10594000582F561B541720F00F90DF91CF910895D8
:10595000DC019D91892F807F898382958983E981EC
:10596000F0E0EE5FFA4F8491F90180839F70E92F98
:10597000F0E0EE5FFA4F8491F90181832E5F3F4F93
:10598000CD01DECF1092CD0087E08093CC0082E085
:105990008093C80088E18093C90086E08093CA00A4
:1059A000239A24982C9A08959091C80095FFFCCFD3
:1059B0008093CE0008958091C80087FFFCCF80912E
:1059C000CE0008958091C800881F8827881F0895F9
:1059D000CF93DF93EC018991811103C0DF91CF91C7
:1059E00008950E94D42CF7CFCF93DF9380918F023C
:1059F000813061F48091C80087FF1BC00E94DB2CBE
:105A000080938E0282E080938F0210C0823089F4EE
:105A10008091C80087FF0DC00E94DB2C90918E0200
:105A20000E94C12E0E94D42C10928F02DF91CF9140
:105A3000089580918D02813061F48091C80087FFC4
:105A40004DC00E94DB2C80938C0282E080938D02FB
:105A5000EDCF823051F48091C80087FF3FC00E9493
:105A6000DB2C80938B0283E0F1CF8330B9F58091FA
:105A7000C80087FF33C00E94DB2C20918C029091DC
:105A80008B02682F892F922F0E94C32E809187024C
:105A900090918802A0918902B0918A020196A11D7D
:105AA000B11D8093870290938802A0938902B093DE
:105AB0008A0210928D020097A140B10508F4B6CF7A
:105AC00010928702109288021092890210928A0224
:105AD0008BE092E0DF91CF910C94E82C8091C8008C
