:100000000C944A030C9467030C9467030C946703E5
:100010000C9467030C9467030C9467030C946703B8
:100020000C9467030C9467030C9467030C946703A8
:100030000C9467030C9467030C9456040C946703A8
:100040000C9467030C9467030C94D51F0C946703FE
:100050000C949A1F0C9467030C9467030C94670329
:100060000C9467030C9467030C9467030C94670368
:100070000C9467030C9467030C9467030C94670358
:100080000C9467030C9467030C9467030C94670348
:100090000C9467030C9467030C9467030C94670338
:1000A0000C9467030C9467030C9467030C94670328
:1000B0000C9467033A00206F3A200057796B7279ED
:1000C000746F20737465726F77616E6965207A3A18
:1000D0002000FF4142434400000043444547484953
:1000E0004A352B6370696E3F00000000000000007D
:1000F0002B636E6D693D322C312C322C31002B6D0F
:100100006F72696E673D3100000000002B636C69FF
:10011000703D31000000000000002B646465743DF8
:10012000312C31302C3100002B63616C6D3D31007E
:100130000000000000002B6372736C3D3100000072
:10014000000000002B637573643D31000000000067
:1001500000002B637062773D32362C223122000082
:100160002B636C74733D30000000000000002B63B3
:100170006D69633D302C3135002B636D6764613DE3
:1001800036002B6370696E3D223139373622002BE1
:100190006966633D322C32002B63706D733D2253D0
:1001A0004D222C22534D222C22534D22002B6364CE
:1001B000736362002B63636C6B3F002B636F707320
:1001C0003F002B637062723D3236002B63726567AD
:1001D0003F002B637371002B7674733D3100610017
:1001E00068002B434D54493A002B636D67643D0012
:1001F0002B636D67723D002B636D67733D002B436E
:100200005553443A002B434D54493A002B44544D26
:10021000463A002B434C49503A003E002B434D4791
:10022000523A002B434F50533A002B435245473A22
:10023000002B4353513A002B4350494E3A2052452C
:10024000414459002B43434C4B3A00206F3A200065
:1002500057796B7279746F20737465726F77616E02
:100260006965207A3A2000303031414520426C6186
:10027000642050616D69656369007777772E736FCD
:100280006E66792E706C00576C61637A79204F55D9
:1002900054206E613A200057796C61637A79204F5F
:1002A0005554207A613A200057796C61637A6F6EF9
:1002B000792028426973746162696C6E79290A0039
:1002C000576C61637A6F6E7920284269737461623A
:1002D000696C6E79290A00437A6173204F55543A4C
:1002E00020002044544D460020534D530020534DD0
:1002F000530020434C495000537465726F77616E10
:1003000069653A20005075626C69637A6E790A00FB
:100310005072797761746E790A00547279623A206A
:1003200000557A79746B6F776E6963792000557A1E
:1003300079746B6F776E6963793A2000506F7A69D0
:100340006F6D2047534D3A200041432D32303030FD
:100350002D44544D462D460A002B435553443A0034
:100360002B434D53204552524F523A002B434D459B
:10037000204552524F523A0042555359004E4F2099
:100380004449414C544F4E45004E4F204341525238
:10039000494552002B434D54493A002B44544D4695
:1003A0003A002B434C49503A004D4F20434F4E4E9C
:1003B0004543544544004D4F2052494E4700455255
:1003C000524F52002B434D47533A005472796220EA
:1003D0007365727769736F777920616B7479776E63
:1003E00079004F4646004F4E0043334434000443E7
:1003F0004F44450000000000034144440000000059
:1004000000000344454C0000000000000458585808
:10041000580000000000065245504F5254000000A2
:1004200004555345520000000000044F50454E0053
:100430000000000005434C4F5345000000000443FA
:100440004C495000000000000444544D4600000098
:100450000000035345540000000000000454494DBF
:1004600045000000000006534B5259424100000075
:100470000544454255470000000003535542000023
:1004800000000000054D594E554D00000000045578
:10049000535344000000000003434F4E000000008F
:1004A0000000024F4E0000000000000005544F47BE
:1004B0004C450000000003525354000000000000AF
:1004C00008534D5320434C49500003534D530000F3
:1004D00000000000045354414E000000000004548A
:1004E000454348000000000003535953000000003A
:1004F0000000303132333435363738392B2A232156
:1005000021003031323334353637383941424344B3
:100510004546003F3F3F3F3F3F3F3F3F3F0A3F3F52
:100520000D3F3F3F3F3F3F3F3F3F3F3F3F3F3F3F0D
:100530003F3F3F202122230225262728292A2B2C32
:100540002D2E2F303132333435363738393A3B3C63
:100550003D3E3F004142434445464748494A4B4C93
:100560004D4E4F505152535455565758595A3F3F7C
:100570003F3F113F6162636465666768696A6B6CDF
:100580006D6E6F707172737475767778797A3F3F9C
:100590003F3F3F3F3F3F3F3F3F3F3F3F3F3F3F3F6B
:1005A0003F3F3F3F3F3F3F3F3F3F3F3F3F3F3F3F5B
:1005B0003F3F3F3F403F0124033F5F3F3F3F3F3FBF
:1005C0003F3F3F3F3F3F3F3F3F3F3F3F3F3F3F3F3B
:1005D0003F3F603F3F3F3F5B0E1C093F1F3F3F3F98
:1005E0003F3F3F3F5D3F3F3F3F5C3F0B3F3F3F5EF5
:1005F0003F3F1E7F3F3F3F7B0F1D3F04053F3F07AF
:100600003F3F3F3F7D083F3F3F7C3F0C063F3F7EE3
:100610003F3F3F40A324A5E8E9F9ECF2C70AD8F828
:100620000DC5E53F5F3F3F3F3F3F3F3F3F3F3FC639
:10063000E6DFC920212223A425262728292A2B2CBE
:100640002D2E2F303132333435363738393A3B3C62
:100650003D3E3FA14142434445464748494A4B4CF1
:100660004D4E4F505152535455565758595AC4D65F
:10067000D1DCA7BF6162636465666768696A6B6C99
:100680006D6E6F707172737475767778797AE4F63F
:10069000F1FCE00011241FBECFEFD8E0DEBFCDBFDC
:1006A00012E0A0E0B1E0E8E1FEE602C005900D92A4
:1006B000AC30B107D9F727E0ACE0B2E001C01D9241
:1006C000AB3AB207E1F70E94182F0C94DF360C9476
:1006D0000000CF93DF930F92CDB7DEB7CE018A5AD9
:1006E000974097FD0BC020910001309101018217C6
:1006F000930720F490930101809300010F90DF9104
:10070000CF91089510923402109233021092320267
:100710000895CF93DF93CDB7DEB764970FB6F89403
:10072000DEBF0FBECDBFAC01E0E0DA019D91AD01AF
:10073000992351F1E431D0F08E2FE93008F489E0AB
:1007400097EF980F4E2F491B8950990B21E030E00D
:100750002C0F3D1F820F931F362FDB012A2F231BE7
:100760002417F8F0FB01E40FF11D11C080ED890F93
:100770008A30D8F621E030E02C0F3D1F2E0F311DBE
:10078000D9019C93EF5FD1CFE111D6CFFB0110824D
:1007900064960FB6F894DEBF0FBECDBFDF91CF9148
:1007A0000895FC012191CF012D93D8CF80914C0267
:1007B00095EB980F8C5E943108F083E30C941A2823
:1007C00080916702909168028F3F980729F0019607
:1007D00090936802809367028AE080931E021092D1
:1007E0001D02109285030E94820383E30C941A2851
:1007F000CF93DF93D0E0C0E06FEFCE010E946F2E69
:100800000E948C2E8823E1F3CE018F709927892BCB
:1008100009F4A8952196CD3E84E3D80769F7DF91C6
:10082000CF910895BC0188EB93E00C9423338FEFB4
:100830009FE80197F1F700C000008FEF9FE8019754
:10084000F1F700C000008FEF9FE80197F1F700C0BB
:1008500000008FEF9FE80197F1F700C000008FEFD5
:100860009FE80197F1F700C00000A89508958091D6
:1008700061028F5F843618F48093610208951092AC
:1008800061028091600291E0811190E0909360029A
:10089000811102C040980895409A089580919C0368
:1008A000807F11F4409A08954098089578940F92AB
:1008B0000FB60F921F9211242F938F939F93EF9354
:1008C000FF93809115028F5F80931502823128F08B
:1008D000109215028FEF809317024B9B57C000B602
:1008E00001FC16C080917302811112C010923B0569
:1008F00010923A0510924A0580B7826080BFF89442
:100900008091C10080688093C10078940000439872
:1009100032992FC0F8948091C10086FF29C0809140
:10092000C1008F7B8093C1007894809174028823EA
:10093000C9F080917202811104C080914C028D3205
:1009400089F41092740280913E0590913F05FC015C
:10095000E950FA4F2081019690933F0580933E0520
:100960002093C600F8948091C10080648093C100F8
:1009700078948FEF80931802FF91EF919F918F9160
:100980002F911F900F900FBE0F901895439AF894D7
:100990008091C1008F738093C10080B78D7F80BF2D
:1009A00078940000E6CF0F931F93CF93DF938C01D1
:1009B000DC01CD91DC914FE050E069E473E0CE01C1
:1009C0000E94E2326CE373E0CE010F960E94F63291
:1009D00080910B01803210F5909114029923F1F06F
:1009E0006B96B4E68B9FC00111246FE170E00E940A
:1009F0007D30CB014AE0BE010E94A933099000205E
:100A0000E9F7FE01319785E281931082D801ED93D9
:100A1000FC93DF91CF911F910F9108958DE28B8F01
:100A20008C8FFE017E968D8FF0CF8F929F92AF922A
:100A3000BF92CF92DF92EF92FF920F931F93CF93CB
:100A4000DF938C01FC01C081D1816EE273E0CE01A5
:100A50000E94F63209900020E9F7219788E0882E5D
:100A6000912CD12CC12CF12CE12CB12CA12CC60144
:100A70008F719927892B21F4C114D10409F0A8950D
:100A8000C4010E94C12E8F3F91F1FFEFAF1ABF0A40
:100A9000EFEFCE1ADE0AF5E08F0E911C84ECC8163B
:100AA00089E0D80621F74AE0BE01C5010E94A933BA
:100AB00009900020E9F721978FE289934AE0BE016F
:100AC000C7010E94A93309900020E9F72197F80196
:100AD000D183C083DF91CF911F910F91FF90EF9051
:100AE000DF90CF90BF90AF909F908F9008958FEF41
:100AF000E81AF80ACDCFCF92DF92EF92FF920F93D0
:100B00001F93CF93DF938C01FC01C081D1814CE016
:100B100050E061E273E0CE010E94E2322C9688E060
:100B2000E82EF12CD12CC12CC7010E94C12E8F3F81
:100B300059F1C394F5E0EF0EF11C8CEDE81680E35B
:100B4000F80691F74AE0BE018C2D90E00E94A9338F
:100B500009900020E9F721978FE289934AE0BE01CE
:100B60008D2D90E00E94A93309900020E9F721978C
:100B7000F801D183C083DF91CF911F910F91FF9036
:100B8000EF90DF90CF900895D394D4CFAF92BF92DF
:100B9000CF92DF92EF92FF920F931F93CF93DF9349
:100BA00000D0CDB7DEB7A89586E595E09A83898316
:100BB000CE0101960E94D304E981FA81CF0101960A
:100BC0009A8389831AE01083E981FA811082CE0129
:100BD00001960E941505E981FA81CF0101969A8359
:100BE00089831083E981FA8110826AE173E0898147
:100BF0009A810E94F63289819A8106969A83898326
:100C00002091020160E173E0222311F065E073E0BE
:100C10000E94F63289819A81FC0101900020E9F757
:100C2000CF0101979A83898368EF72E00E94F632C0
:100C300089819A810C969A838983209108012223C5
:100C400009F46CC062EF72E00E94F63289819A81E9
:100C5000FC0101900020E9F7CF0101979A83898375
:100C6000209107016DEE72E0211160C0E981FA81E7
:100C7000CF0101969A8389838AE08083E981FA8192
:100C8000108209811A81F80101900020E9F78F0193
:100C9000015011091A830983C0900301D090040107
:100CA000E0900501F0900601FFE9CF16F6E8DF06B7
:100CB000F1E0EF06F10409F046C067ED72E0C8010B
:100CC0000E94F63289819A810A969A8389832091BB
:100CD0008C0260EC72E0211102C068EA72E00E94AE
:100CE000F63289819A81FC0101900020E9F7CF0159
:100CF00001979A8389836AE772E089819A810E94C9
:100D0000F6320F900F90DF91CF911F910F91FF90CE
:100D1000EF90DF90CF90BF90AF90089520910701A2
:100D200068EE72E0211102C062EE72E00E94F632BB
:100D300089819A81FC0101900020E9F7CF01019798
:100D40009A83898393CF80918C0267E872E088232D
:100D500091F06091A6037091A7038091A8039091F0
:100D6000A9032AE030E040E050E00E9491306901A0
:100D70007A0167E972E0C8010E94F632E981FA81DE
:100D800001900020E9F7CF0101975C019A838983E4
:100D9000C701B60120E13EE040E050E00E94913002
:100DA000CB016CE370E00E946930F62E082F1AE048
:100DB000822F612F0E945D30E92E4AE0B50190E05C
:100DC0000E94A93369817A81FB0101900020E9F733
:100DD000BF01615071097A8369834AE08E2D90E0EA
:100DE0000E94A933E981FA8101900020E9F7DF012F
:100DF0001197FA83E98388E68C93E981FA81CF0120
:100E000001969A8389838AE3E82EE08229813A81D8
:100E10008F2D612F0E945D30F92E4AE0B90190E0DC
:100E20000E94A93369817A81FB0101900020E9F7D2
:100E3000BF01615071097A8369834AE08F2D90E088
:100E40000E94A933E981FA8101900020E9F7DF01CE
:100E50001197FA83E9838DE68C93E981FA81CF01BA
:100E600001969A838983E08229813A81802F612FBC
:100E70000E945D30092F4AE0B90190E00E94A93339
:100E800069817A81FB0101900020E9F7BF0161507F
:100E900071097A8369834AE0802F90E00E94A93328
:100EA000E981FA8101900020E9F7DF011197FA83C7
:100EB000E98383E78C93E981FA81CF0101969A83D4
:100EC00089831083E981FA81108215CF10928C02F8
:100ED0001092A6031092A7031092A8031092A903E0
:100EE0005D9808958091250290912602892BA1F5A5
:100EF0008AE090E0909326028093250220910301DE
:100F00003091040140910501509106012F3986E886
:100F1000380781E04807510581F481E090918C0207
:100F2000911180E080938C021092A6031092A70387
:100F30001092A8031092A90308958FEF80938C025A
:100F4000AAE0B0E00E94B9306093A6037093A703B3
:100F50008093A8039093A90308950895CF92DF92F8
:100F6000FF920F931F93CF93DF93CDB7DEB76697B2
:100F70000FB6F894DEBF0FBECDBF0E94690310927A
:100F80003607A8958FEF80933402109233021092A7
:100F9000320288E197E00E948625182F80912E0268
:100FA000811149C08091750204E6602F0E945D3076
:100FB0001F929F93809176020E945D301F929F93B3
:100FC000809177020E945D301F929F9385E191E0AE
:100FD0009F938F931F9289E08F938CE091E09F9372
:100FE0008F930E94C33380917502602F0E945D3001
:100FF0001F929F93809176020E945D301F929F9373
:10100000809177020E945D301F929F9384E291E06D
:101010009F938F931F928EE18F9383E597E09F9329
:101020008F930E94C3338FE90E9408280FB6F8946B
:10103000DEBF0FBECDBF10922E0280910F02811134
:1010400010920F028CEF810F8230C0F480916F02FA
:101050008C30A0F00E94D6030E94E0030E9482031D
:1010600066960FB6F894DEBF0FBECDBFDF91CF916D
:101070001F910F91FF90DF90CF90089580914302D0
:10108000882311F0193031F7E9E4F7E043E557E040
:1010900020E090E08191882329F02F5F84578230EF
:1010A00008F49F5F4E175F07A9F7233218F0193035
:1010B000A9F2D0CF9630D8F7113180F6E12FF0E0C9
:1010C000EF51F94C0C94B33080910701882331F231
:1010D00080910201813009F43EC08E010F5F1F4FE5
:1010E000B80181E693E00E9489038981882359F140
:1010F000F80101900020E9F7BF0161507109AE01CC
:101100004E5E5F4FC8010E94732898E0C92ED12C13
:1011100010E000E0C8018F719927892B21F4011597
:10112000110509F0A895B601CE0142960E9440290A
:10113000811111C00F5F1F4FF5E0CF0ED11C043C91
:1011400089E0180739F781E080931E0210921D0292
:101150001092850383CF80910E028111F4CF61E656
:1011600073E08AE893E00E9479330E947207EBCF24
:1011700080910D02811115C080910E02882389F0A3
:1011800067E672E086E595E00E94F63261E673E07C
:101190008AE992E00E94793384E70E94082884E17A
:1011A000D3CF80916F028F5F80936F0282EC91E0CA
:1011B00090936E0280936D0261E673E08AE992E09B
:1011C0000E947933A8950E94C60584E70E940828EA
:1011D00082E0BACF80916F028F5F80936F0282ECC2
:1011E00091E090936E0280936D0261E673E08AE96C
:1011F00092E00E94793362E773E0FB0101900020E6
:10120000E9F7BF0161507109AE014E5E5F4F82E7A1
:1012100093E00E94732888E0C82ED12C10E000E0F3
:10122000C8018F719927892B21F40115110509F047
:10123000A895B601CE0142960E944029F82E811150
:101240003FC00F5F1F4FF5E0CF0ED11C043C89E07B
:10125000180731F741E1BE016F5F7F4FCE01429623
:101260000E94BC28BE016F5F7F4F86E595E00E941B
:10127000793367E471E086E595E00E945A336AE4C9
:1012800071E0F11002C06DE471E086E595E00E9426
:101290005A3384E70E94082882E080931E0210924D
:1012A0001D02109285038091730790918202892B11
:1012B00090917407892B09F0D1CE0E94162FCECEC3
:1012C000FF24FA94C7CF61E673E08AE992E00E94B6
:1012D00079336CE671E086E595E00E94793382E02F
:1012E00080931E0210921D021092850384E70E94D3
:1012F0000828B4CE61E673E08AE992E00E9479336F
:101300001092600310925F0389E260CF63E282E093
:101310000E9451288111A2CE89E180931E02109271
:101320001D02109285030E94F80383E0E0CF65E878
:1013300071E081E693E00E948F33892B09F454C059
:1013400040912702509128026091290270912A024F
:1013500040349DE0590793E06907710508F040C0EB
:1013600080E49DE0A3E0B0E0841B950BA60BB70BD7
:10137000BF93AF939F938F931F9283E08F938DE0E2
:101380008F9380E48F937F936F935F934F931F921C
:1013900085E18F931F9286E08F931F928DE18F934B
:1013A00082E991E09F938F9386E595E09F938F93D9
:1013B0000E94F33361E673E08AE992E00E94793398
:1013C00084E70E94082882E080931E0210921D028A
:1013D000109285030FB6F894DEBF0FBECDBF3ECE90
:1013E00080E090E0DC01C4CF85E0AECE83E0ACCEFF
:1013F00080915F029091A50390FF06C0883C88F41D
:101400008F5F80935F020895883C60F063E282E022
:101410000E945128811103C083E00E940828109285
:101420005F0208958233D8F363E282E00E9451287C
:101430008111F5CF82E0F1CFCF92DF92EF92FF9250
:101440000F931F93CF93DF93CDB7DEB72A970FB6D5
:10145000F894DEBF0FBECDBF80910E02882329F025
:1014600080910D02882309F497C010910801111191
:1014700055C080910701811141C0809102018130E6
:1014800011F41FEF3BC080918A038823B9F1CE018C
:1014900001967C01BC018AE893E00E94890389815E
:1014A000882361F1F70101900020E9F7BF01615045
:1014B000710945E757E0C7010E94732898E0C92EDB
:1014C000D12CF12CE12CC7018F719927892B21F4A4
:1014D000E114F10409F0A895B60185E797E00E94B0
:1014E00040298111CECFFFEFEF1AFF0A85E0C80E29
:1014F000D11C94ECE91699E0F90629F7812F2A9678
:101500000FB6F894DEBF0FBECDBFDF91CF911F9114
:101510000F91FF90EF90DF90CF900895809102019E
:10152000813009F4AECF80918A038823A9F18E011E
:101530000F5F1F4FB8018AE893E00E9489038981F9
:10154000882351F1F80101900020E9F7BF016150B3
:10155000710945E757E0C8010E94732888E0E82E2A
:10156000F12C10E000E0C8018F719927892B21F43C
:101570000115110509F0A895B70185E797E00E94CC
:10158000402981117ECF0F5F1F4FF5E0EF0EF11C58
:10159000043C89E0180739F710E0B0CF8CE3809362
:1015A0004E02109247021092460210924002109290
:1015B00041021092350280916C02882309F456C0D2
:1015C00080913707882309F44FC067E377E08AE901
:1015D00092E00E94793360E572E086E595E00E9432
:1015E000F6326AE873E086E595E00E945A336BE4D0
:1015F00072E086E595E00E94EB3286E595E0FC011D
:1016000001900020E9F7CF0187559540FC01EA5A87
:10161000FA4F90910C019083E1E0E80FF0E0EA5A74
:10162000FA4F90910D019083E2E0E80FF0E0EA5A62
:10163000FA4F9AE39083E3E0E80FF0E0EA5AFA4FBA
:1016400090910F019083E4E0E80FF0E0EA5AFA4F3E
:101650009091100190838B5FE82FF0E0EA5AFA4FE7
:10166000108284E70E94082810926C0210928A036C
:1016700008958CE380934E0210920C02089510920C
:10168000B503109247021092460210924B0210923C
:101690004A0210924C02109239058CE380934E025C
:1016A0001092430208950E943F0B10924B02109239
:1016B0004A0210924C021092550510928303109228
:1016C00039051092B4031092480210920C02109245
:1016D000440208950E94530B86E980930A011092F8
:1016E00072021092710210923C0210923B02109210
:1016F0008F0210923A021092390210923502109223
:10170000490283E680930B0162E78FE50E942E2851
:101710006FE38BE20E942E2869E480E40E942E2869
:1017200066E784E70E942E281092140208958091A3
:1017300073028D3051F41092420210920C021092FA
:10174000430286E480934E020895809173028630AE
:1017500059F5209142022F5F2093420280917B0233
:1017600090917C02853032E0930761F08A3331E05A
:10177000930741F0833032E0930721F0805192408B
:10178000029770F48CE380934E02809143022230E2
:1017900080F11092420210920C02109243020895BE
:1017A0008CE380934E02F5CF80917302843021F553
:1017B0008CE380934E02109239058091BA038E33E8
:1017C00031F480913A0590913B050A9720F0809181
:1017D0004302811107C01092420210920C020E9433
:1017E0006A0BDBCF909142029F5F9093420292304E
:1017F00080F60E940828D1CF809173028530B9F419
:1018000080917D0290917E028A30910539F09C0191
:101810002D7F2D30310511F04E9769F41092420260
:101820008CE380934E0210920C020C946A0B809110
:1018300073028091730208950F931F93CF93DF93E8
:10184000D0917302C0914C02CF3309F4C7C008F0A5
:1018500070C0C63309F429C238F5C03309F4C8C2D0
:1018600088F4CD3209F4B4C0CF3209F437C11092F4
:101870004B0210924A0210924C02DF91CF911F91BD
:101880000F910895C33309F44DC1C53381F7D130A9
:1018900009F4B5C2809184038F5F80938403833001
:1018A00008F0ADC28C2F7BC1CA3309F49FC188F404
:1018B000C73309F402C2C833D1F688E3D13009F046
:1018C000F6C081E00E94CE0A109248021092B50341
:1018D000CECFCC3309F467C108F49CC1CE3339F6BE
:1018E000D13029F68AE292E00E941204FC01892B91
:1018F00009F4BDCF27812C3209F06CC13796808165
:101900008C3229F081818C3209F066C131964AE02F
:1019100050E070E060E0CF0101960E94D330662372
:1019200029F08DEF860F823008F058C10E946A0BB3
:101930009ECFCB3458F5C73408F0A9CFC23409F490
:10194000A6CFE8F4C03409F494C0C13409F08FCFB5
:1019500080E3D13009F4ABC0D63009F002C18091E8
:101960007B0290917C028A3321E0920721F085303E
:10197000924009F07CCF84E180934E02D5C0C334FD
:1019800009F4F1C0C53409F482CF71CFC33790F4A4
:10199000CF3508F4C2C1D63009F000C280917B0275
:1019A00090917C028134914009F4FBC18C2F0E94FC
:1019B0000828FCC1C73709F4FBC1CE3909F057CF5D
:1019C0008AE192E00E941204892B09F0AFCF5FCF29
:1019D0008EE20E9408281092360249CFD13009F0D9
:1019E00046CF84E492E00E941204009709F43FCFAE
:1019F00062E270E00E946533009709F438CFEC0191
:101A0000219662E270E0CE010E9465338C01892B41
:101A100009F42DCF6CE270E0CE010E94653300978F
:101A200009F425CFEC012196C017D10708F01FCF8C
:101A30006AE370E0CE010E946533009709F417CF86
:101A40008017910708F013CFFE0101900020E9F7FD
:101A50003197EC1BFD0B389708F409CF88E0FE01A5
:101A6000ACE0B1E001900D928A95E1F7109214017B
:101A7000FECED13099F487E392E00E941204892BC4
:101A800059F08FEF8093710210927F0283E30E94DE
:101A9000082810925E02EBCE8FE2F9CFD53051F4D8
:101AA00080917D0290917E020E9731F480E40E9435
:101AB0000828DDCED43021F0809173028038B1F750
:101AC00080915E028F5F80935E02843118F00E94E5
:101AD0006A0BDFCF84E180934E02E8CFD13061F40E
:101AE0008FEF8093710210927F0283E30E94082897
:101AF00082E380934E02BBCED53079F480917D0293
:101B000090917E028031910521F48FEF80937F02C6
:101B1000AECE0E9721F48FE2CACFD430E1F380919C
:101B20007302F9CFD13011F481E4C1CFD63089F4FA
:101B300080917B0290917C028A3321E0920721F010
:101B40008530924009F093CE8CE380934E0283E37C
:101B5000AECFD430E1F380917302803809F087CEA4
:101B6000F6CF8AE009CFD13049F0D53081F48091A9
:101B70007D0290917E020397029748F4809149027A
:101B80000E94082810924902109284030AC0809192
:101B900084038F5F80938403833018F483E40E946E
:101BA000082882E0A6CFD13089F481E392E00E9438
:101BB0001204009709F45BCE4AE050E070E060E068
:101BC00006960E94D33060930B0151CE83E680933A
:101BD0000B014DCE389693CE329699CE6B7F613005
:101BE00009F045CE8FEF8093140241CED13049F0F9
:101BF000D53051F480917D0290917E0245970297F5
:101C000018F410923C0233CE80913C028F5F809397
:101C10003C022DCED13009F042C046E050E063E2F4
:101C200072E08AEB93E00E941533892BC1F583E2C1
:101C300092E00E9412046CE270E00E94653300970B
:101C400071F16CE270E00E946533009741F162E24D
:101C500070E00E946533009711F18C010F5F1F4FF8
:101C600062E270E0C8010E9465330097C1F0081776
:101C70001907A9F0801B910B8C30910514F08BE0B3
:101C800090E0EC01DD27AE01B8018FE892E00E9400
:101C90004A33C157DD4F188210923B02E8CD809144
:101CA0003B028F5F80933B02E2CDD63009F479CFBF
:101CB00086E3D13009F475CF72CFD13021F0809115
:101CC00073028C30A1F48FEF80934802109284034A
:101CD000809108018111CBCD8CE291E09093240298
:101CE0008093230284E180934E0286E4E0CED430D8
:101CF00021F080917302803849F4809184038F5FD2
:101D000080938403833010F487E3D1CED33011F471
:101D10001092480210928403AACDD130A9F58CE12B
:101D200092E00E9412046AE070E00E94653300971E
:101D300041F1EC0121966DE070E0CE010E94653327
:101D40000097F9F08C1B9D0B97FD01969595879553
:101D5000853BA8F4809345024BEA52E0609145022E
:101D6000CE010E943C2B83E70E94082880914C0200
:101D70008C5E0E9408288FEF8093440278CD84EB1C
:101D8000E9CF1092440273CDD63021F01092440274
:101D90008CE3AFCE8C2F0E940828F8CFD43009F402
:101DA00005CE80917302803809F400CE89E1A1CE7E
:101DB000D43029F080917302803809F0ABCF1092B3
:101DC000B503809184038F5F80938403833010F484
:101DD00087E76DCE1092840380E00E94CE0A1092B5
:101DE00048021092B50310924702109246023FCD6E
:101DF000D13029F080E30E94082884E17ACE8091D6
:101E000049020E940828809149028B54843108F0CD
:101E1000B9CE10924402B6CE0F931F93CF93DF93A7
:101E20008091730280917302803821F080914D027D
:101E3000882381F080E8809373020E941C0C82E367
:101E400080934E028FEF80934D02DF91CF911F91CF
:101E50000F91089580917302813829F520913505FD
:101E60003091360580913A0590913B052817390746
:101E700061F4409135055091360567EF75E088EBC8
:101E800093E00E943D33892B01F380913905811144
:101E9000DCCF80E8809373028FEF80934D0282E362
:101EA00080934E02D2CF809173028A3009F044C0F1
:101EB00010928A0383E192E00E94120462E270E0D1
:101EC0000E946533009739F18C010F5F1F4F62E26A
:101ED00070E0C8010E9465330097E9F0EC01C01B77
:101EE000D10BC031C0F4DD27AE01B8018AE893E020
:101EF0000E944A33C657DC4F188280913B02811101
:101F000010923B0280910B01882311F0833619F463
:101F100080E180930B0189E30E941A2880914C0292
:101F20008B54843110F41092440210924B021092A0
:101F30004A0210924C0289CF80917302833089F457
:101F400080E00E94CE0A109248021092B5031092CF
:101F500047021092460280914C02873709F075CFF4
:101F6000E4CF80917302823039F580914C0287373B
:101F7000D1F40E941C0C80914C028737A1F480910F
:101F8000400281110BC08AE5809341028FEF80935C
:101F9000B503109247021092460257CF8093410238
:101FA00010924002F3CF10928A0389E3DF91CF9120
:101FB0001F910F910C941A288CE092E00E94120459
:101FC000009799F0FC01379681918032E9F3909166
:101FD0000801911107C0813329F40E9472078BE038
:101FE000809385031092730230CF809173028C30FE
:101FF00071F480910801882309F427CF10924802D8
:1020000088E3DF91CF911F910F910C940828809164
:102010007302893061F480914C02873711F40E9479
:102020001C0C80E00E94CE0A1092B503B2CF8091C2
:102030007302873081F380917302883029F585E03F
:1020400092E00E9412046CE270E00E9465330097F7
:10205000A1F04AE050E070E060E001960E94E331B8
:102060009B01215031092431310538F48AE4860F6F
:102070000E94082881E080934E0280914C028B548C
:10208000843108F0E2CE4FCF809173028E3009F098
:102090004CC084E180934E0280914C028B54843179
:1020A00040F41092440210924B0210924A02109295
:1020B0004C028EEF91E00E94120462E270E00E94F6
:1020C0006533009709F4C1CE8C010F5F1F4F62E2A8
:1020D00070E0C8010E946533009709F4B6CE2091E4
:1020E0002D02222309F4B1CEEC01C01BD10BC13A61
:1020F000D10510F0C0EAD0E0AE01B80186E595E068
:102100000E948033CA5ADA4F188261E673E08AE986
:1021100092E00E94793384E70E94082810922D02F1
:1021200010922C0210922B0290CE809143028111CA
:102130000E94970B80913A0590913B05892B09F4F9
:1021400084CE80917302882309F47FCEDF91CF91F2
:102150001F910F910C941C0CCF93C82FC901C11172
:1021600006C0862F0E9408288C2FCF9108951092C8
:102170004B0210924A0260934C02409349020E9423
:10218000681FCFEFF1CF0F93CF93DF939FEF909323
:1021900039051092B40381114BC085E080931E0273
:1021A00010921D021092850384E78093430290935E
:1021B000AB024AE065E777E08BEA92E00E94BC2838
:1021C00000E020E045E757E06AE972E08BEA92E040
:1021D0000E947D2C46E555E0FA0101900020E9F7C8
:1021E000AF014150510966E575E00E94C52A8B5A3E
:1021F000924080934502C0914502C1508091AB024C
:10220000C81B46E050E067EF71E089EF95E00E945F
:10221000E2324AE06FEF75E08C2F90E00E94A93324
:102220008AEF80930901DF91CF910F910C94851F64
:1022300085E080931E0210921D021092850385E7AF
:1022400080934302009156059093AB024AE065E704
:1022500077E08BEA92E00E94BC2820E045E757E057
:102260006AE972E08BEA92E00E947D2CEC014091D9
:10227000570550E068E575E00E944A3380915705A4
:102280008C0F9D2F911DB3CFEF92FF920F931F9351
:10229000CF93DF9300D00F92CDB7DEB730914402D9
:1022A0008091B50350914C0290914E0240914302AF
:1022B000432B482B20914802242B252B292BC9F591
:1022C0006091390521E0611101C020E0211132C087
:1022D0006091C10066FD2EC060917202662351F1CB
:1022E0006091730201E0611125C010914907E12E50
:1022F000F12C1E3309F465C208F06BC0133309F4E6
:1023000066C330F51E3209F446C3B0F41C3209F43A
:10231000FCC208F013C31B3209F46FC380E00F90B6
:102320000F900F90DF91CF911F910F91FF90EF9041
:10233000089521E000E0D9CF103309F4D6C208F4A3
:1023400034C3113309F479C3123341F78FEFE7CF68
:10235000183309F4B7C1B0F4163309F4B9C208F060
:10236000C0C11533D9F68091730790918202892BF1
:1023700090917407892B21F40E94162F811149C373
:1023800085E330C11A3309F43DC208F46CC11B3334
:1023900009F45AC21C3309F0C1CF40914602509152
:1023A0004702452B61F490918D02892B41F4809175
:1023B000390590910C02892B282B09F4F4C18091E6
:1023C0000B01833611F08111C1CF80E180930B01A5
:1023D000BDCF133708F074C01F3508F01BC1163489
:1023E00009F493C1B0F41F3309F450C220EC210F5B
:1023F000E22FF0E0E852FF4F45915491FEE02F9F0D
:10240000900111242E513F4F612F802F0E94AC105C
:102410009DCF1B3458F380911402882309F47EC0A9
:102420002091460230914702232B09F077C0942B6C
:1024300080910C02982B09F071C0533309F46EC0DF
:102440008091730790918202892B90917407892B58
:1024500009F064C00E94162F882309F45FC061E070
:1024600081E00E945128811159C066E784E70E94EB
:102470005128811153C069E387E30E9451288111DB
:102480004DC0002309F44AC010924B0210924A0238
:1024900010934C028FEF8093440246E050E060EFCF
:1024A00071E089EF95E00E94E2324AE06FEF75E05B
:1024B000C7018A5491090E94A9330E94851F46CF03
:1024C000163709F449C080F4133701F54EE852E09D
:1024D00061E673E08BEA92E00E94592B009709F0C5
:1024E00053C01092440232CF193709F47EC01F390D
:1024F00009F4ADC2173709F011CF2091140222233D
:1025000019F0992309F41AC187E76CC0209146029B
:1025100030914702232B11F4892B11F0812F62C0D7
:102520008091730790918202892B90917407892B77
:10253000A9F70E94162F882389F3002379F31092BC
:102540004B0210924A0210934C0281E0153709F0B9
:1025500080E00E94C310FACE1092390540914502E6
:102560006BEA72E087EF95E00E94992C809145021A
:1025700090E0880F991FFC01E950FA4F2AE120836F
:1025800001960E944F1FE2CE9E012F5F3F4FAE018A
:102590004E5F5F4FBE016D5F7F4F0E94B22B2B815C
:1025A00020937A022A81209379022981209378024C
:1025B0009E012F5F3F4FAE014E5F5F4FBE016D5FCB
:1025C0007F4F0E94D52B2B81209377022A81209365
:1025D00076022981209375024FE168E177E00E943D
:1025E000702A89E70E940828B1CE809173079091E4
:1025F0008202892B90917407892B99F70E94162FDC
:10260000882379F310921E0282E0809385030E9452
:10261000AE0767CF4091460250914702452B09F023
:102620007DCF832B30918D02832B09F077CF809162
:102630003905811173CF002309F470CF10924B023A
:1026400010924A0210934C0246E050E069EE71E0AD
:1026500089EF95E00E94E2324AE06FEF75E0C70132
:102660008E55910928CF8091730790918202892B12
:1026700090917407892B11F089E3B4CF0E94162F33
:102680008823D1F310921E0282E0809385030E947A
:102690001C0A882371F08091080190910701892B11
:1026A00079F082EE91E00E941204892B11F40E94CD
:1026B000720788E30E9408288FEF809335022FCE9F
:1026C00087E3F8CF011102C088E38CCF10924B0250
:1026D00010924A0210934C0280EE91E00E94681F13
:1026E00035CE8091080190910701892B69F787E326
:1026F000002309F477CF10924B0210924A0287E32D
:1027000080934C028EED91E0E9CF992311F086E49D
:1027100069CF8091C10086FDFACF80917202882333
:10272000B1F380917302582B91F710924B021092E3
:102730004A0210934C0287ED91E0D0CF811106CE72
:10274000002309F4E1CE10924B0210924A0287E76F
:1027500080934C0285E18093850384E68093F9059C
:1027600062E773E08AEF95E00E94793382E793E0B5
:10277000FC0101900020E9F7CF01835793408F5F60
:1027800090E0FC01E750FA4F2BE3208386509A4FEC
:10279000FC0110820E94851F8CE291E09093470219
:1027A00080934602D3CD8CE3002309F41BCF109213
:1027B0004B0210924A028CE380934C0282ED91E02E
:1027C0008DCF4091460250914702452B09F0BECD76
:1027D00090918D02892B09F0B9CD809139059091A6
:1027E0000C02892B282B09F0B1CD8EE3002309F4CC
:1027F000F9CE10924B0210924A0210934C028BECCD
:1028000091E06CCF4091460250914702452B59F41C
:1028100090918D02892B39F48091390590910C02A9
:10282000892B282B19F010923C0290CD8AE30023CB
:1028300009F4D8CE10924B0210924A028AE3809398
:102840004C0282EC91E04ACF4091460250914702FF
:10285000452B59F490918D02892B39F480913905DB
:1028600090910C02892B282B19F010923B026ECD0F
:102870008BE3002309F4B6CE10924B0210924A0269
:102880008BE380934C028BEB91E028CF4091460282
:1028900050914702452B09F059CD90918D02892B1B
:1028A00009F054CD8091390590910C02892B282B89
:1028B00009F04CCD8FE3002309F494CE10924B0223
:1028C00010924A028FE380934C0284EB91E006CF92
:1028D00086E3002309F486CE10924B0210924A023E
:1028E00010934C028DEA91E0F9CE80E3002309F4C5
:1028F00079CE10924B0210924A0210934C0282E45D
:102900008093490288E991E0E9CE8DE20E9408288F
:1029100084E180938D0210923B0510923A0510924B
:102920004A0580B7826080BFF8948091C1008068BA
:102930008093C10078940000439808CD80913602BE
:10294000811104CD80918D02882311F08DE24ACE51
:102950008091C10086FDFACF10923B0510923A0596
:1029600010924A0580B7826080BFF8948091C100C0
:1029700080688093C10078940000439810924B02C5
:1029800010924A028DE280934C0284E180933602D9
:102990008FE891E0A3CE8FEF8093720280E40E94D3
:1029A000082888E280934E02D1CC8FE2002309F4FC
:1029B00019CE10924B0210924A028FE280934C0281
:1029C00062E871E089EF95E00E94F63276CD809161
:1029D0005D02882311F081E405CE8FEF80935D02C4
:1029E00083E3002309F4FECD10924B0210924A02B9
:1029F00010934C0289E791E071CE0E940C0F8091F8
:102A00007302813819F084E18093090110927302F6
:102A10009DCC002309F4B4CC10924B0210924A02D0
:102A200085E380934C026EE671E089EF95E00E94A9
:102A3000F63281E38093490240CD80917102882370
:102A400009F484CC86E30E94082882E3CBCD8091F0
:102A5000730790918202892B90917407892B21F43E
:102A60000E94162F811102C08FE9BCCD0023E1F333
:102A700010924B0210924A028FE980934C0263E558
:102A800077E089EF95E00E94793317CD80914E026F
:102A9000882339F0815080934E02811102C0109238
:102AA0004D028091100290911102009729F0019738
:102AB000909311028093100280912302909124023E
:102AC000009771F001979093240280932302892B41
:102AD00039F480914802882319F088E30E9408287D
:102AE000809136028823C1F0815080933602811193
:102AF00013C010924B0210924A0210924C028DE2C7
:102B00000E94082810927402F8948091C1008F7B73
:102B10008093C100789400000E941B21882319F043
:102B20008CE20E94082880914102882341F0815064
:102B300080934102811103C088E30E94082880919C
:102B4000460290914702009771F0019790934702D7
:102B500080934602892B39F482E00E94CE0A1092BB
:102B600048021092B50380915C028F5F80935C02F3
:102B7000803309F04EC08CE30E941A2880918D02A8
:102B8000882319F0815080938D028091140288234C
:102B900009F45EC080910B01833611F0811158C099
:102BA00080913D0290913E02883522E0920750F4D8
:102BB0000196883522E0920709F443C090933E02C3
:102BC00080933D0280913C02863020F480913B024C
:102BD000843110F00E946A0B80911302882339F02F
:102BE000815080931302811102C00E946A0B809170
:102BF0001402811132C08091390290913A020196FB
:102C000090933A0280933902813B944050F10C94A6
:102C10006A0B843311F48EE3AFCF883311F48BE366
:102C2000ABCF8C3311F48AE3A7CF803508F4A6CF5D
:102C30008091140210925C02882309F49FCF8FE3E5
:102C40009BCF10923E0210923D020E946A0BBACFB7
:102C500010923E0210923D02B5CF10923A021092AD
:102C60003902089580917302882309F457C08BE2DA
:102C70000E9408288091B403882329F086E70E94E7
:102C800008281092B40380911402882309F455C0D7
:102C900080914302882309F450C080915A02909198
:102CA0005B020196883823E1920708F03CC09093BC
:102CB0005B0280935A0280914C02909148028823D3
:102CC00009F4A8C02091590282136AC091116AC008
:102CD0008D3231F09AE8980F44EF51E0923010F4C1
:102CE00040EE5EE29CE8980F923010F44CED55E017
:102CF00020915702309158022F5F3F4F241735071C
:102D000008F5309358022093570210925602109201
:102D1000550280914C028093590208950E946C23C1
:102D20008111A5CFA7CF10925B0210925A0284E0C6
:102D3000809373020E94970BBECF10925B02109299
:102D40005A02B9CF10925802109257028E3929F1C7
:102D5000883301F191ED980F9230E0F09BEC980FE1
:102D60009230C0F090EC980F9A30A0F095EB980F4D
:102D7000983280F0109249020E94530B10924B023D
:102D800010924A028EE980934C021092F9050E943B
:102D9000851FBBCF80934902EFCF0E946A0BB5CF4E
:102DA0009923C1F180917302811134C0F89480910C
:102DB0003A0590913B057894209155023091560246
:102DC0002817390720F4909356028093550280917A
:102DD0005502909156020A9708F49BCF80915702B2
:102DE000909158020196843F21E0920728F4909335
:102DF0005802809357028DCF1092580210925702BA
:102E000081E00E94CE0A10925602109255020E9452
:102E10006A0B7FCF1092580210925702992309F43F
:102E200074CF77CF3F924F925F926F927F928F9243
:102E30009F92AF92BF92CF92DF92EF92FF920F9349
:102E40001F93CF93DF93CDB7DEB7E1970FB6F8941A
:102E5000DEBF0FBECDBF9091490780914402209103
:102E60004302822B2091B503822B20914802822BB2
:102E700020914C02822B20914E02822B81F4809172
:102E8000390581110CC08091C10086FD08C0809178
:102E90007202882321F02091730281E0211180E0E9
:102EA000993241F010E09A3209F094C08111ABC020
:102EB0008AE203C0811104C089E20E94082880C010
:102EC00080910C0290917307892B90918202892B3B
:102ED00090917407892B81F70E94162F882361F344
:102EE0008AE28093560527E5E22E25E0F22E35E0B2
:102EF000D32E43E2C42E5AE0B52E80915F03909109
:102F000060038F719927892B09F4A89520915F039D
:102F100030916003D29EC001D39E900D112408967B
:102F20000E94C12E182F20915F03309160038F3FC4
:102F3000C1F1D29EC001D39E900D112441E1B70191
:102F400008960E941C298701080F111DF801C082F4
:102F50007801F2E0EF0EF11CF801B18280915F037D
:102F60009091600301969093600380935F039801B2
:102F70002D5E3F4F265F354068F4843C994008F44D
:102F8000BCCFF801128284E70E94082881E0809378
:102F90000C0216C0843C9940A0F789E20E940828E0
:102FA000F0CF2F5F3F4F3093600320935F03243CAB
:102FB000394008F4A2CF26E5E21625E0F20611F426
:102FC0001FEF08C0F701108284E70E94082881E003
:102FD00080930C02812FE1960FB6F894DEBF0FBEEE
:102FE000CDBFDF91CF911F910F91FF90EF90DF90B8
:102FF000CF90BF90AF909F908F907F906F905F9099
:103000004F903F90089580910C0290917307892B07
:1030100090918202892B90917407892B09F048CFF7
:103020000E94162F882309F443CF1092560506E517
:1030300015E085E0382E6E01F5E1CF0ED11CCE01F2
:1030400086963C0198EC492E91E0592EFE0131966E
:103050007F0180905F0390906003F4EC8F16F9E09D
:103060009F0628F00655154009F08DCFA9CFC40161
:103070008F719927892B09F4A895389C5001399CA8
:10308000B00C112448E0A40EB11CC5010E94C12E51
:103090008F3F09F468C08FEF881A980A41E1B601A2
:1030A000C5010E941C29F60101900020E9F7319723
:1030B000EC19FD09B601EA3018F039976E0F7F1F41
:1030C000C3010E9479337F926F929F928F925F9299
:1030D0004F92FF92EF920E94F333F701019000208C
:1030E000E9F73197EE19FF09E00FF11F0FB6F894D9
:1030F000DEBF0FBECDBFE65FF54040F1E5E006352F
:103100001E07C1F4B70186E595E00E9479338AE293
:103110000E94082884E70E94082881E080930C021E
:1031200080915F0390916003019690936003809378
:103130005F0346CF8AE20E94082884E70E9408289D
:1031400081E080930C02F80110823ACFB701C801E8
:103150000E947933F70101900020E9F73197EE19C9
:10316000FF090E0F1F1F80915F039091600301966E
:103170009093600380935F036CCF08950E94E01DDD
:103180000E94F8090C94891ECF93DF930F92CDB75C
:10319000DEB78091730790918202892B909174071A
:1031A000892B59F50E94162F882339F1198291E055
:1031B00080918C02811101C090E081E04091A603D2
:1031C0005091A7036091A8037091A903452B462B4A
:1031D000472B09F480E0981711F081E0898385E09E
:1031E00090E00E94C12E9981891739F041E065E095
:1031F00070E0CE0101960E94F9290F90DF91CF91E6
:1032000008950E94BE180E94461580918503882368
:1032100031F08150809385038111B3C0409A809131
:103220006D0290916E02009739F0019790936E02B3
:1032300080936D02892B11F410926F028091250208
:1032400090912602892B49F08091250290912602C7
:103250000197909326028093250280912D02882366
:10326000F1F080912B0290912C020097C1F0019710
:1032700090932C0280932B02892B89F461E673E0F2
:103280008AE992E00E9479336FEC71E086E595E07F
:103290000E94793384E70E94082810922D028091C1
:1032A0000F02882309F40FC180915402811111C0CB
:1032B00080911402882369F0809152029091530208
:1032C0008A3F910508F05FC0019690935302809366
:1032D000520280914907882309F488C09CE8980F1E
:1032E000923008F07CC090916B02981378C0809166
:1032F000690290916A028639910508F048C00196EA
:1033000090936A028093690280914302882309F4B2
:103310005FC080916302909164028C3221E0920739
:1033200008F067C0019690936402809363028091D5
:103330003402882309F486C08091320290913302CE
:103340008436910508F073C0809132029091330267
:103350000196909333028093320280911E0288235B
:1033600009F48BC080911D02823008F47CC0409A21
:1033700080911D028F5F863008F077C080931D0218
:10338000089540984CCF8FEF80935402A2CF65E709
:1033900084E70E942E2880916502909166028F3FFB
:1033A000980729F00196909366028093650283E363
:1033B0000E941A2810926F0210926E0210926D02F3
:1033C00010926A021092690210926B0210924302EC
:1033D000109264021092630210926202A8CF80934E
:1033E0006B0210926A02109269028ECF10926B02E9
:1033F000F8CF10926402109263020E94820310922E
:103400004302109242021092390510920C028091F0
:1034100062028F3F29F4109262020E946A0B87CFEA
:103420008F5F80936202833008F481CFF4CF1092D3
:10343000310282E390E09093300280932F020E9449
:1034400082038BCF80912F0290913002892B09F457
:1034500084CF80912F029091300201979093300297
:1034600080932F027ACF409883CF10921D028091D3
:103470001E02815080931E020895809114028111D2
:1034800002C0409819C0809185038111FACF8091C4
:103490000B018031A8F4809151028F5F823370F468
:1034A0008093510280915102883259F38B3249F353
:1034B0008E52843030F3409A0C94C41881E0F0CFDF
:1034C00010925102EFCF10925402109253021092B8
:1034D0005202FFCE0E947F1E0E9432160C949E293B
:1034E000F89480916E008D7F80936E007894000038
:1034F00080911802811109C0F89480916E00826059
:1035000080936E00789400000895109218028091C4
:103510001702882329F081E0809316021092170287
:10352000F89480916E00826080936E007894000021
:103530008091160280FF33C0809150028F5F8A30E5
:1035400079F1809350020000F89400B601FE26C085
:103550008091C1008F778093C100789480913A0563
:1035600090913B05892B11F180914A058F5F8093E3
:103570004A058333D8F0439A8091C1008F778093B6
:10358000C10080B78D7F80BF1092B7031092B60341
:1035900010923805109237051092B303789408956D
:1035A0001092500283E080931602CDCFF894809160
:1035B000C10080688093C10078940000EFCFA89587
:1035C00082E084BD83E085BD8FE387BDEEE6F0E059
:1035D00080818260808383B7817F83BF08951F933A
:1035E000CF93DF9344E050E061E070E086E893E041
:1035F0000E94DE2E8091860381508E3F00F181E48F
:10360000809375078093860382E480937607809386
:10361000870383E4809377078093880384E480930F
:103620007807809389030E94162F8823E1F344E0F2
:1036300050E061E070E086E893E00E94E42E8DEEB9
:1036400090E30E94E52D853A09F050C081EE90E3A9
:103650000E94C12E8F3F09F455C08093020182EE73
:1036600090E30E94C12E8F3F09F459C08093080156
:1036700086E090E00E94C12E8F3F09F45DC08093E8
:1036800007018CED90E30E94C12ED82F8DED90E3C1
:103690000E94C12E182F8EED90E30E94C12EC82FDC
:1036A0008FED90E30E94C12E282F9D2F91239C2304
:1036B00098239F3F09F04DC082E090E0A0E0B0E089
:1036C0008093030190930401A0930501B093060138
:1036D00010926F0210926E0210926D0210924302CD
:1036E00010920F02DF91CF911F9108950E94F8036D
:1036F00065EA8DEE90E30E946F2E0E948C2E882347
:10370000E1F3A4CF81E0809302010E94162F882369
:10371000E1F361E081EE90E30E94CA2EA0CF81E048
:10372000809308010E94162F8823E1F361E082EE66
:1037300090E30E94CA2E9CCF81E0809307010E94F3
:10374000162F8823E1F361E086E090E00E94CA2E04
:1037500098CF8C2F90E0B0E0A0E0DC01992788277B
:10376000912B8D2BB22B8093030190930401A09396
:103770000501B0930601AC01BD0141505109610939
:1037800071094F3956486140710508F095CF8F395E
:103790009648A140B10509F09BCF85E090E00E94DA
:1037A000C12E8F3F69F08170819580938C021092B9
:1037B000A6031092A7031092A8031092A90388CF22
:1037C00010928C02F4CFCF92DF92EF92FF920F9380
:1037D0001F93CF93DF93CDB7DEB761970FB6F89401
:1037E000DEBF0FBECDBF10914907143209F410C1DE
:1037F000D0F4133208F0D2C0133008F088C0123071
:1038000009F457C010E0812F61960FB6F894DEBF1F
:103810000FBECDBFDF91CF911F910F91FF90EF9021
:10382000DF90CF900895183228F4163208F43AC188
:103830001FEFE9CF183231F762E773E0FB01019027
:103840000020E9F7BF016150710945E757E082E7C1
:1038500093E00E94732808E010E0B80185E797E044
:103860000E944029882309F48DC11092720345E714
:1038700057E063E773E082E793E00E94732895E7DF
:10388000C92E97E0D92EF12CE12CF60161916F0140
:10389000C701800F911F0E946F2E0E948C2E8823DB
:1038A000E1F3FFEFEF1AFF0A25E0E216F10469F7F2
:1038B000BFCF8091730790918202892B90917407FA
:1038C000892B21F082E00E940828B2CF0E94162F97
:1038D0008823C1F381E4809375078093860382E493
:1038E000809376078093870383E4809377078093A0
:1038F000880384E4809378078093890364E081E0FF
:1039000090E00E941A2A83E38093850391CF8091EF
:10391000730790918202892B90917407892B11F083
:10392000812FD1CF0E94162F8823D1F30DEF010FE5
:1039300040E250E06FEF70E085E797E00E9453337C
:10394000011120C081E4809376078093860382E48E
:10395000809377078093870383E48093780780932D
:10396000880384E4809379078093890310927A070F
:1039700010928C021092A6031092A7031092A80333
:103980001092A90360E220E2029FC00111240E946C
:103990001A2A81E0810F0E940828B5CF0091730791
:1039A00080918202082B80917407082B11F083E22A
:1039B0008ACF0E94162F8823D1F3F12CE12CC70166
:1039C0000E94C12EF701EE52FF4FE4918E130FEFCC
:1039D0008FEFE81AF80A96E0E916F10481F758E04B
:1039E000E52EF12CC7010E94C12E182F8F3F51F4F4
:1039F000EFEFEE1AFE0AFCEDEF16F0E3FF0691F78B
:103A0000002311F083E05FCF0E94EF1A409AFBCEB3
:103A10001091730780918202182B80917407182BE4
:103A200011F084E250CF0E94162F8823D1F36AE868
:103A300073E0CE0101967C010E947933F701019079
:103A40000020E9F7BF016150710945E757E0C70160
:103A50000E94732880910201813091F048E0E42EA9
:103A6000F12CB70185E797E00E944029811114C02D
:103A7000F5E0EF0EF11C2CEDE21620E3F20689F7DB
:103A800080910801882309F4D3CE8091020181300E
:103A900029F40E947207CCCE1FEFF2CF112309F454
:103AA000C7CEF7CF62E773E0FB0101900020E9F792
:103AB000BF016150710945E757E082E793E00E943A
:103AC000732838E0E32EF12C10E000E0C8018F717C
:103AD0009927892B21F40115110509F0A895B70143
:103AE00085E797E00E9440298111A2CE0F5F1F4F0A
:103AF000F5E0EF0EF11C043C29E0120739F762E70C
:103B000073E0FB0101900020E9F7BF0161507109EA
:103B100045E757E082E793E00E94732888E0E82EAB
:103B2000F12C10E000E00AC00F5F1F4FF5E0EF0E30
:103B3000F11C043C29E0120709F47ACEC8018F7108
:103B40009927892B09F4A895C7010E94C12E8F3FA0
:103B500059F725E7C22E27E0D22E10E000E0F6014B
:103B600061916F01C8018E0D9F1D0E946F2E0E94F2
:103B70008C2E8823E1F3A8950F5F1F4F05301105A8
:103B800071F756CE0B5F1F4F0C3D80E3180709F00D
:103B900064CE4ECE0E944411811106C00E94E31BE8
:103BA000811102C00E9412170C944628E82FF0E001
:103BB000E456FC4F9081907F81E009F080E0089509
:103BC0009091A503892F8D7F8093A50380919C03FD
:103BD000807F90FD56C081114BC08091AE039091C3
:103BE000AF03A091B003B091B1034091AA035091EB
:103BF000AB036091AC037091AD0384179507A607E2
:103C0000B70798F40196A11DB11D8093AE03909360
:103C1000AF03A093B003B093B103481759076A07E5
:103C20007B0719F481E08093A5038091A50390910F
:103C3000B203891781F08093B203982F926090931A
:103C4000A50380FD53C01092AE031092AF031092F3
:103C5000B0031092B10380919B03882341F09091AF
:103C6000A5039D7F9093A503815080939B030895A6
:103C70001092AE031092AF031092B0031092B103F2
:103C8000D4CF882351F18091A1039091A203A091F8
:103C9000A303B091A40340919D0350919E036091B2
:103CA0009F037091A00384179507A607B70708F034
:103CB000BCCF0196A11DB11D8093A1039093A203D7
:103CC000A093A303B093A403481759076A077B077F
:103CD00009F0ABCF1092A503A8CF1092A1031092C8
:103CE000A2031092A3031092A4039FCF1092A103EA
:103CF0001092A2031092A3031092A403ACCF809160
:103D00009C03189B869581601899880F80939C036B
:103D10000895CF92DF92EF92FF928091A603909147
:103D2000A703A091A803B091A90320918C0200974A
:103D3000A105B105A1F00197A109B1098093A603DE
:103D40009093A703A093A803B093A903892B8A2B70
:103D50008B2B29F481E0211180E080938C028091EB
:103D60008C02882309F442C08091700281113EC008
:103D7000C0902702D0902802E0902902F0902A02F9
:103D80002FEFC216D206E206F20681F18FEFC81AB3
:103D9000D80AE80AF80AC0922702D0922802E092D4
:103DA0002902F0922A02C701B6012AE030E040E081
:103DB00050E00E949130672B682B692BB9F464EEB8
:103DC00070E38C2D0E94292A65EE70E38091280211
:103DD0000E94292A66EE70E3809129020E94292A16
:103DE00067EE70E380912A020E94292A80918C025A
:103DF00080937002882369F08091270290912802B5
:103E0000A0912902B0912A028032914AA740B105BF
:103E100010F05D9801C05D9AFF90EF90DF90CF9019
:103E2000089584E190E0A0E0B0E080939D0390933A
:103E30009E03A0939F03B093A0038093AA03909343
:103E4000AB03A093AC03B093AD0384EE90E30E9468
:103E5000EE2E6F3F2FEF72078207920749F06093B3
:103E60002702709328028093290290932A020895D2
:103E700010922702109228021092290210922A0210
:103E800008951092B2031092A6031092A703109205
:103E9000A8031092A9038EE180939B030895909349
:103EA00036058093350510923F0510923E05E0ECF3
:103EB000F0E0808180648083F894E1ECF0E0808120
:103EC00080648083789400008FEF8093740208955B
:103ED000CF93DF9321E42093F70524E52093F805A1
:103EE000A9EFB5E0FC0193E0981B892F8E0FED013F
:103EF00024912D93211107C09DE0988390E0DF91DC
:103F0000CF910C944F1F3196F0CFE7EFF5E081E4AD
:103F1000808384E5818301900020E9F7CF01885FE9
:103F200095409927FC01E950FA4F2DE02083019636
:103F30000C944F1F78942F932FB72F933F938F9309
:103F40009F93EF93FF9320913E0530913F05809121
:103F50003505909136052817390788F0F894809137
:103F6000C1008F7B8093C10078940000FF91EF9196
:103F70009F918F913F912F912FBF2F91189532993B
:103F800010C080913E0590913F05FC01E950FA4F29
:103F90002081019690933F0580933E052093C600B3
:103FA000E5CF8FEF80937402E1CF8F938FB78F931C
:103FB0008091C1008F778093C10078948091C60072
:103FC0000F924F931F9211242F933F93EF93FF93E0
:103FD000AF93BF939F9320913A0530913B058F3F5C
:103FE00009F4E8C0E8EBF3E0A9012C3791E03907C8
:103FF00008F0CDC02115310521F48A3009F04AC0FE
:104000002CC09091B8038D3009F59D30F9F09A30AD
:10401000E9F09091B303911119C091E89093730264
:10402000439AF8949091C1009F779093C10090B704
:104030009D7F90BF789400001092B7031092B60352
:1040400010923805109237051092B30321153105EF
:10405000A1F290819D3089F61DC09091B30391111A
:1040600019C091E890937302439AF8949091C1001B
:104070009F779093C10090B79D7F90BF7894000088
:104080001092B7031092B6031092380510923705BC
:104090001092B3038F01A9014F5F5F4FDF01A20FA1
:1040A000B31F00B601FE5DC02430310508F459C0CD
:1040B0008A3009F056C0BD0161507109EB01988149
:1040C0009D3009F04EC061507109EB0198819A3022
:1040D00009F447C061507109EB0198819D3009F4E2
:1040E00040C0EF0191819A30E1F590819D30C9F592
:1040F00060913705709138057093B7036093B603EC
:1041000050933805409337059091B3039F5F909388
:10411000B30360914605709147057093490560931C
:10412000480560914405709145057093470560937B
:104130004605609142057091430570934505609373
:1041400044056091B6037091B70370934305609383
:104150004205609137057091380570934105609371
:10416000400590913905992361F02330310549F4D8
:10417000803239F49091BA039E3319F49FEF9093F3
:10418000B4038C939A01E40FF51F10820FC030E046
:1041900020E080E8809373021092B7031092B60378
:1041A00010923805109237051092B30330933B05F7
:1041B00020933A0510924A059F91BF91AF91FF91CC
:1041C000EF913F912F911F904F9100B601FE08C0D3
:1041D000F8948091C10080688093C10078940000B9
:1041E0000F908F918FBF8F91189583E08093C400BB
:1041F0001092C500E1ECF0E08081886180838BB192
:104200008C7F8BB95198429843983B98089599B107
:10421000892F887093FF0EC010920A0110923B05FF
:1042200010923A05519A8BB183608BB93B9A439AAD
:10423000429A8FEF089580910A018823B9F191E0A5
:10424000980F90930A01913A39F1A8F49F30D9F070
:1042500030F49230D1F09330E9F080E00895875245
:104260008430D8F70E94072191E0811101C090E0CD
:10427000892F819508959F3FA0F4953F98F7983C2A
:1042800049F0973D51F75498E8CF54980E94072180
:1042900081110BC0549AE1CF1092720210927102F8
:1042A000DCCF81E080930A01D8CF8FEF0895FC0125
:1042B0004217130609F048F4DB01A854BC4F90E004
:1042C000491305C0942F81E0491380E008952D9192
:1042D00084912813F8CF31969F5FF2CF8FB7F8946F
:1042E0001092B7031092B60310923805109237055A
:1042F0008FBF08952F923F924F925F926F927F925D
:104300008F929F92AF92BF92CF92DF92EF92FF92E5
:104310000F931F93CF93DF93C8E047E0842E59E0BB
:10432000952E63E0762E78E0672EE5E15E2EF2E0D2
:104330004F2EADE03A2E222423949FB7F89480911B
:10434000B303811128C09FBFC0915505CC2301F153
:10435000C150C0935505D0E0C55BDA4F888180938A
:1043600073021882C09173028C2FDF91CF911F913D
:104370000F91FF90EF90DF90CF90BF90AF909F9004
:104380008F907F906F905F904F903F902F90089507
:1043900010927302E9CF853008F084E0E82FF0E056
:1043A000EE0FFF1FE05CFA4FC080D18011821082B7
:1043B0008150E82FF0E0EE0FFF1FE05CFA4F208104
:1043C00031818093B3039FBFC216D306A8F58091B5
:1043D00055058A3010F09092550589010C191D0978
:1043E00004501109760142E0E40EF11CC901885421
:1043F0009C4FFC013397B0803197A080F601E854C0
:10440000FC4FD581EBE4BE121BC0FFE4AF1245C1E7
:104410000597FC018081803209F45AC126303105AC
:1044200008F456C1E091550581E08E0F8093550543
:10443000F0E0E55BFA4F2082C15009F07ECF94CFC7
:10444000D734A1F4980146E0B70184EC93E00E94D0
:104450005721882359F0E091550581E08E0F809314
:104460005505F0E0E55BFA4F3082E6CFFFE4AF128E
:1044700015C0980145E0B7018EEB93E00E945721EB
:10448000882361F0E091550581E08E0F80935505FA
:10449000F0E0E55BFA4F44E04083CECF87E4B8120A
:1044A00015C0980147E0B70186EB93E00E945721C1
:1044B000882309F4F5C0E091550581E08E0F8093C3
:1044C0005505F0E0E55BFA4F4082B6CFE4E4BE125A
:1044D000E7C098014CE0B70189EA93E00E945721B8
:1044E000882309F4DDC0E091550581E08E0F8093AB
:1044F0005505F0E0E55BFA4F8CE080839DCFDD341D
:10450000A1F4980146E0B7018BE993E00E9457219E
:10451000882309F1E091550581E08E0F80935505C0
:10452000F0E0E55BFA4F508287CFD435A1F49801D3
:1045300046E0B70184E993E00E945721882359F0AF
:10454000E091550581E08E0F80935505F0E0E55B25
:10455000FA4F608271CFF5E4AF1214C098014AE0BF
:10456000B70189E893E00E945721882359F0E09130
:10457000550581E08E0F80935505F0E0E55BFA4F1D
:1045800070825ACF45E4B41214C098014BE0B701D1
:104590008DE793E00E945721882311F1E0915505A2
:1045A00081E08E0F80935505F0E0E55BFA4F908235
:1045B00043CF89E5B81214C0980144E0B70188E7F9
:1045C00093E00E945721882359F0E091550581E03E
:1045D0008E0F80935505F0E0E55BFA4F80822CCF7B
:1045E000D53411F598014BE0B7018CE693E00E94B9
:1045F0005721882309F420CF4AE050E070E060E0C2
:10460000C6018A539C4F0E94E33170937E026093EF
:104610007D02E091550581E08E0F80935505F0E015
:10462000E55BFA4F45E038CFD33509F005CF980167
:104630004BE0B70180E693E00E9457218823C1F048
:104640004AE050E070E060E0C6018A539C4F0E944F
:10465000E33170937C0260937B02E091550581E029
:104660008E0F80935505F0E0E55BFA4F86E045CF6D
:10467000980146E0B70189E593E00E94572188231D
:1046800009F4DACEE091550581E08E0F809355054F
:10469000F0E0E55BFA4F8EE030CFD73409F4D2CEAC
:1046A000D93409F02CCF980146E0B70182EA93E0B3
:1046B0000E945721882309F44ECFE091550581E0EF
:1046C0008E0F80935505F0E0E55BFA4F8AE015CF39
:1046D000D73409F0CECEB6CECF930E947A2188236C
:1046E000D9F080917302843021F0833111F0813050
:1046F00089F4CFB7F8940E946E21439AF894809180
:10470000C1008F778093C10080B78D7F80BF789480
:104710000000CFBF80917302CF910895AF92BF92F6
:10472000CF92DF92EF92FF920F931F93CF93DF937D
:104730006C01B62EA42EF601C081D181888190E053
:104740000E94C432892B39F5FAE0BF9E8001112402
:1047500002511C4FBA1498F4F801E490F12CB801FE
:104760006F5F7F4FA701CE010E94D532065F1F4FBA
:10477000892BB1F4CE0DDF1DF601D183C0838B2DC3
:10478000DF91CF911F910F91FF90EF90DF90CF902D
:10479000BF90AF9008952196F601D183C083CBCF0F
:1047A000B394D8CFEF92FF920F931F93CF93DF93E1
:1047B0007C01F701C081D181088110E0C8010E940D
:1047C000C432892B09F03FC0C8010E94CD328C0150
:1047D0008091860390E00E94CD3208171907C1F539
:1047E000898190E00E94CD328C018091870390E016
:1047F0000E94CD320817190759F58A8190E00E946E
:10480000CD328C018091880390E00E94CD32081750
:104810001907F1F48B8190E00E94CD328C018091D8
:10482000890390E00E94CD320817190789F4249675
:10483000F701D183C0838FEFDF91CF911F910F914B
:10484000FF90EF9008952196F701D183C083B1CFF7
:1048500080E0F2CF44E050E069EE73E00E94D53290
:1048600021E0892B09F020E0822F08950C948E23FB
:10487000EF92FF920F931F93CF93DF93EC017B0195
:10488000088119814AE050E0BC01C8010E94D33080
:10489000F701608371838283938381E0288139816A
:1048A0002017310709F480E0DF91CF911F910F911C
:1048B000FF90EF900895DF92EF92FF920F931F9376
:1048C000CF93DF937C01D62EF701C081D18108817F
:1048D00010E0C8010E94C432892BA1F48D2D90E014
:1048E0000E94CD320817190791F42196F701D18360
:1048F000C0838FEFDF91CF911F910F91FF90EF90C9
:10490000DF9008952196F701D183C083DDCF80E049
:10491000F1CFDF92EF92FF920F931F93CF93DF932C
:104920008C01D62EF801E080F180CE2DDF2D89910B
:1049300090E00E94C432892B89F48D2D90E00E9472
:10494000CD32982FF7018191882361F07F01981370
:10495000F9CFD801ED93FC938FEF06C0D801CD932A
:10496000DC93E0CF9923A9F3DF91CF911F910F91B1
:10497000FF90EF90DF900895CF92DF92EF92FF9239
:104980000F931F93CF93DF938C01E62ED72EF42E37
:10499000F801C081D181888190E00E94C432892BC6
:1049A00089F4CE2DDD2DEF0C6E01EC1210C0F60156
:1049B0001082DF91CF911F910F91FF90EF90DF90C8
:1049C000CF9008952196D801CD93DC93E1CFD80103
:1049D000ED91FC91F0808F2D90E00E94C432892BE4
:1049E00031F7F992FF2019F3D8018D919C9111971D
:1049F00001968D939C93D8CF8F929F92AF92BF9246
:104A0000CF92DF92EF92FF920F931F93CF93DF939A
:104A1000CDB7DEB764970FB6F894DEBF0FBECDBF3B
:104A20007C016B01042FF701A080B180F50180812A
:104A300090E00E94C432892B09F049C010E0450182
:104A4000F50181915F01882349F0143138F48032F7
:104A5000B1F30E9460288D3009F040C0512F1A3008
:104A600008F059E0812F193008F489E08950990B3A
:104A7000A1E0B0E0AC0FBD1FA80FB91FC60130E028
:104A800020E00150110B251718F420173107BCF155
:104A9000F601E50FF11D1082F6018081882321F0D7
:104AA000F701808291828FEF64960FB6F894DEBF93
:104AB0000FBECDBFDF91CF911F910F91FF90EF906F
:104AC000DF90CF90BF90AF909F908F9008958FEF21
:104AD000A81AB80AF701B182A082A5CFF5013197D3
:104AE000808190ED980F9A3008F0A9CFE1E0F0E0D6
:104AF000EC0FFD1FE10FF11D80831F5FA0CF4D91D3
:104B0000FC014193CF012F5F3F4FBDCF9F92AF92EA
:104B1000BF92CF92DF92EF92FF920F931F93CF93AA
:104B2000DF9300D000D000D00F92CDB7DEB79F83C7
:104B30008E837C0182E3F701A5E7B7E001900D9237
:104B40008A95E1F75701F50181918F0190E00E946C
:104B5000C432892BE1F5CE0101966C0185015C011F
:104B600084E0982E900EF80181918F01882349F0FE
:104B700090E00E94CD32F60181936F019012F3CF45
:104B80008FEF1D82882329F16EEE71E0C5010E942E
:104B90007033892BF1F465E871E081E693E00E94BF
:104BA0008F33892BB1F010E1812F27960FB6F8943F
:104BB000DEBF0FBECDBFDF91CF911F910F91FF9050
:104BC000EF90DF90CF90BF90AF909F9008955801E5
:104BD000BACFCE0106960E94D2232E819F818111E9
:104BE00008C0822F0E942A24182F8823E9F21BE094
:104BF000DBCF022F192FF80181918F01811110C095
:104C00004AE160E0CE0106960E948E23182F8A3179
:104C100008F0FCC1E82FF0E0EE50F94C0C94B330F2
:104C200090E00E94CD32F80131978083E4CF0F5F8E
:104C30001F4F1F830E830E811F81F801808190E03A
:104C40000E94C432892B99F730E020E0C8018E1908
:104C50009F098B58984FFC01E20FF31F40815FEBD7
:104C6000540F5A3128F040534A3010F012E09CCFD4
:104C70002F5F3F4F2430310571F7FC014081518196
:104C80006281738140938603509387036093880306
:104C90007093890344E061E070E00E94F92913E019
:104CA00083CF4EE062E773E0CE0106960E94FC24BB
:104CB00081117ACF16E078CF4EE062E773E0CE0143
:104CC00006960E94FC24882389F285E20E94082827
:104CD000E6CF4EE062E773E0CE0106960E94FC2428
:104CE000882321F288E2F2CF47E168E0CE01069600
:104CF0000E948E23883071F481E08093020161EE7E
:104D000070E30E94292A8FEF8093080162EE70E31E
:104D100081E00EC08930C1F481E08093020161EE30
:104D200070E30E94292A1092080162EE70E380E08D
:104D30000E94292A1092070166E070E080E00E943C
:104D4000292A0E946607ABCF8631A9F481E08093BF
:104D5000020161EE70E30E94292A1092080162EEBE
:104D600070E380E00E94292A8FEF8093070166E0BC
:104D700070E081E0E4CF853109F078CF81E0809365
:104D8000020161EE70E30E94292A1FEF10930801CF
:104D900062EE70E381E00E94292A10930701E7CFB9
:104DA00047E168E0CE0106960E948E23883031F4F8
:104DB0001092020161EE70E380E0A3CF893031F4FC
:104DC0001092020161EE70E380E0ABCF863131F4E6
:104DD0001092020161EE70E380E0BDCF853109F0F1
:104DE00045CF1092020161EE70E380E0CCCF0F5FFF
:104DF0001F4F1F830E830E811F81F801F0808F2DBE
:104E000090E00E94C432892B91F7FF2009F42ECF45
:104E100081E48093F70584E58093F8051F930F9351
:104E200083EF91E09F938F9389EF95E09F938F930A
:104E30000E94F3330E94851F8FEF80932D028CE236
:104E400091E090932C0280932B020F900F900F9083
:104E50000F900F900F9023CFB501CE0106960E94C0
:104E60003824882309F402CF8981482F5A816B8125
:104E70007C818A019B0101501109210931090F39F7
:104E800016482140310508F0F1CEC0900301D090C2
:104E90000401E0900501F090060140930301509356
:104EA000040160930501709306016CED70E30E94AC
:104EB000292A6DED70E3809104010E94292A6EED8C
:104EC00070E3809105010E94292A6FED70E38091C3
:104ED00006010E94292A2FE9C21626E8D20621E0FF
:104EE000E206F104C9F489819A81AB81BC818F39D2
:104EF0009648A140B10581F065E070E08FEF0E9417
:104F0000292A10928C021092A6031092A7031092E5
:104F1000A8031092A9035D980E9466071FE044CE83
:104F20000F5F1F4F1F830E830E811F81F801808149
:104F300090E00E94C432892B99F742E050E066EE7F
:104F400073E0C8010E94FD32892B21F58FE996E8B4
:104F5000A1E0B0E08093030190930401A0930501C8
:104F6000B09306016CED70E38FE90E94292A6DED84
:104F700070E3809104010E94292A6EED70E3809114
:104F800005010E94292A6FED70E3809106010E94BD
:104F9000292AC2CF43E050E062EE73E0C8010E94CC
:104FA000FD32892B09F062CE82E090E0A0E0B0E013
:104FB0008093030190930401A0930501B09306012F
:104FC0006CED70E3D2CF88E198E00FB6F894A89525
:104FD000809360000FBE90936000FFCF8FEF8093AF
:104FE0000D0291E0909302018093080180930701E4
:104FF00061E673E08AE992E00E9479336BEC73E03A
:1050000086E595E00E94F63284E760CE11E0CCCDD3
:10501000E9E4F7E030E020E09191911105C0275BD1
:10502000384FF901808308952F5F3F4F2A303105B3
:1050300099F70895E9E4F7E030E020E091919817BE
:1050400061F0911105C0275B384FF9018083089505
:105050002F5F3F4F2A30310589F7089590E0E92FFF
:10506000F0E0E75BF84F2081281770F0621760F0DE
:10507000292F293028F0109252079A3081F708958D
:10508000318131932F5FF5CF9F5FF7CFE9E4F7E0F0
:105090008181819387E0E235F807D1F710925207BA
:1050A0000895E9E4F7E02AE02E0F9191981710F0A7
:1050B000691720F42E13F9CF80E008958FEF08953B
:1050C0008B3259F030F4833251F08A3251F08DE056
:1050D000089580538A30D8F708958AE008958CE0C7
:1050E00008958BE00895AF92BF92CF92DF92FF9226
:1050F0000F931F93CF93DF93182FEB016A0145E0C5
:1051000050E06FEF70E0C6010E9453338C2F811B7B
:10511000182F219700E0823058F4DF91CF911F9132
:105120000F91FF90DF90CF90BF90AF900895092F1F
:1051300088810E946028F82EF29480EFF822FE0108
:1051400082915F010E9460288F29113061F4E5018E
:105150008F6010E091E0900FF601E00FF11D808369
:105160001111E5CFDACF22971250F4CFE82FF0E0FB
:10517000EE50FB4F84910895CF93DF939C01EB0198
:105180001882BC0180E0DB016F5F7F4F9C919F3FE5
:1051900019F0853009F04AC0A217B30709F44AC0D4
:1051A000642F70E090E0880F991F119768177907B6
:1051B00044F4DB011197B7FDDB01B595A795A20F6C
:1051C000B31FEC918E2F8F708F3091F5E295EF70B9
:1051D000F0E0EE50FB4F84918883882319F02196EC
:1051E000119781E011961197A217B307D8F0EC91AF
:1051F000EF70F0E0EE50FB4FE491E883EE2311F006
:1052000021968F5F841771F0EC91E295EF70F0E0DA
:10521000EE50FB4FE491E9938F5F481719F02A177E
:105220003B0709F71882DF91CF9108958F5FABCFCD
:1052300080E0D8CF80E0F7CFFF920F931F93CF93FA
:10524000DF9300D000D00F92CDB7DEB78B01F42EE4
:1052500045E050E0BC01CE0101960E94DE2E4F2DAC
:10526000B801CE0101960E94BC280F900F900F90BC
:105270000F900F90DF91CF911F910F91FF900895A4
:105280000F931F93CF93DF93EC018B0188818F3FA6
:1052900089F0CB010E94C12E8F3F61F0C8010E94AE
:1052A000C12E382F307F9991292F207F303F89F0F0
:1052B000203F11F480E010C03213FCCF8F709F703C
:1052C0008F3079F09F30B1F38913F4CF0F5F1F4F08
:1052D000E5CF81E0203F71F7DF91CF911F910F91D2
:1052E000089581E09F3031F7F7CF0F931F93CF934D
:1052F000DF9300D000D00F92CDB7DEB78B01FC0159
:1053000001900020E9F73197BF01681B790B680F06
:10531000792F711DAE014F5F5F4F0E947328B80156
:10532000CE0101960E9440290F900F900F900F9090
:105330000F90DF91CF911F910F9108950F931F93BD
:10534000CF930E94162F882381F18091730790914B
:105350008202892B90917407892B39F1C0918102C7
:105360000C2F10E08091710790917207800F911FB0
:105370000E94E52DF801EB58F84F9081891301C088
:10538000CF5F80918202C817A0F48C2F90E0FC01BF
:10539000EB58F84F20917107309172076081820FAE
:1053A000931F0E946F2EC0938102CF911F910F9186
:1053B000089580917307109273078093820225E706
:1053C00037E0F901882379F39E2F921B981770F02C
:1053D0008091A7079091A807909372078093710717
:1053E000609175070E946F2EC0E0DDCF90A591936C
:1053F000EBCF0F931F93CF938B01C42F4423B1F0B6
:1054000050E0BC0185E797E00E944A331093720791
:105410000093710710928102C09382026091750718
:10542000C801CF911F910F910C946F2ECF911F91B6
:105430000F910895662361F090937207809371072E
:105440001092810260938202609175070C946F2E16
:1054500008951F93CF93DF93182FEB01CB010E9488
:10546000C12E811791F010937507D0937207C093E6
:1054700071071092810281E080938202612FCE0138
:10548000DF91CF911F910C946F2EDF91CF911F91DF
:1054900008950F931F93CF93DF9300D000D0CDB723
:1054A000DEB78C0119821A821B821C820E94C12ED7
:1054B0008983C80101960E94C12E8A83C801029681
:1054C0000E94C12E8B8369817A818B819C810F9090
:1054D0000F900F900F90DF91CF911F910F91089532
:1054E000DF92EF92FF920F931F93CF93DF93DC0134
:1054F0001D91141710F01FEF140F862F072FC0E017
:10550000D12C90E0D0E827E030E0C1130CC0C60FEA
:10551000D72FD11D1882DF91CF911F910F91FF904E
:10552000EF90DF9008954D2D50E0EC91F0E0ED2EDE
:10553000F12CE094F094EE21FF2102C0EE0FFF1F4A
:10554000DA94E2F7E90FF11DED5EF94F9491E82E40
:10555000F02EF70191937F01CF5FFC2FF770DF2EC4
:1055600089F0ED91ED23F0E0C901841B950B02C099
:10557000F595E7958A95E2F79E2FD695D0588E2D12
:105580000F2DC3CF90E0D0E8FACFCF92DF92EF9209
:10559000FF920F931F93CF93DF93EC01461B570BA2
:1055A000DC014D933FEF340F90E020E00FE710E077
:1055B00087E04FEF50E0231738F188818770D1F0F2
:1055C000FB01E20FF11DE081F0E0ED5EFA4F249166
:1055D0004FE750E0092E02C0440F551F0A94E2F72E
:1055E000E22FF0E0E423F52302C0F695E7959A95C3
:1055F000E2F7ED93CD01DF91CF911F910F91FF90D5
:10560000EF90DF90CF9008956B01C20ED11CF60190
:10561000F080EF2DF0E0ED5EFA4FE4917801092E75
:1056200002C0EE0CFF1C0A94E2F7F0E0EE22FF222B
:10563000092E02C0F694E7940A94E2F7F601F1808D
:10564000EF2DF0E0ED5EFA4FE491F82EF91A6A01C1
:105650000F2C02C0D694C7940A94E2F7EC2101C043
:10566000EE0FFA94EAF7EE29ED939F5F973011F46D
:105670002F5F90E02F5F9FCFFC01640F752F711D8E
:105680004617570709F4089590819A3370F49053A0
:10569000292F2295207F91819A3348F49053920FBD
:1056A000DA019D93AD013296EBCF9753F1CF97532B
:1056B000F6CF1F93CF93DF93DC01EA018C91873CF7
:1056C00050F0DB011C928FEF888390E080E0DF9147
:1056D000CF911F91089518828C9190E00196A80FA8
:1056E000B91F8C918B7F11F08FEF888311963C91BD
:1056F0001197313130F7FD01339612968C91982F26
:105700009F7E41E0913809F040E0813921F48BE23D
:10571000DB018D93BD01562F172F80E010C09081C3
:10572000222311F0929531969F70905D411101C036
:1057300090E3A52FB12F9D938F5F5A2F1B2F282FFA
:1057400021708313ECCF680F711DDB011C922111B6
:1057500001C031978281882311F08FEF8883CF01B8
:105760000396B5CFFC019081A92FAF708AE0929586
:105770009F70A89F900D1124DB019C939181692F4C
:105780006F7092959F70689F900D1124DA019C9321
:105790009281492F4F7092959F70489F900D1124D0
:1057A000D9019C93CF0103960895FC019081A92F04
:1057B000AF708AE092959F70A89F900D1124DB0135
:1057C0009C939181692F6F7092959F70689F900D47
:1057D0001124DA019C939281492F4F7092959F700A
:1057E000489F900D1124D9019C93CF0104960895F0
:1057F000CF93DF93DB012C9161E82B3211F41196EA
:1058000061E9FD0101900020E9F73197EA1BFB0BEC
:10581000EC01E11105C01992CE01DF91CF910895FD
:10582000E883AC014E5F5F4F6983CF0199270196F2
:1058300095958795D82F742FC52F60E06D1303C001
:10584000840F951FEACF2C91205311963C9111970C
:10585000332359F012963295307F232BE72FFC2FFC
:1058600021936F5F7E2FCF2FE9CF1196206FF6CF58
:10587000CF93DF93DB012C91211106C0FC01119223
:10588000CF01DF91CF91089561E82B3211F4119689
:1058900061E9FD0101900020E9F731979F012A1B82
:1058A0003B0B33272F5F3F4F35952795D22F41E094
:1058B000420FFC014083AC014E5F5F4F6183742F48
:1058C000C52F60E0D61304C0CA01820F931FD9CF41
:1058D0008C91805311969C911197992359F01296AF
:1058E0009295907F892BE72FFC2F81936F5F7E2FFE
:1058F000CF2FE8CF1196806FF6CFEF92FF920F93E4
:10590000CF937B01C22FBA010E94382C21E1FC0108
:1059100020831182B70102960E94F82BFC01C083FC
:1059200001832AEA22830396CF910F91FF90EF9093
:105930000895CF93DF930F92CDB7DEB79C01CB01D3
:10594000582F561B541720F00F90DF91CF910895D8
:10595000DC019D91892F807F898382958983E981EC
:10596000F0E0EE5FFA4F8491F90180839F70E92F98
:10597000F0E0EE5FFA4F8491F90181832E5F3F4F93
:10598000CD01DECF1092CD0087E08093CC0082E085
:105990008093C80088E18093C90086E08093CA00A4
:1059A000239A24982C9A08959091C80095FFFCCFD3
:1059B0008093CE0008958091C80087FFFCCF80912E
:1059C000CE0008958091C800881F8827881F0895F9
:1059D000CF93DF93EC018991811103C0DF91CF91C7
:1059E00008950E94D42CF7CFCF93DF9380918B0240
:1059F000813061F48091C80087FF1BC00E94DB2CBE
:105A000080938A0282E080938B0210C0823089F4F6
:105A10008091C80087FF0DC00E94DB2C90918A0204
:105A20000E94C12E0E94D42C10928B02DF91CF9144
:105A3000089580918902813061F48091C80087FFC8
:105A40004DC00E94DB2C8093880282E08093890203
:105A5000EDCF823051F48091C80087FF3FC00E9493
:105A6000DB2C8093870283E0F1CF8330B9F58091FE
:105A7000C80087FF33C00E94DB2C209188029091E0
:105A80008702682F892F922F0E94C32E8091830254
:105A900090918402A0918502B09186020196A11D89
:105AA000B11D8093830290938402A0938502B093EA
:105AB0008602109289020097A140B10508F4B6CF82
:105AC0001092830210928402109285021092860234
:105AD00088E092E0DF91CF910C94E82C8091C8008F
