:100000000C9464030C9481030C9481030C9481037D
:100010000C9481030C9481030C9481030C94810350
:100020000C9481030C9481030C9481030C94810340
:100030000C9481030C9481030C94F0030C948103C1
:100040000C9481030C9481030C945A1E0C9481032C
:100050000C941F1E0C9481030C9481030C94810357
:100060000C9481030C9481030C9481030C94810300
:100070000C9481030C9481030C9481030C948103F0
:100080000C9481030C9481030C9481030C948103E0
:100090000C9481030C9481030C9481030C948103D0
:1000A0000C9481030C9481030C9481030C948103C0
:1000B0000C9481033A00206F3A200057796B7279D3
:1000C000746F20737465726F77616E6965207A3A18
:1000D0002000FF4142434400000043444547484953
:1000E0004A352B6370696E3F00000000000000007D
:1000F0002B636E6D693D322C312C322C31002B6D0F
:100100006F72696E673D3100000000002B636C69FF
:10011000703D31000000000000002B646465743DF8
:10012000312C31302C3100002B63616C6D3D31007E
:100130000000000000002B6372736C3D3100000072
:10014000000000002B637573643D31000000000067
:1001500000002B637062773D32362C223122000082
:100160002B636C74733D30000000000000002B63B3
:100170006D69633D302C3135002B636D6764613DE3
:1001800036002B6370696E3D223139373622002BE1
:100190006966633D322C32002B63706D733D2253D0
:1001A0004D222C22534D222C22534D22002B6364CE
:1001B000736362002B63636C6B3F002B636F707320
:1001C0003F002B637062723D3236002B63726567AD
:1001D0003F002B637371002B7674733D3100610017
:1001E00068002B434D54493A002B636D67643D0012
:1001F0002B636D67723D002B636D67733D002B436E
:100200005553443A002B434D54493A002B44544D26
:10021000463A002B434C49503A003E002B434D4791
:10022000523A002B434F50533A002B435245473A22
:10023000002B4353513A002B4350494E3A2052452C
:10024000414459002B43434C4B3A00206F3A200065
:1002500057796B7279746F20737465726F77616E02
:100260006965207A3A20004E6F74696679204F4E96
:100270003A20004E6F74696679204F4646004E6FF3
:1002800074696679204F4646004E6F74696679201E
:100290004F4E3A2000303031414520426C6164209D
:1002A00050616D69656369007777772E736F6E664D
:1002B000792E706C00576C61637A79204F55542009
:1002C0006E613A200057796C61637A79204F5554FA
:1002D000207A613A200057796C61637A6F6E7920D9
:1002E00028426973746162696C6E79290A00576CDF
:1002F00061637A6F6E792028426973746162696CF8
:100300006E79290A00437A6173204F55543A2000D0
:100310002044544D460020534D530020534D53006C
:1003200020434C495000537465726F77616E696564
:100330003A20005075626C69637A6E790A005072D7
:10034000797761746E790A00547279623A200055A7
:100350007A79746B6F776E6963792000557A797456
:100360006B6F776E6963793A2000506F7A696F6DB1
:100370002047534D3A200041432D3230302D445414
:100380004D2D460A002B435553443A002B434D5301
:10039000204552524F523A002B434D452045525270
:1003A0004F523A0042555359004E4F204449414C58
:1003B000544F4E45004E4F20434152524945520042
:1003C0002B434D54493A002B44544D463A002B439D
:1003D0004C49503A004D4F20434F4E4E45435445F3
:1003E00044004D4F2052494E47004552524F520053
:1003F0002B434D47533A00547279622073657277EC
:1004000069736F777920616B7479776E79004F46E5
:1004100046004F4E004F464600414C4C004333448B
:10042000340004434F4445000000000003414444AD
:100430000000000000000344454C000000000000E4
:1004400004585858580000000000065245504F52BA
:100450005400000004555345520000000000044FB2
:1004600050454E000000000005434C4F534500002E
:10047000000004434C495000000000000444544D67
:100480004600000000000353455400000000000037
:100490000454494D45000000000006534B52594298
:1004A0004100000005444542554700000000035349
:1004B0005542000000000000054D594E554D00000A
:1004C00000000455535344000000000003434F4E06
:1004D000000000000000024F4E000000000000007D
:1004E00005544F474C450000000003525354000090
:1004F0000000000008534D5320434C495000035363
:100500004D53000000000000045354414E00000011
:1005100000000454454348000000000003535953B1
:1005200000000000000030313233343536373839BE
:100530002B2A2321210030313233343536373839F4
:10054000414243444546003F3F3F3F3F3F3F3F3FDF
:100550003F0A3F3F0D3F3F3F3F3F3F3F3F3F3F3F12
:100560003F3F3F3F3F3F3F202122230225262728B0
:10057000292A2B2C2D2E2F30313233343536373873
:10058000393A3B3C3D3E3F004142434445464748A3
:10059000494A4B4C4D4E4F50515253545556575853
:1005A000595A3F3F3F3F113F616263646566676828
:1005B000696A6B6C6D6E6F70717273747576777833
:1005C000797A3F3F3F3F3F3F3F3F3F3F3F3F3F3FC6
:1005D0003F3F3F3F3F3F3F3F3F3F3F3F3F3F3F3F2B
:1005E0003F3F3F3F3F3F3F3F403F0124033F5F3F8F
:1005F0003F3F3F3F3F3F3F3F3F3F3F3F3F3F3F3F0B
:100600003F3F3F3F3F3F603F3F3F3F5B0E1C093F47
:100610001F3F3F3F3F3F3F3F5D3F3F3F3F5C3F0B03
:100620003F3F3F5E3F3F1E7F3F3F3F7B0F1D3F04ED
:10063000053F3F073F3F3F3F7D083F3F3F7C3F0C2B
:10064000063F3F7E3F3F3F40A324A5E8E9F9ECF297
:10065000C70AD8F80DC5E53F5F3F3F3F3F3F3F3FEB
:100660003F3F3FC6E6DFC920212223A425262728B5
:10067000292A2B2C2D2E2F30313233343536373872
:10068000393A3B3C3D3E3FA1414243444546474801
:10069000494A4B4C4D4E4F50515253545556575852
:1006A000595AC4D6D1DCA7BF6162636465666768C6
:1006B000696A6B6C6D6E6F70717273747576777832
:1006C000797AE4F6F1FCE00011241FBECFEFD8E008
:1006D000DEBFCDBF12E0A0E0B1E0E2E3FDE602C084
:1006E00005900D92AE31B107D9F728E0AEE1B2E046
:1006F00001C01D92A432B207E1F70E94D92D0C94DB
:10070000D2350C94000010924602109245021092CD
:100710004402089580915E0295EB980F8C5E9431AF
:1007200008F083E30C94CD268091790290917A02AF
:100730008F3F980729F0019690937A02809379026F
:100740008AE08093300210922F021092CA030E9416
:10075000830383E30C94CD26BC018DEF93E00C94CE
:1007600039328FEF9FE80197F1F700C000008FEF5B
:100770009FE80197F1F700C000008FEF9FE8019715
:10078000F1F700C000008FEF9FE80197F1F700C07C
:1007900000008FEF9FE80197F1F700C00000A895D7
:1007A0000895809173028F5F843618F480937302EA
:1007B0000895109273028091720291E0811190E08D
:1007C00090937202811102C040980895409A089552
:1007D0008091E103807F11F4409A08954098089534
:1007E00078940F920FB60F921F9211242F938F932C
:1007F0009F93EF93FF93809127028F5F809327024F
:10080000823128F0109227028FEF809329024B9BB0
:1008100057C000B601FC16C080918502811112C03C
:1008200010929405109293051092A30580B78260F0
:1008300080BFF8948091C10080688093C100789453
:100840000000439832992FC0F8948091C10086FF30
:1008500029C08091C1008F7B8093C10078948091E2
:1008600086028823C9F080918402811104C080919E
:100870005E028D3289F410928602809197059091E4
:100880009805FC01E05BF94F208101969093980553
:10089000809397052093C600F8948091C1008064EE
:1008A0008093C10078948FEF80932A02FF91EF919B
:1008B0009F918F912F911F900F900FBE0F901895C1
:1008C000439AF8948091C1008F738093C10080B7E0
:1008D0008D7F80BF78940000E6CF0F931F93CF9356
:1008E000DF938C01DC01CD91DC914DE050E067E7B6
:1008F00073E0CE010E94F8316AE673E0CE010D96F6
:100900000E940C3280910901803210F590912602EC
:100910009923F1F06996B4E68B9FC00111246FE131
:1009200070E00E941D2FCB014AE0BE010E94BF3241
:1009300009900020E9F7FE01319785E2819310824A
:10094000D801ED93FC93DF91CF911F910F91089502
:100950008DE2898F8A8FFE017C968B8FF0CFCF92AC
:10096000DF92EF92FF920F931F93CF93DF938C014F
:10097000FC01C081D1814DE050E06CE573E0CE0117
:100980000E94F8312D9688E0C82ED12CF12CE12C54
:10099000C6010E947D2D8F3F19F0FFEFEF1AFF0A6D
:1009A00085E0C80ED11CE0EFCE16E3E0DE0681F74D
:1009B0004AE0BE01C7010E94BF3209900020E9F75A
:1009C00021978FE289934AE0BE0188EC90E08E196E
:1009D0009F090E94BF3209900020E9F72197F80192
:1009E000D183C083DF91CF911F910F91FF90EF9042
:1009F000DF90CF900895CF92DF92EF92FF920F9306
:100A00001F93CF93DF938C01FC01C081D1814CE017
:100A100050E06FE473E0CE010E94F8312C9688E03C
:100A2000E82EF12CD12CC12CC7010E947D2D8F3FC7
:100A300059F1C394F5E0EF0EF11C80EFE81683E066
:100A4000F80691F74AE0BE018C2D90E00E94BF327B
:100A500009900020E9F721978FE289934AE0BE01CF
:100A60008D2D90E00E94BF3209900020E9F7219778
:100A7000F801D183C083DF91CF911F910F91FF9037
:100A8000EF90DF90CF900895D394D4CFCF92DF92A0
:100A9000EF92FF920F931F93CF93DF9300D000D07C
:100AA00000D0CDB7DEB78FEA95E09A838983CE0177
:100AB00001960E946D04E981FA81CF0101969A8323
:100AC00089831AE01083E981FA811082CE010196B0
:100AD0000E94AF04E981FA81CF0101969A8389834C
:100AE0001083E981FA81108268E473E089819A8138
:100AF0000E940C3289819A8106969A83898320917B
:100B000000016EE373E0222311F063E373E00E94BF
:100B10000C3289819A81DC010D900020E9F7CD012A
:100B200001979A83898366E273E00E940C3289817F
:100B30009A810C969A83898320910601222309F4D5
:100B40007BC060E273E00E940C3289819A81FC01D3
:100B500001900020E9F7CF0101979A8389832091C2
:100B60000501222371F06BE173E00E940C32898150
:100B70009A81DC010D900020E9F7CD0101979A835D
:100B80008983E981FA81CF0101969A8389838AE07A
:100B90008083E981FA81108209811A81D8010D9040
:100BA0000020E9F78D01015011091A830983809112
:100BB000010190910201A0910301B09104018B8386
:100BC0009C83AD83BE838F399648A140B10509F05F
:100BD00045C065E073E0C8010E940C3289819A81AA
:100BE0000A969A83898320919E026EEE72E021110B
:100BF00002C066ED72E00E940C3289819A81DC01AC
:100C00000D900020E9F7CD0101979A83898368EA66
:100C100072E089819A810E940C3226960FB6F89470
:100C2000DEBF0FBECDBFDF91CF911F910F91FF901F
:100C3000EF90DF90CF9008952091050166E173E079
:100C4000211102C060E173E00E940C3289819A8117
:100C5000FC0101900020E9F7CF0190CF80919E0226
:100C600065EB72E08823B1F08091EB039091EC0387
:100C7000A091ED03B091EE03BC01CD012AE030E07C
:100C800040E050E00E94312F2B833C834D835E83F4
:100C900065EC72E0C8010E940C32E981FA81019092
:100CA0000020E9F7DF0111977D01BA83A9836B81E9
:100CB0007C818D819E8120E13EE040E050E00E94F9
:100CC000312F6B837C838D839E838B819C816CE32E
:100CD00070E00E94092FD62E082F1AE0822F612F74
:100CE0000E94FD2EC92E4AE0B70190E00E94BF325B
:100CF00069817A81FB0101900020E9F7BF01615011
:100D000071097A8369834AE08C2D90E00E94BF329A
:100D1000E981FA8101900020E9F7DF011197FA8358
:100D2000E98388E68C93E981FA81CF0101969A8361
:100D300089838AE3F82EF08229813A818D2D612FF3
:100D40000E94FD2EE92E4AE0B90190E00E94BF32D8
:100D500069817A81DB010D900020E9F7BD016150C6
:100D600071097A8369834AE08E2D90E00E94BF3238
:100D7000E981FA8101900020E9F7DF011197FA83F8
:100D8000E9838DE68C93E981FA81CF0101969A83FC
:100D90008983F08229813A81802F612F0E94FD2E64
:100DA000092F4AE0B90190E00E94BF3269817A813F
:100DB000FB0101900020E9F7BF01615071097A83BE
:100DC00069834AE0802F90E00E94BF32E981FA8176
:100DD00001900020E9F7DF011197FA83E98383E7A7
:100DE0008C93E981FA81CF0101969A8389831083DC
:100DF000E981FA8110820BCF10929E021092EB03D0
:100E00001092EC031092ED031092EE035D9808959A
:100E10008091370290913802892BA1F58AE090E009
:100E200090933802809337022091010130910201A2
:100E300040910301509104012F3986E8380781E081
:100E40004807510581F481E090919E02911180E064
:100E500080939E021092EB031092EC031092ED032C
:100E60001092EE0308958FEF80939E02AAE0B0E007
:100E70000E94592F6093EB037093EC038093ED0372
:100E80009093EE03089580911F02811133C08091E9
:100E9000390290913A02A0913B02B0913C02803419
:100EA0009D40A340B105E0F480918C028E31C0F4E6
:100EB0008D3101F580918B02873090F48630D1F42A
:100EC00080918A02863160F48531A1F48091890293
:100ED000883130F4873171F480918802823250F089
:100EE0008FEF8093200284E18093300210922F02D2
:100EF0001092CA030895EF92FF920F931F93CF931E
:100F0000DF93CDB7DEB766970FB6F894DEBF0FBE9E
:100F1000CDBF1092AD078FEF80934602109245022D
:100F2000109244028DE097E00E94F123182F8091E7
:100F30004002811134C0809187021F928F9380916B
:100F400088021F928F93809189021F928F9386E16E
:100F500091E09F938F938AE091E09F938F930E94FB
:100F6000D932809187021F928F93809188021F92BD
:100F70008F93809189021F928F9385E291E09F93D6
:100F80008F938AEC97E09F938F930E94D9328FE9D9
:100F90000E94BB260FB6F894DEBF0FBECDBF1092E5
:100FA00040020E9443078091210281111092210288
:100FB0008CEF810F8230B8F480918102883098F0F4
:100FC0000E948A030E9494030E94830366960FB6D0
:100FD000F894DEBF0FBECDBFDF91CF911F910F916F
:100FE000FF90EF900895809155028111E9CFE0ECD8
:100FF000F7E020E09191992329F08F5F9457923088
:1010000008F42F5F97E0EA3CF907A1F78332C0F6B6
:101010002630B0F61131C0F6E12FF0E0EC52FA4C78
:101020000C94532F80910501882371F28091000167
:10103000813039F166E973E0FB0101900020E9F7A6
:10104000BF0161507109AE014F5F5F4F86E993E0C8
:101050000E94252708E010E0B801CE0101960E9409
:10106000F02781110EC00B5F1F4F003FF3E01F07F9
:1010700099F781E08093300210922F021092CA03F8
:10108000A3CF809120028111F4CF66E973E08FEC49
:1010900093E00E948F320E940807EBCF80911F02DD
:1010A000811117C00E94430780912002882389F094
:1010B00065E972E08FEA95E00E940C3266E973E020
:1010C0008CEA92E00E948F3284E70E94BB2684E182
:1010D000D1CF809181028F5F809381028CE291E079
:1010E0009093800280937F0266E973E08CEA92E03D
:1010F0000E948F320E94460584E70E94BB2682E050
:10110000B9CF809181028F5F809381028CE291E060
:101110009093800280937F0266E973E08CEA92E00C
:101120000E948F3267EA73E0FB0101900020E9F72B
:10113000BF0161507109AE014E5E5F4F87EA93E0D7
:101140000E94252788E0E82EF12CB701CE014296B7
:101150000E94F027182F81113EC0F5E0EF0EF11C20
:1011600080EFE81683E0F80681F741E1BE016F5F8A
:101170007F4FCE0142960E946C27BE016F5F7F4F6A
:101180008FEA95E00E948F3268E471E08FEA95E083
:101190000E9470326BE471E0111102C06EE471E0E4
:1011A0008FEA95E00E94703284E70E94BB2682E0BD
:1011B0008093300210922F021092CA038091EC07A4
:1011C00090919402892B9091ED07892B09F0FCCE28
:1011D0000E94D72DF9CE1FEFC8CF66E973E08CEAE5
:1011E00092E00E948F326DE671E08FEA95E00E94F6
:1011F0008F3282CF809181028F5F809381028CE257
:1012000091E09093800280937F0266E973E08CEA1C
:1012100092E00E948F32109295038AE26ECF66E9C7
:1012200073E08CEA92E00E948F321092950389E27B
:1012300064CF63E282E00E9404278111C5CE89E178
:101240008093300210922F021092CA0383E00E9412
:10125000BB26BACE66E973E08CEA92E00E948F3238
:1012600080919202882331F08091AE0769E872E0A4
:10127000811118C06EE772E08FEA95E00E940C328F
:101280003BCF66E973E08CEA92E00E948F3263E71D
:1012900072E0F2CF66E973E08CEA92E00E948F324E
:1012A00067E672E08FEA95E00E940C326EEA77E022
:1012B0008FEA95E00E9470321FCF66E971E086E9FF
:1012C00093E00E94A532892B09F454C04091390261
:1012D00050913A0260913B0270913C0240349DE093
:1012E000590793E06907710508F040C080E49DE06C
:1012F000A3E0B0E0841B950BA60BB70BBF93AF9395
:101300009F938F931F9283E08F938DE08F9380E460
:101310008F937F936F935F934F931F9285E18F938A
:101320001F9286E08F931F928DE18F9383EA91E065
:101330009F938F938FEA95E09F938F930E94D9326A
:1013400066E973E08CEA92E00E948F3284E70E94A3
:10135000BB2682E08093300210922F021092CA03C3
:101360000FB6F894DEBF0FBECDBF2ECE80E090E06A
:10137000DC01C4CF85E07ECE83E07CCE809171021B
:101380009091EA0390FF06C0883C88F48F5F8093B9
:1013900071020895883C60F063E282E00E940427B5
:1013A000811103C083E00E94BB2610927102089550
:1013B0008233D8F363E282E00E9404278111F5CFE3
:1013C00082E0F1CFCF93DF9380912002882341F018
:1013D00080911F02811104C080E0DF91CF910895B8
:1013E0008091060181112FC0809105018111F4CFF8
:1013F0008091CF03882319F084E20E94BB2680915C
:101400000001813011F48FEFE8CF6FEC73E0FB0146
:1014100001900020E9F7BF01615071094EEE57E0DD
:101420008FEC93E00E942527C8E0D0E0BE018EEE4D
:1014300097E00E94F0278111E6CF2596C03FF3E0A8
:10144000DF07A1F7C9CF8091CF03882319F084E289
:101450000E94BB2681E090910001913009F080E06C
:101460008195BBCF8CE38093600210925902109259
:101470005802109252021092530210924702809129
:101480007E02882309F453C08091AE07882309F4B3
:101490004CC06EEA77E08CEA92E00E948F3260E501
:1014A00072E08FEA95E00E940C326FEC73E08FEAF5
:1014B00095E00E9470326BE472E08FEA95E00E9442
:1014C0000132EFEAF5E001900020E9F7CF01805BFF
:1014D0009540319790910A019083E1E0E80FF0E0A8
:1014E000E155FA4F90910B019083E2E0E80FF0E0B4
:1014F000E155FA4F9AE39083E3E0E80FF0E0E1551D
:10150000FA4F90910D019083E4E0E80FF0E0E1558F
:10151000FA4F90910E0190838B5FE82FF0E0E15538
:10152000FA4F108284E70E94BB2610927E02089533
:101530008CE38093600210921E0208951092FA03C9
:10154000109259021092580210925D0210925C02A1
:1015500010925E02109292058CE3809360021092CA
:10156000550208950E949E0A10925D0210925C023C
:1015700010925E021092AE051092C803109292056E
:101580001092F90310925A0210921E021092560203
:1015900008950E94B20A86E980930801109284029D
:1015A0001092830210924E0210924D021092A102EC
:1015B00010924C0210924B021092470210925B0262
:1015C00083E68093090162E78FE50E94E1266FE3DD
:1015D0008BE20E94E12669E480E40E94E12666E74E
:1015E00084E70E94E12610922602089580918502E8
:1015F0008D3051F41092540210921E021092550236
:1016000086E480936002089580918502863059F5C2
:10161000209154022F5F2093540280918D0290916B
:101620008E02853032E0930761F08A3331E0930710
:1016300041F0833032E0930721F0805192400297CD
:1016400070F48CE38093600280915502223080F127
:101650001092540210921E021092550208958CE3CB
:1016600080936002F5CF80918502843021F58CE370
:1016700080936002109292058091FF038E3331F4C3
:1016800080919305909194050A9720F080915502DE
:10169000811107C01092540210921E020E94C90AC2
:1016A000DBCF909154029F5F90935402923080F66A
:1016B0000E94BB26D1CF809185028530B9F48091FC
:1016C0008F02909190028A30910539F09C012D7F14
:1016D0002D30310511F04E9769F4109254028CE3CD
:1016E0008093600210921E020C94C90A80918502B8
:1016F0008091850208950F931F93CF93DF93C0913C
:101700008502D0915E02D83758F4DD3260F0E3ED07
:10171000ED0FEB3440F4F0E0EB51FA4C0C94532F06
:10172000DE3909F474C210925D0210925C021092CC
:101730005E02DF91CF911F910F9108958EE20E947A
:10174000BB2610924802EFCFC13069F784E492E0E3
:101750000E94AC03009739F362E270E00E947B3292
:10176000EC01892B01F3219662E270E0CE010E9428
:101770007B328C01892BB9F26CE270E0CE010E94C1
:101780007B32EC01892B79F22196C017D10758F6EC
:101790006AE370E0CE010E947B32009721F280174D
:1017A000910708F6FE0101900020E9F73197EC1B44
:1017B000FD0B389708F4B7CF88E0FE01AAE0B1E04E
:1017C00001900D928A95E1F710921201ACCFC130D1
:1017D00099F487E392E00E94AC03892B59F08FEFD4
:1017E000809383021092910283E30E94BB261092A1
:1017F000700299CF8FE2F9CFC53051F480918F02FA
:10180000909190020E9731F480E40E94BB268BCF1A
:10181000C43021F0809185028038B1F78091700248
:101820008F5F80937002843118F00E94C90ADFCF65
:1018300084E180936002E8CFC13061F48FEF809340
:1018400083021092910283E30E94BB2682E380937D
:10185000600269CFC53079F480918F029091900237
:101860008031910521F48FEF809391025CCF0E9728
:1018700021F48FE2CACFC430E1F380918502F9CF21
:10188000C13011F481E4C1CFC63089F480918D025A
:1018900090918E028A3321E0920721F085309240A8
:1018A00009F041CF8CE38093600283E3AECFC43074
:1018B000E1F380918502803809F035CFF6CF80E3DF
:1018C000C13009F4A2CFC63081F480918D0290918D
:1018D0008E028A3321E0920721F08530924009F090
:1018E00022CF84E180936002CDCF8AE0FBCFC1306C
:1018F00049F0C53081F480918F0290919002039756
:10190000029748F480915B020E94BB2610925B0212
:101910001092C9030AC08091C9038F5F8093C903E5
:10192000833018F483E40E94BB2682E090CFC1305C
:1019300089F481E392E00E94AC03009709F4F3CEAE
:101940004AE050E070E060E006960E94732F6093DA
:101950000901E9CE83E680930901E5CEC13009F0A3
:10196000E2CE8AE292E00E94AC03FC01892B09F4EA
:10197000DACE87818C32C9F4379680818C3221F09F
:1019800081818C32A1F431964AE050E070E060E051
:10199000CF0101960E94732F662321F08DEF860FF1
:1019A000823038F40E94C90ABECE3896E6CF32960D
:1019B000EBCF6B7F613009F0B6CE8FEF80932602BC
:1019C000B2CEC13049F0C53051F480918F02909170
:1019D00090024597029718F410924E02A4CE80917F
:1019E0004E028F5F80934E029ECEC13009F043C0FD
:1019F00046E050E063E272E08FEF93E00E942B320A
:101A0000892BC9F583E292E00E94AC036CE270E09E
:101A10000E947B32009779F16CE270E00E947B3289
:101A2000009749F162E270E00E947B328C01892BC1
:101A300011F10F5F1F4F62E270E0C8010E947B321C
:101A4000AC010097C1F008171907A9F0401B510B12
:101A50004C30510514F04BE050E0EA01DD27AE01B7
:101A6000B80181EA92E00E946032CF55DD4F1882C2
:101A700010924D0258CE80914D028F5F80934D029F
:101A800052CEC63009F451CF86E3C13009F44DCFB0
:101A90004ACFC13021F0809185028C30A1F48FEFC4
:101AA00080935A021092C9038091060181113BCEA6
:101AB0008CE291E0909336028093350284E180932A
:101AC000600286E4A2CEC43021F080918502803885
:101AD00049F48091C9038F5F8093C903833010F468
:101AE00087E393CEC33011F410925A021092C903C7
:101AF0001ACE88E3C13009F088CE81E00E94320A14
:101B000010925A021092FA030ECEC130D1F58CE138
:101B100092E00E94AC036AE070E00E947B32EC012C
:101B2000892B61F121966DE070E0CE010E947B323D
:101B30009C01892B19F12C1B3D0B37FF02C02F5F35
:101B40003F4F35952795293CA8F4209357024DEC3B
:101B500052E060915702CE010E94F62983E70E946D
:101B6000BB2680915E028C5E0E94BB268FEF809325
:101B70005602D9CD88EC80935702E9CF10925602D5
:101B8000D2CDC63021F0109256028CE360CE8D2F5C
:101B90000E94BB26F8CFC63059F480918D029091F7
:101BA0008E028134914031F08D2F0E94BB2606C0F9
:101BB000C430D1F3809185028038B1F389E147CEFA
:101BC000C43029F080918502803809F08FCF1092BF
:101BD000FA038091C9038F5F8093C903833010F4A7
:101BE00087E713CE1092C90380E00E94320A109258
:101BF0005A021092FA03109259021092580293CD91
:101C0000C130B9F080E30E94BB2684E120CE8AE196
:101C100092E00E94AC03892B09F0C4CEC13049F098
:101C20008091C9038F5F8093C903833010F48D2F97
:101C30007ACE80915B020E94BB2680915B028B541E
:101C4000843108F063CE1092560260CE0F931F933A
:101C5000CF93DF938091850280918502803821F0B7
:101C600080915F02882381F080E8809385020E9442
:101C70007B0B82E3809360028FEF80935F02DF91A2
:101C8000CF911F910F91089580918502813829F598
:101C900020918E0530918F05809193059091940548
:101CA0002817390761F440918E0550918F0560E542
:101CB00076E08DEF93E00E945332892B01F38091FF
:101CC00092058111DCCF80E8809385028FEF8093AD
:101CD0005F0282E380936002D2CF809185028A30D6
:101CE00009F043C083E192E00E94AC0362E270E03D
:101CF0000E947B328C01892B39F10F5F1F4F62E20A
:101D000070E0C8010E947B32AC01892BE9F0401BD6
:101D1000510B4031C8F4EA01DD27AE01B8018FEC68
:101D200093E00E946032C153DC4F188280914D02D3
:101D3000811110924D0280910901882311F08336A0
:101D400019F480E18093090189E30E94CD268091F6
:101D50005E028B54843110F41092560210925D0290
:101D600010925C0210925E028ACF809185028330CD
:101D700089F480E00E94320A10925A021092FA030B
:101D8000109259021092580280915E02873709F032
:101D900076CFE4CF809185028230D1F480915E02CB
:101DA000873711F40E947B0B8091520281110BC086
:101DB0008AE5809353028FEF8093FA0310925902C1
:101DC000109258025CCF8093530210925202F3CFCC
:101DD0008CE092E00E94AC03FC01892B91F03796D5
:101DE00081918032E9F390910601911107C081330E
:101DF00029F40E9408078BE08093CA0310928502A1
:101E00003ECF809185028C3071F480910601882349
:101E100009F435CF10925A0288E3DF91CF911F91D8
:101E20000F910C94BB2680918502893061F48091DA
:101E30005E02873711F40E947B0B80E00E94320A19
:101E40001092FA03BBCF80918502873081F3809195
:101E50008502883029F585E092E00E94AC036CE2AF
:101E600070E00E947B320097A1F04AE050E070E001
:101E700060E001960E94A630CB019B012150310900
:101E80002431310530F4865B0E94BB2681E08093CB
:101E9000600280915E028B54843108F0F0CE5CCFFA
:101EA000809185028E3009F04CC084E180936002FD
:101EB00080915E028B54843140F41092560210924D
:101EC0005D0210925C0210925E028EEF91E00E9421
:101ED000AC0362E270E00E947B328C01892B09F432
:101EE000CECE0F5F1F4F62E270E0C8010E947B32CE
:101EF000EC01892B09F4C3CE80913F02882309F4B9
:101F0000BECEC01BD10BC13AD10510F0C0EAD0E063
:101F1000AE01B8018FEA95E00E949632C155DA4FC2
:101F2000188266E973E08CEA92E00E948F3284E7BF
:101F30000E94BB2610923F0210923E0210923D0278
:101F40009ECE8091550281110E94F60A80919305E0
:101F500090919405892B09F492CE80918502882373
:101F600009F48DCEDF91CF911F910F910C947B0BD3
:101F7000CF93C82FC901C11106C0862F0E94BB266E
:101F80008C2FCF91089510925D0210925C026093A5
:101F90005E0240935B020E94ED1DCFEFF1CF0F93E5
:101FA000CF93DF939FEF909392051092F9038111E5
:101FB0004BC085E08093300210922F021092CA032A
:101FC00084E7809355029093CD024AE06EEE77E06D
:101FD0008DEC92E00E946C2700E020E04EEE57E08E
:101FE0006CEA72E08DEC92E00E943A2B4FEA55E0E9
:101FF000FA0101900020E9F7AF01415051096FEA61
:1020000075E00E947C298D5C924080935702C091BC
:102010005702C1508091CD02C81B46E050E067EFE7
:1020200071E082E596E00E94F8314AE068E576E0EA
:102030008C2F90E00E94BF328AEF80930701DF91DE
:10204000CF910F910C940A1E85E08093300210927C
:102050002F021092CA0385E7809355020091AF05C5
:102060009093CD024AE06EEE77E08DEC92E00E9414
:102070006C2720E04EEE57E06CEA72E08DEC92E0C7
:102080000E943A2BEC014091B00550E061EB75E005
:102090000E9460328091B0058C0F9D2F911DB3CFAF
:1020A000EF92FF920F931F93CF93DF9300D00F9285
:1020B000CDB7DEB740915602309155028091FA03B8
:1020C00060915E0250916002242F232B282B909167
:1020D0005A02922B962B952B31F57091920591E037
:1020E000711101C090E091111FC07091C10076FD87
:1020F0001BC0709184027723B9F07091850211E0C2
:10210000711112C00091C007E02EF12C0A3770F453
:102110000B3278F0E5EDE00FEF3458F4F0E0E05DDD
:10212000F94C0C94532F91E010E0ECCF0F3909F4E7
:102130004AC380E036C12091580230915902232BC6
:1021400019F4282F252B11F0802FC4C08091EC07A3
:1021500090919402892B9091ED07892BA9F70E9409
:10216000D72D882389F3112379F310925D02109201
:102170005C0200935E0281E0053709F080E00E9476
:10218000CF0F8FEF0EC110929205409157026DEC68
:1021900072E080E596E00E945A2B8091570290E011
:1021A000880F991FFC01E05BF94F2AE1208301961B
:1021B0000E94D41DE6CF80912602882329F28091C7
:1021C000580290915902892B09F0BECF252B80919E
:1021D0001E02282B09F0B8CF633309F4B5CF8091E4
:1021E000EC0790919402892B9091ED07892B09F0CF
:1021F000ABCF0E94D72D882309F4A6CF61E081E000
:102200000E9404278111A0CF66E784E70E9404277B
:1022100081119ACF69E387E30E940427811194CF4B
:10222000112309F491CF10925D0210925C02009389
:102230005E028FEF8093560246E050E060EF71E05F
:1022400082E596E00E94F8314AE068E576E0C70151
:102250008A5491090E94BF320E940A1E92CF40EA1E
:1022600052E066E973E08DEC92E00E94142A009738
:1022700019F41092560285CF9E012F5F3F4FAE0199
:102280004E5F5F4FBE016D5F7F4F0E946D2A2B81B5
:1022900020938C022A8120938B02298120938A0229
:1022A0009E012F5F3F4FAE014E5F5F4FBE016D5FDE
:1022B0007F4F0E94902A2B81209389022A812093AC
:1022C000880229812093870241EA6DE077E00E942D
:1022D000262989E70E94BB2654CF8091EC07909174
:1022E0009402892B9091ED07892B99F70E94D72DA5
:1022F000882379F38BE08093CA030E947B07B9CFD0
:102300002091580230915902232B09F01DCF842BC4
:1023100040919F02842B09F017CF80919205811183
:1023200013CF112309F410CF10925D0210925C02BA
:1023300000935E0246E050E069EE71E082E596E0CF
:102340000E94F8314AE068E576E0C7018E559109B0
:1023500081CF8091EC0790919402892B9091ED07A9
:10236000892B11F089E3B6CF0E94D72D8823D1F3B2
:102370008BE08093CA030E94E209882361F0809178
:1023800006018823C1F082EE91E00E94AC03892B04
:1023900011F40E94080788E30E94BB268FEF809308
:1023A00047020F900F900F90DF91CF911F910F91E7
:1023B000FF90EF90089587E3EFCF832B862B81F476
:1023C0008091920581110CC08091C10086FD08C0EA
:1023D00080918402882321F080918502882311F066
:1023E00088E378CF10925D0210925C0288E38093BC
:1023F0005E0280EE91E00E94ED1DC3CE87E31123C3
:1024000009F468CF10925D0210925C0287E380931A
:102410005E028EED91E0EFCF552311F086E45ACFA6
:102420008091C10086FDFACF809184028823B1F3A8
:1024300080918502862B91F710925D0210925C02CA
:1024400086E480935E0287ED91E0D5CF90912602DD
:10245000992311F0552311F087E73CCF811191CEDC
:102460001123D1F310925D0210925C0287E78093F2
:102470005E0285E18093CA0384E68093520667EA90
:1024800073E083E596E00E948F3287EA93E0FC01D7
:1024900001900020E9F7CF01885A93408F5F90E0C8
:1024A000FC01EE5AF94F2BE320838D5A994FFC0122
:1024B00010820E940A1E8CE291E090935902809350
:1024C00058025FCE2091580230915902232B59F4C3
:1024D00020919F02822B39F48091920520911E0257
:1024E000822B982B51F080910901833611F08111D4
:1024F00048CE80E18093090144CE8CE3112309F496
:10250000E9CE10925D0210925C028CE380935E0231
:1025100082ED91E070CF2091580230915902232B27
:1025200009F02FCE20919F02822B09F02ACE8091B4
:10253000920520911E02822B982B09F022CE8EE369
:10254000112309F4C7CE10925D0210925C028EE353
:1025500080935E028BEC91E04ECF20915802309137
:102560005902232B59F420919F02822B39F4809138
:10257000920520911E02822B982B19F010924E0288
:1025800000CE8AE3112309F4A5CE10925D021092C9
:102590005C028AE380935E0282EC91E02CCF209172
:1025A000580230915902232B59F420919F02822B1B
:1025B00039F48091920520911E02822B982B19F0FC
:1025C00010924D02DECD8BE3112309F483CE1092DD
:1025D0005D0210925C028BE380935E028BEB91E0D4
:1025E0000ACF2091580230915902232B09F0C9CD0E
:1025F00020919F02822B09F0C4CD809192052091F9
:102600001E02822B982B09F0BCCD8FE3112309F415
:1026100061CE10925D0210925C028FE380935E02A5
:1026200084EB91E0E8CE86E3112309F453CE1092B7
:102630005D0210925C0286E380935E028DEA91E077
:10264000DACE80E3112309F445CE10925D02109298
:102650005C0280E380935E0282E480935B0288E9FF
:1026600091E0C9CE8DE20E94BB2684E180939F0257
:1026700010929405109293051092A30580B7826082
:1026800080BFF8948091C10080688093C1007894E5
:102690000000439876CD80914802811172CD8091DF
:1026A0009F02882311F08DE215CE8091C10086FD36
:1026B000FACF10929405109293051092A30580B75B
:1026C000826080BFF8948091C10080688093C100CF
:1026D00078940000439810925D0210925C028DE2A3
:1026E00080935E0284E1809348028FE891E083CE7C
:1026F0008FEF8093840280E40E94BB2688E280935F
:1027000060023FCD8FE2112309F4E4CD10925D0207
:1027100010925C028FE280935E0262E871E082E5D3
:1027200096E00E940C3298CD80916F02882311F0C0
:1027300081E4D0CD8FEF80936F0283E3112309F4FE
:10274000C9CD10925D0210925C0283E380935E0219
:1027500089E791E050CE0E94260E80918502813853
:1027600019F084E180930701109285020ACD8091CF
:10277000EC0790919402892B9091ED07892B21F41D
:102780000E94D72D811102C085E3A4CD1123E1F36E
:1027900010925D0210925C0285E380935E026EE609
:1027A00071E082E596E00E940C3281E380935B0247
:1027B00053CD80918302882309F4E3CC86E30E9401
:1027C000BB2682E387CD8091EC0790919402892B00
:1027D0009091ED07892B21F40E94D72D811102C021
:1027E0008FE978CD1123E1F310925D0210925C0223
:1027F00000935E026AEC77E082E596E00E948F32F9
:102800002BCD20EC200FE22FF0E0E852FF4F459156
:102810005491FEE02F9F900111242E513F4F602FC5
:10282000812F0E94B80FADCC80916002882339F0CF
:10283000815080936002811102C010925F028091EA
:10284000220290912302009729F00197909323028E
:10285000809322028091350290913602009771F0A8
:1028600001979093360280933502892B39F4809139
:102870005A02882319F088E30E94BB2680914802FF
:102880008823C1F0815080934802811113C01092B7
:102890005D0210925C0210925E028DE20E94BB26E5
:1028A00010928602F8948091C1008F7B8093C100C2
:1028B000789400000E94A71F882319F08CE20E94E0
:1028C000BB2680915302882341F0815080935302AC
:1028D000811103C088E30E94BB2680915802909129
:1028E0005902009771F00197909359028093580212
:1028F000892B39F482E00E94320A10925A02109217
:10290000FA0380916E028F5F80936E02803309F02C
:102910004FC08CE30E94CD2680919F02882319F03E
:10292000815080939F0280912602882309F45FC022
:1029300080910901833611F0811159C080914F02B5
:1029400090915002883522E0920758F49C012F5F45
:102950003F4F8735924009F443C030935002209393
:102960004F0280914E02863020F480914D028431D6
:1029700010F00E94C90A80912502882339F0815005
:1029800080932502811102C00E94C90A809126020B
:10299000811132C080914B0290914C02019690932C
:1029A0004C0280934B02813B944050F10C94C90A35
:1029B000843311F48EE3AECF883311F48BE3AACFC6
:1029C0008C3311F48AE3A6CF803508F4A5CF80912B
:1029D000260210926E02882309F49ECF8FE39ACFCD
:1029E0001092500210924F020E94C90ABACF109260
:1029F000500210924F02B5CF10924C0210924B022F
:102A0000089580918502882309F457C08BE20E94C3
:102A1000BB268091F903882329F086E70E94BB2614
:102A20001092F90380912602882309F455C0809101
:102A30005502882309F450C080916C0290916D0278
:102A40000196883823E1920708F03CC090936D020C
:102A500080936C0280915E0290915A02882309F45F
:102A6000A8C020916B0282136AC091116AC08D3296
:102A700031F09AE8980F44EF51E0923010F440EEB4
:102A80005EE29CE8980F923010F44CED55E02091F6
:102A9000690230916A022F5F3F4F2417350708F50E
:102AA00030936A02209369021092680210926702C2
:102AB00080915E0280936B0208950E94F92181113A
:102AC000A5CFA7CF10926D0210926C0284E0809384
:102AD00085020E94F60ABECF10926D0210926C021F
:102AE000B9CF10926A02109269028E3929F18833A7
:102AF00001F191ED980F9230E0F09BEC980F92303D
:102B0000C0F090EC980F9A30A0F095EB980F9832A7
:102B100080F010925B020E94B20A10925D02109245
:102B20005C028EE980935E02109252060E940A1E99
:102B3000BBCF80935B02EFCF0E94C90AB5CF992328
:102B4000C1F180918502811134C0F8948091930580
:102B5000909194057894209167023091680228172B
:102B6000390720F49093680280936702809167028E
:102B7000909168020A9708F49BCF80916902909126
:102B80006A020196843F21E0920728F490936A023A
:102B9000809369028DCF10926A021092690281E0DF
:102BA0000E94320A10926802109267020E94C90ABB
:102BB0007FCF10926A0210926902992309F474CFB0
:102BC00077CF3F924F925F926F927F928F929F92B8
:102BD000AF92BF92CF92DF92EF92FF920F931F932B
:102BE000CF93DF93CDB7DEB7E1970FB6F894DEBF92
:102BF0000FBECDBF9091C007809156022091550223
:102C0000822B2091FA03822B20915A02822B209151
:102C10005E02822B20916002822B81F480919205CA
:102C200081110CC08091C10086FD08C08091840292
:102C3000882321F02091850281E0211180E09932E2
:102C400041F010E09A3209F078C081118FC08AE219
:102C500003C0811104C089E20E94BB2664C0809138
:102C60001E029091EC07892B90919402892B9091F0
:102C7000ED07892B81F70E94D72D882361F38AE223
:102C80008093AF0530EBE32E35E0F32E45E0D42EF4
:102C900053E2C52E6AE0B62E809195038D9DC0014A
:102CA000112408960E947D2D182F809195031F3FB7
:102CB00079F18D9DC001112448ECB70108960E945E
:102CC000CC278701080F111DF801C0827801F2E0BE
:102CD000EF0EF11CF801B182809195038F5F809314
:102CE000950398012D5E3F4F2F54364058F4883C91
:102CF00098F2F801128284E70E94BB2681E080935B
:102D00001E0211C0883CA8F789E20E94BB26F1CFC1
:102D10008F5F80939503883C08F4BECFFFEAEF16DF
:102D2000F5E0FF0611F41FEF08C0F701108284E7F9
:102D30000E94BB2681E080931E02812FE1960FB690
:102D4000F894DEBF0FBECDBFDF91CF911F910F91E1
:102D5000FF90EF90DF90CF90BF90AF909F908F90BB
:102D60007F906F905F904F903F90089580911E02EA
:102D70009091EC07892B90919402892B9091ED070B
:102D8000892B09F064CF0E94D72D882309F45FCFE7
:102D90001092AF058FEAE82E85E0F82E95E0392EE7
:102DA0005E01F5E1AF0EB11CCE0186964C0129ED16
:102DB000422E21E0522EFE0131966F0100919503C3
:102DC000083C38F0FFEAEF16F5E0FF0609F093CF74
:102DD000AACF602E712C039D80011124085F1F4F24
:102DE000C8010E947D2D8F3F09F465C08FEF681ADE
:102DF000780A41E1B501C8010E94CC27F501019094
:102E00000020E9F73197EA19FB09B501EA3018F01B
:102E100039976E0F7F1FC4010E948F329F928F924D
:102E20007F926F925F924F92DF92CF920E94D9323F
:102E3000F60101900020E9F73197EC19FD09EE0D3C
:102E4000FF1D0FB6F894DEBF0FBECDBFEF54F640A6
:102E500028F1EFEAEE16E5E0FE06A1F4B6018FEAEE
:102E600095E00E948F328AE20E94BB2684E70E948E
:102E7000BB2681E080931E02809195038F5F809333
:102E8000950351CF8AE20E94BB2684E70E94BB26AD
:102E900081E080931E02F701108245CFB601C70181
:102EA0000E948F32F60101900020E9F73197EC196A
:102EB000FD09EE0EFF1E809195038F5F80939503B1
:102EC0007DCF08950E944F1C0E94BE090C94F81CEF
:102ED000CF93DF930F92CDB7DEB78091EC0790913F
:102EE0009402892B9091ED07892B59F50E94D72DDB
:102EF000882339F1198291E080919E02811101C0ED
:102F000090E081E04091EB035091EC036091ED0380
:102F10007091EE03452B462B472B09F480E0981760
:102F200011F081E0898385E090E00E947D2D9981F8
:102F3000891739F041E065E070E0CE0101960E940A
:102F4000A2280F90DF91CF9108950E9462170E94EE
:102F500014148091CA03882331F081508093CA03EE
:102F60008111B3C0409A80917F02909180020097B6
:102F700039F001979093800280937F02892B11F49E
:102F8000109281028091370290913802892B49F08A
:102F90008091370290913802019790933802809384
:102FA000370280913F028823F1F080913D02909199
:102FB0003E020097C1F0019790933E0280933D023C
:102FC000892B89F466E973E08CEA92E00E948F32E3
:102FD00060EE71E08FEA95E00E948F3284E70E94F4
:102FE000BB2610923F0280912102882309F413C16D
:102FF00080916602811111C080912602882369F0B8
:1030000080916402909165028A3F910508F05FC04B
:10301000019690936502809364028091C007882393
:1030200009F488C09CE8980F923008F07CC0909119
:103030007D02981378C080917B0290917C02863942
:10304000910508F048C0019690937C0280937B0222
:1030500080915502882309F45FC080917502909198
:1030600076028C3221E0920708F067C001969093B7
:1030700076028093750280914602882309F48AC003
:1030800080914402909145028436910508F073C006
:10309000809144029091450201969093450280935D
:1030A000440280913002882309F48FC080912F025E
:1030B000823008F480C0409A80912F028F5F863062
:1030C00008F07BC080932F02089540984CCF8FEF7B
:1030D00080936602A2CF65E784E70E94E126809193
:1030E0007702909178028F3F980729F0019690938C
:1030F00078028093770283E30E94CD2610928102AA
:103100001092800210927F0210927C0210927B0239
:1031100010927D0210925502109276021092750262
:1031200010927402A8CF80937D0210927C021092BC
:103130007B028ECF10927D02F8CF10927602109211
:1031400075020E948303109255021092540210924D
:10315000920510921E02809174028F3F29F4109202
:1031600074020E94C90A87CF8F5F809374028330F4
:1031700008F481CFF4CF8FEF80934302F89488E175
:1031800098E00FB6F894A895809360000FBE9093D6
:103190006000FFCF8091410290914202892B09F497
:1031A00080CF809141029091420201979093420218
:1031B0008093410276CF40987FCF10922F0280916A
:1031C000300281508093300208958091260281114F
:1031D00002C0409819C08091CA038111FACF809132
:1031E00009018031A8F4809163028F5F823370F40B
:1031F0008093630280916302883259F38B3249F3E2
:103200008E52843030F3409A0C94681781E0F0CFEE
:1032100010926302EFCF1092660210926502109234
:103220006402FBCE0E94EE1C0E9401150C944728FC
:10323000F89480916E008D7F80936E0078940000EA
:1032400080912A02811109C0F89480916E008260F9
:1032500080936E0078940000089510922A02809165
:103260002902882329F081E0809328021092290204
:10327000F89480916E00826080936E0078940000D4
:103280008091280280FF34C08091620291E0980F03
:10329000893079F1909362020000F89400B601FE43
:1032A00026C08091C1008F778093C100789480916F
:1032B000930590919405892B11F18091A3058F5F5F
:1032C0008093A3058333D8F0439A8091C1008F7710
:1032D0008093C10080B78D7F80BF1092FC03109255
:1032E000FB0310929105109290051092F8037894C8
:1032F00008951092620283E080932802CDCFF89463
:103300008091C10080688093C10078940000EFCF65
:10331000A89582E084BD83E085BD8FE387BDEEE69E
:10332000F0E080818260808383B7817F83BF0895CE
:103330001F93CF93DF9344E050E061E070E08BECAB
:1033400093E00E94972D8091CB0381508E3F00F136
:1033500081E48093EE078093CB0382E48093EF07B0
:103360008093CC0383E48093F0078093CD0384E4BF
:103370008093F1078093CE030E94D72D8823E1F339
:1033800044E050E061E070E08BEC93E00E949D2D02
:1033900085EF93E00E947D2D8F3F09F449C0809313
:1033A000000186EF93E00E947D2D8F3F09F44DC010
:1033B0008093060186E090E00E947D2D8F3F09F406
:1033C00051C08093050180EF93E00E947D2DD82F9E
:1033D00081EF93E00E947D2D182F82EF93E00E94F1
:1033E0007D2DC82F83EF93E00E947D2D282F9D2FE8
:1033F00091239C2398239F3F09F041C082E090E0F5
:10340000A0E0B0E08093010190930201A09303013A
:10341000B0930401109281021092800210927F02F8
:103420001092550210922102DF91CF911F910895C1
:1034300081E0809300010E94D72D8823E1F361E0B1
:1034400085EF93E00E94812DACCF81E0809306014F
:103450000E94D72D8823E1F361E086EF93E00E947C
:10346000812DA8CF81E0809305010E94D72D88236C
:10347000E1F361E086E090E00E94812DA4CF8C2FE3
:1034800090E0B0E0A0E0DC0199278827912B8D2BFC
:10349000B22B8093010190930201A0930301B0939A
:1034A0000401AC01BD0141505109610971094F3955
:1034B00056486140710508F0A1CF8F399648A14068
:1034C000B10509F0A7CF85E090E00E947D2D8F3FE8
:1034D00069F08170819580939E021092EB031092A7
:1034E000EC031092ED031092EE0394CF10929E0223
:1034F000F4CFEF92FF920F931F93CF93DF93CDB74B
:10350000DEB761970FB6F894DEBF0FBECDBF109146
:10351000C007143209F4DCC0B8F4133209F49EC0B9
:10352000133008F054C0123021F110E0812F619661
:103530000FB6F894DEBF0FBECDBFDF91CF911F91C4
:103540000F91FF90EF900895183228F4153209F486
:1035500009C11FEFEBCF183241F78091EC07909132
:103560009402892B9091ED07892B09F44FC188E2D1
:103570000AC08091EC0790919402892B9091ED07FD
:10358000892B21F082E00E94BB26E3CF0E94D72D39
:103590008823C1F381E48093EE078093CB0382E418
:1035A0008093EF078093CC0383E48093F0078093AC
:1035B000CD0384E48093F1078093CE0364E081E03F
:1035C00090E00E94C52883E38093CA03C2CF809114
:1035D000EC0790919402892B9091ED07892B11F0C3
:1035E000812FD1CF0E94D72D8823D1F30DEF010F6A
:1035F00040E250E06FEF70E08EEE97E00E9469329B
:10360000011120C081E48093EF078093CB0382E413
:103610008093F0078093CC0383E48093F107809339
:10362000CD0384E48093F2078093CE031092F307D6
:1036300010929E021092EB031092EC031092ED0395
:103640001092EE0360E220E2029FC00111240E946A
:10365000C52881E0810F0E94BB26B5CF0091EC0701
:1036600080919402082B8091ED07082B11F083E2E2
:103670008ACF0E94D72D8823D1F3F12CE12CC701EA
:103680000E947D2DF701EE52FF4FE4918E130FEF54
:103690008FEFE81AF80A96E0E916F10481F728E0BE
:1036A000E22EF12CC7010E947D2D182F8F3F51F47F
:1036B000EFEFEE1AFE0AF0EFEF16F3E0FF0691F7D8
:1036C000002311F083E05FCF0E949819409A2ECF1B
:1036D0001091EC0780919402182B8091ED07182B24
:1036E00011F084E250CF0E94D72D8823D1F36FECE4
:1036F00073E0CE0101967C010E948F32F7010190A8
:103700000020E9F7BF01615071094EEE57E0C70193
:103710000E94252780910001813091F098E0E92EE8
:10372000F12CB7018EEE97E00E94F027811114C0B2
:10373000F5E0EF0EF11C20EFE21623E0F20689F728
:1037400080910601882309F404CF80910001813023
:1037500029F40E940807FDCE1FEFF2CF112309F4D0
:10376000F8CEF7CF8091EC0790919402892B90913D
:10377000ED07892B11F085E206CF0E94D72D882313
:10378000D1F367EA73E0FB0101900020E9F7BF0184
:10379000615071094EEE57E087EA93E00E942527B9
:1037A00008E010E0B8018EEE97E00E94F02781114A
:1037B000D0CE0B5F1F4F003FF3E01F0799F767EA7A
:1037C00073E0FB0101900020E9F7BF01615071092E
:1037D0004EEE57E087EA93E00E94252788E0E82E26
:1037E000F12C09C025E0E20EF11C80EFE81683E021
:1037F000F80609F4AECEC7010E947D2D182F8F3F29
:1038000089F765E0C7010E94C52890CE0E94D72D98
:10381000882309F4ACCE67EA73E0FB010190002035
:10382000E9F7BF01615071094EEE57E087EA93E076
:103830000E94252708E010E0B8018EEE97E00E9474
:10384000F027882379F01092A7034EEE57E068EA3C
:1038500073E087EA93E00E94252765E0C8010E9493
:10386000C52877CE0B5F1F4F003FF3E01F0721F7FE
:1038700070CE0E945010811106C00E94791A8111E9
:1038800002C00E94E1150C94F926E82FF0E0EF51F8
:10389000FC4F9081907F81E009F080E00895909145
:1038A000EA03892F8D7F8093EA038091E103807F73
:1038B00090FD56C081114BC08091F3039091F403A9
:1038C000A091F503B091F6034091EF035091F003FE
:1038D0006091F1037091F20384179507A607B7076B
:1038E00098F40196A11DB11D8093F3039093F40306
:1038F000A093F503B093F603481759076A077B07AF
:1039000019F481E08093EA038091EA039091F70330
:10391000891781F08093F703982F92609093EA03C0
:1039200080FD53C01092F3031092F4031092F5033C
:103930001092F6038091E003882341F09091EA030E
:103940009D7F9093EA0381508093E0030895109245
:10395000F3031092F4031092F5031092F603D4CF00
:10396000882351F18091E6039091E703A091E80349
:10397000B091E9034091E2035091E3036091E403C5
:103980007091E50384179507A607B70708F0BCCF29
:103990000196A11DB11D8093E6039093E703A093C8
:1039A000E803B093E903481759076A077B0709F052
:1039B000ABCF1092EA03A8CF1092E6031092E70370
:1039C0001092E8031092E9039FCF1092E603109241
:1039D000E7031092E8031092E903ACCF8091E10372
:1039E000189B869581601899880F8093E10308954C
:1039F000CF93DF93CDB7DEB728970FB6F894DEBF2D
:103A00000FBECDBF8091EB039091EC03A091ED032D
:103A1000B091EE0320919E020097A105B105A1F09F
:103A20000197A109B1098093EB039093EC03A09354
:103A3000ED03B093EE03892B8A2B8B2B29F481E0C5
:103A4000211180E080939E0280919E02882309F4D8
:103A50004BC080918202811147C0809139029091C0
:103A60003A02A0913B02B0913C028F3F2FEF9207A8
:103A7000A207B207C9F19C01AD012F5F3F4F4F4F25
:103A80005F4F29833A834B835C83209339023093C1
:103A90003A0240933B0250933C02CA01B9012AE02A
:103AA00030E040E050E00E94312F6D837E838F83B1
:103AB0009887672B682B692BB9F468EF73E08981CD
:103AC0000E94D42869EF73E080913A020E94D428C2
:103AD0006AEF73E080913B020E94D4286BEF73E0A1
:103AE00080913C020E94D42880919E0280938202A1
:103AF000882369F08091390290913A02A0913B02AB
:103B0000B0913C028032914AA740B10510F05D9817
:103B100001C05D9A28960FB6F894DEBF0FBECDBFE8
:103B2000DF91CF91089584E190E0A0E0B0E0809330
:103B3000E2039093E303A093E403B093E50380933F
:103B4000EF039093F003A093F103B093F20388EF97
:103B500093E00E94A72D462F572FBC014F3F8FEFB8
:103B600058076807780749F04093390250933A02A2
:103B700060933B0270933C020895109239021092B8
:103B80003A0210923B0210923C0208951092F70301
:103B90001092EB031092EC031092ED031092EE03DF
:103BA0008EE18093E003089590938F0580938E05B6
:103BB0001092980510929705E0ECF0E08081806407
:103BC0008083F894E1ECF0E08081806480837894D5
:103BD00000008FEF809386020895CF93DF9321E456
:103BE0002093500624E520935106A2E5B6E0FC019F
:103BF00093E0981B892F8E0FED0124912D932111B5
:103C000007C09DE0988390E0DF91CF910C94D41D84
:103C10003196F0CFE0E5F6E081E4808384E58183AE
:103C200001900020E9F7CF01815596409927FC01CA
:103C3000E05BF94F2DE0208301960C94D41D78941D
:103C40002F932FB72F933F938F939F93EF93FF93D0
:103C5000209197053091980580918E0590918F0560
:103C60002817390788F0F8948091C1008F7B8093E2
:103C7000C10078940000FF91EF919F918F913F9147
:103C80002F912FBF2F911895329910C080919705D1
:103C900090919805FC01E05BF94F2081019690938B
:103CA0009805809397052093C600E5CF8FEF80930A
:103CB0008602E1CF8F938FB78F938091C1008F776A
:103CC0008093C10078948091C6000F924F931F9209
:103CD00011242F933F93EF93FF93AF93BF939F9341
:103CE00020919305309194058F3F09F4EFC0EDEFDB
:103CF000F3E0622F422F532F403991E0590708F02B
:103D0000D1C0452B21F48A3009F04BC02DC09091D1
:103D1000FD038D3009F59D30F9F09A30E9F090916E
:103D2000F803911119C091E890938502439AF89491
:103D30009091C1009F779093C10090B79D7F90BFF5
:103D4000789400001092FC031092FB0310929105EE
:103D5000109290051092F80321153105A1F2DF01B0
:103D600090819D3081F61DC09091F803911119C08A
:103D700091E890938502439AF8949091C1009F77BF
:103D80009093C10090B79D7F90BF789400001092EF
:103D9000FC031092FB031092910510929005109273
:103DA000F803A9010E2F1F2FB9016F5F7F4FE801A4
:103DB000C20FD31F00B601FE5FC04430510508F4A6
:103DC0005BC08A3009F058C09E0121503109D901E9
:103DD0009C919D3009F050C021503109D9019C912E
:103DE0009A3009F449C021503109D9019C919D3084
:103DF00009F442C0D80111969C9111979A30E1F5CF
:103E00009C919D30C9F5209190053091910530939A
:103E1000FC032093FB0370939105609390059091B0
:103E2000F8039F5F9093F80320919F053091A005C0
:103E30003093A2052093A10520919D0530919E0508
:103E40003093A00520939F0520919B0530919C0500
:103E500030939E0520939D052091FB033091FC0338
:103E600030939C0520939B052091900530919105FE
:103E700030939A052093990590919205992361F0CA
:103E80004330510549F4803239F49091FF039E3359
:103E900019F49FEF9093F90388839B01E60FF71FB6
:103EA00010820FC030E020E080E8809385021092FD
:103EB000FC031092FB031092910510929005109252
:103EC000F803C90130939405209393051092A3053C
:103ED0009F91BF91AF91FF91EF913F912F911F90D3
:103EE0004F9100B601FE08C0F8948091C10080682F
:103EF0008093C100789400000F908F918FBF8F91B5
:103F0000189583E08093C4001092C500E1ECF0E0C6
:103F10008081886180838BB18C7F8BB95198429866
:103F200043983B98089599B1892F887093FF0EC0EC
:103F3000109208011092940510929305519A8BB13A
:103F400083608BB93B9A439A429A8FEF0895809190
:103F500008018823B9F191E0980F90930801913AF4
:103F600039F1A8F49F30D9F030F49230D1F0933089
:103F7000E9F080E0089587528430D8F70E94931FBB
:103F800091E0811101C090E0892F819508959F3FB4
:103F9000A1F0953F98F7983C49F0973D51F7549818
:103FA000E8CF54980E94931F81110BC0549AE1CF1F
:103FB0001092840210928302DCCF81E0809308018A
:103FC000D8CF8FEF0895FC01DB01A350BC4F90E0E8
:103FD0004217130649F040F080E00CC02D91849107
:103FE000281305C031969F5F4913F8CF942F81E0C5
:103FF0004913F2CF08958FB7F8941092FC031092F2
:10400000FB0310929105109290058FBF08952F9297
:104010003F924F925F926F927F928F929F92AF9258
:10402000BF92CF92DF92EF92FF920F931F93CF93A5
:10403000DF93C8E047E0842E59E0952E63E0762EAA
:1040400078E0672EE5E15E2EF2E04F2EADE03A2EED
:10405000222423949FB7F8948091F803811128C0FB
:104060009FBFC091AE05CC2301F1C150C093AE05F6
:10407000D0E0CC55DA4F8881809385021882C091B8
:1040800085028C2FDF91CF911F910F91FF90EF90C0
:10409000DF90CF90BF90AF909F908F907F906F9068
:1040A0005F904F903F902F90089510928502E9CF36
:1040B000853008F084E0E82FF0E0EE0FFF1FE756B0
:1040C000FA4FC080D180118210828150E82FF0E039
:1040D000EE0FFF1FE756FA4F208131818093F803DE
:1040E0009FBFC216D306A8F58091AE058A3010F0A6
:1040F0009092AE0589010C191D0904501109760131
:1041000042E0E40EF11CC90183509C4FFC0133973F
:10411000B0803197A080F601E350FC4FD581EBE4ED
:10412000BE121BC0FFE4AF1245C10597FC018081A0
:10413000803209F45AC12630310508F456C1E091A5
:10414000AE0581E08E0F8093AE05F0E0EC55FA4F9E
:104150002082C15009F07ECF94CFD734A1F49801CA
:1041600046E0B70180EF93E00E94E31F882359F0F7
:10417000E091AE0581E08E0F8093AE05F0E0EC5546
:10418000FA4F3082E6CFFFE4AF1215C0980145E048
:10419000B7018AEE93E00E94E31F882361F0E0916B
:1041A000AE0581E08E0F8093AE05F0E0EC55FA4F3E
:1041B00044E04083CECF87E4B81215C0980147E0B1
:1041C000B70182EE93E00E94E31F882309F4F5C053
:1041D000E091AE0581E08E0F8093AE05F0E0EC55E6
:1041E000FA4F4082B6CFE4E4BE12E7C098014CE03B
:1041F000B70185ED93E00E94E31F882309F4DDC039
:10420000E091AE0581E08E0F8093AE05F0E0EC55B5
:10421000FA4F8CE080839DCFDD34A1F4980146E015
:10422000B70187EC93E00E94E31F882309F1E09136
:10423000AE0581E08E0F8093AE05F0E0EC55FA4FAD
:10424000508287CFD435A1F4980146E0B70180ECC5
:1042500093E00E94E31F882359F0E091AE0581E0CE
:104260008E0F8093AE05F0E0EC55FA4F608271CF6F
:10427000F5E4AF1214C098014AE0B70185EB93E072
:104280000E94E31F882359F0E091AE0581E08E0F74
:104290008093AE05F0E0EC55FA4F70825ACF45E4BA
:1042A000B41214C098014BE0B70189EA93E00E9470
:1042B000E31F882311F1E091AE0581E08E0F80931A
:1042C000AE05F0E0EC55FA4F908243CF89E5B81285
:1042D00014C0980144E0B70184EA93E00E94E31F10
:1042E000882359F0E091AE0581E08E0F8093AE05F2
:1042F000F0E0EC55FA4F80822CCFD53411F59801BF
:104300004BE0B70188E993E00E94E31F882309F49A
:1043100020CF4AE050E070E060E0C601855F9B4F2F
:104320000E94A6307093900260938F02E091AE05D8
:1043300081E08E0F8093AE05F0E0EC55FA4F45E03A
:1043400038CFD33509F005CF98014BE0B7018CE8A1
:1043500093E00E94E31F8823C1F04AE050E070E040
:1043600060E0C601855F9B4F0E94A63070938E026D
:1043700060938D02E091AE0581E08E0F8093AE05D3
:10438000F0E0EC55FA4F86E045CF980146E0B701E2
:1043900085E893E00E94E31F882309F4DACEE091D8
:1043A000AE0581E08E0F8093AE05F0E0EC55FA4F3C
:1043B0008EE030CFD73409F4D2CED93409F02CCFE7
:1043C000980146E0B7018EEC93E00E94E31F88233A
:1043D00009F44ECFE091AE0581E08E0F8093AE05DB
:1043E000F0E0EC55FA4F8AE015CFD73409F0CECE85
:1043F000B6CECF930E9407208823D9F08091850202
:10440000843021F0833111F0813089F4CFB7F894F2
:104410000E94FB1F439AF8948091C1008F7780938C
:10442000C10080B78D7F80BF78940000CFBF80919E
:104430008502CF910895FF920F931F93CF93DF933F
:104440008C01F801C081D181F8808F2D90E00E940D
:10445000DA31892BF1F48091CB03F8121FC09981D6
:104460008091CC0398131AC09A818091CD03981340
:1044700015C09B818091CE03981310C02496F8013B
:10448000D183C0838FEFDF91CF911F910F91FF9068
:1044900008952196F801D183C083D3CF80E0F3CF74
:1044A00044E050E06DE174E00E94EB319C0181E05A
:1044B000232B09F080E00895AF92BF92CF92DF9254
:1044C000EF92FF920F931F93CF93DF935C01C62F60
:1044D000D42FF50100811181F801808190E00E94C4
:1044E000DA31892B51F5FAE0CF9FC00111249C01EC
:1044F0002E5D3B4F7901CD17A0F4F701C490D12C6C
:10450000B7016F5F7F4FA601C8010E94EB31FAE04F
:10451000EF0EF11C892BB9F40C0D1D1DF501118353
:1045200000838C2FDF91CF911F910F91FF90EF901F
:10453000DF90CF90BF90AF9008950F5F1F4FF501B0
:1045400011830083C6CFCF5FD6CFEF92FF920F9338
:104550001F93CF93DF93EC018B01E880F9804AE051
:1045600050E0BC01C7010E94732FD8016D937D9369
:104570008D939C93139781E0288139812E153F05F7
:1045800009F480E0DF91CF911F910F91FF90EF90A0
:104590000895DF92EF92FF920F931F93CF93DF93D3
:1045A0008C01D62EF801C081D181E880F12CC701A1
:1045B0000E94DA31892BA1F48D2D90E00E94E33125
:1045C000E816F90691F42196F801D183C0838FEFA4
:1045D000DF91CF911F910F91FF90EF90DF900895A1
:1045E0002196F801D183C083DDCF80E0F1CFCF9257
:1045F000DF92FF920F931F93CF93DF93EC01F62E80
:1046000008811981F80181916F0190E00E94DA31EF
:10461000892B89F48F2D90E00E94E331982FF801C7
:1046200080810F5F1F4F882349F09813F8CF1983BB
:1046300008838FEF05C0D982C882E2CF9923B9F3EE
:10464000DF91CF911F910F91FF90DF90CF90089550
:10465000CF92DF92EF92FF920F931F93CF93DF934E
:10466000EC01E62ED72EF42E08811981F801808105
:1046700090E00E94DA31892B89F40E2D1D2DFE0C5D
:104680006801F01210C0F6011082DF91CF911F91E6
:104690000F91FF90EF90DF90CF9008950F5F1F4F25
:1046A00019830883E1CFE881F981E0808E2D90E0C5
:1046B0000E94DA31892B39F7F801E1928F01EE205F
:1046C00011F388819981019699838883D9CF8F923C
:1046D0009F92AF92BF92CF92DF92EF92FF920F9391
:1046E0001F93CF93DF93CDB7DEB764970FB6F894DF
:1046F000DEBF0FBECDBF7C016B01042FF701A08090
:10470000B180F501808190E00E94DA31892B09F0B7
:1047100049C010E04501F50181915F01882349F00E
:10472000143138F48032B1F30E9413278D3009F030
:1047300040C0512F1A3008F059E0812F193008F489
:1047400089E08950990BA1E0B0E0AC0FBD1FA80F24
:10475000B91FC60130E020E00150110B251718F4F5
:1047600020173107BCF1F601E50FF11D1082F601AB
:104770008081882321F0F701808291828FEF6496F7
:104780000FB6F894DEBF0FBECDBFDF91CF911F9162
:104790000F91FF90EF90DF90CF90BF90AF909F90E0
:1047A0008F9008958FEFA81AB80AF701B182A082FE
:1047B000A5CFF5013197808190ED980F9A3008F0E0
:1047C000A9CFE1E0F0E0EC0FFD1FE10FF11D8083C8
:1047D0001F5FA0CF4D91FC014193CF012F5F3F4F51
:1047E000BDCF9F92AF92BF92CF92DF92EF92FF9296
:1047F0000F931F93CF93DF9300D000D000D00F9280
:10480000CDB7DEB79F838E83E82EF92E82E3F701C2
:10481000AEEEB7E001900D928A95E1F78701F801BD
:104820008081902ED12E0F5F1F4F90E00E94DA31D1
:10483000892BA9F7CE0101965C01092D1D2D6C0174
:1048400094E0990EF80181918F01882349F090E05E
:104850000E94E331F50181935F019012F3CF8FEF56
:104860001D82882319F16FEF71E0C6010E94863224
:10487000892BE1F466E971E086E993E00E94A532B4
:10488000892BA1F010E1812F27960FB6F894DEBF97
:104890000FBECDBFDF91CF911F910F91FF90EF9091
:1048A000DF90CF90BF90AF909F900895CE01069675
:1048B0000E941B22282F8E819F81211107C00E94F8
:1048C0005022182F8823F9F21BE0DDCF8C01F8016C
:1048D00081918F01811110C04AE160E0CE010696FE
:1048E0000E945C22182F8A3108F043C2E82FF0E0C2
:1048F000E158F94C0C94532F90E00E94E331F801F9
:1049000031978083E4CF0F5F1F4F1F830E830E818B
:104910001F81F801808190E00E94DA31892B99F79C
:1049200030E020E0C8018E199F098251984FFC01A8
:10493000E20FF31F40815FEB540F5A3128F04053D0
:104940004A3010F012E09FCF2F5F3F4F24303105E7
:1049500071F7FC0140815181628173814093CB03E7
:104960005093CC036093CD037093CE0344E061E099
:1049700070E00E94A22813E086CF4EE067EA73E061
:10498000CE0106960E94672381117DCF0E811F8183
:10499000F801808190E00E94DA31892B69F443E0CC
:1049A00050E069E174E0C8010E94133218E0892BDD
:1049B00009F469CF16E067CF0F5F1F4F1F830E8387
:1049C000E5CF4EE067EA73E0CE0106960E946723CA
:1049D000882309F4B7CF85E20E94BB26CCCF4EE0F6
:1049E00067EA73E0CE0106960E946723882309F4E4
:1049F000A9CF88E2F1CF47E168E0CE0106960E9498
:104A00005C22883071F481E08093000165EF73E0EF
:104A10000E94D4288FEF8093060166EF73E081E057
:104A20000EC08930C1F481E08093000165EF73E02E
:104A30000E94D4281092060166EF73E080E00E9485
:104A4000D4281092050166E070E080E00E94D4282E
:104A50000E94FC0690CF863191F481E080930001A2
:104A600065EF73E00E94D4281092060166EF73E0B0
:104A700080E00E94D4288FEF8093050114C0853117
:104A800009F060CF81E08093000165EF73E00E9440
:104A9000D4281FEF1093060166EF73E081E00E94B7
:104AA000D4281093050166E070E081E0CFCF47E1A4
:104AB00068E0CE0106960E945C22883031F41092A4
:104AC000000165EF73E080E0A3CF893031F41092EC
:104AD000000165EF73E080E0ABCF863131F41092D6
:104AE000000165EF73E080E0BDCF853109F02ACF8A
:104AF0001092000165EF73E080E0C9CF19E0C3CEEA
:104B00000F5F1F4F1F830E830E811F81F801F080FE
:104B10008F2D90E00E94DA31892B91F7FF2009F464
:104B200011CF81E48093500684E5809351061F9352
:104B30000F9384E092E09F938F9382E596E09F939A
:104B40008F930E94D9320E940A1E8FEF80933F02FA
:104B50008CE291E090933E0280933D020F900F9083
:104B60000F900F900F900F9006CF0F5F1F4F1F8376
:104B70000E830E811F81F801808190E00E94DA315E
:104B8000892B99F743E050E065E174E0C8010E9489
:104B90001332892B21F4109292021DE074CE4EE064
:104BA0006EEA77E0CE0106960E9467231CE0882318
:104BB00009F469CE8FEF809392021EE064CEB601B5
:104BC000CE0106960E94A522882309F4BBCE8981D6
:104BD000482F5A816B817C818A019B010150110908
:104BE000210931090F3916482140310508F0AACEB4
:104BF000C0900101D0900201E0900301F090040107
:104C000040930101509302016093030170930401EA
:104C100060EF73E00E94D42861EF73E0809102019D
:104C20000E94D42862EF73E0809103010E94D4288F
:104C300063EF73E0809104010E94D4282FE9C2162B
:104C400026E8D20621E0E206F104C9F489819A81BE
:104C5000AB81BC818F399648A140B10581F065E0F8
:104C600070E08FEF0E94D42810929E021092EB0306
:104C70001092EC031092ED031092EE035D980E94E7
:104C8000FC061FE000CE0F5F1F4F1F830E830E81B7
:104C90001F81F801808190E00E94DA31892B99F719
:104CA00042E050E062E174E0C8010E941332892BB7
:104CB00021F58FE996E8A1E0B0E08093010190939F
:104CC0000201A0930301B093040160EF73E08FE948
:104CD0000E94D42861EF73E0809102010E94D428E1
:104CE00062EF73E0809103010E94D42863EF73E0C8
:104CF000809104010E94D428C2CF43E050E06EE0CE
:104D000074E0C8010E941332892B09F01BCE82E0A7
:104D100090E0A0E0B0E08093010190930201A093A5
:104D20000301B093040160EF73E0D2CF88E198E013
:104D30000FB6F894A895809360000FBE9093600022
:104D4000FFCF8FEF80931F0291E09093000180933B
:104D500006018093050166E973E08CEA92E00E9407
:104D60008F3267EF73E08FEA95E00E940C3284E7A0
:104D700033CE11E088CDE0ECF7E030E020E0919117
:104D8000911105C02054384FF901808308952F5F99
:104D90003F4F2A30310599F70895E0ECF7E030E015
:104DA00020E09191981761F0911105C02054384F7F
:104DB000F901808308952F5F3F4F2A30310589F72D
:104DC000089590E0E92FF0E0E054F84F2081281793
:104DD00070F0621760F0292F293028F01092C9076F
:104DE0009A3081F70895318131932F5FF5CF9F5F1E
:104DF000F7CFE0ECF7E08181819387E0E93CF807A9
:104E0000D1F71092C9070895E0ECF7E02AE02E0FE1
:104E10009191981710F0691720F42E13F9CF80E0C4
:104E200008958FEF08958B3261F030F4833259F09A
:104E30008A3229F48BE0089580538A3008F08DE09F
:104E400008958AE008958CE00895AF92BF92DF92B2
:104E5000EF92FF920F931F93CF93DF93182FEB01E5
:104E60007A0145E050E06FEF70E0C7010E946932BF
:104E70000C2F011B2197D12C023058F4DF91CF91D8
:104E80001F910F91FF90EF90DF90BF90AF9008952A
:104E9000D92E88810E941327182F1295107FFE01AA
:104EA00082915F010E941327812B013061F4E5019B
:104EB0008F6000E091E09D0DF701ED0DF11D808305
:104EC0000111E6CFDBCF22970250F4CFE82FF0E0BC
:104ED000EA5DFA4F84910895CF93DF939C01EB0133
:104EE0001882BC0180E0DB016F5F7F4F9C919F3F88
:104EF00019F0853009F04AC0A217B30709F44AC077
:104F0000642F70E090E0880F991F119748171906D9
:104F100044F4DB011197B7FDDB01B595A795A20F0E
:104F2000B31FEC918E2F8F708F3091F5E295EF705B
:104F3000F0E0EA5DFA4F84918883882319F0219686
:104F4000119781E011961197A217B307D8F0EC9151
:104F5000EF70F0E0EA5DFA4FE491E883EE2311F0A0
:104F600021968F5F841771F0EC91E295EF70F0E07D
:104F7000EA5DFA4FE491E9938F5F481719F02A1719
:104F80003B0709F71882DF91CF9108958F5FABCF70
:104F900080E0D8CF80E0F7CFFF920F931F93CF939D
:104FA000DF9300D000D00F92CDB7DEB78B01F42E87
:104FB00045E050E0BC01CE0101960E94972D4F2D97
:104FC000B801CE0101960E946C270F900F900F90B0
:104FD0000F900F90DF91CF911F910F91FF90089547
:104FE0000F931F93CF93DF93EC018B0188818F3F49
:104FF000F1F0CB010E947D2D8F3FC9F0C8010E94C6
:105000007D2D382F307F9991292F207F303FA9F0B7
:10501000203F99F032130BC08F709F708F3069F072
:105020009F3059F0891303C00F5F1F4FE7CF80E017
:10503000DF91CF911F910F9108958FEFF9CF0F93CB
:105040001F93CF93DF9300D000D00F92CDB7DEB780
:105050008B01FC0101900020E9F73197E81BF90B67
:10506000BC016E0F711DAE014F5F5F4F0E9425277F
:10507000B801CE0101960E94F0270F900F900F907B
:105080000F900F90DF91CF911F910F9108950F9383
:105090001F93CF930E94D72D882381F18091EC0735
:1050A00090919402892B9091ED07892B39F1C09151
:1050B00093020C2F10E08091EA079091EB07800F8C
:1050C000911F0E94A32CF801E251F84F908189139F
:1050D00001C0CF5F80919402C817A0F48C2F90E09C
:1050E000FC01E251F84F2091EA073091EB07608113
:1050F000820F931F0E942D2DC0939302CF911F9179
:105100000F9108958091EC071092EC078093940220
:105110002EEE37E0F901882379F39E2F921B981722
:1051200070F080912008909121089093EB07809374
:10513000EA076091EE070E942D2DC0E0DDCF90A51B
:105140009193EBCF1F93CF93DF93162FD72FC42FBD
:105150004423B9F050E0BC018EEE97E00E9460322B
:105160001093EA07D093EB0710929302C093940236
:105170006091EE07812F9D2FDF91CF911F910C94AD
:105180002D2DDF91CF911F910895662361F08093BB
:10519000EA079093EB071092930260939402609158
:1051A000EE070C942D2D08951F93CF93DF93182FA6
:1051B000D62FC72F862F972F0E947D2D811799F00C
:1051C0001093EE07D093EA07C093EB071092930277
:1051D00081E080939402612F8D2F9C2FDF91CF91DE
:1051E0001F910C942D2DDF91CF911F9108950F9356
:1051F0001F93CF93DF93CDB7DEB728970FB6F89400
:10520000DEBF0FBECDBF8C0119821A821B821C82A9
:105210000E947D2D8983C80101960E947D2D8A837D
:10522000C80102960E947D2D8B8389819A81AB8172
:10523000BC81BC01CD0128960FB6F894DEBF0FBE2D
:10524000CDBFDF91CF911F910F910895DF92EF9223
:10525000FF920F931F93CF93DF939B01DC01DD91AE
:10526000D41710F0DFEFD40FF22EE32E70E0D12C24
:1052700060E0C0E887E090E07D130CC0F901E70F23
:10528000F11D1082DF91CF911F910F91FF90EF9050
:10529000DF9008954D2D50E0EC91F0E00C2F10E0E0
:1052A00000951095E023F12302C0EE0FFF1FDA9462
:1052B000E2F7E60FF11DE95BF94F64910F2D1E2D0A
:1052C000F80161938F017F5FF72FF770DF2E89F070
:1052D000ED91EC23F0E07C01E41AF50A02C0F595AB
:1052E000E795EA94E2F76E2FC695C058F02EE12EAE
:1052F000C3CF60E0C0E8FACFCF92DF92EF92FF9287
:105300000F931F93CF93DF93EC01DB01461B570BE9
:10531000FC014193CF01415020E030E06FE770E0A5
:1053200057E00FEF10E0341738F148814770D9F09B
:10533000A30FB11DEC91F0E0E95BFA4F34914FE718
:1053400050E0022E02C0440F551F0A94E2F7E32FEB
:10535000F0E0E423F52302C0F695E7952A95E2F7FD
:10536000DC01ED93CD01DF91CF911F910F91FF9063
:10537000EF90DF90CF9008956D01C30ED11CF60120
:10538000F080EF2DF0E0E95BFA4FE4917B01022E13
:1053900002C0EE0CFF1C0A94E2F7F0E0EE22FF22BE
:1053A000022E02C0F694E7940A94E2F7F601F18027
:1053B000EF2DF0E0E95BFA4FE491F52EF21A680167
:1053C0000F2C02C0D694C7940A94E2F7EC2101C0D6
:1053D000EE0FFA94EAF7EE2AFC01E192CF012F5F7B
:1053E000273011F43F5F20E03F5F9DCF9A01FC0121
:1053F000640F752F711D2617370709F408958081F2
:105400008A3370F48053982F9295907F81818A33EC
:1054100048F48053890FD9018D939D013296EBCFCB
:105420008753F1CF8753F6CF1F93CF93DF93DC01E0
:10543000FB019A018C91873C50F010828FEFD901CB
:105440008C9390E080E0DF91CF911F910895EA0165
:105450001882CC91D0E02196CA0FDB1F88818B7F08
:1054600019F08FEFDA018C935981513130F7DE0159
:1054700013968A81982F9F7E61E0913809F060E051
:10548000813911F48BE281937E2F1F2F80E010C0B1
:105490009C91442311F0929511969F70905D61113B
:1054A00001C090E3C72FD12F99938F5F7C2F1D2FC1
:1054B000482F41708513ECCFE80FF11D1082411188
:1054C00001C0119712968C911297882319F08FEFD3
:1054D000E9018883CD010396B6CFFC018081A82F16
:1054E000AF709AE082958F70A99F800D1124DB0127
:1054F0008C938181682F6F7082958F70699F800D6A
:105500001124DA018C938281482F4F7082958F701D
:10551000499F800D1124D9018C93CF0103960895E2
:10552000FC018081A82FAF709AE082958F70A99FAF
:10553000800D1124DB018C938181682F6F7082951F
:105540008F70699F800D1124DA018C938281482F1E
:105550004F7082958F70499F800D1124D9018C93D3
:10556000CF0104960895CF93DF93DC01FB01808186
:105570008B3291F4319681E9EF0109900020E9F72F
:1055800021979E012E1B3F0BCE1308C0FD011192E7
:10559000CF01DF91CF91089581E8EECF2C93AD013B
:1055A0004E5F5F4F11968C93C9019927019695958F
:1055B0008795D82F742FC52F60E06D1303C0840F1B
:1055C000951FE7CF208120533181332359F0329644
:1055D0003295307F232BA72FBC2F2D936F5F7A2F0F
:1055E000CB2FEBCF3196206FF6CF1F93CF93DF9366
:1055F000EC01DB018C91811107C0FE011192CF01FA
:10560000DF91CF911F91089541E88B3211F41196EB
:1056100041E9FD0101900020E9F73197CF018A1B94
:105620009B0B9927019695958795182F21E0280FB8
:1056300028839E012E5F3F4F4983722FC32F60E066
:10564000161303C0820F931FDBCF4C91405311966A
:105650005C911197552359F012965295507F452B26
:10566000E72FFC2F41936F5F7E2FCF2FE9CF11964D
:10567000406FF6CF0F931F93CF93DF93162FD72F43
:10568000BA01C22F0E94F52AFC0181E180831182B8
:10569000612F7D2FCF0102960E94B32AFC01C083A7
:1056A00001838AEA8283CF010396DF91CF911F9114
:1056B0000F910895CF93DF930F92CDB7DEB7DC0142
:1056C000CB01282F261B241720F00F90DF91CF91BC
:1056D0000895FC0181919F01982F907F9983929565
:1056E0009983E981F0E0EA5CFA4FE491EC938F70E2
:1056F000E82FF0E0EA5CFA4FE4911196EC931197F1
:105700001296C901DECF1092CD0087E08093CC00C5
:1057100082E08093C80088E18093C90086E080938E
:10572000CA00239A24982C9A08959091C80095FF56
:10573000FCCF8093CE0008958091C80087FFFCCFF6
:105740008091CE0008958091C800881F8827881F07
:105750000895CF93DF93EC018991811103C0DF910C
:10576000CF9108950E94952BF7CFCF93DF9380912F
:105770009D02813061F48091C80087FF1BC00E94A8
:105780009C2B80939C0282E080939D0210C082300B
:1057900089F48091C80087FF0DC00E949C2B9091D6
:1057A0009C020E947D2D0E94952B10929D02DF91FC
:1057B000CF91089580919B02813061F48091C8005F
:1057C00087FF4BC00E949C2B80939A0282E08093BB
:1057D0009B02EDCF823051F48091C80087FF3DC01D
:1057E0000E949C2B8093990283E0F1CF8330A9F52E
:1057F0008091C80087FF31C00E949C2B682F909138
:105800009A02809199020E947F2D80919502909139
:105810009602A0919702B09198020196A11DB11D28
:105820008093950290939602A0939702B09398026A
:1058300010929B020097A140B10508F4B8CF1092D6
:10584000950210929602109297021092980289E1A6
:1058500092E0DF91CF910C94A92B8091C80087FF33
:10586000A6CF0E949C2B8435E1F160F4823559F17A
:105870008335D1F1C1E0D0E08334A1F0DF91CF9145
:105880000C94952B873509F1C1E0D0E08336B1F750
:10589000CE010E947D2D0E94952B2196C530D10509
:1058A000B9F785CF0E949C2B682FCE010E947F2DD7
:1058B0008FEF93E20197F1F700C000002196C53009
:1058C000D10581F7C4CF81E05FCF81E080939B0257
:1058D00010929502109296021092970210929802DE
:1058E00066CF84E192E0B5CF80910901C7CF84EA09
:1058F0008093BC008091BC0087FFFCCF8091B900F1
:10590000887F089584E98093BC008091BC0084FD69
:10591000FCCF08958093BB0084E88093BC00809105
:10592000BC0087FFFCCF8091B900887F089588B1C3
:10593000806388B987B18F7C87B981E08093B80094
:105940001092B9000895CF93DF93EC010E94772C59
:10595000883029F580EA0E948A2C8831F1F48D2F55
:105960000E948A2C8C2F0E948A2C0E94772C8031D6
:10597000A1F481EA0E948A2C803479F484E880932F
:10598000BC008091BC0087FFFCCFC091BB000E948F
:10599000822C8C2FDF91CF9108950E94822CCFEF23
:1059A000F8CFEF92FF920F931F93CF93DF938C0169
:1059B000F62EE72EEA01209709F444C00E94772CC6
:1059C0008830C1F580EA0E948A2C883199F58E2DA5
:1059D0000E948A2C8F2D0E948A2C0E94772C803165
:1059E00049F581EA0E948A2C803421F5F801CE0124
:1059F00024EC0197A9F42197C00FD11F84E880936C
:105A0000BC008091BC0087FFFCCF8091BB008883E5
:105A1000DF91CF911F910F91FF90EF900C94822C0A
:105A20002093BC003091BC0037FFFCCF3091BB000D
:105A30003193DFCF0E94822CC00FD11F8FEF0C1744
:105A40001D0739F4DF91CF911F910F91FF90EF90D7
:105A50000895F80181938F01F2CF1F93CF93DF93C5
:105A6000D82F192FC62F0E94772C883071F480EA26
:105A70000E948A2C883149F4812F0E948A2C8D2F14
:105A80000E948A2C8C2F0E948A2CDF91CF911F912B
:105A90000C94822C0E94772C883039F480EA0E9482
:105AA0008A2C883121F40E94822C81E008950E9482
:105AB000822C80E00895EF92FF920F931F93CF9373
:105AC000DF93EC01CB018E01040F151FC017D10726
:105AD00039F4DF91CF911F910F91FF90EF900895CE
