:100000000C9462030C947F030C947F030C947F0385
:100010000C947F030C947F030C947F030C947F0358
:100020000C947F030C947F030C947F030C947F0348
:100030000C947F030C947F030C94EC030C947F03CB
:100040000C947F030C947F030C94761E0C947F0316
:100050000C943B1E0C947F030C947F030C947F0341
:100060000C947F030C947F030C947F030C947F0308
:100070000C947F030C947F030C947F030C947F03F8
:100080000C947F030C947F030C947F030C947F03E8
:100090000C947F030C947F030C947F030C947F03D8
:1000A0000C947F030C947F030C947F030C947F03C8
:1000B0000C947F033A00206F3A200057796B7279D5
:1000C000746F20737465726F77616E6965207A3A18
:1000D0002000FF4142434400000043444547484953
:1000E0004A352B6370696E3F00000000000000007D
:1000F0002B636E6D693D322C312C322C31002B6D0F
:100100006F72696E673D3100000000002B636C69FF
:10011000703D31000000000000002B646465743DF8
:10012000312C31302C3100002B63616C6D3D31007E
:100130000000000000002B6372736C3D3100000072
:10014000000000002B637573643D31000000000067
:1001500000002B637062773D32362C223122000082
:100160002B636C74733D30000000000000002B63B3
:100170006D69633D302C3135002B636D6764613DE3
:1001800036002B6370696E3D223139373622002BE1
:100190006966633D322C32002B63706D733D2253D0
:1001A0004D222C22534D222C22534D22002B6364CE
:1001B000736362002B63636C6B3F002B636F707320
:1001C0003F002B637062723D3236002B63726567AD
:1001D0003F002B637371002B7674733D3100610017
:1001E00068002B434D54493A002B636D67643D0012
:1001F0002B636D67723D002B636D67733D002B436E
:100200005553443A002B434D54493A002B44544D26
:10021000463A002B434C49503A003E002B434D4791
:10022000523A002B434F50533A002B435245473A22
:10023000002B4353513A002B4350494E3A2052452C
:10024000414459002B43434C4B3A00206F3A200065
:1002500057796B7279746F20737465726F77616E02
:100260006965207A3A20004E6F74696679204F4E96
:100270003A20004E6F74696679204F4646004E6FF3
:1002800074696679204F4646004E6F74696679201E
:100290004F4E3A2000303031414520426C6164209D
:1002A00050616D69656369007777772E736F6E664D
:1002B000792E706C00576C61637A79204F55542009
:1002C0006E613A200057796C61637A79204F5554FA
:1002D000207A613A200057796C61637A6F6E7920D9
:1002E00028426973746162696C6E79290A00576CDF
:1002F00061637A6F6E792028426973746162696CF8
:100300006E79290A00437A6173204F55543A2000D0
:100310002044544D460020534D530020534D53006C
:1003200020434C495000537465726F77616E696564
:100330003A20005075626C69637A6E790A005072D7
:10034000797761746E790A00547279623A200055A7
:100350007A79746B6F776E6963792000557A797456
:100360006B6F776E6963793A2000506F7A696F6DB1
:100370002047534D3A200041432D3230302D445414
:100380004D2D460A002B435553443A002B434D5301
:10039000204552524F523A002B434D452045525270
:1003A0004F523A0042555359004E4F204449414C58
:1003B000544F4E45004E4F20434152524945520042
:1003C0002B434D54493A002B44544D463A002B439D
:1003D0004C49503A004D4F20434F4E4E45435445F3
:1003E00044004D4F2052494E47004552524F520053
:1003F0002B434D47533A00547279622073657277EC
:1004000069736F777920616B7479776E79004F46E5
:1004100046004F4E00414C4C0043334434000443EB
:100420004F44450000000000034144440000000028
:1004300000000344454C00000000000004585858D8
:10044000580000000000065245504F525400000072
:1004500004555345520000000000044F50454E0023
:100460000000000005434C4F5345000000000443CA
:100470004C495000000000000444544D4600000068
:100480000000035345540000000000000454494D8F
:1004900045000000000006534B5259424100000045
:1004A00005444542554700000000035355420000F3
:1004B00000000000054D594E554D00000000045548
:1004C000535344000000000003434F4E000000005F
:1004D0000000024F4E0000000000000005544F478E
:1004E0004C4500000000035253540000000000007F
:1004F00008534D5320434C49500003534D530000C3
:1005000000000000045354414E0000000000045459
:100510004543480000000000035359530000000009
:100520000000303132333435363738392B2A232125
:100530002100303132333435363738394142434483
:100540004546003F3F3F3F3F3F3F3F3F3F0A3F3F22
:100550000D3F3F3F3F3F3F3F3F3F3F3F3F3F3F3FDD
:100560003F3F3F202122230225262728292A2B2C02
:100570002D2E2F303132333435363738393A3B3C33
:100580003D3E3F004142434445464748494A4B4C63
:100590004D4E4F505152535455565758595A3F3F4C
:1005A0003F3F113F6162636465666768696A6B6CAF
:1005B0006D6E6F707172737475767778797A3F3F6C
:1005C0003F3F3F3F3F3F3F3F3F3F3F3F3F3F3F3F3B
:1005D0003F3F3F3F3F3F3F3F3F3F3F3F3F3F3F3F2B
:1005E0003F3F3F3F403F0124033F5F3F3F3F3F3F8F
:1005F0003F3F3F3F3F3F3F3F3F3F3F3F3F3F3F3F0B
:100600003F3F603F3F3F3F5B0E1C093F1F3F3F3F67
:100610003F3F3F3F5D3F3F3F3F5C3F0B3F3F3F5EC4
:100620003F3F1E7F3F3F3F7B0F1D3F04053F3F077E
:100630003F3F3F3F7D083F3F3F7C3F0C063F3F7EB3
:100640003F3F3F40A324A5E8E9F9ECF2C70AD8F8F8
:100650000DC5E53F5F3F3F3F3F3F3F3F3F3F3FC609
:10066000E6DFC920212223A425262728292A2B2C8E
:100670002D2E2F303132333435363738393A3B3C32
:100680003D3E3FA14142434445464748494A4B4CC1
:100690004D4E4F505152535455565758595AC4D62F
:1006A000D1DCA7BF6162636465666768696A6B6C69
:1006B0006D6E6F707172737475767778797AE4F60F
:1006C000F1FCE00011241FBECFEFD8E0DEBFCDBFAC
:1006D00012E0A0E0B1E0E6E4F8E602C005900D9279
:1006E000AE31B107D9F728E0AEE1B2E001C01D920A
:1006F000A132B207E1F70E944E2C0C94F6330C9411
:100700000000109246021092450210924402089591
:1007100080915E0295EB980F8C5E943108F083E334
:100720000C94B5268091790290917A028F3F9807B8
:1007300029F0019690937A02809379028AE080935F
:10074000300210922F020E94810383E30C94B5269D
:10075000BC018AEF93E00C941C308FEF9FE8019767
:10076000F1F700C000008FEF9FE80197F1F700C09C
:1007700000008FEF9FE80197F1F700C000008FEFB6
:100780009FE80197F1F700C000008FEF9FE8019705
:10079000F1F700C00000A8950895809173028F5F63
:1007A000843618F480937302089510927302809136
:1007B000720291E0811190E090937202811102C067
:1007C00040980895409A08958091DE03807F11F447
:1007D000409A08954098089578940F920FB60F921A
:1007E0001F9211242F938F939F93EF93FF938091E8
:1007F00027028F5F80932702823128F01092270210
:100800008FEF809329024B9B57C000B601FC16C0A6
:1008100080918502811112C010929105109290056D
:100820001092A00580B7826080BFF8948091C100CB
:1008300080688093C10078940000459834992FC057
:10084000F8948091C10086FF29C08091C1008F7B00
:100850008093C1007894809186028823C9F08091AA
:100860008402811104C080915E028D3289F410925D
:1008700086028091940590919505FC01E35BF94F08
:100880002081019690939505809394052093C6004E
:10089000F8948091C10080648093C10078948FEFB8
:1008A00080932A02FF91EF919F918F912F911F903A
:1008B0000F900FBE0F901895459AF8948091C10043
:1008C0008F738093C10080B78D7F80BF78940000C4
:1008D000E6CF0F931F93CF93DF938C01DC01CD9173
:1008E000DC914DE050E067E773E0CE010E94DB2F22
:1008F0006AE673E0CE010D960E94EF2F8091090108
:10090000803210F5909126029923F1F06996B4E6B1
:100910008B9FC00111246FE170E00E94762DCB0106
:100920004AE0BE010E94A23009900020E9F7FE01D2
:10093000319785E281931082D801ED93FC93DF918A
:10094000CF911F910F9108958DE2898F8A8FFE01BB
:100950007C968B8FF0CFCF92DF92EF92FF920F9326
:100960001F93CF93DF938C01FC01C081D1814DE0B7
:1009700050E06CE573E0CE010E94DB2F2D9688E0FD
:10098000C82ED12CF12CE12CC6010E9471338F3F6F
:1009900019F0FFEFEF1AFF0A85E0C80ED11CE0EF57
:1009A000CE16E3E0DE0681F74AE0BE01C7010E94F1
:1009B000A23009900020E9F721978FE289934AE05D
:1009C000BE0188EC90E08E199F090E94A230099028
:1009D0000020E9F72197F801D183C083DF91CF91FF
:1009E0001F910F91FF90EF90DF90CF900895CF92DD
:1009F000DF92EF92FF920F931F93CF93DF938C01BF
:100A0000FC01C081D1814CE050E06FE473E0CE0185
:100A10000E94DB2F2C9688E0E82EF12CD12CC12CE3
:100A2000C7010E9471338F3F59F1C394F5E0EF0E77
:100A3000F11C80EFE81683E0F80691F74AE0BE016A
:100A40008C2D90E00E94A23009900020E9F72197B8
:100A50008FE289934AE0BE018D2D90E00E94A23082
:100A600009900020E9F72197F801D183C083DF9135
:100A7000CF911F910F91FF90EF90DF90CF9008954D
:100A8000D394D4CFAF92BF92CF92DF92EF92FF92E6
:100A90000F931F93CF93DF9300D0CDB7DEB78CEACF
:100AA00095E09A838983CE0101960E946904E981C9
:100AB000FA81CF0101969A8389831AE01083E98134
:100AC000FA811082CE0101960E94AB04E981FA817D
:100AD000CF0101969A8389831083E981FA8110827C
:100AE00068E473E089819A810E94EF2F89819A815D
:100AF00006969A838983209100016EE373E0222396
:100B000011F063E373E00E94EF2F89819A81FC0169
:100B100001900020E9F7CF0101979A83898366E26B
:100B200073E00E94EF2F89819A810C969A838983C2
:100B300020910601222309F46CC060E273E00E9458
:100B4000EF2F89819A81FC0101900020E9F7CF0104
:100B500001979A838983209105016BE173E021114C
:100B600060C0E981FA81CF0101969A8389838AE086
:100B70008083E981FA81108209811A81F80101904C
:100B80000020E9F78F01015011091A830983C090F1
:100B90000101D0900201E0900301F0900401FFE90F
:100BA000CF16F6E8DF06F1E0EF06F10409F046C0E3
:100BB00065E073E0C8010E94EF2F89819A810A964F
:100BC0009A83898320919B026EEE72E0211102C00C
:100BD00066ED72E00E94EF2F89819A81FC010190FD
:100BE0000020E9F7CF0101979A83898368EA72E0D0
:100BF00089819A810E94EF2F0F900F90DF91CF9102
:100C00001F910F91FF90EF90DF90CF90BF90AF902A
:100C100008952091050166E173E0211102C060E1B1
:100C200073E00E94EF2F89819A81FC0101900020DE
:100C3000E9F7CF0101979A83898393CF80919B0233
:100C400065EB72E0882391F06091E8037091E9030D
:100C50008091EA039091EB032AE030E040E050E01D
:100C60000E948A2D69017A0165EC72E0C8010E9438
:100C7000EF2FE981FA8101900020E9F7CF01019778
:100C80005C019A838983C701B60120E13EE040E020
:100C900050E00E948A2DCB016CE370E00E94622D2F
:100CA000F62E082F1AE0822F612F0E94562DE92E72
:100CB0004AE0B50190E00E94A23069817A81FB018F
:100CC00001900020E9F7BF01615071097A836983BF
:100CD0004AE08E2D90E00E94A230E981FA810190D5
:100CE0000020E9F7DF011197FA83E98388E68C9306
:100CF000E981FA81CF0101969A8389838AE3E82EFC
:100D0000E08229813A818F2D612F0E94562DF92E84
:100D10004AE0B90190E00E94A23069817A81FB012A
:100D200001900020E9F7BF01615071097A8369835E
:100D30004AE08F2D90E00E94A230E981FA81019073
:100D40000020E9F7DF011197FA83E9838DE68C93A0
:100D5000E981FA81CF0101969A838983E082298112
:100D60003A81802F612F0E94562D092F4AE0B90148
:100D700090E00E94A23069817A81FB0101900020FD
:100D8000E9F7BF01615071097A8369834AE0802FD6
:100D900090E00E94A230E981FA8101900020E9F7F9
:100DA000DF011197FA83E98383E78C93E981FA8164
:100DB000CF0101969A8389831083E981FA81108299
:100DC00015CF10929B021092E8031092E903109243
:100DD000EA031092EB035D98089580913702909199
:100DE0003802892BA1F58AE090E090933802809335
:100DF000370220910101309102014091030150918D
:100E000004012F3986E8380781E04807510581F44D
:100E100081E090919B02911180E080939B0210925F
:100E2000E8031092E9031092EA031092EB0308958D
:100E30008FEF80939B02AAE0B0E00E94B22D6093F6
:100E4000E8037093E9038093EA039093EB0308951A
:100E500080911F02811131C08091390290913A0234
:100E6000A0913B02B0913C0280349D40A340B1056B
:100E7000E0F480918C028E31C0F48D31F1F48091D8
:100E80008B02873090F48630C1F480918A028631DB
:100E900060F4853191F480918902883130F4873192
:100EA00061F480918802823240F08FEF80932002BB
:100EB00084E18093300210922F020895FF920F93E5
:100EC0001F93CF93DF93CDB7DEB766970FB6F89435
:100ED000DEBF0FBECDBF1092AA078FEF80934602F0
:100EE00010924502109244028AE097E00E94042486
:100EF000182F80914002811134C0809187021F9287
:100F00008F93809188021F928F93809189021F9204
:100F10008F9386E191E09F938F938AE091E09F9376
:100F20008F930E94BC30809187021F928F93809193
:100F300088021F928F93809189021F928F9385E27E
:100F400091E09F938F9387EC97E09F938F930E94FC
:100F5000BC308FE90E94A3260FB6F894DEBF0FBE07
:100F6000CDBF109240020E9428078091210281117A
:100F7000109221028CEF810F8230B0F480918102B7
:100F8000883090F00E9488030E9492030E9481039F
:100F900066960FB6F894DEBF0FBECDBFDF91CF913E
:100FA0001F910F91FF900895809155028111EACF12
:100FB000EDEBF7E047EC57E020E09191992329F021
:100FC0008F5F9457923008F42F5F4E175F07A9F791
:100FD0008332C0F62630B0F61131C0F6E12FF0E0D2
:100FE000E850FC4C0C94AC2D809105018823B1F1A4
:100FF00080910001813029F163E973E0FB010190E8
:101000000020E9F7BF0161507109AE014F5F5F4FEA
:1010100083E993E00E940E2708E010E0B801CE01BA
:1010200001960E94DB2781110CC00B5F1F4F003F10
:10103000F3E01F0799F781E08093300210922F02AE
:10104000A5CF809120028111F6CF63E973E08CEC8B
:1010500093E00E9472300E94ED06EDCF80911F0256
:10106000811117C00E94280780912002882389F0EF
:1010700065E972E08CEA95E00E94EF2F63E973E086
:1010800089EA92E00E94723084E70E94A32684E1FC
:10109000D3CF809181028F5F809381028CE291E0B7
:1010A0009093800280937F0263E973E089EA92E083
:1010B0000E9472300E94420584E70E94A32682E0CB
:1010C000BBCF809181028F5F809381028CE291E09F
:1010D0009093800280937F0263E973E089EA92E053
:1010E0000E94723064EA73E0FB0101900020E9F78E
:1010F000BF0161507109AE014E5E5F4F84EA93E01B
:101100000E940E2708E010E0B801CE0142960E942E
:10111000DB27F82E811139C00B5F1F4F003FF3E032
:101120001F0791F741E1BE016F5F7F4FCE014296ED
:101130000E945727BE016F5F7F4F8CEA95E00E94A7
:10114000723068E471E08CEA95E00E9453306BE401
:1011500071E0F11002C06EE471E08CEA95E00E944B
:10116000533084E70E94A32682E0809330021092DD
:101170002F028091E90790919402892B9091EA07C0
:10118000892B09F003CF8FB301CFFF24FA94CACF84
:1011900063E973E089EA92E00E9472306DE671E0E3
:1011A0008CEA95E00E94723087CF809181028F5F38
:1011B000809381028CE291E09093800280937F0281
:1011C00063E973E089EA92E00E9472301092920320
:1011D0008AE273CF63E973E089EA92E00E94723099
:1011E0001092920389E269CF63E282E00E94EC26CA
:1011F0008111CCCE89E18093300210922F0283E0DE
:101200000E94A326C3CE63E973E089EA92E00E94BC
:10121000723080919202882331F08091AB0769E8A7
:1012200072E0811118C06EE772E08CEA95E00E94CE
:10123000EF2F42CF63E973E089EA92E00E947230B7
:1012400063E772E0F2CF63E973E089EA92E00E941B
:10125000723067E672E08CEA95E00E94EF2F6BEA4D
:1012600077E08CEA95E00E94533026CF66E971E082
:1012700083E993E00E948830892B09F451C04091A2
:10128000390250913A0260913B0270913C02403425
:101290008DE0580783E068077105F0F580E49DE074
:1012A000A3E0B0E0841B950BA60BB70BBF93AF93E5
:1012B0009F938F931F9283E08F938DE08F9380E4B1
:1012C0008F937F936F935F934F931F9285E18F93DB
:1012D0001F9286E08F931F928DE18F9383EA91E0B6
:1012E0009F938F938CEA95E09F938F930E94BC30DD
:1012F00063E973E089EA92E00E94723084E70E9419
:10130000A32682E08093300210922F020FB6F89449
:10131000DEBF0FBECDBF3ACE80E090E0DC01C6CF8D
:1013200085E08ACE83E088CE809171029091E703B8
:1013300090FF06C0883C88F48F5F80937102089507
:10134000883C60F063E282E00E94EC26811103C0D9
:1013500083E00E94A3261092710208958233D8F38D
:1013600063E282E00E94EC268111F5CF82E0F1CFAA
:10137000CF93DF9380912002882341F080911F0258
:10138000811104C080E0DF91CF9108958091060122
:1013900081112FC0809105018111F4CF8091CC0380
:1013A000882319F084E20E94A326809100018130F5
:1013B00011F48FEFE8CF6CEC73E0FB01019000209B
:1013C000E9F7BF01615071094BEE57E08CEC93E0F7
:1013D0000E940E27C8E0D0E0BE018BEE97E00E948D
:1013E000DB278111E6CF2596C03FF3E0DF07A1F7A9
:1013F000C9CF8091CC03882319F084E20E94A326F0
:1014000081E090910001913009F080E08195BBCF9F
:101410008CE380936002109259021092580210924D
:101420005202109253021092470280917E0288234A
:1014300009F456C08091AB07882309F44FC06BEACA
:1014400077E089EA92E00E94723060E572E08CEA0F
:1014500095E00E94EF2F6CEC73E08CEA95E00E941F
:1014600053306BE472E08CEA95E00E94E42F8CEA42
:1014700095E0FC0101900020E9F7CF018D5A9540DD
:10148000FC01E455FA4F90910A019083E1E0E80FE6
:10149000F0E0E455FA4F90910B019083E2E0E80F01
:1014A000F0E0E455FA4F9AE39083E3E0E80FF0E0D0
:1014B000E455FA4F90910D019083E4E0E80FF0E0DD
:1014C000E455FA4F90910E0190838B5FE82FF0E086
:1014D000E455FA4F108284E70E94A32610927E0200
:1014E00008958CE38093600210921E02089510927A
:1014F000F703109259021092580210925D02109256
:101500005C0210925E0210928F058CE38093600261
:101510001092550208950E94770A10925D0210926F
:101520005C0210925E021092AB051092C5031092FD
:101530008F051092F60310925A0210921E0210921A
:10154000560208950E948B0A86E980930801109242
:1015500084021092830210924E0210924D02109259
:101560009E0210924C0210924B021092470210926F
:101570005B0283E68093090162E78FE50E94C9263A
:101580006FE38BE20E94C92669E480E40E94C926C9
:1015900066E784E70E94C92610922602089580918A
:1015A00085028D3051F41092540210921E02109256
:1015B000550286E48093600208958091850286300A
:1015C00059F5209154022F5F2093540280918D028F
:1015D00090918E02853032E0930761F08A3331E0DA
:1015E000930741F0833032E0930721F0805192401D
:1015F000029770F48CE38093600280915502223050
:1016000080F11092540210921E0210925502089519
:101610008CE380936002F5CF80918502843021F5C0
:101620008CE38093600210928F058091FC038E33CF
:1016300031F480919005909191050A9720F0809166
:101640005502811107C01092540210921E020E948E
:10165000A20ADBCF909154029F5F90935402923084
:1016600080F60E94A326D1CF809185028530B9F4FF
:1016700080918F02909190028A30910539F09C01FF
:101680002D7F2D30310511F04E9769F410925402E0
:101690008CE38093600210921E020C94A20A809147
:1016A00085028091850208950F931F93CF93DF9356
:1016B000D0918502C0915E02CF3309F4C7C008F013
:1016C00070C0C63309F429C238F5C03309F4C8C262
:1016D00088F4CD3209F4B4C0CF3209F437C1109286
:1016E0005D0210925C0210925E02DF91CF911F9119
:1016F0000F910895C33309F44DC1C53381F7D1303B
:1017000009F4B5C28091C6038F5F8093C60383300E
:1017100008F0ADC28C2F7BC1CA3309F49FC188F495
:10172000C73309F402C2C833D1F688E3D13009F0D7
:10173000F6C081E00E94080A10925A021092F70344
:10174000CECFCC3309F467C108F49CC1CE3339F64F
:10175000D13029F68AE292E00E94A803FC01892B8D
:1017600009F4BDCF27812C3209F06CC137968081F6
:101770008C3229F081818C3209F066C131964AE0C1
:1017800050E070E060E0CF0101960E94CC2D66230E
:1017900029F08DEF860F823008F058C10E94A20A0E
:1017A0009ECFCB3458F5C73408F0A9CFC23409F422
:1017B000A6CFE8F4C03409F494C0C13409F08FCF47
:1017C00080E3D13009F4ABC0D63009F002C180917A
:1017D0008D0290918E028A3321E0920721F08530AC
:1017E000924009F07CCF84E180936002D5C0C3347D
:1017F00009F4F1C0C53409F482CF71CFC33790F436
:10180000CF3508F4C2C1D63009F000C280918D02F4
:1018100090918E028134914009F4FBC18C2F0E947B
:10182000A326FCC1C73709F4FBC1CE3909F057CF55
:101830008AE192E00E94A803892B09F0AFCF5FCF25
:101840008EE20E94A3261092480249CFD13009F0BF
:1018500046CF84E492E00E94A803009709F43FCFAA
:1018600062E270E00E945E30009709F438CFEC012C
:10187000219662E270E0CE010E945E308C01892BDD
:1018800009F42DCF6CE270E0CE010E945E3000972B
:1018900009F425CFEC012196C017D10708F01FCF1E
:1018A0006AE370E0CE010E945E30009709F417CF22
:1018B0008017910708F013CFFE0101900020E9F78F
:1018C0003197EC1BFD0B389708F409CF88E0FE0137
:1018D000AAE0B1E001900D928A95E1F71092120111
:1018E000FECED13099F487E392E00E94A803892BC1
:1018F00059F08FEF809383021092910283E30E944C
:10190000A32610927002EBCE8FE2F9CFD53051F4BE
:1019100080918F02909190020E9731F480E40E94A2
:10192000A326DDCED43021F0809185028038B1F736
:10193000809170028F5F80937002843118F00E9452
:10194000A20ADFCF84E180936002E8CFD13061F456
:101950008FEF809383021092910283E30E94A3266B
:1019600082E380936002BBCED53079F480918F0200
:10197000909190028031910521F48FEF8093910234
:10198000AECE0E9721F48FE2CACFD430E1F380912E
:101990008502F9CFD13011F481E4C1CFD63089F47A
:1019A00080918D0290918E028A3321E0920721F07E
:1019B0008530924009F093CE8CE38093600283E3FC
:1019C000AECFD430E1F380918502803809F087CE24
:1019D000F6CF8AE009CFD13049F0D53081F480913B
:1019E0008F02909190020397029748F480915B02D6
:1019F0000E94A32610925B021092C6030AC0809137
:101A0000C6038F5F8093C603833018F483E40E947B
:101A1000A32682E0A6CFD13089F481E392E00E9430
:101A2000A803009709F45BCE4AE050E070E060E064
:101A300006960E94CC2D6093090151CE83E68093D7
:101A400009014DCE389693CE329699CE6B7F613098
:101A500009F045CE8FEF8093260241CED13049F078
:101A6000D53051F480918F02909190024597029762
:101A700018F410924E0233CE80914E028F5F809305
:101A80004E022DCED13009F042C046E050E063E274
:101A900072E08CEF93E00E940E30892BC1F583E257
:101AA00092E00E94A8036CE270E00E945E30009712
:101AB00071F16CE270E00E945E30009741F162E2E9
:101AC00070E00E945E30009711F18C010F5F1F4F94
:101AD00062E270E0C8010E945E300097C1F0081712
:101AE0001907A9F0801B910B8C30910514F08BE045
:101AF00090E0EC01DD27AE01B8018EE992E00E9492
:101B00004330C256DD4F188210924D02E8CD8091CD
:101B10004D028F5F80934D02E2CDD63009F479CF2C
:101B200086E3D13009F475CF72CFD13021F08091A6
:101B300085028C30A1F48FEF80935A021092C60375
:101B4000809106018111CBCD8CE291E09093360219
:101B50008093350284E18093600286E4E0CED43045
:101B600021F080918502803849F48091C6038F5F0F
:101B70008093C603833010F487E3D1CED33011F4C1
:101B800010925A021092C603AACDD130A9F58CE169
:101B900092E00E94A8036AE070E00E945E30009725
:101BA00041F1EC0121966DE070E0CE010E945E30C3
:101BB0000097F9F08C1B9D0B97FD019695958795E5
:101BC000893CA8F4809357024AEC52E06091570296
:101BD000CE010E94E02983E70E94A32680915E0245
:101BE0008C5E0E94A3268FEF8093560278CD88ECFE
:101BF000E9CF1092560273CDD63021F010925602E2
:101C00008CE3AFCE8C2F0E94A326F8CFD43009F4FA
:101C100005CE80918502803809F400CE89E1A1CEFD
:101C2000D43029F080918502803809F0ABCF109232
:101C3000F7038091C6038F5F8093C603833010F44F
:101C400087E76DCE1092C60380E00E94080A1092CA
:101C50005A021092F70310925902109258023FCD87
:101C6000D13029F080E30E94A32684E17ACE8091CE
:101C70005B020E94A32680915B028B54843108F0A2
:101C8000B9CE10925602B6CE0F931F93CF93DF9327
:101C90008091850280918502803821F080915F02D9
:101CA000882381F080E8809385020E94540B82E3B0
:101CB000809360028FEF80935F02DF91CF911F913D
:101CC0000F91089580918502813829F520918B0527
:101CD00030918C05809190059091910528173907D6
:101CE00061F440918B0550918C056DE476E08AEFAC
:101CF00093E00E943630892B01F380918F0581118A
:101D0000DCCF80E8809385028FEF80935F0282E3CF
:101D100080936002D2CF809185028A3009F042C060
:101D200083E192E00E94A80362E270E00E945E30CC
:101D3000009739F18C010F5F1F4F62E270E0C8011C
:101D40000E945E300097E9F0EC01C01BD10BC0315E
:101D5000C0F4DD27AE01B8018CEC93E00E94433063
:101D6000C453DC4F188280914D02811110924D02B4
:101D700080910901882311F0833619F480E1809362
:101D8000090189E30E94B52680915E028B5484315B
:101D900010F41092560210925D0210925C021092A2
:101DA0005E028BCF80918502833089F480E00E94AF
:101DB000080A10925A021092F703109259021092D8
:101DC000580280915E02873709F077CFE4CF809187
:101DD00085028230D1F480915E02873711F40E942F
:101DE000540B8091520281110BC08AE580935302FB
:101DF0008FEF8093F70310925902109258025DCF33
:101E00008093530210925202F3CF8CE092E00E9432
:101E1000A803009799F0FC01379681918032E9F38D
:101E200090910601911107C0813329F40E94ED06BB
:101E30008BE08093C703109285023FCF809185028B
:101E40008C3071F480910601882309F436CF10920A
:101E50005A0288E3DF91CF911F910F910C94A32632
:101E600080918502893061F480915E02873711F498
:101E70000E94540B80E00E94080A1092F703BBCF27
:101E800080918502873081F380918502883029F521
:101E900085E092E00E94A8036CE270E00E945E3050
:101EA0000097A1F04AE050E070E060E001960E94E7
:101EB000DC2E9B01215031092431310538F48AE4AC
:101EC000860F0E94A32681E08093600280915E02CB
:101ED0008B54843108F0F1CE5CCF809185028E3036
:101EE00009F04CC084E18093600280915E028B54C3
:101EF000843140F41092560210925D0210925C02FE
:101F000010925E028EEF91E00E94A80362E270E000
:101F10000E945E30009709F4D0CE8C010F5F1F4FF6
:101F200062E270E0C8010E945E30009709F4C5CEFD
:101F300020913F02222309F4C0CEEC01C01BD10B3B
:101F4000C13AD10510F0C0EAD0E0AE01B8018CEA88
:101F500095E00E947930C455DA4F188263E973E046
:101F600089EA92E00E94723084E70E94A3261092D0
:101F70003F0210923E0210923D029FCE8091550288
:101F800081110E94CF0A8091900590919105892B33
:101F900009F493CE80918502882309F48ECEDF91D7
:101FA000CF911F910F910C94540BCF93C82FC9015F
:101FB000C11106C0862F0E94A3268C2FCF910895B1
:101FC00010925D0210925C0260935E0240935B028D
:101FD0000E94091ECFEFF1CF0F93CF93DF939FEFB6
:101FE00090938F051092F603811149C085E080938C
:101FF000300210922F0284E7809355029093CA0218
:102000004AE06BEE77E08AEC92E00E94572700E00E
:1020100020E04BEE57E069EA72E08AEC92E00E9421
:10202000212B4CEA55E0FA0101900020E9F7AF01BD
:10203000415051096CEA75E00E9469298A5C92401E
:1020400080935702C0915702C1508091CA02C81BA9
:1020500046E050E067EF71E08FE496E00E94DB2FEE
:102060004AE065E576E08C2F90E00E94A2308AEF8E
:1020700080930701DF91CF910F910C94261E85E08C
:102080008093300210922F0285E7809355020091D1
:10209000AC059093CA024AE06BEE77E08AEC92E0DE
:1020A0000E94572720E04BEE57E069EA72E08AEC85
:1020B00092E00E94212BEC014091AD0550E06EEAC8
:1020C00075E00E9443308091AD058C0F9D2F911DCE
:1020D000B5CFEF92FF920F931F93CF93DF9300D072
:1020E0000F92CDB7DEB750915602409155028091C4
:1020F000F70330915E0290916002652F642B682B8C
:1021000020915A02262B232B292BC9F570918F057C
:1021100021E0711101C020E0211132C07091C10095
:1021200076FD2EC070918402772351F17091850263
:1021300001E0711125C01091BD07E12EF12C1E3375
:1021400009F45FC208F068C0133309F460C330F5C6
:102150001E3209F440C3B0F41C3209F4F6C208F090
:102160000DC31B3209F469C380E00F900F900F90EC
:10217000DF91CF911F910F91FF90EF90089521E093
:1021800000E0D9CF103309F4D0C208F42EC31133C4
:1021900009F473C3123341F78FEFE7CF183309F413
:1021A000A5C1A0F4163309F4B3C208F0C0C11533B9
:1021B000D9F68091E90790919402892B9091EA07D2
:1021C000892B11F4F99B45C385E32AC11A3309F41D
:1021D00039C208F462C11B3309F456C21C3321F61C
:1021E0004091580250915902452B61F490919C0204
:1021F000892B41F480918F0590911E02892B282B09
:1022000009F4F1C180910901833611F08111C4CF25
:1022100080E180930901C0CF133708F071C01F35EA
:1022200008F012C1163409F490C1B0F41F3309F458
:102230004DC220EC210FE22FF0E0E852FF4F459114
:102240005491FEE02F9F900111242E513F4F612F9A
:10225000802F0E94D50FA0CF1B3458F38091260207
:10226000882309F47BC04091580250915902452BB4
:1022700009F074C0962B80911E02982B09F06EC055
:10228000333309F46BC08091E90790919402892B54
:102290009091EA07892B09F061C0F9995FC061E06C
:1022A00081E00E94EC26811159C066E784E70E9414
:1022B000EC26811153C069E387E30E94EC2681116B
:1022C0004DC0002309F44AC010925D0210925C02D6
:1022D00010935E028FEF8093560246E050E060EF6D
:1022E00071E08FE496E00E94DB2F4AE065E576E03E
:1022F000C7018A5491090E94A2300E94261E4CCF29
:10230000163709F447C080F4133701F54DE952E060
:1023100063E973E08AEC92E00E94FD29009709F0DE
:1023200051C01092560238CF193709F47CC01F39BA
:1023300009F4ADC2173709F017CF209126022223E6
:1023400019F0992309F41AC187E76AC0209158024D
:1023500030915902232B11F4892B11F0812F60C089
:102360008091E90790919402892B9091EA07892B3B
:10237000A9F7F999F3CF002389F310925D02109227
:102380005C0210935E0281E0153709F080E00E9444
:10239000EC0F02CF10928F05409157026AEC72E069
:1023A0008DE496E00E943D2B8091570290E0880FCB
:1023B000991FFC01E35BF94F2AE1208301960E94FB
:1023C000F01DEACE9E012F5F3F4FAE014E5F5F4F83
:1023D000BE016D5F7F4F0E94562A2B8120938C0295
:1023E0002A8120938B02298120938A029E012F5FEC
:1023F0003F4FAE014E5F5F4FBE016D5F7F4F0E944A
:10240000792A2B81209389022A81209388022981AD
:102410002093870241EA6AE077E00E94142989E765
:102420000E94A326B9CE8091E90790919402892B4E
:102430009091EA07892B99F7F999F1CF8BE0809376
:10244000C7030E945E076DCF209158023091590258
:10245000232B09F083CF852B50919C02852B09F00B
:102460007DCF80918F05811179CF002309F476CF3C
:1024700010925D0210925C0210935E0246E050E002
:1024800069EE71E08FE496E00E94DB2F4AE065E59B
:1024900076E0C7018E5591092ECF8091E907909182
:1024A0009402892B9091EA07892B11F4F99B02C0C1
:1024B00089E3B6CF8BE08093C7030E94B8098823D5
:1024C00061F080910601882379F082EE91E00E940C
:1024D000A803892B11F40E94ED0688E30E94A3262D
:1024E0008FEF8093470241CE87E3F8CF842B382BC0
:1024F00081F480918F0581110CC08091C10086FD0F
:1025000008C080918402882321F08091850288236D
:1025100011F088E385CF10925D0210925C0288E38F
:1025200080935E0280EE91E00E94091E35CE87E323
:10253000002309F475CF10925D0210925C0287E3CC
:1025400080935E028EED91E0EFCF992311F086E447
:1025500067CF8091C10086FDFACF809184028823E5
:10256000B1F380918502382B91F710925D021092A1
:102570005C0210935E0287ED91E0D6CF81110CCE04
:10258000002309F4E1CE10925D0210925C0287E70D
:1025900080935E0285E18093C70384E680934F06B3
:1025A00064EA73E080E596E00E94723084EA93E08A
:1025B000FC0101900020E9F7CF01855A93408F5F1D
:1025C00090E0FC01E15BF94F2BE32083805B994FA6
:1025D000FC0110820E94261E8CE291E09093590229
:1025E00080935802D9CD8CE3002309F419CF1092BF
:1025F0005D0210925C028CE380935E0282ED91E0BA
:1026000093CF4091580250915902452B09F0C4CD07
:1026100090919C02892B09F0BFCD80918F059091FC
:102620001E02892B282B09F0B7CD8EE3002309F475
:10263000F7CE10925D0210925C0210935E028BEC5A
:1026400091E072CF4091580250915902452B59F4B4
:1026500090919C02892B39F480918F0590911E02F4
:10266000892B282B19F010924E0296CD8AE3002375
:1026700009F4D6CE10925D0210925C028AE3809338
:102680005E0282EC91E050CF409158025091590285
:10269000452B59F490919C02892B39F480918F0538
:1026A00090911E02892B282B19F010924D0274CDA7
:1026B0008BE3002309F4B4CE10925D0210925C0209
:1026C0008BE380935E028BEB91E02ECF409158021A
:1026D00050915902452B09F05FCD90919C02892BB6
:1026E00009F05ACD80918F0590911E02892B282BDD
:1026F00009F052CD8FE3002309F492CE10925D02CF
:1027000010925C028FE380935E0284EB91E00CCF29
:1027100086E3002309F484CE10925D0210925C02DD
:1027200010935E028DEA91E0FFCE80E3002309F46E
:1027300077CE10925D0210925C0210935E0282E4EA
:1027400080935B0288E991E0EFCE8DE20E94A326A0
:1027500084E180939C021092910510929005109252
:10276000A00580B7826080BFF8948091C100806826
:102770008093C1007894000045980ECD8091480266
:1027800081110ACD80919C02882311F08DE248CE00
:102790008091C10086FDFACF1092910510929005AC
:1027A0001092A00580B7826080BFF8948091C1002C
:1027B00080688093C10078940000459810925D0273
:1027C00010925C028DE280935E0284E18093480265
:1027D0008FE891E0A9CE8FEF8093840280E40E947D
:1027E000A32688E280936002D7CC8FE2002309F40D
:1027F00017CE10925D0210925C028FE280935E020F
:1028000062E871E08FE496E00E94EF2F76CD809130
:102810006F02882311F081E403CE8FEF80936F0263
:1028200083E3002309F4FCCD10925D0210925C0258
:1028300010935E0289E791E077CE0E94440E80916A
:102840008502813819F084E1809307011092850296
:10285000A3CC002309F4B8CC10925D0210925C0264
:1028600085E380935E026EE671E08FE496E00E945D
:10287000EF2F81E380935B0240CD80918302882318
:1028800009F48ACC86E30E94A32682E3C9CD809115
:10289000E90790919402892B9091EA07892B11F412
:1028A000F99B02C08FE9BCCD0023E1F310925D02D9
:1028B00010925C028FE980935E0267EC77E08FE410
:1028C00096E00E94723019CD80916002882339F021
:1028D000815080936002811102C010925F0280914A
:1028E000220290912302009729F0019790932302EE
:1028F000809322028091350290913602009771F008
:1029000001979093360280933502892B39F4809198
:102910005A02882319F088E30E94A3268091480276
:102920008823C1F0815080934802811113C0109216
:102930005D0210925C0210925E028DE20E94A3265C
:1029400010928602F8948091C1008F7B8093C10021
:10295000789400000E94BC1F882319F08CE20E942A
:10296000A32680915302882341F081508093530223
:10297000811103C088E30E94A326809158029091A0
:102980005902009771F00197909359028093580271
:10299000892B39F482E00E94080A10925A021092A0
:1029A000F70380916E028F5F80936E02803309F08F
:1029B0004EC08CE30E94B52680919C02882319F0BA
:1029C000815080939C0280912602882309F45EC086
:1029D00080910901833611F0811158C080914F0216
:1029E00090915002883522E0920750F40196883584
:1029F00022E0920709F443C09093500280934F0263
:102A000080914E02863020F480914D02843110F086
:102A10000E94A20A80912502882339F08150809378
:102A20002502811102C00E94A20A80912602811112
:102A300032C080914B0290914C02019690934C02CF
:102A400080934B02813B944050F10C94A20A843352
:102A500011F48EE3AFCF883311F48BE3ABCF8C331B
:102A600011F48AE3A7CF803508F4A6CF809126021F
:102A700010926E02882309F49FCF8FE39BCF1092B0
:102A8000500210924F020E94A20ABACF1092500236
:102A900010924F02B5CF10924C0210924B02089543
:102AA00080918502882309F457C08BE20E94A326F7
:102AB0008091F603882329F086E70E94A3261092CE
:102AC000F60380912602882309F455C080915502AF
:102AD000882309F450C080916C0290916D02019698
:102AE000883823E1920708F03CC090936D028093F0
:102AF0006C0280915E0290915A02882309F4A8C06A
:102B000020916B0282136AC091116AC08D3231F03C
:102B10009AE8980F44EF51E0923010F440EE5EE2F4
:102B20009CE8980F923010F44CED55E0209169022A
:102B300030916A022F5F3F4F2417350708F5309315
:102B40006A022093690210926802109267028091D3
:102B50005E0280936B0208950E940D228111A5CF21
:102B6000A7CF10926D0210926C0284E080938502D0
:102B70000E94CF0ABECF10926D0210926C02B9CFA4
:102B800010926A02109269028E3929F1883301F19C
:102B900091ED980F9230E0F09BEC980F9230C0F0DE
:102BA00090EC980F9A30A0F095EB980F983280F047
:102BB00010925B020E948B0A10925D0210925C02DE
:102BC0008EE980935E0210924F060E94261EBBCFB4
:102BD00080935B02EFCF0E94A20AB5CF9923C1F187
:102BE00080918502811134C0F89480919005909174
:102BF000910578942091670230916802281739076F
:102C000020F490936802809367028091670290910C
:102C100068020A9708F49BCF8091690290916A023A
:102C20000196843F21E0920728F490936A028093F2
:102C300069028DCF10926A021092690281E00E94AF
:102C4000080A10926802109267020E94A20A7FCFBF
:102C500010926A0210926902992309F474CF77CF17
:102C60003F924F925F926F927F928F929F92AF921C
:102C7000BF92CF92DF92EF92FF920F931F93CF9369
:102C8000DF93CDB7DEB7E1970FB6F894DEBF0FBE86
:102C9000CDBF9091BD078091560220915502822BA5
:102CA0002091F703822B20915A02822B20915E0201
:102CB000822B20916002822B81F480918F058111FB
:102CC0000CC08091C10086FD08C0809184028823D9
:102CD00021F02091850281E0211180E09932A9F054
:102CE00010E09A3209F081C0882369F080911E02B9
:102CF0009091E907892B90919402892B9091EA0792
:102D0000892B09F48BC08AE20FC0882361F080917F
:102D10001E029091E907892B90919402892B909142
:102D2000EA07892B21F089E20E94A32654C0F99971
:102D3000FACF8AE28093AC053DEAE32E35E0F32E2C
:102D400045E0B42E53E2A52E6AE0962E0091920340
:102D50000B9D6001112488E0C80ED11CC6010E94A1
:102D60007133182F8F3F61F148ECB701C6010E9403
:102D7000B7278701080F111DF801A0827801F2E042
:102D8000EF0EF11CF8019182809192038F5F809386
:102D9000920398012D5E3F4F2C54364058F4883CE6
:102DA000A8F2F801128284E70E94A32681E08093B2
:102DB0001E0211C0883CA8F789E20E94A326F1CF29
:102DC0000F5F00939203083C08F4C0CFFCEAEF16B3
:102DD000F5E0FF0611F41FEF08C0F701108284E749
:102DE0000E94A32681E080931E02812FE1960FB6F8
:102DF000F894DEBF0FBECDBFDF91CF911F910F9131
:102E0000FF90EF90DF90CF90BF90AF909F908F900A
:102E10007F906F905F904F903F900895F99973CF96
:102E20001092AC058CEAE82E85E0F82E95E0392E5C
:102E30005E01F5E1AF0EB11CCE0186964C0129ED85
:102E4000422E21E0522EFE0131966F010091920335
:102E5000083C38F0FCEAEF16F5E0FF0609F0A3CFD6
:102E6000BACF602E712C039D80011124085F1F4F83
:102E7000C8010E9471338F3F09F465C08FEF681A53
:102E8000780A41E1B501C8010E94B727F501019018
:102E90000020E9F73197EA19FB09B501EA3018F08B
:102EA00039976E0F7F1FC4010E9472309F928F92DC
:102EB0007F926F925F924F92DF92CF920E94BC30CE
:102EC000F60101900020E9F73197EC19FD09EE0DAC
:102ED000FF1D0FB6F894DEBF0FBECDBFEC54F64019
:102EE00028F1ECEAEE16E5E0FE06A1F4B6018CEA64
:102EF00095E00E9472308AE20E94A32684E70E9435
:102F0000A32681E080931E02809192038F5F8093BD
:102F1000920361CF8AE20E94A32684E70E94A3263F
:102F200081E080931E02F701108255CFB601C701E0
:102F30000E947230F60101900020E9F73197EC19F8
:102F4000FD09EE0EFF1E809192038F5F8093920326
:102F50007DCF08950E94811C0E9494090C942A1D23
:102F6000CF93DF930F92CDB7DEB78091E9079091B1
:102F70009402892B9091EA07892B49F5F99927C08A
:102F8000198291E080919B02811101C090E081E063
:102F90004091E8035091E9036091EA037091EB03DB
:102FA000452B462B472B09F480E0981711F081E060
:102FB000898385E090E00E9471339981891739F007
:102FC00041E065E070E0CE0101960E94AB280F90D1
:102FD000DF91CF9108950E94AA170E9464148091F6
:102FE000C703882331F081508093C7038111B3C098
:102FF000409A80917F0290918002009739F001976A
:103000009093800280937F02892B11F410928102A9
:103010008091370290913802892B49F080913702D4
:1030200090913802019790933802809337028091F3
:103030003F028823F1F080913D0290913E0200977B
:10304000C1F0019790933E0280933D02892B89F451
:1030500063E973E089EA92E00E94723060EE71E009
:103060008CEA95E00E94723084E70E94A3261092B9
:103070003F0280912102882309F40EC180916602EB
:10308000811111C080912602882369F08091640229
:10309000909165028A3F910508F05FC00196909378
:1030A0006502809364028091BD07882309F488C07B
:1030B0009CE8980F923008F07CC090917D029813A4
:1030C00078C080917B0290917C028639910508F04E
:1030D00048C0019690937C0280937B0280915502B8
:1030E000882309F45FC080917502909176028C323A
:1030F00021E0920708F067C00196909376028093D2
:10310000750280914602882309F48AC080914402A6
:10311000909145028436910508F073C08091440275
:1031200090914502019690934502809344029091BC
:103130003002992309F48AC080912F028F5F809317
:103140002F02863008F47DC010922F029150909388
:1031500030024098089540984CCF8FEF80936602DC
:10316000A2CF65E784E70E94C926809177029091FB
:1031700078028F3F980729F0019690937802809308
:10318000770283E30E94B52610928102109280029A
:1031900010927F0210927C0210927B0210927D02AC
:1031A00010925502109276021092750210927402DB
:1031B000A8CF80937D0210927C0210927B028ECF6A
:1031C00010927D02F8CF10927602109275020E9442
:1031D0008103109255021092540210928F051092A2
:1031E0001E02809174028F3F29F4109274020E9493
:1031F000A20A87CF8F5F80937402833008F481CF57
:10320000F4CF8FEF80934302F89488E198E00FB6F3
:10321000F894A895809360000FBE90936000FFCF54
:103220008091410290914202892B09F480CF8091D4
:103230004102909142020197909342028093410291
:1032400076CF823008F485CF409A08958091260287
:10325000811102C0409819C08091C7038111FACF33
:10326000809109018031A8F4809163028F5F8233DD
:1032700070F48093630280916302883259F38B3239
:1032800049F38E52843030F3409A0C94B01781E0A9
:10329000F0CF10926302EFCF109266021092650297
:1032A0001092640200CF0E94201D0E9450150C94C1
:1032B0004928F89480916E008D7F80936E007894F9
:1032C000000080912A02811109C0F89480916E005B
:1032D000826080936E0078940000089510922A0214
:1032E00080912902882329F081E08093280210929E
:1032F0002902F89480916E00826080936E00789429
:1033000000008091280280FF33C0809162028F5FAD
:103310008A3079F1809362020000F89400B601FED1
:1033200026C08091C1008F778093C10078948091EE
:10333000900590919105892B11F18091A0058F5FE7
:103340008093A0058333D8F0459A8091C1008F7790
:103350008093C10080B78D7F80BF1092F9031092D7
:10336000F80310928E0510928D051092F503789453
:1033700008951092620283E080932802CDCFF894E2
:103380008091C10080688093C10078940000EFCFE5
:10339000A89582E084BD83E085BD8FE387BDEEE61E
:1033A000F0E080818260808383B7817F83BF08954E
:1033B0001F93CF93DF9344E050E061E070E088EC2E
:1033C00093E00E9461338091C80381508E3FF0F0FA
:1033D00081E48093EB078093C80382E48093EC0739
:1033E0008093C90383E48093ED078093CA0384E448
:1033F0008093EE078093CB03F999FECF44E050E031
:1034000061E070E088EC93E00E947F3385EF93E009
:103410000E9471338F3F09F448C08093000186EF0A
:1034200093E00E9471338F3F09F44AC080930601F4
:1034300086E090E00E9471338F3F09F44CC0809386
:10344000050180EF93E00E947133D82F81EF93E064
:103450000E947133182F82EF93E00E947133C82FBE
:1034600083EF93E00E947133282F9D2F91239C239B
:1034700098239F3FD9F582E090E0A0E0B0E08093F0
:10348000010190930201A0930301B09304011092F3
:1034900081021092800210927F02109255021092C7
:1034A0002102DF91CF911F91089581E08093000167
:1034B000F999FECF61E085EF93E00E948F33AFCFA3
:1034C00081E080930601F999FECF61E086EF93E0F9
:1034D0000E948F33ADCF81E080930501F999FECF33
:1034E00061E086E090E00E948F33ABCF8C2F90E0BC
:1034F000B0E0A0E0DC0199278827912B8D2BB22B1F
:103500008093010190930201A0930301B093040101
:10351000AC01BD0141505109610971094F3956484B
:103520006140710508F0A7CF8F399648A140B105D9
:1035300009F0ADCF85E090E00E9471338F3F69F0D4
:103540008170819580939B021092E8031092E903A9
:103550001092EA031092EB039ACF10929B02F4CFE1
:10356000DF92EF92FF920F931F93CF93DF93CDB72C
:10357000DEB761970FB6F894DEBF0FBECDBF1091D6
:10358000BD07143209F4DCC0C0F4133208F09CC04B
:10359000133008F054C0123031F110E0812F6196E1
:1035A0000FB6F894DEBF0FBECDBFDF91CF911F9154
:1035B0000F91FF90EF90DF900895183228F41632A3
:1035C00008F409C11FEFEACF183239F78091E907F3
:1035D00090919402892B9091EA07892B11F4F99B21
:1035E0004CC188E20CC08091E90790919402892B2C
:1035F0009091EA07892B11F4F99B04C082E00E94A4
:10360000A326E0CF81E48093EB078093C80382E494
:103610008093EC078093C90383E48093ED07809344
:10362000CA0384E48093EE078093CB0364E081E0D7
:1036300090E00E94D22883E38093C703C3CF809198
:10364000E90790919402892B9091EA07892B11F454
:10365000F99B02C0812FD3CF0DEF010F40E250E064
:103660006FEF70E08BEE97E00E944C30011120C0AC
:1036700081E48093EC078093C80382E48093ED0794
:103680008093C90383E48093EE078093CA0384E4A4
:103690008093EF078093CB031092F00710929B0268
:1036A0001092E8031092E9031092EA031092EB03E0
:1036B00060E220E2029FC00111240E94D22881E032
:1036C000810F0E94A326B7CF8091E90790919402C1
:1036D000892B9091EA07892B41F48FB3982F927030
:1036E000D92E10E000E081FF02C083E288CFC8013C
:1036F0000E947133F801EE52FF4FE4918E1711F0E2
:10370000DD24DA940F5F1F4F0630110581F798E032
:10371000E92EF12CC7010E947133182F8F3F51F40D
:10372000EFEFEE1AFE0AF0EFEF16F3E0FF0691F767
:10373000DD2011F083E063CF0E94D819409A2ECF8C
:103740008091E90790919402892B9091EA07892B47
:1037500031F48FB3282F2270F22E81FF02C084E251
:103760004ECF6CEC73E08E010F5F1F4FC8010E94BB
:103770007230F80101900020E9F7BF016150710932
:103780004BEE57E0C8010E940E2780910001813066
:1037900079F008E010E0B8018BEE97E00E94DB279B
:1037A000811112C00B5F1F4F003FF3E01F0799F715
:1037B00080910601882309F405CF809100018130B2
:1037C00031F40E94ED06FECEFF24FA94F1CFFF20E3
:1037D00009F4F8CEF6CF8091E90790919402892BF5
:1037E0009091EA07892B11F4F99B02C085E207CF7B
:1037F00064EA73E0FB0101900020E9F7BF0161502A
:1038000071094BEE57E084EA93E00E940E2708E02E
:1038100010E0B8018BEE97E00E94DB278111D2CE39
:103820000B5F1F4F003FF3E01F0799F764EA73E057
:10383000FB0101900020E9F7BF01615071094BEED7
:1038400057E084EA93E00E940E2788E0E82EF12CEE
:1038500009C025E0E20EF11C80EFE81683E0F806CF
:1038600009F4B0CEC7010E947133182F8F3F89F73A
:1038700065E0C7010E94D22891CE64EA73E0FB01A3
:1038800001900020E9F7BF01615071094BEE57E04C
:1038900084EA93E00E940E2708E010E0B8018BEE66
:1038A00097E00E94DB27882379F01092A4034BEE67
:1038B00057E065EA73E084EA93E00E940E2765E032
:1038C000C8010E94D2287ECE0B5F1F4F003FF3E05D
:1038D0001F0721F777CE0E946910811106C00E9450
:1038E000B01A811102C00E9430160C94E126E82F14
:1038F000F0E0E252FC4F9081907F81E009F080E09F
:1039000008959091E703892F8D7F8093E70380913D
:10391000DE03807F90FD56C081114BC08091F00383
:103920009091F103A091F203B091F3034091EC0365
:103930005091ED036091EE037091EF0384179507AA
:10394000A607B70798F40196A11DB11D8093F00357
:103950009093F103A093F203B093F3034817590730
:103960006A077B0719F481E08093E7038091E703FE
:103970009091F403891781F08093F403982F92605B
:103980009093E70380FD53C01092F0031092F1036F
:103990001092F2031092F3038091DD03882341F02B
:1039A0009091E7039D7F9093E70381508093DD031F
:1039B00008951092F0031092F1031092F203109206
:1039C000F303D4CF882351F18091E3039091E40372
:1039D000A091E503B091E6034091DF035091E0032D
:1039E0006091E1037091E20384179507A607B7077A
:1039F00008F0BCCF0196A11DB11D8093E303909305
:103A0000E403A093E503B093E603481759076A0758
:103A10007B0709F0ABCF1092E703A8CF1092E30326
:103A20001092E4031092E5031092E6039FCF1092E8
:103A3000E3031092E4031092E5031092E603ACCF87
:103A40008091DE03189B869581601899880F80937A
:103A5000DE030895CF92DF92EF92FF928091E80308
:103A60009091E903A091EA03B091EB0320919B02AE
:103A70000097A105B105A1F00197A109B1098093B3
:103A8000E8039093E903A093EA03B093EB03892B37
:103A90008A2B8B2B29F481E0211180E080939B02FB
:103AA00080919B02882309F442C080918202811197
:103AB0003EC0C0903902D0903A02E0903B02F090B4
:103AC0003C022FEFC216D206E206F20681F18FEF1A
:103AD000C81AD80AE80AF80AC0923902D0923A0203
:103AE000E0923B02F0923C02C701B6012AE030E0CE
:103AF00040E050E00E948A2D672B682B692BB9F4B7
:103B000068EF73E08C2D0E94D62869EF73E08091F6
:103B10003A020E94D6286AEF73E080913B020E942D
:103B2000D6286BEF73E080913C020E94D6288091EA
:103B30009B0280938202882369F0809139029091E0
:103B40003A02A0913B02B0913C028032914AA740D8
:103B5000B10510F05D9801C05D9AFF90EF90DF9085
:103B6000CF90089584E190E0A0E0B0E08093DF037F
:103B70009093E003A093E103B093E2038093EC03FE
:103B80009093ED03A093EE03B093EF0388EF93E0DF
:103B90000E9479336F3F2FEF72078207920749F037
:103BA0006093390270933A0280933B0290933C02F7
:103BB00008951092390210923A0210923B0210922C
:103BC0003C0208951092F4031092E8031092E90366
:103BD0001092EA031092EB038EE18093DD030895C7
:103BE00090938C0580938B05109295051092940507
:103BF000E0ECF0E0808180648083F894E1ECF0E018
:103C0000808180648083789400008FEF80938602A7
:103C10000895CF93DF9321E420934D0624E520936C
:103C20004E06AFE4B6E0FC0193E0981B892F8E0F9F
:103C3000ED0124912D93211107C09DE0988390E020
:103C4000DF91CF910C94F01D3196F0CFEDE4F6E0CA
:103C500081E4808384E5818301900020E9F7CF012E
:103C60008E5496409927FC01E35BF94F2DE02083A9
:103C700001960C94F01D78942F932FB72F933F93B8
:103C80008F939F93EF93FF93209194053091950527
:103C900080918B0590918C052817390788F0F8944E
:103CA0008091C1008F7B8093C10078940000FF91C8
:103CB000EF919F918F913F912F912FBF2F91189549
:103CC000349910C08091940590919505FC01E35BB7
:103CD000F94F208101969093950580939405209348
:103CE000C600E5CF8FEF80938602E1CF8F938FB729
:103CF0008F938091C1008F778093C10078948091D9
:103D0000C6000F924F931F9211242F933F93EF936E
:103D1000FF93AF93BF939F932091900530919105AE
:103D20008F3F09F4E8C0EAEFF3E0A901203991E000
:103D3000390708F0CDC02115310521F48A3009F08A
:103D40004AC02CC09091FA038D3009F59D30F9F0EE
:103D50009A30E9F09091F503911119C091E8909390
:103D60008502459AF8949091C1009F779093C10085
:103D700090B79D7F90BF789400001092F903109245
:103D8000F80310928E0510928D051092F5032115FF
:103D90003105A1F290819D3089F61DC09091F50307
:103DA000911119C091E890938502459AF8949091E9
:103DB000C1009F779093C10090B79D7F90BF78948A
:103DC00000001092F9031092F80310928E051092E1
:103DD0008D051092F5038F01A9014F5F5F4FDF0141
:103DE000A20FB31F00B601FE5DC02430310508F4F8
:103DF00059C08A3009F056C0BD0161507109EB010C
:103E000098819D3009F04EC061507109EB01988195
:103E10009A3009F447C061507109EB0198819D30D7
:103E200009F440C0EF0191819A30E1F590819D3015
:103E3000C9F560918D0570918E057093F9036093BB
:103E4000F80350938E0540938D059091F5039F5F85
:103E50009093F50360919C0570919D0570939F056B
:103E600060939E0560919A0570919B0570939D05E6
:103E700060939C05609198057091990570939B05DE
:103E800060939A056091F8037091F9037093990516
:103E90006093980560918D0570918E0570939705DC
:103EA0006093960590918F05992361F02330310539
:103EB00049F4803239F49091FC039E3319F49FEF5A
:103EC0009093F6038C939A01E40FF51F10820FC0B4
:103ED00030E020E080E8809385021092F903109290
:103EE000F80310928E0510928D051092F503309311
:103EF0009105209390051092A0059F91BF91AF91DD
:103F0000FF91EF913F912F911F904F9100B601FECD
:103F100008C0F8948091C10080688093C1007894B3
:103F200000000F908F918FBF8F91189583E0809341
:103F3000C4001092C500E1ECF0E0808188618083CC
:103F40008BB18C7F8BB95198449845983D980895D2
:103F500099B1892F887093FF0EC0109208011092BA
:103F6000910510929005519A8BB183608BB93D9A5F
:103F7000459A449A8FEF0895809108018823B9F1FA
:103F800091E0980F90930801913A39F1A8F49F308D
:103F9000D9F030F49230D1F09330E9F080E0089518
:103FA00087528430D8F70E94A81F91E0811101C088
:103FB00090E0892F819508959F3FA0F4953F98F751
:103FC000983C49F0973D51F75498E8CF54980E9497
:103FD000A81F81110BC0549AE1CF10928402109255
:103FE0008302DCCF81E080930801D8CF8FEF089562
:103FF000FC014217130609F048F4DB01A650BC4F40
:1040000090E0491305C0942F81E0491380E00895A2
:104010002D9184912813F8CF31969F5FF2CF8FB7FF
:10402000F8941092F9031092F80310928E051092F2
:104030008D058FBF08952F923F924F925F926F929E
:104040007F928F929F92AF92BF92CF92DF92EF9228
:10405000FF920F931F93CF93DF93C8E047E0842E26
:1040600059E0952E63E0762E78E0672EE5E15E2E2E
:10407000F2E04F2EADE03A2E222423949FB7F8941D
:104080008091F503811128C09FBFC091AB05CC235F
:1040900001F1C150C093AB05D0E0CF55DA4F888114
:1040A000809385021882C09185028C2FDF91CF9179
:1040B0001F910F91FF90EF90DF90CF90BF90AF9046
:1040C0009F908F907F906F905F904F903F902F9038
:1040D000089510928502E9CF853008F084E0E82F3A
:1040E000F0E0EE0FFF1FEA56FA4FC080D180118238
:1040F00010828150E82FF0E0EE0FFF1FEA56FA4FD2
:10410000208131818093F5039FBFC216D306A8F5A5
:104110008091AB058A3010F09092AB0589010C19A3
:104120001D0904501109760142E0E40EF11CC90199
:1041300086509C4FFC013397B0803197A080F601E8
:10414000E650FC4FD581EBE4BE121BC0FFE4AF127A
:1041500045C10597FC018081803209F45AC126309F
:10416000310508F456C1E091AB0581E08E0F8093D4
:10417000AB05F0E0EF55FA4F2082C15009F07ECF39
:1041800094CFD734A1F4980146E0B70180EF93E0D3
:104190000E94F81F882359F0E091AB0581E08E0F53
:1041A0008093AB05F0E0EF55FA4F3082E6CFFFE4A5
:1041B000AF1215C0980145E0B7018AEE93E00E9466
:1041C000F81F882361F0E091AB0581E08E0F8093AA
:1041D000AB05F0E0EF55FA4F44E04083CECF87E4E3
:1041E000B81215C0980147E0B70182EE93E00E9433
:1041F000F81F882309F4F5C0E091AB0581E08E0F2C
:104200008093AB05F0E0EF55FA4F4082B6CFE4E47F
:10421000BE12E7C098014CE0B70185ED93E00E9423
:10422000F81F882309F4DDC0E091AB0581E08E0F13
:104230008093AB05F0E0EF55FA4F8CE080839DCF83
:10424000DD34A1F4980146E0B70187EC93E00E94C9
:10425000F81F882309F1E091AB0581E08E0F809370
:10426000AB05F0E0EF55FA4F508287CFD435A1F47B
:10427000980146E0B70180EC93E00E94F81F882384
:1042800059F0E091AB0581E08E0F8093AB05F0E033
:10429000EF55FA4F608271CFF5E4AF1214C0980168
:1042A0004AE0B70185EB93E00E94F81F882359F09C
:1042B000E091AB0581E08E0F8093AB05F0E0EF5508
:1042C000FA4F70825ACF45E4B41214C098014BE003
:1042D000B70189EA93E00E94F81F882311F1E09169
:1042E000AB0581E08E0F8093AB05F0E0EF55FA4F00
:1042F000908243CF89E5B81214C0980144E0B70119
:1043000084EA93E00E94F81F882359F0E091AB05FE
:1043100081E08E0F8093AB05F0E0EF55FA4F80827D
:104320002CCFD53411F598014BE0B70188E993E023
:104330000E94F81F882309F420CF4AE050E070E083
:1043400060E0C601885F9B4F0E94DC2E7093900254
:1043500060938F02E091AB0581E08E0F8093AB05F7
:10436000F0E0EF55FA4F45E038CFD33509F005CFEF
:1043700098014BE0B7018CE893E00E94F81F882376
:10438000C1F04AE050E070E060E0C601885F9B4FFA
:104390000E94DC2E70938E0260938D02E091AB053B
:1043A00081E08E0F8093AB05F0E0EF55FA4F86E089
:1043B00045CF980146E0B70185E893E00E94F81FD9
:1043C000882309F4DACEE091AB0581E08E0F80936B
:1043D000AB05F0E0EF55FA4F8EE030CFD73409F45B
:1043E000D2CED93409F02CCF980146E0B7018EEC3B
:1043F00093E00E94F81F882309F44ECFE091AB05AB
:1044000081E08E0F8093AB05F0E0EF55FA4F8AE024
:1044100015CFD73409F0CECEB6CECF930E941B2055
:104420008823D9F080918502843021F0833111F006
:10443000813089F4CFB7F8940E940F20459AF89400
:104440008091C1008F778093C10080B78D7F80BF3E
:1044500078940000CFBF80918502CF910895AF92EC
:10446000BF92CF92DF92EF92FF920F931F93CF9361
:10447000DF936C01B62EA42EF601C081D181888114
:1044800090E00E94BD2F892B39F5FAE0BF9E800194
:104490001124025E1B4FBA1498F4F801E490F12C39
:1044A000B8016F5F7F4FA701CE010E94CE2F065F3C
:1044B0001F4F892BB1F4CE0DDF1DF601D183C083D0
:1044C0008B2DDF91CF911F910F91FF90EF90DF9097
:1044D000CF90BF90AF9008952196F601D183C0830D
:1044E000CBCFB394D8CFFF920F931F93CF93DF938B
:1044F0008C01F801C081D181F8808F2D90E00E945D
:10450000BD2F892BF1F48091C803F8121FC0998147
:104510008091C90398131AC09A818091CA03981395
:1045200015C09B818091CB03981310C02496F8018D
:10453000D183C0838FEFDF91CF911F910F91FF90B7
:1045400008952196F801D183C083D3CF80E0F3CFC3
:1045500044E050E069E174E00E94CE2F21E0892B15
:1045600009F020E0822F08950C942F22EF92FF9201
:104570000F931F93CF93DF93EC017B010881198187
:104580004AE050E0BC01C8010E94CC2DF7016083D5
:1045900071838283938381E02881398120173107D9
:1045A00009F480E0DF91CF911F910F91FF90EF9080
:1045B0000895DF92EF92FF920F931F93CF93DF93B3
:1045C0007C01D62EF701C081D181088110E0C8019D
:1045D0000E94BD2F892BA1F48D2D90E00E94C62F43
:1045E0000817190791F42196F701D183C0838FEF43
:1045F000DF91CF911F910F91FF90EF90DF90089581
:104600002196F701D183C083DDCF80E0F1CFDF9227
:10461000EF92FF920F931F93CF93DF938C01D62ECF
:10462000F801E080F180CE2DDF2D899190E00E948D
:10463000BD2F892B89F48D2D90E00E94C62F982FD5
:10464000F7018191882361F07F019813F9CFD80198
:10465000ED93FC938FEF06C0D801CD93DC93E0CFB0
:104660009923A9F3DF91CF911F910F91FF90EF90C4
:10467000DF900895CF92DF92EF92FF920F931F93F6
:10468000CF93DF938C01E62ED72EF42EF801C08154
:10469000D181888190E00E94BD2F892B89F4CE2D95
:1046A000DD2DEF0C6E01EC1210C0F6011082DF91CF
:1046B000CF911F910F91FF90EF90DF90CF900895D1
:1046C0002196D801CD93DC93E1CFD801ED91FC91F7
:1046D000F0808F2D90E00E94BD2F892B31F7F99249
:1046E000FF2019F3D8018D919C91119701968D931C
:1046F0009C93D8CF8F929F92AF92BF92CF92DF922E
:10470000EF92FF920F931F93CF93DF93CDB7DEB756
:1047100064970FB6F894DEBF0FBECDBF7C016B016E
:10472000042FF701A080B180F501808190E00E9404
:10473000BD2F892B09F049C010E04501F501819199
:104740005F01882349F0143138F48032B1F30E94BC
:10475000FB268D3009F040C0512F1A3008F059E087
:10476000812F193008F489E08950990BA1E0B0E05D
:10477000AC0FBD1FA80FB91FC60130E020E00150EB
:10478000110B251718F420173107BCF1F601E50FBE
:10479000F11D1082F6018081882321F0F7018082CB
:1047A00091828FEF64960FB6F894DEBF0FBECDBF37
:1047B000DF91CF911F910F91FF90EF90DF90CF90FD
:1047C000BF90AF909F908F9008958FEFA81AB80A6E
:1047D000F701B182A082A5CFF5013197808190EDDC
:1047E000980F9A3008F0A9CFE1E0F0E0EC0FFD1F40
:1047F000E10FF11D80831F5FA0CF4D91FC0141931C
:10480000CF012F5F3F4FBDCF9F92AF92BF92CF920C
:10481000DF92EF92FF920F931F93CF93DF9300D01D
:1048200000D000D00F92CDB7DEB79F838E837C017E
:1048300082E3F701ABEEB7E001900D928A95E1F7C4
:104840005701F50181918F0190E00E94BD2F892BC6
:10485000E1F5CE0101966C0185015C0184E0982EA2
:10486000900EF80181918F01882349F090E00E9419
:10487000C62FF60181936F019012F3CF8FEF1D8247
:10488000882329F16FEF71E0C5010E946930892BFF
:10489000F1F466E971E083E993E00E948830892BA6
:1048A000B1F010E1812F27960FB6F894DEBF0FBE4E
:1048B000CDBFDF91CF911F910F91FF90EF90DF90CF
:1048C000CF90BF90AF909F9008955801BACFCE017E
:1048D00006960E9473222E819F81811108C0822F2B
:1048E0000E94A822182F8823E9F21BE0DBCF022FB9
:1048F000192FF80181918F01811110C04AE160E008
:10490000CE0106960E942F22182F8A3108F019C274
:10491000E82FF0E0E75FFB4C0C94AC2D90E00E9498
:10492000C62FF80131978083E4CF0F5F1F4F1F839D
:104930000E830E811F81F801808190E00E94BD2FBF
:10494000892B99F730E020E0C8018E199F09855125
:10495000984FFC01E20FF31F40815FEB540F5A3177
:1049600028F040534A3010F012E09CCF2F5F3F4FA9
:104970002430310571F7FC014081518162817381DE
:104980004093C8035093C9036093CA037093CB0349
:1049900044E061E070E00E94AB2813E083CF4EE07A
:1049A00064EA73E0CE0106960E947A2381117ACFE1
:1049B0000E811F81F801808190E00E94BD2F892B1C
:1049C00069F443E050E065E174E0C8010E94F62F0D
:1049D00018E0892B09F466CF16E064CF0F5F1F4FF4
:1049E0001F830E83E5CF4EE064EA73E0CE010696A6
:1049F0000E947A23882309F4B7CF85E20E94A32678
:104A0000CCCF4EE064EA73E0CE0106960E947A2392
:104A1000882309F4A9CF88E2F1CF47E168E0CE010D
:104A200006960E942F22883071F481E08093000165
:104A300065EF73E00E94D6288FEF8093060166EF42
:104A400073E081E00EC08930C1F481E08093000101
:104A500065EF73E00E94D6281092060166EF73E0BE
:104A600080E00E94D6281092050166E070E080E0A8
:104A70000E94D6280E94E10690CF8631A9F481E0F9
:104A80008093000165EF73E00E94D6281092060122
:104A900066EF73E080E00E94D6288FEF80930501D7
:104AA00066E070E081E0E4CF853109F05DCF81E020
:104AB0008093000165EF73E00E94D6281FEF1093EA
:104AC000060166EF73E081E00E94D628109305018D
:104AD000E7CF47E168E0CE0106960E942F2288309A
:104AE00031F41092000165EF73E080E0A3CF8930CC
:104AF00031F41092000165EF73E080E0ABCF8631B6
:104B000031F41092000165EF73E080E0BDCF853194
:104B100009F02ACF1092000165EF73E080E0CCCF5E
:104B200019E0C0CE0F5F1F4F1F830E830E811F81C0
:104B3000F801F0808F2D90E00E94BD2F892B91F716
:104B4000FF2009F411CF81E480934D0684E5809322
:104B50004E061F930F9384E092E09F938F938FE410
:104B600096E09F938F930E94BC300E94261E8FEF89
:104B700080933F028CE291E090933E0280933D024D
:104B80000F900F900F900F900F900F9006CFB501E0
:104B9000CE0106960E94B622882309F4E5CE8981CB
:104BA000482F5A816B817C818A019B010150110938
:104BB000210931090F3916482140310508F0D4CEBA
:104BC000C0900101D0900201E0900301F090040137
:104BD000409301015093020160930301709304011B
:104BE00060EF73E00E94D62861EF73E080910201CC
:104BF0000E94D62862EF73E0809103010E94D628BC
:104C000063EF73E0809104010E94D6282FE9C21659
:104C100026E8D20621E0E206F104C9F489819A81EE
:104C2000AB81BC818F399648A140B10581F065E028
:104C300070E08FEF0E94D62810929B021092E8033A
:104C40001092E9031092EA031092EB035D980E9420
:104C5000E1061FE027CE0F5F1F4F1F830E830E81DB
:104C60001F81F801808190E00E94BD2F892B99F768
:104C700042E050E062E174E0C8010E94F62F892B07
:104C800021F58FE996E8A1E0B0E0809301019093CF
:104C90000201A0930301B093040160EF73E08FE978
:104CA0000E94D62861EF73E0809102010E94D6280D
:104CB00062EF73E0809103010E94D62863EF73E0F6
:104CC000809104010E94D628C2CF43E050E06EE0FC
:104CD00074E0C8010E94F62F892B09F045CE82E0CE
:104CE00090E0A0E0B0E08093010190930201A093D6
:104CF0000301B093040160EF73E0D2CF88E198E044
:104D00000FB6F894A895809360000FBE9093600052
:104D1000FFCF8FEF80931F0291E09093000180936B
:104D200006018093050163E973E089EA92E00E943D
:104D3000723067EF73E08CEA95E00E94EF2F84E712
:104D40005DCE11E0AFCDEDEBF7E030E020E09191EA
:104D5000911105C02354384FF901808308952F5FC6
:104D60003F4F2A30310599F70895EDEBF7E030E039
:104D700020E09191981761F0911105C02354384FAC
:104D8000F901808308952F5F3F4F2A30310589F75D
:104D9000089590E0E92FF0E0E354F84F20812817C0
:104DA00070F0621760F0292F293028F01092C607A2
:104DB0009A3081F70895318131932F5FF5CF9F5F4E
:104DC000F7CFEDEBF7E08181819387E0E63CF807D0
:104DD000D1F71092C6070895EDEBF7E02AE02E0F09
:104DE0009191981710F0691720F42E13F9CF80E0F5
:104DF00008958FEF08958B3259F030F4833251F0DB
:104E00008A3251F08DE0089580538A30D8F70895A2
:104E10008AE008958CE008958BE00895AF92BF92E8
:104E2000CF92DF92FF920F931F93CF93DF93182FB0
:104E3000EB016A0145E050E06FEF70E0C6010E94AF
:104E40004C308C2F811B182F219700E0823058F4B2
:104E5000DF91CF911F910F91FF90DF90CF90BF9086
:104E6000AF900895092F88810E94FB26F82EF294B6
:104E700080EFF822FE0182915F010E94FB268F29BC
:104E8000113061F4E5018F6010E091E0900FF601C0
:104E9000E00FF11D80831111E5CFDACF2297125078
:104EA000F4CFE82FF0E0EE5DFA4F84910895CF93B0
:104EB000DF939C01EB011882BC0180E0DB016F5F96
:104EC0007F4F9C919F3F19F0853009F04AC0A2178F
:104ED000B30709F44AC0642F70E090E0880F991F6F
:104EE00011976817790744F4DB011197B7FDDB01CF
:104EF000B595A795A20FB31FEC918E2F8F708F30B1
:104F000091F5E295EF70F0E0EE5DFA4F84918883C1
:104F1000882319F02196119781E011961197A21715
:104F2000B307D8F0EC91EF70F0E0EE5DFA4FE4914A
:104F3000E883EE2311F021968F5F841771F0EC91D6
:104F4000E295EF70F0E0EE5DFA4FE491E9938F5F48
:104F5000481719F02A173B0709F71882DF91CF91FC
:104F600008958F5FABCF80E0D8CF80E0F7CFFF927E
:104F70000F931F93CF93DF9300D000D00F92CDB744
:104F8000DEB78B01F42E45E050E0BC01CE01019666
:104F90000E9461334F2DB801CE0101960E94572720
:104FA0000F900F900F900F900F90DF91CF911F9166
:104FB0000F91FF9008950F931F93CF93DF93EC0110
:104FC0008B0188818F3F21F1CB010E9471338F3F8C
:104FD000F9F0C8010E947133382F307F9991292F41
:104FE000207F303F79F0203F69F0321311C08F707D
:104FF0009F708F3039F09F3029F0891309C00F5FFF
:105000001F4FE7CF8FEFDF91CF911F910F91089541
:1050100080E0F9CF0F931F93CF93DF9300D000D0A0
:105020000F92CDB7DEB78B01FC0101900020E9F7AC
:105030003197BF01681B790B680F792F711DAE0185
:105040004F5F5F4F0E940E27B801CE0101960E946C
:10505000DB270F900F900F900F900F90DF91CF9163
:105060001F910F9108958093E7079093E80710929E
:1050700093026093940292BD81BDF89A90B580919D
:10508000EB07981729F080BDF894FA9AF99A78946A
:105090000895F99932C08091E90790919402892B83
:1050A0009091EA07892B49F180919302F89A20B5F3
:1050B000E82FF0E0E551F84F9081291301C08F5F90
:1050C000909194028917D0F4282F30E04091E7079F
:1050D0005091E807420F531F52BD41BDF89A40B5A9
:1050E0002551384FF9019081491729F090BDF89466
:1050F000FA9AF99A78948093930208959091E90727
:105100001092E907909394022BEE37E0F901911188
:1051100007C09FE092BD9FEF91BDEDCF80A5819329
:105120008E2F821B8917D0F380911D0890911E0845
:105130008093E7079093E80792BD81BDF89A90B5F8
:105140008091EB07981729F080BDF894FA9AF99AA4
:10515000789480E0D0CF1F93CF93DF93D62F172F73
:10516000C42F4423D9F050E0BC018BEE97E00E949D
:105170004330D093E7071093E80710929302C0934F
:10518000940212BDD1BDF89A90B58091EB079817A3
:1051900029F080BDF894FA9AF99A7894DF91CF912A
:1051A0001F91089561110C94332808951F93CF9394
:1051B000DF93182FEB01CB010E947133811749F067
:1051C0001093EB0761E0CE01DF91CF911F910C941A
:1051D0003328DF91CF911F9108950F931F93CF93A1
:1051E000DF9300D000D0CDB7DEB78C0119821A82D0
:1051F0001B821C820E9471338983C80101960E9420
:1052000071338A83C80102960E9471338B8369814E
:105210007A818B819C810F900F900F900F90DF917E
:10522000CF911F910F910895DF92EF92FF920F930C
:105230001F93CF93DF93DC011D91141710F01FEF24
:10524000140F862F072FC0E0D12C90E0D0E827E084
:1052500030E0C1130CC0C60FD72FD11D1882DF91CB
:10526000CF911F910F91FF90EF90DF9008954D2DFA
:1052700050E0EC91F0E0ED2EF12CE094F094EE2172
:10528000FF2102C0EE0FFF1FDA94E2F7E90FF11DD4
:10529000ED5BF94F9491E82EF02EF70191937F0189
:1052A000CF5FFC2FF770DF2E89F0ED91ED23F0E05A
:1052B000C901841B950B02C0F595E7958A95E2F725
:1052C0009E2FD695D0588E2D0F2DC3CF90E0D0E8CD
:1052D000FACFCF92DF92EF92FF920F931F93CF936B
:1052E000DF93EC01461B570BDC014D933FEF340F6E
:1052F00090E020E00FE710E087E04FEF50E0231749
:1053000038F188818770D1F0FB01E20FF11DE08157
:10531000F0E0ED5BFA4F24914FE750E0092E02C018
:10532000440F551F0A94E2F7E22FF0E0E423F5233F
:1053300002C0F695E7959A95E2F7ED93CD01DF91DE
:10534000CF911F910F91FF90EF90DF90CF90089534
:105350006B01C20ED11CF601F080EF2DF0E0ED5B89
:10536000FA4FE4917801092E02C0EE0CFF1C0A945A
:10537000E2F7F0E0EE22FF22092E02C0F694E79455
:105380000A94E2F7F601F180EF2DF0E0ED5BFA4FC1
:10539000E491F82EF91A6A010F2C02C0D694C79432
:1053A0000A94E2F7EC2101C0EE0FFA94EAF7EE2935
:1053B000ED939F5F973011F42F5F90E02F5F9FCFA9
:1053C000FC01640F752F711D4617570709F40895E6
:1053D00090819A3370F49053292F2295207F9181E8
:1053E0009A3348F49053920FDA019D93AD013296AF
:1053F000EBCF9753F1CF9753F6CF1F93CF93DF9314
:10540000DC01EA018C91873C50F0DB011C928FEFAC
:10541000888390E080E0DF91CF911F9108951882FA
:105420008C9190E00196A80FB91F8C918B7F11F0A1
:105430008FEF888311963C911197313130F7FD0140
:10544000339612968C91982F9F7E41E0913809F007
:1054500040E0813921F48BE2DB018D93BD01562FB1
:10546000172F80E010C09081222311F09295319681
:105470009F70905D411101C090E3A52FB12F9D93C6
:105480008F5F5A2F1B2F282F21708313ECCF680FAB
:10549000711DDB011C92211101C03197828188238B
:1054A00011F08FEF8883CF010396B5CFFC01908177
:1054B000A92FAF708AE092959F70A89F900D11243C
:1054C000DB019C939181692F6F7092959F70689F0B
:1054D000900D1124DA019C939281492F4F7092957F
:1054E0009F70489F900D1124D9019C93CF01039682
:1054F0000895FC019081A92FAF708AE092959F706A
:10550000A89F900D1124DB019C939181692F6F70EE
:1055100092959F70689F900D1124DA019C9392815F
:10552000492F4F7092959F70489F900D1124D9017B
:105530009C93CF0104960895CF93DF93DB012C91C8
:1055400061E82B3211F4119661E9FD010190002010
:10555000E9F73197EA1BFB0BEC01E11105C0199249
:10556000CE01DF91CF910895E883AC014E5F5F4F8C
:105570006983CF019927019695958795D82F742F28
:10558000C52F60E06D1303C0840F951FEACF2C91E7
:10559000205311963C911197332359F0129632956E
:1055A000307F232BE72FFC2F21936F5F7E2FCF2F90
:1055B000E9CF1196206FF6CFCF93DF93DB012C91CB
:1055C000211106C0FC011192CF01DF91CF91089506
:1055D00061E82B3211F4119661E9FD010190002080
:1055E000E9F731979F012A1B3B0B33272F5F3F4F72
:1055F00035952795D22F41E0420FFC014083AC0145
:105600004E5F5F4F6183742FC52F60E0D61304C0D7
:10561000CA01820F931FD9CF8C91805311969C9110
:105620001197992359F012969295907F892BE72F25
:10563000FC2F81936F5F7E2FCF2FE8CF1196806F65
:10564000F6CFEF92FF920F93CF937B01C22FBA0157
:105650000E94DC2A21E1FC0120831182B70102961D
:105660000E949C2AFC01C08301832AEA22830396BC
:10567000CF910F91FF90EF900895CF93DF930F920A
:10568000CDB7DEB79C01CB01582F561B541720F025
:105690000F90DF91CF910895DC019D91892F807F3C
:1056A000898382958983E981F0E0EE5CFA4F8491E9
:1056B000F90180839F70E92FF0E0EE5CFA4F84914E
:1056C000F90181832E5F3F4FCD01DECF1092CD00D7
:1056D00087E08093CC0082E08093C80088E18093CB
:1056E000C90086E08093CA00239A24982C9A0895D2
:1056F0009091C80095FFFCCF8093CE0008958091D3
:10570000C80087FFFCCF8091CE0008958091C8002B
:10571000881F8827881F0895CF93DF93EC01899114
:10572000811103C0DF91CF9108950E94782BF7CFAC
:10573000CF93DF9380919A02882361F1C0E2809138
:105740009802909199028115944098F48091980262
:10575000909199020E9471330E94782B8091980257
:105760009091990201969093990280939802C1506A
:1057700031F780919802909199028115944018F424
:10578000DF91CF91089510929A021092990210928F
:105790009802F6CF80919702811115C08091C800C0
:1057A00087FFEECF0E947F2B833509F474C008F089
:1057B0003EC0833409F444C0823509F468C0DF91E7
:1057C000CF910C94782BC0E2809195029091960233
:1057D00081159440C0F48091C80087FFD1CF0E940A
:1057E0007F2B682F80919502909196020E94A133A1
:1057F00080919502909196020196909396028093E3
:105800009502C15009F780919502909196028115F9
:10581000944008F4B5CF109297021092960210921D
:10582000950289E192E0DF91CF910C948C2B873522
:1058300031F18336C1F0843511F684E192E0F3CF83
:10584000C1E0D0E00E947F2B682FCE010E94A133DF
:105850008FEF93E20197F1F700C000002196C53069
:10586000D10581F7DECFC1E0D0E0CE010E947133D7
:105870000E94782B2196C530D105B9F781CF81E000
:1058800080939702109296021092950279CF81E050
:1058900080939A027ACF8091090191CF88E19BE0B1
:1058A0000FB6F894A895809360000FBE90936000A7
:1058B0000E94AD030E94AD030E94AD030E94AD03A0
:1058C00081E087B988B980E28AB90E94D81910921C
:1058D000390210923A0210923B0210923C0288EF79
:1058E00093E00E947133C82ED12CF12CE12CC09290
:1058F0003902D0923A02E0923B02F0923C0289EFE8
:1059000093E00E947133D82AC0923902D0923A02B1
:10591000E0923B02F0923C028AEF93E00E947133E6
:10592000E82AC0923902D0923A02E0923B02F09209
:105930003C028BEF93E00E947133F82A8FEFC81678
:10594000D806E806F80609F450C0C0923902D09291
:105950003A02E0923B02F0923C020E94961F0E94A3
:10596000662B0E94C81978941FEF8091280280FD51
:105970000E94C8198091280281FD0E94EB17809136
:10598000280280FF20C00E9453190E946B1C909136
:105990009B0280916102981771F080919202882396
:1059A00051F08091AB07882331F08091F703882371
:1059B00029F110937E0280919B02809361020E94E4
:1059C000982B10922802F89480912A02811109C024
:1059D00083B7816083BF78948895F89483B78E7F6E
:1059E00083BF78940E945919C0CF10923902109247
:1059F0003A0210923B0210923C02AFCF6BEA77E082
:105A000089EA92E00E9472306BEB70E08CEA95E0DC
:105A10000E94EF2F6CEC73E08CEA95E00E9453300B
:105A200066EB70E08CEA95E00E94E42FCCEAD5E0CA
:105A3000FE0101900020E9F7CF018D5A9540FC014D
:105A4000E455FA4F90910A019083E1E0E80FF0E00D
:105A5000E455FA4F90910B0190838E5FE82FF0E0B0
:105A6000E455FA4F108264EB70E0CE010E94E42FFF
:105A700009900020E9F7CE018D5A9540FC01E455CC
:105A8000FA4F90910D019083E1E0E80FF0E0E455CA
:105A9000FA4F90910E0190838E5FE82FF0E0E4556D
:105AA000FA4F108284E70E94A32685CF991B79E0E4
:105AB00004C0991F961708F0961B881F7A95C9F79E
:105AC00080950895AA1BBB1B51E107C0AA1FBB1FED
:105AD000A617B70710F0A61BB70B881F991F5A957A
