:100000000C9465030C9482030C9482030C94820379
:100010000C9482030C9482030C9482030C9482034C
:100020000C9482030C9482030C9482030C9482033C
:100030000C9482030C9482030C940B040C948203A2
:100040000C9482030C9482030C94EB1F0C94820397
:100050000C94B01F0C9482030C9482030C948203C2
:100060000C9482030C9482030C9482030C948203FC
:100070000C9482030C9482030C9482030C948203EC
:100080000C9482030C9482030C9482030C948203DC
:100090000C9482030C9482030C9482030C948203CC
:1000A0000C9482030C9482030C9482030C948203BC
:1000B0000C9482033A00206F3A200057796B7279D2
:1000C000746F20737465726F77616E6965207A3A18
:1000D0002000FF4142434400000043444547484953
:1000E0004A352B6370696E3F00000000000000007D
:1000F0002B636E6D693D322C312C322C31002B6D0F
:100100006F72696E673D3100000000002B636C69FF
:10011000703D31000000000000002B646465743DF8
:10012000312C31302C3100002B63616C6D3D31007E
:100130000000000000002B6372736C3D3100000072
:10014000000000002B637573643D31000000000067
:1001500000002B637062773D32362C223122000082
:100160002B636C74733D30000000000000002B63B3
:100170006D69633D302C3135002B636D6764613DE3
:1001800036002B6370696E3D223139373622002BE1
:100190006966633D322C32002B63706D733D2253D0
:1001A0004D222C22534D222C22534D22002B6364CE
:1001B000736362002B63636C6B3F002B636F707320
:1001C0003F002B637062723D3236002B63726567AD
:1001D0003F002B637371002B7674733D3100610017
:1001E00068002B434D54493A002B636D67643D0012
:1001F0002B636D67723D002B636D67733D002B436E
:100200005553443A002B434D54493A002B44544D26
:10021000463A002B434C49503A003E002B434D4791
:10022000523A002B434F50533A002B435245473A22
:10023000002B4353513A002B4350494E3A2052452C
:10024000414459002B43434C4B3A00206F3A200065
:1002500057796B7279746F20737465726F77616E02
:100260006965207A3A20004E6F74696679204F4E96
:100270003A20004E6F74696679204F4646004E6FF3
:1002800074696679204F4646004E6F74696679201E
:100290004F4E3A2000303031414520426C6164209D
:1002A00050616D69656369007777772E736F6E664D
:1002B000792E706C00576C61637A79204F55542009
:1002C0006E613A200057796C61637A79204F5554FA
:1002D000207A613A200057796C61637A6F6E7920D9
:1002E00028426973746162696C6E79290A00576CDF
:1002F00061637A6F6E792028426973746162696CF8
:100300006E79290A00437A6173204F55543A2000D0
:100310002044544D460020534D530020534D53006C
:1003200020434C495000537465726F77616E696564
:100330003A20005075626C69637A6E790A005072D7
:10034000797761746E790A00547279623A200055A7
:100350007A79746B6F776E6963792000557A797456
:100360006B6F776E6963793A2000506F7A696F6DB1
:100370002047534D3A200041432D323030302D4438
:10038000544D462D460A002B435553443A002B4307
:100390004D53204552524F523A002B434D45204574
:1003A00052524F523A0042555359004E4F20444941
:1003B000414C544F4E45004E4F2043415252494507
:1003C00052002B434D54493A002B44544D463A00B9
:1003D0002B434C49503A004D4F20434F4E4E45431E
:1003E000544544004D4F2052494E47004552524F0C
:1003F00052002B434D47533A005472796220736583
:10040000727769736F777920616B7479776E790091
:100410004F4646004F4E004F464600414C4C00436D
:100420003344340004434F444500000000000341BE
:1004300044440000000000000344454C000000005C
:10044000000004585858580000000000065245505B
:100450004F52540000000455534552000000000064
:10046000044F50454E000000000005434C4F5345DB
:100470000000000004434C49500000000000044408
:10048000544D460000000000035345540000000096
:1004900000000454494D45000000000006534B5233
:1004A0005942410000000544454255470000000004
:1004B00003535542000000000000054D594E554DB4
:1004C00000000000045553534400000000000343A3
:1004D0004F4E000000000000024F4E0000000000E0
:1004E000000005544F474C45000000000352535490
:1004F00000000000000008534D5320434C495000B9
:1005000003534D53000000000000045354414E00BB
:10051000000000000454454348000000000003535D
:100520005953000000000000303132333435363783
:1005300038392B2A232121003031323334353637F4
:100540003839414243444546003F3F3F3F3F3F3FEC
:100550003F3F3F0A3F3F0D3F3F3F3F3F3F3F3F3F12
:100560003F3F3F3F3F3F3F3F3F2021222302252681
:100570002728292A2B2C2D2E2F3031323334353693
:100580003738393A3B3C3D3E3F00414243444546C3
:100590004748494A4B4C4D4E4F5051525354555673
:1005A0005758595A3F3F3F3F113F61626364656648
:1005B0006768696A6B6C6D6E6F7071727374757653
:1005C0007778797A3F3F3F3F3F3F3F3F3F3F3F3F55
:1005D0003F3F3F3F3F3F3F3F3F3F3F3F3F3F3F3F2B
:1005E0003F3F3F3F3F3F3F3F3F3F403F0124033FAF
:1005F0005F3F3F3F3F3F3F3F3F3F3F3F3F3F3F3FEB
:100600003F3F3F3F3F3F3F3F603F3F3F3F5B0E1C11
:10061000093F1F3F3F3F3F3F3F3F5D3F3F3F3F5C05
:100620003F0B3F3F3F5E3F3F1E7F3F3F3F7B0F1DE6
:100630003F04053F3F073F3F3F3F7D083F3F3F7C33
:100640003F0C063F3F7E3F3F3F40A324A5E8E9F92A
:10065000ECF2C70AD8F80DC5E53F5F3F3F3F3F3F8B
:100660003F3F3F3F3FC6E6DFC920212223A4252686
:100670002728292A2B2C2D2E2F3031323334353692
:100680003738393A3B3C3D3E3FA141424344454621
:100690004748494A4B4C4D4E4F5051525354555672
:1006A0005758595AC4D6D1DCA7BF616263646566E6
:1006B0006768696A6B6C6D6E6F7071727374757652
:1006C0007778797AE4F6F1FCE00011241FBECFEFD1
:1006D000D8E0DEBFCDBF12E0A0E0B1E0E8E7FEE683
:1006E00002C005900D92AC36B107D9F728E0ACE610
:1006F000B2E001C01D92A337B207E1F70E944C2F70
:100700000C940F370C9400001092940210929302F4
:100710001092920208958091AC0295EB980F8C5E36
:10072000943108F083E30C9454288091C70290918F
:10073000C8028F3F980729F001969093C8028093D2
:10074000C7028AE080937E0210927D021092190403
:100750000E94840383E30C945428CF93DF93D0E06A
:10076000C0E06FEFCE010E94A32E0E94C02E88230E
:10077000E1F3CE018F709927892B09F4A895219672
:10078000CD3E84E3D80769F7DF91CF910895BC018E
:100790008CE494E00C9453338FEF9FE80197F1F7CA
:1007A00000C000008FEF9FE80197F1F700C0000044
:1007B0008FEF9FE80197F1F700C000008FEF9FE8EF
:1007C0000197F1F700C000008FEF9FE80197F1F764
:1007D00000C00000A89508958091C1028F5F843603
:1007E00018F48093C10208951092C1028091C00252
:1007F00091E0811190E09093C002811102C0409875
:100800000895409A089580913004807F11F4409AB1
:1008100008954098089578940F920FB60F921F9202
:1008200011242F938F939F93EF93FF9380917502E1
:100830008F5F80937502823128F0109275028FEFDE
:10084000809377024B9B57C000B601FC16C0809185
:10085000D302811112C01092E3051092E2051092AA
:10086000F20580B7826080BFF8948091C1008068F3
:100870008093C10078940000439832992FC0F89477
:100880008091C10086FF29C08091C1008F7B809339
:10089000C10078948091D4028823C9F08091D2025B
:1008A000811104C08091AC028D3289F41092D4027F
:1008B0008091E6059091E705FC01E156F94F208112
:1008C00001969093E7058093E6052093C600F8947F
:1008D0008091C10080648093C10078948FEF8093F1
:1008E0007802FF91EF919F918F912F911F900F9020
:1008F0000FBE0F901895439AF8948091C1008F73A2
:100900008093C10080B78D7F80BF78940000E6CFD0
:100910000F931F93CF93DF938C01DC01CD91DC917A
:100920004FE050E067E773E0CE010E9412336AE6C1
:1009300073E0CE010F960E94263380910901803228
:1009400010F5909174029923F1F06B96B4E68B9FA9
:10095000C00111246FE170E00E94AD30CB014AE08C
:10096000BE010E94D93309900020E9F7FE013197BA
:1009700085E281931082D801ED93FC93DF91CF91B2
:100980001F910F9108958DE28B8F8C8FFE017E96C3
:100990008D8FF0CF8F929F92AF92BF92CF92DF92C6
:1009A000EF92FF920F931F93CF93DF938C01FC0183
:1009B000C081D1816CE573E0CE010E94263309909D
:1009C0000020E9F7219788E0882E912CD12CC12CAA
:1009D000F12CE12CB12CA12CC6018F719927892B08
:1009E00021F4C114D10409F0A895C4010E94F52E88
:1009F0008F3F91F1FFEFAF1ABF0AEFEFCE1ADE0A79
:100A0000F5E08F0E911C84ECC81689E0D80621F71A
:100A10004AE0BE01C5010E94D93309900020E9F7E0
:100A200021978FE289934AE0BE01C7010E94D93322
:100A300009900020E9F72197F801D183C083DF9165
:100A4000CF911F910F91FF90EF90DF90CF90BF90CB
:100A5000AF909F908F9008958FEFE81AF80ACDCF4E
:100A6000CF92DF92EF92FF920F931F93CF93DF937A
:100A70008C01FC01C081D1814CE050E06FE473E057
:100A8000CE010E9412332C9688E0E82EF12CD12C56
:100A9000C12CC7010E94F52E8F3F59F1C394F5E098
:100AA000EF0EF11C8CEDE81680E3F80691F74AE0B2
:100AB000BE018C2D90E00E94D93309900020E9F707
:100AC00021978FE289934AE0BE018D2D90E00E942C
:100AD000D93309900020E9F72197F801D183C08329
:100AE000DF91CF911F910F91FF90EF90DF90CF900A
:100AF0000895D394D4CFAF92BF92CF92DF92EF926A
:100B0000FF920F931F93CF93DF9300D0CDB7DEB743
:100B1000A8958EEF95E09A838983CE0101960E9475
:100B20008804E981FA81CF0101969A8389831AE0CA
:100B30001083E981FA811082CE0101960E94CA04D5
:100B4000E981FA81CF0101969A8389831083E98133
:100B5000FA81108268E473E089819A810E942633C9
:100B600089819A8106969A838983209100016EE398
:100B700073E0222311F063E373E00E94263389813E
:100B80009A81FC0101900020E9F7CF0101979A8337
:100B9000898366E273E00E94263389819A810C96EC
:100BA0009A83898320910601222309F46CC060E2B4
:100BB00073E00E94263389819A81FC010190002014
:100BC000E9F7CF0101979A838983209105016BE1B1
:100BD00073E0211160C0E981FA81CF0101969A8307
:100BE00089838AE08083E981FA81108209811A81F0
:100BF000F80101900020E9F78F01015011091A83D3
:100C00000983C0900101D0900201E0900301F090AF
:100C10000401FFE9CF16F6E8DF06F1E0EF06F10484
:100C200009F046C065E073E0C8010E94263389815F
:100C30009A810A969A8389832091EC026EEE72E083
:100C4000211102C066ED72E00E94263389819A81EB
:100C5000FC0101900020E9F7CF0101979A83898375
:100C600068EA72E089819A810E9426330F900F9082
:100C7000DF91CF911F910F91FF90EF90DF90CF9078
:100C8000BF90AF9008952091050166E173E02111B6
:100C900002C060E173E00E94263389819A81FC01E1
:100CA00001900020E9F7CF0101979A83898393CFC0
:100CB0008091EC0265EB72E0882391F060913A0438
:100CC00070913B0480913C0490913D042AE030E017
:100CD00040E050E00E94C13069017A0165EC72E0A9
:100CE000C8010E942633E981FA8101900020E9F7CA
:100CF000CF0101975C019A838983C701B60120E186
:100D00003EE040E050E00E94C130CB016CE370E077
:100D10000E949930F62E082F1AE0822F612F0E9430
:100D20008D30E92E4AE0B50190E00E94D933698107
:100D30007A81FB0101900020E9F7BF016150710940
:100D40007A8369834AE08E2D90E00E94D933E9814D
:100D5000FA8101900020E9F7DF011197FA83E98316
:100D600088E68C93E981FA81CF0101969A83898381
:100D70008AE3E82EE08229813A818F2D612F0E943B
:100D80008D30F92E4AE0B90190E00E94D933698193
:100D90007A81FB0101900020E9F7BF0161507109E0
:100DA0007A8369834AE08F2D90E00E94D933E981EC
:100DB000FA8101900020E9F7DF011197FA83E983B6
:100DC0008DE68C93E981FA81CF0101969A8389831C
:100DD000E08229813A81802F612F0E948D30092F76
:100DE0004AE0B90190E00E94D93369817A81FB0120
:100DF00001900020E9F7BF01615071097A8369838E
:100E00004AE0802F90E00E94D933E981FA81019075
:100E10000020E9F7DF011197FA83E98383E78C93D8
:100E2000E981FA81CF0101969A8389831083E98150
:100E3000FA81108215CF1092EC0210923A041092AF
:100E40003B0410923C0410923D045D9808958091FB
:100E5000850290918602892BA1F58AE090E090931B
:100E60008602809385022091010130910201409118
:100E70000301509104012F3986E8380781E04807C3
:100E8000510581F481E09091EC02911180E0809312
:100E9000EC0210923A0410923B0410923C0410921F
:100EA0003D0408958FEF8093EC02AAE0B0E00E9429
:100EB000E93060933A0470933B0480933C04909330
:100EC0003D0408950895CF92DF92EF92FF920F9321
:100ED0001F93CF93DF93CDB7DEB766970FB6F89425
:100EE000DEBF0FBECDBF1092FC07A8958FEF809399
:100EF000940210929302109292028CE597E00E9465
:100F00007925182F80918E02811134C08091D502ED
:100F10001F928F938091D6021F928F938091D70258
:100F20001F928F9380E391E09F938F938AE091E0EB
:100F30009F938F930E9423348091D5021F928F93A9
:100F40008091D6021F928F938091D7021F928F9328
:100F50008FE391E09F938F9389E198E09F938F9324
:100F60000E9423348FE90E9442280FB6F894DEBF16
:100F70000FBECDBF10928E0280916F028111109230
:100F80006F028CEF810F8230C8F48091CF028C30D9
:100F9000A8F00E948B030E9495030E94840366962A
:100FA0000FB6F894DEBF0FBECDBFDF91CF911F917A
:100FB0000F91FF90EF90DF90CF9008958091A30262
:100FC0008111E7CFEFE0F8E020E09191992329F03B
:100FD0008F5F9457923008F42F5F98E0E931F9075A
:100FE000A1F78332B0F62630A0F61131B0F6E12F2A
:100FF000F0E0EF5EF84C0C94E3308091050188231B
:1010000061F280910001813039F165EE73E0FB01FE
:1010100001900020E9F7BF0161507109AE014F5FF7
:101020005F4F85EE93E00E94AD2808E010E0B80124
:10103000CE0101960E947A2981110EC00B5F1F4FCD
:101040000C3DF0E31F0799F781E080937E02109238
:101050007D0210921904A1CF80916E028111F4CF0C
:1010600065EE73E08EE194E00E94A9330E942707A9
:10107000EBCF80916D02811115C080916E028823A3
:1010800089F065E972E08EEF95E00E94263365EE07
:1010900073E08AEF92E00E94A93384E70E9442281D
:1010A00084E1D3CF8091CF028F5F8093CF0282EC17
:1010B00091E09093CE028093CD0265EE73E08AEFCB
:1010C00092E00E94A933A8950E947B0584E70E94C4
:1010D000422882E0BACF65EE73E08AEF92E00E9488
:1010E000A93308E010E0F12CE12CC8010E94F52E94
:1010F0008F3F19F08FEFE81AF80A0B5F1F4F0C3D76
:1011000090E3190791F700911E04002319F16EE195
:1011100074E0FB0101900020E9F7BF016150710903
:10112000AE014F5F5F4F8EE194E00E94AD2898E0E2
:10113000C92ED12CB601CE0101960E947A29082F22
:10114000811183C0F5E0CF0ED11C8CEDC81680E371
:10115000D80681F78091E503882311F165EE73E0ED
:10116000FB0101900020E9F7BF0161507109AE0158
:101170004F5F5F4F85EE93E00E94AD2888E0C82E58
:10118000D12CB601CE0101960E947A2981115FC04F
:10119000F5E0CF0ED11C9CEDC91690E3D90689F776
:1011A00090E02091E503A6E1B1E0222311F0A5EE45
:1011B000B3E010E020911E04E6E1F1E0222311F0FB
:1011C000EEE1F4E0209105016BE672E0222311F0DC
:1011D00068E171E02091060142E251E0222311F022
:1011E0004DE151E020910001222399F12CE231E000
:1011F0009F938F93BF93AF931F930F93FF93EF939F
:10120000FF92EF927F936F935F934F933F932F9350
:1012100082E691E09F938F931F9281EA8F938EEFE6
:1012200095E09F938F930E94F33384E70E944228B6
:1012300082E080937E0210927D02109219040FB614
:10124000F894DEBF0FBECDBFA8CE0FEF83CF8FEFD8
:10125000A7CF27E231E0CCCF8091CF028F5F809380
:10126000CF0282EC91E09093CE028093CD0265EEA6
:1012700073E08AEF92E00E94A93366EF73E0FB010E
:1012800001900020E9F7BF0161507109AE014E5E87
:101290005F4F86EF93E00E94AD2808E010E0B801B0
:1012A000CE0142960E947A29F82E81113CC00B5F34
:1012B0001F4F0C3DF0E31F0791F741E1BE016F5F47
:1012C0007F4FCE0142960E94F628BE016F5F7F4F8E
:1012D0008EEF95E00E94A93367E971E08EEF95E00B
:1012E0000E948A336AE971E0F11002C06DE971E091
:1012F0008EEF95E00E948A3384E70E94422882E0C4
:1013000080937E0210927D021092190480913B0816
:101310009091E202892B90913C08892B09F03DCEF7
:101320000E944A2F3ACEFF24FA94C7CF65EE73E0AD
:101330008AEF92E00E94A9336CEB71E08EEF95E0AA
:101340000E94A933C3CE8091CF028F5F8093CF02DA
:1013500082EC91E09093CE028093CD0265EE73E033
:101360008AEF92E00E94A9331092E4031092E30303
:101370008AE2ADCE65EE73E08AEF92E00E94A93377
:101380001092E4031092E30389E2A1CE63E282E0CB
:101390000E948B28811101CE89E180937E021092F8
:1013A0007D02109219040E94AD0383E00E9442283E
:1013B000F4CD65EE73E08AEF92E00E94A93380914C
:1013C000E002882331F08091FD0769E872E0811125
:1013D00018C06EE772E08EEF95E00E94263376CE5D
:1013E00065EE73E08AEF92E00E94A93363E772E052
:1013F000F2CF65EE73E08AEF92E00E94A93367E6D0
:1014000072E08EEF95E00E9426336DEF77E08EEF6D
:1014100095E00E948A335ACE65EE71E085EE93E046
:101420000E94BF33892B09F444C040918702509138
:1014300088026091890270918A0240348DE05807D9
:1014400083E06807710588F580E49DE0A3E0B0E0E3
:10145000841B950BA60BB70BBF93AF939F938F93F2
:101460001F9283E08F938DE08F9380E48F937F931F
:101470006F935F934F931F9285E18F931F9286E046
:101480008F931F928DE18F9382EF91E09F938F93C3
:101490008EEF95E09F938F930E94233465EE73E067
:1014A0008AEF92E00E94A933C0CE80E090E0DC0198
:1014B000D3CF85E0CACD83E0C8CD8091BF029091A3
:1014C000390490FF06C0883C88F48F5F8093BF0288
:1014D0000895883C60F063E282E00E948B288111CD
:1014E00003C083E00E9442281092BF020895823315
:1014F000D8F363E282E00E948B288111F5CF82E06D
:10150000F1CFCF93DF9380916E02882321F08091F9
:101510006D02882389F18091060181112FC080918D
:101520000501811129C080910001813021F48FEFE4
:10153000DF91CF91089580911E048823E9F06EE138
:1015400074E0FB0101900020E9F7BF0161507109CF
:101550004DE358E08EE194E00E94AD28C8E0D0E071
:10156000BE018DE398E00E947A298111E0CF259693
:10157000CC3DF0E3DF07A1F780E0DACF80910001F6
:101580008130A9F280911E048823B1F36EE174E0EA
:10159000FB0101900020E9F7BF01615071094DE3A3
:1015A00058E08EE194E00E94AD28C8E0D0E0BE0192
:1015B0008DE398E00E947A298111B9CF2596CC3D20
:1015C000F0E3DF07A1F7D8CF8CE38093AE0210924F
:1015D000A7021092A6021092A0021092A1021092ED
:1015E00095028091CC02882309F456C08091FD07B2
:1015F000882309F44FC06DEF77E08AEF92E00E94F4
:10160000A93360E572E08EEF95E00E9426336EE12B
:1016100074E08EEF95E00E948A336BE472E08EEF07
:1016200095E00E941B338EEF95E0FC0101900020B5
:10163000E9F7CF018F5F9540FC01E250FA4F90919E
:101640000A019083E1E0E80FF0E0E250FA4F909158
:101650000B019083E2E0E80FF0E0E250FA4F9AE3EA
:101660009083E3E0E80FF0E0E250FA4F90910D0133
:101670009083E4E0E80FF0E0E250FA4F90910E0121
:1016800090838B5FE82FF0E0E250FA4F108284E7FE
:101690000E9442281092CC0210921E0408958CE3FE
:1016A0008093AE0210926C02089510924904109239
:1016B000A7021092A6021092AB021092AA021092F8
:1016C000AC021092E1058CE38093AE021092A3026B
:1016D00008950E94550B1092AB021092AA0210922C
:1016E000AC021092FD05109217041092E1051092C1
:1016F00048041092A80210926C021092A40208955D
:101700000E94690B86E9809308011092D202109220
:10171000D10210929C0210929B021092EF02109242
:101720009A0210929902109295021092A90283E6F1
:101730008093090162E78FE50E9468286FE38BE2DE
:101740000E94682869E480E40E94682866E784E7CC
:101750000E9468281092740208958091D3028D30FF
:1017600051F41092A20210926C021092A30286E42D
:101770008093AE0208958091D302863059F520916E
:10178000A2022F5F2093A2028091DB029091DC02E3
:10179000853032E0930761F08A3331E0930741F0FE
:1017A000833032E0930721F080519240029770F429
:1017B0008CE38093AE028091A302223080F11092DC
:1017C000A20210926C021092A30208958CE38093FF
:1017D000AE02F5CF8091D302843021F58CE3809363
:1017E000AE021092E10580914E048E3331F4809167
:1017F000E2059091E3050A9720F08091A302811100
:1018000007C01092A20210926C020E94800BDBCFE4
:101810009091A2029F5F9093A202923080F60E9464
:101820004228D1CF8091D3028530B9F48091DD0276
:101830009091DE028A30910539F09C012D7F2D3088
:10184000310511F04E9769F41092A2028CE3809357
:10185000AE0210926C020C94800B8091D3028091A6
:10186000D30208950F931F93CF93DF93D091D302A8
:10187000C091AC02CF3309F4C7C008F070C0C633C2
:1018800009F429C238F5C03309F4C8C288F4CD324E
:1018900009F4B4C0CF3209F437C11092AB021092F0
:1018A000AA021092AC02DF91CF911F910F9108957F
:1018B000C33309F44DC1C53381F7D13009F4B5C242
:1018C000809118048F5F80931804833008F0ADC2B4
:1018D0008C2F7BC1CA3309F49FC188F4C73309F444
:1018E00002C2C833D1F688E3D13009F0F6C081E0F6
:1018F0000E94E40A1092A80210924904CECFCC3381
:1019000009F467C108F49CC1CE3339F6D13029F609
:101910008AE292E00E94C703FC01892B09F4BDCF43
:1019200027812C3209F06CC1379680818C3229F0E6
:1019300081818C3209F066C131964AE050E070E056
:1019400060E0CF0101960E940331662329F08DEFFC
:10195000860F823008F058C10E94800B9ECFCB3496
:1019600058F5C73408F0A9CFC23409F4A6CFE8F47B
:10197000C03409F494C0C13409F08FCF80E3D13072
:1019800009F4ABC0D63009F002C18091DB0290911E
:10199000DC028A3321E0920721F08530924009F081
:1019A0007CCF84E18093AE02D5C0C33409F4F1C08A
:1019B000C53409F482CF71CFC33790F4CF3508F422
:1019C000C2C1D63009F000C28091DB029091DC02E6
:1019D0008134914009F4FBC18C2F0E944228FCC144
:1019E000C73709F4FBC1CE3909F057CF8AE192E03D
:1019F0000E94C703892B09F0AFCF5FCF8EE20E9410
:101A000042281092960249CFD13009F046CF84E4A3
:101A100092E00E94C703009709F43FCF62E270E0B2
:101A20000E949533009709F438CFEC01219662E2C9
:101A300070E0CE010E9495338C01892B09F42DCFE3
:101A40006CE270E0CE010E949533009709F425CF37
:101A5000EC012196C017D10708F01FCF6AE370E0B0
:101A6000CE010E949533009709F417CF8017910794
:101A700008F013CFFE0101900020E9F73197EC1B2D
:101A8000FD0B389708F409CF88E0FE01AAE0B1E029
:101A900001900D928A95E1F710921201FECED1309D
:101AA00099F487E392E00E94C703892B59F08FEFE6
:101AB0008093D1021092DF0283E30E9442281092A9
:101AC000BE02EBCE8FE2F9CFD53051F48091DD022A
:101AD0009091DE020E9731F480E40E944228DDCE20
:101AE000D43021F08091D3028038B1F78091BE02CA
:101AF0008F5F8093BE02843118F00E94800BDFCF8D
:101B000084E18093AE02E8CFD13061F48FEF80930F
:101B1000D1021092DF0283E30E94422882E3809385
:101B2000AE02BBCED53079F48091DD029091DE0219
:101B30008031910521F48FEF8093DF02AECE0E97B6
:101B400021F48FE2CACFD430E1F38091D302F9CFF0
:101B5000D13011F481E4C1CFD63089F48091DB0219
:101B60009091DC028A3321E0920721F08530924087
:101B700009F093CE8CE38093AE0283E3AECFD430F2
:101B8000E1F38091D302803809F087CEF6CF8AE066
:101B900009CFD13049F0D53081F48091DD029091A8
:101BA000DE020397029748F48091A9020E9442281E
:101BB0001092A902109218040AC0809118048F5F35
:101BC00080931804833018F483E40E94422882E052
:101BD000A6CFD13089F481E392E00E94C703009739
:101BE00009F45BCE4AE050E070E060E006960E94A7
:101BF00003316093090151CE83E6809309014DCEF4
:101C0000389693CE329699CE6B7F613009F045CEEF
:101C10008FEF8093740241CED13049F0D53051F42A
:101C20008091DD029091DE024597029718F41092A0
:101C30009C0233CE80919C028F5F80939C022DCEBC
:101C4000D13009F042C046E050E063E272E08EE439
:101C500094E00E944533892BC1F583E292E00E9413
:101C6000C7036CE270E00E949533009771F16CE25B
:101C700070E00E949533009741F162E270E00E94AB
:101C80009533009711F18C010F5F1F4F62E270E0F6
:101C9000C8010E9495330097C1F008171907A9F0F1
:101CA000801B910B8C30910514F08BE090E0EC01DF
:101CB000DD27AE01B8018FEE92E00E947A33C15168
:101CC000DD4F188210929B02E8CD80919B028F5FBE
:101CD00080939B02E2CDD63009F479CF86E3D130F0
:101CE00009F475CF72CFD13021F08091D3028C30BE
:101CF000A1F48FEF8093A80210921804809106013E
:101D00008111CBCD8CE291E0909384028093830289
:101D100084E18093AE0286E4E0CED43021F080915D
:101D2000D302803849F4809118048F5F809318049F
:101D3000833010F487E3D1CED33011F41092A8028F
:101D400010921804AACDD130A9F58CE192E00E943E
:101D5000C7036AE070E00E949533009741F1EC01FF
:101D600021966DE070E0CE010E9495330097F9F066
:101D70008C1B9D0B97FD019695958795893CA8F442
:101D80008093A5024BE153E06091A502CE010E9431
:101D9000702B83E70E9442288091AC028C5E0E94E7
:101DA00042288FEF8093A40278CD88ECE9CF10927F
:101DB000A40273CDD63021F01092A4028CE3AFCEF2
:101DC0008C2F0E944228F8CFD43009F405CE8091A0
:101DD000D302803809F400CE89E1A1CED43029F0B5
:101DE0008091D302803809F0ABCF109249048091E2
:101DF00018048F5F80931804833010F487E76DCE4A
:101E00001092180480E00E94E40A1092A802109236
:101E100049041092A7021092A6023FCDD13029F0BA
:101E200080E30E94422884E17ACE8091A9020E9438
:101E300042288091A9028B54843108F0B9CE1092C7
:101E4000A402B6CE0F931F93CF93DF938091D3025A
:101E50008091D302803821F08091AD02882381F0F7
:101E600080E88093D3020E94320C82E38093AE021A
:101E70008FEF8093AD02DF91CF911F910F91089565
:101E80008091D302813829F52091DD053091DE055E
:101E90008091E2059091E3052817390761F440919C
:101EA000DD055091DE056FE976E08CE494E00E9458
:101EB0006D33892B01F38091E1058111DCCF80E83E
:101EC0008093D3028FEF8093AD0282E38093AE02C2
:101ED000D2CF8091D3028A3009F044C010921E0400
:101EE00083E192E00E94C70362E270E00E949533B2
:101EF000009739F18C010F5F1F4F62E270E0C8015B
:101F00000E9495330097E9F0EC01C01BD10BC03162
:101F1000C0F4DD27AE01B8018EE194E00E947A336F
:101F2000C25EDB4F188280919B02811110929B024E
:101F300080910901882311F0833619F480E18093A0
:101F4000090189E30E9454288091AC028B548431AA
:101F500010F41092A4021092AB021092AA021092F6
:101F6000AC0289CF8091D302833089F480E00E9453
:101F7000E40A1092A802109249041092A70210924B
:101F8000A6028091AC02873709F075CFE4CF80912B
:101F9000D302823039F58091AC028737D1F40E94A8
:101FA000320C8091AC028737A1F48091A00281119C
:101FB0000BC08AE58093A1028FEF809349041092B1
:101FC000A7021092A60257CF8093A1021092A002FE
:101FD000F3CF10921E0489E3DF91CF911F910F91EF
:101FE0000C9454288CE092E00E94C703009799F06B
:101FF000FC01379681918032E9F3909106019111AD
:1020000007C0813329F40E9427078BE080931904CD
:102010001092D30230CF8091D3028C3071F4809132
:102020000601882309F427CF1092A80288E3DF91E4
:10203000CF911F910F910C9442288091D302893047
:1020400061F48091AC02873711F40E94320C80E079
:102050000E94E40A10924904B2CF8091D3028730E3
:1020600081F38091D302883029F585E092E00E94C7
:10207000C7036CE270E00E9495330097A1F04AE03C
:1020800050E070E060E001960E9413329B01215005
:1020900031092431310538F48AE4860F0E94422840
:1020A00081E08093AE028091AC028B54843108F0C1
:1020B000E2CE4FCF8091D3028E3009F04CC084E144
:1020C0008093AE028091AC028B54843140F4109224
:1020D000A4021092AB021092AA021092AC028EEFF0
:1020E00091E00E94C70362E270E00E94953300977E
:1020F00009F4C1CE8C010F5F1F4F62E270E0C8018E
:102100000E949533009709F4B6CE20918D022223C8
:1021100009F4B1CEEC01C01BD10BC13AD10510F0CE
:10212000C0EAD0E0AE01B8018EEF95E00E94B03376
:10213000C250DA4F188265EE73E08AEF92E00E9497
:10214000A93384E70E94422810928D0210928C02DB
:1021500010928B0290CE8091A30281110E94AD0B50
:102160008091E2059091E305892B09F484CE80915A
:10217000D302882309F47FCEDF91CF911F910F9175
:102180000C94320CCF93C82FC901C11106C0862F01
:102190000E9442288C2FCF9108951092AB0210928A
:1021A000AA026093AC024093A9020E947E1FCFEF67
:1021B000F1CF0F93CF93DF939FEF9093E1051092B0
:1021C000480481114BC085E080937E0210927D020D
:1021D0001092190484E78093A30290931B034AE0B2
:1021E0006DE378E08BE193E00E94F62800E020E0C8
:1021F0004DE358E06AEF72E08BE193E00E94B12C6E
:102200004EEF55E0FA0101900020E9F7AF0141508F
:1022100051096EEF75E00E94F92A8B51934080932B
:10222000A502C091A502C15080911B03C81B46E0C6
:1022300050E067EF71E081EA96E00E9412334AE0D5
:1022400067EA76E08C2F90E00E94D9338AEF809382
:102250000701DF91CF910F910C949B1F85E0809334
:102260007E0210927D021092190485E78093A302EA
:102270000091FE0590931B034AE06DE378E08BE14B
:1022800093E00E94F62820E04DE358E06AEF72E008
:102290008BE193E00E94B12CEC014091FF0550E0EE
:1022A00060E076E00E947A338091FF058C0F9D2FCD
:1022B000911DB3CFEF92FF920F931F93CF93DF93B4
:1022C00000D00F92CDB7DEB73091A40280914904BF
:1022D0005091AC029091AE024091A302432B482B47
:1022E0002091A802242B252B292BC9F56091E1050B
:1022F00021E0611101C020E0211132C06091C100D4
:1023000066FD2EC06091D202662351F16091D30226
:1023100001E0611125C010910F08E12EF12C1E3350
:1023200009F465C208F06BC0133309F466C330F5D5
:102330001E3209F446C3B0F41C3209F4FCC208F0A2
:1023400013C31B3209F46FC380E00F900F900F90FE
:10235000DF91CF911F910F91FF90EF90089521E0B1
:1023600000E0D9CF103309F4D6C208F434C31133D6
:1023700009F479C3123341F78FEFE7CF183309F42B
:10238000B7C1B0F4163309F4B9C208F0C0C11533AF
:10239000D9F680913B089091E202892B90913C08FC
:1023A000892B21F40E944A2F811149C385E330C152
:1023B0001A3309F43DC208F46CC11B3309F45AC244
:1023C0001C3309F0C1CF4091A6025091A702452BC2
:1023D00061F49091ED02892B41F48091E105909197
:1023E0006C02892B282B09F4F4C1809109018336F2
:1023F00011F08111C1CF80E180930901BDCF133766
:1024000008F074C01F3508F01BC1163409F493C1DD
:10241000B0F41F3309F450C220EC210FE22FF0E09A
:10242000E852FF4F45915491FEE02F9F90011124F7
:102430002E513F4F612F802F0E94C2109DCF1B3421
:1024400058F380917402882309F47EC02091A6027B
:102450003091A702232B09F077C0942B80916C0256
:10246000982B09F071C0533309F46EC080913B087A
:102470009091E202892B90913C08892B09F064C06D
:102480000E944A2F882309F45FC061E081E00E9426
:102490008B28811159C066E784E70E948B2881113F
:1024A00053C069E387E30E948B2881114DC000234C
:1024B00009F44AC01092AB021092AA021093AC0227
:1024C0008FEF8093A40246E050E060EF71E081EA74
:1024D00096E00E9412334AE067EA76E0C7018A5428
:1024E00091090E94D9330E949B1F46CF163709F4E9
:1024F00049C080F4133701F54EEE52E065EE73E00B
:102500008BE193E00E948D2B009709F053C010924D
:10251000A40232CF193709F47EC01F3909F4ADC2C5
:10252000173709F011CF20917402222319F0992353
:1025300009F41AC187E76CC02091A6023091A70266
:10254000232B11F4892B11F0812F62C080913B085D
:102550009091E202892B90913C08892BA9F70E9467
:102560004A2F882389F3002379F31092AB0210924B
:10257000AA021093AC0281E0153709F080E00E94B6
:10258000D910FACE1092E1054091A5026BE173E0FB
:102590008FE996E00E94CD2C8091A50290E0880FF3
:1025A000991FFC01E156F94F2AE1208301960E9410
:1025B000651FE2CE9E012F5F3F4FAE014E5F5F4F22
:1025C000BE016D5F7F4F0E94E62B2B812093DA02C4
:1025D0002A812093D90229812093D8029E012F5F5E
:1025E0003F4FAE014E5F5F4FBE016D5F7F4F0E9458
:1025F000092C2B812093D7022A812093D60229818E
:102600002093D50241EA6CE577E00E94A42A89E78D
:102610000E944228B1CE80913B089091E202892B22
:1026200090913C08892B99F70E944A2F882379F3CF
:1026300010927E0282E0809319040E94630767CFA4
:102640004091A6025091A702452B09F07DCF832B24
:102650003091ED02832B09F077CF8091E105811154
:1026600073CF002309F470CF1092AB021092AA022C
:102670001093AC0246E050E069EE71E081EA96E02A
:102680000E9412334AE067EA76E0C7018E5591094D
:1026900028CF80913B089091E202892B90913C08D1
:1026A000892B11F089E3B4CF0E944A2F8823D1F3FC
:1026B00010927E0282E0809319040E94810A88238E
:1026C00071F08091060190910501892B79F082EEDD
:1026D00091E00E94C703892B11F40E94270788E329
:1026E0000E9442288FEF809395022FCE87E3F8CF88
:1026F000011102C088E38CCF1092AB021092AA02A3
:102700001093AC0280EE91E00E947E1F35CE809146
:10271000060190910501892B69F787E3002309F4ED
:1027200077CF1092AB021092AA0287E38093AC029B
:102730008EED91E0E9CF992311F086E469CF809185
:10274000C10086FDFACF8091D2028823B1F3809137
:10275000D302582B91F71092AB021092AA02109359
:10276000AC0287ED91E0D0CF811106CE002309F4B1
:10277000E1CE1092AB021092AA0287E78093AC02DE
:1027800085E18093190484E68093A10666EF73E0E7
:1027900082EA96E00E94A93386EF93E0FC01019063
:1027A0000020E9F7CF01875F93408F5F90E0FC0145
:1027B000EF55F94F2BE320838E55994FFC01108282
:1027C0000E949B1F8CE291E09093A7028093A60247
:1027D000D3CD8CE3002309F41BCF1092AB021092EF
:1027E000AA028CE38093AC0282ED91E08DCF409100
:1027F000A6025091A702452B09F0BECD9091ED02A3
:10280000892B09F0B9CD8091E10590916C02892B5B
:10281000282B09F0B1CD8EE3002309F4F9CE1092F4
:10282000AB021092AA021093AC028BEC91E06CCF39
:102830004091A6025091A702452B59F49091ED02C8
:10284000892B39F48091E10590916C02892B282B1A
:1028500019F010929C0290CD8AE3002309F4D8CE9F
:102860001092AB021092AA028AE38093AC0282EC2F
:1028700091E04ACF4091A6025091A702452B59F40E
:102880009091ED02892B39F48091E10590916C02D1
:10289000892B282B19F010929B026ECD8BE300231D
:1028A00009F4B6CE1092AB021092AA028BE3809389
:1028B000AC028BEB91E028CF4091A6025091A70289
:1028C000452B09F059CD9091ED02892B09F054CD9B
:1028D0008091E10590916C02892B282B09F04CCD59
:1028E0008FE3002309F494CE1092AB021092AA0257
:1028F0008FE38093AC0284EB91E006CF86E3002364
:1029000009F486CE1092AB021092AA021093AC0288
:102910008DEA91E0F9CE80E3002309F479CE10929C
:10292000AB021092AA021093AC0282E48093A90237
:1029300088E991E0E9CE8DE20E94422884E180930B
:10294000ED021092E3051092E2051092F20580B7B5
:10295000826080BFF8948091C10080688093C1003C
:1029600078940000439808CD80919602811104CD9F
:102970008091ED02882311F08DE24ACE8091C10052
:1029800086FDFACF1092E3051092E2051092F2054F
:1029900080B7826080BFF8948091C1008068809386
:1029A000C1007894000043981092AB021092AA02E2
:1029B0008DE28093AC0284E1809396028FE891E0EF
:1029C000A3CE8FEF8093D20280E40E94422888E257
:1029D0008093AE02D1CC8FE2002309F419CE10927D
:1029E000AB021092AA028FE28093AC0262E871E01F
:1029F00081EA96E00E94263376CD8091BD0288233D
:102A000011F081E405CE8FEF8093BD0283E30023B4
:102A100009F4FECD1092AB021092AA021093AC0200
:102A200089E791E071CE0E94220F8091D302813814
:102A300019F084E1809307011092D3029DCC00230A
:102A400009F4B4CC1092AB021092AA0285E38093F1
:102A5000AC026EE671E081EA96E00E94263381E3E3
:102A60008093A90240CD8091D102882309F484CCBF
:102A700086E30E94422882E3CBCD80913B0890916F
:102A8000E202892B90913C08892B21F40E944A2F65
:102A9000811102C08FE9BCCD0023E1F31092AB029B
:102AA0001092AA028FE98093AC0269E178E081EA92
:102AB00096E00E94A93317CD8091AE02882339F0A9
:102AC00081508093AE02811102C01092AD028091BC
:102AD000700290917102009729F001979093710212
:102AE000809370028091830290918402009771F02C
:102AF00001979093840280938302892B39F480910B
:102B0000A802882319F088E30E9442288091960247
:102B10008823C1F0815080939602811113C01092D6
:102B2000AB021092AA021092AC028DE20E944228DF
:102B30001092D402F8948091C1008F7B8093C100E1
:102B4000789400000E943121882319F08CE20E94C1
:102B500042288091A102882341F081508093A102F4
:102B6000811103C088E30E9442288091A6029091BF
:102B7000A702009771F001979093A7028093A60295
:102B8000892B39F482E00E94E40A1092A802109284
:102B900049048091BC028F5F8093BC02803309F0AE
:102BA0004EC08CE30E9454288091ED02882319F0D6
:102BB00081508093ED0280917402882309F45EC0F5
:102BC00080910901833611F0811158C080919D02D6
:102BD00090919E02883522E0920750F40196883544
:102BE00022E0920709F443C090939E0280939D02D5
:102BF00080919C02863020F480919B02843110F0F9
:102C00000E94800B80917302882339F08150809359
:102C10007302811102C00E94800B809174028111A5
:102C200032C08091990290919A02019690939A02F3
:102C300080939902813B944050F10C94800B843333
:102C400011F48EE3AFCF883311F48BE3ABCF8C3329
:102C500011F48AE3A7CF803508F4A6CF80917402DF
:102C60001092BC02882309F49FCF8FE39BCF109270
:102C70009E0210929D020E94800BBACF10929E027B
:102C800010929D02B5CF10929A0210929902089567
:102C90008091D302882309F457C08BE20E94422816
:102CA00080914804882329F086E70E9442281092E8
:102CB000480480917402882309F455C08091A302CE
:102CC000882309F450C08091BA029091BB0201960A
:102CD000883823E1920708F03CC09093BB028093B0
:102CE000BA028091AC029091A802882309F4A8C08E
:102CF0002091B90282136AC091116AC08D3231F0FD
:102D00009AE8980F44EF51E0923010F440EE5EE202
:102D10009CE8980F923010F44CED55E02091B702EA
:102D20003091B8022F5F3F4F2417350708F53093D5
:102D3000B8022093B7021092B6021092B5028091A9
:102D4000AC028093B90208950E9482238111A5CF1D
:102D5000A7CF1092BB021092BA0284E08093D302F4
:102D60000E94AD0BBECF1092BB021092BA02B9CF37
:102D70001092B8021092B7028E3929F1883301F10E
:102D800091ED980F9230E0F09BEC980F9230C0F0EC
:102D900090EC980F9A30A0F095EB980F983280F055
:102DA0001092A9020E94690B1092AB021092AA0223
:102DB0008EE98093AC021092A1060E949B1FBBCFAC
:102DC0008093A902EFCF0E94800BB5CF9923C1F168
:102DD0008091D302811134C0F8948091E2059091E2
:102DE000E30578942091B5023091B602281739078F
:102DF00020F49093B6028093B5028091B502909131
:102E0000B6020A9708F49BCF8091B7029091B8025E
:102E10000196843F21E0920728F49093B8028093B2
:102E2000B7028DCF1092B8021092B70281E00E94D3
:102E3000E40A1092B6021092B5020E94800B7FCF76
:102E40001092B8021092B702992309F474CF77CF89
:102E50003F924F925F926F927F928F929F92AF922A
:102E6000BF92CF92DF92EF92FF920F931F93CF9377
:102E7000DF93CDB7DEB7E1970FB6F894DEBF0FBE94
:102E8000CDBF90910F088091A4022091A302822BC4
:102E900020914904822B2091A802822B2091AC0220
:102EA000822B2091AE02822B81F48091E105811169
:102EB0000CC08091C10086FD08C08091D202882399
:102EC00021F02091D30281E0211180E0993241F07C
:102ED00010E09A3209F094C08111ABC08AE203C0BD
:102EE000811104C089E20E94422880C080916C0256
:102EF00090913B08892B9091E202892B90913C089C
:102F0000892B81F70E944A2F882361F38AE28093FC
:102F1000FE052FEFE22E25E0F22E35E0D32E43E220
:102F2000C42E5AE0B52E8091E3039091E4038F7193
:102F30009927892B09F4A8952091E3033091E403A4
:102F4000D29EC001D39E900D112408960E94F52EAA
:102F5000182F2091E3033091E4038F3FC1F1D29EFB
:102F6000C001D39E900D112441E1B70108960E9443
:102F700056298701080F111DF801C0827801F2E07F
:102F8000EF0EF11CF801B1828091E3039091E4030C
:102F900001969093E4038093E30398012D5E3F4FE5
:102FA0002E59364068F4843C994008F4BCCFF801AF
:102FB000128284E70E94422881E080936C0216C04E
:102FC000843C9940A0F789E20E944228F0CF2F5F0D
:102FD0003F4F3093E4032093E303243C394008F44B
:102FE000A2CF2EEFE21625E0F20611F41FEF08C083
:102FF000F701108284E70E94422881E080936C02EE
:10300000812FE1960FB6F894DEBF0FBECDBFDF91E2
:10301000CF911F910F91FF90EF90DF90CF90BF90D5
:10302000AF909F908F907F906F905F904F903F9068
:10303000089580916C0290913B08892B9091E20257
:10304000892B90913C08892B09F048CF0E944A2F88
:10305000882309F443CF1092FE050EEF15E085E0BA
:10306000382E6E01F5E1CF0ED11CCE0186963C01C3
:1030700098E2492E92E0592EFE0131967F01809010
:10308000E3039090E403F4EC8F16F9E09F0628F038
:103090000E5F154009F08DCFA9CFC4018F7199271C
:1030A000892B09F4A895389C5001399CB00C112447
:1030B00048E0A40EB11CC5010E94F52E8F3F09F413
:1030C00068C08FEF881A980A41E1B601C5010E94D5
:1030D0005629F60101900020E9F73197EC19FD0916
:1030E000B601EA3018F039976E0F7F1FC3010E94B6
:1030F000A9337F926F929F928F925F924F92FF922D
:10310000EF920E942334F70101900020E9F73197F4
:10311000EE19FF09E00FF11F0FB6F894DEBF0FBEE6
:10312000CDBFEE59F64040F1E5E00E3F1E07C1F479
:10313000B7018EEF95E00E94A9338AE20E944228EF
:1031400084E70E94422881E080936C028091E3032F
:103150009091E40301969093E4038093E30346CFB8
:103160008AE20E94422884E70E94422881E08093FC
:103170006C02F80110823ACFB701C8010E94A9334E
:10318000F70101900020E9F73197EE19FF090E0FC2
:103190001F1F8091E3039091E40301969093E40351
:1031A0008093E3036CCF08950E94F61D0E945D0A90
:1031B0000C949F1ECF93DF930F92CDB7DEB7809113
:1031C0003B089091E202892B90913C08892B59F59C
:1031D0000E944A2F882339F1198291E08091EC02F4
:1031E000811101C090E081E040913A0450913B048C
:1031F00060913C0470913D04452B462B472B09F40C
:1032000080E0981711F081E0898385E090E00E94CA
:10321000F52E9981891739F041E065E070E0CE0123
:1032200001960E942D2A0F90DF91CF9108950E9460
:10323000D4180E945C1580911904882331F08150C4
:10324000809319048111B3C0409A8091CD0290916E
:10325000CE02009739F001979093CE028093CD0271
:10326000892B11F41092CF028091850290918602F1
:10327000892B49F080918502909186020197909365
:1032800086028093850280918D028823F1F08091DF
:103290008B0290918C020097C1F0019790938C0261
:1032A00080938B02892B89F465EE73E08AEF92E0BC
:1032B0000E94A9336FE272E08EEF95E00E94A9337D
:1032C00084E70E94422810928D0280916F02882329
:1032D00009F40FC18091B402811111C08091740270
:1032E000882369F08091B2029091B3028A3F9105E0
:1032F00008F05FC001969093B3028093B202809170
:103300000F08882309F488C09CE8980F923008F0D1
:103310007CC09091CB02981378C08091C9029091A3
:10332000CA028639910508F048C001969093CA02F6
:103330008093C9028091A302882309F45FC0809121
:10334000C3029091C4028C3221E0920708F067C05A
:1033500001969093C4028093C302809194028823C3
:1033600009F486C08091920290919302843691056F
:1033700008F073C08091920290919302019690930D
:1033800093028093920280917E02882309F48BC07D
:1033900080917D02823008F47CC0409A80917D0249
:1033A0008F5F863008F077C080937D020895409843
:1033B0004CCF8FEF8093B402A2CF65E784E70E94E1
:1033C00068288091C5029091C6028F3F980729F026
:1033D00001969093C6028093C50283E30E9454280D
:1033E0001092CF021092CE021092CD021092CA0219
:1033F0001092C9021092CB021092A3021092C40242
:103400001092C3021092C202A8CF8093CB021092F6
:10341000CA021092C9028ECF1092CB02F8CF10923E
:10342000C4021092C3020E9484031092A30210925D
:10343000A2021092E10510926C028091C2028F3FAD
:1034400029F41092C2020E94800B87CF8F5F809375
:10345000C202833008F481CFF4CF1092910282E34C
:1034600090E09093900280938F020E9484038BCF10
:1034700080918F0290919002892B09F484CF8091E2
:103480008F029091900201979093900280938F0207
:103490007ACF409883CF10927D0280917E02815036
:1034A00080937E02089580917402811102C0409839
:1034B00019C0809119048111FACF809109018031DE
:1034C000A8F48091B1028F5F823370F48093B102CF
:1034D0008091B102883259F38B3249F38E52843095
:1034E00030F3409A0C94DA1881E0F0CF1092B102D8
:1034F000EFCF1092B4021092B3021092B202FFCE3C
:103500000E94951E0E9448160C94D229F89480912E
:103510006E008D7F80936E00789400008091780219
:10352000811109C0F89480916E00826080936E00D2
:103530007894000008951092780280917702882391
:1035400029F081E08093760210927702F8948091BE
:103550006E00826080936E00789400008091760205
:1035600080FF33C08091B0028F5F8A3079F1809301
:10357000B0020000F89400B601FE26C08091C100A0
:103580008F778093C10078948091E2059091E30554
:10359000892B11F18091F2058F5F8093F2058333BF
:1035A000D8F0439A8091C1008F778093C10080B793
:1035B0008D7F80BF10924B0410924A041092E00558
:1035C0001092DF0510924704789408951092B0028B
:1035D00083E080937602CDCFF8948091C10080681B
:1035E0008093C10078940000EFCFA89582E084BD5D
:1035F00083E085BD8FE387BDEEE6F0E080818260E9
:10360000808383B7817F83BF08951F93CF93DF9318
:1036100044E050E061E070E08AE194E00E94122F03
:1036200080911A0481508E3F00F181E480933D081F
:1036300080931A0482E480933E0880931B0483E401
:1036400080933F0880931C0484E480934008809317
:103650001D040E944A2F8823E1F344E050E061E01A
:1036600070E08AE194E00E94182F8DEE90E30E94B2
:10367000192E853A09F050C081EE90E30E94F52E94
:103680008F3F09F455C08093000182EE90E30E94C1
:10369000F52E8F3F09F459C08093060186E090E033
:1036A0000E94F52E8F3F09F45DC0809305018CEDDB
:1036B00090E30E94F52ED82F8DED90E30E94F52E19
:1036C000182F8EED90E30E94F52EC82F8FED90E31A
:1036D0000E94F52E282F9D2F91239C2398239F3FF6
:1036E00009F04DC082E090E0A0E0B0E080930101DD
:1036F00090930201A0930301B09304011092CF02B2
:103700001092CE021092CD021092A30210926F027C
:10371000DF91CF911F9108950E94AD0365EA8DEE70
:1037200090E30E94A32E0E94C02E8823E1F3A4CF31
:1037300081E0809300010E944A2F8823E1F361E039
:1037400081EE90E30E94FE2EA0CF81E080930601DF
:103750000E944A2F8823E1F361E082EE90E30E9409
:10376000FE2E9CCF81E0809305010E944A2F882382
:10377000E1F361E086E090E00E94FE2E98CF8C2F6E
:1037800090E0B0E0A0E0DC0199278827912B8D2BF9
:10379000B22B8093010190930201A0930301B09397
:1037A0000401AC01BD0141505109610971094F3952
:1037B00056486140710508F095CF8F399648A14071
:1037C000B10509F09BCF85E090E00E94F52E8F3F78
:1037D00069F0817081958093EC0210923A04109206
:1037E0003B0410923C0410923D0488CF1092EC02EE
:1037F000F4CFCF92DF92EF92FF920F931F93CF936C
:10380000DF93CDB7DEB761970FB6F894DEBF0FBE7A
:10381000CDBF10910F08143209F410C1D0F4133247
:1038200008F0D2C0133008F088C0123009F457C035
:1038300010E0812F61960FB6F894DEBF0FBECDBFAA
:10384000DF91CF911F910F91FF90EF90DF90CF907C
:103850000895183228F4163208F43AC11FEFE9CF60
:10386000183231F766EF73E0FB0101900020E9F7B1
:10387000BF01615071094DE358E086EF93E00E946B
:10388000AD2808E010E0B8018DE398E00E947A29A5
:10389000882309F48DC11092F6034DE358E067EFD9
:1038A00073E086EF93E00E94AD289DE3C92E98E077
:1038B000D92EF12CE12CF60161916F01C701800F27
:1038C000911F0E94A32E0E94C02E8823E1F3FFEFD8
:1038D000EF1AFF0A25E0E216F10469F7BFCF8091E5
:1038E0003B089091E202892B90913C08892B21F0B2
:1038F00082E00E944228B2CF0E944A2F8823C1F35F
:1039000081E480933D0880931A0482E480933E080A
:1039100080931B0483E480933F0880931C0484E419
:103920008093400880931D0464E081E090E00E9451
:103930004E2A83E38093190491CF80913B089091A4
:10394000E202892B90913C08892B11F0812FD1CF75
:103950000E944A2F8823D1F30DEF010F40E250E07F
:103960006FEF70E08DE398E00E948333011120C077
:1039700081E480933E0880931A0482E480933F0898
:1039800080931B0483E48093400880931C0484E4A8
:103990008093410880931D04109242081092EC021B
:1039A00010923A0410923B0410923C0410923D0491
:1039B00060E220E2029FC00111240E944E2A81E0B1
:1039C000810F0E944228B5CF00913B088091E2020E
:1039D000082B80913C08082B11F083E28ACF0E94CB
:1039E0004A2F8823D1F3F12CE12CC7010E94F52E38
:1039F000F701EE52FF4FE4918E130FEF8FEFE81AAD
:103A0000F80A96E0E916F10481F758E0E52EF12C6A
:103A1000C7010E94F52E182F8F3F51F4EFEFEE1AD9
:103A2000FE0AFCEDEF16F0E3FF0691F7002311F01C
:103A300083E05FCF0E94051B409AFBCE10913B08AC
:103A40008091E202182B80913C08182B11F084E23F
:103A500050CF0E944A2F8823D1F36EE174E0CE014B
:103A600001967C010E94A933F70101900020E9F73B
:103A7000BF01615071094DE358E0C7010E94AD28B4
:103A800080910001813091F048E0E42EF12CB701E3
:103A90008DE398E00E947A29811114C0F5E0EF0EC1
:103AA000F11C2CEDE21620E3F20689F78091060165
:103AB000882309F4D3CE80910001813029F40E943B
:103AC0002707CCCE1FEFF2CF112309F4C7CEF7CFD3
:103AD00066EF73E0FB0101900020E9F7BF01615040
:103AE00071094DE358E086EF93E00E94AD2838E07D
:103AF000E32EF12C10E000E0C8018F719927892B8B
:103B000021F40115110509F0A895B7018DE398E09E
:103B10000E947A298111A2CE0F5F1F4FF5E0EF0EB0
:103B2000F11C043C29E0120739F766EF73E0FB0152
:103B300001900020E9F7BF01615071094DE358E0A1
:103B400086EF93E00E94AD2888E0E82EF12C10E08B
:103B500000E00AC00F5F1F4FF5E0EF0EF11C043CC0
:103B600029E0120709F47ACEC8018F719927892BB1
:103B700009F4A895C7010E94F52E8F3F59F72DE350
:103B8000C22E28E0D22E10E000E0F60161916F0114
:103B9000C8018E0D9F1D0E94A32E0E94C02E882357
:103BA000E1F3A8950F5F1F4F0530110571F756CE51
:103BB0000B5F1F4F0C3D80E3180709F064CE4ECE1B
:103BC0000E945A11811106C00E94F91B811102C086
:103BD0000E9428170C948028E82FF0E0E05DFB4F4E
:103BE0009081907F81E009F080E008959091390400
:103BF000892F8D7F8093390480913004807F90FDE0
:103C000056C081114BC08091420490914304A09111
:103C10004404B091450440913E0450913F046091AA
:103C200040047091410484179507A607B70798F4DC
:103C30000196A11DB11D8093420490934304A0936B
:103C40004404B0934504481759076A077B0719F4E1
:103C500081E080933904809139049091460489175A
:103C600081F080934604982F92609093390480FDF0
:103C700053C01092420410924304109244041092D4
:103C8000450480912F04882341F0909139049D7F51
:103C900090933904815080932F0408951092420428
:103CA000109243041092440410924504D4CF882308
:103CB00051F18091350490913604A0913704B09170
:103CC0003804409131045091320460913304709172
:103CD000340484179507A607B70708F0BCCF0196F0
:103CE000A11DB11D8093350490933604A093370431
:103CF000B0933804481759076A077B0709F0ABCF20
:103D000010923904A8CF1092350410923604109204
:103D10003704109238049FCF109235041092360465
:103D20001092370410923804ACCF80913004189B65
:103D3000869581601899880F809330040895CF92FA
:103D4000DF92EF92FF9280913A0490913B04A09110
:103D50003C04B0913D042091EC020097A105B1050F
:103D6000A1F00197A109B10980933A0490933B0413
:103D7000A0933C04B0933D04892B8A2B8B2B29F410
:103D800081E0211180E08093EC028091EC02882395
:103D900009F442C08091D00281113EC0C0908702D8
:103DA000D0908802E0908902F0908A022FEFC2162C
:103DB000D206E206F20681F18FEFC81AD80AE80AA5
:103DC000F80AC0928702D0928802E0928902F092AB
:103DD0008A02C701B6012AE030E040E050E00E94CC
:103DE000C130672B682B692BB9F464EE70E38C2D1E
:103DF0000E945D2A65EE70E3809188020E945D2A30
:103E000066EE70E3809189020E945D2A67EE70E39E
:103E100080918A020E945D2A8091EC028093D002F8
:103E2000882369F08091870290918802A09189028D
:103E3000B0918A028032914AA740B10510F05D9896
:103E400001C05D9AFF90EF90DF90CF90089584E1DC
:103E500090E0A0E0B0E08093310490933204A0930E
:103E60003304B093340480933E0490933F04A093B2
:103E70004004B093410484EE90E30E94222F6F3FF0
:103E80002FEF72078207920749F0609387027093C1
:103E900088028093890290938A0208951092870283
:103EA000109288021092890210928A02089510924C
:103EB000460410923A0410923B0410923C04109273
:103EC0003D048EE180932F0408959093DE05809346
:103ED000DD051092E7051092E605E0ECF0E0808148
:103EE00080648083F894E1ECF0E0808180648083DA
:103EF000789400008FEF8093D4020895CF93DF93DE
:103F000021E420939F0624E52093A006A1EAB6E0D1
:103F1000FC0193E0981B892F8E0FED0124912D93C6
:103F2000211107C09DE0988390E0DF91CF910C9420
:103F3000651F3196F0CFEFE9F6E081E4808384E5F8
:103F4000818301900020E9F7CF01805A964099279C
:103F5000FC01E156F94F2DE0208301960C94651F7A
:103F600078942F932FB72F933F938F939F93EF9333
:103F7000FF932091E6053091E7058091DD05909152
:103F8000DE052817390788F0F8948091C1008F7BEF
:103F90008093C10078940000FF91EF919F918F91E1
:103FA0003F912F912FBF2F911895329910C080917A
:103FB000E6059091E705FC01E156F94F2081019655
:103FC0009093E7058093E6052093C600E5CF8FEF39
:103FD0008093D402E1CF8F938FB78F938091C100EC
:103FE0008F778093C10078948091C6000F924F9391
:103FF0001F9211242F933F93EF93FF93AF93BF939F
:104000009F932091E2053091E3058F3F09F4E8C0CA
:10401000ECE4F4E0A901203991E0390708F0CDC0C3
:104020002115310521F48A3009F04AC02CC0909145
:104030004C048D3009F59D30F9F09A30E9F09091FB
:104040004704911119C091E89093D302439AF894D0
:104050009091C1009F779093C10090B79D7F90BFD2
:104060007894000010924B0410924A041092E005DC
:104070001092DF051092470421153105A1F29081BD
:104080009D3089F61DC090914704911119C091E8A7
:104090009093D302439AF8949091C1009F779093A4
:1040A000C10090B79D7F90BF7894000010924B04A0
:1040B00010924A041092E0051092DF051092470416
:1040C0008F01A9014F5F5F4FDF01A20FB31F00B641
:1040D00001FE5DC02430310508F459C08A3009F072
:1040E00056C0BD0161507109EB0198819D3009F006
:1040F0004EC061507109EB0198819A3009F447C0B4
:1041000061507109EB0198819D3009F440C0EF01C5
:1041100091819A30E1F590819D30C9F56091DF057C
:104120007091E00570934B0460934A045093E0054E
:104130004093DF05909147049F5F909347046091FF
:10414000EE057091EF057093F1056093F0056091B5
:10415000EC057091ED057093EF056093EE056091AD
:10416000EA057091EB057093ED056093EC056091A5
:104170004A0470914B047093EB056093EA056091DB
:10418000DF057091E0057093E9056093E805909173
:10419000E105992361F02330310549F4803239F487
:1041A00090914E049E3319F49FEF909348048C93A2
:1041B0009A01E40FF51F10820FC030E020E080E884
:1041C0008093D30210924B0410924A041092E0059F
:1041D0001092DF05109247043093E3052093E20527
:1041E0001092F2059F91BF91AF91FF91EF913F9196
:1041F0002F911F904F9100B601FE08C0F894809156
:10420000C10080688093C100789400000F908F9166
:104210008FBF8F91189583E08093C4001092C500E2
:10422000E1ECF0E08081886180838BB18C7F8BB979
:104230005198429843983B98089599B1892F887076
:1042400093FF0EC0109208011092E3051092E20550
:10425000519A8BB183608BB93B9A439A429A8FEF04
:104260000895809108018823B9F191E0980F909307
:104270000801913A39F1A8F49F30D9F030F4923026
:10428000D1F09330E9F080E0089587528430D8F778
:104290000E941D2191E0811101C090E0892F81953C
:1042A00008959F3FA0F4953F98F7983C49F0973DBB
:1042B00051F75498E8CF54980E941D2181110BC0EA
:1042C000549AE1CF1092D2021092D102DCCF81E059
:1042D00080930801D8CF8FEF0895FC014217130691
:1042E00009F048F4DB01A45BBB4F90E0491305C023
:1042F000942F81E0491380E008952D918491281333
:10430000F8CF31969F5FF2CF8FB7F89410924B049D
:1043100010924A041092E0051092DF058FBF0895B5
:104320002F923F924F925F926F927F928F929F92C5
:10433000AF92BF92CF92DF92EF92FF920F931F93B3
:10434000CF93DF93C8E047E0842E59E0952E63E0D9
:10435000762E78E0672EE5E15E2EF2E04F2EADE09E
:104360003A2E222423949FB7F89480914704811118
:1043700028C09FBFC091FD05CC2301F1C150C0935F
:10438000FD05D0E0CD50DA4F88818093D3021882AA
:10439000C091D3028C2FDF91CF911F910F91FF908D
:1043A000EF90DF90CF90BF90AF909F908F907F90D5
:1043B0006F905F904F903F902F9008951092D3028E
:1043C000E9CF853008F084E0E82FF0E0EE0FFF1F22
:1043D000E851FA4FC080D180118210828150E82FBD
:1043E000F0E0EE0FFF1FE851FA4F208131818093FA
:1043F00047049FBFC216D306A8F58091FD058A30F9
:1044000010F09092FD0589010C191D090450110945
:10441000760142E0E40EF11CC901845B9B4FFC0174
:104420003397B0803197A080F601E45BFB4FD581D4
:10443000EBE4BE121BC0FFE4AF1245C10597FC01BF
:104440008081803209F45AC12630310508F456C102
:10445000E091FD0581E08E0F8093FD05F0E0ED50C9
:10446000FA4F2082C15009F07ECF94CFD734A1F407
:10447000980146E0B70182EF93E00E946D21882306
:1044800059F0E091FD0581E08E0F8093FD05F0E08D
:10449000ED50FA4F3082E6CFFFE4AF1215C098011D
:1044A00045E0B7018CEE93E00E946D21882361F016
:1044B000E091FD0581E08E0F8093FD05F0E0ED5069
:1044C000FA4F44E04083CECF87E4B81215C098017C
:1044D00047E0B70184EE93E00E946D21882309F440
:1044E000F5C0E091FD0581E08E0F8093FD05F0E0C1
:1044F000ED50FA4F4082B6CFE4E4BE12E7C0980117
:104500004CE0B70187ED93E00E946D21882309F408
:10451000DDC0E091FD0581E08E0F8093FD05F0E0A8
:10452000ED50FA4F8CE080839DCFDD34A1F49801EB
:1045300046E0B70189EC93E00E946D21882309F1E0
:10454000E091FD0581E08E0F8093FD05F0E0ED50D8
:10455000FA4F508287CFD435A1F4980146E0B701D5
:1045600082EC93E00E946D21882359F0E091FD05D3
:1045700081E08E0F8093FD05F0E0ED50FA4F6082F0
:1045800071CFF5E4AF1214C098014AE0B70187EB90
:1045900093E00E946D21882359F0E091FD0581E0B0
:1045A0008E0F8093FD05F0E0ED50FA4F70825ACFE8
:1045B00045E4B41214C098014BE0B7018BEA93E0D4
:1045C0000E946D21882311F1E091FD0581E08E0F9D
:1045D0008093FD05F0E0ED50FA4F908243CF89E5DE
:1045E000B81214C0980144E0B70186EA93E00E9433
:1045F0006D21882359F0E091FD0581E08E0F8093B5
:10460000FD05F0E0ED50FA4F80822CCFD53411F546
:1046100098014BE0B7018AE993E00E946D2188235D
:1046200009F420CF4AE050E070E060E0C601865A0D
:104630009B4F0E9413327093DE026093DD02E09183
:10464000FD0581E08E0F8093FD05F0E0ED50FA4FFF
:1046500045E038CFD33509F005CF98014BE0B701DD
:104660008EE893E00E946D218823C1F04AE050E07B
:1046700070E060E0C601865A9B4F0E94133270932F
:10468000DC026093DB02E091FD0581E08E0F8093F8
:10469000FD05F0E0ED50FA4F86E045CF980146E089
:1046A000B70187E893E00E946D21882309F4DACEF0
:1046B000E091FD0581E08E0F8093FD05F0E0ED5067
:1046C000FA4F8EE030CFD73409F4D2CED93409F086
:1046D0002CCF980146E0B70180ED93E00E946D2158
:1046E000882309F44ECFE091FD0581E08E0F809381
:1046F000FD05F0E0ED50FA4F8AE015CFD73409F010
:10470000CECEB6CECF930E9490218823D9F080914F
:10471000D302843021F0833111F0813089F4CFB796
:10472000F8940E948421439AF8948091C1008F7775
:104730008093C10080B78D7F80BF78940000CFBF89
:104740008091D302CF910895AF92BF92CF92DF9222
:10475000EF92FF920F931F93CF93DF936C01B62ECE
:10476000A42EF601C081D181888190E00E94F432AC
:10477000892B39F5FAE0BF9E800111240C5D1B4F97
:10478000BA1498F4F801E490F12CB8016F5F7F4FF0
:10479000A701CE010E940533065F1F4F892BB1F49C
:1047A000CE0DDF1DF601D183C0838B2DDF91CF911C
:1047B0001F910F91FF90EF90DF90CF90BF90AF903F
:1047C00008952196F601D183C083CBCFB394D8CF7F
:1047D000FF920F931F93CF93DF938C01F801C08159
:1047E000D181F8808F2D90E00E94F432892BF1F472
:1047F00080911A04F8121FC0998180911B049813AC
:104800001AC09A8180911C04981315C09B818091D5
:104810001D04981310C02496F801D183C0838FEF34
:10482000DF91CF911F910F91FF9008952196F8018C
:10483000D183C083D3CF80E0F3CF44E050E06FE179
:1048400074E00E94053321E0892B09F020E0822FDB
:1048500008950C94A423EF92FF920F931F93CF938C
:10486000DF93EC017B01088119814AE050E0BC0133
:10487000C8010E940331F7016083718382839383AF
:1048800081E0288139812017310709F480E0DF9128
:10489000CF911F910F91FF90EF900895DF92EF92CB
:1048A000FF920F931F93CF93DF937C01D62EF701D6
:1048B000C081D181088110E0C8010E94F432892BA7
:1048C000A1F48D2D90E00E94FD320817190791F494
:1048D0002196F701D183C0838FEFDF91CF911F9194
:1048E0000F91FF90EF90DF9008952196F701D1830B
:1048F000C083DDCF80E0F1CFDF92EF92FF920F9384
:104900001F93CF93DF938C01D62EF801E080F180C6
:10491000CE2DDF2D899190E00E94F432892B89F40D
:104920008D2D90E00E94FD32982FF7018191882310
:1049300061F07F019813F9CFD801ED93FC938FEFCD
:1049400006C0D801CD93DC93E0CF9923A9F3DF9182
:10495000CF911F910F91FF90EF90DF900895CF922C
:10496000DF92EF92FF920F931F93CF93DF938C010F
:10497000E62ED72EF42EF801C081D181888190E0F7
:104980000E94F432892B89F4CE2DDD2DEF0C6E01BF
:10499000EC1210C0F6011082DF91CF911F910F91A0
:1049A000FF90EF90DF90CF9008952196D801CD939E
:1049B000DC93E1CFD801ED91FC91F0808F2D90E058
:1049C0000E94F432892B31F7F992FF2019F3D801B4
:1049D0008D919C91119701968D939C93D8CF8F9236
:1049E0009F92AF92BF92CF92DF92EF92FF920F937E
:1049F0001F93CF93DF93CDB7DEB764970FB6F894CC
:104A0000DEBF0FBECDBF7C016B01042FF701A0807C
:104A1000B180F501808190E00E94F432892B09F089
:104A200049C010E04501F50181915F01882349F0FB
:104A3000143138F48032B1F30E949A288D3009F095
:104A400040C0512F1A3008F059E0812F193008F476
:104A500089E08950990BA1E0B0E0AC0FBD1FA80F11
:104A6000B91FC60130E020E00150110B251718F4E2
:104A700020173107BCF1F601E50FF11D1082F60198
:104A80008081882321F0F701808291828FEF6496E4
:104A90000FB6F894DEBF0FBECDBFDF91CF911F914F
:104AA0000F91FF90EF90DF90CF90BF90AF909F90CD
:104AB0008F9008958FEFA81AB80AF701B182A082EB
:104AC000A5CFF5013197808190ED980F9A3008F0CD
:104AD000A9CFE1E0F0E0EC0FFD1FE10FF11D8083B5
:104AE0001F5FA0CF4D91FC014193CF012F5F3F4F3E
:104AF000BDCF9F92AF92BF92CF92DF92EF92FF9283
:104B00000F931F93CF93DF9300D000D000D00F926C
:104B1000CDB7DEB79F838E837C0182E3F701ADE3DF
:104B2000B8E001900D928A95E1F75701F501819166
:104B30008F0190E00E94F432892BE1F5CE010196BD
:104B40006C0185015C0184E0982E900EF801819142
:104B50008F01882349F090E00E94FD32F601819395
:104B60006F019012F3CF8FEF1D82882329F16EE43D
:104B700072E0C5010E94A033892BF1F465EE71E06B
:104B800085EE93E00E94BF33892BB1F010E1812FB5
:104B900027960FB6F894DEBF0FBECDBFDF91CF9141
:104BA0001F910F91FF90EF90DF90CF90BF90AF904B
:104BB0009F9008955801BACFCE0106960E94E8232F
:104BC0002E819F81811108C0822F0E941D24182FE1
:104BD0008823E9F21BE0DBCF022F192FF801819126
:104BE0008F01811110C04AE160E0CE0106960E945B
:104BF000A423182F8A3108F043C2E82FF0E0EE5DBD
:104C0000F84C0C94E33090E00E94FD32F8013197AB
:104C10008083E4CF0F5F1F4F1F830E830E811F81A0
:104C2000F801808190E00E94F432892B99F730E0FE
:104C300020E0C8018E199F09835C974FFC01E20FA9
:104C4000F31F40815FEB540F5A3128F040534A3034
:104C500010F012E09CCF2F5F3F4F2430310571F7E9
:104C6000FC01408151816281738140931A04509309
:104C70001B0460931C0470931D0444E061E070E029
:104C80000E942D2A13E083CF4EE066EF73E0CE0141
:104C900006960E94EF2481117ACF0E811F81F801C0
:104CA000808190E00E94F432892B69F443E050E067
:104CB0006BE174E0C8010E942D3318E0892B09F4E0
:104CC00066CF16E064CF0F5F1F4F1F830E83E5CFC3
:104CD0004EE066EF73E0CE0106960E94EF24882333
:104CE00009F4B7CF85E20E944228CCCF4EE066EFB0
:104CF00073E0CE0106960E94EF24882309F4A9CF21
:104D000088E2F1CF47E168E0CE0106960E94A42335
:104D1000883071F481E08093000161EE70E30E94BD
:104D20005D2A8FEF8093060162EE70E381E00EC092
:104D30008930C1F481E08093000161EE70E30E944C
:104D40005D2A1092060162EE70E380E00E945D2A07
:104D50001092050166E070E080E00E945D2A0E94EA
:104D60001B0790CF863191F481E08093000161EEC2
:104D700070E30E945D2A1092060162EE70E380E00B
:104D80000E945D2A8FEF8093050114C0853109F0E0
:104D900060CF81E08093000161EE70E30E945D2AA4
:104DA0001FEF1093060162EE70E381E00E945D2A1E
:104DB0001093050166E070E081E0CFCF47E168E045
:104DC000CE0106960E94A423883031F4109200018F
:104DD00061EE70E380E0A3CF893031F410920001DE
:104DE00061EE70E380E0ABCF863131F410920001C8
:104DF00061EE70E380E0BDCF853109F02ACF1092DB
:104E0000000161EE70E380E0C9CF19E0C0CE0F5F12
:104E10001F4F1F830E830E811F81F801F0808F2D9D
:104E200090E00E94F432892B91F7FF2009F411CF12
:104E300081E480939F0684E58093A0061F930F93DF
:104E400083E592E09F938F9381EA96E09F938F93FF
:104E50000E9423340E949B1F8FEF80938D028CE26F
:104E600091E090938C0280938B020F900F900F90A3
:104E70000F900F900F9006CF0F5F1F4F1F830E8371
:104E80000E811F81F801808190E00E94F432892B0D
:104E900099F743E050E067E174E0C8010E942D33C8
:104EA000892B21F41092E0021DE071CE4EE06DEFEF
:104EB00077E0CE0106960E94EF241CE0882309F4D7
:104EC00066CE8FEF8093E0021EE061CEB501CE0189
:104ED00006960E942B24882309F4BBCE8981482F93
:104EE0005A816B817C818A019B0101501109210942
:104EF00031090F3916482140310508F0AACEC0907B
:104F00000101D0900201E0900301F0900401409370
:104F100001015093020160930301709304016CED51
:104F200070E30E945D2A6DED70E3809102010E94A2
:104F30005D2A6EED70E3809103010E945D2A6FEDA2
:104F400070E3809104010E945D2A2FE9C21626E8D1
:104F5000D20621E0E206F104C9F489819A81AB818D
:104F6000BC818F399648A140B10581F065E070E0C1
:104F70008FEF0E945D2A1092EC0210923A04109278
:104F80003B0410923C0410923D045D980E941B0764
:104F90001FE0FDCD0F5F1F4F1F830E830E811F810A
:104FA000F801808190E00E94F432892B99F742E069
:104FB00050E064E174E0C8010E942D33892B21F593
:104FC0008FE996E8A1E0B0E080930101909302019F
:104FD000A0930301B09304016CED70E38FE90E948C
:104FE0005D2A6DED70E3809102010E945D2A6EEDF5
:104FF00070E3809103010E945D2A6FED70E3809160
:1050000004010E945D2AC2CF43E050E060E174E0F9
:10501000C8010E942D33892B09F01BCE82E090E05D
:10502000A0E0B0E08093010190930201A0930301FE
:10503000B09304016CED70E3D2CF88E198E00FB635
:10504000F894A895809360000FBE90936000FFCF06
:105050008FEF80936D0291E09093000180930601A1
:105060008093050165EE73E08AEF92E00E94A93318
:1050700069EF73E08EEF95E00E94263384E733CE2C
:1050800011E085CDEFE0F8E030E020E09191911162
:1050900005C0215F374FF901808308952F5F3F4F8F
:1050A0002A30310599F70895EFE0F8E030E020E08C
:1050B0009191981761F0911105C0215F374FF90167
:1050C000808308952F5F3F4F2A30310589F7089577
:1050D00090E0E92FF0E0E15FF74F2081281770F0B2
:1050E000621760F0292F293028F0109218089A30A2
:1050F00081F70895318131932F5FF5CF9F5FF7CF0F
:10510000EFE0F8E08181819388E0E831F807D1F79A
:10511000109218080895EFE0F8E02AE02E0F919120
:10512000981710F0691720F42E13F9CF80E0089536
:105130008FEF08958B3259F030F4833251F08A3278
:1051400051F08DE0089580538A30D8F708958AE0B1
:1051500008958CE008958BE00895AF92BF92CF92AE
:10516000DF92FF920F931F93CF93DF93182FEB01E2
:105170006A0145E050E06FEF70E0C6010E948333A2
:105180008C2F811B182F219700E0823058F4DF917B
:10519000CF911F910F91FF90DF90CF90BF90AF9074
:1051A0000895092F88810E949A28F82EF29480EFA2
:1051B000F822FE0182915F010E949A288F29113006
:1051C00061F4E5018F6010E091E0900FF601E00FCF
:1051D000F11D80831111E5CFDACF22971250F4CF61
:1051E000E82FF0E0E85DFA4F84910895CF93DF93C4
:1051F0009C01EB011882BC0180E0DB016F5F7F4FF7
:105200009C919F3F19F0853009F04AC0A217B3075F
:1052100009F44AC0642F70E090E0880F991F11973D
:105220006817790744F4DB011197B7FDDB01B595E9
:10523000A795A20FB31FEC918E2F8F708F3091F531
:10524000E295EF70F0E0E85DFA4F8491888388235F
:1052500019F02196119781E011961197A217B307C3
:10526000D8F0EC91EF70F0E0E85DFA4FE491E8835C
:10527000EE2311F021968F5F841771F0EC91E29587
:10528000EF70F0E0E85DFA4FE491E9938F5F481723
:1052900019F02A173B0709F71882DF91CF9108957B
:1052A0008F5FABCF80E0D8CF80E0F7CFFF920F9336
:1052B0001F93CF93DF9300D000D00F92CDB7DEB70E
:1052C0008B01F42E45E050E0BC01CE0101960E9416
:1052D000122F4F2DB801CE0101960E94F6280F9093
:1052E0000F900F900F900F90DF91CF911F910F9122
:1052F000FF9008950F931F93CF93DF93EC018B01E1
:1053000088818F3FF1F0CB010E94F52E8F3FC9F0CD
:10531000C8010E94F52E382F307F9991292F207FC8
:10532000303FA9F0203F99F032130BC08F709F706F
:105330008F3069F09F3059F0891303C00F5F1F4F02
:10534000E7CF80E0DF91CF911F910F9108958FEF0C
:10535000F9CF0F931F93CF93DF9300D000D00F921C
:10536000CDB7DEB78B01FC0101900020E9F7319742
:10537000BF01681B790B680F792F711DAE014F5F5C
:105380005F4F0E94AD28B801CE0101960E947A2994
:105390000F900F900F900F900F90DF91CF911F9172
:1053A0000F9108950F931F93CF930E944A2F882344
:1053B00081F180913B089091E202892B90913C0809
:1053C000892B39F1C091E1020C2F10E0809139084E
:1053D00090913A08800F911F0E94192EF801E35C0A
:1053E000F74F9081891301C0CF5F8091E202C81707
:1053F000A0F48C2F90E0FC01E35CF74F209139087A
:1054000030913A086081820F931F0E94A32EC093AF
:10541000E102CF911F910F91089580913B08109266
:105420003B088093E2022DE338E0F901882379F309
:105430009E2F921B981770F080916F0890917008C2
:1054400090933A088093390860913D080E94A32EFA
:10545000C0E0DDCF90A59193EBCF0F931F93CF9337
:105460008B01C42F4423B1F050E0BC018DE398E0E0
:105470000E947A3310933A08009339081092E1029F
:10548000C093E20260913D08C801CF911F910F9136
:105490000C94A32ECF911F910F910895662361F074
:1054A00090933A08809339081092E1026093E202E7
:1054B00060913D080C94A32E08951F93CF93DF9322
:1054C000182FEB01CB010E94F52E811791F010935C
:1054D0003D08D0933A08C09339081092E10281E068
:1054E0008093E202612FCE01DF91CF911F910C9446
:1054F000A32EDF91CF911F9108950F931F93CF9308
:10550000DF9300D000D0CDB7DEB78C0119821A82AC
:105510001B821C820E94F52E8983C80101960E947D
:10552000F52E8A83C80102960E94F52E8B8369812D
:105530007A818B819C810F900F900F900F90DF915B
:10554000CF911F910F910895DF92EF92FF920F93E9
:105550001F93CF93DF93DC011D91141710F01FEF01
:10556000140F862F072FC0E0D12C90E0D0E827E061
:1055700030E0C1130CC0C60FD72FD11D1882DF91A8
:10558000CF911F910F91FF90EF90DF9008954D2DD7
:1055900050E0EC91F0E0ED2EF12CE094F094EE214F
:1055A000FF2102C0EE0FFF1FDA94E2F7E90FF11DB1
:1055B000E75BF94F9491E82EF02EF70191937F016C
:1055C000CF5FFC2FF770DF2E89F0ED91ED23F0E037
:1055D000C901841B950B02C0F595E7958A95E2F702
:1055E0009E2FD695D0588E2D0F2DC3CF90E0D0E8AA
:1055F000FACFCF92DF92EF92FF920F931F93CF9348
:10560000DF93EC01461B570BDC014D933FEF340F4A
:1056100090E020E00FE710E087E04FEF50E0231725
:1056200038F188818770D1F0FB01E20FF11DE08134
:10563000F0E0E75BFA4F24914FE750E0092E02C0FB
:10564000440F551F0A94E2F7E22FF0E0E423F5231C
:1056500002C0F695E7959A95E2F7ED93CD01DF91BB
:10566000CF911F910F91FF90EF90DF90CF90089511
:105670006B01C20ED11CF601F080EF2DF0E0E75B6C
:10568000FA4FE4917801092E02C0EE0CFF1C0A9437
:10569000E2F7F0E0EE22FF22092E02C0F694E79432
:1056A0000A94E2F7F601F180EF2DF0E0E75BFA4FA4
:1056B000E491F82EF91A6A010F2C02C0D694C7940F
:1056C0000A94E2F7EC2101C0EE0FFA94EAF7EE2912
:1056D000ED939F5F973011F42F5F90E02F5F9FCF86
:1056E000FC01640F752F711D4617570709F40895C3
:1056F00090819A3370F49053292F2295207F9181C5
:105700009A3348F49053920FDA019D93AD0132968B
:10571000EBCF9753F1CF9753F6CF1F93CF93DF93F0
:10572000DC01EA018C91873C50F0DB011C928FEF89
:10573000888390E080E0DF91CF911F9108951882D7
:105740008C9190E00196A80FB91F8C918B7F11F07E
:105750008FEF888311963C911197313130F7FD011D
:10576000339612968C91982F9F7E41E0913809F0E4
:1057700040E0813921F48BE2DB018D93BD01562F8E
:10578000172F80E010C09081222311F0929531965E
:105790009F70905D411101C090E3A52FB12F9D93A3
:1057A0008F5F5A2F1B2F282F21708313ECCF680F88
:1057B000711DDB011C92211101C031978281882368
:1057C00011F08FEF8883CF010396B5CFFC01908154
:1057D000A92FAF708AE092959F70A89F900D112419
:1057E000DB019C939181692F6F7092959F70689FE8
:1057F000900D1124DA019C939281492F4F7092955C
:105800009F70489F900D1124D9019C93CF0103965E
:105810000895FC019081A92FAF708AE092959F7046
:10582000A89F900D1124DB019C939181692F6F70CB
:1058300092959F70689F900D1124DA019C9392813C
:10584000492F4F7092959F70489F900D1124D90158
:105850009C93CF0104960895CF93DF93DB012C91A5
:1058600061E82B3211F4119661E9FD0101900020ED
:10587000E9F73197EA1BFB0BEC01E11105C0199226
:10588000CE01DF91CF910895E883AC014E5F5F4F69
:105890006983CF019927019695958795D82F742F05
:1058A000C52F60E06D1303C0840F951FEACF2C91C4
:1058B000205311963C911197332359F0129632954B
:1058C000307F232BE72FFC2F21936F5F7E2FCF2F6D
:1058D000E9CF1196206FF6CFCF93DF93DB012C91A8
:1058E000211106C0FC011192CF01DF91CF910895E3
:1058F00061E82B3211F4119661E9FD01019000205D
:10590000E9F731979F012A1B3B0B33272F5F3F4F4E
:1059100035952795D22F41E0420FFC014083AC0121
:105920004E5F5F4F6183742FC52F60E0D61304C0B4
:10593000CA01820F931FD9CF8C91805311969C91ED
:105940001197992359F012969295907F892BE72F02
:10595000FC2F81936F5F7E2FCF2FE8CF1196806F42
:10596000F6CFEF92FF920F93CF937B01C22FBA0134
:105970000E946C2C21E1FC0120831182B701029668
:105980000E942C2CFC01C08301832AEA2283039607
:10599000CF910F91FF90EF900895CF93DF930F92E7
:1059A000CDB7DEB79C01CB01582F561B541720F002
:1059B0000F90DF91CF910895DC019D91892F807F19
:1059C000898382958983E981F0E0E85CFA4F8491CC
:1059D000F90180839F70E92FF0E0E85CFA4F849131
:1059E000F90181832E5F3F4FCD01DECF1092CD00B4
:1059F00087E08093CC0082E08093C80088E18093A8
:105A0000C90086E08093CA00239A24982C9A0895AE
:105A10009091C80095FFFCCF8093CE0008958091AF
:105A2000C80087FFFCCF8091CE0008958091C80008
:105A3000881F8827881F0895CF93DF93EC018991F1
:105A4000811103C0DF91CF9108950E94082DF7CFF7
:105A5000CF93DF938091EB02813061F48091C80095
:105A600087FF1BC00E940F2D8093EA0282E0809383
:105A7000EB0210C0823089F48091C80087FF0DC00E
:105A80000E940F2D9091EA020E94F52E0E94082D8F
:105A90001092EB02DF91CF9108958091E90281305D
:105AA00061F48091C80087FF4DC00E940F2D809344
:105AB000E80282E08093E902EDCF823051F48091D8
:105AC000C80087FF3FC00E940F2D8093E70283E04C
:105AD000F1CF8330B9F58091C80087FF33C00E94B1
