:100000000C9465030C9482030C9482030C94820379
:100010000C9482030C9482030C9482030C9482034C
:100020000C9482030C9482030C9482030C9482033C
:100030000C9482030C9482030C9472040C9482033B
:100040000C9482030C9482030C94E11F0C948203A1
:100050000C94A61F0C9482030C9482030C948203CC
:100060000C9482030C9482030C9482030C948203FC
:100070000C9482030C9482030C9482030C948203EC
:100080000C9482030C9482030C9482030C948203DC
:100090000C9482030C9482030C9482030C948203CC
:1000A0000C9482030C9482030C9482030C948203BC
:1000B0000C9482033A00206F3A200057796B7279D2
:1000C000746F20737465726F77616E6965207A3A18
:1000D0002000FF4142434400000043444547484953
:1000E0004A352B6370696E3F00000000000000007D
:1000F0002B636E6D693D322C312C322C31002B6D0F
:100100006F72696E673D3100000000002B636C69FF
:10011000703D31000000000000002B646465743DF8
:10012000312C31302C3100002B63616C6D3D31007E
:100130000000000000002B6372736C3D3100000072
:10014000000000002B637573643D31000000000067
:1001500000002B637062773D32362C223122000082
:100160002B636C74733D30000000000000002B63B3
:100170006D69633D302C3135002B636D6764613DE3
:1001800036002B6370696E3D223139373622002BE1
:100190006966633D322C32002B63706D733D2253D0
:1001A0004D222C22534D222C22534D22002B6364CE
:1001B000736362002B63636C6B3F002B636F707320
:1001C0003F002B637062723D3236002B63726567AD
:1001D0003F002B637371002B7674733D3100610017
:1001E00068002B434D54493A002B636D67643D0012
:1001F0002B636D67723D002B636D67733D002B436E
:100200005553443A002B434D54493A002B44544D26
:10021000463A002B434C49503A003E002B434D4791
:10022000523A002B434F50533A002B435245473A22
:10023000002B4353513A002B4350494E3A2052452C
:10024000414459002B43434C4B3A00206F3A200065
:1002500057796B7279746F20737465726F77616E02
:100260006965207A3A20004E6F74696679204F4E96
:100270003A20004E6F74696679204F4646004E6FF3
:1002800074696679204F4646004E6F74696679201E
:100290004F4E3A2000303031414520426C6164209D
:1002A00050616D69656369007777772E736F6E664D
:1002B000792E706C00576C61637A79204F55542009
:1002C0006E613A200057796C61637A79204F5554FA
:1002D000207A613A200057796C61637A6F6E7920D9
:1002E00028426973746162696C6E79290A00576CDF
:1002F00061637A6F6E792028426973746162696CF8
:100300006E79290A00437A6173204F55543A2000D0
:100310002044544D460020534D530020534D53006C
:1003200020434C495000537465726F77616E696564
:100330003A20005075626C69637A6E790A005072D7
:10034000797761746E790A00547279623A200055A7
:100350007A79746B6F776E6963792000557A797456
:100360006B6F776E6963793A2000506F7A696F6DB1
:100370002047534D3A200041432D323030302D4438
:10038000544D462D460A002B435553443A002B4307
:100390004D53204552524F523A002B434D45204574
:1003A00052524F523A0042555359004E4F20444941
:1003B000414C544F4E45004E4F2043415252494507
:1003C00052002B434D54493A002B44544D463A00B9
:1003D0002B434C49503A004D4F20434F4E4E45431E
:1003E000544544004D4F2052494E47004552524F0C
:1003F00052002B434D47533A005472796220736583
:10040000727769736F777920616B7479776E790091
:100410004F4646004F4E004F464600414C4C00436D
:100420003344340004434F444500000000000341BE
:1004300044440000000000000344454C000000005C
:10044000000004585858580000000000065245505B
:100450004F52540000000455534552000000000064
:10046000044F50454E000000000005434C4F5345DB
:100470000000000004434C49500000000000044408
:10048000544D460000000000035345540000000096
:1004900000000454494D45000000000006534B5233
:1004A0005942410000000544454255470000000004
:1004B00003535542000000000000054D594E554DB4
:1004C00000000000045553534400000000000343A3
:1004D0004F4E000000000000024F4E0000000000E0
:1004E000000005544F474C45000000000352535490
:1004F00000000000000008534D5320434C495000B9
:1005000003534D53000000000000045354414E00BB
:10051000000000000454454348000000000003535D
:100520005953000000000000303132333435363783
:1005300038392B2A232121003031323334353637F4
:100540003839414243444546003F3F3F3F3F3F3FEC
:100550003F3F3F0A3F3F0D3F3F3F3F3F3F3F3F3F12
:100560003F3F3F3F3F3F3F3F3F2021222302252681
:100570002728292A2B2C2D2E2F3031323334353693
:100580003738393A3B3C3D3E3F00414243444546C3
:100590004748494A4B4C4D4E4F5051525354555673
:1005A0005758595A3F3F3F3F113F61626364656648
:1005B0006768696A6B6C6D6E6F7071727374757653
:1005C0007778797A3F3F3F3F3F3F3F3F3F3F3F3F55
:1005D0003F3F3F3F3F3F3F3F3F3F3F3F3F3F3F3F2B
:1005E0003F3F3F3F3F3F3F3F3F3F403F0124033FAF
:1005F0005F3F3F3F3F3F3F3F3F3F3F3F3F3F3F3FEB
:100600003F3F3F3F3F3F3F3F603F3F3F3F5B0E1C11
:10061000093F1F3F3F3F3F3F3F3F5D3F3F3F3F5C05
:100620003F0B3F3F3F5E3F3F1E7F3F3F3F7B0F1DE6
:100630003F04053F3F073F3F3F3F7D083F3F3F7C33
:100640003F0C063F3F7E3F3F3F40A324A5E8E9F92A
:10065000ECF2C70AD8F80DC5E53F5F3F3F3F3F3F8B
:100660003F3F3F3F3FC6E6DFC920212223A4252686
:100670002728292A2B2C2D2E2F3031323334353692
:100680003738393A3B3C3D3E3FA141424344454621
:100690004748494A4B4C4D4E4F5051525354555672
:1006A0005758595AC4D6D1DCA7BF616263646566E6
:1006B0006768696A6B6C6D6E6F7071727374757652
:1006C0007778797AE4F6F1FCE00011241FBECFEFD1
:1006D000D8E0DEBFCDBF12E0A0E0B1E0EAEBFEE67D
:1006E00002C005900D92AC31B107D9F727E0ACE11B
:1006F000B2E001C01D92AB3BB207E1F70E94692F47
:100700000C9430370C940000CF93DF930F92CDB749
:10071000DEB7CE018A5B974097FD0BC020910001A8
:10072000309101018217930720F490930101809387
:1007300000010F90DF91CF91089510924402109222
:10074000430210924202089580915C0295EB980F4B
:100750008C5E943108F083E30C946B2880917702CF
:10076000909178028F3F980729F001969093780234
:10077000809377028AE080932E0210922D021092CD
:1007800095030E949D0383E30C946B28CF93DF9322
:10079000D0E0C0E06FEFCE010E94C02E0E94DD2E9F
:1007A0008823E1F3CE018F709927892B09F4A8954E
:1007B0002196CD3E84E3D80769F7DF91CF91089564
:1007C000BC0188EC93E00C9474338FEF9FE80197A1
:1007D000F1F700C000008FEF9FE80197F1F700C02C
:1007E00000008FEF9FE80197F1F700C000008FEF46
:1007F0009FE80197F1F700C000008FEF9FE8019795
:10080000F1F700C00000A8950895CF93DF93CDB70E
:10081000DEB764970FB6F894DEBF0FBECDBF6AE9AE
:1008200073E0E0E0DB012D91BD01222351F1E431C1
:10083000D0F02E2FE93008F429E037EF320F6E2F79
:10084000631B2950330B41E050E04C0F5D1F240F18
:10085000351F582FDC014A2F451B4617F8F0FC01C5
:10086000E60FF11D11C030ED320F3A30D8F641E0FD
:1008700050E04C0F5D1F4E0F511DDA012C93EF5FBE
:10088000D1CFE111D6CFFC01108264960FB6F89457
:10089000DEBF0FBECDBFDF91CF910895F901419129
:1008A0009F014D93D8CF809171028F5F843618F4E9
:1008B000809371020895109271028091700291E00C
:1008C000811190E090937002811102C040980895C8
:1008D000409A08958091AC03807F11F4409A089566
:1008E0004098089578940F920FB60F921F9211249A
:1008F0002F938F939F93EF93FF93809125028F5FA8
:1009000080932502823128F0109225028FEF809388
:1009100027024B9B57C000B601FC16C08091830292
:10092000811112C010924B0510924A0510925A057F
:1009300080B7826080BFF8948091C1008068809306
:10094000C10078940000439832992FC0F8948091A8
:10095000C10086FF29C08091C1008F7B8093C100B8
:100960007894809184028823C9F080918202811159
:1009700004C080915C028D3289F4109284028091CF
:100980004E0590914F05FC01E95FF94F20810196DA
:1009900090934F0580934E052093C600F894809164
:1009A000C10080648093C10078948FEF8093280207
:1009B000FF91EF919F918F912F911F900F900FBEFC
:1009C0000F901895439AF8948091C1008F7380938B
:1009D000C10080B78D7F80BF78940000E6CF0F9371
:1009E0001F93CF93DF938C01DC01CD91DC914FE01D
:1009F00050E067E773E0CE010E9433336AE673E0AC
:100A0000CE010F960E94473380910B01803210F582
:100A1000909124029923F1F06B96B4E68B9FC0016C
:100A200011246FE170E00E94CE30CB014AE0BE019C
:100A30000E94FA3309900020E9F7FE01319785E220
:100A400081931082D801ED93FC93DF91CF911F9198
:100A50000F9108958DE28B8F8C8FFE017E968D8F86
:100A6000F0CF8F929F92AF92BF92CF92DF92EF9290
:100A7000FF920F931F93CF93DF938C01FC01C081F2
:100A8000D1816CE573E0CE010E94473309900020CC
:100A9000E9F7219788E0882E912CD12CC12CF12CDC
:100AA000E12CB12CA12CC6018F719927892B21F43F
:100AB000C114D10409F0A895C4010E94122F8F3FE0
:100AC00091F1FFEFAF1ABF0AEFEFCE1ADE0AF5E0A1
:100AD0008F0E911C84ECC81689E0D80621F74AE0F5
:100AE000BE01C5010E94FA3309900020E9F7219761
:100AF0008FE289934AE0BE01C7010E94FA33099050
:100B00000020E9F72197F801D183C083DF91CF91CD
:100B10001F910F91FF90EF90DF90CF90BF90AF901B
:100B20009F908F9008958FEFE81AF80ACDCFCF925B
:100B3000DF92EF92FF920F931F93CF93DF938C017D
:100B4000FC01C081D1814CE050E06FE473E0CE0144
:100B50000E9433332C9688E0E82EF12CD12CC12C46
:100B6000C7010E94122F8F3F59F1C394F5E0EF0E99
:100B7000F11C8CEDE81680E3F80691F74AE0BE011F
:100B80008C2D90E00E94FA3309900020E9F721971C
:100B90008FE289934AE0BE018D2D90E00E94FA33E6
:100BA00009900020E9F72197F801D183C083DF91F4
:100BB000CF911F910F91FF90EF90DF90CF9008950C
:100BC000D394D4CFAF92BF92CF92DF92EF92FF92A5
:100BD0000F931F93CF93DF9300D0CDB7DEB7A895C7
:100BE00086E695E09A838983CE0101960E94EF0400
:100BF000E981FA81CF0101969A8389831AE01083F3
:100C0000E981FA811082CE0101960E943105E981C5
:100C1000FA81CF0101969A8389831083E981FA8151
:100C2000108268E473E089819A810E944733898148
:100C30009A8106969A838983209102016EE373E07C
:100C4000222311F063E373E00E94473389819A8184
:100C5000FC0101900020E9F7CF0101979A83898375
:100C600066E273E00E94473389819A810C969A83E9
:100C7000898320910801222309F46CC060E273E0AB
:100C80000E94473389819A81FC0101900020E9F795
:100C9000CF0101979A838983209107016BE173E06B
:100CA000211160C0E981FA81CF0101969A8389837D
:100CB0008AE08083E981FA81108209811A81F80132
:100CC00001900020E9F78F01015011091A8309836F
:100CD000C0900301D0900401E0900501F09006015E
:100CE000FFE9CF16F6E8DF06F1E0EF06F10409F0C0
:100CF00046C065E073E0C8010E94473389819A814C
:100D00000A969A83898320919C026EEE72E02111EB
:100D100002C066ED72E00E94473389819A81FC012E
:100D200001900020E9F7CF0101979A83898368EA4F
:100D300072E089819A810E9447330F900F90DF9172
:100D4000CF911F910F91FF90EF90DF90CF90BF90C8
:100D5000AF9008952091070166E173E0211102C070
:100D600060E173E00E94473389819A81FC01019020
:100D70000020E9F7CF0101979A83898393CF80916F
:100D80009C0265EB72E0882391F06091B60370914C
:100D9000B7038091B8039091B9032AE030E040E0B6
:100DA00050E00E94E23069017A0165EC72E0C8010E
:100DB0000E944733E981FA8101900020E9F7CF01D1
:100DC00001975C019A838983C701B60120E13EE067
:100DD00040E050E00E94E230CB016CE370E00E9402
:100DE000BA30F62E082F1AE0822F612F0E94AE3003
:100DF000E92E4AE0B50190E00E94FA3369817A81D8
:100E0000FB0101900020E9F7BF01615071097A836D
:100E100069834AE08E2D90E00E94FA33E981FA81DD
:100E200001900020E9F7DF011197FA83E98388E652
:100E30008C93E981FA81CF0101969A8389838AE3B1
:100E4000E82EE08229813A818F2D612F0E94AE30F9
:100E5000F92E4AE0B90190E00E94FA3369817A8163
:100E6000FB0101900020E9F7BF01615071097A830D
:100E700069834AE08F2D90E00E94FA33E981FA817C
:100E800001900020E9F7DF011197FA83E9838DE6ED
:100E90008C93E981FA81CF0101969A838983E0825C
:100EA00029813A81802F612F0E94AE30092F4AE0BC
:100EB000B90190E00E94FA3369817A81FB010190C7
:100EC0000020E9F7BF01615071097A8369834AE024
:100ED000802F90E00E94FA33E981FA81019000208E
:100EE000E9F7DF011197FA83E98383E78C93E981BE
:100EF000FA81CF0101969A8389831083E981FA816F
:100F0000108215CF10929C021092B6031092B70374
:100F10001092B8031092B9035D980895809135023C
:100F200090913602892BA1F58AE090E090933602E9
:100F30008093350220910301309104014091050115
:100F4000509106012F3986E8380781E0480751059E
:100F500081F481E090919C02911180E080939C0249
:100F60001092B6031092B7031092B8031092B9030F
:100F700008958FEF80939C02AAE0B0E00E940A31AE
:100F80006093B6037093B7038093B8039093B9034B
:100F900008950895FF920F931F93CF93DF93CDB7DA
:100FA000DEB766970FB6F894DEBF0FBECDBF0E94C6
:100FB000840310924607A8958FEF80934402109205
:100FC00043021092420288E297E00E949225182F75
:100FD00080913E02811149C08091850204E6602F14
:100FE0000E94AE301F929F93809186020E94AE3085
:100FF0001F929F93809187020E94AE301F929F9311
:1010000085E191E09F938F931F9289E08F938CE00D
:1010100091E09F938F930E94143480918502602FFA
:101020000E94AE301F929F93809186020E94AE3044
:101030001F929F93809187020E94AE301F929F93D0
:1010400084E291E09F938F931F928EE18F9383E6CA
:1010500097E09F938F930E9414348FE90E94592840
:101060000FB6F894DEBF0FBECDBF10923E02809146
:101070001F02811110921F028CEF810F8230B0F499
:1010800080917F028C3090F00E94A4030E94AE03F6
:101090000E949D0366960FB6F894DEBF0FBECDBFCB
:1010A000DF91CF911F910F91FF900895809153028E
:1010B000882311F0193041F7E9E5F7E043E657E0FE
:1010C00020E090E08191882329F02F5F84578230BF
:1010D00008F49F5F4E175F07A9F7233218F0193005
:1010E000B9F2D2CF9630D8F7113190F6E12FF0E077
:1010F000EE5CF84C0C94043180910701882341F296
:1011000080910201813039F161E773E0FB010190C8
:101110000020E9F7BF0161507109AE014F5F5F4FD9
:1011200081E793E00E94C42808E010E0B801CE01F6
:1011300001960E94912981110EC00B5F1F4F0C3D3B
:10114000F0E31F0799F781E080932E0210922D02A1
:10115000109295039DCF80911E028111F4CF61E71B
:1011600073E08AE993E00E94CA330E948E07EBCFB6
:1011700080911D02811115C080911E02882389F083
:1011800065E972E086E695E00E94473361E773E027
:101190008AEA92E00E94CA3384E70E94592884E1D7
:1011A000D3CF80917F028F5F80937F0282EC91E0AA
:1011B00090937E0280937D0261E773E08AEA92E079
:1011C0000E94CA33A8950E94E20584E78DC08091F1
:1011D0007F028F5F80937F0282EC91E090937E028A
:1011E00080937D0261E773E08AEA92E00E94CA334D
:1011F00062E873E0FB0101900020E9F7BF01615054
:101200007109AE014E5E5F4F82E893E00E94C428F0
:1012100008E010E0B801CE0142960E949129F82E14
:1012200081113CC00B5F1F4F0C3DF0E31F0791F78E
:1012300041E1BE016F5F7F4FCE0142960E940D29B2
:10124000BE016F5F7F4F86E695E00E94CA3367E478
:1012500071E086E695E00E94AB336AE471E0F1103C
:1012600002C06DE471E086E695E00E94AB3384E74E
:101270000E94592882E080932E0210922D02109233
:1012800095038091830790919202892B9091840716
:10129000892B09F0FDCE0E94672FFACEFF24FA9425
:1012A000C7CF61E773E08AEA92E00E94CA336CE636
:1012B00071E086E695E00E94CA3387CF80917F0275
:1012C0008F5F80937F0282EC91E090937E02809307
:1012D0007D0261E773E08AEA92E00E94CA331092CD
:1012E000700310926F038AE20E94592882E02CCF8B
:1012F00061E773E08AEA92E00E94CA3310927003B9
:1013000010926F0389E2F0CF63E282E00E94A2288C
:101310008111BECE89E180932E0210922D0210928F
:1013200095030E94C60383E00E945928B1CE61E76D
:1013300073E08AEA92E00E94CA3380919002882387
:1013400031F08091470769E872E0811118C06EE7BB
:1013500072E086E695E00E94473337CF61E773E09D
:101360008AEA92E00E94CA3363E772E0F2CF61E753
:1013700073E08AEA92E00E94CA3367E672E086E68A
:1013800095E00E94473367E477E086E695E00E94A7
:10139000AB331BCF65E971E081E793E00E94E03356
:1013A000892B09F454C04091370250913802609162
:1013B000390270913A0240348DE0580783E06807A3
:1013C000710508F040C080E49DE0A3E0B0E0841B1C
:1013D000950BA60BB70BBF93AF939F938F931F9261
:1013E00083E08F938DE08F9380E48F937F936F934F
:1013F0005F934F931F9285E18F931F9286E08F93A7
:101400001F928DE18F9382EA91E09F938F9386E6FE
:1014100095E09F938F930E94443461E773E08AEADA
:1014200092E00E94CA3384E70E94592882E08093A8
:101430002E0210922D02109295030FB6F894DEBF83
:101440000FBECDBF25CE80E090E0DC01C4CF85E0AB
:101450007BCE83E079CE80916F029091B50390FFAF
:1014600006C0883C88F48F5F80936F020895883CA3
:1014700060F063E282E00E94A228811103C083E051
:101480000E94592810926F0208958233D8F363E2C4
:1014900082E00E94A2288111F5CF82E0F1CFEF9285
:1014A000FF920F931F93CF93DF93CDB7DEB72A97A9
:1014B0000FB6F894DEBF0FBECDBF80911E02882309
:1014C00029F080911D02882309F472C0109108014F
:1014D000111142C080910701811130C08091020139
:1014E000813011F41FEF2AC080919A03882331F1D3
:1014F000CE0101967C010E94050489818823F1F0C8
:10150000F70101900020E9F7BF016150710945E83A
:1015100057E0C7010E94C42888E0E82EF12CB701EB
:1015200085E897E00E9491298111DCCFF5E0EF0E6C
:10153000F11C8CEDE81680E3F80689F7812F2A96D6
:101540000FB6F894DEBF0FBECDBFDF91CF911F91D4
:101550000F91FF90EF90089580910201813011F278
:1015600080919A03882321F18E010F5F1F4FC801DC
:101570000E94050489818823D9F0F8010190002098
:10158000E9F7BF016150710945E857E0C8010E94C1
:10159000C42808E010E0B80185E897E00E9491298E
:1015A0008111A0CF0B5F1F4F0C3DF0E31F0799F790
:1015B00010E0C4CF8CE380935E0210925702109229
:1015C00056021092500210925102109245028091E0
:1015D0007C02882309F456C080914707882309F4C8
:1015E0004FC067E477E08AEA92E00E94CA3360E580
:1015F00072E086E695E00E9447336AE973E086E68A
:1016000095E00E94AB336BE472E086E695E00E94C1
:101610003C3386E695E0FC0101900020E9F7CF011C
:1016200087569540FC01EA59FA4F90910C0190833E
:10163000E1E0E80FF0E0EA59FA4F90910D01908354
:10164000E2E0E80FF0E0EA59FA4F9AE39083E3E032
:10165000E80FF0E0EA59FA4F90910F019083E4E02F
:10166000E80FF0E0EA59FA4F9091100190838B5FF8
:10167000E82FF0E0EA59FA4F108284E70E945928D7
:1016800010927C0210929A0308958CE380935E027C
:1016900010921C0208951092C503109257021092E6
:1016A000560210925B0210925A0210925C02109243
:1016B00049058CE380935E021092530208950E94C4
:1016C0004B0B10925B0210925A0210925C02109225
:1016D000650510929303109249051092C40310926D
:1016E000580210921C021092540208950E945F0B3F
:1016F00086E980930A011092820210928102109270
:101700004C0210924B0210929F0210924A021092C9
:101710004902109245021092590283E680930B0110
:1017200062E78FE50E947F286FE38BE20E947F28AB
:1017300069E480E40E947F2866E784E70E947F28AE
:10174000109224020895809183028D3051F41092FA
:10175000520210921C021092530286E480935E02A1
:10176000089580918302863059F5209152022F5FAF
:101770002093520280918B0290918C02853032E04E
:10178000930761F08A3331E0930741F0833032E010
:10179000930721F080519240029770F48CE380937C
:1017A0005E0280915302223080F110925202109218
:1017B0001C021092530208958CE380935E02F5CFD1
:1017C00080918302843021F58CE380935E02109235
:1017D00049058091CA038E3331F480914A05909176
:1017E0004B050A9720F080915302811107C0109297
:1017F000520210921C020E94760BDBCF9091520293
:101800009F5F90935202923080F60E945928D1CF68
:10181000809183028530B9F480918D0290918E027F
:101820008A30910539F09C012D7F2D30310511F062
:101830004E9769F4109252028CE380935E021092EC
:101840001C020C94760B8091830280918302089590
:101850000F931F93CF93DF93D0918302C0915C02CB
:10186000CF3309F4C7C008F070C0C63309F429C2E9
:1018700038F5C03309F4C8C288F4CD3209F4B4C0D5
:10188000CF3209F437C110925B0210925A021092C3
:101890005C02DF91CF911F910F910895C33309F43A
:1018A0004DC1C53381F7D13009F4B5C2809194039D
:1018B0008F5F80939403833008F0ADC28C2F7BC17F
:1018C000CA3309F49FC188F4C73309F402C2C8338C
:1018D000D1F688E3D13009F0F6C081E00E94DA0A3F
:1018E000109258021092C503CECFCC3309F467C1D1
:1018F00008F49CC1CE3339F6D13029F68AE292E061
:101900000E94E003FC01892B09F4BDCF27812C3212
:1019100009F06CC1379680818C3229F081818C323C
:1019200009F066C131964AE050E070E060E0CF0116
:1019300001960E942431662329F08DEF860F8230B4
:1019400008F058C10E94760B9ECFCB3458F5C734AF
:1019500008F0A9CFC23409F4A6CFE8F4C03409F4E2
:1019600094C0C13409F08FCF80E3D13009F4ABC00B
:10197000D63009F002C180918B0290918C028A339B
:1019800021E0920721F08530924009F07CCF84E17C
:1019900080935E02D5C0C33409F4F1C0C53409F4A4
:1019A00082CF71CFC33790F4CF3508F4C2C1D6309F
:1019B00009F000C280918B0290918C028134914099
:1019C00009F4FBC18C2F0E945928FCC1C73709F4C8
:1019D000FBC1CE3909F057CF8AE192E00E94E003C3
:1019E000892B09F0AFCF5FCF8EE20E945928109269
:1019F000460249CFD13009F046CF84E492E00E94FC
:101A0000E003009709F43FCF62E270E00E94B63332
:101A1000009709F438CFEC01219662E270E0CE0124
:101A20000E94B6338C01892B09F42DCF6CE270E053
:101A3000CE010E94B633009709F425CFEC01219620
:101A4000C017D10708F01FCF6AE370E0CE010E94F3
:101A5000B633009709F417CF8017910708F013CF1A
:101A6000FE0101900020E9F73197EC1BFD0B389740
:101A700008F409CF88E0FE01ACE0B1E001900D92DE
:101A80008A95E1F710921401FECED13099F487E3E4
:101A900092E00E94E003892B59F08FEF809381023E
:101AA00010928F0283E30E94592810926E02EBCEAF
:101AB0008FE2F9CFD53051F480918D0290918E0252
:101AC0000E9731F480E40E945928DDCED43021F005
:101AD000809183028038B1F780916E028F5F80938E
:101AE0006E02843118F00E94760BDFCF84E1809380
:101AF0005E02E8CFD13061F48FEF809381021092C3
:101B00008F0283E30E94592882E380935E02BBCE5A
:101B1000D53079F480918D0290918E0280319105BB
:101B200021F48FEF80938F02AECE0E9721F48FE2D7
:101B3000CACFD430E1F380918302F9CFD13011F4D0
:101B400081E4C1CFD63089F480918B0290918C02D0
:101B50008A3321E0920721F08530924009F093CE3C
:101B60008CE380935E0283E3AECFD430E1F38091C7
:101B70008302803809F087CEF6CF8AE009CFD130D2
:101B800049F0D53081F480918D0290918E020397B7
:101B9000029748F4809159020E94592810925902E4
:101BA000109294030AC0809194038F5F80939403F2
:101BB000833018F483E40E94592882E0A6CFD13004
:101BC00089F481E392E00E94E003009709F45BCE80
:101BD0004AE050E070E060E006960E942431609395
:101BE0000B0151CE83E680930B014DCE389693CEF8
:101BF000329699CE6B7F613009F045CE8FEF80939E
:101C0000240241CED13049F0D53051F480918D027B
:101C100090918E024597029718F410924C0233CEA1
:101C200080914C028F5F80934C022DCED13009F011
:101C300042C046E050E063E272E08AEC93E00E942A
:101C40006633892BC1F583E292E00E94E0036CE2E7
:101C500070E00E94B633009771F16CE270E00E9470
:101C6000B633009741F162E270E00E94B63300970C
:101C700011F18C010F5F1F4F62E270E0C8010E94FA
:101C8000B6330097C1F008171907A9F0801B910B14
:101C90008C30910514F08BE090E0EC01DD27AE0173
:101CA000B8018FE992E00E949B33C156DD4F188244
:101CB00010924B02E8CD80914B028F5F80934B02D4
:101CC000E2CDD63009F479CF86E3D13009F475CF6F
:101CD00072CFD13021F0809183028C30A1F48FEF4C
:101CE0008093580210929403809108018111CBCD0A
:101CF0008CE291E0909334028093330284E18093EC
:101D00005E0286E4E0CED43021F0809183028038F8
:101D100049F4809194038F5F80939403833010F48F
:101D200087E3D1CED33011F410925802109294036D
:101D3000AACDD130A9F58CE192E00E94E0036AE0DF
:101D400070E00E94B633009741F1EC0121966DE0FE
:101D500070E0CE010E94B6330097F9F08C1B9D0B0A
:101D600097FD019695958795853BA8F4809355023C
:101D70004BEB52E060915502CE010E948D2B83E720
:101D80000E94592880915C028C5E0E9459288FEF36
:101D90008093540278CD84EBE9CF1092540273CD36
:101DA000D63021F0109254028CE3AFCE8C2F0E94DB
:101DB0005928F8CFD43009F405CE809183028038B9
:101DC00009F400CE89E1A1CED43029F080918302BC
:101DD000803809F0ABCF1092C503809194038F5FD8
:101DE00080939403833010F487E76DCE10929403B0
:101DF00080E00E94DA0A109258021092C5031092F5
:101E00005702109256023FCDD13029F080E30E9454
:101E1000592884E17ACE809159020E9459288091F4
:101E200059028B54843108F0B9CE10925402B6CEC8
:101E30000F931F93CF93DF9380918302809183024E
:101E4000803821F080915D02882381F080E88093C2
:101E500083020E94280C82E380935E028FEF8093BE
:101E60005D02DF91CF911F910F91089580918302C0
:101E7000813829F5209145053091460580914A0524
:101E800090914B052817390761F440914505509111
:101E9000460567E076E088EC93E00E948E33892B5C
:101EA00001F3809149058111DCCF80E880938302A2
:101EB0008FEF80935D0282E380935E02D2CF8091A8
:101EC00083028A3009F044C010929A0383E192E0C1
:101ED0000E94E00362E270E00E94B633009739F19D
:101EE0008C010F5F1F4F62E270E0C8010E94B633A1
:101EF0000097E9F0EC01C01BD10BC031C0F4DD2725
:101F0000AE01B8018AE993E00E949B33C656DC4FCC
:101F1000188280914B02811110924B0280910B012B
:101F2000882311F0833619F480E180930B0189E353
:101F30000E946B2880915C028B54843110F41092C3
:101F4000540210925B0210925A0210925C0289CFE6
:101F500080918302833089F480E00E94DA0A109233
:101F600058021092C50310925702109256028091A7
:101F70005C02873709F075CFE4CF8091830282300D
:101F800039F580915C028737D1F40E94280C80914A
:101F90005C028737A1F48091500281110BC08AE561
:101FA000809351028FEF8093C503109257021092D5
:101FB000560257CF8093510210925002F3CF1092E5
:101FC0009A0389E3DF91CF911F910F910C946B28B5
:101FD0008CE092E00E94E003009799F0FC013796B4
:101FE00081918032E9F390910801911107C081330A
:101FF00029F40E948E078BE0809395031092830250
:1020000030CF809183028C3071F480910801882355
:1020100009F427CF1092580288E3DF91CF911F91E6
:102020000F910C94592880918302893061F480913A
:102030005C02873711F40E94280C80E00E94DA0AC3
:102040001092C503B2CF80918302873081F38091D3
:102050008302883029F585E092E00E94E0036CE27B
:1020600070E00E94B6330097A1F04AE050E070E0C3
:1020700060E001960E9434329B01215031092431E5
:10208000310538F48AE4860F0E94592881E0809354
:102090005E0280915C028B54843108F0E2CE4FCF17
:1020A000809183028E3009F04CC084E180935E02FF
:1020B00080915C028B54843140F41092540210924F
:1020C0005B0210925A0210925C028EEF91E00E9425
:1020D000E00362E270E00E94B633009709F4C1CEDB
:1020E0008C010F5F1F4F62E270E0C8010E94B6339F
:1020F000009709F4B6CE20913D02222309F4B1CE17
:10210000EC01C01BD10BC13AD10510F0C0EAD0E000
:10211000AE01B80186E695E00E94D133CA59DA4F84
:10212000188261E773E08AEA92E00E94CA3384E78A
:102130000E94592810923D0210923C0210923B02DC
:1021400090CE8091530281110E94A30B80914A0589
:1021500090914B05892B09F484CE809183028823CA
:1021600009F47FCEDF91CF911F910F910C94280C31
:10217000CF93C82FC901C11106C0862F0E945928CC
:102180008C2FCF91089510925B0210925A026093A7
:102190005C02409359020E94741FCFEFF1CF0F935E
:1021A000CF93DF939FEF909349051092C403811161
:1021B0004BC085E080932E0210922D021092950361
:1021C00084E7809353029093BB024AE065E877E08E
:1021D0008BEB92E00E940D2900E020E045E857E0FB
:1021E0006AEA72E08BEB92E00E94CE2C46E655E064
:1021F000FA0101900020E9F7AF014150510966E66C
:1022000075E00E94162B8B5B924080935502C09123
:102210005502C1508091BB02C81B46E050E067EFF9
:1022200071E089E096E00E9433334AE06FE076E0A7
:102230008C2F90E00E94FA338AEF80930901DF919E
:10224000CF910F910C94911F85E080932E021092F4
:102250002D021092950385E7809353020091660545
:102260009093BB024AE065E877E08BEB92E00E9436
:102270000D2920E045E857E06AEA72E08BEB92E036
:102280000E94CE2CEC014091670550E068E675E0B5
:102290000E949B33809167058C0F9D2F911DB3CFBA
:1022A000EF92FF920F931F93CF93DF9300D00F9283
:1022B000CDB7DEB7309154028091C50350915C02D6
:1022C00090915E0240915302432B482B209158027B
:1022D000242B252B292BC9F56091490521E061119B
:1022E00001C020E0211132C06091C10066FD2EC006
:1022F00060918202662351F16091830201E06111D5
:1023000025C010915907E12EF12C1E3309F465C246
:1023100008F06BC0133309F466C330F51E3209F4BC
:1023200046C3B0F41C3209F4FCC208F013C31B32DC
:1023300009F46FC380E00F900F900F90DF91CF9161
:102340001F910F91FF90EF90089521E000E0D9CF09
:10235000103309F4D6C208F434C3113309F479C335
:10236000123341F78FEFE7CF183309F4B7C1B0F458
:10237000163309F4B9C208F0C0C11533D9F68091FB
:10238000830790919202892B90918407892B21F4E5
:102390000E94672F811149C385E330C11A3309F4C4
:1023A0003DC208F46CC11B3309F45AC21C3309F056
:1023B000C1CF4091560250915702452B61F4909144
:1023C0009D02892B41F48091490590911C02892B33
:1023D000282B09F4F4C180910B01833611F081118F
:1023E000C1CF80E180930B01BDCF133708F074C0DB
:1023F0001F3508F01BC1163409F493C1B0F41F3324
:1024000009F450C220EC210FE22FF0E0E852FF4F18
:1024100045915491FEE02F9F900111242E513F4F82
:10242000612F802F0E94B8109DCF1B3458F38091EC
:102430002402882309F47EC020915602309157026D
:10244000232B09F077C0942B80911C02982B09F064
:1024500071C0533309F46EC080918307909192024A
:10246000892B90918407892B09F064C00E94672F03
:10247000882309F45FC061E081E00E94A2288111F5
:1024800059C066E784E70E94A228811153C069E31E
:1024900087E30E94A22881114DC0002309F44AC09D
:1024A00010925B0210925A0210935C028FEF80939D
:1024B000540246E050E060EF71E089E096E00E944F
:1024C00033334AE06FE076E0C7018A5491090E94F5
:1024D000FA330E94911F46CF163709F449C080F4A1
:1024E000133701F54EE952E061E773E08BEB92E0C0
:1024F0000E94AA2B009709F053C01092540232CFC9
:10250000193709F47EC01F3909F4ADC2173709F035
:1025100011CF20912402222319F0992309F41AC122
:1025200087E76CC02091560230915702232B11F49B
:10253000892B11F0812F62C08091830790919202C4
:10254000892B90918407892BA9F70E94672F8823F4
:1025500089F3002379F310925B0210925A021093D0
:102560005C0281E0153709F080E00E94CF10FACEBE
:1025700010924905409155026BEB72E087E096E0BE
:102580000E94EA2C8091550290E0880F991FFC016F
:10259000E95FF94F2AE1208301960E945B1FE2CE9A
:1025A0009E012F5F3F4FAE014E5F5F4FBE016D5FDB
:1025B0007F4F0E94032C2B8120938A022A81209333
:1025C00089022981209388029E012F5F3F4FAE012F
:1025D0004E5F5F4FBE016D5F7F4F0E94262C2B81A7
:1025E000209387022A8120938602298120938502E5
:1025F0004FE168E277E00E94C12A89E70E945928EA
:10260000B1CE8091830790919202892B909184079B
:10261000892B99F70E94672F882379F310922E0255
:1026200082E0809395030E94CA0767CF40915602CB
:1026300050915702452B09F07DCF832B30919D029D
:10264000832B09F077CF80914905811173CF002347
:1026500009F470CF10925B0210925A0210935C0240
:1026600046E050E069EE71E089E096E00E94333385
:102670004AE06FE076E0C7018E55910928CF80913E
:10268000830790919202892B90918407892B11F0F6
:1026900089E3B4CF0E94672F8823D1F310922E02D2
:1026A00082E0809395030E944F0A882371F0809105
:1026B000080190910701892B79F082EE91E00E9448
:1026C000E003892B11F40E948E0788E30E945928A9
:1026D0008FEF809345022FCE87E3F8CF011102C020
:1026E00088E38CCF10925B0210925A0210935C0226
:1026F00080EE91E00E94741F35CE80910801909188
:102700000701892B69F787E3002309F477CF10923B
:102710005B0210925A0287E380935C028EED91E097
:10272000E9CF992311F086E469CF8091C10086FD3D
:10273000FACF809182028823B1F380918302582BD3
:1027400091F710925B0210925A0210935C0287ED8F
:1027500091E0D0CF811106CE002309F4E1CE109292
:102760005B0210925A0287E780935C0285E18093B6
:10277000950384E68093090662E873E08AE096E0B8
:102780000E94CA3382E893E0FC0101900020E9F73F
:10279000CF01835893408F5F90E0FC01E75FF94FD2
:1027A0002BE32083865F994FFC0110820E94911FCA
:1027B0008CE291E09093570280935602D3CD8CE344
:1027C000002309F41BCF10925B0210925A028CE393
:1027D00080935C0282ED91E08DCF40915602509142
:1027E0005702452B09F0BECD90919D02892B09F02F
:1027F000B9CD8091490590911C02892B282B09F0B5
:10280000B1CD8EE3002309F4F9CE10925B02109251
:102810005A0210935C028BEC91E06CCF409156020F
:1028200050915702452B59F490919D02892B39F410
:102830008091490590911C02892B282B19F0109248
:102840004C0290CD8AE3002309F4D8CE10925B02AB
:1028500010925A028AE380935C0282EC91E04ACFA4
:102860004091560250915702452B59F490919D0288
:10287000892B39F48091490590911C02892B282BD2
:1028800019F010924B026ECD8BE3002309F4B6CE03
:1028900010925B0210925A028BE380935C028BEBE6
:1028A00091E028CF4091560250915702452B09F0F4
:1028B00059CD90919D02892B09F054CD8091490505
:1028C00090911C02892B282B09F04CCD8FE300231B
:1028D00009F494CE10925B0210925A028FE3809317
:1028E0005C0284EB91E006CF86E3002309F486CEF8
:1028F00010925B0210925A0210935C028DEA91E0F2
:10290000F9CE80E3002309F479CE10925B02109295
:102910005A0210935C0282E48093590288E991E0A4
:10292000E9CE8DE20E94592884E180939D021092A5
:102930004B0510924A0510925A0580B7826080BFFD
:10294000F8948091C10080688093C1007894000061
:10295000439808CD80914602811104CD80919D025B
:10296000882311F08DE24ACE8091C10086FDFACF16
:1029700010924B0510924A0510925A0580B782605A
:1029800080BFF8948091C10080688093C1007894E2
:102990000000439810925B0210925A028DE28093DD
:1029A0005C0284E1809346028FE891E0A3CE8FEF32
:1029B0008093820280E40E94592888E280935E021C
:1029C000D1CC8FE2002309F419CE10925B02109251
:1029D0005A028FE280935C0262E871E089E096E03F
:1029E0000E94473376CD80916D02882311F081E4F7
:1029F00005CE8FEF80936D0283E3002309F4FECDB3
:102A000010925B0210925A0210935C0289E791E0E7
:102A100071CE0E94180F80918302813819F084E1F1
:102A200080930901109283029DCC002309F4B4CC59
:102A300010925B0210925A0285E380935C026EE66C
:102A400071E089E096E00E94473381E38093590268
:102A500040CD80918102882309F484CC86E30E94D2
:102A6000592882E3CBCD8091830790919202892BE4
:102A700090918407892B21F40E94672F811102C055
:102A80008FE9BCCD0023E1F310925B0210925A0251
:102A90008FE980935C0263E677E089E096E00E942C
:102AA000CA3317CD80915E02882339F0815080931C
:102AB0005E02811102C010925D028091200290910D
:102AC0002102009729F00197909321028093200220
:102AD0008091330290913402009771F001979093A6
:102AE000340280933302892B39F480915802882371
:102AF00019F088E30E945928809146028823C1F08A
:102B0000815080934602811113C010925B02109293
:102B10005A0210925C028DE20E945928109284029F
:102B2000F8948091C1008F7B8093C100789400005D
:102B30000E942721882319F08CE20E945928809155
:102B40005102882341F0815080935102811103C0CA
:102B500088E30E945928809156029091570200976D
:102B600071F001979093570280935602892B39F4A4
:102B700082E00E94DA0A109258021092C5038091F6
:102B80006C028F5F80936C02803309F04EC08CE33F
:102B90000E946B2880919D02882319F081508093B8
:102BA0009D0280912402882309F45EC080910B016C
:102BB000833611F0811158C080914D0290914E02E0
:102BC000883522E0920750F40196883522E092077A
:102BD00009F443C090934E0280934D0280914C02C1
:102BE000863020F480914B02843110F00E94760BE5
:102BF00080912302882339F0815080932302811130
:102C000002C00E94760B80912402811132C0809113
:102C1000490290914A02019690934A028093490298
:102C2000813B944050F10C94760B843311F48EE385
:102C3000AFCF883311F48BE3ABCF8C3311F48AE33D
:102C4000A7CF803508F4A6CF8091240210926C02A1
:102C5000882309F49FCF8FE39BCF10924E021092EE
:102C60004D020E94760BBACF10924E0210924D0286
:102C7000B5CF10924A0210924902089580918302C2
:102C8000882309F457C08BE20E9459288091C4031D
:102C9000882329F086E70E9459281092C403809166
:102CA0002402882309F455C080915302882309F433
:102CB00050C080916A0290916B020196883823E19E
:102CC000920708F03CC090936B0280936A02809157
:102CD0005C0290915802882309F4A8C020916902EF
:102CE00082136AC091116AC08D3231F09AE8980F50
:102CF00044EF51E0923010F440EE5EE29CE8980F11
:102D0000923010F44CED55E020916702309168024A
:102D10002F5F3F4F2417350708F530936802209343
:102D20006702109266021092650280915C028093A5
:102D3000690208950E9478238111A5CFA7CF109230
:102D40006B0210926A0284E0809383020E94A30BBC
:102D5000BECF10926B0210926A02B9CF1092680235
:102D6000109267028E3929F1883301F191ED980FA5
:102D70009230E0F09BEC980F9230C0F090EC980FFE
:102D80009A30A0F095EB980F983280F0109259028B
:102D90000E945F0B10925B0210925A028EE98093A0
:102DA0005C02109209060E94911FBBCF80935902CA
:102DB000EFCF0E94760BB5CF9923C1F180918302AA
:102DC000811134C0F89480914A0590914B05789414
:102DD00020916502309166022817390720F49093FC
:102DE00066028093650280916502909166020A975F
:102DF00008F49BCF80916702909168020196843F0E
:102E000021E0920728F490936802809367028DCFA7
:102E1000109268021092670281E00E94DA0A109212
:102E20006602109265020E94760B7FCF10926802B4
:102E300010926702992309F474CF77CF3F924F9293
:102E40005F926F927F928F929F92AF92BF92CF923A
:102E5000DF92EF92FF920F931F93CF93DF93CDB743
:102E6000DEB7E1970FB6F894DEBF0FBECDBF9091ED
:102E700059078091540220915302822B2091C5035F
:102E8000822B20915802822B20915C02822B209170
:102E90005E02822B81F48091490581110CC08091E2
:102EA000C10086FD08C080918202882321F0209114
:102EB000830281E0211180E0993241F010E09A32E2
:102EC00009F094C08111ABC08AE203C0811104C033
:102ED00089E20E94592880C080911C02909183074A
:102EE000892B90919202892B90918407892B81F7ED
:102EF0000E94672F882361F38AE28093660527E6A4
:102F0000E22E25E0F22E35E0D32E43E2C42E5AE025
:102F1000B52E80916F03909170038F719927892B43
:102F200009F4A89520916F0330917003D29EC001DF
:102F3000D39E900D112408960E94122F182F2091D5
:102F40006F03309170038F3FC1F1D29EC001D39EB9
:102F5000900D112441E1B70108960E946D29870167
:102F6000080F111DF801C0827801F2E0EF0EF11C8C
:102F7000F801B18280916F03909170030196909354
:102F8000700380936F0398012D5E3F4F26503640AB
:102F900068F4843C994008F4BCCFF801128284E7BD
:102FA0000E94592881E080931C0216C0843C9940FD
:102FB000A0F789E20E945928F0CF2F5F3F4F30934E
:102FC000700320936F03243C394008F4A2CF26E617
:102FD000E21625E0F20611F41FEF08C0F701108297
:102FE00084E70E94592881E080931C02812FE1969A
:102FF0000FB6F894DEBF0FBECDBFDF91CF911F910A
:103000000F91FF90EF90DF90CF90BF90AF909F9087
:103010008F907F906F905F904F903F900895809138
:103020001C0290918307892B90919202892B909199
:103030008407892B09F048CF0E94672F882309F461
:1030400043CF1092660506E615E085E0382E6E0146
:10305000F5E1CF0ED11CCE0186963C0198ED492EAC
:1030600091E0592EFE0131967F0180906F03909080
:103070007003F4EC8F16F9E09F0628F00656154011
:1030800009F08DCFA9CFC4018F719927892B09F43D
:10309000A895389C5001399CB00C112448E0A40E2E
:1030A000B11CC5010E94122F8F3F09F468C08FEF39
:1030B000881A980A41E1B601C5010E946D29F601FE
:1030C00001900020E9F73197EC19FD09B601EA30CB
:1030D00018F039976E0F7F1FC3010E94CA337F9289
:1030E0006F929F928F925F924F92FF92EF920E9407
:1030F0004434F70101900020E9F73197EE19FF09F8
:10310000E00FF11F0FB6F894DEBF0FBECDBFE65043
:10311000F64040F1E5E006361E07C1F4B70186E649
:1031200095E00E94CA338AE20E94592884E70E94EF
:10313000592881E080931C0280916F039091700365
:1031400001969093700380936F0346CF8AE20E94AA
:10315000592884E70E94592881E080931C02F801D5
:1031600010823ACFB701C8010E94CA33F70101901B
:103170000020E9F73197EE19FF090E0F1F1F80910C
:103180006F039091700301969093700380936F0387
:103190006CCF08950E94EC1D0E942B0A0C94951E82
:1031A000CF93DF930F92CDB7DEB7809183079091D5
:1031B0009202892B90918407892B59F50E94672FE1
:1031C000882339F1198291E080919C02811101C01C
:1031D00090E081E04091B6035091B7036091B8034D
:1031E0007091B903452B462B472B09F480E09817C3
:1031F00011F081E0898385E090E00E94122F99818F
:10320000891739F041E065E070E0CE0101960E9437
:103210004A2A0F90DF91CF9108950E94CA180E9408
:10322000521580919503882331F081508093950346
:103230008111B3C0409A80917D0290917E020097E7
:1032400039F0019790937E0280937D02892B11F4CF
:1032500010927F028091350290913602892B49F0BD
:1032600080913502909136020197909336028093B7
:10327000350280913D028823F1F080913B029091CC
:103280003C020097C1F0019790933C0280933B026F
:10329000892B89F461E773E08AEA92E00E94CA33DD
:1032A0006FED71E086E695E00E94CA3384E70E94E4
:1032B000592810923D0280911F02882309F40FC102
:1032C00080916402811111C080912402882369F0E9
:1032D00080916202909163028A3F910508F05FC07D
:1032E000019690936302809362028091590788232C
:1032F00009F488C09CE8980F923008F07CC0909147
:103300007B02981378C08091790290917A02863975
:10331000910508F048C0019690937A028093790253
:1033200080915302882309F45FC0809173029091C9
:1033300074028C3221E0920708F067C001969093E6
:1033400074028093730280914402882309F486C03A
:1033500080914202909143028436910508F073C037
:103360008091420290914302019690934302809390
:10337000420280912E02882309F48BC080912D0295
:10338000823008F47CC0409A80912D028F5F863095
:1033900008F077C080932D02089540984CCF8FEFAE
:1033A00080936402A2CF65E784E70E947F28809122
:1033B0007502909176028F3F980729F001969093BD
:1033C00076028093750283E30E946B2810927F023D
:1033D00010927E0210927D0210927A02109279026F
:1033E00010927B0210925302109274021092730298
:1033F00010927202A8CF80937B0210927A021092F0
:1034000079028ECF10927B02F8CF10927402109244
:1034100073020E949D031092530210925202109266
:10342000490510921C02809172028F3F29F410927C
:1034300072020E94760B87CF8F5F80937202833077
:1034400008F481CFF4CF1092410282E390E0909390
:10345000400280933F020E949D038BCF80913F02E8
:1034600090914002892B09F484CF80913F02909182
:10347000400201979093400280933F027ACF409898
:1034800083CF10922D0280912E02815080932E02C4
:10349000089580912402811102C0409819C0809142
:1034A00095038111FACF80910B018031A8F48091AE
:1034B00061028F5F823370F48093610280916102B8
:1034C000883259F38B3249F38E52843030F3409A6C
:1034D0000C94D01881E0F0CF10926102EFCF1092DF
:1034E00064021092630210926202FFCE0E948B1E51
:1034F0000E943E160C94EF29F89480916E008D7F07
:1035000080936E007894000080912802811109C098
:10351000F89480916E00826080936E007894000031
:1035200008951092280280912702882329F081E0D3
:103530008093260210922702F89480916E00826098
:1035400080936E00789400008091260280FF33C043
:10355000809160028F5F8A3079F180936002000071
:10356000F89400B601FE26C08091C1008F77809349
:10357000C100789480914A0590914B05892B11F1F7
:1035800080915A058F5F80935A058333D8F0439A10
:103590008091C1008F778093C10080B78D7F80BFFD
:1035A0001092C7031092C603109248051092470567
:1035B0001092C303789408951092600283E0809380
:1035C0002602CDCFF8948091C10080688093C1001D
:1035D00078940000EFCFA89582E084BD83E085BD9C
:1035E0008FE387BDEEE6F0E080818260808383B761
:1035F000817F83BF08951F93CF93DF9344E050E012
:1036000061E070E086E993E00E942F2F809196039D
:1036100081508E3F00F181E480938507809396036B
:1036200082E4809386078093970383E480938707DF
:103630008093980384E480938807809399030E9481
:10364000672F8823E1F344E050E061E070E086E911
:1036500093E00E94352F8DEE90E30E94362E853A3E
:1036600009F050C081EE90E30E94122F8F3F09F4C1
:1036700055C08093020182EE90E30E94122F8F3F8B
:1036800009F459C08093080186E090E00E94122F4F
:103690008F3F09F45DC0809307018CED90E30E9499
:1036A000122FD82F8DED90E30E94122F182F8EED40
:1036B00090E30E94122FC82F8FED90E30E94122FEB
:1036C000282F9D2F91239C2398239F3F09F04DC0C5
:1036D00082E090E0A0E0B0E08093030190930401C9
:1036E000A0930501B093060110927F0210927E0212
:1036F00010927D021092530210921F02DF91CF911F
:103700001F9108950E94C60365EA8DEE90E30E9422
:10371000C02E0E94DD2E8823E1F3A4CF81E08093A8
:1037200002010E94672F8823E1F361E081EE90E3BC
:103730000E941B2FA0CF81E0809308010E94672F79
:103740008823E1F361E082EE90E30E941B2F9CCF7F
:1037500081E0809307010E94672F8823E1F361E0F5
:1037600086E090E00E941B2F98CF8C2F90E0B0E075
:10377000A0E0DC0199278827912B8D2BB22B809319
:10378000030190930401A0930501B0930601AC01DD
:10379000BD0141505109610971094F3956486140D5
:1037A000710508F095CF8F399648A140B10509F011
:1037B0009BCF85E090E00E94122F8F3F69F08170CF
:1037C000819580939C021092B6031092B7031092D9
:1037D000B8031092B90388CF10929C02F4CFCF9215
:1037E000DF92EF92FF920F931F93CF93DF93CDB7AA
:1037F000DEB761970FB6F894DEBF0FBECDBF109154
:103800005907143209F410C1D0F4133208F0D2C0B1
:10381000133008F088C0123009F457C010E0812F2F
:1038200061960FB6F894DEBF0FBECDBFDF91CF918A
:103830001F910F91FF90EF90DF90CF900895183275
:1038400028F4163208F43AC11FEFE9CF183231F7E5
:1038500062E873E0FB0101900020E9F7BF016150CD
:10386000710945E857E082E893E00E94C42808E027
:1038700010E0B80185E897E00E949129882309F4B7
:103880008DC11092820345E857E063E873E082E857
:1038900093E00E94C42895E8C92E97E0D92EF12C18
:1038A000E12CF60161916F01C701800F911F0E9409
:1038B000C02E0E94DD2E8823E1F3FFEFEF1AFF0AEE
:1038C00025E0E216F10469F7BFCF8091830790915C
:1038D0009202892B90918407892B21F082E00E942B
:1038E0005928B2CF0E94672F8823C1F381E48093C7
:1038F00085078093960382E48093860780939703DD
:1039000083E4809387078093980384E480938807F7
:103910008093990364E081E090E00E946B2A83E346
:103920008093950391CF8091830790919202892B88
:1039300090918407892B11F0812FD1CF0E94672F9E
:103940008823D1F30DEF010F40E250E06FEF70E0FC
:1039500085E897E00E94A433011120C081E48093A0
:1039600086078093960382E480938707809397036A
:1039700083E4809388078093980384E48093890785
:103980008093990310928A0710929C021092B603BA
:103990001092B7031092B8031092B90360E220E2CC
:1039A000029FC00111240E946B2A81E0810F0E94B6
:1039B0005928B5CF0091830780919202082B8091FE
:1039C0008407082B11F083E28ACF0E94672F882397
:1039D000D1F3F12CE12CC7010E94122FF701EE5216
:1039E000FF4FE4918E130FEF8FEFE81AF80A96E07D
:1039F000E916F10481F758E0E52EF12CC7010E9489
:103A0000122F182F8F3F51F4EFEFEE1AFE0AFCED44
:103A1000EF16F0E3FF0691F7002311F083E05FCF8C
:103A20000E94FB1A409AFBCE10918307809192026C
:103A3000182B80918407182B11F084E250CF0E943C
:103A4000672F8823D1F36AE973E0CE0101967C01E8
:103A50000E94CA33F70101900020E9F7BF016150CD
:103A6000710945E857E0C7010E94C428809102010E
:103A7000813091F048E0E42EF12CB70185E897E021
:103A80000E949129811114C0F5E0EF0EF11C2CED7C
:103A9000E21620E3F20689F780910801882309F4F1
:103AA000D3CE80910201813029F40E948E07CCCEC2
:103AB0001FEFF2CF112309F4C7CEF7CF62E873E00E
:103AC000FB0101900020E9F7BF016150710945E851
:103AD00057E082E893E00E94C42838E0E32EF12CFE
:103AE00010E000E0C8018F719927892B21F401159E
:103AF000110509F0A895B70185E897E00E94912982
:103B00008111A2CE0F5F1F4FF5E0EF0EF11C043CB8
:103B100029E0120739F762E873E0FB010190002009
:103B2000E9F7BF016150710945E857E082E893E089
:103B30000E94C42888E0E82EF12C10E000E00AC0C2
:103B40000F5F1F4FF5E0EF0EF11C043C29E0120758
:103B500009F47ACEC8018F719927892B09F4A895A9
:103B6000C7010E94122F8F3F59F725E8C22E27E088
:103B7000D22E10E000E0F60161916F01C8018E0DB8
:103B80009F1D0E94C02E0E94DD2E8823E1F3A89580
:103B90000F5F1F4F0530110571F756CE0B5F1F4F9A
:103BA0000C3D80E3180709F064CE4ECE0E94501100
:103BB000811106C00E94EF1B811102C00E941E17D6
:103BC0000C949728E82FF0E0E455FC4F9081907F0B
:103BD00081E009F080E008959091B503892F8D7FF1
:103BE0008093B5038091AC03807F90FD56C0811116
:103BF0004BC08091BE039091BF03A091C003B091D0
:103C0000C1034091BA035091BB036091BC03709112
:103C1000BD0384179507A607B70798F40196A11D61
:103C2000B11D8093BE039093BF03A093C003B093D4
:103C3000C103481759076A077B0719F481E080938D
:103C4000B5038091B5039091C203891781F08093E9
:103C5000C203982F92609093B50380FD53C01092D9
:103C6000BE031092BF031092C0031092C103809153
:103C7000AB03882341F09091B5039D7F9093B503EA
:103C800081508093AB0308951092BE031092BF033E
:103C90001092C0031092C103D4CF882351F18091B8
:103CA000B1039091B203A091B303B091B4034091DA
:103CB000AD035091AE036091AF037091B0038417D0
:103CC0009507A607B70708F0BCCF0196A11DB11D47
:103CD0008093B1039093B203A093B303B093B40362
:103CE000481759076A077B0709F0ABCF1092B50355
:103CF000A8CF1092B1031092B2031092B3031092A6
:103D0000B4039FCF1092B1031092B2031092B30389
:103D10001092B403ACCF8091AC03189B8695816060
:103D20001899880F8093AC030895CF92DF92EF9299
:103D3000FF928091B6039091B703A091B803B09120
:103D4000B90320919C020097A105B105A1F001974C
:103D5000A109B1098093B6039093B703A093B80368
:103D6000B093B903892B8A2B8B2B29F481E0211185
:103D700080E080939C0280919C02882309F442C0D9
:103D80008091800281113EC0C0903702D0903802ED
:103D9000E0903902F0903A022FEFC216D206E20606
:103DA000F20681F18FEFC81AD80AE80AF80AC09221
:103DB0003702D0923802E0923902F0923A02C701FB
:103DC000B6012AE030E040E050E00E94E230672B8C
:103DD000682B692BB9F464EE70E38C2D0E947A2A6B
:103DE00065EE70E3809138020E947A2A66EE70E3F5
:103DF000809139020E947A2A67EE70E380913A023C
:103E00000E947A2A80919C0280938002882369F024
:103E10008091370290913802A0913902B0913A0214
:103E20008032914AA740B10510F05D9801C05D9ABB
:103E3000FF90EF90DF90CF90089584E190E0A0E0B4
:103E4000B0E08093AD039093AE03A093AF03B09323
:103E5000B0038093BA039093BB03A093BC03B093C9
:103E6000BD0384EE90E30E943F2F6F3F2FEF720758
:103E70008207920749F0609337027093380280936B
:103E8000390290933A020895109237021092380244
:103E90001092390210923A0208951092C2031092C1
:103EA000B6031092B7031092B8031092B9038EE1D3
:103EB0008093AB0308959093460580934505109237
:103EC0004F0510924E05E0ECF0E080818064808325
:103ED000F894E1ECF0E080818064808378940000C5
:103EE0008FEF809384020895CF93DF9321E4209392
:103EF000070624E520930806A9E0B6E0FC0193E05C
:103F0000981B892F8E0FED0124912D93211107C04D
:103F10009DE0988390E0DF91CF910C945B1F3196E8
:103F2000F0CFE7E0F6E081E4808384E581830190CF
:103F30000020E9F7CF01885096409927FC01E95FFE
:103F4000F94F2DE0208301960C945B1F78942F93FA
:103F50002FB72F933F938F939F93EF93FF932091CE
:103F60004E0530914F0580914505909146052817E3
:103F7000390788F0F8948091C1008F7B8093C1004D
:103F800078940000FF91EF919F918F913F912F9135
:103F90002FBF2F911895329910C080914E059091A6
:103FA0004F05FC01E95FF94F2081019690934F0581
:103FB00080934E052093C600E5CF8FEF8093840257
:103FC000E1CF8F938FB78F938091C1008F778093CC
:103FD000C10078948091C6000F924F931F921124D4
:103FE0002F933F93EF93FF93AF93BF939F932091B2
:103FF0004A0530914B058F3F09F4E8C0E8ECF3E047
:10400000A9012C3791E0390708F0CDC02115310501
:1040100021F48A3009F04AC02CC09091C8038D3039
:1040200009F59D30F9F09A30E9F09091C3039111B0
:1040300019C091E890938302439AF8949091C1003B
:104040009F779093C10090B79D7F90BF78940000B8
:104050001092C7031092C6031092480510924705AC
:104060001092C30321153105A1F290819D3089F68C
:104070001DC09091C303911119C091E890938302E0
:10408000439AF8949091C1009F779093C10090B7A4
:104090009D7F90BF789400001092C7031092C603D2
:1040A00010924805109247051092C3038F01A90191
:1040B0004F5F5F4FDF01A20FB31F00B601FE5DC06F
:1040C0002430310508F459C08A3009F056C0BD01CA
:1040D00061507109EB0198819D3009F04EC061502B
:1040E0007109EB0198819A3009F447C06150710958
:1040F000EB0198819D3009F440C0EF0191819A3025
:10410000E1F590819D30C9F56091470570914805B2
:104110007093C7036093C6035093480540934705C7
:104120009091C3039F5F9093C30360915605709174
:104130005705709359056093580560915405709127
:10414000550570935705609356056091520570911F
:10415000530570935505609354056091C6037091A3
:10416000C7037093530560935205609147057091A2
:104170004805709351056093500590914905992326
:1041800061F02330310549F4803239F49091CA034B
:104190009E3319F49FEF9093C4038C939A01E40F1C
:1041A000F51F10820FC030E020E080E8809383028A
:1041B0001092C7031092C60310924805109247054B
:1041C0001092C30330934B0520934A0510925A0571
:1041D0009F91BF91AF91FF91EF913F912F911F90D0
:1041E0004F9100B601FE08C0F8948091C10080682C
:1041F0008093C100789400000F908F918FBF8F91B2
:10420000189583E08093C4001092C500E1ECF0E0C3
:104210008081886180838BB18C7F8BB95198429863
:1042200043983B98089599B1892F887093FF0EC0E9
:1042300010920A0110924B0510924A05519A8BB1C7
:1042400083608BB93B9A439A429A8FEF089580918D
:104250000A018823B9F191E0980F90930A01913AED
:1042600039F1A8F49F30D9F030F49230D1F0933086
:10427000E9F080E0089587528430D8F70E94132136
:1042800091E0811101C090E0892F819508959F3FB1
:10429000A0F4953F98F7983C49F0973D51F7549812
:1042A000E8CF54980E94132181110BC0549AE1CF9A
:1042B0001092820210928102DCCF81E080930A0189
:1042C000D8CF8FEF0895FC014217130609F048F488
:1042D000DB01A853BC4F90E0491305C0942F81E047
:1042E000491380E008952D9184912813F8CF3196D9
:1042F0009F5FF2CF8FB7F8941092C7031092C60356
:1043000010924805109247058FBF08952F923F9253
:104310004F925F926F927F928F929F92AF92BF92D5
:10432000CF92DF92EF92FF920F931F93CF93DF9381
:10433000C8E047E0842E59E0952E63E0762E78E0C1
:10434000672EE5E15E2EF2E04F2EADE03A2E2224FC
:1043500023949FB7F8948091C303811128C09FBF15
:10436000C0916505CC2301F1C150C0936505D0E033
:10437000C55ADA4F8881809383021882C0918302E4
:104380008C2FDF91CF911F910F91FF90EF90DF90D5
:10439000CF90BF90AF909F908F907F906F905F90E5
:1043A0004F903F902F90089510928302E9CF85306F
:1043B00008F084E0E82FF0E0EE0FFF1FE05BFA4F1B
:1043C000C080D180118210828150E82FF0E0EE0F82
:1043D000FF1FE05BFA4F208131818093C3039FBFB1
:1043E000C216D306A8F5809165058A3010F0909228
:1043F000650589010C191D0904501109760142E077
:10440000E40EF11CC90188539C4FFC013397B08026
:104410003197A080F601E853FC4FD581EBE4BE1242
:104420001BC0FFE4AF1245C10597FC0180818032BB
:1044300009F45AC12630310508F456C1E0916505EA
:1044400081E08E0F80936505F0E0E55AFA4F2082F7
:10445000C15009F07ECF94CFD734A1F4980146E043
:10446000B70182EF93E00E946321882359F0E09125
:10447000650581E08E0F80936505F0E0E55AFA4FFF
:104480003082E6CFFFE4AF1215C0980145E0B701D6
:104490008CEE93E00E946321882361F0E091650532
:1044A00081E08E0F80936505F0E0E55AFA4F44E015
:1044B0004083CECF87E4B81215C0980147E0B7011A
:1044C00084EE93E00E946321882309F4F5C0E09113
:1044D000650581E08E0F80936505F0E0E55AFA4F9F
:1044E0004082B6CFE4E4BE12E7C098014CE0B701C9
:1044F00087ED93E00E946321882309F4DDC0E091F9
:10450000650581E08E0F80936505F0E0E55AFA4F6E
:104510008CE080839DCFDD34A1F4980146E0B701A3
:1045200089EC93E00E946321882309F1E0916505FD
:1045300081E08E0F80936505F0E0E55AFA4F5082D6
:1045400087CFD435A1F4980146E0B70182EC93E01F
:104550000E946321882359F0E091650581E08E0F68
:1045600080936505F0E0E55AFA4F608271CFF5E47B
:10457000AF1214C098014AE0B70187EB93E00E94A4
:104580006321882359F0E091650581E08E0F8093C7
:104590006505F0E0E55AFA4F70825ACF45E4B4124F
:1045A00014C098014BE0B7018BEA93E00E946321AD
:1045B000882311F1E091650581E08E0F80936505F8
:1045C000F0E0E55AFA4F908243CF89E5B81214C063
:1045D000980144E0B70186EA93E00E9463218823B2
:1045E00059F0E091650581E08E0F80936505F0E05C
:1045F000E55AFA4F80822CCFD53411F598014BE063
:10460000B7018AE993E00E946321882309F420CF4F
:104610004AE050E070E060E0C6018A529C4F0E9480
:10462000343270938E0260938D02E091650581E0D3
:104630008E0F80936505F0E0E55AFA4F45E038CFDC
:10464000D33509F005CF98014BE0B7018EE893E030
:104650000E9463218823C1F04AE050E070E060E0EE
:10466000C6018A529C4F0E94343270938C02609330
:104670008B02E091650581E08E0F80936505F0E087
:10468000E55AFA4F86E045CF980146E0B70187E842
:1046900093E00E946321882309F4DACEE091650556
:1046A00081E08E0F80936505F0E0E55AFA4F8EE0C9
:1046B00030CFD73409F4D2CED93409F02CCF9801B9
:1046C00046E0B70180ED93E00E946321882309F45E
:1046D0004ECFE091650581E08E0F80936505F0E097
:1046E000E55AFA4F8AE015CFD73409F0CECEB6CED0
:1046F000CF930E9486218823D9F080918302843051
:1047000021F0833111F0813089F4CFB7F8940E9401
:104710007A21439AF8948091C1008F778093C100E9
:1047200080B78D7F80BF78940000CFBF80918302D7
:10473000CF910895AF92BF92CF92DF92EF92FF9206
:104740000F931F93CF93DF936C01B62EA42EF60127
:10475000C081D181888190E00E941533892B39F581
:10476000FAE0BF9E800111240C5D1B4FBA1498F42F
:10477000F801E490F12CB8016F5F7F4FA701CE01E3
:104780000E942633065F1F4F892BB1F4CE0DDF1D2B
:10479000F601D183C0838B2DDF91CF911F910F91B3
:1047A000FF90EF90DF90CF90BF90AF90089521964B
:1047B000F601D183C083CBCFB394D8CFEF92FF92D1
:1047C0000F931F93CF93DF937C01F701C081D181B9
:1047D000088110E0C8010E941533892B09F03FC001
:1047E000C8010E941E338C018091960390E00E94C4
:1047F0001E3308171907C1F5898190E00E941E3306
:104800008C018091970390E00E941E3308171907CE
:1048100059F58A8190E00E941E338C0180919803A3
:1048200090E00E941E3308171907F1F48B8190E085
:104830000E941E338C018091990390E00E941E33E8
:104840000817190789F42496F701D183C0838FEFE5
:10485000DF91CF911F910F91FF90EF9008952196D6
:10486000F701D183C083B1CF80E0F2CF44E050E0C4
:104870006FE174E00E94263321E0892B09F020E0EB
:10488000822F08950C949A23EF92FF920F931F9317
:10489000CF93DF93EC017B01088119814AE050E05E
:1048A000BC01C8010E942431F701608371838283B7
:1048B000938381E0288139812017310709F480E052
:1048C000DF91CF911F910F91FF90EF900895DF92AC
:1048D000EF92FF920F931F93CF93DF937C01D62E1D
:1048E000F701C081D181088110E0C8010E94153311
:1048F000892BA1F48D2D90E00E941E330817190713
:1049000091F42196F701D183C0838FEFDF91CF918E
:104910001F910F91FF90EF90DF9008952196F7017E
:10492000D183C083DDCF80E0F1CFDF92EF92FF92A1
:104930000F931F93CF93DF938C01D62EF801E08065
:10494000F180CE2DDF2D899190E00E941533892BC7
:1049500089F48D2D90E00E941E33982FF7018191EC
:10496000882361F07F019813F9CFD801ED93FC9370
:104970008FEF06C0D801CD93DC93E0CF9923A9F344
:10498000DF91CF911F910F91FF90EF90DF900895ED
:10499000CF92DF92EF92FF920F931F93CF93DF930B
:1049A0008C01E62ED72EF42EF801C081D1818881AA
:1049B00090E00E941533892B89F4CE2DDD2DEF0C6C
:1049C0006E01EC1210C0F6011082DF91CF911F91A1
:1049D0000F91FF90EF90DF90CF9008952196D8012E
:1049E000CD93DC93E1CFD801ED91FC91F0808F2D38
:1049F00090E00E941533892B31F7F992FF2019F3CB
:104A0000D8018D919C91119701968D939C93D8CF4D
:104A10008F929F92AF92BF92CF92DF92EF92FF92CE
:104A20000F931F93CF93DF93CDB7DEB764970FB685
:104A3000F894DEBF0FBECDBF7C016B01042FF701E0
:104A4000A080B180F501808190E00E941533892B10
:104A500009F049C010E04501F50181915F0188230B
:104A600049F0143138F48032B1F30E94B1288D300E
:104A700009F040C0512F1A3008F059E0812F193049
:104A800008F489E08950990BA1E0B0E0AC0FBD1F9C
:104A9000A80FB91FC60130E020E00150110B251707
:104AA00018F420173107BCF1F601E50FF11D108253
:104AB000F6018081882321F0F701808291828FEFB7
:104AC00064960FB6F894DEBF0FBECDBFDF91CF91D5
:104AD0001F910F91FF90EF90DF90CF90BF90AF901C
:104AE0009F908F9008958FEFA81AB80AF701B182AE
:104AF000A082A5CFF5013197808190ED980F9A3073
:104B000008F0A9CFE1E0F0E0EC0FFD1FE10FF11D8F
:104B100080831F5FA0CF4D91FC014193CF012F5F98
:104B20003F4FBDCF9F92AF92BF92CF92DF92EF9255
:104B3000FF920F931F93CF93DF9300D000D000D04C
:104B40000F92CDB7DEB79F838E837C0182E3F7019E
:104B5000A5E8B7E001900D928A95E1F75701F501BC
:104B600081918F0190E00E941533892BE1F5CE01F0
:104B700001966C0185015C0184E0982E900EF8018D
:104B800081918F01882349F090E00E941E33F60145
:104B900081936F019012F3CF8FEF1D82882329F14B
:104BA0006EEF71E0C5010E94C133892BF1F465E914
:104BB00071E081E793E00E94E033892BB1F010E1CE
:104BC000812F27960FB6F894DEBF0FBECDBFDF91C1
:104BD000CF911F910F91FF90EF90DF90CF90BF90FA
:104BE000AF909F9008955801BACFCE0106960E94CB
:104BF000DE232E819F81811108C0822F0E943624DE
:104C0000182F8823E9F21BE0DBCF022F192FF801C0
:104C100081918F01811110C04AE160E0CE010696BA
:104C20000E949A23182F8A3108F041C2E82FF0E041
:104C3000ED5BF84C0C94043190E00E941E33F801B7
:104C400031978083E4CF0F5F1F4F1F830E830E8148
:104C50001F81F801808190E00E941533892B99F71C
:104C600030E020E0C8018E199F098B57984FFC0156
:104C7000E20FF31F40815FEB540F5A3128F040538D
:104C80004A3010F012E09CCF2F5F3F4F24303105A7
:104C900071F7FC01408151816281738140939603D9
:104CA00050939703609398037093990344E061E0F5
:104CB00070E00E944A2A13E083CF4EE062E873E07E
:104CC000CE0106960E94082581117ACF0E811F81A0
:104CD000F801808190E00E941533892B69F443E04C
:104CE00050E06BE174E0C8010E944E3318E0892B5C
:104CF00009F466CF16E064CF0F5F1F4F1F830E834A
:104D0000E5CF4EE062E873E0CE0106960E940825EA
:104D1000882309F4B7CF85E20E945928CCCF4EE012
:104D200062E873E0CE0106960E940825882309F404
:104D3000A9CF88E2F1CF47E168E0CE0106960E9454
:104D40009A23883071F481E08093020161EE70E370
:104D50000E947A2A8FEF8093080162EE70E381E06F
:104D60000EC08930C1F481E08093020161EE70E3EE
:104D70000E947A2A1092080162EE70E380E00E949D
:104D80007A2A1092070166E070E080E00E947A2A99
:104D90000E94820790CF8631A9F481E080930201BE
:104DA00061EE70E30E947A2A1092080162EE70E3CD
:104DB00080E00E947A2A8FEF8093070166E070E01E
:104DC00081E0E4CF853109F05DCF81E0809302017D
:104DD00061EE70E30E947A2A1FEF1093080162EEE1
:104DE00070E381E00E947A2A10930701E7CF47E140
:104DF00068E0CE0106960E949A23883031F4109222
:104E0000020161EE70E380E0A3CF893031F41092AB
:104E1000020161EE70E380E0ABCF863131F4109295
:104E2000020161EE70E380E0BDCF853109F02ACF49
:104E30001092020161EE70E380E0CCCF0F5F1F4F54
:104E40001F830E830E811F81F801F0808F2D90E06B
:104E50000E941533892B91F7FF2009F413CF81E4C9
:104E60008093070684E5809308061F930F9383E0E1
:104E700092E09F938F9389E096E09F938F930E9497
:104E800044340E94911F8FEF80933D028CE291E0A9
:104E900090933C0280933B020F900F900F900F90E5
:104EA0000F900F9008CF0F5F1F4F1F830E830E814F
:104EB0001F81F801808190E00E941533892B99F7BA
:104EC00043E050E067E174E0C8010E944E33892B53
:104ED00021F4109290021DE073CE4EE067E477E07B
:104EE000CE0106960E9408251CE0882309F468CEAE
:104EF0008FEF809390021EE063CEB501CE0106963F
:104F00000E944424882309F4BDCE8981482F5A8108
:104F10006B817C818A019B010150110921093109B2
:104F20000F3916482140310508F0ACCEC09003017E
:104F3000D0900401E0900501F09006014093030138
:104F40005093040160930501709306016CED70E3CA
:104F50000E947A2A6DED70E3809104010E947A2A02
:104F60006EED70E3809105010E947A2A6FED70E387
:104F7000809106010E947A2A2FE9C21626E8D206FD
:104F800021E0E206F104C9F489819A81AB81BC81F8
:104F90008F399648A140B10581F065E070E08FEF50
:104FA0000E947A2A10929C021092B6031092B703C4
:104FB0001092B8031092B9035D980E9482071FE017
:104FC000FFCD0F5F1F4F1F830E830E811F81F801DE
:104FD000808190E00E941533892B99F742E050E0E0
:104FE00064E174E0C8010E944E33892B21F58FE9FA
:104FF00096E8A1E0B0E08093030190930401A093B0
:105000000501B09306016CED70E38FE90E947A2AE6
:105010006DED70E3809104010E947A2A6EED70E3D9
:10502000809105010E947A2A6FED70E3809106015C
:105030000E947A2AC2CF43E050E060E174E0C801E8
:105040000E944E33892B09F01DCE82E090E0A0E053
:10505000B0E08093030190930401A0930501B09305
:1050600006016CED70E3D2CF88E198E00FB6F894BA
:10507000A895809360000FBE90936000FFCF8FEFE4
:1050800080931D0291E09093020180930801809328
:10509000070161E773E08AEA92E00E94CA3369EF90
:1050A00073E086E695E00E94473384E735CE11E051
:1050B00087CDE9E5F7E030E020E09191911105C05E
:1050C000275A384FF901808308952F5F3F4F2A30C8
:1050D000310599F70895E9E5F7E030E020E0919196
:1050E000981761F0911105C0275A384FF901808354
:1050F00008952F5F3F4F2A30310589F7089590E0DA
:10510000E92FF0E0E75AF84F2081281770F0621776
:1051100060F0292F293028F0109262079A3081F729
:105120000895318131932F5FF5CF9F5FF7CFE9E588
:10513000F7E08181819387E0E236F807D1F710929A
:1051400062070895E9E5F7E02AE02E0F919198179C
:1051500010F0691720F42E13F9CF80E008958FEF37
:1051600008958B3259F030F4833251F08A3251F085
:105170008DE0089580538A30D8F708958AE0089525
:105180008CE008958BE00895AF92BF92CF92DF92AA
:10519000FF920F931F93CF93DF93182FEB016A01B8
:1051A00045E050E06FEF70E0C6010E94A4338C2F01
:1051B000811B182F219700E0823058F4DF91CF91A6
:1051C0001F910F91FF90DF90CF90BF90AF90089507
:1051D000092F88810E94B128F82EF29480EFF822DE
:1051E000FE0182915F010E94B1288F29113061F484
:1051F000E5018F6010E091E0900FF601E00FF11DE6
:1052000080831111E5CFDACF22971250F4CFE82F27
:10521000F0E0E85DFA4F84910895CF93DF939C010D
:10522000EB011882BC0180E0DB016F5F7F4F9C9136
:105230009F3F19F0853009F04AC0A217B30709F45F
:105240004AC0642F70E090E0880F991F119768178B
:10525000790744F4DB011197B7FDDB01B595A795FC
:10526000A20FB31FEC918E2F8F708F3091F5E295C6
:10527000EF70F0E0E85DFA4F84918883882319F09D
:105280002196119781E011961197A217B307D8F0D4
:10529000EC91EF70F0E0E85DFA4FE491E883EE23E3
:1052A00011F021968F5F841771F0EC91E295EF7009
:1052B000F0E0E85DFA4FE491E9938F5F481719F049
:1052C0002A173B0709F71882DF91CF9108958F5F66
:1052D000ABCF80E0D8CF80E0F7CFFF920F931F9342
:1052E000CF93DF9300D000D00F92CDB7DEB78B0104
:1052F000F42E45E050E0BC01CE0101960E942F2F14
:105300004F2DB801CE0101960E940D290F900F90EC
:105310000F900F900F90DF91CF911F910F91FF9001
:1053200008950F931F93CF93DF93EC018B01888136
:105330008F3F89F0CB010E94122F8F3F61F0C8018F
:105340000E94122F382F307F9991292F207F303FD4
:1053500089F0203F11F480E010C03213FCCF8F7031
:105360009F708F3079F09F30B1F38913F4CF0F5FC6
:105370001F4FE5CF81E0203F71F7DF91CF911F9163
:105380000F91089581E09F3031F7F7CF0F931F936E
:10539000CF93DF9300D000D00F92CDB7DEB78B0153
:1053A000FC0101900020E9F73197BF01681B790BE0
:1053B000680F792F711DAE014F5F5F4F0E94C428A7
:1053C000B801CE0101960E9491290F900F900F9085
:1053D0000F900F90DF91CF911F910F9108950F9330
:1053E0001F93CF930E94672F882381F180918307B9
:1053F00090919202892B90918407892B39F1C09169
:1054000091020C2F10E08091810790918207800F0C
:10541000911F0E94362EF801EB57F84F90818913A7
:1054200001C0CF5F80919202C817A0F48C2F90E04A
:10543000FC01EB57F84F2091810730918207608182
:10544000820F931F0E94C02EC0939102CF911F9193
:105450000F910895809183071092830780939202A1
:1054600025E837E0F901882379F39E2F921B9817DE
:1054700070F08091B7079091B8079093820780935E
:105480008107609185070E94C02EC0E0DDCF90A506
:105490009193EBCF0F931F93CF938B01C42F442392
:1054A000B1F050E0BC0185E897E00E949B33109377
:1054B00082070093810710929102C093920260913B
:1054C0008507C801CF911F910F910C94C02ECF91E9
:1054D0001F910F910895662361F090938207809346
:1054E00081071092910260939202609185070C945B
:1054F000C02E08951F93CF93DF93182FEB01CB019C
:105500000E94122F811791F010938507D093820784
:10551000C09381071092910281E080939202612FE3
:10552000CE01DF91CF911F910C94C02EDF91CF91CE
:105530001F9108950F931F93CF93DF9300D000D056
:10554000CDB7DEB78C0119821A821B821C820E94A1
:10555000122F8983C80101960E94122F8A83C801E5
:1055600002960E94122F8B8369817A818B819C81A4
:105570000F900F900F900F90DF91CF911F910F918F
:105580000895DF92EF92FF920F931F93CF93DF93D3
:10559000DC011D91141710F01FEF140F862F072F39
:1055A000C0E0D12C90E0D0E827E030E0C1130CC07F
:1055B000C60FD72FD11D1882DF91CF911F910F9168
:1055C000FF90EF90DF9008954D2D50E0EC91F0E0CA
:1055D000ED2EF12CE094F094EE21FF2102C0EE0FAD
:1055E000FF1FDA94E2F7E90FF11DE75BF94F9491A1
:1055F000E82EF02EF70191937F01CF5FFC2FF7701B
:10560000DF2E89F0ED91ED23F0E0C901841B950BAD
:1056100002C0F595E7958A95E2F79E2FD695D0586A
:105620008E2D0F2DC3CF90E0D0E8FACFCF92DF922E
:10563000EF92FF920F931F93CF93DF93EC01461BE2
:10564000570BDC014D933FEF340F90E020E00FE764
:1056500010E087E04FEF50E0231738F18881877022
:10566000D1F0FB01E20FF11DE081F0E0E75BFA4FC2
:1056700024914FE750E0092E02C0440F551F0A94B1
:10568000E2F7E22FF0E0E423F52302C0F695E79578
:105690009A95E2F7ED93CD01DF91CF911F910F9194
:1056A000FF90EF90DF90CF9008956B01C20ED11C58
:1056B000F601F080EF2DF0E0E75BFA4FE49178011E
:1056C000092E02C0EE0CFF1C0A94E2F7F0E0EE2275
:1056D000FF22092E02C0F694E7940A94E2F7F6013D
:1056E000F180EF2DF0E0E75BFA4FE491F82EF91A24
:1056F0006A010F2C02C0D694C7940A94E2F7EC21F9
:1057000001C0EE0FFA94EAF7EE29ED939F5F973010
:1057100011F42F5F90E02F5F9FCFFC01640F752F76
:10572000711D4617570709F4089590819A3370F454
:105730009053292F2295207F91819A3348F49053DA
:10574000920FDA019D93AD013296EBCF9753F1CFD3
:105750009753F6CF1F93CF93DF93DC01EA018C912F
:10576000873C50F0DB011C928FEF888390E080E053
:10577000DF91CF911F91089518828C9190E001964E
:10578000A80FB91F8C918B7F11F08FEF8883119632
:105790003C911197313130F7FD01339612968C917F
:1057A000982F9F7E41E0913809F040E0813921F443
:1057B0008BE2DB018D93BD01562F172F80E010C0C7
:1057C0009081222311F0929531969F70905D411146
:1057D00001C090E3A52FB12F9D938F5F5A2F1B2FF0
:1057E000282F21708313ECCF680F711DDB011C92F1
:1057F000211101C031978281882311F08FEF8883B6
:10580000CF010396B5CFFC019081A92FAF708AE03C
:1058100092959F70A89F900D1124DB019C9391811C
:10582000692F6F7092959F70689F900D1124DA0117
:105830009C939281492F4F7092959F70489F900D35
:105840001124D9019C93CF0103960895FC01908106
:10585000A92FAF708AE092959F70A89F900D112498
:10586000DB019C939181692F6F7092959F70689F67
:10587000900D1124DA019C939281492F4F709295DB
:105880009F70489F900D1124D9019C93CF010496DD
:105890000895CF93DF93DB012C9161E82B3211F453
:1058A000119661E9FD0101900020E9F73197EA1BAB
:1058B000FB0BEC01E11105C01992CE01DF91CF91F4
:1058C0000895E883AC014E5F5F4F6983CF0199274C
:1058D000019695958795D82F742FC52F60E06D138D
:1058E00003C0840F951FEACF2C91205311963C9151
:1058F0001197332359F012963295307F232BE72FDF
:10590000FC2F21936F5F7E2FCF2FE9CF1196206F51
:10591000F6CFCF93DF93DB012C91211106C0FC0160
:105920001192CF01DF91CF91089561E82B3211F4EC
:10593000119661E9FD0101900020E9F731979F017F
:105940002A1B3B0B33272F5F3F4F35952795D22FCF
:1059500041E0420FFC014083AC014E5F5F4F618329
:10596000742FC52F60E0D61304C0CA01820F931FA5
:10597000D9CF8C91805311969C911197992359F00E
:1059800012969295907F892BE72FFC2F81936F5F62
:105990007E2FCF2FE8CF1196806FF6CFEF92FF9238
:1059A0000F93CF937B01C22FBA010E94892C21E172
:1059B000FC0120831182B70102960E94492CFC0150
:1059C000C08301832AEA22830396CF910F91FF902F
:1059D000EF900895CF93DF930F92CDB7DEB79C0180
:1059E000CB01582F561B541720F00F90DF91CF9109
:1059F0000895DC019D91892F807F89838295898319
:105A0000E981F0E0E85CFA4F8491F90180839F70AE
:105A1000E92FF0E0E85CFA4F8491F90181832E5F71
:105A20003F4FCD01DECF1092CD0087E08093CC00B8
:105A300082E08093C80088E18093C90086E080936B
:105A4000CA00239A24982C9A08959091C80095FF33
:105A5000FCCF8093CE0008958091C80087FFFCCFD3
:105A60008091CE0008958091C800881F8827881FE4
:105A70000895CF93DF93EC018991811103C0DF91E9
:105A8000CF9108950E94252DF7CFCF93DF9380917A
:105A90009B02813061F48091C80087FF1BC00E9487
:105AA0002C2D80939A0282E080939B0210C082305A
:105AB00089F48091C80087FF0DC00E942C2D909121
:105AC0009A020E94122F0E94252D10929B02DF91B4
:105AD000CF91089580919902813061F48091C8003E
