:100000000C9465030C9482030C9482030C94820379
:100010000C9482030C9482030C9482030C9482034C
:100020000C9482030C9482030C9482030C9482033C
:100030000C9482030C9482030C940B040C948203A2
:100040000C9482030C9482030C94F61F0C9482038C
:100050000C94BB1F0C9482030C9482030C948203B7
:100060000C9482030C9482030C9482030C948203FC
:100070000C9482030C9482030C9482030C948203EC
:100080000C9482030C9482030C9482030C948203DC
:100090000C9482030C9482030C9482030C948203CC
:1000A0000C9482030C9482030C9482030C948203BC
:1000B0000C9482033A00206F3A200057796B7279D2
:1000C000746F20737465726F77616E6965207A3A18
:1000D0002000FF4142434400000043444547484953
:1000E0004A352B6370696E3F00000000000000007D
:1000F0002B636E6D693D322C312C322C31002B6D0F
:100100006F72696E673D3100000000002B636C69FF
:10011000703D31000000000000002B646465743DF8
:10012000312C31302C3100002B63616C6D3D31007E
:100130000000000000002B6372736C3D3100000072
:10014000000000002B637573643D31000000000067
:1001500000002B637062773D32362C223122000082
:100160002B636C74733D30000000000000002B63B3
:100170006D69633D302C3135002B636D6764613DE3
:1001800036002B6370696E3D223139373622002BE1
:100190006966633D322C32002B63706D733D2253D0
:1001A0004D222C22534D222C22534D22002B6364CE
:1001B000736362002B63636C6B3F002B636F707320
:1001C0003F002B637062723D3236002B63726567AD
:1001D0003F002B637371002B7674733D3100610017
:1001E00068002B434D54493A002B636D67643D0012
:1001F0002B636D67723D002B636D67733D002B436E
:100200005553443A002B434D54493A002B44544D26
:10021000463A002B434C49503A003E002B434D4791
:10022000523A002B434F50533A002B435245473A22
:10023000002B4353513A002B4350494E3A2052452C
:10024000414459002B43434C4B3A00206F3A200065
:1002500057796B7279746F20737465726F77616E02
:100260006965207A3A20004E6F74696679204F4E96
:100270003A20004E6F74696679204F4646004E6FF3
:1002800074696679204F4646004E6F74696679201E
:100290004F4E3A2000303031414520426C6164209D
:1002A00050616D69656369007777772E736F6E664D
:1002B000792E706C00576C61637A79204F55542009
:1002C0006E613A200057796C61637A79204F5554FA
:1002D000207A613A200057796C61637A6F6E7920D9
:1002E00028426973746162696C6E79290A00576CDF
:1002F00061637A6F6E792028426973746162696CF8
:100300006E79290A00437A6173204F55543A2000D0
:100310002044544D460020534D530020534D53006C
:1003200020434C495000537465726F77616E696564
:100330003A20005075626C69637A6E790A005072D7
:10034000797761746E790A00547279623A200055A7
:100350007A79746B6F776E6963792000557A797456
:100360006B6F776E6963793A2000506F7A696F6DB1
:100370002047534D3A200041432D323030302D4438
:10038000544D462D460A002B435553443A002B4307
:100390004D53204552524F523A002B434D45204574
:1003A00052524F523A0042555359004E4F20444941
:1003B000414C544F4E45004E4F2043415252494507
:1003C00052002B434D54493A002B44544D463A00B9
:1003D0002B434C49503A004D4F20434F4E4E45431E
:1003E000544544004D4F2052494E47004552524F0C
:1003F00052002B434D47533A005472796220736583
:10040000727769736F777920616B7479776E790091
:100410004F4646004F4E004F464600414C4C00436D
:100420003344340004434F444500000000000341BE
:1004300044440000000000000344454C000000005C
:10044000000004585858580000000000065245505B
:100450004F52540000000455534552000000000064
:10046000044F50454E000000000005434C4F5345DB
:100470000000000004434C49500000000000044408
:10048000544D460000000000035345540000000096
:1004900000000454494D45000000000006534B5233
:1004A0005942410000000544454255470000000004
:1004B00003535542000000000000054D594E554DB4
:1004C00000000000045553534400000000000343A3
:1004D0004F4E000000000000024F4E0000000000E0
:1004E000000005544F474C45000000000352535490
:1004F00000000000000008534D5320434C495000B9
:1005000003534D53000000000000045354414E00BB
:10051000000000000454454348000000000003535D
:100520005953000000000000303132333435363783
:1005300038392B2A232121003031323334353637F4
:100540003839414243444546003F3F3F3F3F3F3FEC
:100550003F3F3F0A3F3F0D3F3F3F3F3F3F3F3F3F12
:100560003F3F3F3F3F3F3F3F3F2021222302252681
:100570002728292A2B2C2D2E2F3031323334353693
:100580003738393A3B3C3D3E3F00414243444546C3
:100590004748494A4B4C4D4E4F5051525354555673
:1005A0005758595A3F3F3F3F113F61626364656648
:1005B0006768696A6B6C6D6E6F7071727374757653
:1005C0007778797A3F3F3F3F3F3F3F3F3F3F3F3F55
:1005D0003F3F3F3F3F3F3F3F3F3F3F3F3F3F3F3F2B
:1005E0003F3F3F3F3F3F3F3F3F3F403F0124033FAF
:1005F0005F3F3F3F3F3F3F3F3F3F3F3F3F3F3F3FEB
:100600003F3F3F3F3F3F3F3F603F3F3F3F5B0E1C11
:10061000093F1F3F3F3F3F3F3F3F5D3F3F3F3F5C05
:100620003F0B3F3F3F5E3F3F1E7F3F3F3F7B0F1DE6
:100630003F04053F3F073F3F3F3F7D083F3F3F7C33
:100640003F0C063F3F7E3F3F3F40A324A5E8E9F92A
:10065000ECF2C70AD8F80DC5E53F5F3F3F3F3F3F8B
:100660003F3F3F3F3FC6E6DFC920212223A4252686
:100670002728292A2B2C2D2E2F3031323334353692
:100680003738393A3B3C3D3E3FA141424344454621
:100690004748494A4B4C4D4E4F5051525354555672
:1006A0005758595AC4D6D1DCA7BF616263646566E6
:1006B0006768696A6B6C6D6E6F7071727374757652
:1006C0007778797AE4F6F1FCE00011241FBECFEFD1
:1006D000D8E0DEBFCDBF12E0A0E0B1E0EEE8FEE67C
:1006E00002C005900D92A437B107D9F728E0A4E71E
:1006F000B2E001C01D92AB37B207E1F70E94572F5D
:100700000C941A370C94000010929C0210929B02D9
:1007100010929A0208958091B40295EB980F8C5E26
:10072000943108F083E30C945F288091CF0290917C
:10073000D0028F3F980729F001969093D0028093C2
:10074000CF028AE0809386021092850210922104E3
:100750000E94840383E30C945F28CF93DF93D0E05F
:10076000C0E06FEFCE010E94AE2E0E94CB2E8823F8
:10077000E1F3CE018F709927892B09F4A895219672
:10078000CD3E84E3D80769F7DF91CF910895BC018E
:1007900084E594E00C945E338FEF9FE80197F1F7C6
:1007A00000C000008FEF9FE80197F1F700C0000044
:1007B0008FEF9FE80197F1F700C000008FEF9FE8EF
:1007C0000197F1F700C000008FEF9FE80197F1F764
:1007D00000C00000A89508958091C9028F5F8436FB
:1007E00018F48093C90208951092C9028091C8023A
:1007F00091E0811190E09093C802811102C040986D
:100800000895409A089580913804807F11F4409AA9
:1008100008954098089578940F920FB60F921F9202
:1008200011242F938F939F93EF93FF9380917D02D9
:100830008F5F80937D02823128F010927D028FEFCE
:1008400080937F024B9B57C000B601FC16C080917D
:10085000DB02811112C01092EB051092EA05109292
:10086000FA0580B7826080BFF8948091C1008068EB
:100870008093C10078940000439832992FC0F89477
:100880008091C10086FF29C08091C1008F7B809339
:10089000C10078948091DC028823C9F08091DA024B
:1008A000811104C08091B4028D3289F41092DC026F
:1008B0008091EE059091EF05FC01E955F94F2081FB
:1008C00001969093EF058093EE052093C600F8946F
:1008D0008091C10080648093C10078948FEF8093F1
:1008E0008002FF91EF919F918F912F911F900F9018
:1008F0000FBE0F901895439AF8948091C1008F73A2
:100900008093C10080B78D7F80BF78940000E6CFD0
:100910000F931F93CF93DF938C01DC01CD91DC917A
:100920004FE050E067E773E0CE010E941D336AE6B6
:1009300073E0CE010F960E9431338091090180321D
:1009400010F590917C029923F1F06B96B4E68B9FA1
:10095000C00111246FE170E00E94B830CB014AE081
:10096000BE010E94E43309900020E9F7FE013197AF
:1009700085E281931082D801ED93FC93DF91CF91B2
:100980001F910F9108958DE28B8F8C8FFE017E96C3
:100990008D8FF0CF8F929F92AF92BF92CF92DF92C6
:1009A000EF92FF920F931F93CF93DF938C01FC0183
:1009B000C081D1816CE573E0CE010E943133099092
:1009C0000020E9F7219788E0882E912CD12CC12CAA
:1009D000F12CE12CB12CA12CC6018F719927892B08
:1009E00021F4C114D10409F0A895C4010E94002F7C
:1009F0008F3F91F1FFEFAF1ABF0AEFEFCE1ADE0A79
:100A0000F5E08F0E911C84ECC81689E0D80621F71A
:100A10004AE0BE01C5010E94E43309900020E9F7D5
:100A200021978FE289934AE0BE01C7010E94E43317
:100A300009900020E9F72197F801D183C083DF9165
:100A4000CF911F910F91FF90EF90DF90CF90BF90CB
:100A5000AF909F908F9008958FEFE81AF80ACDCF4E
:100A6000CF92DF92EF92FF920F931F93CF93DF937A
:100A70008C01FC01C081D1814CE050E06FE473E057
:100A8000CE010E941D332C9688E0E82EF12CD12C4B
:100A9000C12CC7010E94002F8F3F59F1C394F5E08C
:100AA000EF0EF11C8CEDE81680E3F80691F74AE0B2
:100AB000BE018C2D90E00E94E43309900020E9F7FC
:100AC00021978FE289934AE0BE018D2D90E00E942C
:100AD000E43309900020E9F72197F801D183C0831E
:100AE000DF91CF911F910F91FF90EF90DF90CF900A
:100AF0000895D394D4CFAF92BF92CF92DF92EF926A
:100B0000FF920F931F93CF93DF9300D0CDB7DEB743
:100B1000A89586E096E09A838983CE0101960E948B
:100B20008804E981FA81CF0101969A8389831AE0CA
:100B30001083E981FA811082CE0101960E94CA04D5
:100B4000E981FA81CF0101969A8389831083E98133
:100B5000FA81108268E473E089819A810E943133BE
:100B600089819A8106969A838983209100016EE398
:100B700073E0222311F063E373E00E943133898133
:100B80009A81FC0101900020E9F7CF0101979A8337
:100B9000898366E273E00E94313389819A810C96E1
:100BA0009A83898320910601222309F46CC060E2B4
:100BB00073E00E94313389819A81FC010190002009
:100BC000E9F7CF0101979A838983209105016BE1B1
:100BD00073E0211160C0E981FA81CF0101969A8307
:100BE00089838AE08083E981FA81108209811A81F0
:100BF000F80101900020E9F78F01015011091A83D3
:100C00000983C0900101D0900201E0900301F090AF
:100C10000401FFE9CF16F6E8DF06F1E0EF06F10484
:100C200009F046C065E073E0C8010E943133898154
:100C30009A810A969A8389832091F4026EEE72E07B
:100C4000211102C066ED72E00E94313389819A81E0
:100C5000FC0101900020E9F7CF0101979A83898375
:100C600068EA72E089819A810E9431330F900F9077
:100C7000DF91CF911F910F91FF90EF90DF90CF9078
:100C8000BF90AF9008952091050166E173E02111B6
:100C900002C060E173E00E94313389819A81FC01D6
:100CA00001900020E9F7CF0101979A83898393CFC0
:100CB0008091F40265EB72E0882391F06091420428
:100CC0007091430480914404909145042AE030E0FF
:100CD00040E050E00E94CC3069017A0165EC72E09E
:100CE000C8010E943133E981FA8101900020E9F7BF
:100CF000CF0101975C019A838983C701B60120E186
:100D00003EE040E050E00E94CC30CB016CE370E06C
:100D10000E94A430F62E082F1AE0822F612F0E9425
:100D20009830E92E4AE0B50190E00E94E4336981F1
:100D30007A81FB0101900020E9F7BF016150710940
:100D40007A8369834AE08E2D90E00E94E433E98142
:100D5000FA8101900020E9F7DF011197FA83E98316
:100D600088E68C93E981FA81CF0101969A83898381
:100D70008AE3E82EE08229813A818F2D612F0E943B
:100D80009830F92E4AE0B90190E00E94E43369817D
:100D90007A81FB0101900020E9F7BF0161507109E0
:100DA0007A8369834AE08F2D90E00E94E433E981E1
:100DB000FA8101900020E9F7DF011197FA83E983B6
:100DC0008DE68C93E981FA81CF0101969A8389831C
:100DD000E08229813A81802F612F0E949830092F6B
:100DE0004AE0B90190E00E94E43369817A81FB0115
:100DF00001900020E9F7BF01615071097A8369838E
:100E00004AE0802F90E00E94E433E981FA8101906A
:100E10000020E9F7DF011197FA83E98383E78C93D8
:100E2000E981FA81CF0101969A8389831083E98150
:100E3000FA81108215CF1092F4021092420410929F
:100E4000430410924404109245045D9808958091E3
:100E50008D0290918E02892BA1F58AE090E090930B
:100E60008E0280938D022091010130910201409108
:100E70000301509104012F3986E8380781E04807C3
:100E8000510581F481E09091F402911180E080930A
:100E9000F4021092420410924304109244041092FF
:100EA000450408958FEF8093F402AAE0B0E00E9419
:100EB000F43060934204709343048093440490930D
:100EC0004504089508958F929F92AF92BF92CF925A
:100ED000DF92EF92FF920F931F93CF93DF93CDB7E3
:100EE000DEB766970FB6F894DEBF0FBECDBF109287
:100EF0000408A8958FEF80939C0210929B02109299
:100F00009A0284E697E00E948425182F8091960229
:100F1000811134C08091DD021F928F938091DE0297
:100F20001F928F938091DF021F928F9380E391E055
:100F30009F938F938AE091E09F938F930E942E342A
:100F40008091DD021F928F938091DE021F928F931A
:100F50008091DF021F928F938FE391E09F938F9395
:100F600081E298E09F938F930E942E348FE90E9434
:100F70004D280FB6F894DEBF0FBECDBF109296027B
:100F8000809177028111109277028CEF810F82306D
:100F9000E8F48091D7028C30C8F00E948B030E9445
:100FA00095030E94840366960FB6F894DEBF0FBEC9
:100FB000CDBFDF91CF911F910F91FF90EF90DF9008
:100FC000CF90BF90AF909F908F9008958091AB028B
:100FD0008111E3CFE7E1F8E020E09191992329F036
:100FE0008F5F9457923008F42F5F98E0E132F90751
:100FF000A1F7833290F6263080F6113190F6E12F7A
:10100000F0E0E45EF84C0C94EE308091050188230A
:1010100041F280910001813039F16DEE73E0FB0106
:1010200001900020E9F7BF0161507109AE014F5FE7
:101030005F4F8DEE93E00E94B82808E010E0B80101
:10104000CE0101960E94852981110EC00B5F1F4FB2
:101050000C3DF0E31F0799F781E080938602109220
:101060008502109221049DCF809176028111F4CFE8
:101070006DEE73E086E294E00E94B4330E9427078D
:10108000EBCF80917502811115C080917602882383
:1010900089F065E972E086E096E00E9431336DEEFA
:1010A00073E082E093E00E94B43384E70E944D280D
:1010B00084E1D3CF8091D7028F5F8093D70282ECF7
:1010C00091E09093D6028093D5026DEE73E082E0BA
:1010D00093E00E94B433A8950E947B0584E70E94A8
:1010E0004D2882E0BACF6DEE73E082E093E00E947B
:1010F000B433CE0101967C01FC01EB57F8405F014F
:1011000008E010E0D12CC12CC8010E94002F8F3FB5
:1011100019F0FFEFCF1ADF0A0B5F1F4F0C3D80E382
:10112000180791F700912604002301F166E274E0AC
:10113000FB0101900020E9F7BF0161507109A7018F
:1011400086E294E00E94B82898E0892E912CB401A0
:10115000C7010E948529082F811182C0F5E08F0EFA
:10116000911C8CED881680E3980689F78091ED0339
:101170008823F9F06DEE73E0FB0101900020E9F7A0
:10118000BF0161507109A7018DEE93E00E94B8285C
:1011900088E0882E912CB401C7010E948529811115
:1011A00061C0F5E08F0E911C9CED891690E39906C5
:1011B00091F790E02091ED03A6E1B1E0222311F038
:1011C000ADEEB3E010E020912604E6E1F1E0222349
:1011D00011F0E6E2F4E02091050162E772E02223DB
:1011E00011F068E171E02091060142E251E0222312
:1011F00011F04DE151E0209100012223A9F12CE2F0
:1012000031E09F938F93BF93AF931F930F93FF93FF
:10121000EF93BF92AF92DF92CF927F936F935F93E2
:101220004F933F932F9382E691E09F938F931F926A
:1012300081EA8F9386E096E09F938F930E94FE331E
:1012400084E70E944D2882E08093860210928502F6
:10125000109221040FB6F894DEBF0FBECDBFA1CE11
:101260000FEF84CF8FEFA5CF27E231E0CACF809177
:10127000D7028F5F8093D70282EC91E09093D602E1
:101280008093D5026DEE73E082E093E00E94B43368
:101290006EEF73E0FB0101900020E9F7BF016150A0
:1012A0007109AE014E5E5F4F8EEF93E00E94B82849
:1012B00008E010E0B801CE0142960E948529F82E80
:1012C00081113CC00B5F1F4F0C3DF0E31F0791F7EE
:1012D00041E1BE016F5F7F4FCE0142960E9401291E
:1012E000BE016F5F7F4F86E096E00E94B4336EE9E7
:1012F00071E086E096E00E94953361EA71E0F110BA
:1013000002C064EA71E086E096E00E94953384E7CB
:101310000E944D2882E080938602109285021092EE
:101320002104809143089091EA02892B909144080E
:10133000892B09F036CE0E94552F33CEFF24FA9424
:10134000C7CF6DEE73E082E093E00E94B43363ECAC
:1013500071E086E096E00E94B433C0CE8091D7025F
:101360008F5F8093D70282EC91E09093D6028093B6
:10137000D5026DEE73E082E093E00E94B4331092E8
:10138000EC031092EB038AE2AACE6DEE73E082E0EA
:1013900093E00E94B4331092EC031092EB0389E2C5
:1013A0009ECE63E282E00E9496288111FACD89E107
:1013B0008093860210928502109221040E94AD0350
:1013C00083E00E944D28EDCD6DEE73E082E093E066
:1013D0000E94B4338091E802882331F0809105089F
:1013E00069E872E0811118C06EE772E086E096E06D
:1013F0000E94313373CE6DEE73E082E093E00E9481
:10140000B43363E772E0F2CF6DEE73E082E093E015
:101410000E94B43367E672E086E096E00E943133C2
:1014200065E078E086E096E00E94953357CE6CEE5A
:1014300071E08DEE93E00E94CA33892B09F444C019
:1014400040918F02509190026091910270919202AE
:1014500040348DE0580783E06807710588F580E423
:101460009DE0A3E0B0E0841B950BA60BB70BBF93E8
:10147000AF939F938F931F9283E08F938DE08F9311
:1014800080E48F937F936F935F934F931F9285E1D7
:101490008F931F9286E08F931F928DE18F9389EF38
:1014A00091E09F938F9386E096E09F938F930E94A5
:1014B0002E346DEE73E082E093E00E94B433C0CE30
:1014C00080E090E0DC01D3CF85E0C7CD83E0C5CDDF
:1014D0008091C7029091410490FF06C0883C88F437
:1014E0008F5F8093C7020895883C60F063E282E0DA
:1014F0000E949628811103C083E00E944D2810921B
:10150000C70208958233D8F363E282E00E949628EE
:101510008111F5CF82E0F1CFCF93DF9380917602F6
:10152000882321F080917502882389F1809106013A
:1015300081112FC080910501811129C08091000186
:10154000813021F48FEFDF91CF91089580912604AF
:101550008823E9F066E274E0FB0101900020E9F7DE
:10156000BF016150710945E458E086E294E00E94B1
:10157000B828C8E0D0E0BE0185E498E00E94852943
:101580008111E0CF2596CC3DF0E3DF07A1F780E0A5
:10159000DACF809100018130A9F28091260488235E
:1015A000B1F366E274E0FB0101900020E9F7BF01AE
:1015B0006150710945E458E086E294E00E94B82841
:1015C000C8E0D0E0BE0185E498E00E948529811141
:1015D000B9CF2596CC3DF0E3DF07A1F7D8CF8CE358
:1015E0008093B6021092AF021092AE021092A8023F
:1015F0001092A90210929D028091D402882309F4CE
:1016000056C080910508882309F44FC065E078E052
:1016100082E093E00E94B43360E572E086E096E0F9
:101620000E94313366E274E086E096E00E949533D2
:101630006BE472E086E096E00E94263386E096E056
:10164000FC0101900020E9F7CF0187509640FC0192
:10165000EA5FF94F90910A019083E1E0E80FF0E032
:10166000EA5FF94F90910B019083E2E0E80FF0E020
:10167000EA5FF94F9AE39083E3E0E80FF0E0EA5F76
:10168000F94F90910D019083E4E0E80FF0E0EA5FFC
:10169000F94F90910E0190838B5FE82FF0E0EA5FA5
:1016A000F94F108284E70E944D281092D4021092C4
:1016B000260408958CE38093B60210927402089574
:1016C000109251041092AF021092AE021092B30227
:1016D0001092B2021092B4021092E9058CE380934A
:1016E000B6021092AB0208950E94600B1092B302F2
:1016F0001092B2021092B4021092050610921F04CA
:101700001092E905109250041092B00210927402E7
:101710001092AC0208950E94740B86E98093080130
:101720001092DA021092D9021092A4021092A3022F
:101730001092F7021092A2021092A10210929D0242
:101740001092B10283E68093090162E78FE50E945F
:1017500073286FE38BE20E94732869E480E40E949F
:10176000732866E784E70E94732810927C0208952C
:101770008091DB028D3051F41092AA021092740213
:101780001092AB0286E48093B60208958091DB024A
:10179000863059F52091AA022F5F2093AA028091EA
:1017A000E3029091E402853032E0930761F08A33DE
:1017B00031E0930741F0833032E0930721F080510C
:1017C0009240029770F48CE38093B6028091AB0252
:1017D000223080F11092AA02109274021092AB0291
:1017E00008958CE38093B602F5CF8091DB028430BC
:1017F00021F58CE38093B6021092E905809156049E
:101800008E3331F48091EA059091EB050A9720F030
:101810008091AB02811107C01092AA02109274024B
:101820000E948B0BDBCF9091AA029F5F9093AA023C
:10183000923080F60E944D28D1CF8091DB02853016
:10184000B9F48091E5029091E6028A30910539F071
:101850009C012D7F2D30310511F04E9769F41092C7
:10186000AA028CE38093B602109274020C948B0B44
:101870008091DB028091DB0208950F931F93CF9339
:10188000DF93D091DB02C091B402CF3309F4C7C01B
:1018900008F070C0C63309F429C238F5C03309F422
:1018A000C8C288F4CD3209F4B4C0CF3209F437C1CC
:1018B0001092B3021092B2021092B402DF91CF9153
:1018C0001F910F910895C33309F44DC1C53381F7BA
:1018D000D13009F4B5C2809120048F5F8093200439
:1018E000833008F0ADC28C2F7BC1CA3309F49FC18D
:1018F00088F4C73309F402C2C833D1F688E3D13083
:1019000009F0F6C081E00E94EF0A1092B002109236
:101910005104CECFCC3309F467C108F49CC1CE3357
:1019200039F6D13029F68AE292E00E94C703FC0121
:10193000892B09F4BDCF27812C3209F06CC1379671
:1019400080818C3229F081818C3209F066C1319618
:101950004AE050E070E060E0CF0101960E940E3155
:10196000662329F08DEF860F823008F058C10E945F
:101970008B0B9ECFCB3458F5C73408F0A9CFC234B7
:1019800009F4A6CFE8F4C03409F494C0C13409F0D6
:101990008FCF80E3D13009F4ABC0D63009F002C15B
:1019A0008091E3029091E4028A3321E0920721F0D2
:1019B0008530924009F07CCF84E18093B602D5C097
:1019C000C33409F4F1C0C53409F482CF71CFC337F1
:1019D00090F4CF3508F4C2C1D63009F000C280912E
:1019E000E3029091E4028134914009F4FBC18C2F11
:1019F0000E944D28FCC1C73709F4FBC1CE3909F05C
:101A000057CF8AE192E00E94C703892B09F0AFCF3C
:101A10005FCF8EE20E944D2810929E0249CFD130B6
:101A200009F046CF84E492E00E94C703009709F4CE
:101A30003FCF62E270E00E94A033009709F438CFF4
:101A4000EC01219662E270E0CE010E94A0338C018D
:101A5000892B09F42DCF6CE270E0CE010E94A033F7
:101A6000009709F425CFEC012196C017D10708F0A3
:101A70001FCF6AE370E0CE010E94A033009709F403
:101A800017CF8017910708F013CFFE0101900020B7
:101A9000E9F73197EC1BFD0B389708F409CF88E084
:101AA000FE01AAE0B1E001900D928A95E1F7109253
:101AB0001201FECED13099F487E392E00E94C70371
:101AC000892B59F08FEF8093D9021092E70283E3BC
:101AD0000E944D281092C602EBCE8FE2F9CFD5308E
:101AE00051F48091E5029091E6020E9731F480E482
:101AF0000E944D28DDCED43021F08091DB02803869
:101B0000B1F78091C6028F5F8093C602843118F0CE
:101B10000E948B0BDFCF84E18093B602E8CFD130F7
:101B200061F48FEF8093D9021092E70283E30E9461
:101B30004D2882E38093B602BBCED53079F48091F4
:101B4000E5029091E6028031910521F48FEF8093B8
:101B5000E702AECE0E9721F48FE2CACFD430E1F384
:101B60008091DB02F9CFD13011F481E4C1CFD630BE
:101B700089F48091E3029091E4028A3321E0920794
:101B800021F08530924009F093CE8CE38093B60229
:101B900083E3AECFD430E1F38091DB02803809F0EB
:101BA00087CEF6CF8AE009CFD13049F0D53081F425
:101BB0008091E5029091E6020397029748F48091A4
:101BC000B1020E944D281092B102109220040AC066
:101BD000809120048F5F80932004833018F483E485
:101BE0000E944D2882E0A6CFD13089F481E392E0B3
:101BF0000E94C703009709F45BCE4AE050E070E012
:101C000060E006960E940E316093090151CE83E692
:101C1000809309014DCE389693CE329699CE6B7F44
:101C2000613009F045CE8FEF80937C0241CED130F8
:101C300049F0D53051F48091E5029091E602459744
:101C4000029718F41092A40233CE8091A4028F5F01
:101C50008093A4022DCED13009F042C046E050E07E
:101C600063E272E086E594E00E945033892BC1F56F
:101C700083E292E00E94C7036CE270E00E94A0330E
:101C8000009771F16CE270E00E94A033009741F17F
:101C900062E270E00E94A033009711F18C010F5FA7
:101CA0001F4F62E270E0C8010E94A0330097C1F0AC
:101CB00008171907A9F0801B910B8C30910514F0BF
:101CC0008BE090E0EC01DD27AE01B80187EF92E0F8
:101CD0000E948533C950DD4F18821092A302E8CDCF
:101CE0008091A3028F5F8093A302E2CDD63009F4E6
:101CF00079CF86E3D13009F475CF72CFD13021F09E
:101D00008091DB028C30A1F48FEF8093B0021092AF
:101D10002004809106018111CBCD8CE291E090935B
:101D20008C0280938B0284E18093B60286E4E0CE3D
:101D3000D43021F08091DB02803849F48091200476
:101D40008F5F80932004833010F487E3D1CED330AB
:101D500011F41092B00210922004AACDD130A9F54E
:101D60008CE192E00E94C7036AE070E00E94A03319
:101D7000009741F1EC0121966DE070E0CE010E94E8
:101D8000A0330097F9F08C1B9D0B97FD019695955C
:101D90008795893CA8F48093AD0243E253E06091BB
:101DA000AD02CE010E947B2B83E70E944D288091DB
:101DB000B4028C5E0E944D288FEF8093AC0278CDE8
:101DC00088ECE9CF1092AC0273CDD63021F010929E
:101DD000AC028CE3AFCE8C2F0E944D28F8CFD430CC
:101DE00009F405CE8091DB02803809F400CE89E148
:101DF000A1CED43029F08091DB02803809F0ABCF3E
:101E000010925104809120048F5F809320048330CE
:101E100010F487E76DCE1092200480E00E94EF0A54
:101E20001092B002109251041092AF021092AE02C2
:101E30003FCDD13029F080E30E944D2884E17ACE55
:101E40008091B1020E944D288091B1028B5484315F
:101E500008F0B9CE1092AC02B6CE0F931F93CF9379
:101E6000DF938091DB028091DB02803821F080914A
:101E7000B502882381F080E88093DB020E943D0C4C
:101E800082E38093B6028FEF8093B502DF91CF910A
:101E90001F910F9108958091DB02813829F52091DF
:101EA000E5053091E6058091EA059091EB0528174C
:101EB000390761F44091E5055091E60567EA76E05F
:101EC00084E594E00E947833892B01F38091E90541
:101ED0008111DCCF80E88093DB028FEF8093B50225
:101EE00082E38093B602D2CF8091DB028A3009F080
:101EF00044C01092260483E192E00E94C70362E28C
:101F000070E00E94A033009739F18C010F5F1F4FE2
:101F100062E270E0C8010E94A0330097E9F0EC0192
:101F2000C01BD10BC031C0F4DD27AE01B80186E281
:101F300094E00E948533CA5DDB4F18828091A30232
:101F400081111092A30280910901882311F0833638
:101F500019F480E18093090189E30E945F28809150
:101F6000B4028B54843110F41092AC021092B3027C
:101F70001092B2021092B40289CF8091DB028330BA
:101F800089F480E00E94EF0A1092B002109251048E
:101F90001092AF021092AE028091B402873709F01E
:101FA00075CFE4CF8091DB02823039F58091B402A5
:101FB0008737D1F40E943D0C8091B4028737A1F499
:101FC0008091A80281110BC08AE58093A9028FEF4E
:101FD000809351041092AF021092AE0257CF8093BB
:101FE000A9021092A802F3CF1092260489E3DF9190
:101FF000CF911F910F910C945F288CE092E00E948A
:10200000C703009799F0FC01379681918032E9F37C
:1020100090910601911107C0813329F40E9427078E
:102020008BE0809321041092DB0230CF8091DB02A1
:102030008C3071F480910601882309F427CF109227
:10204000B00288E3DF91CF911F910F910C944D283E
:102050008091DB02893061F48091B402873711F4FA
:102060000E943D0C80E00E94EF0A10925104B2CF12
:102070008091DB02873081F38091DB02883029F583
:1020800085E092E00E94C7036CE270E00E94A033FA
:102090000097A1F04AE050E070E060E001960E94F5
:1020A0001E329B01215031092431310538F48AE474
:1020B000860F0E944D2881E08093B6028091B40281
:1020C0008B54843108F0E2CE4FCF8091DB028E300A
:1020D00009F04CC084E18093B6028091B4028B5425
:1020E000843140F41092AC021092B3021092B2020A
:1020F0001092B4028EEF91E00E94C70362E270E09A
:102100000E94A033009709F4C1CE8C010F5F1F4FCE
:1021100062E270E0C8010E94A033009709F4B6CED5
:1021200020919502222309F4B1CEEC01C01BD10B02
:10213000C13AD10510F0C0EAD0E0AE01B80186E0A6
:1021400096E00E94BB33CA5FD94F18826DEE73E0F0
:1021500082E093E00E94B43384E70E944D281092FD
:102160009502109294021092930290CE8091AB024D
:1021700081110E94B80B8091EA059091EB05892BA3
:1021800009F484CE8091DB02882309F47FCEDF91AD
:10219000CF911F910F910C943D0CCF93C82FC90183
:1021A000C11106C0862F0E944D288C2FCF91089513
:1021B0001092B3021092B2026093B4024093B10243
:1021C0000E94891FCFEFF1CF0F93CF93DF939FEF43
:1021D0009093E9051092500481114BC085E08093E3
:1021E0008602109285021092210484E78093AB024C
:1021F000909323034AE065E478E083E293E00E9451
:10220000012900E020E045E458E062E073E083E269
:1022100093E00E94BC2C46E056E0FA0101900020B9
:10222000E9F7AF014150510966E076E00E94042BC6
:10223000835293408093AD02C091AD02C150809112
:102240002303C81B46E050E067EF71E089EA96E09F
:102250000E941D334AE06FEA76E08C2F90E00E94E6
:10226000E4338AEF80930701DF91CF910F910C94B3
:10227000A61F85E0809386021092850210922104A9
:1022800085E78093AB0200910606909323034AE012
:1022900065E478E083E293E00E94012920E045E4D0
:1022A00058E062E073E083E293E00E94BC2CEC0112
:1022B0004091070650E068E076E00E948533809107
:1022C00007068C0F9D2F911DB3CFEF92FF920F93B6
:1022D0001F93CF93DF9300D00F92CDB7DEB730912D
:1022E000AC02809151045091B4029091B602409199
:1022F000AB02432B482B2091B002242B252B292BFA
:10230000C9F56091E90521E0611101C020E02111CA
:1023100032C06091C10066FD2EC06091DA02662372
:1023200051F16091DB0201E0611125C010911708A5
:10233000E12EF12C1E3309F465C208F06BC0133393
:1023400009F466C330F51E3209F446C3B0F41C32FA
:1023500009F4FCC208F013C31B3209F46FC380E018
:102360000F900F900F90DF91CF911F910F91FF90E1
:10237000EF90089521E000E0D9CF103309F4D6C2E0
:1023800008F434C3113309F479C3123341F78FEFE2
:10239000E7CF183309F4B7C1B0F4163309F4B9C262
:1023A00008F0C0C11533D9F6809143089091EA0234
:1023B000892B90914408892B21F40E94552F81117B
:1023C00049C385E330C11A3309F43DC208F46CC136
:1023D0001B3309F45AC21C3309F0C1CF4091AE023D
:1023E0005091AF02452B61F49091F502892B41F495
:1023F0008091E90590917402892B282B09F4F4C18E
:1024000080910901833611F08111C1CF80E1809361
:102410000901BDCF133708F074C01F3508F01BC188
:10242000163409F493C1B0F41F3309F450C220EC00
:10243000210FE22FF0E0E852FF4F45915491FEE06A
:102440002F9F900111242E513F4F612F802F0E940A
:10245000CD109DCF1B3458F380917C02882309F462
:102460007EC02091AE023091AF02232B09F077C0DD
:10247000942B80917402982B09F071C0533309F4A6
:102480006EC0809143089091EA02892B9091440894
:10249000892B09F064C00E94552F882309F45FC07E
:1024A00061E081E00E949628811159C066E784E7C7
:1024B0000E949628811153C069E387E30E94962801
:1024C00081114DC0002309F44AC01092B30210924A
:1024D000B2021093B4028FEF8093AC0246E050E05A
:1024E00060EF71E089EA96E00E941D334AE06FEAEE
:1024F00076E0C7018A5491090E94E4330E94A61F26
:1025000046CF163709F449C080F4133701F546EF7A
:1025100052E06DEE73E083E293E00E94982B009707
:1025200009F053C01092AC0232CF193709F47EC0C3
:102530001F3909F4ADC2173709F011CF20917C0281
:10254000222319F0992309F41AC187E76CC020915E
:10255000AE023091AF02232B11F4892B11F0812FA1
:1025600062C0809143089091EA02892B90914408BF
:10257000892BA9F70E94552F882389F3002379F32B
:102580001092B3021092B2021093B40281E0153798
:1025900009F080E00E94E410FACE1092E905409123
:1025A000AD0263E273E087EA96E00E94D82C809146
:1025B000AD0290E0880F991FFC01E955F94F2AE11F
:1025C000208301960E94701FE2CE9E012F5F3F4F35
:1025D000AE014E5F5F4FBE016D5F7F4F0E94F12BDA
:1025E0002B812093E2022A812093E102298120930A
:1025F000E0029E012F5F3F4FAE014E5F5F4FBE0175
:102600006D5F7F4F0E94142C2B812093DF022A8163
:102610002093DE0229812093DD0241EA64E677E01F
:102620000E94AF2A89E70E944D28B1CE80914308CD
:102630009091EA02892B90914408892B99F70E9486
:10264000552F882379F31092860282E0809321042B
:102650000E94630767CF4091AE025091AF02452BB5
:1026600009F07DCF832B3091F502832B09F077CFD2
:102670008091E905811173CF002309F470CF109286
:10268000B3021092B2021093B40246E050E069EE39
:1026900071E089EA96E00E941D334AE06FEA76E035
:1026A000C7018E55910928CF809143089091EA0285
:1026B000892B90914408892B11F089E3B4CF0E94B3
:1026C000552F8823D1F31092860282E08093210453
:1026D0000E948C0A882371F0809106019091050177
:1026E000892B79F082EE91E00E94C703892B11F4C7
:1026F0000E94270788E30E944D288FEF80939D0258
:102700002FCE87E3F8CF011102C088E38CCF10925F
:10271000B3021092B2021093B40280EE91E00E94D4
:10272000891F35CE8091060190910501892B69F7AB
:1027300087E3002309F477CF1092B3021092B2021C
:1027400087E38093B4028EED91E0E9CF992311F0F5
:1027500086E469CF8091C10086FDFACF8091DA02CC
:102760008823B1F38091DB02582B91F71092B302CA
:102770001092B2021093B40287ED91E0D0CF811194
:1027800006CE002309F4E1CE1092B3021092B202F9
:1027900087E78093B40285E18093210484E68093E7
:1027A000A9066EEF73E08AEA96E00E94B4338EEFDA
:1027B00093E0FC0101900020E9F7CF018F5F934087
:1027C0008F5F90E0FC01E755F94F2BE3208386559E
:1027D000994FFC0110820E94A61F8CE291E0909319
:1027E000AF028093AE02D3CD8CE3002309F41BCF5C
:1027F0001092B3021092B2028CE38093B40282ED85
:1028000091E08DCF4091AE025091AF02452B09F07F
:10281000BECD9091F502892B09F0B9CD8091E905E3
:1028200090917402892B282B09F0B1CD8EE30023FF
:1028300009F4F9CE1092B3021092B2021093B402CE
:102840008BEC91E06CCF4091AE025091AF02452BE2
:1028500059F49091F502892B39F48091E905909112
:102860007402892B282B19F01092A40290CD8AE3D0
:10287000002309F4D8CE1092B3021092B2028AE378
:102880008093B40282EC91E04ACF4091AE02509125
:10289000AF02452B59F49091F502892B39F48091C0
:1028A000E90590917402892B282B19F01092A3024C
:1028B0006ECD8BE3002309F4B6CE1092B3021092D2
:1028C000B2028BE38093B4028BEB91E028CF40916E
:1028D000AE025091AF02452B09F059CD9091F5020F
:1028E000892B09F054CD8091E90590917402892BD0
:1028F000282B09F04CCD8FE3002309F494CE1092DD
:10290000B3021092B2028FE38093B40284EB91E0A1
:1029100006CF86E3002309F486CE1092B30210920C
:10292000B2021093B4028DEA91E0F9CE80E3002365
:1029300009F479CE1092B3021092B2021093B4024D
:1029400082E48093B10288E991E0E9CE8DE20E94B1
:102950004D2884E18093F5021092EB051092EA0570
:102960001092FA0580B7826080BFF8948091C10010
:1029700080688093C10078940000439808CD8091CE
:102980009E02811104CD8091F502882311F08DE221
:102990004ACE8091C10086FDFACF1092EB051092CD
:1029A000EA051092FA0580B7826080BFF8948091A2
:1029B000C10080688093C100789400004398109211
:1029C000B3021092B2028DE28093B40284E180934C
:1029D0009E028FE891E0A3CE8FEF8093DA0280E42D
:1029E0000E944D2888E28093B602D1CC8FE200236A
:1029F00009F419CE1092B3021092B2028FE28093C2
:102A0000B40262E871E089EA96E00E94313376CD43
:102A10008091C502882311F081E405CE8FEF809369
:102A2000C50283E3002309F4FECD1092B302109295
:102A3000B2021093B40289E791E071CE0E942D0F8B
:102A40008091DB02813819F084E1809307011092B4
:102A5000DB029DCC002309F4B4CC1092B302109297
:102A6000B20285E38093B4026EE671E089EA96E0F3
:102A70000E94313381E38093B10240CD8091D9022D
:102A8000882309F484CC86E30E944D2882E3CBCDD1
:102A9000809143089091EA02892B90914408892BF8
:102AA00021F40E94552F811102C08FE9BCCD002373
:102AB000E1F31092B3021092B2028FE98093B40254
:102AC00061E278E089EA96E00E94B43317CD809104
:102AD000B602882339F081508093B602811102C07A
:102AE0001092B5028091780290917902009729F0B6
:102AF0000197909379028093780280918B02909154
:102B00008C02009771F0019790938C0280938B0256
:102B1000892B39F48091B002882319F088E30E9450
:102B20004D2880919E028823C1F0815080939E029F
:102B3000811113C01092B3021092B2021092B4022B
:102B40008DE20E944D281092DC02F8948091C10021
:102B50008F7B8093C100789400000E943C218823E1
:102B600019F08CE20E944D288091A902882341F03F
:102B700081508093A902811103C088E30E944D28EF
:102B80008091AE029091AF02009771F001979093FF
:102B9000AF028093AE02892B39F482E00E94EF0AE3
:102BA0001092B002109251048091C4028F5F809302
:102BB000C402803309F04EC08CE30E945F288091EC
:102BC000F502882319F081508093F50280917C02F0
:102BD000882309F45EC080910901833611F08111C8
:102BE00058C08091A5029091A602883522E09207F4
:102BF00050F40196883522E0920709F443C090937F
:102C0000A6028093A5028091A402863020F48091D0
:102C1000A302843110F00E948B0B80917B028823E9
:102C200039F0815080937B02811102C00E948B0B8E
:102C300080917C02811132C08091A1029091A20208
:102C400001969093A2028093A102813B944050F19F
:102C50000C948B0B843311F48EE3AFCF883311F4D3
:102C60008BE3ABCF8C3311F48AE3A7CF803508F424
:102C7000A6CF80917C021092C402882309F49FCFD2
:102C80008FE39BCF1092A6021092A5020E948B0B9D
:102C9000BACF1092A6021092A502B5CF1092A2024E
:102CA0001092A10208958091DB02882309F457C095
:102CB0008BE20E944D2880915004882329F086E7FA
:102CC0000E944D281092500480917C02882309F4C0
:102CD00055C08091AB02882309F450C08091C20294
:102CE0009091C3020196883823E1920708F03CC016
:102CF0009093C3028093C2028091B4029091B0027B
:102D0000882309F4A8C02091C10282136AC09111DE
:102D10006AC08D3231F09AE8980F44EF51E092305A
:102D200010F440EE5EE29CE8980F923010F44CED07
:102D300055E02091BF023091C0022F5F3F4F241712
:102D4000350708F53093C0022093BF021092BE02EF
:102D50001092BD028091B4028093C10208950E9436
:102D60008D238111A5CFA7CF1092C3021092C2026A
:102D700084E08093DB020E94B80BBECF1092C302A6
:102D80001092C202B9CF1092C0021092BF028E39C7
:102D900029F1883301F191ED980F9230E0F09BEC2E
:102DA000980F9230C0F090EC980F9A30A0F095EB0D
:102DB000980F983280F01092B1020E94740B10921A
:102DC000B3021092B2028EE98093B4021092A90667
:102DD0000E94A61FBBCF8093B102EFCF0E948B0B46
:102DE000B5CF9923C1F18091DB02811134C0F894F1
:102DF0008091EA059091EB0578942091BD02309185
:102E0000BE022817390720F49093BE028093BD02BA
:102E10008091BD029091BE020A9708F49BCF8091E9
:102E2000BF029091C0020196843F21E0920728F4EE
:102E30009093C0028093BF028DCF1092C002109277
:102E4000BF0281E00E94EF0A1092BE021092BD0202
:102E50000E948B0B7FCF1092C0021092BF02992369
:102E600009F474CF77CF3F924F925F926F927F9227
:102E70008F929F92AF92BF92CF92DF92EF92FF928A
:102E80000F931F93CF93DF93CDB7DEB7E1970FB6C4
:102E9000F894DEBF0FBECDBF909117088091AC02B1
:102EA0002091AB02822B20915104822B2091B00201
:102EB000822B2091B402822B2091B602822B81F4C6
:102EC0008091E90581110CC08091C10086FD08C088
:102ED0008091DA02882321F02091DB0281E0211128
:102EE00080E0993241F010E09A3209F094C08111EB
:102EF000ABC08AE203C0811104C089E20E944D2860
:102F000080C08091740290914308892B9091EA02CD
:102F1000892B90914408892B81F70E94552F882393
:102F200061F38AE28093060627E0E22E26E0F22E85
:102F300035E0D32E43E2C42E5AE0B52E8091EB0348
:102F40009091EC038F719927892B09F4A895209112
:102F5000EB033091EC03D29EC001D39E900D11245F
:102F600008960E94002F182F2091EB033091EC035C
:102F70008F3FC1F1D29EC001D39E900D112441E13B
:102F8000B70108960E9461298701080F111DF801F9
:102F9000C0827801F2E0EF0EF11CF801B18280915D
:102FA000EB039091EC0301969093EC038093EB0379
:102FB00098012D5E3F4F265A364068F4843C994074
:102FC00008F4BCCFF801128284E70E944D2881E00A
:102FD0008093740216C0843C9940A0F789E20E9455
:102FE0004D28F0CF2F5F3F4F3093EC032093EB033E
:102FF000243C394008F4A2CF26E0E21626E0F2068F
:1030000011F41FEF08C0F701108284E70E944D28D9
:1030100081E080937402812FE1960FB6F894DEBFB1
:103020000FBECDBFDF91CF911F910F91FF90EF9019
:10303000DF90CF90BF90AF909F908F907F906F90D8
:103040005F904F903F900895809174029091430853
:10305000892B9091EA02892B90914408892B09F0E1
:1030600048CF0E94552F882309F443CF10920606BB
:1030700006E016E085E0382E6E01F5E1CF0ED11C9A
:10308000CE0186963C019FE2492E92E0592EFE0128
:1030900031967F018090EB039090EC03F4EC8F1657
:1030A000F9E09F0628F00650164009F08DCFA9CF11
:1030B000C4018F719927892B09F4A895389C500178
:1030C000399CB00C112448E0A40EB11CC5010E942B
:1030D000002F8F3F09F468C08FEF881A980A41E1EA
:1030E000B601C5010E946129F60101900020E9F7AF
:1030F0003197EC19FD09B601EA3018F039976E0FD7
:103100007F1FC3010E94B4337F926F929F928F9270
:103110005F924F92FF92EF920E942E34F70101903E
:103120000020E9F73197EE19FF09E00FF11F0FB604
:10313000F894DEBF0FBECDBFE65AF64040F1E6E0A0
:1031400006301E07C1F4B70186E096E00E94B43352
:103150008AE20E944D2884E70E944D2881E08093F6
:1031600074028091EB039091EC0301969093EC0331
:103170008093EB0346CF8AE20E944D2884E70E94A9
:103180004D2881E080937402F80110823ACFB70194
:10319000C8010E94B433F70101900020E9F731978C
:1031A000EE19FF090E0F1F1F8091EB039091EC03A6
:1031B00001969093EC038093EB036CCF08950E94EB
:1031C000011E0E94680A0C94AA1ECF93DF930F92EF
:1031D000CDB7DEB7809143089091EA02892B909198
:1031E0004408892B59F50E94552F882339F11982FB
:1031F00091E08091F402811101C090E081E0409162
:103200004204509143046091440470914504452B5D
:10321000462B472B09F480E0981711F081E0898351
:1032200085E090E00E94002F9981891739F041E0F4
:1032300065E070E0CE0101960E94382A0F90DF9180
:10324000CF9108950E94DF180E9467158091210494
:10325000882331F08150809321048111B3C0409ABA
:103260008091D5029091D602009739F00197909302
:10327000D6028093D502892B11F41092D702809147
:103280008D0290918E02892B49F080918D02909150
:103290008E02019790938E0280938D028091950209
:1032A0008823F1F080919302909194020097C1F0ED
:1032B00001979093940280939302892B89F46DEE89
:1032C00073E082E093E00E94B43366E372E086E04C
:1032D00096E00E94B43384E70E944D281092950234
:1032E00080917702882309F40FC18091BC0281117B
:1032F00011C080917C02882369F08091BA0290917C
:10330000BB028A3F910508F05FC001969093BB0213
:103310008093BA0280911708882309F488C09CE83A
:10332000980F923008F07CC09091D302981378C027
:103330008091D1029091D2028639910508F048C05F
:1033400001969093D2028093D1028091AB028823A0
:1033500009F45FC08091CB029091CC028C3221E0C5
:10336000920708F067C001969093CC028093CB023D
:1033700080919C02882309F486C080919A029091E2
:103380009B028436910508F073C080919A02909157
:103390009B02019690939B0280939A0280918602F1
:1033A000882309F48BC080918502823008F47CC0A8
:1033B000409A809185028F5F863008F077C08093B5
:1033C0008502089540984CCF8FEF8093BC02A2CF26
:1033D00065E784E70E9473288091CD029091CE0228
:1033E0008F3F980729F001969093CE028093CD02EB
:1033F00083E30E945F281092D7021092D6021092A7
:10340000D5021092D2021092D1021092D3021092E1
:10341000AB021092CC021092CB021092CA02A8CF3B
:103420008093D3021092D2021092D1028ECF1092CA
:10343000D302F8CF1092CC021092CB020E948403E8
:103440001092AB021092AA021092E9051092740237
:103450008091CA028F3F29F41092CA020E948B0BFE
:1034600087CF8F5F8093CA02833008F481CFF4CF77
:103470001092990282E390E09093980280939702D1
:103480000E9484038BCF8091970290919802892BA0
:1034900009F484CF809197029091980201979093BC
:1034A0009802809397027ACF409883CF109285023A
:1034B00080918602815080938602089580917C02DB
:1034C000811102C0409819C0809121048111FACF66
:1034D000809109018031A8F48091B9028F5F823315
:1034E00070F48093B9028091B902883259F38B321B
:1034F00049F38E52843030F3409A0C94E51881E001
:10350000F0CF1092B902EFCF1092BC021092BB0222
:103510001092BA02FFCE0E94A01E0E9453160C9475
:10352000DD29F89480916E008D7F80936E007894F1
:10353000000080918002811109C0F89480916E0092
:10354000826080936E00789400000895109280024B
:1035500080917F02882329F081E080937E0210927F
:103560007F02F89480916E00826080936E00789460
:10357000000080917E0280FF33C08091B8028F5F8F
:103580008A3079F18093B8020000F89400B601FE09
:1035900026C08091C1008F778093C100789480917C
:1035A000EA059091EB05892B11F18091FA058F5F67
:1035B0008093FA058333D8F0439A8091C1008F77C6
:1035C0008093C10080B78D7F80BF1092530410920A
:1035D00052041092E8051092E70510924F04789477
:1035E00008951092B80283E080937E02CDCFF894C4
:1035F0008091C10080688093C10078940000EFCF73
:10360000A89582E084BD83E085BD8FE387BDEEE6AB
:10361000F0E080818260808383B7817F83BF0895DB
:103620001F93CF93DF9344E050E061E070E082E2CB
:1036300094E00E941D2F8091220481508E3F00F162
:1036400081E4809345088093220482E480934608B5
:103650008093230483E4809347088093240484E4C4
:1036600080934808809325040E94552F8823E1F316
:1036700044E050E061E070E082E294E00E94232F99
:103680008DEE90E30E94242E853A09F050C081EE21
:1036900090E30E94002F8F3F09F455C080930001F2
:1036A00082EE90E30E94002F8F3F09F459C080936F
:1036B000060186E090E00E94002F8F3F09F45DC074
:1036C000809305018CED90E30E94002FD82F8DEDA3
:1036D00090E30E94002F182F8EED90E30E94002FA0
:1036E000C82F8FED90E30E94002F282F9D2F91234C
:1036F0009C2398239F3F09F04DC082E090E0A0E01A
:10370000B0E08093010190930201A0930301B09374
:1037100004011092D7021092D6021092D502109294
:10372000AB0210927702DF91CF911F9108950E9412
:10373000AD0365EA8DEE90E30E94AE2E0E94CB2E83
:103740008823E1F3A4CF81E0809300010E94552FEC
:103750008823E1F361E081EE90E30E94092FA0CF7E
:1037600081E0809306010E94552F8823E1F361E0F8
:1037700082EE90E30E94092F9CCF81E080930501A7
:103780000E94552F8823E1F361E086E090E00E94DB
:10379000092F98CF8C2F90E0B0E0A0E0DC019927B2
:1037A0008827912B8D2BB22B8093010190930201DE
:1037B000A0930301B0930401AC01BD014150510934
:1037C000610971094F3956486140710508F095CF7C
:1037D0008F399648A140B10509F09BCF85E090E074
:1037E0000E94002F8F3F69F0817081958093F402D1
:1037F0001092420410924304109244041092450423
:1038000088CF1092F402F4CFCF92DF92EF92FF9222
:103810000F931F93CF93DF93CDB7DEB761970FB6AA
:10382000F894DEBF0FBECDBF10911708143209F413
:1038300010C1D0F4133208F0D2C0133008F088C0A1
:10384000123009F457C010E0812F61960FB6F8943A
:10385000DEBF0FBECDBFDF91CF911F910F91FF90C3
:10386000EF90DF90CF900895183228F4163208F4C4
:103870003AC11FEFE9CF183231F76EEF73E0FB0169
:1038800001900020E9F7BF016150710945E458E05B
:103890008EEF93E00E94B82808E010E0B80185E4BC
:1038A00098E00E948529882309F48DC11092FE03B7
:1038B00045E458E06FEF73E08EEF93E00E94B82884
:1038C00095E4C92E98E0D92EF12CE12CF6016191F6
:1038D0006F01C701800F911F0E94AE2E0E94CB2E58
:1038E0008823E1F3FFEFEF1AFF0A25E0E216F10467
:1038F00069F7BFCF809143089091EA02892B90919C
:103900004408892B21F082E00E944D28B2CF0E940A
:10391000552F8823C1F381E48093450880932204C6
:1039200082E4809346088093230483E480934708CD
:103930008093240484E4809348088093250464E001
:1039400081E090E00E94592A83E38093210491CF83
:10395000809143089091EA02892B90914408892B29
:1039600011F0812FD1CF0E94552F8823D1F30DEF75
:10397000010F40E250E06FEF70E085E498E00E94B4
:103980008E33011120C081E4809346088093220485
:1039900082E4809347088093230483E4809348085B
:1039A0008093240484E48093490880932504109232
:1039B0004A081092F40210924204109243041092AA
:1039C00044041092450460E220E2029FC0011124E9
:1039D0000E94592A81E0810F0E944D28B5CF0091A5
:1039E00043088091EA02082B80914408082B11F0CB
:1039F00083E28ACF0E94552F8823D1F3F12CE12C4A
:103A0000C7010E94002FF701EE52FF4FE4918E1381
:103A10000FEF8FEFE81AF80A96E0E916F10481F744
:103A200058E0E52EF12CC7010E94002F182F8F3F80
:103A300051F4EFEFEE1AFE0AFCEDEF16F0E3FF068D
:103A400091F7002311F083E05FCF0E94101B409A92
:103A5000FBCE109143088091EA02182B8091440814
:103A6000182B11F084E250CF0E94552F8823D1F3F8
:103A700066E274E0CE0101967C010E94B433F70146
:103A800001900020E9F7BF016150710945E458E059
:103A9000C7010E94B82880910001813091F048E070
:103AA000E42EF12CB70185E498E00E94852981116C
:103AB00014C0F5E0EF0EF11C2CEDE21620E3F20647
:103AC00089F780910601882309F4D3CE8091000103
:103AD000813029F40E942707CCCE1FEFF2CF1123AB
:103AE00009F4C7CEF7CF6EEF73E0FB010190002021
:103AF000E9F7BF016150710945E458E08EEF93E0AA
:103B00000E94B82838E0E32EF12C10E000E0C80154
:103B10008F719927892B21F40115110509F0A895BA
:103B2000B70185E498E00E9485298111A2CE0F5F3C
:103B30001F4FF5E0EF0EF11C043C29E0120739F7A6
:103B40006EEF73E0FB0101900020E9F7BF016150C7
:103B5000710945E458E08EEF93E00E94B82888E0B0
:103B6000E82EF12C10E000E00AC00F5F1F4FF5E0D7
:103B7000EF0EF11C043C29E0120709F47ACEC801CB
:103B80008F719927892B09F4A895C7010E94002FEE
:103B90008F3F59F725E4C22E28E0D22E10E000E036
:103BA000F60161916F01C8018E0D9F1D0E94AE2E1E
:103BB0000E94CB2E8823E1F3A8950F5F1F4F05309D
:103BC000110571F756CE0B5F1F4F0C3D80E31807B0
:103BD00009F064CE4ECE0E946511811106C00E948C
:103BE000041C811102C00E9433170C948B28E82F0B
:103BF000F0E0E85CFB4F9081907F81E009F080E08D
:103C0000089590914104892F8D7F80934104809184
:103C10003804807F90FD56C081114BC080914A04CA
:103C200090914B04A0914C04B0914D0440914604F6
:103C30005091470460914804709149048417950796
:103C4000A607B70798F40196A11DB11D80934A04F9
:103C500090934B04A0934C04B0934D04481759071C
:103C60006A077B0719F481E0809341048091410445
:103C700090914E04891781F080934E04982F9260A2
:103C80009093410480FD53C010924A0410924B045B
:103C900010924C0410924D0480913704882341F017
:103CA000909141049D7F909341048150809337040B
:103CB000089510924A0410924B0410924C041092F2
:103CC0004D04D4CF882351F180913D0490913E045E
:103CD000A0913F04B09140044091390450913A04BE
:103CE00060913B0470913C0484179507A607B707C1
:103CF00008F0BCCF0196A11DB11D80933D049093A7
:103D00003E04A0933F04B0934004481759076A0744
:103D10007B0709F0ABCF10924104A8CF10923D046D
:103D200010923E0410923F04109240049FCF1092D4
:103D30003D0410923E0410923F0410924004ACCF18
:103D400080913804189B869581601899880F80931C
:103D500038040895CF92DF92EF92FF92809142044F
:103D600090914304A0914404B09145042091F40241
:103D70000097A105B105A1F00197A109B1098093B0
:103D8000420490934304A0934404B0934504892BC8
:103D90008A2B8B2B29F481E0211180E08093F4029F
:103DA0008091F402882309F442C08091D8028111E5
:103DB0003EC0C0908F02D0909002E0909102F090AF
:103DC00092022FEFC216D206E206F20681F18FEFC1
:103DD000C81AD80AE80AF80AC0928F02D092900254
:103DE000E0929102F0929202C701B6012AE030E01F
:103DF00040E050E00E94CC30672B682B692BB9F46F
:103E000064EE70E38C2D0E94682A65EE70E3809169
:103E100090020E94682A66EE70E3809191020E94EF
:103E2000682A67EE70E3809192020E94682A80916E
:103E3000F4028093D802882369F080918F029091D8
:103E40009002A0919102B09192028032914AA740D3
:103E5000B10510F05D9801C05D9AFF90EF90DF9082
:103E6000CF90089584E190E0A0E0B0E08093390421
:103E700090933A04A0933B04B0933C04809346048F
:103E800090934704A0934804B093490484EE90E3D0
:103E90000E942D2F6F3F2FEF72078207920749F084
:103EA00060938F027093900280939102909392029C
:103EB000089510928F021092900210929102109227
:103EC0009202089510924E041092420410924304FC
:103ED00010924404109245048EE1809337040895B3
:103EE0009093E6058093E5051092EF051092EE059C
:103EF000E0ECF0E0808180648083F894E1ECF0E015
:103F0000808180648083789400008FEF8093DC024E
:103F10000895CF93DF9321E42093A70624E520930F
:103F2000A806A9EAB6E0FC0193E0981B892F8E0F42
:103F3000ED0124912D93211107C09DE0988390E01D
:103F4000DF91CF910C94701F3196F0CFE7EAF6E045
:103F500081E4808384E5818301900020E9F7CF012B
:103F6000885A96409927FC01E955F94F2DE02083A6
:103F700001960C94701F78942F932FB72F933F9333
:103F80008F939F93EF93FF932091EE053091EF0570
:103F90008091E5059091E6052817390788F0F89497
:103FA0008091C1008F7B8093C10078940000FF91C5
:103FB000EF919F918F913F912F912FBF2F91189546
:103FC000329910C08091EE059091EF05FC01E95502
:103FD000F94F208101969093EF058093EE05209391
:103FE000C600E5CF8FEF8093DC02E1CF8F938FB7D0
:103FF0008F938091C1008F778093C10078948091D6
:10400000C6000F924F931F9211242F933F93EF936B
:10401000FF93AF93BF939F932091EA053091EB05F7
:104020008F3F09F4E8C0E4E5F4E0A901203991E00C
:10403000390708F0CDC02115310521F48A3009F087
:104040004AC02CC0909154048D3009F59D30F9F090
:104050009A30E9F090914F04911119C091E8909332
:10406000DB02439AF8949091C1009F779093C1002E
:1040700090B79D7F90BF78940000109253041092E7
:1040800052041092E8051092E70510924F04211592
:104090003105A1F290819D3089F61DC090914F04A9
:1040A000911119C091E89093DB02439AF894909192
:1040B000C1009F779093C10090B79D7F90BF789487
:1040C000000010925304109252041092E8051092CE
:1040D000E70510924F048F01A9014F5F5F4FDF0189
:1040E000A20FB31F00B601FE5DC02430310508F4F5
:1040F00059C08A3009F056C0BD0161507109EB0109
:1041000098819D3009F04EC061507109EB01988192
:104110009A3009F447C061507109EB0198819D30D4
:1041200009F440C0EF0191819A30E1F590819D3012
:10413000C9F56091E7057091E805709353046093A9
:1041400052045093E8054093E70590914F049F5F18
:1041500090934F046091F6057091F7057093F905FF
:104160006093F8056091F4057091F5057093F7057B
:104170006093F6056091F2057091F3057093F50573
:104180006093F40560915204709153047093F305A9
:104190006093F2056091E7057091E8057093F10571
:1041A0006093F0059091E905992361F02330310582
:1041B00049F4803239F4909156049E3319F49FEFFC
:1041C000909350048C939A01E40FF51F10820FC056
:1041D00030E020E080E88093DB02109253041092DC
:1041E00052041092E8051092E70510924F043093A4
:1041F000EB052093EA051092FA059F91BF91AF91CC
:10420000FF91EF913F912F911F904F9100B601FECA
:1042100008C0F8948091C10080688093C1007894B0
:1042200000000F908F918FBF8F91189583E080933E
:10423000C4001092C500E1ECF0E0808188618083C9
:104240008BB18C7F8BB95198429843983B980895D5
:1042500099B1892F887093FF0EC0109208011092B7
:10426000EB051092EA05519A8BB183608BB93B9AAA
:10427000439A429A8FEF0895809108018823B9F1FB
:1042800091E0980F90930801913A39F1A8F49F308A
:10429000D9F030F49230D1F09330E9F080E0089515
:1042A00087528430D8F70E94282191E0811101C003
:1042B00090E0892F819508959F3FA0F4953F98F74E
:1042C000983C49F0973D51F75498E8CF54980E9494
:1042D000282181110BC0549AE1CF1092DA0210927A
:1042E000D902DCCF81E080930801D8CF8FEF089509
:1042F000FC014217130609F048F4DB01AC5ABB4F2E
:1043000090E0491305C0942F81E0491380E008959F
:104310002D9184912813F8CF31969F5FF2CF8FB7FC
:10432000F89410925304109252041092E8051092DF
:10433000E7058FBF08952F923F924F925F926F9241
:104340007F928F929F92AF92BF92CF92DF92EF9225
:10435000FF920F931F93CF93DF93C8E047E0842E23
:1043600059E0952E63E0762E78E0672EE5E15E2E2B
:10437000F2E04F2EADE03A2E222423949FB7F8941A
:1043800080914F04811128C09FBFC0910506CC23A6
:1043900001F1C150C0930506D0E0C550DA4F8881C5
:1043A0008093DB021882C091DB028C2FDF91CF91CA
:1043B0001F910F91FF90EF90DF90CF90BF90AF9043
:1043C0009F908F907F906F905F904F903F902F9035
:1043D00008951092DB02E9CF853008F084E0E82FE1
:1043E000F0E0EE0FFF1FE051FA4FC080D180118244
:1043F00010828150E82FF0E0EE0FFF1FE051FA4FDE
:104400002081318180934F049FBFC216D306A8F547
:10441000809105068A3010F09092050689010C19EA
:104420001D0904501109760142E0E40EF11CC90196
:104430008C5A9B4FFC013397B0803197A080F601D6
:10444000EC5AFB4FD581EBE4BE121BC0FFE4AF1268
:1044500045C10597FC018081803209F45AC126309C
:10446000310508F456C1E091050681E08E0F809376
:104470000506F0E0E550FA4F2082C15009F07ECFEA
:1044800094CFD734A1F4980146E0B70182EF93E0CE
:104490000E947821882359F0E091050681E08E0F73
:1044A00080930506F0E0E550FA4F3082E6CFFFE456
:1044B000AF1215C0980145E0B7018CEE93E00E9461
:1044C0007821882361F0E091050681E08E0F8093CA
:1044D0000506F0E0E550FA4F44E04083CECF87E494
:1044E000B81215C0980147E0B70184EE93E00E942E
:1044F0007821882309F4F5C0E091050681E08E0F4C
:1045000080930506F0E0E550FA4F4082B6CFE4E430
:10451000BE12E7C098014CE0B70187ED93E00E941E
:104520007821882309F4DDC0E091050681E08E0F33
:1045300080930506F0E0E550FA4F8CE080839DCF34
:10454000DD34A1F4980146E0B70189EC93E00E94C4
:104550007821882309F1E091050681E08E0F809390
:104560000506F0E0E550FA4F508287CFD435A1F42C
:10457000980146E0B70182EC93E00E9478218823FD
:1045800059F0E091050681E08E0F80930506F0E07A
:10459000E550FA4F608271CFF5E4AF1214C0980174
:1045A0004AE0B70187EB93E00E947821882359F015
:1045B000E091050681E08E0F80930506F0E0E5505E
:1045C000FA4F70825ACF45E4B41214C098014BE000
:1045D000B7018BEA93E00E947821882311F1E091E2
:1045E000050681E08E0F80930506F0E0E550FA4F56
:1045F000908243CF89E5B81214C0980144E0B70116
:1046000086EA93E00E947821882359F0E09105061C
:1046100081E08E0F80930506F0E0E550FA4F80822E
:104620002CCFD53411F598014BE0B7018AE993E01E
:104630000E947821882309F420CF4AE050E070E0FE
:1046400060E0C6018E599B4F0E941E327093E602B5
:104650006093E502E091050681E08E0F80930506E8
:10466000F0E0E550FA4F45E038CFD33509F005CFFB
:1046700098014BE0B7018EE893E00E9478218823EF
:10468000C1F04AE050E070E060E0C6018E599B4FF7
:104690000E941E327093E4026093E302E0910506EB
:1046A00081E08E0F80930506F0E0E550FA4F86E03A
:1046B00045CF980146E0B70187E893E00E94782152
:1046C000882309F4DACEE091050681E08E0F80930D
:1046D0000506F0E0E550FA4F8EE030CFD73409F40C
:1046E000D2CED93409F02CCF980146E0B70180ED45
:1046F00093E00E947821882309F44ECFE0910506CB
:1047000081E08E0F80930506F0E0E550FA4F8AE0D5
:1047100015CFD73409F0CECEB6CECF930E949B21D1
:104720008823D9F08091DB02843021F0833111F0AD
:10473000813089F4CFB7F8940E948F21439AF8947E
:104740008091C1008F778093C10080B78D7F80BF3B
:1047500078940000CFBF8091DB02CF910895AF9293
:10476000BF92CF92DF92EF92FF920F931F93CF935E
:10477000DF936C01B62EA42EF601C081D181888111
:1047800090E00E94FF32892B39F5FAE0BF9E80014C
:1047900011240C5D1B4FBA1498F4F801E490F12C2D
:1047A000B8016F5F7F4FA701CE010E941033065FF3
:1047B0001F4F892BB1F4CE0DDF1DF601D183C083CD
:1047C0008B2DDF91CF911F910F91FF90EF90DF9094
:1047D000CF90BF90AF9008952196F601D183C0830A
:1047E000CBCFB394D8CFFF920F931F93CF93DF9388
:1047F0008C01F801C081D181F8808F2D90E00E945A
:10480000FF32892BF1F480912204F8121FC09981A4
:104810008091230498131AC09A81809124049813DC
:1048200015C09B8180912504981310C02496F8012F
:10483000D183C0838FEFDF91CF911F910F91FF90B4
:1048400008952196F801D183C083D3CF80E0F3CFC0
:1048500044E050E06FE174E00E94103321E0892BC6
:1048600009F020E0822F08950C94AF23EF92FF927D
:104870000F931F93CF93DF93EC017B010881198184
:104880004AE050E0BC01C8010E940E31F70160838C
:1048900071838283938381E02881398120173107D6
:1048A00009F480E0DF91CF911F910F91FF90EF907D
:1048B0000895DF92EF92FF920F931F93CF93DF93B0
:1048C0007C01D62EF701C081D181088110E0C8019A
:1048D0000E94FF32892BA1F48D2D90E00E940833B5
:1048E0000817190791F42196F701D183C0838FEF40
:1048F000DF91CF911F910F91FF90EF90DF9008957E
:104900002196F701D183C083DDCF80E0F1CFDF9224
:10491000EF92FF920F931F93CF93DF938C01D62ECC
:10492000F801E080F180CE2DDF2D899190E00E948A
:10493000FF32892B89F48D2D90E00E940833982F47
:10494000F7018191882361F07F019813F9CFD80195
:10495000ED93FC938FEF06C0D801CD93DC93E0CFAD
:104960009923A9F3DF91CF911F910F91FF90EF90C1
:10497000DF900895CF92DF92EF92FF920F931F93F3
:10498000CF93DF938C01E62ED72EF42EF801C08151
:10499000D181888190E00E94FF32892B89F4CE2D4D
:1049A000DD2DEF0C6E01EC1210C0F6011082DF91CC
:1049B000CF911F910F91FF90EF90DF90CF900895CE
:1049C0002196D801CD93DC93E1CFD801ED91FC91F4
:1049D000F0808F2D90E00E94FF32892B31F7F99201
:1049E000FF2019F3D8018D919C91119701968D9319
:1049F0009C93D8CF8F929F92AF92BF92CF92DF922B
:104A0000EF92FF920F931F93CF93DF93CDB7DEB753
:104A100064970FB6F894DEBF0FBECDBF7C016B016B
:104A2000042FF701A080B180F501808190E00E9401
:104A3000FF32892B09F049C010E04501F501819151
:104A40005F01882349F0143138F48032B1F30E94B9
:104A5000A5288D3009F040C0512F1A3008F059E0D8
:104A6000812F193008F489E08950990BA1E0B0E05A
:104A7000AC0FBD1FA80FB91FC60130E020E00150E8
:104A8000110B251718F420173107BCF1F601E50FBB
:104A9000F11D1082F6018081882321F0F7018082C8
:104AA00091828FEF64960FB6F894DEBF0FBECDBF34
:104AB000DF91CF911F910F91FF90EF90DF90CF90FA
:104AC000BF90AF909F908F9008958FEFA81AB80A6B
:104AD000F701B182A082A5CFF5013197808190EDD9
:104AE000980F9A3008F0A9CFE1E0F0E0EC0FFD1F3D
:104AF000E10FF11D80831F5FA0CF4D91FC01419319
:104B0000CF012F5F3F4FBDCF9F92AF92BF92CF9209
:104B1000DF92EF92FF920F931F93CF93DF9300D01A
:104B200000D000D00F92CDB7DEB79F838E837C017B
:104B300082E3F701A5E4B8E001900D928A95E1F7D0
:104B40005701F50181918F0190E00E94FF32892B7E
:104B5000E1F5CE0101966C0185015C0184E0982E9F
:104B6000900EF80181918F01882349F090E00E9416
:104B70000833F60181936F019012F3CF8FEF1D82FE
:104B8000882329F165E572E0C5010E94AB33892BCA
:104B9000F1F46CEE71E08DEE93E00E94CA33892B44
:104BA000B1F010E1812F27960FB6F894DEBF0FBE4B
:104BB000CDBFDF91CF911F910F91FF90EF90DF90CC
:104BC000CF90BF90AF909F9008955801BACFCE017B
:104BD00006960E94F3232E819F81811108C0822FA7
:104BE0000E942824182F8823E9F21BE0DBCF022F34
:104BF000192FF80181918F01811110C04AE160E005
:104C0000CE0106960E94AF23182F8A3108F043C2C6
:104C1000E82FF0E0E35DF84C0C94EE3090E00E9459
:104C20000833F80131978083E4CF0F5F1F4F1F8354
:104C30000E830E811F81F801808190E00E94FF3277
:104C4000892B99F730E020E0C8018E199F098B5B12
:104C5000974FFC01E20FF31F40815FEB540F5A3175
:104C600028F040534A3010F012E09CCF2F5F3F4FA6
:104C70002430310571F7FC014081518162817381DB
:104C800040932204509323046093240470932504DA
:104C900044E061E070E00E94382A13E083CF4EE0E8
:104CA0006EEF73E0CE0106960E94FA2481117ACF4E
:104CB0000E811F81F801808190E00E94FF32892BD4
:104CC00069F443E050E06BE174E0C8010E943833BE
:104CD00018E0892B09F466CF16E064CF0F5F1F4FF1
:104CE0001F830E83E5CF4EE06EEF73E0CE01069694
:104CF0000E94FA24882309F4B7CF85E20E944D2848
:104D0000CCCF4EE06EEF73E0CE0106960E94FA24FF
:104D1000882309F4A9CF88E2F1CF47E168E0CE010A
:104D200006960E94AF23883071F481E080930001E1
:104D300061EE70E30E94682A8FEF8093060162EEB5
:104D400070E381E00EC08930C1F481E080930001FE
:104D500061EE70E30E94682A1092060162EE70E331
:104D600080E00E94682A1092050166E070E080E011
:104D70000E94682A0E941B0790CF863191F481E03F
:104D80008093000161EE70E30E94682A1092060190
:104D900062EE70E380E00E94682A8FEF8093050145
:104DA00014C0853109F060CF81E08093000161EE8D
:104DB00070E30E94682A1FEF1093060162EE70E311
:104DC00081E00E94682A1093050166E070E081E0AE
:104DD000CFCF47E168E0CE0106960E94AF2388302E
:104DE00031F41092000161EE70E380E0A3CF8930CE
:104DF00031F41092000161EE70E380E0ABCF8631B8
:104E000031F41092000161EE70E380E0BDCF853196
:104E100009F02ACF1092000161EE70E380E0C9CF63
:104E200019E0C0CE0F5F1F4F1F830E830E811F81BD
:104E3000F801F0808F2D90E00E94FF32892B91F7CE
:104E4000FF2009F411CF81E48093A70684E58093C5
:104E5000A8061F930F938AE592E09F938F9389EAA8
:104E600096E09F938F930E942E340E94A61F8FEF8F
:104E7000809395028CE291E0909394028093930248
:104E80000F900F900F900F900F900F9006CF0F5F25
:104E90001F4F1F830E830E811F81F801808190E0D8
:104EA0000E94FF32892B99F743E050E067E174E0FC
:104EB000C8010E943833892B21F41092E8021DE0CA
:104EC00071CE4EE065E078E0CE0106960E94FA24AD
:104ED0001CE0882309F466CE8FEF8093E8021EE081
:104EE00061CEB501CE0106960E943624882309F4CE
:104EF000BBCE8981482F5A816B817C818A019B01BD
:104F000001501109210931090F3916482140310595
:104F100008F0AACEC0900101D0900201E0900301F8
:104F2000F09004014093010150930201609303014A
:104F3000709304016CED70E30E94682A6DED70E3DC
:104F4000809102010E94682A6EED70E38091030156
:104F50000E94682A6FED70E3809104010E94682A24
:104F60002FE9C21626E8D20621E0E206F104C9F4D0
:104F700089819A81AB81BC818F399648A140B10566
:104F800081F065E070E08FEF0E94682A1092F402D1
:104F9000109242041092430410924404109245046B
:104FA0005D980E941B071FE0FDCD0F5F1F4F1F8301
:104FB0000E830E811F81F801808190E00E94FF32F4
:104FC000892B99F742E050E064E174E0C8010E9447
:104FD0003833892B21F58FE996E8A1E0B0E0809382
:104FE000010190930201A0930301B09304016CEDC1
:104FF00070E38FE90E94682A6DED70E380910201F1
:105000000E94682A6EED70E3809103010E94682A75
:105010006FED70E3809104010E94682AC2CF43E0E3
:1050200050E060E174E0C8010E943833892B09F038
:105030001BCE82E090E0A0E0B0E08093010190936D
:105040000201A0930301B09304016CED70E3D2CF91
:1050500088E198E00FB6F894A895809360000FBEA1
:1050600090936000FFCF8FEF8093750291E0909353
:10507000000180930601809305016DEE73E082E0EC
:1050800093E00E94B43369EF73E086E096E00E94FB
:10509000313384E733CE11E085CDE7E1F8E030E04D
:1050A00020E09191911105C0295E374FF90180836D
:1050B00008952F5F3F4F2A30310599F70895E7E1B2
:1050C000F8E030E020E09191981761F0911105C06F
:1050D000295E374FF901808308952F5F3F4F2A30B3
:1050E000310589F7089590E0E92FF0E0E95EF74F88
:1050F0002081281770F0621760F0292F293028F0DE
:10510000109220089A3081F70895318131932F5FF2
:10511000F5CF9F5FF7CFE7E1F8E08181819388E0E9
:10512000E032F807D1F7109220080895E7E1F8E09F
:105130002AE02E0F9191981710F0691720F42E1382
:10514000F9CF80E008958FEF08958B3259F030F455
:10515000833251F08A3251F08DE0089580538A30C5
:10516000D8F708958AE008958CE008958BE00895BB
:10517000AF92BF92CF92DF92FF920F931F93CF9384
:10518000DF93182FEB016A0145E050E06FEF70E00C
:10519000C6010E948E338C2F811B182F219700E0AF
:1051A000823058F4DF91CF911F910F91FF90DF90E3
:1051B000CF90BF90AF900895092F88810E94A528B5
:1051C000F82EF29480EFF822FE0182915F010E9496
:1051D000A5288F29113061F4E5018F6010E091E07E
:1051E000900FF601E00FF11D80831111E5CFDACFAA
:1051F00022971250F4CFE82FF0E0E85DFA4F849147
:105200000895CF93DF939C01EB011882BC0180E0ED
:10521000DB016F5F7F4F9C919F3F19F0853009F054
:105220004AC0A217B30709F44AC0642F70E090E0A7
:10523000880F991F11976817790744F4DB011197BC
:10524000B7FDDB01B595A795A20FB31FEC918E2F8B
:105250008F708F3091F5E295EF70F0E0E85DFA4FD6
:1052600084918883882319F02196119781E0119603
:105270001197A217B307D8F0EC91EF70F0E0E85D5A
:10528000FA4FE491E883EE2311F021968F5F8417A3
:1052900071F0EC91E295EF70F0E0E85DFA4FE49187
:1052A000E9938F5F481719F02A173B0709F718820F
:1052B000DF91CF9108958F5FABCF80E0D8CF80E0B2
:1052C000F7CFFF920F931F93CF93DF9300D000D0BF
:1052D0000F92CDB7DEB78B01F42E45E050E0BC0154
:1052E000CE0101960E941D2F4F2DB801CE010196CF
:1052F0000E9401290F900F900F900F900F90DF9157
:10530000CF911F910F91FF9008950F931F93CF930B
:10531000DF93EC018B0188818F3FF1F0CB010E947C
:10532000002F8F3FC9F0C8010E94002F382F307F17
:105330009991292F207F303FA9F0203F99F0321317
:105340000BC08F709F708F3069F09F3059F08913B8
:1053500003C00F5F1F4FE7CF80E0DF91CF911F9118
:105360000F9108958FEFF9CF0F931F93CF93DF9392
:1053700000D000D00F92CDB7DEB78B01FC010190B9
:105380000020E9F73197BF01681B790B680F792F6F
:10539000711DAE014F5F5F4F0E94B828B801CE016A
:1053A00001960E9485290F900F900F900F900F90FB
:1053B000DF91CF911F910F9108950F931F93CF937A
:1053C0000E94552F882381F1809143089091EA0231
:1053D000892B90914408892B39F1C091E9020C2F57
:1053E00010E08091410890914208800F911F0E9427
:1053F000242EF801EB5BF74F9081891301C0CF5F3A
:105400008091EA02C817A0F48C2F90E0FC01EB5BBE
:10541000F74F20914108309142086081820F931F1D
:105420000E94AE2EC093E902CF911F910F91089573
:1054300080914308109243088093EA0225E438E003
:10544000F901882379F39E2F921B981770F08091B1
:105450007708909178089093420880934108609172
:1054600045080E94AE2EC0E0DDCF90A59193EBCF12
:105470000F931F93CF938B01C42F4423B1F050E0BF
:10548000BC0185E498E00E948533109342080093A4
:1054900041081092E902C093EA0260914508C801F0
:1054A000CF911F910F910C94AE2ECF911F910F9120
:1054B0000895662361F0909342088093410810920A
:1054C000E9026093EA02609145080C94AE2E0895BB
:1054D0001F93CF93DF93182FEB01CB010E94002F76
:1054E000811791F010934508D0934208C09341086A
:1054F0001092E90281E08093EA02612FCE01DF91F0
:10550000CF911F910C94AE2EDF91CF911F910895F2
:105510000F931F93CF93DF9300D000D0CDB7DEB7AA
:105520008C0119821A821B821C820E94002F89839F
:10553000C80101960E94002F8A83C80102960E942A
:10554000002F8B8369817A818B819C810F900F90D2
:105550000F900F90DF91CF911F910F910895DF92DF
:10556000EF92FF920F931F93CF93DF93DC011D9176
:10557000141710F01FEF140F862F072FC0E0D12C47
:1055800090E0D0E827E030E0C1130CC0C60FD72F61
:10559000D11D1882DF91CF911F910F91FF90EF9055
:1055A000DF9008954D2D50E0EC91F0E0ED2EF12CC0
:1055B000E094F094EE21FF2102C0EE0FFF1FDA9479
:1055C000E2F7E90FF11DE75BF94F9491E82EF02E19
:1055D000F70191937F01CF5FFC2FF770DF2E89F0E9
:1055E000ED91ED23F0E0C901841B950B02C0F59508
:1055F000E7958A95E2F79E2FD695D0588E2D0F2DE0
:10560000C3CF90E0D0E8FACFCF92DF92EF92FF9233
:105610000F931F93CF93DF93EC01461B570BDC01D5
:105620004D933FEF340F90E020E00FE710E087E06C
:105630004FEF50E0231738F188818770D1F0FB01DC
:10564000E20FF11DE081F0E0E75BFA4F24914FE7B4
:1056500050E0092E02C0440F551F0A94E2F7E22FD2
:10566000F0E0E423F52302C0F695E7959A95E2F77A
:10567000ED93CD01DF91CF911F910F91FF90EF90AE
:10568000DF90CF9008956B01C20ED11CF601F0801F
:10569000EF2DF0E0E75BFA4FE4917801092E02C0AC
:1056A000EE0CFF1C0A94E2F7F0E0EE22FF22092E36
:1056B00002C0F694E7940A94E2F7F601F180EF2D28
:1056C000F0E0E75BFA4FE491F82EF91A6A010F2C2B
:1056D00002C0D694C7940A94E2F7EC2101C0EE0F01
:1056E000FA94EAF7EE29ED939F5F973011F42F5F5C
:1056F00090E02F5F9FCFFC01640F752F711D46173F
:10570000570709F4089590819A3370F49053292F24
:105710002295207F91819A3348F49053920FDA01B9
:105720009D93AD013296EBCF9753F1CF9753F6CFC0
:105730001F93CF93DF93DC01EA018C91873C50F0FB
:10574000DB011C928FEF888390E080E0DF91CF91A6
:105750001F91089518828C9190E00196A80FB91FAF
:105760008C918B7F11F08FEF888311963C9111976C
:10577000313130F7FD01339612968C91982F9F7E30
:1057800041E0913809F040E0813921F48BE2DB01FE
:105790008D93BD01562F172F80E010C090812223DA
:1057A00011F0929531969F70905D411101C090E388
:1057B000A52FB12F9D938F5F5A2F1B2F282F21705C
:1057C0008313ECCF680F711DDB011C92211101C006
:1057D00031978281882311F08FEF8883CF01039660
:1057E000B5CFFC019081A92FAF708AE092959F7090
:1057F000A89F900D1124DB019C939181692F6F70FC
:1058000092959F70689F900D1124DA019C9392816C
:10581000492F4F7092959F70489F900D1124D90188
:105820009C93CF0103960895FC019081A92FAF703E
:105830008AE092959F70A89F900D1124DB019C93A4
:105840009181692F6F7092959F70689F900D1124C0
:10585000DA019C939281492F4F7092959F70489FD7
:10586000900D1124D9019C93CF0104960895CF93F4
:10587000DF93DB012C9161E82B3211F4119661E981
:10588000FD0101900020E9F73197EA1BFB0BEC01C9
:10589000E11105C01992CE01DF91CF910895E883FF
:1058A000AC014E5F5F4F6983CF01992701969595B3
:1058B0008795D82F742FC52F60E06D1303C0840F18
:1058C000951FEACF2C91205311963C9111973323C9
:1058D00059F012963295307F232BE72FFC2F21931E
:1058E0006F5F7E2FCF2FE9CF1196206FF6CFCF932A
:1058F000DF93DB012C91211106C0FC011192CF0135
:10590000DF91CF91089561E82B3211F4119661E98E
:10591000FD0101900020E9F731979F012A1B3B0B05
:1059200033272F5F3F4F35952795D22F41E0420F08
:10593000FC014083AC014E5F5F4F6183742FC52F24
:1059400060E0D61304C0CA01820F931FD9CF8C9197
:10595000805311969C911197992359F01296929524
:10596000907F892BE72FFC2F81936F5F7E2FCF2FA6
:10597000E8CF1196806FF6CFEF92FF920F93CF93FF
:105980007B01C22FBA010E94772C21E1FC01208308
:105990001182B70102960E94372CFC01C08301835B
:1059A0002AEA22830396CF910F91FF90EF900895FA
:1059B000CF93DF930F92CDB7DEB79C01CB01582F69
:1059C000561B541720F00F90DF91CF910895DC0102
:1059D0009D91892F807F898382958983E981F0E079
:1059E000E85CFA4F8491F90180839F70E92FF0E021
:1059F000E85CFA4F8491F90181832E5F3F4FCD011E
:105A0000DECF1092CD0087E08093CC0082E08093BF
:105A1000C80088E18093C90086E08093CA00239A79
:105A200024982C9A08959091C80095FFFCCF8093FC
:105A3000CE0008958091C80087FFFCCF8091CE00F2
:105A400008958091C800881F8827881F0895CF93E4
:105A5000DF93EC018991811103C0DF91CF9108950B
:105A60000E94132DF7CFCF93DF938091F302813003
:105A700061F48091C80087FF1BC00E941A2D80939B
:105A8000F20282E08093F30210C0823089F48091A8
:105A9000C80087FF0DC00E941A2D9091F2020E944B
:105AA000002F0E94132D1092F302DF91CF910895E1
:105AB0008091F102813061F48091C80087FF4DC070
:105AC0000E941A2D8093F00282E08093F102EDCFC4
:105AD000823051F48091C80087FF3FC00E941A2D88
