:100000000C9465030C9482030C9482030C94820379
:100010000C9482030C9482030C9482030C9482034C
:100020000C9482030C9482030C9482030C9482033C
:100030000C9482030C9482030C940B040C948203A2
:100040000C9482030C9482030C942E1F0C94820354
:100050000C94F31E0C9482030C9482030C94820380
:100060000C9482030C9482030C9482030C948203FC
:100070000C9482030C9482030C9482030C948203EC
:100080000C9482030C9482030C9482030C948203DC
:100090000C9482030C9482030C9482030C948203CC
:1000A0000C9482030C9482030C9482030C948203BC
:1000B0000C9482033A00206F3A200057796B7279D2
:1000C000746F20737465726F77616E6965207A3A18
:1000D0002000FF4142434400000043444547484953
:1000E0004A352B6370696E3F00000000000000007D
:1000F0002B636E6D693D322C312C322C31002B6D0F
:100100006F72696E673D3100000000002B636C69FF
:10011000703D31000000000000002B646465743DF8
:10012000312C31302C3100002B63616C6D3D31007E
:100130000000000000002B6372736C3D3100000072
:10014000000000002B637573643D31000000000067
:1001500000002B637062773D32362C223122000082
:100160002B636C74733D30000000000000002B63B3
:100170006D69633D302C3135002B636D6764613DE3
:1001800036002B6370696E3D223139373622002BE1
:100190006966633D322C32002B63706D733D2253D0
:1001A0004D222C22534D222C22534D22002B6364CE
:1001B000736362002B63636C6B3F002B636F707320
:1001C0003F002B637062723D3236002B63726567AD
:1001D0003F002B637371002B7674733D3100610017
:1001E00068002B434D54493A002B636D67643D0012
:1001F0002B636D67723D002B636D67733D002B436E
:100200005553443A002B434D54493A002B44544D26
:10021000463A002B434C49503A003E002B434D4791
:10022000523A002B434F50533A002B435245473A22
:10023000002B4353513A002B4350494E3A2052452C
:10024000414459002B43434C4B3A00206F3A200065
:1002500057796B7279746F20737465726F77616E02
:100260006965207A3A20004E6F74696679204F4E96
:100270003A20004E6F74696679204F4646004E6FF3
:1002800074696679204F4646004E6F74696679201E
:100290004F4E3A2000303031414520426C6164209D
:1002A00050616D69656369007777772E736F6E664D
:1002B000792E706C00576C61637A79204F55542009
:1002C0006E613A200057796C61637A79204F5554FA
:1002D000207A613A200057796C61637A6F6E7920D9
:1002E00028426973746162696C6E79290A00576CDF
:1002F00061637A6F6E792028426973746162696CF8
:100300006E79290A00437A6173204F55543A2000D0
:100310002044544D460020534D530020534D53006C
:1003200020434C495000537465726F77616E696564
:100330003A20005075626C69637A6E790A005072D7
:10034000797761746E790A00547279623A200055A7
:100350007A79746B6F776E6963792000557A797456
:100360006B6F776E6963793A2000506F7A696F6DB1
:100370002047534D3A200041432D323030302D4438
:10038000544D462D460A002B435553443A002B4307
:100390004D53204552524F523A002B434D45204574
:1003A00052524F523A0042555359004E4F20444941
:1003B000414C544F4E45004E4F2043415252494507
:1003C00052002B434D54493A002B44544D463A00B9
:1003D0002B434C49503A004D4F20434F4E4E45431E
:1003E000544544004D4F2052494E47004552524F0C
:1003F00052002B434D47533A005472796220736583
:10040000727769736F777920616B7479776E790091
:100410004F4646004F4E004F464600414C4C00436D
:100420003344340004434F444500000000000341BE
:1004300044440000000000000344454C000000005C
:10044000000004585858580000000000065245505B
:100450004F52540000000455534552000000000064
:10046000044F50454E000000000005434C4F5345DB
:100470000000000004434C49500000000000044408
:10048000544D460000000000035345540000000096
:1004900000000454494D45000000000006534B5233
:1004A0005942410000000544454255470000000004
:1004B00003535542000000000000054D594E554DB4
:1004C00000000000045553534400000000000343A3
:1004D0004F4E000000000000024F4E0000000000E0
:1004E000000005544F474C45000000000352535490
:1004F00000000000000008534D5320434C495000B9
:1005000003534D53000000000000045354414E00BB
:10051000000000000454454348000000000003535D
:100520005953000000000000303132333435363783
:1005300038392B2A232121003031323334353637F4
:100540003839414243444546003F3F3F3F3F3F3FEC
:100550003F3F3F0A3F3F0D3F3F3F3F3F3F3F3F3F12
:100560003F3F3F3F3F3F3F3F3F2021222302252681
:100570002728292A2B2C2D2E2F3031323334353693
:100580003738393A3B3C3D3E3F00414243444546C3
:100590004748494A4B4C4D4E4F5051525354555673
:1005A0005758595A3F3F3F3F113F61626364656648
:1005B0006768696A6B6C6D6E6F7071727374757653
:1005C0007778797A3F3F3F3F3F3F3F3F3F3F3F3F55
:1005D0003F3F3F3F3F3F3F3F3F3F3F3F3F3F3F3F2B
:1005E0003F3F3F3F3F3F3F3F3F3F403F0124033FAF
:1005F0005F3F3F3F3F3F3F3F3F3F3F3F3F3F3F3FEB
:100600003F3F3F3F3F3F3F3F603F3F3F3F5B0E1C11
:10061000093F1F3F3F3F3F3F3F3F5D3F3F3F3F5C05
:100620003F0B3F3F3F5E3F3F1E7F3F3F3F7B0F1DE6
:100630003F04053F3F073F3F3F3F7D083F3F3F7C33
:100640003F0C063F3F7E3F3F3F40A324A5E8E9F92A
:10065000ECF2C70AD8F80DC5E53F5F3F3F3F3F3F8B
:100660003F3F3F3F3FC6E6DFC920212223A4252686
:100670002728292A2B2C2D2E2F3031323334353692
:100680003738393A3B3C3D3E3FA141424344454621
:100690004748494A4B4C4D4E4F5051525354555672
:1006A0005758595AC4D6D1DCA7BF616263646566E6
:1006B0006768696A6B6C6D6E6F7071727374757652
:1006C0007778797AE4F6F1FCE00011241FBECFEFD1
:1006D000D8E0DEBFCDBF12E0A0E0B1E0EEE9FCE67D
:1006E00002C005900D92AE31B107D9F728E0AEE116
:1006F000B2E001C01D92A532B207E1F70E948F2E31
:100700000C9422360C94000010924602109245027E
:1007100010924402089580915E0295EB980F8C5ED2
:10072000943108F083E30C9497278091790290919B
:100730007A028F3F980729F0019690937A0280936E
:1007400079028AE08093300210922F021092CB033C
:100750000E94840383E30C949727CF93DF93D0E028
:10076000C0E06FEFCE010E94E62D0E94032E882389
:10077000E1F3CE018F709927892B09F4A895219672
:10078000CD3E84E3D80769F7DF91CF910895BC018E
:100790008EEF93E00C9496328FEF9FE80197F1F77C
:1007A00000C000008FEF9FE80197F1F700C0000044
:1007B0008FEF9FE80197F1F700C000008FEF9FE8EF
:1007C0000197F1F700C000008FEF9FE80197F1F764
:1007D00000C00000A8950895809173028F5F843651
:1007E00018F480937302089510927302809172023C
:1007F00091E0811190E090937202811102C04098C3
:100800000895409A08958091E203807F11F4409A00
:1008100008954098089578940F920FB60F921F9202
:1008200011242F938F939F93EF93FF93809127022F
:100830008F5F80932702823128F0109227028FEF7A
:10084000809329024B9B57C000B601FC16C08091D3
:100850008502811112C01092950510929405109294
:10086000A40580B7826080BFF8948091C100806841
:100870008093C10078940000439832992FC0F89477
:100880008091C10086FF29C08091C1008F7B809339
:10089000C1007894809186028823C9F080918402F7
:1008A000811104C080915E028D3289F4109286021B
:1008B0008091980590919905FC01EF5AF94F20819C
:1008C000019690939905809398052093C600F8941B
:1008D0008091C10080648093C10078948FEF8093F1
:1008E0002A02FF91EF919F918F912F911F900F906E
:1008F0000FBE0F901895439AF8948091C1008F73A2
:100900008093C10080B78D7F80BF78940000E6CFD0
:100910000F931F93CF93DF938C01DC01CD91DC917A
:100920004FE050E067E773E0CE010E9455326AE67F
:1009300073E0CE010F960E946932809109018032E6
:1009400010F5909126029923F1F06B96B4E68B9FF7
:10095000C00111246FE170E00E94F02FCB014AE04A
:10096000BE010E941C3309900020E9F7FE01319777
:1009700085E281931082D801ED93FC93DF91CF91B2
:100980001F910F9108958DE28B8F8C8FFE017E96C3
:100990008D8FF0CF8F929F92AF92BF92CF92DF92C6
:1009A000EF92FF920F931F93CF93DF938C01FC0183
:1009B000C081D1814DE050E06CE573E0CE010E9432
:1009C00055322D9688E0882E912CD12CC12CF12CFB
:1009D000E12CB12CA12CC6018F719927892B21F410
:1009E000C114D10409F0A895C4010E94382E8F3F8C
:1009F00091F1FFEFAF1ABF0AEFEFCE1ADE0AF5E072
:100A00008F0E911C84ECC81689E0D80621F74AE0C5
:100A1000BE01C5010E941C3309900020E9F721970F
:100A20008FE289934AE0BE01C7010E941C330990FE
:100A30000020E9F72197F801D183C083DF91CF919E
:100A40001F910F91FF90EF90DF90CF90BF90AF90EC
:100A50009F908F9008958FEFE81AF80ACDCFCF922C
:100A6000DF92EF92FF920F931F93CF93DF938C014E
:100A7000FC01C081D1814CE050E06FE473E0CE0115
:100A80000E9455322C9688E0E82EF12CD12CC12CF6
:100A9000C7010E94382E8F3F59F1C394F5E0EF0E45
:100AA000F11C8CEDE81680E3F80691F74AE0BE01F0
:100AB0008C2D90E00E941C3309900020E9F72197CB
:100AC0008FE289934AE0BE018D2D90E00E941C3395
:100AD00009900020E9F72197F801D183C083DF91C5
:100AE000CF911F910F91FF90EF90DF90CF900895DD
:100AF000D394D4CFAF92BF92CF92DF92EF92FF9276
:100B00000F931F93CF93DF9300D0CDB7DEB7A89597
:100B100080EB95E09A838983CE0101960E94880438
:100B2000E981FA81CF0101969A8389831AE01083C3
:100B3000E981FA811082CE0101960E94CA04E981FE
:100B4000FA81CF0101969A8389831083E981FA8122
:100B5000108268E473E089819A810E9469328981F8
:100B60009A8106969A838983209100016EE373E04F
:100B7000222311F063E373E00E94693289819A8134
:100B8000FC0101900020E9F7CF0101979A83898346
:100B900066E273E00E94693289819A810C969A8399
:100BA000898320910601222309F46CC060E273E07E
:100BB0000E94693289819A81FC0101900020E9F745
:100BC000CF0101979A838983209105016BE173E03E
:100BD000211160C0E981FA81CF0101969A8389834E
:100BE0008AE08083E981FA81108209811A81F80103
:100BF00001900020E9F78F01015011091A83098340
:100C0000C0900101D0900201E0900301F090040136
:100C1000FFE9CF16F6E8DF06F1E0EF06F10409F090
:100C200046C065E073E0C8010E94693289819A81FB
:100C30000A969A83898320919E026EEE72E02111BA
:100C400002C066ED72E00E94693289819A81FC01DE
:100C500001900020E9F7CF0101979A83898368EA20
:100C600072E089819A810E9469320F900F90DF9122
:100C7000CF911F910F91FF90EF90DF90CF90BF9099
:100C8000AF9008952091050166E173E0211102C043
:100C900060E173E00E94693289819A81FC010190D0
:100CA0000020E9F7CF0101979A83898393CF809140
:100CB0009E0265EB72E0882391F06091EC037091E5
:100CC000ED038091EE039091EF032AE030E040E0E5
:100CD00050E00E94043069017A0165EC72E0C801BD
:100CE0000E946932E981FA8101900020E9F7CF0181
:100CF00001975C019A838983C701B60120E13EE038
:100D000040E050E00E940430CB016CE370E00E94B0
:100D1000DC2FF62E082F1AE0822F612F0E94D02F91
:100D2000E92E4AE0B50190E00E941C3369817A8186
:100D3000FB0101900020E9F7BF01615071097A833E
:100D400069834AE08E2D90E00E941C33E981FA818C
:100D500001900020E9F7DF011197FA83E98388E623
:100D60008C93E981FA81CF0101969A8389838AE382
:100D7000E82EE08229813A818F2D612F0E94D02FA9
:100D8000F92E4AE0B90190E00E941C3369817A8112
:100D9000FB0101900020E9F7BF01615071097A83DE
:100DA00069834AE08F2D90E00E941C33E981FA812B
:100DB00001900020E9F7DF011197FA83E9838DE6BE
:100DC0008C93E981FA81CF0101969A838983E0822D
:100DD00029813A81802F612F0E94D02F092F4AE06C
:100DE000B90190E00E941C3369817A81FB01019076
:100DF0000020E9F7BF01615071097A8369834AE0F5
:100E0000802F90E00E941C33E981FA81019000203C
:100E1000E9F7DF011197FA83E98383E78C93E9818E
:100E2000FA81CF0101969A8389831083E981FA813F
:100E3000108215CF10929E021092EC031092ED03D7
:100E40001092EE031092EF035D980895809137029F
:100E500090913802892BA1F58AE090E090933802B6
:100E600080933702209101013091020140910301EA
:100E7000509104012F3986E8380781E04807510571
:100E800081F481E090919E02911180E080939E0216
:100E90001092EC031092ED031092EE031092EF0308
:100EA00008958FEF80939E02AAE0B0E00E942C305C
:100EB0006093EC037093ED038093EE039093EF0344
:100EC00008950895FF920F931F93CF93DF93CDB7AB
:100ED000DEB766970FB6F894DEBF0FBECDBF109297
:100EE000AE07A8958FEF80934602109245021092AC
:100EF00044028EE097E00E94BC24182F80914002AB
:100F0000811134C0809187021F928F938091880253
:100F10001F928F93809189021F928F9386E191E0B7
:100F20009F938F938AE091E09F938F930E94363333
:100F3000809187021F928F93809188021F928F93D6
:100F4000809189021F928F9385E291E09F938F9306
:100F50008BEC97E09F938F930E9436338FE90E942A
:100F600085270FB6F894DEBF0FBECDBF10924002AA
:100F7000809121028111109221028CEF810F823029
:100F8000B0F4809181028C3090F00E948B030E941B
:100F900095030E94840366960FB6F894DEBF0FBED9
:100FA000CDBFDF91CF911F910F91FF900895809158
:100FB00055028111EACFE1ECF7E04BEC57E020E07D
:100FC0009191992329F08F5F9457923008F42F5F05
:100FD0004E175F07A9F78332C0F62630B0F61131FD
:100FE000C0F6E12FF0E0EC5DF94C0C9426308091D6
:100FF0000501882371F280910001813039F167E9A0
:1010000073E0FB0101900020E9F7BF016150710915
:10101000AE014F5F5F4F87E993E00E94F02708E041
:1010200010E0B801CE0101960E94BD2881110EC0CA
:101030000B5F1F4F0C3DF0E31F0799F781E0809392
:10104000300210922F021092CB03A3CF8091200286
:101050008111F4CF67E973E080ED93E00E94EC32F8
:101060000E942607EBCF80911F02811115C080914D
:101070002002882389F065E972E080EB95E00E9408
:10108000693267E973E08CEA92E00E94EC3284E70F
:101090000E94852784E1D3CF809181028F5F809366
:1010A000810282EC91E09093800280937F0267E955
:1010B00073E08CEA92E00E94EC32A8950E947A05D7
:1010C00084E70E94852782E0BACF809181028F5FFA
:1010D0008093810282EC91E09093800280937F0262
:1010E00067E973E08CEA92E00E94EC3268EA73E010
:1010F000FB0101900020E9F7BF0161507109AE01C9
:101100004E5E5F4F88EA93E00E94F02708E010E00F
:10111000B801CE0142960E94BD28F82E81113CC034
:101120000B5F1F4F0C3DF0E31F0791F741E1BE013C
:101130006F5F7F4FCE0142960E943928BE016F5FDC
:101140007F4F80EB95E00E94EC3268E471E080EB29
:1011500095E00E94CD326BE471E0F11002C06EE4C4
:1011600071E080EB95E00E94CD3284E70E948527F4
:1011700082E08093300210922F021092CB03809174
:10118000ED0790919402892B9091EE07892B09F03D
:1011900000CF0E948D2EFDCEFF24FA94C7CF67E9C1
:1011A00073E08CEA92E00E94EC326DE671E080EB35
:1011B00095E00E94EC3284CF809181028F5F809312
:1011C000810282EC91E09093800280937F0267E934
:1011D00073E08CEA92E00E94EC3210929603109237
:1011E00095038AE26ECF67E973E08CEA92E00E9491
:1011F000EC32109296031092950389E262CF63E27B
:1012000082E00E94CE278111C4CE89E18093300212
:1012100010922F021092CB030E94AD0383E00E9434
:101220008527B7CE67E973E08CEA92E00E94EC3242
:1012300080919202882331F08091AF0769E872E0D3
:10124000811118C06EE772E080EB95E00E94693270
:1012500037CF67E973E08CEA92E00E94EC3263E7F3
:1012600072E0F2CF67E973E08CEA92E00E94EC3220
:1012700067E672E080EB95E00E9469326FEA77E002
:1012800080EB95E00E94CD321BCF66E971E087E9E3
:1012900093E00E940233892B09F454C04091390233
:1012A00050913A0260913B0270913C0240348DE0D3
:1012B000580783E06807710508F040C080E49DE0AE
:1012C000A3E0B0E0841B950BA60BB70BBF93AF93C5
:1012D0009F938F931F9283E08F938DE08F9380E491
:1012E0008F937F936F935F934F931F9285E18F93BB
:1012F0001F9286E08F931F928DE18F9383EA91E096
:101300009F938F9380EB95E09F938F930E9436334A
:1013100067E973E08CEA92E00E94EC3284E70E9475
:10132000852782E08093300210922F021092CB0327
:101330000FB6F894DEBF0FBECDBF2BCE80E090E09D
:10134000DC01C4CF85E07BCE83E079CE8091710251
:101350009091EB0390FF06C0883C88F48F5F8093E8
:1013600071020895883C60F063E282E00E94CE271B
:10137000811103C083E00E948527109271020895B5
:101380008233D8F363E282E00E94CE278111F5CF49
:1013900082E0F1CFCF93DF9380912002882321F068
:1013A00080911F02882389F18091060181112FC04D
:1013B00080910501811129C080910001813021F4C3
:1013C0008FEFDF91CF9108958091D0038823E9F0CA
:1013D00060ED73E0FB0101900020E9F7BF0161506F
:1013E00071094FEE57E080ED93E00E94F027C8E0CE
:1013F000D0E0BE018FEE97E00E94BD288111E0CFC2
:101400002596CC3DF0E3DF07A1F780E0DACF8091AD
:1014100000018130A9F28091D0038823B1F360EDFF
:1014200073E0FB0101900020E9F7BF0161507109F1
:101430004FEE57E080ED93E00E94F027C8E0D0E047
:10144000BE018FEE97E00E94BD288111B9CF25968D
:10145000CC3DF0E3DF07A1F7D8CF8CE380936002A7
:101460001092590210925802109252021092530296
:101470001092470280917E02882309F456C0809121
:10148000AF07882309F44FC06FEA77E08CEA92E057
:101490000E94EC3260E572E080EB95E00E946932D8
:1014A00060ED73E080EB95E00E94CD326BE472E07A
:1014B00080EB95E00E945E3280EB95E0FC010190AC
:1014C0000020E9F7CF01815B9540FC01E055FA4F20
:1014D00090910A019083E1E0E80FF0E0E055FA4FC7
:1014E00090910B019083E2E0E80FF0E0E055FA4FB5
:1014F0009AE39083E3E0E80FF0E0E055FA4F909133
:101500000D019083E4E0E80FF0E0E055FA4F909190
:101510000E0190838B5FE82FF0E0E055FA4F1082C8
:1015200084E70E94852710927E0208958CE38093C1
:10153000600210921E0208951092FB03109259024D
:101540001092580210925D0210925C0210925E029C
:10155000109293058CE380936002109255020895D7
:101560000E949C0A10925D0210925C0210925E0230
:101570001092AF051092C903109293051092FA03CE
:1015800010925A0210921E021092560208950E9462
:10159000B00A86E9809308011092840210928302B7
:1015A00010924E0210924D021092A10210924C0223
:1015B00010924B021092470210925B0283E68093D6
:1015C000090162E78FE50E94AB276FE38BE20E947F
:1015D000AB2769E480E40E94AB2766E784E70E94BA
:1015E000AB27109226020895809185028D3051F428
:1015F0001092540210921E021092550286E48093BB
:101600006002089580918502863059F52091540238
:101610002F5F2093540280918D0290918E0285302D
:1016200032E0930761F08A3331E0930741F0833071
:1016300032E0930721F080519240029770F48CE3DE
:101640008093600280915502223080F11092540202
:1016500010921E021092550208958CE3809360024E
:10166000F5CF80918502843021F58CE38093600270
:1016700010929305809100048E3331F4809194058B
:10168000909195050A9720F080915502811107C02D
:101690001092540210921E020E94C70ADBCF909152
:1016A00054029F5F90935402923080F60E948527E7
:1016B000D1CF809185028530B9F480918F029091CD
:1016C00090028A30910539F09C012D7F2D30310533
:1016D00011F04E9769F4109254028CE380936002EB
:1016E00010921E020C94C70A809185028091850297
:1016F00008950F931F93CF93DF93D0918502C091EC
:101700005E02CF3309F4C7C008F070C0C63309F4D5
:1017100029C238F5C03309F4C8C288F4CD3209F4BF
:10172000B4C0CF3209F437C110925D0210925C024E
:1017300010925E02DF91CF911F910F910895C333F4
:1017400009F44DC1C53381F7D13009F4B5C2809198
:10175000CA038F5F8093CA03833008F0ADC28C2F19
:101760007BC1CA3309F49FC188F4C73309F402C2AC
:10177000C833D1F688E3D13009F0F6C081E00E9489
:101780002D0A10925A021092FB03CECFCC3309F4EB
:1017900067C108F49CC1CE3339F6D13029F68AE20C
:1017A00092E00E94C703FC01892B09F4BDCF278179
:1017B0002C3209F06CC1379680818C3229F08181FE
:1017C0008C3209F066C131964AE050E070E060E08A
:1017D000CF0101960E944630662329F08DEF860FD7
:1017E000823008F058C10E94C70A9ECFCB3458F50A
:1017F000C73408F0A9CFC23409F4A6CFE8F4C03446
:1018000009F494C0C13409F08FCF80E3D13009F4DA
:10181000ABC0D63009F002C180918D0290918E024A
:101820008A3321E0920721F08530924009F07CCF85
:1018300084E180936002D5C0C33409F4F1C0C5349B
:1018400009F482CF71CFC33790F4CF3508F4C2C109
:10185000D63009F000C280918D0290918E028134C1
:10186000914009F4FBC18C2F0E948527FCC1C7372A
:1018700009F4FBC1CE3909F057CF8AE192E00E940A
:10188000C703892B09F0AFCF5FCF8EE20E94852777
:101890001092480249CFD13009F046CF84E492E05B
:1018A0000E94C703009709F43FCF62E270E00E94F4
:1018B000D832009709F438CFEC01219662E270E04B
:1018C000CE010E94D8328C01892B09F42DCF6CE215
:1018D00070E0CE010E94D832009709F425CFEC01C8
:1018E0002196C017D10708F01FCF6AE370E0CE0140
:1018F0000E94D832009709F417CF8017910708F09B
:1019000013CFFE0101900020E9F73197EC1BFD0B8E
:10191000389708F409CF88E0FE01AAE0B1E0019011
:101920000D928A95E1F710921201FECED13099F412
:1019300087E392E00E94C703892B59F08FEF8093D1
:1019400083021092910283E30E9485271092700215
:10195000EBCE8FE2F9CFD53051F480918F02909188
:1019600090020E9731F480E40E948527DDCED430BA
:1019700021F0809185028038B1F7809170028F5FED
:1019800080937002843118F00E94C70ADFCF84E18F
:1019900080936002E8CFD13061F48FEF80938302AF
:1019A0001092910283E30E94852782E38093600274
:1019B000BBCED53079F480918F0290919002803126
:1019C000910521F48FEF80939102AECE0E9721F412
:1019D0008FE2CACFD430E1F380918502F9CFD130C4
:1019E00011F481E4C1CFD63089F480918D029091B9
:1019F0008E028A3321E0920721F08530924009F06F
:101A000093CE8CE38093600283E3AECFD430E1F3D6
:101A100080918502803809F087CEF6CF8AE009CF21
:101A2000D13049F0D53081F480918F0290919002AD
:101A30000397029748F480915B020E9485271092D9
:101A40005B021092CA030AC08091CA038F5F809321
:101A5000CA03833018F483E40E94852782E0A6CF6E
:101A6000D13089F481E392E00E94C703009709F422
:101A70005BCE4AE050E070E060E006960E9446309F
:101A80006093090151CE83E6809309014DCE3896CB
:101A900093CE329699CE6B7F613009F045CE8FEFB1
:101AA0008093260241CED13049F0D53051F4809157
:101AB0008F02909190024597029718F410924E026F
:101AC00033CE80914E028F5F80934E022DCED13067
:101AD00009F042C046E050E063E272E080E094E04A
:101AE0000E948832892BC1F583E292E00E94C703ED
:101AF0006CE270E00E94D832009771F16CE270E005
:101B00000E94D832009741F162E270E00E94D83220
:101B1000009711F18C010F5F1F4F62E270E0C80166
:101B20000E94D8320097C1F008171907A9F0801B4E
:101B3000910B8C30910514F08BE090E0EC01DD27E7
:101B4000AE01B80181EA92E00E94BD32CF55DD4F6F
:101B5000188210924D02E8CD80914D028F5F8093E4
:101B60004D02E2CDD63009F479CF86E3D13009F4C5
:101B700075CF72CFD13021F0809185028C30A1F4E5
:101B80008FEF80935A021092CA038091060181114F
:101B9000CBCD8CE291E0909336028093350284E1C4
:101BA0008093600286E4E0CED43021F080918502FB
:101BB000803849F48091CA038F5F8093CA038330D1
:101BC00010F487E3D1CED33011F410925A02109260
:101BD000CA03AACDD130A9F58CE192E00E94C703D7
:101BE0006AE070E00E94D832009741F1EC01219642
:101BF0006DE070E0CE010E94D8320097F9F08C1BA6
:101C00009D0B97FD019695958795893CA8F4809347
:101C100057024DEC52E060915702CE010E94B32A68
:101C200083E70E94852780915E028C5E0E94852753
:101C30008FEF8093560278CD88ECE9CF1092560250
:101C400073CDD63021F0109256028CE3AFCE8C2F9C
:101C50000E948527F8CFD43009F405CE8091850203
:101C6000803809F400CE89E1A1CED43029F08091EA
:101C70008502803809F0ABCF1092FB038091CA0334
:101C80008F5F8093CA03833010F487E76DCE109284
:101C9000CA0380E00E942D0A10925A021092FB03A0
:101CA00010925902109258023FCDD13029F080E3B2
:101CB0000E94852784E17ACE80915B020E9485276D
:101CC00080915B028B54843108F0B9CE1092560299
:101CD000B6CE0F931F93CF93DF93809185028091AF
:101CE0008502803821F080915F02882381F080E8AE
:101CF000809385020E94790B82E3809360028FEFCC
:101D000080935F02DF91CF911F910F910895809191
:101D10008502813829F520918F05309190058091B9
:101D20009405909195052817390761F440918F0526
:101D30005091900561E576E08EEF93E00E94B0321D
:101D4000892B01F3809193058111DCCF80E880938A
:101D500085028FEF80935F0282E380936002D2CF8F
:101D6000809185028A3009F042C083E192E00E94AE
:101D7000C70362E270E00E94D832009739F18C010B
:101D80000F5F1F4F62E270E0C8010E94D8320097D7
:101D9000E9F0EC01C01BD10BC031C0F4DD27AE016E
:101DA000B80180ED93E00E94BD32C053DC4F188231
:101DB00080914D02811110924D028091090188237A
:101DC00011F0833619F480E18093090189E30E94C0
:101DD000972780915E028B54843110F41092560242
:101DE00010925D0210925C0210925E028BCF809185
:101DF0008502833089F480E00E942D0A10925A02F5
:101E00001092FB03109259021092580280915E02C8
:101E1000873709F077CFE4CF80918502823029F5AA
:101E200080915E028737D1F40E94790B80915E0227
:101E30008737A1F48091520281110BC08AE580930B
:101E400053028FEF8093FB031092590210925802B5
:101E500059CF8093530210925202F3CF89E3DF915E
:101E6000CF911F910F910C9497278CE092E00E94E4
:101E7000C703009799F0FC01379681918032E9F30E
:101E800090910601911107C0813329F40E94260721
:101E90008BE08093CB031092850234CF8091850232
:101EA0008C3071F480910601882309F42BCF1092B5
:101EB0005A0288E3DF91CF911F910F910C948527EF
:101EC00080918502893061F480915E02873711F438
:101ED0000E94790B80E00E942D0A1092FB03B4CF80
:101EE00080918502873081F380918502883029F5C1
:101EF00085E092E00E94C7036CE270E00E94D83255
:101F00000097A1F04AE050E070E060E001960E9486
:101F100056319B01215031092431310538F48AE4CE
:101F2000860F0E94852781E08093600280915E0287
:101F30008B54843108F0E6CE51CF809185028E30EB
:101F400009F04CC084E18093600280915E028B5462
:101F5000843140F41092560210925D0210925C029D
:101F600010925E028EEF91E00E94C70362E270E081
:101F70000E94D832009709F4C5CE8C010F5F1F4F25
:101F800062E270E0C8010E94D832009709F4BACE2C
:101F900020913F02222309F4B5CEEC01C01BD10BE6
:101FA000C13AD10510F0C0EAD0E0AE01B80180EB33
:101FB00095E00E94F332C055DA4F188267E973E06A
:101FC0008CEA92E00E94EC3284E70E94852710920E
:101FD0003F0210923E0210923D0294CE8091550233
:101FE00081110E94F40A8091940590919505892BA6
:101FF00009F488CE80918502882309F483CEDF918D
:10200000CF911F910F910C94790BCF93C82FC901D9
:10201000C11106C0862F0E9485278C2FCF9108956D
:1020200010925D0210925C0260935E0240935B022C
:102030000E94C11ECFEFF1CF0F93CF93DF939FEF9D
:10204000909393051092FA0381114BC085E0809321
:10205000300210922F021092CB0384E78093550236
:102060009093CD024AE06FEE77E08DEC92E00E9413
:10207000392800E020E04FEE57E06CEA72E08DEC8A
:1020800092E00E94F42B40EB55E0FA010190002011
:10209000E9F7AF014150510960EB75E00E943C2A1D
:1020A0008D5C924080935702C0915702C15080913D
:1020B000CD02C81B46E050E067EF71E083E596E093
:1020C0000E9455324AE069E576E08C2F90E00E944C
:1020D0001C338AEF80930701DF91CF910F910C940D
:1020E000DE1E85E08093300210922F021092CB0307
:1020F00085E7809355020091B0059093CD024AE0A8
:102100006FEE77E08DEC92E00E94392820E04FEEF0
:1021100057E06CEA72E08DEC92E00E94F42BEC0147
:102120004091B10550E062EB75E00E94BD328091B4
:10213000B1058C0F9D2F911DB3CFEF92FF920F939E
:102140001F93CF93DF9300D00F92CDB7DEB73091BE
:1021500056028091FB0350915E0290916002409183
:102160005502432B482B20915A02242B252B292B37
:10217000C9F56091930521E0611101C020E02111B2
:1021800032C06091C10066FD2EC06091840266235A
:1021900051F16091850201E0611125C01091C107E4
:1021A000E12EF12C1E3309F465C208F06BC0133325
:1021B00009F466C330F51E3209F446C3B0F41C328C
:1021C00009F4FCC208F013C31B3209F46FC380E0AA
:1021D0000F900F900F90DF91CF911F910F91FF9073
:1021E000EF90089521E000E0D9CF103309F4D6C272
:1021F00008F434C3113309F479C3123341F78FEF74
:10220000E7CF183309F4B7C1B0F4163309F4B9C2F3
:1022100008F0C0C11533D9F68091ED079091940272
:10222000892B9091EE07892B21F40E948D2E81112C
:1022300049C385E330C11A3309F43DC208F46CC1C7
:102240001B3309F45AC21C3309F0C1CF4091580224
:1022500050915902452B61F490919F02892B41F4D2
:102260008091930590911E02892B282B09F4F4C1CB
:1022700080910901833611F08111C1CF80E18093F3
:102280000901BDCF133708F074C01F3508F01BC11A
:10229000163409F493C1B0F41F3309F450C220EC92
:1022A000210FE22FF0E0E852FF4F45915491FEE0FC
:1022B0002F9F900111242E513F4F612F802F0E949C
:1022C00005109DCF1B3458F380912602882309F412
:1022D0007EC02091580230915902232B09F077C01B
:1022E000942B80911E02982B09F071C0533309F48E
:1022F0006EC08091ED0790919402892B9091EE072A
:10230000892B09F064C00E948D2E882309F45FC0D8
:1023100061E081E00E94CE27811159C066E784E721
:102320000E94CE27811153C069E387E30E94CE2724
:1023300081114DC0002309F44AC010925D02109231
:102340005C0210935E028FEF8093560246E050E0ED
:1023500060EF71E083E596E00E9455324AE069E55E
:1023600076E0C7018A5491090E941C330E94DE1E48
:1023700046CF163709F449C080F4133701F540EA17
:1023800052E067E973E08DEC92E00E94D02A00975A
:1023900009F053C01092560232CF193709F47EC0AB
:1023A0001F3909F4ADC2173709F011CF2091260269
:1023B000222319F0992309F41AC187E76CC02091F0
:1023C000580230915902232B11F4892B11F0812FDF
:1023D00062C08091ED0790919402892B9091EE0755
:1023E000892BA9F70E948D2E882389F3002379F386
:1023F00010925D0210925C0210935E0281E015372C
:1024000009F080E00E941C10FACE109293054091D2
:1024100057026DEC72E081E596E00E94102C8091ED
:10242000570290E0880F991FFC01EF5AF94F2AE1FB
:10243000208301960E94A81EE2CE9E012F5F3F4F8F
:10244000AE014E5F5F4FBE016D5F7F4F0E94292B33
:102450002B8120938C022A8120938B022981209347
:102460008A029E012F5F3F4FAE014E5F5F4FBE015C
:102470006D5F7F4F0E944C2B2B81209389022A8114
:102480002093880229812093870241EA6EE077E059
:102490000E94E72989E70E948527B1CE8091ED0748
:1024A00090919402892B9091EE07892B99F70E94C5
:1024B0008D2E882379F31092300282E08093CB0333
:1024C0000E94620767CF4091580250915902452BF4
:1024D00009F07DCF832B30919F02832B09F077CFBA
:1024E00080919305811173CF002309F470CF10926E
:1024F0005D0210925C0210935E0246E050E069EECD
:1025000071E083E596E00E9455324AE069E576E0A5
:10251000C7018E55910928CF8091ED0790919402C3
:10252000892B9091EE07892B11F089E3B4CF0E949B
:102530008D2E8823D1F31092300282E08093CB035A
:102540000E94CA09882371F08091060190910501CB
:10255000892B79F082EE91E00E94C703892B11F458
:102560000E94260788E30E9485278FEF8093470209
:102570002FCE87E3F8CF011102C088E38CCF1092F1
:102580005D0210925C0210935E0280EE91E00E9468
:10259000C11E35CE8091060190910501892B69F706
:1025A00087E3002309F477CF10925D0210925C025A
:1025B00087E380935E028EED91E0E9CF992311F0DD
:1025C00086E469CF8091C10086FDFACF80918402B4
:1025D0008823B1F380918502582B91F710925D0208
:1025E00010925C0210935E0287ED91E0D0CF8111D2
:1025F00006CE002309F4E1CE10925D0210925C0237
:1026000087E780935E0285E18093CB0384E6809325
:10261000530668EA73E084E596E00E94EC3288EAAB
:1026200093E0FC0101900020E9F7CF01895A934023
:102630008F5F90E0FC01ED5AF94F2BE320838C5A19
:10264000994FFC0110820E94DE1E8CE291E0909373
:10265000590280935802D3CD8CE3002309F41BCF99
:1026600010925D0210925C028CE380935E0282ED18
:1026700091E08DCF4091580250915902452B09F0BD
:10268000BECD90919F02892B09F0B9CD8091930521
:1026900090911E02892B282B09F0B1CD8EE30023E7
:1026A00009F4F9CE10925D0210925C0210935E0262
:1026B0008BEC91E06CCF4091580250915902452B20
:1026C00059F490919F02892B39F480919305909150
:1026D0001E02892B282B19F010924E0290CD8AE30E
:1026E000002309F4D8CE10925D0210925C028AE3B6
:1026F00080935E0282EC91E04ACF40915802509163
:102700005902452B59F490919F02892B39F48091FD
:10271000930590911E02892B282B19F010924D02DF
:102720006ECD8BE3002309F4B6CE10925D021092B9
:102730005C028BE380935E028BEB91E028CF4091AB
:10274000580250915902452B09F059CD90919F02A2
:10275000892B09F054CD8091930590911E02892B0D
:10276000282B09F04CCD8FE3002309F494CE10926E
:102770005D0210925C028FE380935E0284EB91E035
:1027800006CF86E3002309F486CE10925D021092F4
:102790005C0210935E028DEA91E0F9CE80E30023A3
:1027A00009F479CE10925D0210925C0210935E02E1
:1027B00082E480935B0288E991E0E9CE8DE20E9499
:1027C000852784E180939F021092950510929405CD
:1027D0001092A40580B7826080BFF8948091C100F8
:1027E00080688093C10078940000439808CD809160
:1027F0004802811104CD80919F02882311F08DE25F
:102800004ACE8091C10086FDFACF109295051092B4
:1028100094051092A40580B7826080BFF8948091DF
:10282000C10080688093C1007894000043981092A2
:102830005D0210925C028DE280935E0284E18093DF
:1028400048028FE891E0A3CE8FEF8093840280E46A
:102850000E94852788E280936002D1CC8FE200231A
:1028600009F419CE10925D0210925C028FE28093FF
:102870005E0262E871E083E596E00E94693276CDFF
:1028800080916F02882311F081E405CE8FEF809351
:102890006F0283E3002309F4FECD10925D021092D3
:1028A0005C0210935E0289E791E071CE0E94690E8E
:1028B00080918502813819F084E18093070110929C
:1028C00085029DCC002309F4B4CC10925D021092D5
:1028D0005C0285E380935E026EE671E083E596E03C
:1028E0000E94693281E380935B0240CD8091830234
:1028F000882309F484CC86E30E94852782E3CBCD2C
:102900008091ED0790919402892B9091EE07892B8D
:1029100021F40E948D2E811102C08FE9BCCD0023CD
:10292000E1F310925D0210925C028FE980935E02E7
:102930006BEC77E083E596E00E94EC3217CD809156
:102940006002882339F0815080936002811102C0B7
:1029500010925F028091220290912302009729F049
:1029600001979093230280932202809135029091E7
:102970003602009771F001979093360280933502EA
:10298000892B39F480915A02882319F088E30E9438
:102990008527809148028823C1F0815080934802A6
:1029A000811113C010925D0210925C0210925E02BF
:1029B0008DE20E94852710928602F8948091C100D2
:1029C0008F7B8093C100789400000E94742088233C
:1029D00019F08CE20E94852780915302882341F0F0
:1029E000815080935302811103C088E30E948527A0
:1029F0008091580290915902009771F0019790933D
:102A0000590280935802892B39F482E00E942D0AE2
:102A100010925A021092FB0380916E028F5F809396
:102A20006E02803309F04EC08CE30E94972780919C
:102A30009F02882319F0815080939F028091260283
:102A4000882309F45EC080910901833611F0811159
:102A500058C080914F0290915002883522E0920731
:102A600050F40196883522E0920709F443C0909310
:102A7000500280934F0280914E02863020F4809164
:102A80004D02843110F00E94C70A809125028823EC
:102A900039F0815080932502811102C00E94C70A3B
:102AA00080912602811132C080914B0290914C029C
:102AB000019690934C0280934B02813B944050F1DD
:102AC0000C94C70A843311F48EE3AFCF883311F42A
:102AD0008BE3ABCF8C3311F48AE3A7CF803508F4B6
:102AE000A6CF8091260210926E02882309F49FCF10
:102AF0008FE39BCF1092500210924F020E94C70AA0
:102B0000BACF1092500210924F02B5CF10924C02E1
:102B100010924B02089580918502882309F457C0D2
:102B20008BE20E9485278091FA03882329F086E7AB
:102B30000E9485271092FA0380912602882309F4C7
:102B400055C080915502882309F450C080916C02D1
:102B500090916D020196883823E1920708F03CC0FD
:102B600090936D0280936C0280915E0290915A0264
:102B7000882309F4A8C020916B0282136AC09111C6
:102B80006AC08D3231F09AE8980F44EF51E09230EC
:102B900010F440EE5EE29CE8980F923010F44CED99
:102BA00055E02091690230916A022F5F3F4F241750
:102BB000350708F530936A02209369021092680283
:102BC0001092670280915E0280936B0208950E94CA
:102BD000C5228111A5CFA7CF10926D0210926C0271
:102BE00084E0809385020E94F40ABECF10926D02A9
:102BF00010926C02B9CF10926A02109269028E395B
:102C000029F1883301F191ED980F9230E0F09BECBF
:102C1000980F9230C0F090EC980F9A30A0F095EB9E
:102C2000980F983280F010925B020E94B00A1092C6
:102C30005D0210925C028EE980935E021092530650
:102C40000E94DE1EBBCF80935B02EFCF0E94C70ABB
:102C5000B5CF9923C1F180918502811134C0F894D8
:102C60008091940590919505789420916702309118
:102C700068022817390720F490936802809367024E
:102C800080916702909168020A9708F49BCF809127
:102C9000690290916A020196843F21E0920728F42C
:102CA00090936A02809369028DCF10926A0210920B
:102CB000690281E00E942D0A109268021092670258
:102CC0000E94C70A7FCF10926A021092690299236C
:102CD00009F474CF77CF3F924F925F926F927F92B9
:102CE0008F929F92AF92BF92CF92DF92EF92FF921C
:102CF0000F931F93CF93DF93CDB7DEB7E1970FB656
:102D0000F894DEBF0FBECDBF9091C10780915602EF
:102D100020915502822B2091FB03822B20915A0295
:102D2000822B20915E02822B20916002822B81F403
:102D30008091930581110CC08091C10086FD08C06F
:102D400080918402882321F02091850281E0211165
:102D500080E0993241F010E09A3209F094C081117C
:102D6000ABC08AE203C0811104C089E20E948527BA
:102D700080C080911E029091ED07892B9091940262
:102D8000892B9091EE07892B81F70E948D2E882345
:102D900061F38AE28093B00521EBE22E25E0F22E6A
:102DA00035E0D32E43E2C42E5AE0B52E8091950330
:102DB000909196038F719927892B09F4A8952091FA
:102DC000950330919603D29EC001D39E900D11249D
:102DD00008960E94382E182F209195033091960363
:102DE0008F3FC1F1D29EC001D39E900D112441E1CD
:102DF000B70108960E9499288701080F111DF80154
:102E0000C0827801F2E0EF0EF11CF801B1828091EE
:102E10009503909196030196909396038093950362
:102E200098012D5E3F4F2055364068F4843C994010
:102E300008F4BCCFF801128284E70E94852781E064
:102E400080931E0216C0843C9940A0F789E20E943C
:102E50008527F0CF2F5F3F4F309396032093950344
:102E6000243C394008F4A2CF20EBE21625E0F2061C
:102E700011F41FEF08C0F701108284E70E94852734
:102E800081E080931E02812FE1960FB6F894DEBF99
:102E90000FBECDBFDF91CF911F910F91FF90EF90AB
:102EA000DF90CF90BF90AF909F908F907F906F906A
:102EB0005F904F903F90089580911E029091ED0792
:102EC000892B90919402892B9091EE07892B09F020
:102ED00048CF0E948D2E882309F443CF1092B0056D
:102EE00000EB15E085E0382E6E01F5E1CF0ED11C28
:102EF000CE0186963C0199ED492E91E0592EFE01B6
:102F000031967F018090950390909603F4EC8F1694
:102F1000F9E09F0628F0005B154009F08DCFA9CF9E
:102F2000C4018F719927892B09F4A895389C500109
:102F3000399CB00C112448E0A40EB11CC5010E94BC
:102F4000382E8F3F09F468C08FEF881A980A41E144
:102F5000B601C5010E949928F60101900020E9F709
:102F60003197EC19FD09B601EA3018F039976E0F68
:102F70007F1FC3010E94EC327F926F929F928F92CB
:102F80005F924F92FF92EF920E943633F7010190C9
:102F90000020E9F73197EE19FF09E00FF11F0FB696
:102FA000F894DEBF0FBECDBFE055F64040F1E5E03E
:102FB000003B1E07C1F4B70180EB95E00E94EC32A4
:102FC0008AE20E94852784E70E94852781E080931A
:102FD0001E0280919503909196030196909396031B
:102FE0008093950346CF8AE20E94852784E70E945A
:102FF000852781E080931E02F80110823ACFB70145
:10300000C8010E94EC32F70101900020E9F73197E6
:10301000EE19FF090E0F1F1F8091950390919603E3
:10302000019690939603809395036CCF08950E9428
:10303000391D0E94A6090C94E21DCF93DF930F92D5
:10304000CDB7DEB78091ED0790919402892B9091D6
:10305000EE07892B59F50E948D2E882339F11982AC
:1030600091E080919E02811101C090E081E0409149
:10307000EC035091ED036091EE037091EF03452B4B
:10308000462B472B09F480E0981711F081E08983E3
:1030900085E090E00E94382E9981891739F041E04F
:1030A00065E070E0CE0101960E9470290F90DF91DB
:1030B000CF9108950E9417180E949F148091CB030E
:1030C000882331F081508093CB038111B3C0409AA3
:1030D00080917F0290918002009739F00197909340
:1030E000800280937F02892B11F4109281028091DB
:1030F000370290913802892B49F0809137029091E4
:1031000038020197909338028093370280913F02F2
:103110008823F1F080913D0290913E020097C1F02A
:10312000019790933E0280933D02892B89F467E9D1
:1031300073E08CEA92E00E94EC3260EE71E080EB8A
:1031400095E00E94EC3284E70E94852710923F02AE
:1031500080912102882309F40FC1809166028111B8
:1031600011C080912602882369F0809164029091B9
:1031700065028A3F910508F05FC001969093650251
:10318000809364028091C107882309F488C09CE879
:10319000980F923008F07CC090917D02981378C00F
:1031A00080917B0290917C028639910508F048C09D
:1031B000019690937C0280937B0280915502882334
:1031C00009F45FC080917502909176028C3221E003
:1031D000920708F067C0019690937602809375027B
:1031E00080914602882309F486C080914402909120
:1031F00045028436910508F073C080914402909195
:1032000045020196909345028093440280913002DA
:10321000882309F48BC080912F02823008F47CC08F
:10322000409A80912F028F5F863008F077C080939C
:103230002F02089540984CCF8FEF80936602A2CF63
:1032400065E784E70E94AB2780917702909178022E
:103250008F3F980729F00196909378028093770228
:1032600083E30E94972710928102109280021092AD
:103270007F0210927C0210927B0210927D021092CB
:103280005502109276021092750210927402A8CF25
:1032900080937D0210927C0210927B028ECF10925E
:1032A0007D02F8CF10927602109275020E9484037C
:1032B00010925502109254021092930510921E0221
:1032C000809174028F3F29F4109274020E94C70A01
:1032D00087CF8F5F80937402833008F481CFF4CF5F
:1032E0001092430282E390E0909342028093410265
:1032F0000E9484038BCF8091410290914202892BDE
:1033000009F484CF809141029091420201979093F9
:103310004202809341027ACF409883CF10922F02CD
:10332000809130028150809330020895809126026E
:10333000811102C0409819C08091CB038111FACF4E
:10334000809109018031A8F4809163028F5F8233FC
:1033500070F48093630280916302883259F38B3258
:1033600049F38E52843030F3409A0C941D1881E05A
:10337000F0CF10926302EFCF1092660210926502B6
:1033800010926402FFCE0E94D81D0E948B150C94EF
:103390001529F89480916E008D7F80936E0078944B
:1033A000000080912A02811109C0F89480916E007A
:1033B000826080936E0078940000089510922A0233
:1033C00080912902882329F081E0809328021092BD
:1033D0002902F89480916E00826080936E00789448
:1033E00000008091280280FF33C0809162028F5FCD
:1033F0008A3079F1809362020000F89400B601FEF1
:1034000026C08091C1008F778093C100789480910D
:10341000940590919505892B11F18091A4058F5FFA
:103420008093A4058333D8F0439A8091C1008F77AD
:103430008093C10080B78D7F80BF1092FD031092F2
:10344000FC0310929205109291051092F903789462
:1034500008951092620283E080932802CDCFF89401
:103460008091C10080688093C10078940000EFCF04
:10347000A89582E084BD83E085BD8FE387BDEEE63D
:10348000F0E080818260808383B7817F83BF08956D
:103490001F93CF93DF9344E050E061E070E08CEC49
:1034A00093E00E94552E8091CC0381508E3F00F115
:1034B00081E48093EF078093CC0382E48093F0074C
:1034C0008093CD0383E48093F1078093CE0384E45B
:1034D0008093F2078093CF030E948D2E8823E1F31F
:1034E00044E050E061E070E08CEC93E00E945B2EE1
:1034F0008DEE90E30E945C2D853A09F050C081EE7C
:1035000090E30E94382E8F3F09F455C0809300014C
:1035100082EE90E30E94382E8F3F09F459C08093C9
:10352000060186E090E00E94382E8F3F09F45DC0CE
:10353000809305018CED90E30E94382ED82F8DEDFD
:1035400090E30E94382E182F8EED90E30E94382EC3
:10355000C82F8FED90E30E94382E282F9D2F9123A6
:103560009C2398239F3F09F04DC082E090E0A0E0AB
:10357000B0E08093010190930201A0930301B09306
:103580000401109281021092800210927F02109228
:10359000550210922102DF91CF911F9108950E9450
:1035A000AD0365EA8DEE90E30E94E62D0E94032EA6
:1035B0008823E1F3A4CF81E0809300010E948D2E47
:1035C0008823E1F361E081EE90E30E94412EA0CFD9
:1035D00081E0809306010E948D2E8823E1F361E053
:1035E00082EE90E30E94412E9CCF81E08093050102
:1035F0000E948D2E8823E1F361E086E090E00E9436
:10360000412E98CF8C2F90E0B0E0A0E0DC0199270C
:103610008827912B8D2BB22B80930101909302016F
:10362000A0930301B0930401AC01BD0141505109C5
:10363000610971094F3956486140710508F095CF0D
:103640008F399648A140B10509F09BCF85E090E005
:103650000E94382E8F3F69F08170819580939E0281
:103660001092EC031092ED031092EE031092EF0310
:1036700088CF10929E02F4CFCF92DF92EF92FF920A
:103680000F931F93CF93DF93CDB7DEB761970FB63C
:10369000F894DEBF0FBECDBF1091C107143209F4FC
:1036A00010C1D0F4133208F0D2C0133008F088C033
:1036B000123009F457C010E0812F61960FB6F894CC
:1036C000DEBF0FBECDBFDF91CF911F910F91FF9055
:1036D000EF90DF90CF900895183228F4163208F456
:1036E0003AC11FEFE9CF183231F768EA73E0FB0106
:1036F00001900020E9F7BF01615071094FEE57E0DA
:1037000088EA93E00E94F02708E010E0B8018FEE0D
:1037100097E00E94BD28882309F48DC11092A80368
:103720004FEE57E069EA73E088EA93E00E94F027E1
:103730009FEEC92E97E0D92EF12CE12CF601619174
:103740006F01C701800F911F0E94E62D0E94032E7A
:103750008823E1F3FFEFEF1AFF0A25E0E216F104F8
:1037600069F7BFCF8091ED0790919402892B9091DA
:10377000EE07892B21F082E00E948527B2CF0E94BC
:103780008D2E8823C1F381E48093EF078093CC03CF
:1037900082E48093F0078093CD0383E48093F10764
:1037A0008093CE0384E48093F2078093CF0364E098
:1037B00081E090E00E94912983E38093CB0391CF35
:1037C0008091ED0790919402892B9091EE07892BBF
:1037D00011F0812FD1CF0E948D2E8823D1F30DEFD0
:1037E000010F40E250E06FEF70E08FEE97E00E9433
:1037F000C632011120C081E48093F0078093CC038E
:1038000082E48093F1078093CD0383E48093F207F1
:103810008093CE0384E48093F3078093CF031092C8
:10382000F40710929E021092EC031092ED03109296
:10383000EE031092EF0360E220E2029FC001112428
:103840000E94912981E0810F0E948527B5CF0091C8
:10385000ED0780919402082B8091EE07082B11F060
:1038600083E28ACF0E948D2E8823D1F3F12CE12CA4
:10387000C7010E94382EF701EE52FF4FE4918E13DC
:103880000FEF8FEFE81AF80A96E0E916F10481F7D6
:1038900058E0E52EF12CC7010E94382E182F8F3FDB
:1038A00051F4EFEFEE1AFE0AFCEDEF16F0E3FF061F
:1038B00091F7002311F083E05FCF0E94481A409AED
:1038C000FBCE1091ED0780919402182B8091EE07AA
:1038D000182B11F084E250CF0E948D2E8823D1F353
:1038E00060ED73E0CE0101967C010E94EC32F7019D
:1038F00001900020E9F7BF01615071094FEE57E0D8
:10390000C7010E94F02780910001813091F048E0CA
:10391000E42EF12CB7018FEE97E00E94BD288111B3
:1039200014C0F5E0EF0EF11C2CEDE21620E3F206D8
:1039300089F780910601882309F4D3CE8091000194
:10394000813029F40E942607CCCE1FEFF2CF11233D
:1039500009F4C7CEF7CF68EA73E0FB0101900020BD
:10396000E9F7BF01615071094FEE57E088EA93E033
:103970000E94F02738E0E32EF12C10E000E0C801AF
:103980008F719927892B21F40115110509F0A8954C
:10399000B7018FEE97E00E94BD288111A2CE0F5F84
:1039A0001F4FF5E0EF0EF11C043C29E0120739F738
:1039B00068EA73E0FB0101900020E9F7BF01615064
:1039C00071094FEE57E088EA93E00E94F02788E003
:1039D000E82EF12C10E000E00AC00F5F1F4FF5E069
:1039E000EF0EF11C043C29E0120709F47ACEC8015D
:1039F0008F719927892B09F4A895C7010E94382E49
:103A00008F3F59F72FEEC22E27E0D22E10E000E0B4
:103A1000F60161916F01C8018E0D9F1D0E94E62D78
:103A20000E94032E8823E1F3A8950F5F1F4F0530F6
:103A3000110571F756CE0B5F1F4F0C3D80E3180741
:103A400009F064CE4ECE0E949D10811106C00E94E6
:103A50003C1B811102C00E946B160C94C327E82FF7
:103A6000F0E0EE51FC4F9081907F81E009F080E022
:103A700008959091EB03892F8D7F8093EB038091C4
:103A8000E203807F90FD56C081114BC08091F4030A
:103A90009091F503A091F603B091F7034091F003E4
:103AA0005091F1036091F2037091F303841795072D
:103AB000A607B70798F40196A11DB11D8093F403E2
:103AC0009093F503A093F603B093F70348175907B3
:103AD0006A077B0719F481E08093EB038091EB0385
:103AE0009091F803891781F08093F803982F9260E2
:103AF0009093EB0380FD53C01092F4031092F503F2
:103B00001092F6031092F7038091E103882341F0AD
:103B10009091EB039D7F9093EB0381508093E103A1
:103B200008951092F4031092F5031092F603109288
:103B3000F703D4CF882351F18091E7039091E803F4
:103B4000A091E903B091EA034091E3035091E403AB
:103B50006091E5037091E60384179507A607B70700
:103B600008F0BCCF0196A11DB11D8093E70390938F
:103B7000E803A093E903B093EA03481759076A07DB
:103B80007B0709F0ABCF1092EB03A8CF1092E703AD
:103B90001092E8031092E9031092EA039FCF10926B
:103BA000E7031092E8031092E9031092EA03ACCF06
:103BB0008091E203189B869581601899880F809305
:103BC000E2030895CF92DF92EF92FF928091EC038F
:103BD0009091ED03A091EE03B091EF0320919E022E
:103BE0000097A105B105A1F00197A109B109809342
:103BF000EC039093ED03A093EE03B093EF03892BB6
:103C00008A2B8B2B29F481E0211180E080939E0286
:103C100080919E02882309F442C080918202811122
:103C20003EC0C0903902D0903A02E0903B02F09042
:103C30003C022FEFC216D206E206F20681F18FEFA8
:103C4000C81AD80AE80AF80AC0923902D0923A0291
:103C5000E0923B02F0923C02C701B6012AE030E05C
:103C600040E050E00E940430672B682B692BB9F4C8
:103C700064EE70E38C2D0E94A02965EE70E38091C4
:103C80003A020E94A02966EE70E380913B020E94F6
:103C9000A02967EE70E380913C020E94A0298091E8
:103CA0009E0280938202882369F08091390290916C
:103CB0003A02A0913B02B0913C028032914AA74067
:103CC000B10510F05D9801C05D9AFF90EF90DF9014
:103CD000CF90089584E190E0A0E0B0E08093E3030A
:103CE0009093E403A093E503B093E6038093F0037D
:103CF0009093F103A093F203B093F30384EE90E367
:103D00000E94652E6F3F2FEF72078207920749F0DE
:103D10006093390270933A0280933B0290933C0285
:103D200008951092390210923A0210923B021092BA
:103D30003C0208951092F8031092EC031092ED03E8
:103D40001092EE031092EF038EE18093E103089549
:103D50009093900580938F05109299051092980585
:103D6000E0ECF0E0808180648083F894E1ECF0E0A6
:103D7000808180648083789400008FEF8093860236
:103D80000895CF93DF9321E42093510624E52093F7
:103D90005206A3E5B6E0FC0193E0981B892F8E0F35
:103DA000ED0124912D93211107C09DE0988390E0AF
:103DB000DF91CF910C94A81E3196F0CFE1E5F6E0AB
:103DC00081E4808384E5818301900020E9F7CF01BD
:103DD000825596409927FC01EF5AF94F2DE0208338
:103DE00001960C94A81E78942F932FB72F933F938E
:103DF0008F939F93EF93FF932091980530919905AE
:103E000080918F05909190052817390788F0F894D4
:103E10008091C1008F7B8093C10078940000FF9156
:103E2000EF919F918F913F912F912FBF2F911895D7
:103E3000329910C08091980590919905FC01EF5A34
:103E4000F94F2081019690939905809398052093CE
:103E5000C600E5CF8FEF80938602E1CF8F938FB7B7
:103E60008F938091C1008F778093C1007894809167
:103E7000C6000F924F931F9211242F933F93EF93FD
:103E8000FF93AF93BF939F93209194053091950535
:103E90008F3F09F4E8C0EEEFF3E0A901203991E08B
:103EA000390708F0CDC02115310521F48A3009F019
:103EB0004AC02CC09091FE038D3009F59D30F9F079
:103EC0009A30E9F09091F903911119C091E890931B
:103ED0008502439AF8949091C1009F779093C10016
:103EE00090B79D7F90BF789400001092FD031092D0
:103EF000FC0310929205109291051092F90321157E
:103F00003105A1F290819D3089F61DC09091F90391
:103F1000911119C091E890938502439AF894909179
:103F2000C1009F779093C10090B79D7F90BF789418
:103F300000001092FD031092FC0310929205109263
:103F400091051092F9038F01A9014F5F5F4FDF01C7
:103F5000A20FB31F00B601FE5DC02430310508F486
:103F600059C08A3009F056C0BD0161507109EB019A
:103F700098819D3009F04EC061507109EB01988124
:103F80009A3009F447C061507109EB0198819D3066
:103F900009F440C0EF0191819A30E1F590819D30A4
:103FA000C9F560919105709192057093FD0360933E
:103FB000FC0350939205409391059091F9039F5F04
:103FC0009093F9036091A0057091A1057093A305EA
:103FD0006093A20560919E0570919F057093A10565
:103FE0006093A00560919C0570919D0570939F055D
:103FF00060939E056091FC037091FD0370939D0595
:1040000060939C05609191057091920570939B055A
:1040100060939A0590919305992361F023303105BF
:1040200049F4803239F4909100049E3319F49FEFE3
:104030009093FA038C939A01E40FF51F10820FC03E
:1040400030E020E080E8809385021092FD0310921A
:10405000FC0310929205109291051092F90330938F
:104060009505209394051092A4059F91BF91AF915F
:10407000FF91EF913F912F911F904F9100B601FE5C
:1040800008C0F8948091C10080688093C100789442
:1040900000000F908F918FBF8F91189583E08093D0
:1040A000C4001092C500E1ECF0E08081886180835B
:1040B0008BB18C7F8BB95198429843983B98089567
:1040C00099B1892F887093FF0EC010920801109249
:1040D000950510929405519A8BB183608BB93B9AE8
:1040E000439A429A8FEF0895809108018823B9F18D
:1040F00091E0980F90930801913A39F1A8F49F301C
:10410000D9F030F49230D1F09330E9F080E00895A6
:1041100087528430D8F70E94602091E0811101C05D
:1041200090E0892F819508959F3FA0F4953F98F7DF
:10413000983C49F0973D51F75498E8CF54980E9425
:10414000602081110BC0549AE1CF1092840210922A
:104150008302DCCF81E080930801D8CF8FEF0895F0
:10416000FC014217130609F048F4DB01A250BC4FD2
:1041700090E0491305C0942F81E0491380E0089531
:104180002D9184912813F8CF31969F5FF2CF8FB78E
:10419000F8941092FD031092FC0310929205109275
:1041A00091058FBF08952F923F924F925F926F9229
:1041B0007F928F929F92AF92BF92CF92DF92EF92B7
:1041C000FF920F931F93CF93DF93C8E047E0842EB5
:1041D00059E0952E63E0762E78E0672EE5E15E2EBD
:1041E000F2E04F2EADE03A2E222423949FB7F894AC
:1041F0008091F903811128C09FBFC091AF05CC23E6
:1042000001F1C150C093AF05D0E0CB55DA4F8881A2
:10421000809385021882C09185028C2FDF91CF9107
:104220001F910F91FF90EF90DF90CF90BF90AF90D4
:104230009F908F907F906F905F904F903F902F90C6
:10424000089510928502E9CF853008F084E0E82FC8
:10425000F0E0EE0FFF1FE656FA4FC080D1801182CA
:1042600010828150E82FF0E0EE0FFF1FE656FA4F64
:10427000208131818093F9039FBFC216D306A8F530
:104280008091AF058A3010F09092AF0589010C192A
:104290001D0904501109760142E0E40EF11CC90128
:1042A00082509C4FFC013397B0803197A080F6017B
:1042B000E250FC4FD581EBE4BE121BC0FFE4AF120D
:1042C00045C10597FC018081803209F45AC126302E
:1042D000310508F456C1E091AF0581E08E0F80935F
:1042E000AF05F0E0EB55FA4F2082C15009F07ECFC8
:1042F00094CFD734A1F4980146E0B70182EF93E060
:104300000E94B020882359F0E091AF0581E08E0F24
:104310008093AF05F0E0EB55FA4F3082E6CFFFE433
:10432000AF1215C0980145E0B7018CEE93E00E94F2
:10433000B020882361F0E091AF0581E08E0F80937B
:10434000AF05F0E0EB55FA4F44E04083CECF87E471
:10435000B81215C0980147E0B70184EE93E00E94BF
:10436000B020882309F4F5C0E091AF0581E08E0FFD
:104370008093AF05F0E0EB55FA4F4082B6CFE4E40E
:10438000BE12E7C098014CE0B70187ED93E00E94B0
:10439000B020882309F4DDC0E091AF0581E08E0FE5
:1043A0008093AF05F0E0EB55FA4F8CE080839DCF12
:1043B000DD34A1F4980146E0B70189EC93E00E9456
:1043C000B020882309F1E091AF0581E08E0F809342
:1043D000AF05F0E0EB55FA4F508287CFD435A1F40A
:1043E000980146E0B70182EC93E00E94B020882358
:1043F00059F0E091AF0581E08E0F8093AF05F0E0BA
:10440000EB55FA4F608271CFF5E4AF1214C09801FA
:104410004AE0B70187EB93E00E94B020882359F06F
:10442000E091AF0581E08E0F8093AF05F0E0EB5592
:10443000FA4F70825ACF45E4B41214C098014BE091
:10444000B7018BEA93E00E94B020882311F1E0913C
:10445000AF0581E08E0F8093AF05F0E0EB55FA4F8A
:10446000908243CF89E5B81214C0980144E0B701A7
:1044700086EA93E00E94B020882359F0E091AF05CE
:1044800081E08E0F8093AF05F0E0EB55FA4F80820C
:104490002CCFD53411F598014BE0B7018AE993E0B0
:1044A0000E94B020882309F420CF4AE050E070E059
:1044B00060E0C601845F9B4F0E945631709390026A
:1044C00060938F02E091AF0581E08E0F8093AF057E
:1044D000F0E0EB55FA4F45E038CFD33509F005CF82
:1044E00098014BE0B7018EE893E00E94B02088234A
:1044F000C1F04AE050E070E060E0C601845F9B4F8D
:104500000E94563170938E0260938D02E091AF0548
:1045100081E08E0F8093AF05F0E0EB55FA4F86E017
:1045200045CF980146E0B70187E893E00E94B020AC
:10453000882309F4DACEE091AF0581E08E0F8093F5
:10454000AF05F0E0EB55FA4F8EE030CFD73409F4E9
:10455000D2CED93409F02CCF980146E0B70180EDD6
:1045600093E00E94B020882309F44ECFE091AF057C
:1045700081E08E0F8093AF05F0E0EB55FA4F8AE0B3
:1045800015CFD73409F0CECEB6CECF930E94D3202C
:104590008823D9F080918502843021F0833111F095
:1045A000813089F4CFB7F8940E94C720439AF894D9
:1045B0008091C1008F778093C10080B78D7F80BFCD
:1045C00078940000CFBF80918502CF910895AF927B
:1045D000BF92CF92DF92EF92FF920F931F93CF93F0
:1045E000DF936C01B62EA42EF601C081D1818881A3
:1045F00090E00E943732892B39F5FAE0BF9E8001A6
:1046000011240C5D1B4FBA1498F4F801E490F12CBE
:10461000B8016F5F7F4FA701CE010E944832065F4D
:104620001F4F892BB1F4CE0DDF1DF601D183C0835E
:104630008B2DDF91CF911F910F91FF90EF90DF9025
:10464000CF90BF90AF9008952196F601D183C0839B
:10465000CBCFB394D8CFFF920F931F93CF93DF9319
:104660008C01F801C081D181F8808F2D90E00E94EB
:104670003732892BF1F48091CC03F8121FC0998155
:104680008091CD0398131AC09A818091CE0398131C
:1046900015C09B818091CF03981310C02496F80118
:1046A000D183C0838FEFDF91CF911F910F91FF9046
:1046B00008952196F801D183C083D3CF80E0F3CF52
:1046C00044E050E06FE174E00E94483221E0892B21
:1046D00009F020E0822F08950C94E722EF92FF92D8
:1046E0000F931F93CF93DF93EC017B010881198116
:1046F0004AE050E0BC01C8010E944630F7016083E7
:1047000071838283938381E0288139812017310767
:1047100009F480E0DF91CF911F910F91FF90EF900E
:104720000895DF92EF92FF920F931F93CF93DF9341
:104730007C01D62EF701C081D181088110E0C8012B
:104740000E943732892BA1F48D2D90E00E944032D7
:104750000817190791F42196F701D183C0838FEFD1
:10476000DF91CF911F910F91FF90EF90DF9008950F
:104770002196F701D183C083DDCF80E0F1CFDF92B6
:10478000EF92FF920F931F93CF93DF938C01D62E5E
:10479000F801E080F180CE2DDF2D899190E00E941C
:1047A0003732892B89F48D2D90E00E944032982F6A
:1047B000F7018191882361F07F019813F9CFD80127
:1047C000ED93FC938FEF06C0D801CD93DC93E0CF3F
:1047D0009923A9F3DF91CF911F910F91FF90EF9053
:1047E000DF900895CF92DF92EF92FF920F931F9385
:1047F000CF93DF938C01E62ED72EF42EF801C081E3
:10480000D181888190E00E943732892B89F4CE2DA6
:10481000DD2DEF0C6E01EC1210C0F6011082DF915D
:10482000CF911F910F91FF90EF90DF90CF9008955F
:104830002196D801CD93DC93E1CFD801ED91FC9185
:10484000F0808F2D90E00E943732892B31F7F9925A
:10485000FF2019F3D8018D919C91119701968D93AA
:104860009C93D8CF8F929F92AF92BF92CF92DF92BC
:10487000EF92FF920F931F93CF93DF93CDB7DEB7E5
:1048800064970FB6F894DEBF0FBECDBF7C016B01FD
:10489000042FF701A080B180F501808190E00E9493
:1048A0003732892B09F049C010E04501F5018191AB
:1048B0005F01882349F0143138F48032B1F30E944B
:1048C000DD278D3009F040C0512F1A3008F059E033
:1048D000812F193008F489E08950990BA1E0B0E0EC
:1048E000AC0FBD1FA80FB91FC60130E020E001507A
:1048F000110B251718F420173107BCF1F601E50F4D
:10490000F11D1082F6018081882321F0F701808259
:1049100091828FEF64960FB6F894DEBF0FBECDBFC5
:10492000DF91CF911F910F91FF90EF90DF90CF908B
:10493000BF90AF909F908F9008958FEFA81AB80AFC
:10494000F701B182A082A5CFF5013197808190ED6A
:10495000980F9A3008F0A9CFE1E0F0E0EC0FFD1FCE
:10496000E10FF11D80831F5FA0CF4D91FC014193AA
:10497000CF012F5F3F4FBDCF9F92AF92BF92CF929B
:10498000DF92EF92FF920F931F93CF93DF9300D0AC
:1049900000D000D00F92CDB7DEB79F838E837C010D
:1049A00082E3F701AFEEB7E001900D928A95E1F74F
:1049B0005701F50181918F0190E00E943732892BD8
:1049C000E1F5CE0101966C0185015C0184E0982E31
:1049D000900EF80181918F01882349F090E00E94A8
:1049E0004032F60181936F019012F3CF8FEF1D8259
:1049F000882329F16FEF71E0C5010E94E332892B12
:104A0000F1F466E971E087E993E00E940233892BB3
:104A1000B1F010E1812F27960FB6F894DEBF0FBEDC
:104A2000CDBFDF91CF911F910F91FF90EF90DF905D
:104A3000CF90BF90AF909F9008955801BACFCE010C
:104A400006960E942B232E819F81811108C0822F00
:104A50000E946023182F8823E9F21BE0DBCF022F8E
:104A6000192FF80181918F01811110C04AE160E096
:104A7000CE0106960E94E722182F8A3108F043C221
:104A8000E82FF0E0EB5CF94C0C94263090E00E94AB
:104A90004032F80131978083E4CF0F5F1F4F1F83AF
:104AA0000E830E811F81F801808190E00E943732D1
:104AB000892B99F730E020E0C8018E199F098151B8
:104AC000984FFC01E20FF31F40815FEB540F5A3106
:104AD00028F040534A3010F012E09CCF2F5F3F4F38
:104AE0002430310571F7FC0140815181628173816D
:104AF0004093CC035093CD036093CE037093CF03C8
:104B000044E061E070E00E94702913E083CF4EE042
:104B100068EA73E0CE0106960E94322481117ACFB2
:104B20000E811F81F801808190E00E943732892B2D
:104B300069F443E050E06BE174E0C8010E94703218
:104B400018E0892B09F466CF16E064CF0F5F1F4F82
:104B50001F830E83E5CF4EE068EA73E0CE01069630
:104B60000E943224882309F4B7CF85E20E9485276A
:104B7000CCCF4EE068EA73E0CE0106960E94322464
:104B8000882309F4A9CF88E2F1CF47E168E0CE019C
:104B900006960E94E722883071F481E0809300013C
:104BA00061EE70E30E94A0298FEF8093060162EE10
:104BB00070E381E00EC08930C1F481E08093000190
:104BC00061EE70E30E94A0291092060162EE70E38C
:104BD00080E00E94A0291092050166E070E080E06C
:104BE0000E94A0290E941A0790CF863191F481E09B
:104BF0008093000161EE70E30E94A02910920601EB
:104C000062EE70E380E00E94A0298FEF809305019F
:104C100014C0853109F060CF81E08093000161EE1E
:104C200070E30E94A0291FEF1093060162EE70E36B
:104C300081E00E94A0291093050166E070E081E008
:104C4000CFCF47E168E0CE0106960E94E722883088
:104C500031F41092000161EE70E380E0A3CF89305F
:104C600031F41092000161EE70E380E0ABCF863149
:104C700031F41092000161EE70E380E0BDCF853128
:104C800009F02ACF1092000161EE70E380E0C9CFF5
:104C900019E0C0CE0F5F1F4F1F830E830E811F814F
:104CA000F801F0808F2D90E00E943732892B91F728
:104CB000FF2009F411CF81E48093510684E58093AD
:104CC00052061F930F9384E092E09F938F9383E5A6
:104CD00096E09F938F930E9436330E94DE1E8FEFE3
:104CE00080933F028CE291E090933E0280933D02DC
:104CF0000F900F900F900F900F900F9006CF0F5FB7
:104D00001F4F1F830E830E811F81F801808190E069
:104D10000E943732892B99F743E050E067E174E055
:104D2000C8010E947032892B21F4109292021DE07A
:104D300071CE4EE06FEA77E0CE0106960E943224F3
:104D40001CE0882309F466CE8FEF809392021EE068
:104D500061CEB501CE0106960E946E23882309F428
:104D6000BBCE8981482F5A816B817C818A019B014E
:104D700001501109210931090F3916482140310527
:104D800008F0AACEC0900101D0900201E09003018A
:104D9000F0900401409301015093020160930301DC
:104DA000709304016CED70E30E94A0296DED70E337
:104DB000809102010E94A0296EED70E380910301B1
:104DC0000E94A0296FED70E3809104010E94A02948
:104DD0002FE9C21626E8D20621E0E206F104C9F462
:104DE00089819A81AB81BC818F399648A140B105F8
:104DF00081F065E070E08FEF0E94A02910929E0282
:104E00001092EC031092ED031092EE031092EF0358
:104E10005D980E941A071FE0FDCD0F5F1F4F1F8393
:104E20000E830E811F81F801808190E00E9437324D
:104E3000892B99F742E050E064E174E0C8010E94D8
:104E40007032892B21F58FE996E8A1E0B0E08093DC
:104E5000010190930201A0930301B09304016CED52
:104E600070E38FE90E94A0296DED70E3809102014B
:104E70000E94A0296EED70E3809103010E94A02999
:104E80006FED70E3809104010E94A029C2CF43E03E
:104E900050E060E174E0C8010E947032892B09F093
:104EA0001BCE82E090E0A0E0B0E0809301019093FF
:104EB0000201A0930301B09304016CED70E3D2CF23
:104EC00088E198E00FB6F894A895809360000FBE33
:104ED00090936000FFCF8FEF80931F0291E090933B
:104EE0000001809306018093050167E973E08CEA75
:104EF00092E00E94EC3269EF73E080EB95E00E9453
:104F0000693284E733CE11E085CDE1ECF7E030E0A3
:104F100020E09191911105C02F53384FF901808302
:104F200008952F5F3F4F2A30310599F70895E1EC3E
:104F3000F7E030E020E09191981761F0911105C001
:104F40002F53384FF901808308952F5F3F4F2A3048
:104F5000310589F7089590E0E92FF0E0EF53F84F1D
:104F60002081281770F0621760F0292F293028F06F
:104F70001092CA079A3081F70895318131932F5FDB
:104F8000F5CF9F5FF7CFE1ECF7E08181819387E078
:104F9000EA3CF807D1F71092CA070895E1ECF7E070
:104FA0002AE02E0F9191981710F0691720F42E1314
:104FB000F9CF80E008958FEF08958B3259F030F4E7
:104FC000833251F08A3251F08DE0089580538A3057
:104FD000D8F708958AE008958CE008958BE008954D
:104FE000AF92BF92CF92DF92FF920F931F93CF9316
:104FF000DF93182FEB016A0145E050E06FEF70E09E
:10500000C6010E94C6328C2F811B182F219700E009
:10501000823058F4DF91CF911F910F91FF90DF9074
:10502000CF90BF90AF900895092F88810E94DD270F
:10503000F82EF29480EFF822FE0182915F010E9427
:10504000DD278F29113061F4E5018F6010E091E0D8
:10505000900FF601E00FF11D80831111E5CFDACF3B
:1050600022971250F4CFE82FF0E0E85DFA4F8491D8
:105070000895CF93DF939C01EB011882BC0180E07F
:10508000DB016F5F7F4F9C919F3F19F0853009F0E6
:105090004AC0A217B30709F44AC0642F70E090E039
:1050A000880F991F11976817790744F4DB0111974E
:1050B000B7FDDB01B595A795A20FB31FEC918E2F1D
:1050C0008F708F3091F5E295EF70F0E0E85DFA4F68
:1050D00084918883882319F02196119781E0119695
:1050E0001197A217B307D8F0EC91EF70F0E0E85DEC
:1050F000FA4FE491E883EE2311F021968F5F841735
:1051000071F0EC91E295EF70F0E0E85DFA4FE49118
:10511000E9938F5F481719F02A173B0709F71882A0
:10512000DF91CF9108958F5FABCF80E0D8CF80E043
:10513000F7CFFF920F931F93CF93DF9300D000D050
:105140000F92CDB7DEB78B01F42E45E050E0BC01E5
:10515000CE0101960E94552E4F2DB801CE01019629
:105160000E9439280F900F900F900F900F90DF91B1
:10517000CF911F910F91FF9008950F931F93CF939D
:10518000DF93EC018B0188818F3FF1F0CB010E940E
:10519000382E8F3FC9F0C8010E94382E382F307F3B
:1051A0009991292F207F303FA9F0203F99F03213A9
:1051B0000BC08F709F708F3069F09F3059F089134A
:1051C00003C00F5F1F4FE7CF80E0DF91CF911F91AA
:1051D0000F9108958FEFF9CF0F931F93CF93DF9324
:1051E00000D000D00F92CDB7DEB78B01FC0101904B
:1051F0000020E9F73197BF01681B790B680F792F01
:10520000711DAE014F5F5F4F0E94F027B801CE01C4
:1052100001960E94BD280F900F900F900F900F9055
:10522000DF91CF911F910F9108950F931F93CF930B
:105230000E948D2E882381F18091ED079091940238
:10524000892B9091EE07892B39F1C09193020C2F95
:1052500010E08091EB079091EC07800F911F0E9466
:105260005C2DF801E151F84F9081891301C0CF5FA7
:1052700080919402C817A0F48C2F90E0FC01E151BA
:10528000F84F2091EB073091EC076081820F931F5C
:105290000E94E62DC0939302CF911F910F91089524
:1052A0008091ED071092ED07809394022FEE37E086
:1052B000F901882379F39E2F921B981770F0809143
:1052C0002108909122089093EC078093EB0760915E
:1052D000EF070E94E62DC0E0DDCF90A59193EBCFC4
:1052E0000F931F93CF938B01C42F4423B1F050E051
:1052F000BC018FEE97E00E94BD321093EC07009343
:10530000EB0710929302C09394026091EF07C801DB
:10531000CF911F910F910C94E62DCF911F910F917A
:105320000895662361F09093EC078093EB07109249
:105330009302609394026091EF070C94E62D089518
:105340001F93CF93DF93182FEB01CB010E94382ED0
:10535000811791F01093EF07D093EC07C093EB0700
:105360001092930281E080939402612FCE01DF912D
:10537000CF911F910C94E62DDF91CF911F9108954D
:105380000F931F93CF93DF9300D000D0CDB7DEB73C
:105390008C0119821A821B821C820E94382E8983FA
:1053A000C80101960E94382E8A83C80102960E9485
:1053B000382E8B8369817A818B819C810F900F902D
:1053C0000F900F90DF91CF911F910F910895DF9271
:1053D000EF92FF920F931F93CF93DF93DC011D9108
:1053E000141710F01FEF140F862F072FC0E0D12CD9
:1053F00090E0D0E827E030E0C1130CC0C60FD72FF3
:10540000D11D1882DF91CF911F910F91FF90EF90E6
:10541000DF9008954D2D50E0EC91F0E0ED2EF12C51
:10542000E094F094EE21FF2102C0EE0FFF1FDA940A
:10543000E2F7E90FF11DE75BF94F9491E82EF02EAA
:10544000F70191937F01CF5FFC2FF770DF2E89F07A
:10545000ED91ED23F0E0C901841B950B02C0F59599
:10546000E7958A95E2F79E2FD695D0588E2D0F2D71
:10547000C3CF90E0D0E8FACFCF92DF92EF92FF92C5
:105480000F931F93CF93DF93EC01461B570BDC0167
:105490004D933FEF340F90E020E00FE710E087E0FE
:1054A0004FEF50E0231738F188818770D1F0FB016E
:1054B000E20FF11DE081F0E0E75BFA4F24914FE746
:1054C00050E0092E02C0440F551F0A94E2F7E22F64
:1054D000F0E0E423F52302C0F695E7959A95E2F70C
:1054E000ED93CD01DF91CF911F910F91FF90EF9040
:1054F000DF90CF9008956B01C20ED11CF601F080B1
:10550000EF2DF0E0E75BFA4FE4917801092E02C03D
:10551000EE0CFF1C0A94E2F7F0E0EE22FF22092EC7
:1055200002C0F694E7940A94E2F7F601F180EF2DB9
:10553000F0E0E75BFA4FE491F82EF91A6A010F2CBC
:1055400002C0D694C7940A94E2F7EC2101C0EE0F92
:10555000FA94EAF7EE29ED939F5F973011F42F5FED
:1055600090E02F5F9FCFFC01640F752F711D4617D0
:10557000570709F4089590819A3370F49053292FB6
:105580002295207F91819A3348F49053920FDA014B
:105590009D93AD013296EBCF9753F1CF9753F6CF52
:1055A0001F93CF93DF93DC01EA018C91873C50F08D
:1055B000DB011C928FEF888390E080E0DF91CF9138
:1055C0001F91089518828C9190E00196A80FB91F41
:1055D0008C918B7F11F08FEF888311963C911197FE
:1055E000313130F7FD01339612968C91982F9F7EC2
:1055F00041E0913809F040E0813921F48BE2DB0190
:105600008D93BD01562F172F80E010C0908122236B
:1056100011F0929531969F70905D411101C090E319
:10562000A52FB12F9D938F5F5A2F1B2F282F2170ED
:105630008313ECCF680F711DDB011C92211101C097
:1056400031978281882311F08FEF8883CF010396F1
:10565000B5CFFC019081A92FAF708AE092959F7021
:10566000A89F900D1124DB019C939181692F6F708D
:1056700092959F70689F900D1124DA019C939281FE
:10568000492F4F7092959F70489F900D1124D9011A
:105690009C93CF0103960895FC019081A92FAF70D0
:1056A0008AE092959F70A89F900D1124DB019C9336
:1056B0009181692F6F7092959F70689F900D112452
:1056C000DA019C939281492F4F7092959F70489F69
:1056D000900D1124D9019C93CF0104960895CF9386
:1056E000DF93DB012C9161E82B3211F4119661E913
:1056F000FD0101900020E9F73197EA1BFB0BEC015B
:10570000E11105C01992CE01DF91CF910895E88390
:10571000AC014E5F5F4F6983CF0199270196959544
:105720008795D82F742FC52F60E06D1303C0840FA9
:10573000951FEACF2C91205311963C91119733235A
:1057400059F012963295307F232BE72FFC2F2193AF
:105750006F5F7E2FCF2FE9CF1196206FF6CFCF93BB
:10576000DF93DB012C91211106C0FC011192CF01C6
:10577000DF91CF91089561E82B3211F4119661E920
:10578000FD0101900020E9F731979F012A1B3B0B97
:1057900033272F5F3F4F35952795D22F41E0420F9A
:1057A000FC014083AC014E5F5F4F6183742FC52FB6
:1057B00060E0D61304C0CA01820F931FD9CF8C9129
:1057C000805311969C911197992359F012969295B6
:1057D000907F892BE72FFC2F81936F5F7E2FCF2F38
:1057E000E8CF1196806FF6CFEF92FF920F93CF9391
:1057F0007B01C22FBA010E94AF2B21E1FC01208363
:105800001182B70102960E946F2BFC01C0830183B5
:105810002AEA22830396CF910F91FF90EF9008958B
:10582000CF93DF930F92CDB7DEB79C01CB01582FFA
:10583000561B541720F00F90DF91CF910895DC0193
:105840009D91892F807F898382958983E981F0E00A
:10585000E85CFA4F8491F90180839F70E92FF0E0B2
:10586000E85CFA4F8491F90181832E5F3F4FCD01AF
:10587000DECF1092CD0087E08093CC0082E0809351
:10588000C80088E18093C90086E08093CA00239A0B
:1058900024982C9A08959091C80095FFFCCF80938E
:1058A000CE0008958091C80087FFFCCF8091CE0084
:1058B00008958091C800881F8827881F0895CF9376
:1058C000DF93EC018991811103C0DF91CF9108959D
:1058D0000E944B2CF7CFCF93DF9380919D028130B4
:1058E00061F48091C80087FF1BC00E94522C8093F6
:1058F0009C0282E080939D0210C0823089F48091E6
:10590000C80087FF0DC00E94522C90919C020E94FB
:10591000382E0E944B2C10929D02DF91CF9108955A
:1059200080919B02813061F48091C80087FF4DC057
:105930000E94522C80939A0282E080939B02EDCFCA
:10594000823051F48091C80087FF3FC00E94522CE2
:105950008093990283E0F1CF8330B9F58091C8003C
:1059600087FF33C00E94522C20919A029091990295
:10597000682F892F922F0E943A2E80919502909144
:105980009602A0919702B09198020196A11DB11DB7
:105990008093950290939602A0939702B0939802F9
:1059A00010929B020097A140B10508F4B6CF109267
:1059B000950210929602109297021092980289E135
:1059C00092E0DF91CF910C945F2C8091C80087FF0B
:1059D000A4CF0E94522C833509F43FC040F4833495
:1059E00079F0823561F1DF91CF910C944B2C8735A2
:1059F00041F18336C1F08435B1F784E192E0E1CF23
:105A0000C1E0D0E00E94522C682FCE010E943A2EB5
:105A10008FEF93E20197F1F700C000002196C530A7
:105A2000D10581F7CCCFC1E0D0E0CE010E94382E65
:105A30000E944B2C2196C530D105B9F76ECF81E07D
:105A400059CF81E080939B021092950210929602AA
:105A5000109297021092980260CF80910901C3CFF3
:105A600084EA8093BC008091BC0087FFFCCF8091CA
:105A7000B900887F089584E98093BC008091BC00C0
:105A800084FDFCCF08958093BB0084E88093BC0024
:105A90008091BC0087FFFCCF8091B900887F08957A
:105AA00088B1806388B987B18F7C87B981E08093A2
:105AB000B8001092B9000895CF93DF93EC010E94D3
:105AC000302D883029F580EA0E94432D8831F1F489
:105AD0008D2F0E94432D8C2F0E94432D0E94302D2C
