:100000000C9488030C94A5030C94A5030C94A503ED
:100010000C94A5030C94A5030C94A5030C94A503C0
:100020000C94A5030C94A5030C94A5030C94A503B0
:100030000C94A5030C94A5030C9447040C94A503FD
:100040000C94A5030C94A5030C9498200C94A50380
:100050000C945D200C94A5030C94A5030C94A503AB
:100060000C94A5030C94A5030C94A5030C94A50370
:100070000C94A5030C94A5030C94A5030C94A50360
:100080000C94A5030C94A5030C94A5030C94A50350
:100090000C94A5030C94A5030C94A5030C94A50340
:1000A0000C94A5030C94A5030C94A5030C94A50330
:1000B0000C94A5033A00206F3A200057796B7279AF
:1000C000746F20737465726F77616E6965207A3A18
:1000D0002000FF4142434400000043444547484953
:1000E0004A352B6370696E3F00000000000000007D
:1000F0002B636E6D693D322C312C322C31002B6D0F
:100100006F72696E673D3100000000002B636C69FF
:10011000703D31000000000000002B646465743DF8
:10012000312C31302C3100002B63616C6D3D31007E
:100130000000000000002B6372736C3D3100000072
:10014000000000002B637573643D31000000000067
:1001500000002B637062773D32362C223122000082
:100160002B636C74733D30000000000000002B63B3
:100170006D69633D302C3135002B636D6764613DE3
:1001800036002B6370696E3D223139373622002BE1
:100190006966633D322C32002B63706D733D2253D0
:1001A0004D222C22534D222C22534D22002B6364CE
:1001B000736362002B63636C6B3F002B636F707320
:1001C0003F002B637062723D3236002B63726567AD
:1001D0003F002B637371002B7674733D3100610017
:1001E00068002B434D54493A002B636D67643D0012
:1001F0002B636D67723D002B636D67733D002B436E
:100200005553443A002B434D54493A002B44544D26
:10021000463A002B434C49503A003E002B434D4791
:10022000523A002B434F50533A002B435245473A22
:10023000002B4353513A002B4350494E3A2052452C
:10024000414459002B43434C4B3A00206F3A200065
:1002500057796B7279746F20737465726F77616E02
:100260006965207A3A20004E6F74696679204F4E96
:100270003A20004E6F74696679204F4646004E6FF3
:1002800074696679204F4646004E6F74696679201E
:100290004F4E3A2000204D3A0020523A0020533A67
:1002A0000020433A00553A002B534D53200044544C
:1002B0004D4600434C495000505542200050524991
:1002C0005620004442472000303031414520426CE6
:1002D00061642050616D696563690044454255471A
:1002E000204552523A2042414420434F4445007732
:1002F00077772E736F6E66792E706C00576C616322
:100300007A79204F5554206E613A200057796C61FC
:10031000637A79204F5554207A613A200057796CDE
:1003200061637A6F6E792028426973746162696CC7
:100330006E79290A00576C61637A6F6E79202842C2
:100340006973746162696C6E79290A00437A61731A
:10035000204F55543A20002044544D460020534D20
:10036000530020534D530020434C495000537465B3
:10037000726F77616E69653A20005075626C6963CF
:100380007A6E790A005072797761746E790A005436
:100390007279623A2000557A79746B6F776E69636F
:1003A000792000557A79746B6F776E6963793A209A
:1003B00000506F7A696F6D2047534D3A20004143DA
:1003C0002D323030302D44544D462D460A002B43FB
:1003D0005553443A002B434D53204552524F523A05
:1003E000002B434D45204552524F523A004255533F
:1003F00059004E4F204449414C544F4E45004E4FFA
:100400002043415252494552002B434D54493A0032
:100410002B44544D463A002B434C49503A004D4F23
:1004200020434F4E4E4543544544004D4F205249C2
:100430004E47004552524F52002B434D47533A000E
:1004400054727962207365727769736F777920616E
:100450006B7479776E79004F4646004F4E004F46D9
:100460004600414C4C00433344340004434F444560
:1004700000000000000341444400000000000003AD
:1004800044454C0000000000000458585858000033
:10049000000000065245504F5254000000045553CE
:1004A00045520000000000044F50454E000000007F
:1004B0000005434C4F53450000000004434C495095
:1004C00000000000000444544D46000000000003FA
:1004D0005345540000000000000454494D450000FD
:1004E00000000006534B52594241000000054445AC
:1004F0004255470000000003535542000000000031
:1005000000054D594E554D0000000004555353440D
:10051000000000000003434F4E00000000000002F6
:100520004F4E0000000000000005544F474C4500AE
:100530000000000352535400000000000008534D17
:100540005320434C49500003534D5300000000001A
:1005500000045354414E0000000000045445434839
:100560000000000000035359530000000000003059
:100570003132333435363738392B2A2321210030B4
:1005800031323334353637383941424344454600F9
:100590003F3F3F3F3F3F3F3F3F3F0A3F3F0D3F3FD2
:1005A0003F3F3F3F3F3F3F3F3F3F3F3F3F3F3F3F5B
:1005B000202122230225262728292A2B2C2D2E2FE5
:1005C000303132333435363738393A3B3C3D3E3FB3
:1005D000004142434445464748494A4B4C4D4E4FE3
:1005E000505152535455565758595A3F3F3F3F1157
:1005F0003F6162636465666768696A6B6C6D6E6FA4
:10060000707172737475767778797A3F3F3F3F3FA8
:100610003F3F3F3F3F3F3F3F3F3F3F3F3F3F3F3FEA
:100620003F3F3F3F3F3F3F3F3F3F3F3F3F3F3F3FDA
:100630003F403F0124033F5F3F3F3F3F3F3F3F3F3E
:100640003F3F3F3F3F3F3F3F3F3F3F3F3F3F3F6099
:100650003F3F3F3F5B0E1C093F1F3F3F3F3F3F3F38
:100660003F5D3F3F3F3F5C3F0B3F3F3F5E3F3F1E95
:100670007F3F3F3F7B0F1D3F04053F3F073F3F3F0D
:100680003F7D083F3F3F7C3F0C063F3F7E3F3F3F63
:1006900040A324A5E8E9F9ECF2C70AD8F80DC5E5AE
:1006A0003F5F3F3F3F3F3F3F3F3F3F3FC6E6DFC9E2
:1006B00020212223A425262728292A2B2C2D2E2F42
:1006C000303132333435363738393A3B3C3D3E3FB2
:1006D000A14142434445464748494A4B4C4D4E4F41
:1006E000505152535455565758595AC4D6D1DCA775
:1006F000BF6162636465666768696A6B6C6D6E6F23
:10070000707172737475767778797AE4F6F1FCE03B
:1007100011241FBECFEFD8E0DEBFCDBF12E0A0E0B6
:10072000B1E0E6EDFFE602C005900D92AC32B107F4
:10073000D9F728E0ACE2B2E001C01D92A333B207C2
:10074000E1F70E941C300C94BE370C940000CF934C
:10075000DF930F92CDB7DEB7CE018253984097FD5D
:100760000BC020910001309101018217930720F402
:1007700090930101809300010F90DF91CF91089534
:1007800010925402109253021092520208958091D6
:100790006C0295EB980F8C5E943108F083E30C9417
:1007A000242980918702909188028F3F980729F031
:1007B000019690938802809387028AE080933E029C
:1007C00010923D021092D9030E94C00383E30C945F
:1007D0002429CF93DF93D0E0C0E06FEFCE010E94D9
:1007E000732F0E94902F8823E1F3CE018F709927F9
:1007F000892B09F4A8952196CD3E84E3D80769F7A3
:10080000DF91CF910895BC018CE094E00C942734E3
:100810008FEF9FE80197F1F700C000008FEF9FE88E
:100820000197F1F700C000008FEF9FE80197F1F703
:1008300000C000008FEF9FE80197F1F700C00000B3
:100840008FEF9FE80197F1F700C00000A895089589
:10085000809181028F5F843618F48093810208951D
:10086000109281028091800291E0811190E090933A
:100870008002811102C040980895409A08958091A5
:10088000F003807F11F4409A089540980895789479
:100890000F920FB60F921F9211242F938F939F9355
:1008A000EF93FF93809135028F5F80933502823101
:1008B00028F0109235028FEF809337024B9B57C080
:1008C00000B601FC16C080919302811112C01092F3
:1008D000A3051092A2051092B20580B7826080BF76
:1008E000F8948091C10080688093C10078940000E2
:1008F000439832992FC0F8948091C10086FF29C097
:100900008091C1008F7B8093C10078948091940284
:100910008823C9F080919202811104C080916C02F9
:100920008D3289F4109294028091A6059091A705CA
:10093000FC01E15AF94F208101969093A70580931D
:10094000A6052093C600F8948091C100806480932E
:10095000C10078948FEF80933802FF91EF919F91BF
:100960008F912F911F900F900FBE0F901895439A63
:10097000F8948091C1008F738093C10080B78D7F00
:1009800080BF78940000E6CF0F931F93CF93DF933F
:100990008C01DC01CD91DC914FE050E06EEB73E017
:1009A000CE010E94E63361EB73E0CE010F960E9408
:1009B000FA3380910B01803210F590913402992323
:1009C000F1F06B96B4E68B9FC00111246FE170E0EB
:1009D0000E948131CB014AE0BE010E94B8340990E7
:1009E0000020E9F7FE01319785E281931082D8015A
:1009F000ED93FC93DF91CF911F910F9108958DE2BC
:100A00008B8F8C8FFE017E968D8FF0CF8F929F9271
:100A1000AF92BF92CF92DF92EF92FF920F931F930C
:100A2000CF93DF938C01FC01C081D18163EA73E035
:100A3000CE010E94FA3309900020E9F7219788E05F
:100A4000882E912CD12CC12CF12CE12CB12CA12C75
:100A5000C6018F719927892B21F4C114D10409F0A3
:100A6000A895C4010E94C52F8F3F91F1FFEFAF1AE7
:100A7000BF0AEFEFCE1ADE0AF5E08F0E911C84EC70
:100A8000C81689E0D80621F74AE0BE01C5010E94D8
:100A9000B83409900020E9F721978FE289934AE062
:100AA000BE01C7010E94B83409900020E9F72197E0
:100AB000F801D183C083DF91CF911F910F91FF90F7
:100AC000EF90DF90CF90BF90AF909F908F90089560
:100AD0008FEFE81AF80ACDCFCF92DF92EF92FF9214
:100AE0000F931F93CF93DF938C01FC01C081D181C1
:100AF0004CE050E066E973E0CE010E94E6332C96AC
:100B000088E0E82EF12CD12CC12CC7010E94C52F02
:100B10008F3F59F1C394F5E0EF0EF11C8CEDE81610
:100B200080E3F80691F74AE0BE018C2D90E00E9428
:100B3000B83409900020E9F721978FE289934AE0C1
:100B4000BE018D2D90E00E94B83409900020E9F795
:100B50002197F801D183C083DF91CF911F910F912D
:100B6000FF90EF90DF90CF900895D394D4CFAF92C1
:100B7000BF92CF92DF92EF92FF920F931F93CF938A
:100B8000DF9300D0CDB7DEB7A8958EEB95E09A83C2
:100B90008983CE0101960E94C404E981FA81CF01C4
:100BA00001969A8389831AE01083E981FA81108281
:100BB000CE0101960E940605E981FA81CF010196D6
:100BC0009A8389831083E981FA8110826FE873E048
:100BD00089819A810E94FA3389819A8106969A8343
:100BE00089832091020165E873E0222311F06AE70E
:100BF00073E00E94FA3389819A81FC010190002000
:100C0000E9F7CF0101979A8389836DE673E00E942B
:100C1000FA3389819A810C969A83898320910801FD
:100C2000222309F46CC067E673E00E94FA338981DD
:100C30009A81FC0101900020E9F7CF0101979A8386
:100C400089832091070162E673E0211160C0E98188
:100C5000FA81CF0101969A8389838AE08083E981B2
:100C6000FA81108209811A81F80101900020E9F7C8
:100C70008F01015011091A830983C0900301D0909C
:100C80000401E0900501F0900601FFE9CF16F6E8B7
:100C9000DF06F1E0EF06F10409F046C06CE473E012
:100CA000C8010E94FA3389819A810A969A838983BE
:100CB0002091AC0265E373E0211102C06DE173E0A5
:100CC0000E94FA3389819A81FC0101900020E9F7A2
:100CD000CF0101979A8389836FEE72E089819A81AF
:100CE0000E94FA330F900F90DF91CF911F910F91D7
:100CF000FF90EF90DF90CF90BF90AF90089520913C
:100D000007016DE573E0211102C067E573E00E9401
:100D1000FA3389819A81FC0101900020E9F7CF0123
:100D200001979A83898393CF8091AC026CEF72E034
:100D3000882391F06091FA037091FB038091FC038A
:100D40009091FD032AE030E040E050E00E949531B0
:100D500069017A016CE073E0C8010E94FA33E9810D
:100D6000FA8101900020E9F7CF0101975C019A8395
:100D70008983C701B60120E13EE040E050E00E94D7
:100D80009531CB016CE370E00E946D31F62E082F97
:100D90001AE0822F612F0E946131E92E4AE0B501ED
:100DA00090E00E94B83469817A81FB0101900020B3
:100DB000E9F7BF01615071097A8369834AE08E2D9A
:100DC00090E00E94B834E981FA8101900020E9F7AF
:100DD000DF011197FA83E98388E68C93E981FA8130
:100DE000CF0101969A8389838AE3E82EE0822981E4
:100DF0003A818F2D612F0E946131F92E4AE0B901AD
:100E000090E00E94B83469817A81FB010190002052
:100E1000E9F7BF01615071097A8369834AE08F2D38
:100E200090E00E94B834E981FA8101900020E9F74E
:100E3000DF011197FA83E9838DE68C93E981FA81CA
:100E4000CF0101969A838983E08229813A81802F9C
:100E5000612F0E946131092F4AE0B90190E00E94A0
:100E6000B83469817A81FB0101900020E9F7BF0164
:100E7000615071097A8369834AE0802F90E00E9473
:100E8000B834E981FA8101900020E9F7DF01119778
:100E9000FA83E98383E78C93E981FA81CF01019694
:100EA0009A8389831083E981FA81108215CF109289
:100EB000AC021092FA031092FB031092FC03109202
:100EC000FD035D9808958091450290914602892B1B
:100ED000A1F58AE090E0909346028093450220912C
:100EE00003013091040140910501509106012F3911
:100EF00086E8380781E04807510581F481E0909148
:100F0000AC02911180E08093AC021092FA0310922F
:100F1000FB031092FC031092FD0308958FEF809362
:100F2000AC02AAE0B0E00E94BD316093FA03709376
:100F3000FB038093FC039093FD0308950895AF9203
:100F4000BF92CF92DF92EF92FF920F931F93CF93B6
:100F5000DF93CDB7DEB766970FB6F894DEBF0FBE4E
:100F6000CDBF0E94A7031092BC07A8958FEF809376
:100F7000540210925302109252028EE997E00E949E
:100F80004926182F80914E02811134C0809195021C
:100F90001F928F93809196021F928F938091970258
:100FA0001F928F9388E191E09F938F938CE091E063
:100FB0009F938F930E94D234809195021F928F93BA
:100FC000809196021F928F93809197021F928F9328
:100FD00087E291E09F938F9389ED97E09F938F93A2
:100FE0000E94D2348FE90E9412290FB6F894DEBF16
:100FF0000FBECDBF10924E0280912F028111109230
:101000002F028CEF810F8230D8F480918F028C30C8
:10101000B8F00E94C7030E94D1030E94C0036696E5
:101020000FB6F894DEBF0FBECDBFDF91CF911F91F9
:101030000F91FF90EF90DF90CF90BF90AF90089509
:1010400080916302882311F0193019F7EFECF7E073
:1010500020E090E08191882329F02F5F845782302F
:1010600008F49F5F87E0E93DF807A1F7233208F411
:10107000F1C0193071F665EA73E08AEB92E00E94E4
:101080007D34CE01825398407C010E94A70308E082
:1010900010E0D12CC12CC8010E94C52F8F3F19F040
:1010A0009FEFC91AD90A0B5F1F4F0C3DE0E31E07E3
:1010B00091F78091DE038823F1F06EED73E0FB0180
:1010C00001900020E9F7BF01615071094DEF57E031
:1010D0008EED93E00E947D2908E010E0B8018DEFCD
:1010E00097E00E944A2A81114DC10B5F1F4F0C3DB2
:1010F000F0E31F0799F7A12C8091A5038823F1F055
:1011000065EA73E0FB0101900020E9F7BF0161503F
:1011100071094DEF57E085EA93E00E947D2908E0D0
:1011200010E0B8018DEF97E00E944A2A81112DC18D
:101130000B5F1F4F0C3DF0E31F0799F7B12C63ECD9
:1011400072E08EEB95E00E94FA338091020168EB29
:1011500072E0811102C06DEB72E082EC95E00E94BA
:10116000FA3302EC15E0F80101900020E9F78F0155
:1011700001501109809108016EEA72E0882311F094
:1011800063EB72E0C8010E94FA33F801019000207D
:10119000E9F78F010150110980910701882309F4B3
:1011A000F7C068EA72E0C8010E94FA330B5F1F4F74
:1011B00065EA72E0C8010E94FA330E5F1F4F4AE0F1
:1011C000B801C6010E94B834F80101900020E9F787
:1011D0008F010150110961EA72E0C8010E94FA33DF
:1011E00080E3A11081E3F80183836DE972E0C80117
:1011F00004960E94FA3380E3B11081E3F8018783FB
:1012000069E972E0C80108960E94FA33055F1F4F32
:101210004AE0B801C7010E94AD34F80101900020F6
:10122000E9F78F010150110965E972E0C8010E94D8
:10123000FA330D5F1F4F4AE0B80180910001909191
:1012400001010E94B834F80101900020E9F73197BC
:10125000108228C0963008F00CCF113108F0DDCE96
:10126000E12FF0E0E054F84C0C94B7316AE471E0FF
:101270008EE997E00E949334892B41F460E571E098
:101280008EE997E00E949334892BB9F065EA73E008
:101290008AEB92E00E947D346BED72E08EEB95E07C
:1012A0000E94FA3384E70E94122982E080933E0272
:1012B00010923D021092D903B0CE8091070188238D
:1012C00009F4ABCE80910201813009F165EA73E047
:1012D000FB0101900020E9F7BF0161507109AE01E7
:1012E0004F5F5F4F85EA93E00E947D2908E010E0A0
:1012F000B801CE0101960E944A2A811108C00B5FF5
:101300001F4F0C3DF0E31F0799F781E0CFCF80918D
:101310002E028111FACF65EA73E08EED93E00E9410
:101320007D340E946307F1CF80912D02811115C099
:1013300080912E02882389F068EC72E08EEB95E0B4
:101340000E94FA3365EA73E08AEB92E00E947D34F2
:1013500084E70E94122984E1A9CF80918F028F5FD8
:1013600080938F0282EC91E090938E0280938D02A5
:1013700065EA73E08AEB92E00E947D34A8950E94B2
:10138000B70590CFAA24AA94B7CEBB24BA94D7CEDF
:1013900080E2F80181938F010BCF80918F028F5FE4
:1013A00080938F0282EC91E090938E0280938D0265
:1013B00065EA73E08AEB92E00E947D3466EB73E0AD
:1013C000FB0101900020E9F7BF0161507109AE01F6
:1013D0004E5E5F4F86EB93E00E947D2908E010E0AF
:1013E000B801CE0142960E944A2AF82E81113CC0D3
:1013F0000B5F1F4F0C3DF0E31F0791F741E1BE016A
:101400006F5F7F4FCE0142960E94C629BE016F5F7B
:101410007F4F8EEB95E00E947D3466E571E08EEBA8
:1014200095E00E945E3469E571E0F11002C06CE560
:1014300071E08EEB95E00E945E3484E70E941229F1
:1014400082E080933E0210923D021092D903809177
:10145000FB079091A202892B9091FC07892B09F040
:10146000DCCD0E941A30D9CDFF24FA94C7CF65EAAB
:1014700073E08AEB92E00E947D346BE771E08EEBC3
:1014800095E00E947D340ECF80918F028F5F809314
:101490008F0282EC91E090938E0280938D0265EA38
:1014A00073E08AEB92E00E947D341092A4031092C4
:1014B000A3038AE2F8CE65EA73E08AEB92E00E9429
:1014C0007D341092A4031092A30389E2ECCE63E270
:1014D00082E00E945B298111A0CD89E180933E02C8
:1014E00010923D021092D9030E94E90383E00E940A
:1014F000122993CD65EA73E08AEB92E00E947D3475
:101500008091A002882331F08091BD0769E872E0E4
:10151000811114C06EE772E0C1CE65EA73E08AEB18
:1015200092E00E947D3463E772E0B8CE65EA73E032
:101530008AEB92E00E947D3467E672E08EEB95E0E4
:101540000E94FA336DEB77E08EEB95E00E945E34FB
:10155000A9CE64EA71E085EA93E00E949334892B76
:1015600009F454C0409147025091480260914902E9
:1015700070914A0240348DE0580783E06807710596
:1015800008F040C080E49DE0A3E0B0E0841B950B30
:10159000A60BB70BBF93AF939F938F931F9283E0DC
:1015A0008F938DE08F9380E48F937F936F935F93FE
:1015B0004F931F9285E18F931F9286E08F931F9226
:1015C0008DE18F9381EB91E09F938F938EEB95E06C
:1015D0009F938F930E94D23465EA73E08AEB92E086
:1015E0000E947D3484E70E94122982E080933E02AB
:1015F00010923D021092D9030FB6F894DEBF0FBED1
:10160000CDBF0BCD80E090E0DC01C4CF85E04ECEB5
:1016100083E04CCE80917F029091F90390FF06C049
:10162000883C88F48F5F80937F020895883C60F047
:1016300063E282E00E945B29811103C083E00E9483
:10164000122910927F0208958233D8F363E282E078
:101650000E945B298111F5CF82E0F1CFCF93DF9318
:1016600080912E02882321F080912D02882389F118
:101670008091080181112FC080910701811129C03B
:1016800080910201813021F48FEFDF91CF91089595
:101690008091DE038823E9F06EED73E0FB01019099
:1016A0000020E9F7BF01615071094DEF57E08EED61
:1016B00093E00E947D29C8E0D0E0BE018DEF97E065
:1016C0000E944A2A8111E0CF2596CC3DF0E3DF0746
:1016D000A1F780E0DACF809102018130A9F28091F8
:1016E000DE038823B1F36EED73E0FB01019000206F
:1016F000E9F7BF01615071094DEF57E08EED93E0BE
:101700000E947D29C8E0D0E0BE018DEF97E00E94E5
:101710004A2A8111B9CF2596CC3DF0E3DF07A1F726
:10172000D8CF8CE380936E0210926702109266020B
:1017300010926002109261021092550280918C0208
:10174000882309F456C08091BD07882309F44FC04F
:101750006DEB77E08AEB92E00E947D3460E572E009
:101760008EEB95E00E94FA336EED73E08EEB95E020
:101770000E945E346BE472E08EEB95E00E94EF33E2
:101780008EEB95E0FC0101900020E9F7CF018F5B23
:101790009540FC01E254FA4F90910C019083E1E0F6
:1017A000E80FF0E0E254FA4F90910D019083E2E0EF
:1017B000E80FF0E0E254FA4F9AE39083E3E0E80F99
:1017C000F0E0E254FA4F90910F019083E4E0E80FCB
:1017D000F0E0E254FA4F9091100190838B5FE82F74
:1017E000F0E0E254FA4F108284E70E94122910922E
:1017F0008C021092DE0308958CE380936E021092A7
:101800002C02089510920904109267021092660249
:1018100010926B0210926A0210926C021092A10553
:101820008CE380936E021092630208950E94020C72
:1018300010926B0210926A0210926C021092BD0517
:101840001092D7031092A10510920804109268021A
:1018500010922C021092640208950E94160C86E9E0
:1018600080930A01109292021092910210925C02EF
:1018700010925B021092AF0210925A02109259021B
:10188000109255021092690283E680930B0162E781
:101890008FE50E9438296FE38BE20E94382969E4C2
:1018A00080E40E94382966E784E70E943829109274
:1018B00034020895809193028D3051F410926202A7
:1018C00010922C021092630286E480936E020895B7
:1018D00080919302863059F5209162022F5F209308
:1018E000620280919B0290919C02853032E09307C6
:1018F00061F08A3331E0930741F0833032E093079F
:1019000021F080519240029770F48CE380936E0234
:1019100080916302223080F11092620210922C02B8
:101920001092630208958CE380936E02F5CF80914C
:101930009302843021F58CE380936E021092A1050E
:1019400080910E048E3331F48091A2059091A3050D
:101950000A9720F080916302811107C01092620201
:1019600010922C020E942D0CDBCF909162029F5F9F
:1019700090936202923080F60E941229D1CF80911A
:1019800093028530B9F480919D0290919E028A3035
:10199000910539F09C012D7F2D30310511F04E97C6
:1019A00069F4109262028CE380936E0210922C0212
:1019B0000C942D0C809193028091930208950F93C3
:1019C0001F93CF93DF93D0919302C0916C02CF33DA
:1019D00009F4C7C008F070C0C63309F429C238F54D
:1019E000C03309F4C8C288F4CD3209F4B4C0CF3290
:1019F00009F437C110926B0210926A0210926C02C5
:101A0000DF91CF911F910F910895C33309F44DC118
:101A1000C53381F7D13009F4B5C28091D8038F5F07
:101A20008093D803833008F0ADC28C2F7BC1CA33BA
:101A300009F49FC188F4C73309F402C2C833D1F650
:101A400088E3D13009F0F6C081E00E94910B10923A
:101A5000680210920904CECFCC3309F467C108F4B0
:101A60009CC1CE3339F6D13029F68AE292E00E9449
:101A70000304FC01892B09F4BDCF27812C3209F026
:101A80006CC1379680818C3229F081818C3209F0CB
:101A900066C131964AE050E070E060E0CF01019607
:101AA0000E94D731662329F08DEF860F823008F02F
:101AB00058C10E942D0C9ECFCB3458F5C73408F086
:101AC000A9CFC23409F4A6CFE8F4C03409F494C015
:101AD000C13409F08FCF80E3D13009F4ABC0D630E8
:101AE00009F002C180919B0290919C028A3321E00F
:101AF000920721F08530924009F07CCF84E18093F9
:101B00006E02D5C0C33409F4F1C0C53409F482CFE4
:101B100071CFC33790F4CF3508F4C2C1D63009F085
:101B200000C280919B0290919C028134914009F403
:101B3000FBC18C2F0E941229FCC1C73709F4FBC1DD
:101B4000CE3909F057CF8AE192E00E940304892B35
:101B500009F0AFCF5FCF8EE20E9412291092560299
:101B600049CFD13009F046CF84E492E00E940304CB
:101B7000009709F43FCF62E270E00E946934009759
:101B800009F438CFEC01219662E270E0CE010E94A8
:101B900069348C01892B09F42DCF6CE270E0CE0101
:101BA0000E946934009709F425CFEC012196C017F3
:101BB000D10708F01FCF6AE370E0CE010E946934BC
:101BC000009709F417CF8017910708F013CFFE0193
:101BD00001900020E9F73197EC1BFD0B389708F4D2
:101BE00009CF88E0FE01ACE0B1E001900D928A954A
:101BF000E1F710921401FECED13099F487E392E020
:101C00000E940304892B59F08FEF80939102109268
:101C10009F0283E30E94122910927E02EBCE8FE294
:101C2000F9CFD53051F480919D0290919E020E978C
:101C300031F480E40E941229DDCED43021F080916D
:101C400093028038B1F780917E028F5F80937E028D
:101C5000843118F00E942D0CDFCF84E180936E0256
:101C6000E8CFD13061F48FEF8093910210929F0200
:101C700083E30E94122982E380936E02BBCED530AB
:101C800079F480919D0290919E028031910521F41A
:101C90008FEF80939F02AECE0E9721F48FE2CACFD2
:101CA000D430E1F380919302F9CFD13011F481E483
:101CB000C1CFD63089F480919B0290919C028A33E7
:101CC00021E0920721F08530924009F093CE8CE319
:101CD00080936E0283E3AECFD430E1F38091930220
:101CE000803809F087CEF6CF8AE009CFD13049F0AD
:101CF000D53081F480919D0290919E0203970297C6
:101D000048F4809169020E9412291092690210928F
:101D1000D8030AC08091D8038F5F8093D8038330A3
:101D200018F483E40E94122982E0A6CFD13089F40E
:101D300081E392E00E940304009709F45BCE4AE03D
:101D400050E070E060E006960E94D73160930B018E
:101D500051CE83E680930B014DCE389693CE3296CA
:101D600099CE6B7F613009F045CE8FEF80933402BE
:101D700041CED13049F0D53051F480919D029091FF
:101D80009E024597029718F410925C0233CE809120
:101D90005C028F5F80935C022DCED13009F042C08F
:101DA00046E050E063E272E08EE094E00E94193475
:101DB000892BC1F583E292E00E9403046CE270E09B
:101DC0000E946934009771F16CE270E00E946934FE
:101DD000009741F162E270E00E946934009711F1CE
:101DE0008C010F5F1F4F62E270E0C8010E946934EE
:101DF0000097C1F008171907A9F0801B910B8C30D0
:101E0000910514F08BE090E0EC01DD27AE01B80104
:101E10008FEA92E00E944E34C155DD4F1882109235
:101E20005B02E8CD80915B028F5F80935B02E2CD25
:101E3000D63009F479CF86E3D13009F475CF72CF6B
:101E4000D13021F0809193028C30A1F48FEF8093F8
:101E500068021092D803809108018111CBCD8CE2E9
:101E600091E0909344028093430284E180936E0258
:101E700086E4E0CED43021F080919302803849F49A
:101E80008091D8038F5F8093D803833010F487E369
:101E9000D1CED33011F4109268021092D803AACD9B
:101EA000D130A9F58CE192E00E9403046AE070E071
:101EB0000E946934009741F1EC0121966DE070E0D9
:101EC000CE010E9469340097F9F08C1B9D0B97FDA1
:101ED000019695958795893CA8F4809365024BED12
:101EE00052E060916502CE010E94402C83E70E947F
:101EF000122980916C028C5E0E9412298FEF8093D0
:101F0000640278CD88ECE9CF1092640273CDD630AC
:101F100021F0109264028CE3AFCE8C2F0E94122924
:101F2000F8CFD43009F405CE80919302803809F4BB
:101F300000CE89E1A1CED43029F08091930280387F
:101F400009F0ABCF109209048091D8038F5F809382
:101F5000D803833010F487E76DCE1092D80380E069
:101F60000E94910B1092680210920904109267026D
:101F7000109266023FCDD13029F080E30E941229F1
:101F800084E17ACE809169020E94122980916902CF
:101F90008B54843108F0B9CE10926402B6CE0F9300
:101FA0001F93CF93DF9380919302809193028038A7
:101FB00021F080916D02882381F080E88093930264
:101FC0000E94DF0C82E380936E028FEF80936D029C
:101FD000DF91CF911F910F910895809193028138E5
:101FE00029F520919D0530919E058091A205909143
:101FF000A3052817390761F440919D0550919E056E
:102000006FE576E08CE094E00E944134892B01F387
:102010008091A1058111DCCF80E8809393028FEF3E
:1020200080936D0282E380936E02D2CF80919302FF
:102030008A3009F044C01092DE0383E192E00E94EE
:10204000030462E270E00E946934009739F18C0168
:102050000F5F1F4F62E270E0C8010E946934009771
:10206000E9F0EC01C01BD10BC031C0F4DD27AE019B
:10207000B8018EED93E00E944E34C252DC4F1882BC
:1020800080915B02811110925B0280910B01882389
:1020900011F0833619F480E180930B0189E30E94EB
:1020A000242980916C028B54843110F410926402C4
:1020B00010926B0210926A0210926C0289CF80918A
:1020C0009302833089F480E00E94910B10926802A1
:1020D00010920904109267021092660280916C02BD
:1020E000873709F075CFE4CF80919302823039F5BC
:1020F00080916C028737D1F40E94DF0C80916C02D2
:102100008737A1F48091600281110BC08AE580932A
:1021100061028FEF809309041092670210926602A9
:1021200057CF8093610210926002F3CF1092DE03CA
:1021300089E3DF91CF911F910F910C9424298CE0BA
:1021400092E00E940304009799F0FC013796819178
:102150008032E9F390910801911107C0813329F48D
:102160000E9463078BE08093D9031092930230CFD3
:10217000809193028C3071F480910801882309F4D6
:1021800027CF1092680288E3DF91CF911F910F91C2
:102190000C94122980919302893061F480916C0231
:1021A000873711F40E94DF0C80E00E94910B10929F
:1021B0000904B2CF80919302873081F3809193021A
:1021C000883029F585E092E00E9403046CE270E01B
:1021D0000E9469340097A1F04AE050E070E060E0AE
:1021E00001960E94E7329B012150310924313105CB
:1021F00038F48AE4860F0E94122981E080936E02EF
:1022000080916C028B54843108F0E2CE4FCF8091E4
:1022100093028E3009F04CC084E180936E0280916D
:102220006C028B54843140F41092640210926B0261
:1022300010926A0210926C028EEF91E00E940304E9
:1022400062E270E00E946934009709F4C1CE8C010B
:102250000F5F1F4F62E270E0C8010E94693400976F
:1022600009F4B6CE20914D02222309F4B1CEEC013F
:10227000C01BD10BC13AD10510F0C0EAD0E0AE01CD
:10228000B8018EEB95E00E948434C254DA4F188274
:1022900065EA73E08AEB92E00E947D3484E70E9455
:1022A000122910924D0210924C0210924B0290CEC5
:1022B0008091630281110E945A0C8091A205909135
:1022C000A305892B09F484CE80919302882309F415
:1022D0007FCEDF91CF911F910F910C94DF0CCF93A4
:1022E000C82FC901C11106C0862F0E9412298C2F48
:1022F000CF91089510926B0210926A0260936C0263
:10230000409369020E942B20CFEFF1CF0F93CF9320
:10231000DF939FEF9093A1051092080481114BC0A9
:1023200085E080933E0210923D021092D90384E72B
:10233000809363029093DB024AE06DEF77E08BEDD0
:1023400092E00E94C62900E020E04DEF57E06AEBE2
:1023500072E08BED92E00E94812D4EEB55E0FA0188
:1023600001900020E9F7AF01415051096EEB75E093
:102370000E94C92B8B5D924080936502C0916502DB
:10238000C1508091DB02C81B46E050E067EF71E06E
:1023900081E696E00E94E6334AE067E676E08C2F1D
:1023A00090E00E94B8348AEF80930901DF91CF91C9
:1023B0000F910C94482085E080933E0210923D02DC
:1023C0001092D90385E7809363020091BE05909334
:1023D000DB024AE06DEF77E08BED92E00E94C629C8
:1023E00020E04DEF57E06AEB72E08BED92E00E9447
:1023F000812DEC014091BF0550E060EC75E00E943A
:102400004E348091BF058C0F9D2F911DB3CFEF925D
:10241000FF920F931F93CF93DF9300D00F92CDB70E
:10242000DEB7309164028091090450916C02909162
:102430006E0240916302432B482B20916802242BAB
:10244000252B292BC9F56091A10521E0611101C05F
:1024500020E0211132C06091C10066FD2EC0609164
:102460009202662351F16091930201E0611125C04F
:102470001091CF07E12EF12C1E3309F465C208F04C
:102480006BC0133309F466C330F51E3209F446C33A
:10249000B0F41C3209F4FCC208F013C31B3209F477
:1024A0006FC380E00F900F900F90DF91CF911F913D
:1024B0000F91FF90EF90089521E000E0D9CF103305
:1024C00009F4D6C208F434C3113309F479C31233C2
:1024D00041F78FEFE7CF183309F4B7C1B0F41633E3
:1024E00009F4B9C208F0C0C11533D9F68091FB07D1
:1024F0009091A202892B9091FC07892B21F40E94D4
:102500001A30811149C385E330C11A3309F43DC241
:1025100008F46CC11B3309F45AC21C3309F0C1CF53
:102520004091660250916702452B61F49091AD0293
:10253000892B41F48091A10590912C02892B282BA5
:1025400009F4F4C180910B01833611F08111C1CFE0
:1025500080E180930B01BDCF133708F074C01F35A5
:1025600008F01BC1163409F493C1B0F41F3309F409
:1025700050C220EC210FE22FF0E0E852FF4F4591CE
:102580005491FEE02F9F900111242E513F4F612F57
:10259000802F0E946F119DCF1B3458F3809134021D
:1025A000882309F47EC02091660230916702232BB4
:1025B00009F077C0942B80912C02982B09F071C000
:1025C000533309F46EC08091FB079091A202892BCE
:1025D0009091FC07892B09F064C00E941A3088236F
:1025E00009F45FC061E081E00E945B29811159C05C
:1025F00066E784E70E945B29811153C069E387E3A2
:102600000E945B2981114DC0002309F44AC0109239
:102610006B0210926A0210936C028FEF8093640237
:1026200046E050E060EF71E081E696E00E94E6331C
:102630004AE067E676E0C7018A5491090E94B834FF
:102640000E94482046CF163709F449C080F413375A
:1026500001F54EEA52E065EA73E08BED92E00E94EC
:102660005D2C009709F053C01092640232CF1937E5
:1026700009F47EC01F3909F4ADC2173709F011CF34
:1026800020913402222319F0992309F41AC187E713
:102690006CC02091660230916702232B11F4892BC4
:1026A00011F0812F62C08091FB079091A202892BCB
:1026B0009091FC07892BA9F70E941A30882389F38F
:1026C000002379F310926B0210926A0210936C024D
:1026D00081E0153709F080E00E948611FACE109251
:1026E000A105409165026BED72E08FE596E00E94D6
:1026F0009D2D8091650290E0880F991FFC01E15AA1
:10270000F94F2AE1208301960E941220E2CE9E0119
:102710002F5F3F4FAE014E5F5F4FBE016D5F7F4F3A
:102720000E94B62C2B8120939A022A812093990231
:102730002981209398029E012F5F3F4FAE014E5F8B
:102740005F4FBE016D5F7F4F0E94D92C2B8120937C
:1027500097022A81209396022981209395024FE1C6
:102760006EE977E00E94742B89E70E941229B1CEAE
:102770008091FB079091A202892B9091FC07892BF5
:1027800099F70E941A30882379F310923E0282E072
:102790008093D9030E949F0767CF409166025091B2
:1027A0006702452B09F07DCF832B3091AD02832B3F
:1027B00009F077CF8091A105811173CF002309F42F
:1027C00070CF10926B0210926A0210936C0246E076
:1027D00050E069EE71E081E696E00E94E6334AE05F
:1027E00067E676E0C7018E55910928CF8091FB07F7
:1027F0009091A202892B9091FC07892B11F089E31B
:10280000B4CF0E941A308823D1F310923E0282E0A6
:102810008093D9030E942E0B882371F080910801C8
:1028200090910701892B79F082EE91E00E940304D8
:10283000892B11F40E94630788E30E9412298FEF0D
:10284000809355022FCE87E3F8CF011102C088E3B1
:102850008CCF10926B0210926A0210936C0280EE81
:1028600091E00E942B2035CE8091080190910701C4
:10287000892B69F787E3002309F477CF10926B0265
:1028800010926A0287E380936C028EED91E0E9CFAB
:10289000992311F086E469CF8091C10086FDFACFBB
:1028A000809192028823B1F380919302582B91F783
:1028B00010926B0210926A0210936C0287ED91E005
:1028C000D0CF811106CE002309F4E1CE10926B0225
:1028D00010926A0287E780936C0285E18093D903A6
:1028E00084E68093610666EB73E082E696E00E94E0
:1028F0007D3486EB93E0FC0101900020E9F7CF01E5
:10290000875B93408F5F90E0FC01EF59F94F2BE319
:1029100020838E59994FFC0110820E9448208CE23E
:1029200091E09093670280936602D3CD8CE30023FD
:1029300009F41BCF10926B0210926A028CE3809311
:102940006C0282ED91E08DCF40916602509167025A
:10295000452B09F0BECD9091AD02892B09F0B9CD80
:102960008091A10590912C02892B282B09F0B1CDE3
:102970008EE3002309F4F9CE10926B0210926A02E2
:1029800010936C028BEC91E06CCF409166025091F9
:102990006702452B59F49091AD02892B39F480914F
:1029A000A10590912C02892B282B19F010925C0222
:1029B00090CD8AE3002309F4D8CE10926B021092D6
:1029C0006A028AE380936C0282EC91E04ACF4091E4
:1029D000660250916702452B59F49091AD02892B04
:1029E00039F48091A10590912C02892B282B19F0A4
:1029F00010925B026ECD8BE3002309F4B6CE1092E9
:102A00006B0210926A028BE380936C028BEB91E075
:102A100028CF4091660250916702452B09F059CDAD
:102A20009091AD02892B09F054CD8091A105909130
:102A30002C02892B282B09F04CCD8FE3002309F4BD
:102A400094CE10926B0210926A028FE380936C0214
:102A500084EB91E006CF86E3002309F486CE109242
:102A60006B0210926A0210936C028DEA91E0F9CE2B
:102A700080E3002309F479CE10926B0210926A026F
:102A800010936C0282E48093690288E991E0E9CEB8
:102A90008DE20E94122984E18093AD021092A30579
:102AA0001092A2051092B20580B7826080BFF894A0
:102AB0008091C10080688093C100789400004398A1
:102AC00008CD80915602811104CD8091AD028823FA
:102AD00011F08DE24ACE8091C10086FDFACF1092AE
:102AE000A3051092A2051092B20580B7826080BF44
:102AF000F8948091C10080688093C10078940000B0
:102B0000439810926B0210926A028DE280936C02DD
:102B100084E1809356028FE891E0A3CE8FEF8093FB
:102B2000920280E40E94122988E280936E02D1CC46
:102B30008FE2002309F419CE10926B0210926A0200
:102B40008FE280936C0262E871E081E696E00E9479
:102B5000FA3376CD80917D02882311F081E405CE91
:102B60008FEF80937D0283E3002309F4FECD109262
:102B70006B0210926A0210936C0289E791E071CEA9
:102B80000E94CF0F80919302813819F084E18093E5
:102B90000901109293029DCC002309F4B4CC109249
:102BA0006B0210926A0285E380936C026EE671E01C
:102BB00081E696E00E94FA3381E38093690240CD7A
:102BC00080919102882309F484CC86E30E94122923
:102BD00082E3CBCD8091FB079091A202892B90914B
:102BE000FC07892B21F40E941A30811102C08FE961
:102BF000BCCD0023E1F310926B0210926A028FE9C0
:102C000080936C0269ED77E081E696E00E947D3466
:102C100017CD80916E02882339F0815080936E0227
:102C2000811102C010926D028091300290913102A8
:102C3000009729F0019790933102809330028091A0
:102C4000430290914402009771F0019790934402DF
:102C500080934302892B39F480916802882319F00C
:102C600088E30E941229809156028823C1F0815086
:102C700080935602811113C010926B0210926A0267
:102C800010926C028DE20E94122910929402F89424
:102C90008091C1008F7B8093C100789400000E94D6
:102CA000DE21882319F08CE20E94122980916102B2
:102CB000882341F0815080936102811103C088E331
:102CC0000E9412298091660290916702009771F02C
:102CD00001979093670280936602892B39F482E012
:102CE0000E94910B109268021092090480917C025C
:102CF0008F5F80937C02803309F04EC08CE30E948A
:102D000024298091AD02882319F081508093AD026F
:102D100080913402882309F45EC080910B018336D0
:102D200011F0811158C080915D0290915E0288354A
:102D300022E0920750F40196883522E0920709F4C8
:102D400043C090935E0280935D0280915C02863066
:102D500020F480915B02843110F00E942D0C809150
:102D60003302882339F0815080933302811102C0ED
:102D70000E942D0C80913402811132C08091590241
:102D800090915A02019690935A0280935902813B86
:102D9000944050F10C942D0C843311F48EE3AFCF9A
:102DA000883311F48BE3ABCF8C3311F48AE3A7CFD4
:102DB000803508F4A6CF8091340210927C028823DB
:102DC00009F49FCF8FE39BCF10925E0210925D02B9
:102DD0000E942D0CBACF10925E0210925D02B5CF08
:102DE00010925A02109259020895809193028823FA
:102DF00009F457C08BE20E941229809108048823AD
:102E000029F086E70E94122910920804809134026A
:102E1000882309F455C080916302882309F450C0C7
:102E200080917A0290917B020196883823E1920783
:102E300008F03CC090937B0280937A0280916C02F0
:102E400090916802882309F4A8C020917902821326
:102E50006AC091116AC08D3231F09AE8980F44EF40
:102E600051E0923010F440EE5EE29CE8980F923010
:102E700010F44CED55E020917702309178022F5FED
:102E80003F4F2417350708F53093780220937702D7
:102E9000109276021092750280916C0280937902F2
:102EA00008950E942F248111A5CFA7CF10927B02F5
:102EB00010927A0284E0809393020E945A0CBECF53
:102EC00010927B0210927A02B9CF1092780210927F
:102ED00077028E3929F1883301F191ED980F923004
:102EE000E0F09BEC980F9230C0F090EC980F9A3085
:102EF000A0F095EB980F983280F0109269020E9432
:102F0000160C10926B0210926A028EE980936C028A
:102F1000109261060E944820BBCF80936902EFCFD8
:102F20000E942D0CB5CF9923C1F18091930281119C
:102F300034C0F8948091A2059091A30578942091D3
:102F40007502309176022817390720F490937602A3
:102F50008093750280917502909176020A9708F429
:102F60009BCF80917702909178020196843F21E077
:102F7000920728F490937802809377028DCF109275
:102F800078021092770281E00E94910B10927602F3
:102F9000109275020E942D0C7FCF10927802109231
:102FA0007702992309F474CF77CF3F924F925F92C3
:102FB0006F927F928F929F92AF92BF92CF92DF9249
:102FC000EF92FF920F931F93CF93DF93CDB7DEB7AE
:102FD000E1970FB6F894DEBF0FBECDBF9091CF073B
:102FE0008091640220916302822B20910904822B3C
:102FF00020916802822B20916C02822B20916E021C
:10300000822B81F48091A10581110CC08091C100B7
:1030100086FD08C080919202882321F020919302BE
:1030200081E0211180E0993241F010E09A3209F0FC
:1030300094C08111ABC08AE203C0811104C089E24F
:103040000E94122980C080912C029091FB07892B4D
:103050009091A202892B9091FC07892B81F70E9405
:103060001A30882361F38AE28093BE052FEBE22EAB
:1030700025E0F22E35E0D32E43E2C42E5AE0B52EE1
:103080008091A3039091A4038F719927892B09F450
:10309000A8952091A3033091A403D29EC001D39E92
:1030A000900D112408960E94C52F182F2091A3037C
:1030B0003091A4038F3FC1F1D29EC001D39E900DE9
:1030C000112441E1B70108960E94262A8701080FC2
:1030D000111DF801C0827801F2E0EF0EF11CF80139
:1030E000B1828091A3039091A40301969093A403CD
:1030F0008093A30398012D5E3F4F2E55364068F410
:10310000843C994008F4BCCFF801128284E70E9405
:10311000122981E080932C0216C0843C9940A0F7CC
:1031200089E20E941229F0CF2F5F3F4F3093A40312
:103130002093A303243C394008F4A2CF2EEBE216DF
:1031400025E0F20611F41FEF08C0F701108284E7B2
:103150000E94122981E080932C02812FE1960FB604
:10316000F894DEBF0FBECDBFDF91CF911F910F91BD
:10317000FF90EF90DF90CF90BF90AF909F908F9097
:103180007F906F905F904F903F90089580912C02B8
:103190009091FB07892B9091A202892B9091FC07BB
:1031A000892B09F048CF0E941A30882309F443CFB5
:1031B0001092BE050EEB15E085E0382E6E01F5E1AC
:1031C000CF0ED11CCE0186963C0197EE492E91E0A0
:1031D000592EFE0131967F018090A3039090A403A5
:1031E000F4EC8F16F9E09F0628F00E5B154009F00D
:1031F0008DCFA9CFC4018F719927892B09F4A89588
:10320000389C5001399CB00C112448E0A40EB11C2C
:10321000C5010E94C52F8F3F09F468C08FEF881A3F
:10322000980A41E1B601C5010E94262AF6010190E3
:103230000020E9F73197EC19FD09B601EA3018F0E2
:1032400039976E0F7F1FC3010E947D347F926F926A
:103250009F928F925F924F92FF92EF920E94D23490
:10326000F70101900020E9F73197EE19FF09E00F0F
:10327000F11F0FB6F894DEBF0FBECDBFEE55F6407E
:1032800040F1E5E00E3B1E07C1F4B7018EEB95E07F
:103290000E947D348AE20E94122984E70E9412294A
:1032A00081E080932C028091A3039091A403019666
:1032B0009093A4038093A30346CF8AE20E9412292D
:1032C00084E70E94122981E080932C02F801108289
:1032D0003ACFB701C8010E947D34F7010190002068
:1032E000E9F73197EE19FF090E0F1F1F8091A30315
:1032F0009091A40301969093A4038093A3036CCFB1
:1033000008950E94A31E0E940A0B0C944C1FCF9399
:10331000DF930F92CDB7DEB78091FB079091A202A9
:10332000892B9091FC07892B59F50E941A3088232C
:1033300039F1198291E08091AC02811101C090E0D5
:1033400081E04091FA035091FB036091FC0370917E
:10335000FD03452B462B472B09F480E0981711F00D
:1033600081E0898385E090E00E94C52F99818917CB
:1033700039F041E065E070E0CE0101960E94FD2A3F
:103380000F90DF91CF9108950E9481190E94091634
:103390008091D903882331F081508093D903811122
:1033A000B3C0409A80918D0290918E02009739F0BF
:1033B000019790938E0280938D02892B11F41092C5
:1033C0008F028091450290914602892B49F08091AD
:1033D00045029091460201979093460280934502E0
:1033E00080914D028823F1F080914B0290914C0224
:1033F0000097C1F0019790934C0280934B02892B68
:1034000089F465EA73E08AEB92E00E947D346EEE07
:1034100071E08EEB95E00E947D3484E70E941229D2
:1034200010924D0280912F02882309F40FC18091E0
:103430007402811111C080913402882369F0809157
:103440007202909173028A3F910508F05FC0019665
:1034500090937302809372028091CF07882309F4BE
:1034600088C09CE8980F923008F07CC090918B0245
:10347000981378C08091890290918A0286399105CB
:1034800008F048C0019690938A0280938902809147
:103490006302882309F45FC08091830290918402C3
:1034A0008C3221E0920708F067C001969093840265
:1034B0008093830280915402882309F486C080910E
:1034C0005202909153028436910508F073C08091A6
:1034D00052029091530201969093530280935202AC
:1034E00080913E02882309F48BC080913D02823096
:1034F00008F47CC0409A80913D028F5F863008F0CE
:1035000077C080933D02089540984CCF8FEF809311
:103510007402A2CF65E784E70E9438298091850272
:10352000909186028F3F980729F00196909386022A
:103530008093850283E30E94242910928F021092C7
:103540008E0210928D0210928A02109289021092BD
:103550008B021092630210928402109283021092E6
:103560008202A8CF80938B0210928A021092890265
:103570008ECF10928B02F8CF1092840210928302A9
:103580000E94C00310926302109262021092A10581
:1035900010922C02809182028F3F29F410928202B5
:1035A0000E942D0C87CF8F5F80938202833008F4B6
:1035B00081CFF4CF1092510282E390E090935002B9
:1035C00080934F020E94C0038BCF80914F02909155
:1035D0005002892B09F484CF80914F0290915002C0
:1035E00001979093500280934F027ACF409883CFF7
:1035F00010923D0280913E02815080933E020895D8
:1036000080913402811102C0409819C08091D90381
:103610008111FACF80910B018031A8F48091710261
:103620008F5F823370F480937102809171028832CF
:1036300059F38B3249F38E52843030F3409A0C9414
:10364000871981E0F0CF10927102EFCF10927402CF
:103650001092730210927202FFCE0E94421F0E94CB
:10366000F5160C94A22AF89480916E008D7F8093B9
:103670006E007894000080913802811109C0F8949E
:1036800080916E00826080936E00789400000895AF
:103690001092380280913702882329F081E08093CC
:1036A000360210923702F89480916E008260809307
:1036B0006E00789400008091360280FF33C08091C4
:1036C00070028F5F8A3079F1809370020000F89465
:1036D00000B601FE26C08091C1008F778093C100A3
:1036E00078948091A2059091A305892B11F1809186
:1036F000B2058F5F8093B2058333D8F0439A8091EF
:10370000C1008F778093C10080B78D7F80BF1092FA
:103710000B0410920A041092A00510929F051092BB
:103720000704789408951092700283E08093360223
:10373000CDCFF8948091C10080688093C1007894C7
:103740000000EFCFA89582E084BD83E085BD8FE3C4
:1037500087BDEEE6F0E080818260808383B7817F61
:1037600083BF08951F93CF93DF9344E050E061E05F
:1037700070E08AED93E00E94E22F8091DA0381509D
:103780008E3F00F181E48093FD078093DA0382E4A9
:103790008093FE078093DB0383E48093FF0780938D
:1037A000DC0384E4809300088093DD030E941A30D8
:1037B0008823E1F344E050E061E070E08AED93E0BB
:1037C0000E94E82F8DEE90E30E94E92E853A09F0E1
:1037D00050C081EE90E30E94C52F8F3F09F455C081
:1037E0008093020182EE90E30E94C52F8F3F09F47F
:1037F00059C08093080186E090E00E94C52F8F3F5A
:1038000009F45DC0809307018CED90E30E94C52F01
:10381000D82F8DED90E30E94C52F182F8EED90E3E9
:103820000E94C52FC82F8FED90E30E94C52F282F2F
:103830009D2F91239C2398239F3F09F04DC082E048
:1038400090E0A0E0B0E08093030190930401A09386
:103850000501B093060110928F0210928E02109211
:103860008D021092630210922F02DF91CF911F916F
:1038700008950E94E90365EA8DEE90E30E94732F9C
:103880000E94902F8823E1F3A4CF81E0809302016E
:103890000E941A308823E1F361E081EE90E30E94F8
:1038A000CE2FA0CF81E0809308010E941A30882398
:1038B000E1F361E082EE90E30E94CE2F9CCF81E0A5
:1038C000809307010E941A308823E1F361E086E0CB
:1038D00090E00E94CE2F98CF8C2F90E0B0E0A0E037
:1038E000DC0199278827912B8D2BB22B8093030124
:1038F00090930401A0930501B0930601AC01BD01B2
:1039000041505109610971094F39564861407105AB
:1039100008F095CF8F399648A140B10509F09BCFAB
:1039200085E090E00E94C52F8F3F69F081708195FE
:103930008093AC021092FA031092FB031092FC03E6
:103940001092FD0388CF1092AC02F4CFCF92DF9299
:10395000EF92FF920F931F93CF93DF93CDB7DEB714
:1039600061970FB6F894DEBF0FBECDBF1091CF07A1
:10397000143209F410C1D0F4133208F0D2C013305D
:1039800008F088C0123009F457C010E0812F61960A
:103990000FB6F894DEBF0FBECDBFDF91CF911F9160
:1039A0000F91FF90EF90DF90CF900895183228F498
:1039B000163208F43AC11FEFE9CF183231F766EB3F
:1039C00073E0FB0101900020E9F7BF01615071092C
:1039D0004DEF57E086EB93E00E947D2908E010E070
:1039E000B8018DEF97E00E944A2A882309F48DC11F
:1039F0001092B6034DEF57E067EB73E086EB93E070
:103A00000E947D299DEFC92E97E0D92EF12CE12C43
:103A1000F60161916F01C701800F911F0E94732F02
:103A20000E94902F8823E1F3FFEFEF1AFF0A25E0B1
:103A3000E216F10469F7BFCF8091FB079091A202D3
:103A4000892B9091FC07892B21F082E00E9412299A
:103A5000B2CF0E941A308823C1F381E48093FD071E
:103A60008093DA0382E48093FE078093DB0383E490
:103A70008093FF078093DC0384E4809300088093A5
:103A8000DD0364E081E090E00E941E2B83E38093DD
:103A9000D90391CF8091FB079091A202892B90913D
:103AA000FC07892B11F0812FD1CF0E941A30882377
:103AB000D1F30DEF010F40E250E06FEF70E08DEFBA
:103AC00097E00E945734011120C081E48093FE07E3
:103AD0008093DA0382E48093FF078093DB0383E41F
:103AE000809300088093DC0384E480930108809332
:103AF000DD03109202081092AC021092FA031092A9
:103B0000FB031092FC031092FD0360E220E2029F8F
:103B1000C00111240E941E2B81E0810F0E941229F6
:103B2000B5CF0091FB078091A202082B8091FC0782
:103B3000082B11F083E28ACF0E941A308823D1F338
:103B4000F12CE12CC7010E94C52FF701EE52FF4F67
:103B5000E4918E130FEF8FEFE81AF80A96E0E9165A
:103B6000F10481F758E0E52EF12CC7010E94C52F22
:103B7000182F8F3F51F4EFEFEE1AFE0AFCEDEF160F
:103B8000F0E3FF0691F7002311F083E05FCF0E947E
:103B9000B21B409AFBCE1091FB078091A202182B1A
:103BA0008091FC07182B11F084E250CF0E941A304C
:103BB0008823D1F36EED73E0CE0101967C010E9463
:103BC0007D34F70101900020E9F7BF0161507109D0
:103BD0004DEF57E0C7010E947D298091020181309D
:103BE00091F048E0E42EF12CB7018DEF97E00E94B0
:103BF0004A2A811114C0F5E0EF0EF11C2CEDE216FB
:103C000020E3F20689F780910801882309F4D3CED6
:103C100080910201813029F40E946307CCCE1FEF0E
:103C2000F2CF112309F4C7CEF7CF66EB73E0FB01A7
:103C300001900020E9F7BF01615071094DEF57E095
:103C400086EB93E00E947D2938E0E32EF12C10E012
:103C500000E0C8018F719927892B21F40115110506
:103C600009F0A895B7018DEF97E00E944A2A8111CB
:103C7000A2CE0F5F1F4FF5E0EF0EF11C043C29E0D0
:103C8000120739F766EB73E0FB0101900020E9F7BA
:103C9000BF01615071094DEF57E086EB93E00E9440
:103CA0007D2988E0E82EF12C10E000E00AC00F5FCB
:103CB0001F4FF5E0EF0EF11C043C29E0120709F458
:103CC0007ACEC8018F719927892B09F4A895C7016D
:103CD0000E94C52F8F3F59F72DEFC22E27E0D22E1D
:103CE00010E000E0F60161916F01C8018E0D9F1D8B
:103CF0000E94732F0E94902F8823E1F3A8950F5FF5
:103D00001F4F0530110571F756CE0B5F1F4F0C3D4D
:103D100080E3180709F064CE4ECE0E94071281118D
:103D200006C00E94A61C811102C00E94D5170C94E7
:103D30005029E82FF0E0E051FC4F9081907F81E026
:103D400009F080E008959091F903892F8D7F809389
:103D5000F9038091F003807F90FD56C081114BC024
:103D60008091020490910304A0910404B091050491
:103D70004091FE035091FF03609100047091010493
:103D800084179507A607B70798F40196A11DB11DE2
:103D90008093020490930304A0930404B093050459
:103DA000481759076A077B0719F481E08093F903E4
:103DB0008091F90390910604891781F0809306049D
:103DC000982F92609093F90380FD53C010920204E3
:103DD0001092030410920404109205048091EF03E2
:103DE000882341F09091F9039D7F9093F9038150CE
:103DF0008093EF030895109202041092030410922E
:103E0000040410920504D4CF882351F18091F50366
:103E10009091F603A091F703B091F8034091F1035C
:103E20005091F2036091F3037091F40384179507A6
:103E3000A607B70708F0BCCF0196A11DB11D80935E
:103E4000F5039093F603A093F703B093F803481794
:103E500059076A077B0709F0ABCF1092F903A8CF87
:103E60001092F5031092F6031092F7031092F803E4
:103E70009FCF1092F5031092F6031092F703109261
:103E8000F803ACCF8091F003189B86958160189958
:103E9000880F8093F0030895CF92DF92EF92FF9204
:103EA0008091FA039091FB03A091FC03B091FD0374
:103EB0002091AC020097A105B105A1F00197A109DD
:103EC000B1098093FA039093FB03A093FC03B09392
:103ED000FD03892B8A2B8B2B29F481E0211180E0B3
:103EE0008093AC028091AC02882309F442C0809197
:103EF000900281113EC0C0904702D0904802E090ED
:103F00004902F0904A022FEFC216D206E206F206EC
:103F100081F18FEFC81AD80AE80AF80AC09247025E
:103F2000D0924802E0924902F0924A02C701B601DB
:103F30002AE030E040E050E00E949531672B682B8A
:103F4000692BB9F464EE70E38C2D0E942D2B65EE85
:103F500070E3809148020E942D2B66EE70E3809101
:103F600049020E942D2B67EE70E380914A020E9465
:103F70002D2B8091AC0280939002882369F0809170
:103F8000470290914802A0914902B0914A028032C2
:103F9000914AA740B10510F05D9801C05D9AFF906D
:103FA000EF90DF90CF90089584E190E0A0E0B0E042
:103FB0008093F1039093F203A093F303B093F4037F
:103FC0008093FE039093FF03A0930004B093010439
:103FD00084EE90E30E94F22F6F3F2FEF720782076B
:103FE000920749F060934702709348028093490218
:103FF00090934A020895109247021092480210923C
:10400000490210924A020895109206041092FA038F
:104010001092FB031092FC031092FD038EE180933B
:10402000EF03089590939E0580939D051092A70538
:104030001092A605E0ECF0E0808180648083F89423
:10404000E1ECF0E0808180648083789400008FEF61
:10405000809394020895CF93DF9321E420935F0629
:1040600024E520936006A1E6B6E0FC0193E0981BEE
:10407000892F8E0FED0124912D93211107C09DE012
:10408000988390E0DF91CF910C9412203196F0CF7D
:10409000EFE5F6E081E4808384E5818301900020F0
:1040A000E9F7CF01805696409927FC01E15AF94F74
:1040B0002DE0208301960C94122078942F932FB733
:1040C0002F933F938F939F93EF93FF932091A60598
:1040D0003091A70580919D0590919E05281739077D
:1040E00088F0F8948091C1008F7B8093C100789410
:1040F0000000FF91EF919F918F913F912F912FBFE2
:104100002F911895329910C08091A6059091A7051E
:10411000FC01E15AF94F208101969093A705809305
:10412000A6052093C600E5CF8FEF80939402E1CFE0
:104130008F938FB78F938091C1008F778093C10049
:1041400078948091C6000F924F931F9211242F9361
:104150003F93EF93FF93AF93BF939F932091A2055B
:104160003091A3058F3F09F4E8C0ECE0F4E0A90129
:10417000203991E0390708F0CDC02115310521F42F
:104180008A3009F04AC02CC090910C048D3009F59A
:104190009D30F9F09A30E9F090910704911119C01F
:1041A00091E890939302439AF8949091C1009F777D
:1041B0009093C10090B79D7F90BF789400001092BB
:1041C0000B0410920A041092A00510929F05109201
:1041D000070421153105A1F290819D3089F61DC09B
:1041E00090910704911119C091E890939302439A1A
:1041F000F8949091C1009F779093C10090B79D7FF4
:1042000090BF7894000010920B0410920A04109250
:10421000A00510929F05109207048F01A9014F5F1E
:104220005F4FDF01A20FB31F00B601FE5DC0243057
:10423000310508F459C08A3009F056C0BD016150FB
:104240007109EB0198819D3009F04EC061507109F0
:10425000EB0198819A3009F447C061507109EB0174
:1042600098819D3009F440C0EF0191819A30E1F5C9
:1042700090819D30C9F560919F057091A005709364
:104280000B0460930A045093A00540939F059091FE
:1042900007049F5F909307046091AE057091AF058E
:1042A0007093B1056093B0056091AC057091AD0558
:1042B0007093AF056093AE056091AA057091AB0550
:1042C0007093AD056093AC0560910A0470910B0486
:1042D0007093AB056093AA0560919F057091A0054E
:1042E0007093A9056093A8059091A105992361F0A9
:1042F0002330310549F4803239F490910E049E3315
:1043000019F49FEF909308048C939A01E40FF51F22
:1043100010820FC030E020E080E88093930210927A
:104320000B0410920A041092A00510929F0510929F
:1043300007043093A3052093A2051092B2059F9124
:10434000BF91AF91FF91EF913F912F911F904F91AE
:1043500000B601FE08C0F8948091C1008068809387
:10436000C100789400000F908F918FBF8F911895A6
:1043700083E08093C4001092C500E1ECF0E08081FE
:10438000886180838BB18C7F8BB951984298439818
:104390003B98089599B1892F887093FF0EC01092B1
:1043A0000A011092A3051092A205519A8BB1836065
:1043B0008BB93B9A439A429A8FEF089580910A01F4
:1043C0008823B9F191E0980F90930A01913A39F15D
:1043D000A8F49F30D9F030F49230D1F09330E9F066
:1043E00080E0089587528430D8F70E94CA2191E076
:1043F000811101C090E0892F819508959F3FA0F41D
:10440000953F98F7983C49F0973D51F75498E8CF7D
:1044100054980E94CA2181110BC0549AE1CF109286
:10442000920210929102DCCF81E080930A01D8CFF2
:104430008FEF0895FC014217130609F048F4DB01E1
:10444000A45FBB4F90E0491305C0942F81E049134E
:1044500080E008952D9184912813F8CF31969F5FC5
:10446000F2CF8FB7F89410920B0410920A041092B6
:10447000A00510929F058FBF08952F923F924F92F3
:104480005F926F927F928F929F92AF92BF92CF92E4
:10449000DF92EF92FF920F931F93CF93DF93C8E0C9
:1044A00047E0842E59E0952E63E0762E78E0672E63
:1044B000E5E15E2EF2E04F2EADE03A2E2224239469
:1044C0009FB7F89480910704811128C09FBFC091C5
:1044D000BD05CC2301F1C150C093BD05D0E0CD5442
:1044E000DA4F8881809393021882C09193028C2FB7
:1044F000DF91CF911F910F91FF90EF90DF90CF90C0
:10450000BF90AF909F908F907F906F905F904F90F3
:104510003F902F90089510929302E9CF853008F0D4
:1045200084E0E82FF0E0EE0FFF1FE855FA4FC0805F
:10453000D180118210828150E82FF0E0EE0FFF1F32
:10454000E855FA4F20813181809307049FBFC2163E
:10455000D306A8F58091BD058A3010F09092BD0574
:1045600089010C191D0904501109760142E0E40E7D
:10457000F11CC901845F9B4FFC013397B0803197D8
:10458000A080F601E45FFB4FD581EBE4BE121BC0B7
:10459000FFE4AF1245C10597FC018081803209F428
:1045A0005AC12630310508F456C1E091BD0581E0BD
:1045B0008E0F8093BD05F0E0ED54FA4F2082C1507C
:1045C00009F07ECF94CFD734A1F4980146E0B7012B
:1045D00089E394E00E941A22882359F0E091BD05F6
:1045E00081E08E0F8093BD05F0E0ED54FA4F3082EC
:1045F000E6CFFFE4AF1215C0980145E0B70183E3B1
:1046000094E00E941A22882361F0E091BD0581E0C8
:104610008E0F8093BD05F0E0ED54FA4F44E04083E7
:10462000CECF87E4B81215C0980147E0B7018BE2FE
:1046300094E00E941A22882309F4F5C0E091BD0598
:1046400081E08E0F8093BD05F0E0ED54FA4F40827B
:10465000B6CFE4E4BE12E7C098014CE0B7018EE1AA
:1046600094E00E941A22882309F4DDC0E091BD0580
:1046700081E08E0F8093BD05F0E0ED54FA4F8CE0A1
:1046800080839DCFDD34A1F4980146E0B70180E13D
:1046900094E00E941A22882309F1E091BD0581E08F
:1046A0008E0F8093BD05F0E0ED54FA4F508287CF16
:1046B000D435A1F4980146E0B70189E094E00E9466
:1046C0001A22882359F0E091BD0581E08E0F809376
:1046D000BD05F0E0ED54FA4F608271CFF5E4AF1202
:1046E00014C098014AE0B7018EEF93E00E941A22AD
:1046F000882359F0E091BD0581E08E0F8093BD05C0
:10470000F0E0ED54FA4F70825ACF45E4B41214C071
:1047100098014BE0B70182EF93E00E941A228823B0
:1047200011F1E091BD0581E08E0F8093BD05F0E0B1
:10473000ED54FA4F908243CF89E5B81214C0980126
:1047400044E0B7018DEE93E00E941A22882359F0CD
:10475000E091BD0581E08E0F8093BD05F0E0ED5442
:10476000FA4F80822CCFD53411F598014BE0B70178
:1047700081EE93E00E941A22882309F420CF4AE0B8
:1047800050E070E060E0C601865E9B4F0E94E73219
:1047900070939E0260939D02E091BD0581E08E0FB3
:1047A0008093BD05F0E0ED54FA4F45E038CFD335A6
:1047B00009F005CF98014BE0B70185ED93E00E9429
:1047C0001A228823C1F04AE050E070E060E0C601A0
:1047D000865E9B4F0E94E73270939C0260939B021F
:1047E000E091BD0581E08E0F8093BD05F0E0ED54B2
:1047F000FA4F86E045CF980146E0B7018EEC93E092
:104800000E941A22882309F4DACEE091BD0581E0E6
:104810008E0F8093BD05F0E0ED54FA4F8EE030CF5F
:10482000D73409F4D2CED93409F02CCF980146E020
:10483000B70187E194E00E941A22882309F44ECF41
:10484000E091BD0581E08E0F8093BD05F0E0ED5451
:10485000FA4F8AE015CFD73409F0CECEB6CECF933B
:104860000E943D228823D9F080919302843021F068
:10487000833111F0813089F4CFB7F8940E9431224E
:10488000439AF8948091C1008F778093C10080B7DC
:104890008D7F80BF78940000CFBF80919302CF912D
:1048A0000895AF92BF92CF92DF92EF92FF920F9353
:1048B0001F93CF93DF936C01B62EA42EF601C08117
:1048C000D181888190E00E94C833892B39F5FAE0C4
:1048D000BF9E8001112405591B4FBA1498F4F801AA
:1048E000E490F12CB8016F5F7F4FA701CE010E94C9
:1048F000D933065F1F4F892BB1F4CE0DDF1DF601B2
:10490000D183C0838B2DDF91CF911F910F91FF90A9
:10491000EF90DF90CF90BF90AF9008952196F60171
:10492000D183C083CBCFB394D8CFEF92FF920F93B4
:104930001F93CF93DF937C01F701C081D181088160
:1049400010E0C8010E94C833892B09F03FC0C8019C
:104950000E94D1338C018091DA0390E00E94D13320
:1049600008171907C1F5898190E00E94D1338C01A5
:104970008091DB0390E00E94D1330817190759F5A5
:104980008A8190E00E94D1338C018091DC0390E019
:104990000E94D13308171907F1F48B8190E00E942F
:1049A000D1338C018091DD0390E00E94D133081750
:1049B000190789F42496F701D183C0838FEFDF9123
:1049C000CF911F910F91FF90EF9008952196F701DD
:1049D000D183C083B1CF80E0F2CF44E050E066E6FF
:1049E00074E00E94D93321E0892B09F020E0822F66
:1049F00008950C945124EF92FF920F931F93CF933D
:104A0000DF93EC017B01088119814AE050E0BC0191
:104A1000C8010E94D731F701608371838283938339
:104A200081E0288139812017310709F480E0DF9186
:104A3000CF911F910F91FF90EF900895DF92EF9229
:104A4000FF920F931F93CF93DF937C01D62EF70134
:104A5000C081D181088110E0C8010E94C833892B30
:104A6000A1F48D2D90E00E94D1330817190791F41D
:104A70002196F701D183C0838FEFDF91CF911F91F2
:104A80000F91FF90EF90DF9008952196F701D18369
:104A9000C083DDCF80E0F1CFDF92EF92FF920F93E2
:104AA0001F93CF93DF938C01D62EF801E080F18025
:104AB000CE2DDF2D899190E00E94C833892B89F497
:104AC0008D2D90E00E94D133982FF701819188239A
:104AD00061F07F019813F9CFD801ED93FC938FEF2C
:104AE00006C0D801CD93DC93E0CF9923A9F3DF91E1
:104AF000CF911F910F91FF90EF90DF900895CF928B
:104B0000DF92EF92FF920F931F93CF93DF938C016D
:104B1000E62ED72EF42EF801C081D181888190E055
:104B20000E94C833892B89F4CE2DDD2DEF0C6E0148
:104B3000EC1210C0F6011082DF91CF911F910F91FE
:104B4000FF90EF90DF90CF9008952196D801CD93FC
:104B5000DC93E1CFD801ED91FC91F0808F2D90E0B6
:104B60000E94C833892B31F7F992FF2019F3D8013D
:104B70008D919C91119701968D939C93D8CF8F9294
:104B80009F92AF92BF92CF92DF92EF92FF920F93DC
:104B90001F93CF93DF93CDB7DEB764970FB6F8942A
:104BA000DEBF0FBECDBF7C016B01042FF701A080DB
:104BB000B180F501808190E00E94C833892B09F013
:104BC00049C010E04501F50181915F01882349F05A
:104BD000143138F48032B1F30E946A298D3009F023
:104BE00040C0512F1A3008F059E0812F193008F4D5
:104BF00089E08950990BA1E0B0E0AC0FBD1FA80F70
:104C0000B91FC60130E020E00150110B251718F440
:104C100020173107BCF1F601E50FF11D1082F601F6
:104C20008081882321F0F701808291828FEF649642
:104C30000FB6F894DEBF0FBECDBFDF91CF911F91AD
:104C40000F91FF90EF90DF90CF90BF90AF909F902B
:104C50008F9008958FEFA81AB80AF701B182A08249
:104C6000A5CFF5013197808190ED980F9A3008F02B
:104C7000A9CFE1E0F0E0EC0FFD1FE10FF11D808313
:104C80001F5FA0CF4D91FC014193CF012F5F3F4F9C
:104C9000BDCF9F92AF92BF92CF92DF92EF92FF92E1
:104CA0000F931F93CF93DF9300D000D000D00F92CB
:104CB000CDB7DEB79F838E837C0182E3F701ADEF32
:104CC000B7E001900D928A95E1F75701F5018191C6
:104CD0008F0190E00E94C833892BE1F5CE01019647
:104CE0006C0185015C0184E0982E900EF8018191A1
:104CF0008F01882349F090E00E94D133F60181931F
:104D00006F019012F3CF8FEF1D82882329F16DE0A0
:104D100072E0C5010E947434892BF1F464EA71E0F9
:104D200085EA93E00E949334892BB1F010E1812F42
:104D300027960FB6F894DEBF0FBECDBFDF91CF919F
:104D40001F910F91FF90EF90DF90CF90BF90AF90A9
:104D50009F9008955801BACFCE0106960E949524DF
:104D60002E819F81811108C0822F0E94ED24182F6F
:104D70008823E9F21BE0DBCF022F192FF801819184
:104D80008F01811110C04AE160E0CE0106960E94B9
:104D90005124182F8A3108F043C2E82FF0E0EF5277
:104DA000F84C0C94B73190E00E94D133F801319760
:104DB0008083E4CF0F5F1F4F1F830E830E811F81FF
:104DC000F801808190E00E94C833892B99F730E088
:104DD00020E0C8018E199F098350984FFC01E20F13
:104DE000F31F40815FEB540F5A3128F040534A3093
:104DF00010F012E09CCF2F5F3F4F2430310571F748
:104E0000FC0140815181628173814093DA035093A8
:104E1000DB036093DC037093DD0344E061E070E04A
:104E20000E94FD2A13E083CF4EE066EB73E0CE01D3
:104E300006960E94BF2581117ACF0E811F81F8014D
:104E4000808190E00E94C833892B69F443E050E0F0
:104E500062E674E0C8010E94013418E0892B09F46D
:104E600066CF16E064CF0F5F1F4F1F830E83E5CF21
:104E70004EE066EB73E0CE0106960E94BF258823C4
:104E800009F4B7CF85E20E941229CCCF4EE066EB41
:104E900073E0CE0106960E94BF25882309F4A9CFAE
:104EA00088E2F1CF47E168E0CE0106960E945124E6
:104EB000883071F481E08093020161EE70E30E941A
:104EC0002D2B8FEF8093080162EE70E381E00EC01E
:104ED0008930C1F481E08093020161EE70E30E94A9
:104EE0002D2B1092080162EE70E380E00E942D2BC2
:104EF0001092070166E070E080E00E942D2B0E9476
:104F0000570790CF863191F481E08093020161EEE2
:104F100070E30E942D2B1092080162EE70E380E096
:104F20000E942D2B8FEF8093070114C0853109F06B
:104F300060CF81E08093020161EE70E30E942D2B2F
:104F40001FEF1093080162EE70E381E00E942D2BA9
:104F50001093070166E070E081E0CFCF47E168E0A1
:104F6000CE0106960E945124883031F4109202013D
:104F700061EE70E380E0A3CF893031F4109202013A
:104F800061EE70E380E0ABCF863131F41092020124
:104F900061EE70E380E0BDCF853109F02ACF109239
:104FA000020161EE70E380E0C9CF19E0C0CE0F5F6F
:104FB0001F4F1F830E830E811F81F801F0808F2DFC
:104FC00090E00E94C833892B91F7FF2009F411CF9C
:104FD00081E480935F0684E5809360061F930F93BE
:104FE00082E192E09F938F9381E696E09F938F9367
:104FF0000E94D2340E9448208FEF80934D028CE2B1
:1050000091E090934C0280934B020F900F900F9081
:105010000F900F900F9006CF0F5F1F4F1F830E83CF
:105020000E811F81F801808190E00E94C833892B96
:1050300099F743E050E06EE574E0C8010E94013446
:10504000892B21F41092A0021DE071CE4EE06DEB91
:1050500077E0CE0106960E94BF251CE0882309F464
:1050600066CE8FEF8093A0021EE061CEB501CE0127
:1050700006960E94FB24882309F4BBCE8981482F21
:105080005A816B817C818A019B01015011092109A0
:1050900031090F3916482140310508F0AACEC090D9
:1050A0000301D0900401E0900501F09006014093C7
:1050B00003015093040160930501709306016CEDA8
:1050C00070E30E942D2B6DED70E3809104010E942E
:1050D0002D2B6EED70E3809105010E942D2B6FED5D
:1050E00070E3809106010E942D2B2FE9C21626E85D
:1050F000D20621E0E206F104C9F489819A81AB81EC
:10510000BC818F399648A140B10581F065E070E01F
:105110008FEF0E942D2B1092AC021092FA03109286
:10512000FB031092FC031092FD035D980E94570749
:105130001FE0FDCD0F5F1F4F1F830E830E811F8168
:10514000F801808190E00E94C833892B99F742E0F2
:1051500050E06BE574E0C8010E940134892B21F511
:105160008FE996E8A1E0B0E08093030190930401F9
:10517000A0930501B09306016CED70E38FE90E94E6
:105180002D2B6DED70E3809104010E942D2B6EEDAF
:1051900070E3809105010E942D2B6FED70E38091EB
:1051A00006010E942D2BC2CF43E050E067E574E07A
:1051B000C8010E940134892B09F01BCE82E090E0E7
:1051C000A0E0B0E08093030190930401A093050157
:1051D000B09306016CED70E3D2CF88E198E00FB692
:1051E000F894A895809360000FBE90936000FFCF65
:1051F0008FEF80932D0291E090930201809308013C
:105200008093070165EA73E08AEB92E00E947D34A7
:1052100060E474E08EEB95E00E94FA3384E733CECD
:1052200011E085CDEFECF7E030E020E091919111B5
:1052300005C02153384FF901808308952F5F3F4FF8
:105240002A30310599F70895EFECF7E030E020E0DF
:105250009191981761F0911105C02153384FF901D0
:10526000808308952F5F3F4F2A30310589F70895D5
:1052700090E0E92FF0E0E153F84F2081281770F01B
:10528000621760F0292F293028F01092D8079A3041
:1052900081F70895318131932F5FF5CF9F5FF7CF6D
:1052A000EFECF7E08181819387E0E83DF807D1F7E3
:1052B0001092D8070895EFECF7E02AE02E0F9191B5
:1052C000981710F0691720F42E13F9CF80E0089595
:1052D0008FEF08958B3259F030F4833251F08A32D7
:1052E00051F08DE0089580538A30D8F708958AE010
:1052F00008958CE008958BE00895AF92BF92CF920D
:10530000DF92FF920F931F93CF93DF93182FEB0140
:105310006A0145E050E06FEF70E0C6010E9457342B
:105320008C2F811B182F219700E0823058F4DF91D9
:10533000CF911F910F91FF90DF90CF90BF90AF90D2
:105340000895092F88810E946A29F82EF29480EF2F
:10535000F822FE0182915F010E946A298F29113093
:1053600061F4E5018F6010E091E0900FF601E00F2D
:10537000F11D80831111E5CFDACF22971250F4CFBF
:10538000E82FF0E0E159FA4F84910895CF93DF932D
:105390009C01EB011882BC0180E0DB016F5F7F4F55
:1053A0009C919F3F19F0853009F04AC0A217B307BE
:1053B00009F44AC0642F70E090E0880F991F11979C
:1053C0006817790744F4DB011197B7FDDB01B59548
:1053D000A795A20FB31FEC918E2F8F708F3091F590
:1053E000E295EF70F0E0E159FA4F849188838823C9
:1053F00019F02196119781E011961197A217B30722
:10540000D8F0EC91EF70F0E0E159FA4FE491E883C5
:10541000EE2311F021968F5F841771F0EC91E295E5
:10542000EF70F0E0E159FA4FE491E9938F5F48178C
:1054300019F02A173B0709F71882DF91CF910895D9
:105440008F5FABCF80E0D8CF80E0F7CFFF920F9394
:105450001F93CF93DF9300D000D00F92CDB7DEB76C
:105460008B01F42E45E050E0BC01CE0101960E9474
:10547000E22F4F2DB801CE0101960E94C6290F9050
:105480000F900F900F900F90DF91CF911F910F9180
:10549000FF9008950F931F93CF93DF93EC018B013F
:1054A00088818F3FF1F0CB010E94C52F8F3FC9F05B
:1054B000C8010E94C52F382F307F9991292F207F56
:1054C000303FA9F0203F99F032130BC08F709F70CE
:1054D0008F3069F09F3059F0891303C00F5F1F4F61
:1054E000E7CF80E0DF91CF911F910F9108958FEF6B
:1054F000F9CF0F931F93CF93DF9300D000D00F927B
:10550000CDB7DEB78B01FC0101900020E9F73197A0
:10551000BF01681B790B680F792F711DAE014F5FBA
:105520005F4F0E947D29B801CE0101960E944A2A50
:105530000F900F900F900F900F90DF91CF911F91D0
:105540000F9108950F931F93CF930E941A308823D1
:1055500081F18091FB079091A202892B9091FC0729
:10556000892B39F1C091A1020C2F10E08091F9072D
:105570009091FA07800F911F0E94E92EF801E350E5
:10558000F84F9081891301C0CF5F8091A202C817A4
:10559000A0F48C2F90E0FC01E350F84F2091F90724
:1055A0003091FA076081820F931F0E94732FC0937E
:1055B000A102CF911F910F9108958091FB07109246
:1055C000FB078093A2022DEF37E0F901882379F3DE
:1055D0009E2F921B981770F080912F0890913008A1
:1055E0009093FA078093F9076091FD070E94732F4B
:1055F000C0E0DDCF90A59193EBCF0F931F93CF9396
:105600008B01C42F4423B1F050E0BC018DEF97E033
:105610000E944E341093FA070093F9071092A102EA
:10562000C093A2026091FD07C801CF911F910F9115
:105630000C94732FCF911F910F910895662361F001
:105640009093FA078093F9071092A1026093A20247
:105650006091FD070C94732F08951F93CF93DF93F0
:10566000182FEB01CB010E94C52F811791F01093E9
:10567000FD07D093FA07C093F9071092A10281E0C9
:105680008093A202612FCE01DF91CF911F910C94E4
:10569000732FDF91CF911F9108950F931F93CF9395
:1056A000DF9300D000D0CDB7DEB78C0119821A820B
:1056B0001B821C820E94C52F8983C80101960E940B
:1056C000C52F8A83C80102960E94C52F8B836981EA
:1056D0007A818B819C810F900F900F900F90DF91BA
:1056E000CF911F910F910895DF92EF92FF920F9348
:1056F0001F93CF93DF93DC011D91141710F01FEF60
:10570000140F862F072FC0E0D12C90E0D0E827E0BF
:1057100030E0C1130CC0C60FD72FD11D1882DF9106
:10572000CF911F910F91FF90EF90DF9008954D2D35
:1057300050E0EC91F0E0ED2EF12CE094F094EE21AD
:10574000FF2102C0EE0FFF1FDA94E2F7E90FF11D0F
:10575000E057F94F9491E82EF02EF70191937F01D5
:10576000CF5FFC2FF770DF2E89F0ED91ED23F0E095
:10577000C901841B950B02C0F595E7958A95E2F760
:105780009E2FD695D0588E2D0F2DC3CF90E0D0E808
:10579000FACFCF92DF92EF92FF920F931F93CF93A6
:1057A000DF93EC01461B570BDC014D933FEF340FA9
:1057B00090E020E00FE710E087E04FEF50E0231784
:1057C00038F188818770D1F0FB01E20FF11DE08193
:1057D000F0E0E057FA4F24914FE750E0092E02C065
:1057E000440F551F0A94E2F7E22FF0E0E423F5237B
:1057F00002C0F695E7959A95E2F7ED93CD01DF911A
:10580000CF911F910F91FF90EF90DF90CF9008956F
:105810006B01C20ED11CF601F080EF2DF0E0E057D5
:10582000FA4FE4917801092E02C0EE0CFF1C0A9495
:10583000E2F7F0E0EE22FF22092E02C0F694E79490
:105840000A94E2F7F601F180EF2DF0E0E057FA4F0D
:10585000E491F82EF91A6A010F2C02C0D694C7946D
:105860000A94E2F7EC2101C0EE0FFA94EAF7EE2970
:10587000ED939F5F973011F42F5F90E02F5F9FCFE4
:10588000FC01640F752F711D4617570709F4089521
:1058900090819A3370F49053292F2295207F918123
:1058A0009A3348F49053920FDA019D93AD013296EA
:1058B000EBCF9753F1CF9753F6CF1F93CF93DF934F
:1058C000DC01EA018C91873C50F0DB011C928FEFE8
:1058D000888390E080E0DF91CF911F910895188236
:1058E0008C9190E00196A80FB91F8C918B7F11F0DD
:1058F0008FEF888311963C911197313130F7FD017C
:10590000339612968C91982F9F7E41E0913809F042
:1059100040E0813921F48BE2DB018D93BD01562FEC
:10592000172F80E010C09081222311F092953196BC
:105930009F70905D411101C090E3A52FB12F9D9301
:105940008F5F5A2F1B2F282F21708313ECCF680FE6
:10595000711DDB011C92211101C0319782818823C6
:1059600011F08FEF8883CF010396B5CFFC019081B2
:10597000A92FAF708AE092959F70A89F900D112477
:10598000DB019C939181692F6F7092959F70689F46
:10599000900D1124DA019C939281492F4F709295BA
:1059A0009F70489F900D1124D9019C93CF010396BD
:1059B0000895FC019081A92FAF708AE092959F70A5
:1059C000A89F900D1124DB019C939181692F6F702A
:1059D00092959F70689F900D1124DA019C9392819B
:1059E000492F4F7092959F70489F900D1124D901B7
:1059F0009C93CF0104960895CF93DF93DB012C9104
:105A000061E82B3211F4119661E9FD01019000204B
:105A1000E9F73197EA1BFB0BEC01E11105C0199284
:105A2000CE01DF91CF910895E883AC014E5F5F4FC7
:105A30006983CF019927019695958795D82F742F63
:105A4000C52F60E06D1303C0840F951FEACF2C9122
:105A5000205311963C911197332359F012963295A9
:105A6000307F232BE72FFC2F21936F5F7E2FCF2FCB
:105A7000E9CF1196206FF6CFCF93DF93DB012C9106
:105A8000211106C0FC011192CF01DF91CF91089541
:105A900061E82B3211F4119661E9FD0101900020BB
:105AA000E9F731979F012A1B3B0B33272F5F3F4FAD
:105AB00035952795D22F41E0420FFC014083AC0180
:105AC0004E5F5F4F6183742FC52F60E0D61304C013
:105AD000CA01820F931FD9CF8C91805311969C914C
