:100000000C9495030C94B2030C94B2030C94B203B9
:100010000C94B2030C94B2030C94B2030C94B2038C
:100020000C94B2030C94B2030C94B2030C94B2037C
:100030000C94B2030C94B2030C94EE040C94B2032F
:100040000C94B2030C94B2030C94DF210C94B20311
:100050000C94A4210C94B2030C94B2030C94B2033C
:100060000C94B2030C94B2030C94B2030C94B2033C
:100070000C94B2030C94B2030C94B2030C94B2032C
:100080000C94B2030C94B2030C94B2030C94B2031C
:100090000C94B2030C94B2030C94B2030C94B2030C
:1000A0000C94B2030C94B2030C94B2030C94B203FC
:1000B0000C94B2033A00206F3A200057796B7279A2
:1000C000746F20737465726F77616E6965207A3A18
:1000D0002000204D3A00444247204155544F2052C1
:1000E0003A0037393335353733353700FF4142432E
:1000F000440000004344454748494A352B63706932
:100100006E3F00000000000000002B636E6D693D33
:10011000322C312C322C31002B6D6F72696E673DA1
:100120003100000000002B636C69703D310000005D
:10013000000000002B646465743D312C31302C319B
:1001400000002B63616C6D3D310000000000000079
:100150002B6372736C3D31000000000000002B63C4
:100160007573643D31000000000000002B63706275
:10017000773D32362C22312200002B636C74733DA4
:1001800030000000000000002B636D69633D302CDF
:100190003135002B636D6764613D36002B637069F8
:1001A0006E3D223139373622002B6966633D322C91
:1001B00032002B63706D733D22534D222C22534D20
:1001C000222C22534D22002B6364736362002B6345
:1001D000636C6B3F002B636F70733F002B63706227
:1001E000723D3236002B637265673F002B6373717B
:1001F000002B7674733D3100610068002B434D5431
:10020000493A002B636D67643D002B636D67723D57
:10021000002B636D67733D002B435553443A002B0D
:10022000434D54493A002B44544D463A002B434C1D
:1002300049503A003E002B434D47523A002B434F62
:1002400050533A002B435245473A002B4353513AFF
:10025000002B4350494E3A205245414459002B430C
:10026000434C4B3A00206F3A200057796B727974F7
:100270006F20737465726F77616E6965207A3A20BA
:10028000004E6F74696679204F4E3A20004E6F74AD
:10029000696679204F4646004E6F74696679204F33
:1002A0004646004E6F74696679204F4E3A20002012
:1002B0004D3A0020523A0020533A0020433A00556C
:1002C0003A002B534D53200044544D4600434C49B3
:1002D0005000505542200050524956200044424799
:1002E0002000303031414520426C61642050616D06
:1002F00069656369004445425547204552523A209A
:1003000042414420434F4445007777772E736F6E08
:1003100066792E706C00576C61637A79204F555462
:10032000206E613A200057796C61637A79204F55CD
:1003300054207A613A200057796C61637A6F6E7944
:100340002028426973746162696C6E79290A0057CA
:100350006C61637A6F6E7920284269737461626997
:100360006C6E79290A00437A6173204F55543A2004
:10037000002044544D460020534D530020534D530C
:100380000020434C495000537465726F77616E6969
:10039000653A20005075626C69637A6E790A005084
:1003A00072797761746E790A00547279623A20002A
:1003B000557A79746B6F776E6963792000557A7915
:1003C000746B6F776E6963793A2000506F7A696F4A
:1003D0006D2047534D3A200041432D323030302DAF
:1003E00044544D462D460A002B435553443A002BA6
:1003F000434D53204552524F523A002B434D452016
:100400004552524F523A0042555359004E4F2044E4
:1004100049414C544F4E45004E4F204341525249A2
:100420004552002B434D54493A002B44544D463A13
:10043000002B434C49503A004D4F20434F4E4E4500
:1004400043544544004D4F2052494E4700455252B7
:100450004F52002B434D47533A0054727962207338
:1004600065727769736F777920616B7479776E79CC
:10047000004F4646004F4E004F464600414C4C0050
:10048000433344340004434F44450000000000035C
:100490004144440000000000000344454C000000BB
:1004A000000000045858585800000000000652454B
:1004B000504F5254000000045553455200000000B4
:1004C00000044F50454E000000000005434C4F53C0
:1004D000450000000004434C4950000000000004A7
:1004E00044544D46000000000003534554000000F2
:1004F0000000000454494D45000000000006534B25
:100500005259424100000005444542554700000051
:100510000003535542000000000000054D594E55A0
:100520004D00000000045553534400000000000338
:10053000434F4E000000000000024F4E000000003C
:1005400000000005544F474C450000000003525383
:100550005400000000000008534D5320434C495004
:100560000003534D53000000000000045354414E5B
:100570000000000000045445434800000000000350
:100580005359530000000000003031323334353607
:100590003738392B2A232121003031323334353694
:1005A000373839414243444546003F3F3F3F3F3F94
:1005B0003F3F3F3F0A3F3F0D3F3F3F3F3F3F3F3FB2
:1005C0003F3F3F3F3F3F3F3F3F3F20212223022508
:1005D000262728292A2B2C2D2E2F30313233343543
:1005E000363738393A3B3C3D3E3F00414243444573
:1005F000464748494A4B4C4D4E4F50515253545523
:10060000565758595A3F3F3F3F113F6162636465F7
:10061000666768696A6B6C6D6E6F70717273747502
:10062000767778797A3F3F3F3F3F3F3F3F3F3F3FBD
:100630003F3F3F3F3F3F3F3F3F3F3F3F3F3F3F3FCA
:100640003F3F3F3F3F3F3F3F3F3F3F403F0124034E
:100650003F5F3F3F3F3F3F3F3F3F3F3F3F3F3F3F8A
:100660003F3F3F3F3F3F3F3F3F603F3F3F3F5B0E8E
:100670001C093F1F3F3F3F3F3F3F3F5D3F3F3F3FE5
:100680005C3F0B3F3F3F5E3F3F1E7F3F3F3F7B0F47
:100690001D3F04053F3F073F3F3F3F7D083F3F3F32
:1006A0007C3F0C063F3F7E3F3F3F40A324A5E8E947
:1006B000F9ECF2C70AD8F80DC5E53F5F3F3F3F3F71
:1006C0003F3F3F3F3F3FC6E6DFC920212223A4250D
:1006D000262728292A2B2C2D2E2F30313233343542
:1006E000363738393A3B3C3D3E3FA14142434445D1
:1006F000464748494A4B4C4D4E4F50515253545522
:10070000565758595AC4D6D1DCA7BF616263646595
:10071000666768696A6B6C6D6E6F70717273747501
:10072000767778797AE4F6F1FCE011241FBECFEFFA
:10073000D8E0DEBFCDBF12E0A0E0B1E0E4ECF2E72C
:1007400002C005900D92A832B107D9F728E0A8E2BF
:10075000B2E001C01D92A331B207E1F70E946331FC
:100760000C9435390C940000CF93DF930F92CDB7E2
:10077000DEB7CE018251984097FD0BC02091000159
:10078000309101018217930720F490930101809327
:1007900000010F90DF91CF910895CF93DF93CDB7F4
:1007A000DEB7A5970FB6F894DEBF0FBECDBF8DA301
:1007B00090E080E02DA1280FE1E0F0E0EC0FFD1FBC
:1007C000E80FF91F208301968432910599F7A596C9
:1007D0000FB6F894DEBF0FBECDBFDF91CF910C9462
:1007E000B403CF93DF93CDB7DEB7AD970FB6F894D0
:1007F000DEBF0FBECDBF8DA790E080E02DA52827DE
:10080000E1E0F0E0EC0FFD1FE80FF91F20830196F7
:100810008C32910599F799818DA5890F0E94CD039E
:10082000AD960FB6F894DEBF0FBECDBFDF91CF916E
:100830000C94B403CF93DF93CDB7DEB7E4970FB634
:10084000F894DEBF0FBECDBF21E090E080E0E1E094
:10085000F0E0EC0FFD1FE80FF91F208301962D5FDC
:1008600084339105A1F78E810E94F103E4960FB6BF
:10087000F894DEBF0FBECDBFDF91CF910C94B403CF
:10088000CF93DF93CDB7DEB7C054D1090FB6F8943C
:10089000DEBF0FBECDBF90E080E027E0280FE1E093
:1008A000F0E0EC0FFD1FE80FF91F20830196803464
:1008B000910599F70E941A04C05CDF4F0FB6F894B7
:1008C000DEBF0FBECDBFDF91CF910C94B403109269
:1008D000500210924F0210924E02089580916802C9
:1008E00095EB980F8C5E943108F083E30C946B2A9F
:1008F0008091890290918A028F3F980729F0019692
:1009000090938A02809389028AE080933A0210923F
:1009100039021092BB030E94670483E30C946B2A94
:10092000CF93DF93D0E0C0E06FEFCE010E94BA30EA
:100930000E94D7308823E1F3CE018F709927892B4D
:1009400009F4A8952196CD3E84E3D80769F7DF9195
:10095000CF910895BC018EEE93E00C946E358FEF2D
:100960009FE80197F1F700C000008FEF9FE8019723
:10097000F1F700C000008FEF9FE80197F1F700C08A
:1009800000008FEF9FE80197F1F700C000008FEFA4
:100990009FE80197F1F700C00000A89508958091A5
:1009A0007D028F5F843618F480937D020895109243
:1009B0007D0280917C0291E0811190E090937C0215
:1009C000811102C040980895409A08958091D20301
:1009D000807F11F4409A08954098089578940F927A
:1009E0000FB60F921F9211242F938F939F93EF9323
:1009F000FF93809131028F5F80933102823128F022
:100A0000109231028FEF809333024B9B57C000B698
:100A100001FC16C080919502811112C010928505CB
:100A2000109284051092940580B7826080BFF8947C
:100A30008091C10080688093C10078940000439841
:100A400032992FC0F8948091C10086FF29C080910F
:100A5000C1008F7B8093C100789480919602882397
:100A6000C9F080919402811104C0809168028D3296
:100A700089F4109296028091880590918905FC0175
:100A8000EF5BF94F2081019690938905809388054B
:100A90002093C600F8948091C10080648093C100C7
:100AA00078948FEF80933402FF91EF919F918F9113
:100AB0002F911F900F900FBE0F901895439AF894A6
:100AC0008091C1008F738093C10080B78D7F80BFFC
:100AD00078940000E6CF0F931F93CF93DF938C01A0
:100AE000DC01CD91DC914FE050E068ED73E0CE0188
:100AF0000E942D356BEC73E0CE010F960E944135BC
:100B000080910B01803210F5909130029923F1F021
:100B10006B96B4E68B9FC00111246FE170E00E94D8
:100B2000C832CB014AE0BE010E94FF350990002087
:100B3000E9F7FE01319785E281931082D801ED93A8
:100B4000FC93DF91CF911F910F9108958DE28B8FD0
:100B50008C8FFE017E968D8FF0CF8F929F92AF92F9
:100B6000BF92CF92DF92EF92FF920F931F93CF939A
:100B7000DF938C01FC01C081D1816DEB73E0CE016C
:100B80000E94413509900020E9F7219788E0882EDE
:100B9000912CD12CC12CF12CE12CB12CA12CC60113
:100BA0008F719927892B21F4C114D10409F0A895DC
:100BB000C4010E940C318F3F91F1FFEFAF1ABF0AC1
:100BC000EFEFCE1ADE0AF5E08F0E911C84ECC8160A
:100BD00089E0D80621F74AE0BE01C5010E94FF3531
:100BE00009900020E9F721978FE289934AE0BE013E
:100BF000C7010E94FF3509900020E9F72197F8010D
:100C0000D183C083DF91CF911F910F91FF90EF901F
:100C1000DF90CF90BF90AF909F908F9008958FEF0F
:100C2000E81AF80ACDCFCF92DF92EF92FF920F939E
:100C30001F93CF93DF938C01FC01C081D1814CE0E5
:100C400050E060EB73E0CE010E942D352C9688E0D9
:100C5000E82EF12CD12CC12CC7010E940C318F3F02
:100C600059F1C394F5E0EF0EF11C8CEDE81680E32A
:100C7000F80691F74AE0BE018C2D90E00E94FF3506
:100C800009900020E9F721978FE289934AE0BE019D
:100C90008D2D90E00E94FF3509900020E9F7219703
:100CA000F801D183C083DF91CF911F910F91FF9005
:100CB000EF90DF90CF900895D394D4CFAF92BF92AE
:100CC000CF92DF92EF92FF920F931F93CF93DF9318
:100CD00000D0CDB7DEB7A89580EA95E09A838983E6
:100CE000CE0101960E946B05E981FA81CF01019640
:100CF0009A8389831AE01083E981FA811082CE01F8
:100D000001960E94AD05E981FA81CF0101969A838F
:100D100089831083E981FA81108269EA73E089810D
:100D20009A810E94413589819A8106969A838983A6
:100D3000209102016FE973E0222311F064E973E06E
:100D40000E94413589819A81FC0101900020E9F7D8
:100D5000CF0101979A83898367E873E00E94413548
:100D600089819A810C969A83898320910801222394
:100D700009F46CC061E873E00E94413589819A8171
:100D8000FC0101900020E9F7CF0101979A83898344
:100D9000209107016CE773E0211160C0E981FA81BD
:100DA000CF0101969A8389838AE08083E981FA8161
:100DB000108209811A81F80101900020E9F78F0162
:100DC000015011091A830983C0900301D0900401D6
:100DD000E0900501F0900601FFE9CF16F6E8DF0686
:100DE000F1E0EF06F10409F046C066E673E0C801E1
:100DF0000E94413589819A810A969A83898320913C
:100E0000AE026FE473E0211102C067E373E00E9459
:100E1000413589819A81FC0101900020E9F7CF01D9
:100E200001979A83898369E073E089819A810E949E
:100E300041350F900F90DF91CF911F910F91FF904F
:100E4000EF90DF90CF90BF90AF9008952091070171
:100E500067E773E0211102C061E773E00E9441354A
:100E600089819A81FC0101900020E9F7CF01019767
:100E70009A83898393CF8091AE0266E173E08823E1
:100E800091F06091DC037091DD038091DE0390911D
:100E9000DF032AE030E040E050E00E94DC326901EC
:100EA0007A0166E273E0C8010E944135E981FA8166
:100EB00001900020E9F7CF0101975C019A838983B3
:100EC000C701B60120E13EE040E050E00E94DC3284
:100ED000CB016CE370E00E94B432F62E082F1AE0CA
:100EE000822F612F0E94A832E92E4AE0B50190E0DE
:100EF0000E94FF3569817A81FB0101900020E9F7AA
:100F0000BF01615071097A8369834AE08E2D90E0B8
:100F10000E94FF35E981FA8101900020E9F7DF01A5
:100F20001197FA83E98388E68C93E981FA81CF01EE
:100F300001969A8389838AE3E82EE08229813A81A7
:100F40008F2D612F0E94A832F92E4AE0B90190E05E
:100F50000E94FF3569817A81FB0101900020E9F749
:100F6000BF01615071097A8369834AE08F2D90E057
:100F70000E94FF35E981FA8101900020E9F7DF0145
:100F80001197FA83E9838DE68C93E981FA81CF0189
:100F900001969A838983E08229813A81802F612F8B
:100FA0000E94A832092F4AE0B90190E00E94FF3563
:100FB00069817A81FB0101900020E9F7BF0161504E
:100FC00071097A8369834AE0802F90E00E94FF359F
:100FD000E981FA8101900020E9F7DF011197FA8396
:100FE000E98383E78C93E981FA81CF0101969A83A3
:100FF00089831083E981FA81108215CF1092AE02A5
:101000001092DC031092DD031092DE031092DF03D6
:101010005D9808958091410290914202892BA1F53B
:101020008AE090E090934202809341022091030174
:101030003091040140910501509106012F3986E855
:10104000380781E04807510581F481E09091AE02B4
:10105000911180E08093AE021092DC031092DD03C8
:101060001092DE031092DF0308958FEF8093AE029B
:10107000AAE0B0E00E9404336093DC037093DD03C8
:101080008093DE039093DF0308950895AF92BF929B
:10109000CF92DF92EF92FF920F931F93CF93DF9344
:1010A000CDB7DEB766970FB6F894DEBF0FBECDBFE3
:1010B0000E94B40310929E07A8958FEF8093500270
:1010C00010924F0210924E0280E897E00E94902703
:1010D000182F80914A02811149C08091970204E63D
:1010E000602F0E94A8321F929F93809198020E94C5
:1010F000A8321F929F93809199020E94A8321F925A
:101100009F9385E191E09F938F931F9289E08F9346
:101110008CE091E09F938F930E9419368091970203
:10112000602F0E94A8321F929F93809198020E9484
:10113000A8321F929F93809199020E94A8321F9219
:101140009F9384E291E09F938F931F928EE18F9300
:101150008BEB97E09F938F930E9419368FE90E9443
:10116000592A0FB6F894DEBF0FBECDBF10924A02C7
:1011700080912B02811110922B028CEF810F823013
:10118000D8F4809191028C30B8F00E946E040E94D5
:1011900078040E94670466960FB6F894DEBF0FBE0F
:1011A000CDBFDF91CF911F910F91FF90EF90DF9016
:1011B000CF90BF90AF90089580915F02882311F087
:1011C000193019F7E1EBF7E020E090E081918823F6
:1011D00029F02F5F8457823008F49F5F87E0EB3B54
:1011E000F807A1F7233208F4F1C0193071F667E966
:1011F00073E08CEB92E00E94C435CE01825198409E
:101200007C010E94B40308E010E0D12CC12CC8017D
:101210000E940C318F3F19F09FEFC91AD90A0B5F5A
:101220001F4F0C3DE0E31E0791F78091C003882318
:10123000F1F060EC73E0FB0101900020E9F7BF01E1
:10124000615071094DED57E080EC93E00E94C42A93
:1012500008E010E0B8018DED97E00E94912B81111C
:101260004DC10B5F1F4F0C3DF0E31F0799F7A12CF9
:10127000809197038823F1F067E973E0FB01019007
:101280000020E9F7BF01615071094DED57E087E992
:1012900093E00E94C42A08E010E0B8018DED97E0C9
:1012A0000E94912B81112DC10B5F1F4F0C3DF0E36C
:1012B0001F0799F7B12C6DED72E080EA95E00E946E
:1012C00041358091020162ED72E0811102C067ED4B
:1012D00072E084EA95E00E94413504EA15E0F801E5
:1012E00001900020E9F78F01015011098091080158
:1012F00068EC72E0882311F06DEC72E0C8010E9486
:101300004135F80101900020E9F78F0101501109E2
:1013100080910701882309F4F7C062EC72E0C801EC
:101320000E9441350B5F1F4F6FEB72E0C8010E94B6
:1013300041350E5F1F4F4AE0B801C6010E94FF35DC
:10134000F80101900020E9F78F01015011096BEBC2
:1013500072E0C8010E94413580E3A11081E3F801E9
:10136000838367EB72E0C80104960E94413580E3F5
:10137000B11081E3F801878363EB72E0C80108963E
:101380000E944135055F1F4F4AE0B801C7010E9426
:10139000F435F80101900020E9F78F01015011099F
:1013A0006FEA72E0C8010E9441350D5F1F4F4AE0AD
:1013B000B80180910001909101010E94FF35F80170
:1013C00001900020E9F73197108228C0963008F08C
:1013D0000CCF113108F0DDCEE12FF0E0E95CF64CE6
:1013E0000C94FE3267E471E080E897E00E94DA3501
:1013F000892B41F46DE471E080E897E00E94DA35D2
:10140000892BB9F067E973E08CEB92E00E94C43558
:1014100065EF72E080EA95E00E94413584E70E9422
:10142000592A82E080933A02109239021092BB034B
:10143000B0CE80910701882309F4ABCE80910201E0
:10144000813009F167E973E0FB0101900020E9F7C1
:10145000BF0161507109AE014F5F5F4F87E993E0B3
:101460000E94C42A08E010E0B801CE0101960E9453
:10147000912B811108C00B5F1F4F0C3DF0E31F073C
:1014800099F781E0CFCF80912A028111FACF67E9E5
:1014900073E080EC93E00E94C4350E940A08F1CF0B
:1014A00080912902811115C080912A02882389F038
:1014B00062EE72E080EA95E00E94413567E973E0F0
:1014C0008CEB92E00E94C43584E70E94592A84E1A3
:1014D000A9CF809191028F5F8093910282EC91E07D
:1014E0009093900280938F0267E973E08CEB92E017
:1014F0000E94C435A8950E945E0690CFAA24AA94A3
:10150000B7CEBB24BA94D7CE80E2F80181938F0185
:101510000BCF809191028F5F8093910282EC91E0DA
:101520009093900280938F0267E973E08CEB92E0D6
:101530000E94C43568EA73E0FB0101900020E9F7DE
:10154000BF0161507109AE014E5E5F4F88EA93E0C2
:101550000E94C42A08E010E0B801CE0142960E9421
:10156000912BF82E81113CC00B5F1F4F0C3DF0E317
:101570001F0791F741E1BE016F5F7F4FCE01429699
:101580000E940D2BBE016F5F7F4F80EA95E00E94A5
:10159000C43563E571E080EA95E00E94A53566E513
:1015A00071E0F11002C069E571E080EA95E00E9407
:1015B000A53584E70E94592A82E080933A0210926E
:1015C00039021092BB038091DB079091A402892B12
:1015D0009091DC07892B09F0DCCD0E946131D9CDD7
:1015E000FF24FA94C7CF67E973E08CEB92E00E9486
:1015F000C43568E771E080EA95E00E94C4350ECFFB
:10160000809191028F5F8093910282EC91E09093A0
:10161000900280938F0267E973E08CEB92E00E9466
:10162000C43510929603109295038AE2F8CE67E9CA
:1016300073E08CEB92E00E94C435109296031092F6
:10164000950389E2ECCE63E282E00E94A22A811136
:10165000A0CD89E180933A02109239021092BB0327
:101660000E94900483E00E94592A93CD67E973E0B9
:101670008CEB92E00E94C4358091A202882331F065
:1016800080919F0763EA72E0811114C068E972E0FB
:10169000C1CE67E973E08CEB92E00E94C4356DE83F
:1016A00072E0B8CE67E973E08CEB92E00E94C4353B
:1016B00061E872E080EA95E00E9441356FE977E0E9
:1016C00080EA95E00E94A535A9CE61EA71E087E93C
:1016D00093E00E94DA35892B09F454C0409143020B
:1016E00050914402609145027091460240348DE071
:1016F000580783E06807710508F040C080E49DE06A
:10170000A3E0B0E0841B950BA60BB70BBF93AF9380
:101710009F938F931F9283E08F938DE08F9380E44C
:101720008F937F936F935F934F931F9285E18F9376
:101730001F9286E08F931F928DE18F938EEA91E046
:101740009F938F9380EA95E09F938F930E944936F1
:1017500067E973E08CEB92E00E94C43584E70E9455
:10176000592A82E080933A02109239021092BB0308
:101770000FB6F894DEBF0FBECDBF0BCD80E090E07A
:10178000DC01C4CF85E04ECE83E04CCE80917B025D
:101790009091DB0390FF06C0883C88F48F5F8093B4
:1017A0007B020895883C60F063E282E00E94A22AF6
:1017B000811103C083E00E94592A10927B02089590
:1017C0008233D8F363E282E00E94A22A8111F5CF2E
:1017D00082E0F1CFCF93DF9380912A02882321F01A
:1017E00080912902882389F18091080181112FC0FD
:1017F00080910701811129C080910201813021F47B
:101800008FEFDF91CF9108958091C0038823E9F095
:1018100060EC73E0FB0101900020E9F7BF0161502B
:1018200071094DED57E080EC93E00E94C42AC8E0B6
:10183000D0E0BE018DED97E00E94912B8111E0CFA9
:101840002596CC3DF0E3DF07A1F780E0DACF809169
:1018500002018130A9F28091C0038823B1F360ECCA
:1018600073E0FB0101900020E9F7BF0161507109AD
:101870004DED57E080EC93E00E94C42AC8E0D0E030
:10188000BE018DED97E00E94912B8111B9CF259675
:10189000CC3DF0E3DF07A1F7D8CF8CE380936A0259
:1018A000109263021092620210925C0210925D022A
:1018B0001092510280918E02882309F456C08091C3
:1018C0009F07882309F44FC06FE977E08CEB92E023
:1018D0000E94C4356AE672E080EA95E00E944135D4
:1018E00060EC73E080EA95E00E94A53565E672E061
:1018F00080EA95E00E94363580EA95E0FC0101908F
:101900000020E9F7CF01815A9540FC01E056FA4FDB
:1019100090910C019083E1E0E80FF0E0E056FA4F7F
:1019200090910D019083E2E0E80FF0E0E056FA4F6D
:101930009AE39083E3E0E80FF0E0E056FA4F9091ED
:101940000F019083E4E0E80FF0E0E056FA4F909149
:10195000100190838B5FE82FF0E0E056FA4F108281
:1019600084E70E94592A10928E021092C0030895B3
:101970008CE380936A021092280208951092EB0380
:101980001092630210926202109267021092660235
:1019900010926802109283058CE380936A02109281
:1019A0005F0208950E94BE0C1092670210926602B8
:1019B0001092680210929F051092B903109283054D
:1019C0001092EA03109264021092280210926002B0
:1019D00008950E94D20C86E980930A011092940225
:1019E0001092930210925802109257021092B10274
:1019F00010925602109255021092510210926502F6
:101A000083E680930B0162E78FE50E947F2A6FE3F4
:101A10008BE20E947F2A69E480E40E947F2A66E7C5
:101A200084E70E947F2A10923002089580919502E7
:101A30008D3051F410925E021092280210925F02D3
:101A400086E480936A02089580919502863059F564
:101A500020915E022F5F20935E0280919D02909103
:101A60009E02853032E0930761F08A3331E09307BC
:101A700041F0833032E0930721F080519240029789
:101A800070F48CE380936A0280915F02223080F1CF
:101A900010925E021092280210925F0208958CE369
:101AA00080936A02F5CF80919502843021F58CE312
:101AB00080936A02109283058091F0038E3331F493
:101AC00080918405909185050A9720F080915F02AE
:101AD000811107C010925E02109228020E94E90C48
:101AE000DBCF90915E029F5F90935E02923080F612
:101AF0000E94592AD1CF809195028530B9F4809106
:101B00009F029091A0028A30910539F09C012D7FAF
:101B10002D30310511F04E9769F410925E028CE37E
:101B200080936A02109228020C94E90C809195022D
:101B30008091950208950F931F93CF93DF93D091D7
:101B40009502C0916802CF3309F4C7C008F070C095
:101B5000C63309F429C238F5C03309F4C8C288F481
:101B6000CD3209F4B4C0CF3209F437C11092670204
:101B70001092660210926802DF91CF911F910F912F
:101B80000895C33309F44DC1C53381F7D13009F449
:101B9000B5C28091BA038F5F8093BA03833008F097
:101BA000ADC28C2F7BC1CA3309F49FC188F4C733FF
:101BB00009F402C2C833D1F688E3D13009F0F6C087
:101BC00081E00E944D0C109264021092EB03CECF84
:101BD000CC3309F467C108F49CC1CE3339F6D13057
:101BE00029F684E492E00E94AA04FC01892B09F4FE
:101BF000BDCF27812C3209F06CC1379680818C32A1
:101C000029F081818C3209F066C131964AE050E0BA
:101C100070E060E0CF0101960E941E33662329F038
:101C20008DEF860F823008F058C10E94E90C9ECFDC
:101C3000CB3458F5C73408F0A9CFC23409F4A6CF85
:101C4000E8F4C03409F494C0C13409F08FCF80E3C4
:101C5000D13009F4ABC0D63009F002C180919D02A9
:101C600090919E028A3321E0920721F085309240C4
:101C700009F07CCF84E180936A02D5C0C33409F4B3
:101C8000F1C0C53409F482CF71CFC33790F4CF359A
:101C900008F4C2C1D63009F000C280919D02909133
:101CA0009E028134914009F4FBC18C2F0E94592A75
:101CB000FCC1C73709F4FBC1CE3909F057CF84E323
:101CC00092E00E94AA04892B09F0AFCF5FCF8EE289
:101CD0000E94592A1092520249CFD13009F046CFC2
:101CE0008EE592E00E94AA04009709F43FCF62E2D9
:101CF00070E00E94B035009709F438CFEC012196CE
:101D000062E270E0CE010E94B0358C01892B09F4AB
:101D10002DCF6CE270E0CE010E94B035009709F43F
:101D200025CFEC012196C017D10708F01FCF6AE339
:101D300070E0CE010E94B035009709F417CF8017EC
:101D4000910708F013CFFE0101900020E9F73197C9
:101D5000EC1BFD0B389708F409CF88E0FE01ACE0DE
:101D6000B1E001900D928A95E1F710921401FECE38
:101D7000D13099F481E592E00E94AA04892B59F0B0
:101D80008FEF809393021092A10283E30E94592A5D
:101D900010927A02EBCE8FE2F9CFD53051F48091D8
:101DA0009F029091A0020E9731F480E40E94592A7C
:101DB000DDCED43021F0809195028038B1F780914A
:101DC0007A028F5F80937A02843118F00E94E90CC6
:101DD000DFCF84E180936A02E8CFD13061F48FEFE6
:101DE000809393021092A10283E30E94592A82E316
:101DF00080936A02BBCED53079F480919F02909196
:101E0000A0028031910521F48FEF8093A102AECE24
:101E10000E9721F48FE2CACFD430E1F3809195027E
:101E2000F9CFD13011F481E4C1CFD63089F480915B
:101E30009D0290919E028A3321E0920721F0853025
:101E4000924009F093CE8CE380936A0283E3AECF95
:101E5000D430E1F380919502803809F087CEF6CF37
:101E60008AE009CFD13049F0D53081F480919F02CA
:101E70009091A0020397029748F4809165020E9416
:101E8000592A109265021092BA030AC08091BA03CF
:101E90008F5F8093BA03833018F483E40E94592A39
:101EA00082E0A6CFD13089F48BE492E00E94AA04AC
:101EB000009709F45BCE4AE050E070E060E00696DF
:101EC0000E941E3360930B0151CE83E680930B0179
:101ED0004DCE389693CE329699CE6B7F613009F015
:101EE00045CE8FEF8093300241CED13049F0D530CE
:101EF00051F480919F029091A0024597029718F4A7
:101F00001092580233CE809158028F5F809358020E
:101F10002DCED13009F042C046E050E06DE372E0D2
:101F200080EF93E00E946035892BC1F58DE392E04C
:101F30000E94AA046CE270E00E94B035009771F133
:101F40006CE270E00E94B035009741F162E270E00F
:101F50000E94B035009711F18C010F5F1F4F62E2B4
:101F600070E0C8010E94B0350097C1F0081719074A
:101F7000A9F0801B910B8C30910514F08BE090E060
:101F8000EC01DD27AE01B80181EB92E00E949535AE
:101F9000CF54DD4F188210925702E8CD809157023E
:101FA0008F5F80935702E2CDD63009F479CF86E374
:101FB000D13009F475CF72CFD13021F080919502E4
:101FC0008C30A1F48FEF809364021092BA03809159
:101FD00008018111CBCD8CE291E090934002809377
:101FE0003F0284E180936A0286E4E0CED43021F09F
:101FF00080919502803849F48091BA038F5F809375
:10200000BA03833010F487E3D1CED33011F41092A9
:1020100064021092BA03AACDD130A9F586E392E00A
:102020000E94AA046AE070E00E94B035009741F176
:10203000EC0121966DE070E0CE010E94B035009772
:10204000F9F08C1B9D0B97FD019695958795893C22
:10205000A8F4809361024DEC52E060916102CE01E0
:102060000E94872D83E70E94592A809168028C5E26
:102070000E94592A8FEF8093600278CD88ECE9CFD7
:102080001092600273CDD63021F0109260028CE382
:10209000AFCE8C2F0E94592AF8CFD43009F405CE48
:1020A00080919502803809F400CE89E1A1CED43028
:1020B00029F080919502803809F0ABCF1092EB03A4
:1020C0008091BA038F5F8093BA03833010F487E75F
:1020D0006DCE1092BA0380E00E944D0C1092640203
:1020E0001092EB0310926302109262023FCDD13046
:1020F00029F080E30E94592A84E17ACE809165021A
:102100000E94592A809165028B54843108F0B9CE1F
:1021100010926002B6CE0F931F93CF93DF938091FE
:10212000950280919502803821F080916902882380
:1021300081F080E8809395020E949B0D82E380935A
:102140006A028FEF80936902DF91CF911F910F9107
:10215000089580919502813829F520917F0530916D
:10216000800580918405909185052817390761F4D1
:1021700040917F055091800561E476E08EEE93E01A
:102180000E948835892B01F3809183058111DCCF72
:1021900080E8809395028FEF8093690282E38093B9
:1021A0006A02D2CF809195028A3009F044C0109221
:1021B000C0038DE292E00E94AA0462E270E00E94F5
:1021C000B035009739F18C010F5F1F4F62E270E06C
:1021D000C8010E94B0350097E9F0EC01C01BD10B9B
:1021E000C031C0F4DD27AE01B80180EC93E00E945D
:1021F0009535C054DC4F188280915702811110929E
:10220000570280910B01882311F0833619F480E185
:1022100080930B0189E30E946B2A809168028B54A2
:10222000843110F4109260021092670210926602DC
:102230001092680289CF80919502833089F480E002
:102240000E944D0C109264021092EB0310926302F4
:102250001092620280916802873709F075CFE4CF4F
:1022600080919502823039F5809168028737D1F4E8
:102270000E949B0D809168028737A1F480915C02D7
:1022800081110BC08AE580935D028FEF8093EB0391
:10229000109263021092620257CF80935D021092F7
:1022A0005C02F3CF1092C00389E3DF91CF911F91BD
:1022B0000F910C946B2A86E292E00E94AA04009788
:1022C00099F0FC01379681918032E9F390910801F1
:1022D000911107C0813329F40E940A088BE0809392
:1022E000BB031092950230CF809195028C3071F42F
:1022F00080910801882309F427CF1092640288E3B3
:10230000DF91CF911F910F910C94592A80919502E2
:10231000893061F480916802873711F40E949B0D27
:1023200080E00E944D0C1092EB03B2CF8091950299
:10233000873081F380919502883029F58FE192E012
:102340000E94AA046CE270E00E94B0350097A1F0F0
:102350004AE050E070E060E001960E942E349B015C
:10236000215031092431310538F48AE4860F0E9466
:10237000592A81E080936A02809168028B548431EB
:1023800008F0E2CE4FCF809195028E3009F04CC01C
:1023900084E180936A02809168028B54843140F416
:1023A0001092600210926702109266021092680208
:1023B00088E192E00E94AA0462E270E00E94B035D7
:1023C000009709F4C1CE8C010F5F1F4F62E270E0ED
:1023D000C8010E94B035009709F4B6CE2091490299
:1023E000222309F4B1CEEC01C01BD10BC13AD105B7
:1023F00010F0C0EAD0E0AE01B80180EA95E00E949A
:10240000CB35C056DA4F188267E973E08CEB92E067
:102410000E94C43584E70E94592A10924902109202
:1024200048021092470290CE80915F0281110E9473
:10243000160D8091840590918505892B09F484CE31
:1024400080919502882309F47FCEDF91CF911F916F
:102450000F910C949B0DCF93C82FC901C11106C0D9
:10246000862F0E94592A8C2FCF91089510926702CF
:102470001092660260936802409365020E94722186
:10248000CFEFF1CF0F93CF93DF939FEF909383051F
:102490001092EA0381114BC085E080933A021092BA
:1024A00039021092BB0384E780935F029093CD02C0
:1024B0004AE06DED77E08DEC92E00E940D2B00E09C
:1024C00020E04DED57E06CEB72E08DEC92E00E9465
:1024D000C82E40EA55E0FA0101900020E9F7AF016B
:1024E0004150510960EA75E00E94102D8D5C9240C8
:1024F00080936102C0916102C1508091CD02C81BDE
:1025000046E050E061E172E083E496E00E942D3500
:102510004AE069E476E08C2F90E00E94FF358AEF74
:1025200080930901DF91CF910F910C948F2185E069
:1025300080933A02109239021092BB0385E7809390
:102540005F020091A0059093CD024AE06DED77E027
:102550008DEC92E00E940D2B20E04DED57E06CEBEE
:1025600072E08DEC92E00E94C82EEC014091A10532
:1025700050E062EA75E00E9495358091A1058C0FCC
:102580009D2F911DB3CFEF92FF920F931F93CF9387
:10259000DF9300D00F92CDB7DEB73091600280910B
:1025A000EB035091680290916A0240915F02432BC5
:1025B000482B20916402242B252B292BC9F56091EF
:1025C000830521E0611101C020E0211132C060913A
:1025D000C10066FD2EC060919402662351F16091A6
:1025E000950201E0611125C01091B107E12EF12C97
:1025F0001E3309F465C208F06BC0133309F466C3D7
:1026000030F51E3209F446C3B0F41C3209F4FCC2A2
:1026100008F013C31B3209F46FC380E00F900F90D2
:102620000F90DF91CF911F910F91FF90EF90089540
:1026300021E000E0D9CF103309F4D6C208F434C346
:10264000113309F479C3123341F78FEFE7CF183311
:1026500009F4B7C1B0F4163309F4B9C208F0C0C127
:102660001533D9F68091DB079091A402892B9091C4
:10267000DC07892B21F40E946131811149C385E374
:1026800030C11A3309F43DC208F46CC11B3309F49C
:102690005AC21C3309F0C1CF4091620250916302CB
:1026A000452B61F49091AF02892B41F48091830511
:1026B00090912802892B282B09F4F4C180910B01F9
:1026C000833611F08111C1CF80E180930B01BDCF22
:1026D000133708F074C01F3508F01BC1163409F415
:1026E00093C1B0F41F3309F450C220EC210FE22F44
:1026F000F0E0EE50FF4F45915491FEE02F9F900186
:10270000112424503F4F612F802F0E942B129DCF08
:102710001B3458F380913002882309F47EC0209145
:10272000620230916302232B09F077C0942B8091D1
:102730002802982B09F071C0533309F46EC08091C0
:10274000DB079091A402892B9091DC07892B09F07B
:1027500064C00E946131882309F45FC061E081E0B8
:102760000E94A22A811159C066E784E70E94A22A2A
:10277000811153C069E387E30E94A22A81114DC0F1
:10278000002309F44AC01092670210926602109367
:1027900068028FEF8093600246E050E06AE072E0EA
:1027A00083E496E00E942D354AE069E476E0C701B3
:1027B0008A5491090E94FF350E948F2146CF163717
:1027C00009F449C080F4133701F540EB52E067E9A2
:1027D00073E08DEC92E00E94A42D009709F053C0A5
:1027E0001092600232CF193709F47EC01F3909F404
:1027F000ADC2173709F011CF20913002222319F012
:10280000992309F41AC187E76CC0209162023091C4
:102810006302232B11F4892B11F0812F62C0809168
:10282000DB079091A402892B9091DC07892BA9F7F3
:102830000E946131882389F3002379F310926702A3
:10284000109266021093680281E0153709F080E06B
:102850000E944212FACE10928305409161026DEC03
:1028600072E081E496E00E94E42E8091610290E0A3
:10287000880F991FFC01EF5BF94F2AE12083019635
:102880000E945921E2CE9E012F5F3F4FAE014E5F65
:102890005F4FBE016D5F7F4F0E94FD2D2B81209306
:1028A0009C022A8120939B02298120939A029E01F7
:1028B0002F5F3F4FAE014E5F5F4FBE016D5F7F4F99
:1028C0000E94202E2B81209399022A812093980226
:1028D0002981209397024FE160E877E00E94BB2CAA
:1028E00089E70E94592AB1CE8091DB079091A4021A
:1028F000892B9091DC07892B99F70E9461318823FD
:1029000079F310923A0282E08093BB030E9446085A
:1029100067CF4091620250916302452B09F07DCF51
:10292000832B3091AF02832B09F077CF8091830501
:10293000811173CF002309F470CF109267021092B7
:1029400066021093680246E050E063E072E083E4C0
:1029500096E00E942D354AE069E476E0C7018E5585
:10296000910928CF8091DB079091A402892B909147
:10297000DC07892B11F089E3B4CF0E9461318823F1
:10298000D1F310923A0282E08093BB030E94EA0BDB
:10299000882371F08091080190910701892B79F0CB
:1029A0008CEF91E00E94AA04892B11F40E940A087E
:1029B00088E30E94592A8FEF809351022FCE87E33C
:1029C000F8CF011102C088E38CCF109267021092F9
:1029D0006602109368028AEF91E00E94722135CE60
:1029E0008091080190910701892B69F787E3002303
:1029F00009F477CF109267021092660287E3809302
:102A0000680288EF91E0E9CF992311F086E469CF5D
:102A10008091C10086FDFACF809194028823B1F3A2
:102A200080919502582B91F71092670210926602DE
:102A30001093680281EF91E0D0CF811106CE002380
:102A400009F4E1CE109267021092660287E7809344
:102A5000680285E18093BB0384E68093430668EABD
:102A600073E084E496E00E94C43588EA93E0FC01B8
:102A700001900020E9F7CF01895A93408F5F90E0E1
:102A8000FC01ED5BF94F2BE320838C5B994FFC013C
:102A900010820E948F218CE291E0909363028093D8
:102AA0006202D3CD8CE3002309F41BCF109267029E
:102AB000109266028CE3809368028CEE91E08DCFD9
:102AC0004091620250916302452B09F0BECD909176
:102AD000AF02892B09F0B9CD80918305909128022E
:102AE000892B282B09F0B1CD8EE3002309F4F9CE10
:102AF00010926702109266021093680285EE91E0D0
:102B00006CCF4091620250916302452B59F4909131
:102B1000AF02892B39F48091830590912802892B8B
:102B2000282B19F01092580290CD8AE3002309F463
:102B3000D8CE10926702109266028AE380936802F0
:102B40008CED91E04ACF4091620250916302452B97
:102B500059F49091AF02892B39F4809183059091BB
:102B60002802892B282B19F0109257026ECD8BE387
:102B7000002309F4B6CE10926702109266028BE32E
:102B80008093680285ED91E028CF409162025091D8
:102B90006302452B09F059CD9091AF02892B09F0C2
:102BA00054CD8091830590912802892B282B09F020
:102BB0004CCD8FE3002309F494CE1092670210925B
:102BC00066028FE3809368028EEC91E006CF86E385
:102BD000002309F486CE10926702109266021093C9
:102BE000680287EC91E0F9CE80E3002309F479CE06
:102BF00010926702109266021093680282E480933A
:102C0000650282EB91E0E9CE8DE20E94592A84E1CF
:102C10008093AF021092850510928405109294055E
:102C200080B7826080BFF8948091C10080688093F3
:102C3000C10078940000439808CD80915202811120
:102C400004CD8091AF02882311F08DE24ACE8091AD
:102C5000C10086FDFACF109285051092840510926E
:102C6000940580B7826080BFF8948091C10080682D
:102C70008093C100789400004398109267021092EC
:102C800066028DE28093680284E18093520289EAB1
:102C900091E0A3CE8FEF8093940280E40E94592AA2
:102CA00088E280936A02D1CC8FE2002309F419CE26
:102CB00010926702109266028FE2809368026CE9BC
:102CC00071E083E496E00E94413576CD80917902EF
:102CD000882311F081E405CE8FEF8093790283E39E
:102CE000002309F4FECD1092670210926602109341
:102CF000680283E991E071CE0E948B108091950269
:102D0000813819F084E180930901109295029DCCDD
:102D1000002309F4B4CC109267021092660285E396
:102D20008093680268E871E083E496E00E94413590
:102D300081E38093650240CD80919302882309F45A
:102D400084CC86E30E94592A82E3CBCD8091DB07B5
:102D50009091A402892B9091DC07892B21F40E9489
:102D60006131811102C08FE9BCCD0023E1F31092E3
:102D70006702109266028FE9809368026BEB77E03E
:102D800083E496E00E94C43517CD80916A028823BF
:102D900039F0815080936A02811102C01092690259
:102DA00080912C0290912D02009729F00197909329
:102DB0002D0280932C0280913F0290914002009757
:102DC00071F001979093400280933F02892B39F470
:102DD00080916402882319F088E30E94592A809127
:102DE00052028823C1F0815080935202811113C096
:102DF0001092670210926602109268028DE20E94A1
:102E0000592A10929602F8948091C1008F7B80938A
:102E1000C100789400000E942523882319F08CE2D9
:102E20000E94592A80915D02882341F0815080934D
:102E30005D02811103C088E30E94592A80916202D9
:102E400090916302009771F00197909363028093D1
:102E50006202892B39F482E00E944D0C10926402C8
:102E60001092EB03809178028F5F80937802803319
:102E700009F04EC08CE30E946B2A8091AF02882338
:102E800019F081508093AF0280913002882309F4B9
:102E90005EC080910B01833611F0811158C0809182
:102EA000590290915A02883522E0920750F4019617
:102EB000883522E0920709F443C090935A02809328
:102EC000590280915802863020F480915702843153
:102ED00010F00E94E90C80912F02882339F0815074
:102EE00080932F02811102C00E94E90C8091300270
:102EF000811132C0809155029091560201969093B3
:102F0000560280935502813B944050F10C94E90C99
:102F1000843311F48EE3AFCF883311F48BE3ABCF5E
:102F20008C3311F48AE3A7CF803508F4A6CF8091C3
:102F3000300210927802882309F49FCF8FE39BCF51
:102F400010925A02109259020E94E90CBACF1092C4
:102F50005A0210925902B5CF1092560210925502A1
:102F6000089580919502882309F457C08BE20E944E
:102F7000592A8091EA03882329F086E70E94592A7A
:102F80001092EA0380913002882309F455C08091A1
:102F90005F02882309F450C08091760290917702F5
:102FA0000196883823E1920708F03CC0909377029D
:102FB000809376028091680290916402882309F4DC
:102FC000A8C02091750282136AC091116AC08D3227
:102FD00031F09AE8980F44EF51E0923010F440EE4F
:102FE0005EE29CE8980F923010F44CED55E0209191
:102FF0007302309174022F5F3F4F2417350708F595
:103000003093740220937302109272021092710234
:10301000809168028093750208950E94762581113F
:10302000A5CFA7CF109277021092760284E080930A
:1030300095020E94160DBECF109277021092760272
:10304000B9CF10927402109273028E3929F188332D
:1030500001F191ED980F9230E0F09BEC980F9230D7
:10306000C0F090EC980F9A30A0F095EB980F983242
:1030700080F0109265020E94D20C109267021092AA
:1030800066028EE980936802109243060E948F21A7
:10309000BBCF80936502EFCF0E94E90CB5CF992397
:1030A000C1F180919502811134C0F894809184051A
:1030B00090918505789420917102309172022817C1
:1030C000390720F49093720280937102809171020B
:1030D000909172020A9708F49BCF809173029091AD
:1030E00074020196843F21E0920728F490937402C1
:1030F000809373028DCF109274021092730281E05C
:103100000E944D0C10927202109271020E94E90C02
:103110007FCF1092740210927302992309F474CF36
:1031200077CF3F924F925F926F927F928F929F9252
:10313000AF92BF92CF92DF92EF92FF920F931F93C5
:10314000CF93DF93CDB7DEB7E1970FB6F894DEBF2C
:103150000FBECDBF9091B1078091600220915F02B8
:10316000822B2091EB03822B20916402822B2091F1
:103170006802822B20916A02822B81F48091830560
:1031800081110CC08091C10086FD08C0809194021D
:10319000882321F02091950281E0211180E099326D
:1031A00041F010E09A3209F094C08111ABC08AE27C
:1031B00003C0811104C089E20E94592A80C0809115
:1031C00028029091DB07892B9091A402892B909182
:1031D000DC07892B81F70E946131882361F38AE241
:1031E0008093A00521EAE22E25E0F22E35E0D32ED1
:1031F00043E2C42E5AE0B52E809195039091960338
:103200008F719927892B09F4A89520919503309106
:103210009603D29EC001D39E900D112408960E9461
:103220000C31182F20919503309196038F3FC1F1F7
:10323000D29EC001D39E900D112441E1B7010896A2
:103240000E946D2B8701080F111DF801C0827801C3
:10325000F2E0EF0EF11CF801B1828091950390919C
:1032600096030196909396038093950398012D5EA3
:103270003F4F2054364068F4843C994008F4BCCF5A
:10328000F801128284E70E94592A81E08093280283
:1032900016C0843C9940A0F789E20E94592AF0CFD9
:1032A0002F5F3F4F3093960320939503243C394082
:1032B00008F4A2CF20EAE21625E0F20611F41FEF8F
:1032C00008C0F701108284E70E94592A81E08093A8
:1032D0002802812FE1960FB6F894DEBF0FBECDBF56
:1032E000DF91CF911F910F91FF90EF90DF90CF90E2
:1032F000BF90AF909F908F907F906F905F904F9016
:103300003F900895809128029091DB07892B90913E
:10331000A402892B9091DC07892B09F048CF0E94E9
:103320006131882309F443CF1092A00500EA15E02B
:1033300085E0382E6E01F5E1CF0ED11CCE018696C8
:103340003C0194EE492E91E0592EFE0131967F0109
:103350008090950390909603F4EC8F16F9E09F0609
:1033600028F0005A154009F08DCFA9CFC4018F7104
:103370009927892B09F4A895389C5001399CB00CE9
:10338000112448E0A40EB11CC5010E940C318F3FEE
:1033900009F468C08FEF881A980A41E1B601C501A7
:1033A0000E946D2BF60101900020E9F73197EC198E
:1033B000FD09B601EA3018F039976E0F7F1FC3017F
:1033C0000E94C4357F926F929F928F925F924F922C
:1033D000FF92EF920E944936F70101900020E9F731
:1033E0003197EE19FF09E00FF11F0FB6F894DEBF19
:1033F0000FBECDBFE054F64040F1E5E0003A1E07B5
:10340000C1F4B70180EA95E00E94C4358AE20E94C7
:10341000592A84E70E94592A81E0809328028091EA
:10342000950390919603019690939603809395034C
:1034300046CF8AE20E94592A84E70E94592A81E0F5
:1034400080932802F80110823ACFB701C8010E9488
:10345000C435F70101900020E9F73197EE19FF0913
:103460000E0F1F1F809195039091960301969093E4
:103470009603809395036CCF08950E94EA1F0E94E3
:10348000C60B0C949320CF93DF930F92CDB7DEB78A
:103490008091DB079091A402892B9091DC07892B06
:1034A00059F50E946131882339F1198291E08091A8
:1034B000AE02811101C090E081E04091DC035091A7
:1034C000DD036091DE037091DF03452B462B472B14
:1034D00009F480E0981711F081E0898385E090E09D
:1034E0000E940C319981891739F041E065E070E064
:1034F000CE0101960E94442C0F90DF91CF91089548
:10350000EF92FF920F931F93CF93DF930F92CDB75C
:10351000DEB70E943D1A0E94C5168091BB03882326
:1035200031F081508093BB038111DCC0409A8091BF
:103530008F0290919002009739F00197909390023A
:1035400080938F02892B11F4109291028091410295
:1035500090914202892B49F0809141029091420260
:1035600001979093420280934102809149028823FF
:10357000F1F080914702909148020097C1F00197C5
:103580009093480280934702892B89F467E973E09E
:103590008CEB92E00E94C4356BEE71E080EA95E01E
:1035A0000E94C43584E70E94592A109249028091F2
:1035B0002B02882309F491C180917002811111C0FE
:1035C00080913002882369F080916E0290916F02A1
:1035D0008A3F910508F088C0019690936F0280930E
:1035E0006E028091810281110DC0809182029091C2
:1035F00083028E31910508F07BC00196909383027F
:10360000809382028091840281110DC08091850295
:10361000909186028436910508F070C001969093CF
:103620008602809385028091B107882309F4E7C060
:103630009CE8980F923008F0DBC090918D029813AF
:10364000D7C080918B0290918C028639910508F049
:10365000A7C0019690938C0280938B0280915F02A9
:10366000882309F4BEC080917F02909180028C3241
:1036700021E0920708F0C6C00196909380028093E3
:103680007F0280915002882309F4E5C080914E02A8
:1036900090914F028436910508F0D2C080914E027D
:1036A00090914F02019690934F0280934E02809129
:1036B0003A02882309F4EAC080913902823008F482
:1036C000DBC0409A809139028F5F863008F0D6C007
:1036D000809339020F90DF91CF911F910F91FF904E
:1036E000EF900895409823CF8FEF8093700279CFA9
:1036F0000E9440048FEF8093810284CF62EE70E0DD
:103700008CEB92E00E94413580913002882309F4CD
:103710008ACF80915F029091EB03892B9091680290
:10372000892B09F080CFCE01825198407C010E9404
:10373000B40366ED70E080EA95E00E94413500EA4E
:1037400015E0F80101900020E9F78F0101501109FF
:103750004AE0B801C7010E94F435F8010190002049
:10376000E9F78F010150110962ED70E0C8010E9474
:1037700041350D5F1F4F4AE0B801809100019091E3
:1037800001010E94FF35F80101900020E9F731970F
:10379000108284E70E94592A8FEF8093840243CFDE
:1037A00065E784E70E947F2A8091870290918802D2
:1037B0008F3F980729F001969093880280938702A3
:1037C00083E30E946B2A1092910210929002109251
:1037D0008F0210928C0210928B0210928D02109226
:1037E0005F021092800210927F0210927E0249CFF7
:1037F00080938D0210928C0210928B022FCF109228
:103800008D02F8CF1092800210927F020E9467040E
:1038100010925F0210925E021092830510922802AD
:1038200080917E028F3F29F410927E020E94E90C63
:1038300028CF8F5F80937E02833008F422CFF4CFAD
:1038400010924D0282E390E090934C0280934B02E1
:103850000E9467042CCF80914B0290914C02892BDF
:1038600009F425CF80914B0290914C0201979093DF
:103870004C0280934B021BCF409824CF1092390208
:1038800080913A02815080933A0224CF8091300295
:10389000811102C0409819C08091BB038111FACFF9
:1038A00080910B018031B0F480916D028F5F823383
:1038B00078F480936D0280916D02883259F38B32D7
:1038C00049F38E52843030F3409A0E94431A02CF5B
:1038D00081E0EFCF10926D02EECF10927002109245
:1038E0006F0210926E027DCE0E9489200E94B11755
:1038F0000C94E92BF89480916E008D7F80936E007C
:103900007894000080913402811109C0F89480916C
:103910006E00826080936E0078940000089510928B
:10392000340280913302882329F081E080933202AF
:1039300010923302F89480916E00826080936E0042
:10394000789400008091320280FF33C080916C0235
:103950008F5F8A3079F180936C020000F89400B692
:1039600001FE26C08091C1008F778093C1007894BA
:103970008091840590918505892B11F180919405A2
:103980008F5F809394058333D8F0439A8091C10070
:103990008F778093C10080B78D7F80BF1092ED0339
:1039A0001092EC0310928205109281051092E903A7
:1039B0007894089510926C0283E080933202CDCF08
:1039C000F8948091C10080688093C10078940000D1
:1039D000EFCFA89582E084BD83E085BD8FE387BDEE
:1039E000EEE6F0E080818260808383B7817F83BFD1
:1039F00008951F93CF93DF9344E050E061E070E0BF
:103A00008CEB93E00E9429318091BC0381508E3F62
:103A100000F181E48093DD078093BC0382E480930E
:103A2000DE078093BD0383E48093DF078093BE03AA
:103A300084E48093E0078093BF030E946131882370
:103A4000E1F344E050E061E070E08CEB93E00E9431
:103A50002F318DEE90E30E943030853A09F050C04E
:103A600081EE90E30E940C318F3F09F455C08093A2
:103A7000020182EE90E30E940C318F3F09F459C09D
:103A80008093080186E090E00E940C318F3F09F49A
:103A90005DC0809307018CED90E30E940C31D82F1C
:103AA0008DED90E30E940C31182F8EED90E30E9473
:103AB0000C31C82F8FED90E30E940C31282F9D2FE1
:103AC00091239C2398239F3F09F04DC082E090E012
:103AD000A0E0B0E08093030190930401A09305015E
:103AE000B0930601109291021092900210928F02F0
:103AF00010925F0210922B02DF91CF911F910895D7
:103B00000E94900465EA8DEE90E30E94BA300E9414
:103B1000D7308823E1F3A4CF81E0809302010E9493
:103B200061318823E1F361E081EE90E30E94153179
:103B3000A0CF81E0809308010E9461318823E1F3E6
:103B400061E082EE90E30E9415319CCF81E080938A
:103B500007010E9461318823E1F361E086E090E093
:103B60000E94153198CF8C2F90E0B0E0A0E0DC01EE
:103B700099278827912B8D2BB22B8093030190934B
:103B80000401A0930501B0930601AC01BD014150B1
:103B90005109610971094F3956486140710508F0B2
:103BA00095CF8F399648A140B10509F09BCF85E0AC
:103BB00090E00E940C318F3F69F081708195809375
:103BC000AE021092DC031092DD031092DE0310921D
:103BD000DF0388CF1092AE02F4CFCF92DF92EF9244
:103BE000FF920F931F93CF93DF93CDB7DEB761970B
:103BF0000FB6F894DEBF0FBECDBF1091B1071432DF
:103C000009F410C1D0F4133208F0D2C0133008F018
:103C100088C0123009F457C010E0812F61960FB6AA
:103C2000F894DEBF0FBECDBFDF91CF911F910F91F2
:103C3000FF90EF90DF90CF900895183228F416325D
:103C400008F43AC11FEFE9CF183231F768EA73E0A0
:103C5000FB0101900020E9F7BF01615071094DEDB2
:103C600057E088EA93E00E94C42A08E010E0B80117
:103C70008DED97E00E94912B882309F48DC110925D
:103C8000A8034DED57E069EA73E088EA93E00E94EB
:103C9000C42A9DEDC92E97E0D92EF12CE12CF60116
:103CA00061916F01C701800F911F0E94BA300E947D
:103CB000D7308823E1F3FFEFEF1AFF0A25E0E21681
:103CC000F10469F7BFCF8091DB079091A402892BA3
:103CD0009091DC07892B21F082E00E94592AB2CF13
:103CE0000E9461318823C1F381E48093DD078093D2
:103CF000BC0382E48093DE078093BD0383E480935A
:103D0000DF078093BE0384E48093E0078093BF03C2
:103D100064E081E090E00E94652C83E38093BB0324
:103D200091CF8091DB079091A402892B9091DC07C1
:103D3000892B11F0812FD1CF0E9461318823D1F3DB
:103D40000DEF010F40E250E06FEF70E08DED97E076
:103D50000E949E35011120C081E48093DE0780938C
:103D6000BC0382E48093DF078093BD0383E48093E8
:103D7000E0078093BE0384E48093E1078093BF0350
:103D80001092E2071092AE021092DC031092DD0353
:103D90001092DE031092DF0360E220E2029FC00176
:103DA00011240E94652C81E0810F0E94592AB5CF11
:103DB0000091DB078091A402082B8091DC07082B7F
:103DC00011F083E28ACF0E9461318823D1F3F12C74
:103DD000E12CC7010E940C31F701E451FF4FE4913F
:103DE0008E130FEF8FEFE81AF80A96E0E916F10448
:103DF00081F758E0E52EF12CC7010E940C31182FF5
:103E00008F3F51F4EFEFEE1AFE0AFCEDEF16F0E3F0
:103E1000FF0691F7002311F083E05FCF0E94F91CA9
:103E2000409AFBCE1091DB078091A402182B809161
:103E3000DC07182B11F084E250CF0E9461318823F7
:103E4000D1F360EC73E0CE0101967C010E94C43591
:103E5000F70101900020E9F7BF01615071094DEDB4
:103E600057E0C7010E94C42A80910201813091F07D
:103E700048E0E42EF12CB7018DED97E00E94912BE4
:103E8000811114C0F5E0EF0EF11C2CEDE21620E3D9
:103E9000F20689F780910801882309F4D3CE809136
:103EA0000201813029F40E940A08CCCE1FEFF2CF24
:103EB000112309F4C7CEF7CF68EA73E0FB01019044
:103EC0000020E9F7BF01615071094DED57E088EA24
:103ED00093E00E94C42A38E0E32EF12C10E000E0C9
:103EE000C8018F719927892B21F40115110509F05B
:103EF000A895B7018DED97E00E94912B8111A2CE7C
:103F00000F5F1F4FF5E0EF0EF11C043C29E0120794
:103F100039F768EA73E0FB0101900020E9F7BF017F
:103F2000615071094DED57E088EA93E00E94C42A80
:103F300088E0E82EF12C10E000E00AC00F5F1F4F70
:103F4000F5E0EF0EF11C043C29E0120709F47ACEEB
:103F5000C8018F719927892B09F4A895C7010E9480
:103F60000C318F3F59F72DEDC22E27E0D22E10E0F5
:103F700000E0F60161916F01C8018E0D9F1D0E9446
:103F8000BA300E94D7308823E1F3A8950F5F1F4F06
:103F90000530110571F756CE0B5F1F4F0C3D80E3C6
:103FA000180709F064CE4ECE0E94C312811106C0DC
:103FB0000E94ED1D811102C00E9491180C94972A55
:103FC000E82FF0E0EE52FC4F9081907F81E009F005
:103FD00080E008959091DB03892F8D7F8093DB0330
:103FE0008091D203807F90FD56C081114BC080919B
:103FF000E4039091E503A091E603B091E7034091BB
:10400000E0035091E1036091E2037091E3038417B0
:104010009507A607B70798F40196A11DB11D8093D7
:10402000E4039093E503A093E603B093E7034817F6
:1040300059076A077B0719F481E08093DB038091BD
:10404000DB039091E803891781F08093E803982FB0
:1040500092609093DB0380FD53C01092E4031092B2
:10406000E5031092E6031092E7038091D1038823C1
:1040700041F09091DB039D7F9093DB03815080930F
:10408000D10308951092E4031092E5031092E60321
:104090001092E703D4CF882351F18091D7039091F8
:1040A000D803A091D903B091DA034091D303509182
:1040B000D4036091D5037091D60384179507A607A2
:1040C000B70708F0BCCF0196A11DB11D8093D7039F
:1040D0009093D803A093D903B093DA0348175907F4
:1040E0006A077B0709F0ABCF1092DB03A8CF1092D1
:1040F000D7031092D8031092D9031092DA039FCFFE
:104100001092D7031092D8031092D9031092DA03B9
:10411000ACCF8091D203189B869581601899880F47
:104120008093D2030895CF92DF92EF92FF92809115
:10413000DC039091DD03A091DE03B091DF032091B9
:10414000AE020097A105B105A1F00197A109B1093F
:104150008093DC039093DD03A093DE03B093DF0331
:10416000892B8A2B8B2B29F481E0211180E080930D
:10417000AE028091AE02882309F442C0809192027F
:1041800081113EC0C0904302D0904402E0904502AD
:10419000F09046022FEFC216D206E206F20681F137
:1041A0008FEFC81AD80AE80AF80AC0924302D092E0
:1041B0004402E0924502F0924602C701B6012AE0AD
:1041C00030E040E050E00E94DC32672B682B692B26
:1041D000B9F464EE70E38C2D0E94742C65EE70E3EC
:1041E000809144020E94742C66EE70E38091450237
:1041F0000E94742C67EE70E3809146020E94742C3A
:104200008091AE0280939202882369F080914302EC
:1042100090914402A0914502B09146028032914AA9
:10422000A740B10510F05D9801C05D9AFF90EF9036
:10423000DF90CF90089584E190E0A0E0B0E080931B
:10424000D3039093D403A093D503B093D603809364
:10425000E0039093E103A093E203B093E30384EEC1
:1042600090E30E9439316F3F2FEF72078207920768
:1042700049F0609343027093440280934502909307
:104280004602089510924302109244021092450291
:104290001092460208951092E8031092DC031092E7
:1042A000DD031092DE031092DF038EE18093D103D1
:1042B00008959093800580937F0510928905109250
:1042C0008805E0ECF0E0808180648083F894E1EC84
:1042D000F0E0808180648083789400008FEF809389
:1042E00096020895CF93DF9321E42093410624E5BD
:1042F00020934206A3E4B6E0FC0193E0981B892FCB
:104300008E0FED0124912D93211107C09DE098831C
:1043100090E0DF91CF910C9459213196F0CFE1E4F8
:10432000F6E081E4808384E5818301900020E9F751
:10433000CF01825496409927FC01EF5BF94F2DE0A5
:10434000208301960C94592178942F932FB72F93A3
:104350003F938F939F93EF93FF9320918805309124
:10436000890580917F05909180052817390788F08D
:10437000F8948091C1008F7B8093C10078940000F5
:10438000FF91EF919F918F913F912F912FBF2F918F
:104390001895329910C08091880590918905FC018B
:1043A000EF5BF94F208101969093890580938805F2
:1043B0002093C600E5CF8FEF80939602E1CF8F93D5
:1043C0008FB78F938091C1008F778093C1007894CD
:1043D0008091C6000F924F931F9211242F933F9309
:1043E000EF93FF93AF93BF939F93209184053091F8
:1043F00085058F3F09F4E8C0EEEEF3E0A90120390E
:1044000091E0390708F0CDC02115310521F48A303B
:1044100009F04AC02CC09091EE038D3009F59D3013
:10442000F9F09A30E9F09091E903911119C091E8FF
:1044300090939502439AF8949091C1009F7790933E
:10444000C10090B79D7F90BF789400001092ED035B
:104450001092EC0310928205109281051092E903EC
:1044600021153105A1F290819D3089F61DC09091F2
:10447000E903911119C091E890939502439AF89439
:104480009091C1009F779093C10090B79D7F90BF9E
:10449000789400001092ED031092EC0310928205C4
:1044A000109281051092E9038F01A9014F5F5F4FC0
:1044B000DF01A20FB31F00B601FE5DC0243031053D
:1044C00008F459C08A3009F056C0BD016150710925
:1044D000EB0198819D3009F04EC061507109EB01EC
:1044E00098819A3009F447C061507109EB019881B5
:1044F0009D3009F440C0EF0191819A30E1F590813F
:104500009D30C9F560918105709182057093ED032E
:104510006093EC0350938205409381059091E903E9
:104520009F5F9093E903609190057091910570935E
:1045300093056093920560918E0570918F0570933D
:1045400091056093900560918C0570918D05709335
:104550008F0560938E056091EC037091ED0370936D
:104560008D0560938C056091810570918205709333
:104570008B0560938A0590918305992361F0233020
:10458000310549F4803239F49091F0039E3319F4E7
:104590009FEF9093EA038C939A01E40FF51F10822A
:1045A0000FC030E020E080E8809395021092ED0388
:1045B0001092EC0310928205109281051092E9038B
:1045C0003093850520938405109294059F91BF91A7
:1045D000AF91FF91EF913F912F911F904F9100B6B6
:1045E00001FE08C0F8948091C10080688093C100EA
:1045F000789400000F908F918FBF8F91189583E072
:104600008093C4001092C500E1ECF0E080818861E5
:1046100080838BB18C7F8BB95198429843983B989B
:10462000089599B1892F887093FF0EC010920A01E6
:104630001092850510928405519A8BB183608BB9D5
:104640003B9A439A429A8FEF089580910A018823FA
:10465000B9F191E0980F90930A01913A39F1A8F4D9
:104660009F30D9F030F49230D1F09330E9F080E00F
:10467000089587528430D8F70E94112391E0811168
:1046800001C090E0892F819508959F3FA0F4953F48
:1046900098F7983C49F0973D51F75498E8CF5498D3
:1046A0000E94112381110BC0549AE1CF1092940201
:1046B00010929302DCCF81E080930A01D8CF8FEF74
:1046C0000895FC014217130609F048F4DB01A251DA
:1046D000BC4F90E0491305C0942F81E0491380E05E
:1046E00008952D9184912813F8CF31969F5FF2CFD2
:1046F0008FB7F8941092ED031092EC03109282059C
:10470000109281058FBF08952F923F924F925F9232
:104710006F927F928F929F92AF92BF92CF92DF92D1
:10472000EF92FF920F931F93CF93DF93C8E047E080
:10473000842E59E0952E63E0762E78E0672EE5E131
:104740005E2EF2E04F2EADE03A2E222423949FB746
:10475000F8948091E903811128C09FBFC0919F0503
:10476000CC2301F1C150C0939F05D0E0CB56DA4F66
:104770008881809395021882C09195028C2FDF91D9
:10478000CF911F910F91FF90EF90DF90CF90BF904E
:10479000AF909F908F907F906F905F904F903F90E1
:1047A0002F90089510929502E9CF853008F084E0AB
:1047B000E82FF0E0EE0FFF1FE657FA4FC080D180E0
:1047C000118210828150E82FF0E0EE0FFF1FE657B4
:1047D000FA4F208131818093E9039FBFC216D3062F
:1047E000A8F580919F058A3010F090929F0589016D
:1047F0000C191D0904501109760142E0E40EF11C68
:10480000C90182519C4FFC013397B0803197A08041
:10481000F601E251FC4FD581EBE4BE121BC0FFE470
:10482000AF1245C10597FC018081803209F45AC15D
:104830002630310508F456C1E0919F0581E08E0FC6
:1048400080939F05F0E0EB56FA4F2082C15009F0AB
:104850007ECF94CFD734A1F4980146E0B70183E529
:1048600094E00E946123882359F0E0919F0581E044
:104870008E0F80939F05F0E0EB56FA4F3082E6CF23
:10488000FFE4AF1215C0980145E0B7018DE494E054
:104890000E946123882361F0E0919F0581E08E0FE3
:1048A00080939F05F0E0EB56FA4F44E04083CECF73
:1048B00087E4B81215C0980147E0B70185E494E099
:1048C0000E946123882309F4F5C0E0919F0581E0EF
:1048D0008E0F80939F05F0E0EB56FA4F4082B6CFE3
:1048E000E4E4BE12E7C098014CE0B70188E394E02D
:1048F0000E946123882309F4DDC0E0919F0581E0D7
:104900008E0F80939F05F0E0EB56FA4F8CE080838A
:104910009DCFDD34A1F4980146E0B7018AE294E02E
:104920000E946123882309F1E0919F0581E08E0FA9
:1049300080939F05F0E0EB56FA4F508287CFD43535
:10494000A1F4980146E0B70183E294E00E9461235C
:10495000882359F0E0919F0581E08E0F80939F0599
:10496000F0E0EB56FA4F608271CFF5E4AF1214C05D
:1049700098014AE0B70188E194E00E94612388230E
:1049800059F0E0919F0581E08E0F80939F05F0E044
:10499000EB56FA4F70825ACF45E4B41214C0980116
:1049A0004BE0B7018CE094E00E946123882311F171
:1049B000E0919F0581E08E0F80939F05F0E0EB561C
:1049C000FA4F908243CF89E5B81214C0980144E0B1
:1049D000B70187E094E00E946123882359F0E091B9
:1049E0009F0581E08E0F80939F05F0E0EB56FA4F14
:1049F00080822CCFD53411F598014BE0B7018BEFB5
:104A000093E00E946123882309F420CF4AE050E01C
:104A100070E060E0C60184509C4F0E942E34709379
:104A2000A00260939F02E0919F0581E08E0F80932A
:104A30009F05F0E0EB56FA4F45E038CFD33509F04B
:104A400005CF98014BE0B7018FEE93E00E94612300
:104A50008823C1F04AE050E070E060E0C601845075
:104A60009C4F0E942E3470939E0260939D02E091B1
:104A70009F0581E08E0F80939F05F0E0EB56FA4F83
:104A800086E045CF980146E0B70188EE93E00E94AA
:104A90006123882309F4DACEE0919F0581E08E0F2F
:104AA00080939F05F0E0EB56FA4F8EE030CFD7347D
:104AB00009F4D2CED93409F02CCF980146E0B701E1
:104AC00081E394E00E946123882309F44ECFE091B2
:104AD0009F0581E08E0F80939F05F0E0EB56FA4F23
:104AE0008AE015CFD73409F0CECEB6CECF930E9450
:104AF00084238823D9F080919502843021F083317A
:104B000011F0813089F4CFB7F8940E947823439A4A
:104B1000F8948091C1008F778093C10080B78D7F1A
:104B200080BF78940000CFBF80919502CF91089507
:104B3000AF92BF92CF92DF92EF92FF920F931F93AB
:104B4000CF93DF936C01B62EA42EF601C081D181E4
:104B5000888190E00E940F35892B39F5FAE0BF9EDD
:104B6000800111240B571B4FBA1498F4F801E490FC
:104B7000F12CB8016F5F7F4FA701CE010E94203555
:104B8000065F1F4F892BB1F4CE0DDF1DF601D183D7
:104B9000C0838B2DDF91CF911F910F91FF90EF90EC
:104BA000DF90CF90BF90AF9008952196F601D1830A
:104BB000C083CBCFB394D8CFEF92FF920F931F93C4
:104BC000CF93DF937C01F701C081D181088110E090
:104BD000C8010E940F35892B09F03FC0C8010E940F
:104BE00018358C018091BC0390E00E94183508179D
:104BF0001907C1F5898190E00E9418358C018091D8
:104C0000BD0390E00E9418350817190759F58A81ED
:104C100090E00E9418358C018091BE0390E00E94C4
:104C2000183508171907F1F48B8190E00E941835A8
:104C30008C018091BF0390E00E9418350817190776
:104C400089F42496F701D183C0838FEFDF91CF9150
:104C50001F910F91FF90EF9008952196F701D18356
:104C6000C083B1CF80E0F2CF44E050E060E874E070
:104C70000E94203521E0892B09F020E0822F089541
:104C80000C949825EF92FF920F931F93CF93DF938D
:104C9000EC017B01088119814AE050E0BC01C801A8
:104CA0000E941E33F701608371838283938381E0C6
:104CB000288139812017310709F480E0DF91CF91F5
:104CC0001F910F91FF90EF900895DF92EF92FF9266
:104CD0000F931F93CF93DF937C01D62EF701C081F2
:104CE000D181088110E0C8010E940F35892BA1F401
:104CF0008D2D90E00E9418350817190791F4219620
:104D0000F701D183C0838FEFDF91CF911F910F9176
:104D1000FF90EF90DF9008952196F701D183C08333
:104D2000DDCF80E0F1CFDF92EF92FF920F931F93E0
:104D3000CF93DF938C01D62EF801E080F180CE2D49
:104D4000DF2D899190E00E940F35892B89F48D2DFC
:104D500090E00E941835982FF7018191882361F027
:104D60007F019813F9CFD801ED93FC938FEF06C024
:104D7000D801CD93DC93E0CF9923A9F3DF91CF91B4
:104D80001F910F91FF90EF90DF900895CF92DF92E7
:104D9000EF92FF920F931F93CF93DF938C01E62E38
:104DA000D72EF42EF801C081D181888190E00E9435
:104DB0000F35892B89F4CE2DDD2DEF0C6E01EC1211
:104DC00010C0F6011082DF91CF911F910F91FF90DB
:104DD000EF90DF90CF9008952196D801CD93DC938A
:104DE000E1CFD801ED91FC91F0808F2D90E00E94F1
:104DF0000F35892B31F7F992FF2019F3D8018D91E6
:104E00009C91119701968D939C93D8CF8F929F92EE
:104E1000AF92BF92CF92DF92EF92FF920F931F93C8
:104E2000CF93DF93CDB7DEB764970FB6F894DEBFAC
:104E30000FBECDBF7C016B01042FF701A080B180B4
:104E4000F501808190E00E940F35892B09F049C05F
:104E500010E04501F50181915F01882349F014318B
:104E600038F48032B1F30E94B12A8D3009F040C08D
:104E7000512F1A3008F059E0812F193008F489E0D9
:104E80008950990BA1E0B0E0AC0FBD1FA80FB91F6E
:104E9000C60130E020E00150110B251718F420174F
:104EA0003107BCF1F601E50FF11D1082F60180819A
:104EB000882321F0F701808291828FEF64960FB6EC
:104EC000F894DEBF0FBECDBFDF91CF911F910F9140
:104ED000FF90EF90DF90CF90BF90AF909F908F901A
:104EE00008958FEFA81AB80AF701B182A082A5CF62
:104EF000F5013197808190ED980F9A3008F0A9CF95
:104F0000E1E0F0E0EC0FFD1FE10FF11D80831F5F7A
:104F1000A0CF4D91FC014193CF012F5F3F4FBDCFFB
:104F20009F92AF92BF92CF92DF92EF92FF920F9338
:104F30001F93CF93DF9300D000D000D00F92CDB756
:104F4000DEB79F838E837C0182E3F701ADEDB7E08E
:104F500001900D928A95E1F75701F50181918F013A
:104F600090E00E940F35892BE1F5CE0101966C018E
:104F700085015C0184E0982E900EF80181918F01EB
:104F8000882349F090E00E941835F60181936F0163
:104F90009012F3CF8FEF1D82882329F16AE072E02F
:104FA000C5010E94BB35892BF1F461EA71E087E904
:104FB00093E00E94DA35892BB1F010E1812F27961A
:104FC0000FB6F894DEBF0FBECDBFDF91CF911F911A
:104FD0000F91FF90EF90DF90CF90BF90AF909F9098
:104FE00008955801BACFCE0106960E94DC252E8185
:104FF0009F81811108C0822F0E943426182F882398
:10500000E9F21BE0DBCF022F192FF80181918F010C
:10501000811110C04AE160E0CE0106960E949825F9
:10502000182F8A3108F043C2E82FF0E0E85BF64C15
:105030000C94FE3290E00E941835F801319780837D
:10504000E4CF0F5F1F4F1F830E830E811F81F80176
:10505000808190E00E940F35892B99F730E020E0A5
:10506000C8018E199F098352984FFC01E20FF31F6C
:1050700040815FEB540F5A3128F040534A3010F012
:1050800012E09CCF2F5F3F4F2430310571F7FC01B8
:1050900040815181628173814093BC035093BD0371
:1050A0006093BE037093BF0344E061E070E00E9430
:1050B000442C13E083CF4EE068EA73E0CE010696FD
:1050C0000E94062781117ACF0E811F81F80180810D
:1050D00090E00E940F35892B69F443E050E06CE7C3
:1050E00074E0C8010E94483518E0892B09F466CFA6
:1050F00016E064CF0F5F1F4F1F830E83E5CF4EE096
:1051000068EA73E0CE0106960E940627882309F418
:10511000B7CF85E20E94592ACCCF4EE068EA73E00F
:10512000CE0106960E940627882309F4A9CF88E2BB
:10513000F1CF47E168E0CE0106960E9498258830BD
:1051400071F481E08093020161EE70E30E94742C9F
:105150008FEF8093080162EE70E381E00EC089302A
:10516000C1F481E08093020161EE70E30E94742C2F
:105170001092080162EE70E380E00E94742C10929D
:10518000070166E070E080E00E94742C0E94FE0738
:1051900090CF863191F481E08093020161EE70E35B
:1051A0000E94742C1092080162EE70E380E00E946D
:1051B000742C8FEF8093070114C0853109F060CF04
:1051C00081E08093020161EE70E30E94742C1FEF76
:1051D0001093080162EE70E381E00E94742C10933A
:1051E000070166E070E081E0CFCF47E168E0CE01E3
:1051F00006960E949825883031F41092020161EEE3
:1052000070E380E0A3CF893031F41092020161EEA7
:1052100070E380E0ABCF863131F41092020161EE91
:1052200070E380E0BDCF853109F02ACF10920201F2
:1052300061EE70E380E0C9CF19E0C0CE0F5F1F4F71
:105240001F830E830E811F81F801F0808F2D90E067
:105250000E940F35892B91F7FF2009F411CF81E4CB
:105260008093410684E5809342061F930F938FE05D
:1052700092E09F938F9383E496E09F938F930E9495
:1052800049360E948F218FEF809349028CE291E092
:1052900090934802809347020F900F900F900F90C9
:1052A0000F900F9006CF0F5F1F4F1F830E830E814D
:1052B0001F81F801808190E00E940F35892B99F7BA
:1052C00043E050E068E774E0C8010E944835892B4C
:1052D00021F41092A2021DE071CE4EE06FE977E05A
:1052E000CE0106960E9406271CE0882309F466CEAC
:1052F0008FEF8093A2021EE061CEB501CE0106962B
:105300000E944226882309F4BBCE8981482F5A8106
:105310006B817C818A019B010150110921093109AE
:105320000F3916482140310508F0AACEC09003017C
:10533000D0900401E0900501F09006014093030134
:105340005093040160930501709306016CED70E3C6
:105350000E94742C6DED70E3809104010E94742C06
:105360006EED70E3809105010E94742C6FED70E387
:10537000809106010E94742C2FE9C21626E8D206FD
:1053800021E0E206F104C9F489819A81AB81BC81F4
:105390008F399648A140B10581F065E070E08FEF4C
:1053A0000E94742C1092AE021092DC031092DD0366
:1053B0001092DE031092DF035D980E94FE071FE04B
:1053C000FDCD0F5F1F4F1F830E830E811F81F801DC
:1053D000808190E00E940F35892B99F742E050E0E0
:1053E00065E774E0C8010E944835892B21F58FE9F3
:1053F00096E8A1E0B0E08093030190930401A093AC
:105400000501B09306016CED70E38FE90E94742CE6
:105410006DED70E3809104010E94742C6EED70E3D9
:10542000809105010E94742C6FED70E3809106015C
:105430000E94742CC2CF43E050E061E774E0C801E1
:105440000E944835892B09F01BCE82E090E0A0E055
:10545000B0E08093030190930401A0930501B09301
:1054600006016CED70E3D2CF88E198E00FB6F894B6
:10547000A895809360000FBE90936000FFCF8FEFE0
:105480008093290291E09093020180930801809318
:10549000070167E973E08CEB92E00E94C4356AE58E
:1054A00074E080EA95E00E94413584E733CE11E054
:1054B00085CDE1EBF7E030E020E09191911105C05E
:1054C0002F54384FF901808308952F5F3F4F2A30C2
:1054D000310599F70895E1EBF7E030E020E0919194
:1054E000981761F0911105C02F54384FF90180834E
:1054F00008952F5F3F4F2A30310589F7089590E0D6
:10550000E92FF0E0EF54F84F2081281770F0621770
:1055100060F0292F293028F01092BA079A3081F7CD
:105520000895318131932F5FF5CF9F5FF7CFE1EB86
:10553000F7E08181819387E0EA3BF807D1F7109289
:10554000BA070895E1EBF7E02AE02E0F9191981742
:1055500010F0691720F42E13F9CF80E008958FEF33
:1055600008958B3259F030F4833251F08A3251F081
:105570008DE0089580538A30D8F708958AE0089521
:105580008CE008958BE00895AF92BF92CF92DF92A6
:10559000FF920F931F93CF93DF93182FEB016A01B4
:1055A00045E050E06FEF70E0C6010E949E358C2F01
:1055B000811B182F219700E0823058F4DF91CF91A2
:1055C0001F910F91FF90DF90CF90BF90AF90089503
:1055D000092F88810E94B12AF82EF29480EFF822D8
:1055E000FE0182915F010E94B12A8F29113061F47E
:1055F000E5018F6010E091E0900FF601E00FF11DE2
:1056000080831111E5CFDACF22971250F4CFE82F23
:10561000F0E0E757FA4F84910895CF93DF939C0110
:10562000EB011882BC0180E0DB016F5F7F4F9C9132
:105630009F3F19F0853009F04AC0A217B30709F45B
:105640004AC0642F70E090E0880F991F1197681787
:10565000790744F4DB011197B7FDDB01B595A795F8
:10566000A20FB31FEC918E2F8F708F3091F5E295C2
:10567000EF70F0E0E757FA4F84918883882319F0A0
:105680002196119781E011961197A217B307D8F0D0
:10569000EC91EF70F0E0E757FA4FE491E883EE23E6
:1056A00011F021968F5F841771F0EC91E295EF7005
:1056B000F0E0E757FA4FE491E9938F5F481719F04C
:1056C0002A173B0709F71882DF91CF9108958F5F62
:1056D000ABCF80E0D8CF80E0F7CFFF920F931F933E
:1056E000CF93DF9300D000D00F92CDB7DEB78B0100
:1056F000F42E45E050E0BC01CE0101960E94293114
:105700004F2DB801CE0101960E940D2B0F900F90E6
:105710000F900F900F90DF91CF911F910F91FF90FD
:1057200008950F931F93CF93DF93EC018B01888132
:105730008F3FF1F0CB010E940C318F3FC9F0C801BF
:105740000E940C31382F307F9991292F207F303FD4
:10575000A9F0203F99F032130BC08F709F708F30EB
:1057600069F09F3059F0891303C00F5F1F4FE7CFD7
:1057700080E0DF91CF911F910F9108958FEFF9CFC6
:105780000F931F93CF93DF9300D000D00F92CDB72C
:10579000DEB78B01FC0101900020E9F73197BF01D2
:1057A000681B790B680F792F711DAE014F5F5F4F3A
:1057B0000E94C42AB801CE0101960E94912B0F903D
:1057C0000F900F900F900F90DF91CF911F910F913D
:1057D00008950F931F93CF930E946131882381F125
:1057E0008091DB079091A402892B9091DC07892B93
:1057F00039F1C091A3020C2F10E08091D90790914C
:10580000DA07800F911F0E943030F801E352F84F01
:105810009081891301C0CF5F8091A402C817A0F4C2
:105820008C2F90E0FC01E352F84F2091D907309182
:10583000DA076081820F931F0E94BA30C093A302DF
:10584000CF911F910F9108958091DB071092DB0794
:105850008093A4022DED37E0F901882379F39E2F80
:10586000921B981770F080910F08909110089093F8
:10587000DA078093D9076091DD070E94BA30C0E053
:10588000DDCF90A59193EBCF0F931F93CF938B0117
:10589000C42F4423B1F050E0BC018DED97E00E948D
:1058A00095351093DA070093D9071092A302C0939D
:1058B000A4026091DD07C801CF911F910F910C9454
:1058C000BA30CF911F910F910895662361F09093A4
:1058D000DA078093D9071092A3026093A402609123
:1058E000DD070C94BA3008951F93CF93DF93182FE0
:1058F000EB01CB010E940C31811791F01093DD0771
:10590000D093DA07C093D9071092A30281E0809365
:10591000A402612FCE01DF91CF911F910C94BA3078
:10592000DF91CF911F9108950F931F93CF93DF9332
:1059300000D000D0CDB7DEB78C0119821A821B824D
:105940001C820E940C318983C80101960E940C318F
:105950008A83C80102960E940C318B8369817A8107
:105960008B819C810F900F900F900F90DF91CF91C2
:105970001F910F910895DF92EF92FF920F931F9363
:10598000CF93DF93DC011D91141710F01FEF140F5C
:10599000862F072FC0E0D12C90E0D0E827E030E040
:1059A000C1130CC0C60FD72FD11D1882DF91CF9124
:1059B0001F910F91FF90EF90DF9008954D2D50E0D3
:1059C000EC91F0E0ED2EF12CE094F094EE21FF212B
:1059D00002C0EE0FFF1FDA94E2F7E90FF11DE65562
:1059E000F94F9491E82EF02EF70191937F01CF5F4C
:1059F000FC2FF770DF2E89F0ED91ED23F0E0C90167
:105A0000841B950B02C0F595E7958A95E2F79E2FCA
:105A1000D695D0588E2D0F2DC3CF90E0D0E8FACF79
:105A2000CF92DF92EF92FF920F931F93CF93DF936A
:105A3000EC01461B570BDC014D933FEF340F90E018
:105A400020E00FE710E087E04FEF50E0231738F138
:105A500088818770D1F0FB01E20FF11DE081F0E059
:105A6000E655FA4F24914FE750E0092E02C0440F4B
:105A7000551F0A94E2F7E22FF0E0E423F52302C079
:105A8000F695E7959A95E2F7ED93CD01DF91CF91E9
:105A90001F910F91FF90EF90DF90CF9008956B01D1
:105AA000C20ED11CF601F080EF2DF0E0E655FA4F62
:105AB000E4917801092E02C0EE0CFF1C0A94E2F773
:105AC000F0E0EE22FF22092E02C0F694E7940A9439
:105AD000E2F7F601F180EF2DF0E0E655FA4FE491A0
