:100000000C9495030C94B2030C94B2030C94B203B9
:100010000C94B2030C94B2030C94B2030C94B2038C
:100020000C94B2030C94B2030C94B2030C94B2037C
:100030000C94B2030C94B2030C9454040C94B203C9
:100040000C94B2030C94B2030C9419210C94B203D7
:100050000C94DE200C94B2030C94B2030C94B20303
:100060000C94B2030C94B2030C94B2030C94B2033C
:100070000C94B2030C94B2030C94B2030C94B2032C
:100080000C94B2030C94B2030C94B2030C94B2031C
:100090000C94B2030C94B2030C94B2030C94B2030C
:1000A0000C94B2030C94B2030C94B2030C94B203FC
:1000B0000C94B2033A00206F3A200057796B7279A2
:1000C000746F20737465726F77616E6965207A3A18
:1000D0002000204D3A00444247204155544F2052C1
:1000E0003A0037393335353733353700FF4142432E
:1000F000440000004344454748494A352B63706932
:100100006E3F00000000000000002B636E6D693D33
:10011000322C312C322C31002B6D6F72696E673DA1
:100120003100000000002B636C69703D310000005D
:10013000000000002B646465743D312C31302C319B
:1001400000002B63616C6D3D310000000000000079
:100150002B6372736C3D31000000000000002B63C4
:100160007573643D31000000000000002B63706275
:10017000773D32362C22312200002B636C74733DA4
:1001800030000000000000002B636D69633D302CDF
:100190003135002B636D6764613D36002B637069F8
:1001A0006E3D223139373622002B6966633D322C91
:1001B00032002B63706D733D22534D222C22534D20
:1001C000222C22534D22002B6364736362002B6345
:1001D000636C6B3F002B636F70733F002B63706227
:1001E000723D3236002B637265673F002B6373717B
:1001F000002B7674733D3100610068002B434D5431
:10020000493A002B636D67643D002B636D67723D57
:10021000002B636D67733D002B435553443A002B0D
:10022000434D54493A002B44544D463A002B434C1D
:1002300049503A003E002B434D47523A002B434F62
:1002400050533A002B435245473A002B4353513AFF
:10025000002B4350494E3A205245414459002B430C
:10026000434C4B3A00206F3A200057796B727974F7
:100270006F20737465726F77616E6965207A3A20BA
:10028000004E6F74696679204F4E3A20004E6F74AD
:10029000696679204F4646004E6F74696679204F33
:1002A0004646004E6F74696679204F4E3A20002012
:1002B0004D3A0020523A0020533A0020433A00556C
:1002C0003A002B534D53200044544D4600434C49B3
:1002D0005000505542200050524956200044424799
:1002E0002000303031414520426C61642050616D06
:1002F00069656369004445425547204552523A209A
:1003000042414420434F4445007777772E736F6E08
:1003100066792E706C00576C61637A79204F555462
:10032000206E613A200057796C61637A79204F55CD
:1003300054207A613A200057796C61637A6F6E7944
:100340002028426973746162696C6E79290A0057CA
:100350006C61637A6F6E7920284269737461626997
:100360006C6E79290A00437A6173204F55543A2004
:10037000002044544D460020534D530020534D530C
:100380000020434C495000537465726F77616E6969
:10039000653A20005075626C69637A6E790A005084
:1003A00072797761746E790A00547279623A20002A
:1003B000557A79746B6F776E6963792000557A7915
:1003C000746B6F776E6963793A2000506F7A696F4A
:1003D0006D2047534D3A200041432D323030302DAF
:1003E00044544D462D460A002B435553443A002BA6
:1003F000434D53204552524F523A002B434D452016
:100400004552524F523A0042555359004E4F2044E4
:1004100049414C544F4E45004E4F204341525249A2
:100420004552002B434D54493A002B44544D463A13
:10043000002B434C49503A004D4F20434F4E4E4500
:1004400043544544004D4F2052494E4700455252B7
:100450004F52002B434D47533A0054727962207338
:1004600065727769736F777920616B7479776E79CC
:10047000004F4646004F4E004F464600414C4C0050
:10048000433344340004434F44450000000000035C
:100490004144440000000000000344454C000000BB
:1004A000000000045858585800000000000652454B
:1004B000504F5254000000045553455200000000B4
:1004C00000044F50454E000000000005434C4F53C0
:1004D000450000000004434C4950000000000004A7
:1004E00044544D46000000000003534554000000F2
:1004F0000000000454494D45000000000006534B25
:100500005259424100000005444542554700000051
:100510000003535542000000000000054D594E55A0
:100520004D00000000045553534400000000000338
:10053000434F4E000000000000024F4E000000003C
:1005400000000005544F474C450000000003525383
:100550005400000000000008534D5320434C495004
:100560000003534D53000000000000045354414E5B
:100570000000000000045445434800000000000350
:100580005359530000000000003031323334353607
:100590003738392B2A232121003031323334353694
:1005A000373839414243444546003F3F3F3F3F3F94
:1005B0003F3F3F3F0A3F3F0D3F3F3F3F3F3F3F3FB2
:1005C0003F3F3F3F3F3F3F3F3F3F20212223022508
:1005D000262728292A2B2C2D2E2F30313233343543
:1005E000363738393A3B3C3D3E3F00414243444573
:1005F000464748494A4B4C4D4E4F50515253545523
:10060000565758595A3F3F3F3F113F6162636465F7
:10061000666768696A6B6C6D6E6F70717273747502
:10062000767778797A3F3F3F3F3F3F3F3F3F3F3FBD
:100630003F3F3F3F3F3F3F3F3F3F3F3F3F3F3F3FCA
:100640003F3F3F3F3F3F3F3F3F3F3F403F0124034E
:100650003F5F3F3F3F3F3F3F3F3F3F3F3F3F3F3F8A
:100660003F3F3F3F3F3F3F3F3F603F3F3F3F5B0E8E
:100670001C093F1F3F3F3F3F3F3F3F5D3F3F3F3FE5
:100680005C3F0B3F3F3F5E3F3F1E7F3F3F3F7B0F47
:100690001D3F04053F3F073F3F3F3F7D083F3F3F32
:1006A0007C3F0C063F3F7E3F3F3F40A324A5E8E947
:1006B000F9ECF2C70AD8F80DC5E53F5F3F3F3F3F71
:1006C0003F3F3F3F3F3FC6E6DFC920212223A4250D
:1006D000262728292A2B2C2D2E2F30313233343542
:1006E000363738393A3B3C3D3E3FA14142434445D1
:1006F000464748494A4B4C4D4E4F50515253545522
:10070000565758595AC4D6D1DCA7BF616263646595
:10071000666768696A6B6C6D6E6F70717273747501
:10072000767778797AE4F6F1FCE011241FBECFEFFA
:10073000D8E0DEBFCDBF12E0A0E0B1E0E8EDF0E729
:1007400002C005900D92A832B107D9F728E0A8E2BF
:10075000B2E001C01D92A031B207E1F70E949D30C6
:100760000C943F380C940000CF93DF930F92CDB7D9
:10077000DEB7CE018F50984097FD0BC0209100014D
:10078000309101018217930720F490930101809327
:1007900000010F90DF91CF910895109250021092B6
:1007A0004F0210924E0208958091680295EB980FC7
:1007B0008C5E943108F083E30C94A5298091860225
:1007C000909187028F3F980729F0019690938702B6
:1007D000809386028AE080933A0210923902109246
:1007E000B8030E94CD0383E30C94A529CF93DF9334
:1007F000D0E0C0E06FEFCE010E94F42F0E941130D4
:100800008823E1F3CE018F709927892B09F4A895ED
:100810002196CD3E84E3D80769F7DF91CF91089503
:10082000BC018BEE93E00C94A8348FEF9FE8019706
:10083000F1F700C000008FEF9FE80197F1F700C0CB
:1008400000008FEF9FE80197F1F700C000008FEFE5
:100850009FE80197F1F700C000008FEF9FE8019734
:10086000F1F700C00000A895089580917D028F5F88
:10087000843618F480937D02089510927D02809151
:100880007C0291E0811190E090937C02811102C082
:1008900040980895409A08958091CF03807F11F485
:1008A000409A08954098089578940F920FB60F9249
:1008B0001F9211242F938F939F93EF93FF93809117
:1008C00031028F5F80933102823128F01092310221
:1008D0008FEF809333024B9B57C000B601FC16C0CC
:1008E00080919202811112C01092820510928105AE
:1008F0001092910580B7826080BFF8948091C1000A
:1009000080688093C10078940000439832992FC08A
:10091000F8948091C10086FF29C08091C1008F7B2F
:100920008093C1007894809193028823C9F08091CC
:100930009102811104C0809168028D3289F4109275
:1009400093028091850590918605FC01E25CF94F48
:100950002081019690938605809385052093C6009B
:10096000F8948091C10080648093C10078948FEFE7
:1009700080933402FF91EF919F918F912F911F905F
:100980000F900FBE0F901895439AF8948091C10074
:100990008F738093C10080B78D7F80BF78940000F3
:1009A000E6CF0F931F93CF93DF938C01DC01CD91A2
:1009B000DC914FE050E068ED73E0CE010E946734B7
:1009C0006BEC73E0CE010F960E947B3480910B019B
:1009D000803210F5909130029923F1F06B96B4E6D5
:1009E0008B9FC00111246FE170E00E940232CB01A5
:1009F0004AE0BE010E94393509900020E9F7FE0166
:100A0000319785E281931082D801ED93FC93DF91B9
:100A1000CF911F910F9108958DE28B8F8C8FFE01E6
:100A20007E968D8FF0CF8F929F92AF92BF92CF9292
:100A3000DF92EF92FF920F931F93CF93DF938C017E
:100A4000FC01C081D1816DEB73E0CE010E947B344B
:100A500009900020E9F7219788E0882E912CD12C6D
:100A6000C12CF12CE12CB12CA12CC6018F7199273E
:100A7000892B21F4C114D10409F0A895C4010E9466
:100A800046308F3F91F1FFEFAF1ABF0AEFEFCE1A5A
:100A9000DE0AF5E08F0E911C84ECC81689E0D806BA
:100AA00021F74AE0BE01C5010E94393509900020B6
:100AB000E9F721978FE289934AE0BE01C7010E94BE
:100AC000393509900020E9F72197F801D183C083D7
:100AD000DF91CF911F910F91FF90EF90DF90CF901A
:100AE000BF90AF909F908F9008958FEFE81AF80A0B
:100AF000CDCFCF92DF92EF92FF920F931F93CF93C0
:100B0000DF938C01FC01C081D1814CE050E060EBAF
:100B100073E0CE010E9467342C9688E0E82EF12C19
:100B2000D12CC12CC7010E9446308F3F59F1C3948C
:100B3000F5E0EF0EF11C8CEDE81680E3F80691F776
:100B40004AE0BE018C2D90E00E94393509900020CA
:100B5000E9F721978FE289934AE0BE018D2D90E05D
:100B60000E94393509900020E9F72197F801D183D7
:100B7000C083DF91CF911F910F91FF90EF90DF9095
:100B8000CF900895D394D4CFAF92BF92CF92DF92FB
:100B9000EF92FF920F931F93CF93DF9300D0CDB7C7
:100BA000DEB7A8958DE995E09A838983CE010196F9
:100BB0000E94D104E981FA81CF0101969A83898349
:100BC0001AE01083E981FA811082CE0101960E9419
:100BD0001305E981FA81CF0101969A8389831083F5
:100BE000E981FA81108269EA73E089819A810E9421
:100BF0007B3489819A8106969A83898320910201A8
:100C00006FE973E0222311F064E973E00E947B3402
:100C100089819A81FC0101900020E9F7CF010197B9
:100C20009A83898367E873E00E947B3489819A8183
:100C30000C969A83898320910801222309F46CC0C1
:100C400061E873E00E947B3489819A81FC01019004
:100C50000020E9F7CF0101979A838983209107014A
:100C60006CE773E0211160C0E981FA81CF01019640
:100C70009A8389838AE08083E981FA8110820981DD
:100C80001A81F80101900020E9F78F010150110944
:100C90001A830983C0900301D0900401E0900501FC
:100CA000F0900601FFE9CF16F6E8DF06F1E0EF0667
:100CB000F10409F046C066E673E0C8010E947B3487
:100CC00089819A810A969A8389832091AB026FE485
:100CD00073E0211102C067E373E00E947B348981D5
:100CE0009A81FC0101900020E9F7CF0101979A83D6
:100CF000898369E073E089819A810E947B340F9037
:100D00000F90DF91CF911F910F91FF90EF90DF90A7
:100D1000CF90BF90AF9008952091070167E773E0EF
:100D2000211102C061E773E00E947B3489819A81BE
:100D3000FC0101900020E9F7CF0101979A83898394
:100D400093CF8091AB0266E173E0882391F06091CC
:100D5000D9037091DA038091DB039091DC032AE0E0
:100D600030E040E050E00E94163269017A0166E20C
:100D700073E0C8010E947B34E981FA810190002070
:100D8000E9F7CF0101975C019A838983C701B60116
:100D900020E13EE040E050E00E941632CB016CE3DF
:100DA00070E00E94EE31F62E082F1AE0822F612F9C
:100DB0000E94E231E92E4AE0B50190E00E94393507
:100DC00069817A81FB0101900020E9F7BF01615040
:100DD00071097A8369834AE08E2D90E00E9439354B
:100DE000E981FA8101900020E9F7DF011197FA8388
:100DF000E98388E68C93E981FA81CF0101969A8391
:100E000089838AE3E82EE08229813A818F2D612F40
:100E10000E94E231F92E4AE0B90190E00E94393592
:100E200069817A81FB0101900020E9F7BF016150DF
:100E300071097A8369834AE08F2D90E00E943935E9
:100E4000E981FA8101900020E9F7DF011197FA8327
:100E5000E9838DE68C93E981FA81CF0101969A832B
:100E60008983E08229813A81802F612F0E94E231BB
:100E7000092F4AE0B90190E00E94393569817A81F1
:100E8000FB0101900020E9F7BF01615071097A83ED
:100E900069834AE0802F90E00E943935E981FA8128
:100EA00001900020E9F7DF011197FA83E98383E7D6
:100EB0008C93E981FA81CF0101969A83898310830B
:100EC000E981FA81108215CF1092AB021092D903FA
:100ED0001092DA031092DB031092DC035D98089500
:100EE0008091410290914202892BA1F58AE090E025
:100EF00090934202809341022091030130910401BA
:100F000040910501509106012F3986E8380781E0AC
:100F10004807510581F481E09091AB02911180E086
:100F20008093AB021092D9031092DA031092DB0384
:100F30001092DC0308958FEF8093AB02AAE0B0E03B
:100F40000E943E326093D9037093DA038093DB03EF
:100F50009093DC0308950895AF92BF92CF92DF92F1
:100F6000EF92FF920F931F93CF93DF93CDB7DEB72E
:100F700066970FB6F894DEBF0FBECDBF0E94B403D4
:100F800010929B07A8958FEF8093500210924F020A
:100F900010924E028DE797E00E94CA26182F80918A
:100FA0004A02811134C0809194021F928F938091E4
:100FB00095021F928F93809196021F928F9385E1E5
:100FC00091E09F938F938CE091E09F938F930E9489
:100FD0005335809194021F928F93809195021F92B6
:100FE0008F93809196021F928F9384E291E09F935A
:100FF0008F9388EB97E09F938F930E9453358FE9EF
:101000000E9493290FB6F894DEBF0FBECDBF109299
:101010004A0280912B02811110922B028CEF810FDA
:101020008230D8F480918E028C30B8F00E94D403C4
:101030000E94DE030E94CD0366960FB6F894DEBFD1
:101040000FBECDBFDF91CF911F910F91FF90EF9019
:10105000DF90CF90BF90AF90089580915F0288237A
:1010600011F0193019F7EEEAF7E020E090E08191F5
:10107000882329F02F5F8457823008F49F5F87E030
:10108000E83BF807A1F7233208F4F1C0193071F6F4
:1010900064E973E089EB92E00E94FE34CE018F5048
:1010A00098407C010E94B40308E010E0D12CC12CD0
:1010B000C8010E9446308F3F19F09FEFC91AD90A24
:1010C0000B5F1F4F0C3DE0E31E0791F78091BD03BE
:1010D0008823F1F06DEB73E0FB0101900020E9F74C
:1010E000BF01615071094AED57E08DEB93E00E941A
:1010F000FE2908E010E0B8018AED97E00E94CB2AB3
:1011000081114DC10B5F1F4F0C3DF0E31F0799F795
:10111000A12C809194038823F1F064E973E0FB0132
:1011200001900020E9F7BF01615071094AED57E0D5
:1011300084E993E00E94FE2908E010E0B8018AEDFE
:1011400097E00E94CB2A81112DC10B5F1F4F0C3DF0
:10115000F0E31F0799F7B12C6DED72E08DE995E092
:101160000E947B348091020162ED72E0811102C025
:1011700067ED72E081EA95E00E947B3401EA15E0B8
:10118000F80101900020E9F78F01015011098091C9
:10119000080168EC72E0882311F06DEC72E0C80180
:1011A0000E947B34F80101900020E9F78F01015083
:1011B000110980910701882309F4F7C062EC72E0FD
:1011C000C8010E947B340B5F1F4F6FEB72E0C801B8
:1011D0000E947B340E5F1F4F4AE0B801C6010E9497
:1011E0003935F80101900020E9F78F01015011090C
:1011F0006BEB72E0C8010E947B3480E3A11081E3B5
:10120000F801838367EB72E0C80104960E947B3487
:1012100080E3B11081E3F801878363EB72E0C801DA
:1012200008960E947B34055F1F4F4AE0B801C70152
:101230000E942E35F80101900020E9F78F0101503E
:1012400011096FEA72E0C8010E947B340D5F1F4FE5
:101250004AE0B80180910001909101010E94393566
:10126000F80101900020E9F73197108228C09630EC
:1012700008F00CCF113108F0DDCEE12FF0E0EF5B8C
:10128000F74C0C94383267E471E08DE797E00E94E8
:101290001435892B41F46DE471E08DE797E00E94ED
:1012A0001435892BB9F064E973E089EB92E00E9470
:1012B000FE3465EF72E08DE995E00E947B3484E7AF
:1012C0000E94932982E080933A0210923902109290
:1012D000B803B0CE80910701882309F4ABCE80918A
:1012E0000201813009F164E973E0FB010190002003
:1012F000E9F7BF0161507109AE014F5F5F4F84E9AB
:1013000093E00E94FE2908E010E0B801CE010196AA
:101310000E94CB2A811108C00B5F1F4F0C3DF0E3E8
:101320001F0799F781E0CFCF80912A028111FACF70
:1013300064E973E08DEB93E00E94FE340E94700735
:10134000F1CF80912902811115C080912A02882352
:1013500089F062EE72E08DE995E00E947B3464E9E9
:1013600073E089EB92E00E94FE3484E70E949329A7
:1013700084E1A9CF80918E028F5F80938E0282ECF0
:1013800091E090938D0280938C0264E973E089EB85
:1013900092E00E94FE34A8950E94C40590CFAA2432
:1013A000AA94B7CEBB24BA94D7CE80E2F801819339
:1013B0008F010BCF80918E028F5F80938E0282EC23
:1013C00091E090938D0280938C0264E973E089EB45
:1013D00092E00E94FE3465EA73E0FB010190002078
:1013E000E9F7BF0161507109AE014E5E5F4F85EABA
:1013F00093E00E94FE2908E010E0B801CE01429679
:101400000E94CB2AF82E81113CC00B5F1F4F0C3D70
:10141000F0E31F0791F741E1BE016F5F7F4FCE01FF
:1014200042960E94472ABE016F5F7F4F8DE995E08B
:101430000E94FE3463E571E08DE995E00E94DF349F
:1014400066E571E0F11002C069E571E08DE995E0B3
:101450000E94DF3484E70E94932982E080933A025D
:10146000109239021092B8038091D8079091A1028E
:10147000892B9091D907892B09F0DCCD0E949B30F4
:10148000D9CDFF24FA94C7CF64E973E089EB92E0E9
:101490000E94FE3468E771E08DE995E00E94FE3419
:1014A0000ECF80918E028F5F80938E0282EC91E04E
:1014B00090938D0280938C0264E973E089EB92E053
:1014C0000E94FE3410929303109292038AE2F8CEA7
:1014D00064E973E089EB92E00E94FE34109293037A
:1014E0001092920389E2ECCE63E282E00E94DC2952
:1014F0008111A0CD89E180933A02109239021092B5
:10150000B8030E94F60383E00E94932993CD64E917
:1015100073E089EB92E00E94FE3480919F02882361
:1015200031F080919C0763EA72E0811114C068E990
:1015300072E0C1CE64E973E089EB92E00E94FE3470
:101540006DE872E0B8CE64E973E089EB92E00E9446
:10155000FE3461E872E08DE995E00E947B346CE92D
:1015600077E08DE995E00E94DF34A9CE61EA71E071
:1015700084E993E00E941435892B09F454C040910A
:1015800043025091440260914502709146024034FA
:101590008DE0580783E06807710508F040C080E4DB
:1015A0009DE0A3E0B0E0841B950BA60BB70BBF93A7
:1015B000AF939F938F931F9283E08F938DE08F93D0
:1015C00080E48F937F936F935F934F931F9285E196
:1015D0008F931F9286E08F931F928DE18F938EEAF7
:1015E00091E09F938F938DE995E09F938F930E9455
:1015F000533564E973E089EB92E00E94FE3484E79E
:101600000E94932982E080933A021092390210924C
:10161000B8030FB6F894DEBF0FBECDBF0BCD80E090
:1016200090E0DC01C4CF85E04ECE83E04CCE8091CB
:101630007B029091D80390FF06C0883C88F48F5FAE
:1016400080937B020895883C60F063E282E00E9410
:10165000DC29811103C083E00E94932910927B0250
:1016600008958233D8F363E282E00E94DC2981117D
:10167000F5CF82E0F1CFCF93DF9380912A028823C8
:1016800021F080912902882389F18091080181113C
:101690002FC080910701811129C080910201813002
:1016A00021F48FEFDF91CF9108958091BD038823BE
:1016B000E9F06DEB73E0FB0101900020E9F7BF0159
:1016C000615071094AED57E08DEB93E00E94FE29CD
:1016D000C8E0D0E0BE018AED97E00E94CB2A8111DC
:1016E000E0CF2596CC3DF0E3DF07A1F780E0DACF2D
:1016F000809102018130A9F28091BD038823B1F36A
:101700006DEB73E0FB0101900020E9F7BF01615030
:1017100071094AED57E08DEB93E00E94FE29C8E085
:10172000D0E0BE018AED97E00E94CB2A8111B9CFAB
:101730002596CC3DF0E3DF07A1F7D8CF8CE380936B
:101740006A02109263021092620210925C0210927E
:101750005D021092510280918B02882309F456C0D9
:1017600080919C07882309F44FC06CE977E089EBEE
:1017700092E00E94FE346AE672E08DE995E00E94F4
:101780007B346DEB73E08DE995E00E94DF3465E614
:1017900072E08DE995E00E9470348DE995E0FC01DE
:1017A00001900020E9F7CF018E599540FC01E356E6
:1017B000FA4F90910C019083E1E0E80FF0E0E356DE
:1017C000FA4F90910D019083E2E0E80FF0E0E356CC
:1017D000FA4F9AE39083E3E0E80FF0E0E356FA4F24
:1017E00090910F019083E4E0E80FF0E0E356FA4FA8
:1017F0009091100190838B5FE82FF0E0E356FA4F51
:10180000108284E70E94932910928B021092BD03EC
:1018100008958CE380936A02109228020895109232
:10182000E803109263021092620210926702109213
:10183000660210926802109280058CE380936A021F
:1018400010925F0208950E940F0C1092670210928E
:1018500066021092680210929C051092B6031092D4
:1018600080051092E70310926402109228021092F1
:10187000600208950E94230C86E980930A01109269
:1018800091021092900210925802109257021092F8
:10189000AE0210925602109255021092510210920E
:1018A000650283E680930B0162E78FE50E94B92908
:1018B0006FE38BE20E94B92969E480E40E94B929B0
:1018C00066E784E70E94B92910923002089580915A
:1018D00092028D3051F410925E0210922802109202
:1018E0005F0286E480936A020895809192028630B6
:1018F00059F520915E022F5F20935E0280919A023B
:1019000090919B02853032E0930761F08A3331E099
:10191000930741F0833032E0930721F080519240E9
:10192000029770F48CE380936A0280915F02223008
:1019300080F110925E021092280210925F020895C8
:101940008CE380936A02F5CF80919202843021F576
:101950008CE380936A02109280058091ED038E33B0
:1019600031F480918105909182050A9720F0809151
:101970005F02811107C010925E02109228020E943D
:101980003A0CDBCF90915E029F5F90935E029230A3
:1019900080F60E949329D1CF809192028530B9F4CC
:1019A00080919C0290919D028A30910539F09C01B2
:1019B0002D7F2D30310511F04E9769F410925E02A3
:1019C0008CE380936A02109228020C943A0C809166
:1019D00092028091920208950F931F93CF93DF9309
:1019E000D0919202C0916802CF3309F4C7C008F0C9
:1019F00070C0C63309F429C238F5C03309F4C8C22F
:101A000088F4CD3209F4B4C0CF3209F437C1109252
:101A100067021092660210926802DF91CF911F91C7
:101A20000F910895C33309F44DC1C53381F7D13007
:101A300009F4B5C28091B7038F5F8093B7038330F9
:101A400008F0ADC28C2F7BC1CA3309F49FC188F462
:101A5000C73309F402C2C833D1F688E3D13009F0A4
:101A6000F6C081E00E949E0B109264021092E8037F
:101A7000CECFCC3309F467C108F49CC1CE3339F61C
:101A8000D13029F684E492E00E941004FC01892BF5
:101A900009F4BDCF27812C3209F06CC137968081C3
:101AA0008C3229F081818C3209F066C131964AE08E
:101AB00050E070E060E0CF0101960E94583266234A
:101AC00029F08DEF860F823008F058C10E943A0C41
:101AD0009ECFCB3458F5C73408F0A9CFC23409F4EF
:101AE000A6CFE8F4C03409F494C0C13409F08FCF14
:101AF00080E3D13009F4ABC0D63009F002C1809147
:101B00009A0290919B028A3321E0920721F085305E
:101B1000924009F07CCF84E180936A02D5C0C3343F
:101B200009F4F1C0C53409F482CF71CFC33790F402
:101B3000CF3508F4C2C1D63009F000C280919A02B4
:101B400090919B028134914009F4FBC18C2F0E943B
:101B50009329FCC1C73709F4FBC1CE3909F057CF2F
:101B600084E392E00E941004892B09F0AFCF5FCF8D
:101B70008EE20E9493291092520249CFD13009F08F
:101B800046CF8EE592E00E941004009709F43FCF03
:101B900062E270E00E94EA34009709F438CFEC0169
:101BA000219662E270E0CE010E94EA348C01892B1A
:101BB00009F42DCF6CE270E0CE010E94EA34009768
:101BC00009F425CFEC012196C017D10708F01FCFEB
:101BD0006AE370E0CE010E94EA34009709F417CF5F
:101BE0008017910708F013CFFE0101900020E9F75C
:101BF0003197EC1BFD0B389708F409CF88E0FE0104
:101C0000ACE0B1E001900D928A95E1F710921401D9
:101C1000FECED13099F481E592E00E941004892B28
:101C200059F08FEF8093900210929E0283E30E94FE
:101C3000932910927A02EBCE8FE2F9CFD53051F48E
:101C400080919C0290919D020E9731F480E40E9455
:101C50009329DDCED43021F0809192028038B1F703
:101C600080917A028F5F80937A02843118F00E940B
:101C70003A0CDFCF84E180936A02E8CFD13061F47F
:101C80008FEF8093900210929E0283E30E9493292B
:101C900082E380936A02BBCED53079F480919C02B6
:101CA00090919D028031910521F48FEF80939E02E7
:101CB000AECE0E9721F48FE2CACFD430E1F38091FB
:101CC0009202F9CFD13011F481E4C1CFD63089F43A
:101CD00080919A0290919B028A3321E0920721F031
:101CE0008530924009F093CE8CE380936A0283E3BF
:101CF000AECFD430E1F380919202803809F087CEE4
:101D0000F6CF8AE009CFD13049F0D53081F4809107
:101D10009C0290919D020397029748F4809165027E
:101D20000E949329109265021092B7030AC0809115
:101D3000B7038F5F8093B703833018F483E40E9466
:101D4000932982E0A6CFD13089F48BE492E00E94FF
:101D50001004009709F45BCE4AE050E070E060E0C8
:101D600006960E94583260930B0151CE83E6809311
:101D70000B014DCE389693CE329699CE6B7F613063
:101D800009F045CE8FEF8093300241CED13049F03B
:101D9000D53051F480919C0290919D024597029715
:101DA00018F41092580233CE809158028F5F8093BE
:101DB00058022DCED13009F042C046E050E06DE32C
:101DC00072E08DEE93E00E949A34892BC1F58DE389
:101DD00092E00E9410046CE270E00E94EA340097E6
:101DE00071F16CE270E00E94EA34009741F162E226
:101DF00070E00E94EA34009711F18C010F5F1F4FD1
:101E000062E270E0C8010E94EA340097C1F008174E
:101E10001907A9F0801B910B8C30910514F08BE011
:101E200090E0EC01DD27AE01B8018EEA92E00E945D
:101E3000CF34C255DD4F188210925702E8CD809101
:101E400057028F5F80935702E2CDD63009F479CFE5
:101E500086E3D13009F475CF72CFD13021F0809173
:101E600092028C30A1F48FEF809364021092B7033A
:101E7000809108018111CBCD8CE291E090934002DA
:101E800080933F0284E180936A0286E4E0CED430FE
:101E900021F080919202803849F48091B7038F5FDE
:101EA0008093B703833010F487E3D1CED33011F49D
:101EB000109264021092B703AACDD130A9F586E33F
:101EC00092E00E9410046AE070E00E94EA340097F9
:101ED00041F1EC0121966DE070E0CE010E94EA3400
:101EE0000097F9F08C1B9D0B97FD019695958795B2
:101EF000893CA8F4809361024AEC52E0609161024F
:101F0000CE010E94C12C83E70E9493298091680230
:101F10008C5E0E9493298FEF8093600278CD88ECCD
:101F2000E9CF1092600273CDD63021F0109260029A
:101F30008CE3AFCE8C2F0E949329F8CFD43009F4D4
:101F400005CE80919202803809F400CE89E1A1CEBD
:101F5000D43029F080919202803809F0ABCF1092F2
:101F6000E8038091B7038F5F8093B703833010F449
:101F700087E76DCE1092B70380E00E949E0B10920F
:101F800064021092E80310926302109262023FCD45
:101F9000D13029F080E30E94932984E17ACE8091A8
:101FA00065020E949329809165028B54843108F068
:101FB000B9CE10926002B6CE0F931F93CF93DF93EA
:101FC0008091920280919202803821F08091690282
:101FD000882381F080E8809392020E94EC0C82E3D7
:101FE00080936A028FEF80936902DF91CF911F91F6
:101FF0000F91089580919202813829F520917C05F6
:1020000030917D05809181059091820528173907CF
:1020100061F440917C0550917D056EE376E08BEE96
:1020200093E00E94C234892B01F3809180058111D5
:10203000DCCF80E8809392028FEF8093690282E385
:1020400080936A02D2CF809192028A3009F044C014
:102050001092BD038DE292E00E94100462E270E0F3
:102060000E94EA34009739F18C010F5F1F4F62E242
:1020700070E0C8010E94EA340097E9F0EC01C01B4F
:10208000D10BC031C0F4DD27AE01B8018DEB93E078
:102090000E94CF34C354DC4F1882809157028111C3
:1020A0001092570280910B01882311F0833619F4A6
:1020B00080E180930B0189E30E94A5298091680249
:1020C0008B54843110F410926002109267021092C7
:1020D00066021092680289CF80919202833089F45F
:1020E00080E00E949E0B109264021092E80310920E
:1020F00063021092620280916802873709F075CFFF
:10210000E4CF80919202823039F58091680287375E
:10211000D1F40E94EC0C809168028737A1F4809181
:102120005C0281110BC08AE580935D028FEF809382
:10213000E803109263021092620257CF80935D020F
:1021400010925C02F3CF1092BD0389E3DF91CF912F
:102150001F910F910C94A52986E292E00E94100431
:10216000009799F0FC01379681918032E9F39091C4
:102170000801911107C0813329F40E9470078BE098
:102180008093B8031092920230CF809192028C30EB
:1021900071F480910801882309F427CF109264021A
:1021A00088E3DF91CF911F910F910C949329809137
:1021B0009202893061F480916802873711F40E949D
:1021C000EC0C80E00E949E0B1092E803B2CF80914D
:1021D0009202873081F380919202883029F58FE155
:1021E00092E00E9410046CE270E00E94EA340097D2
:1021F000A1F04AE050E070E060E001960E94683390
:102200009B01215031092431310538F48AE4860FCD
:102210000E94932981E080936A02809168028B5426
:10222000843108F0E2CE4FCF809192028E3009F0D7
:102230004CC084E180936A02809168028B5484319F
:1022400040F410926002109267021092660210929F
:10225000680288E192E00E94100462E270E00E944D
:10226000EA34009709F4C1CE8C010F5F1F4F62E280
:1022700070E0C8010E94EA34009709F4B6CE2091BC
:102280004902222309F4B1CEEC01C01BD10BC13AA3
:10229000D10510F0C0EAD0E0AE01B8018DE995E0BB
:1022A0000E940535C356DA4F188264E973E089EB62
:1022B00092E00E94FE3484E70E9493291092490222
:1022C000109248021092470290CE80915F028111D5
:1022D0000E94670C8091810590918205892B09F4F9
:1022E00084CE80919202882309F47FCEDF91CF9132
:1022F0001F910F910C94EC0CCF93C82FC901C11101
:1023000006C0862F0E9493298C2FCF91089510929A
:1023100067021092660260936802409365020E9411
:10232000AC20CFEFF1CF0F93CF93DF939FEF90933C
:1023300080051092E70381114BC085E080933A023B
:10234000109239021092B80384E780935F02909351
:10235000CA024AE06AED77E08AEC92E00E94472ADE
:1023600000E020E04AED57E069EB72E08AEC92E091
:102370000E94022E4DE955E0FA0101900020E9F794
:10238000AF01415051096DE975E00E944A2C8A5C09
:10239000924080936102C0916102C1508091CA0253
:1023A000C81B46E050E061E172E080E496E00E94E4
:1023B00067344AE066E476E08C2F90E00E9439357D
:1023C0008AEF80930901DF91CF910F910C94C9207E
:1023D00085E080933A02109239021092B80385E7A3
:1023E00080935F0200919D059093CA024AE06AEDD6
:1023F00077E08AEC92E00E94472A20E04AED57E01D
:1024000069EB72E08AEC92E00E94022EEC014091AE
:102410009E0550E06FE975E00E94CF3480919E05E3
:102420008C0F9D2F911DB3CFEF92FF920F931F93AF
:10243000CF93DF9300D00F92CDB7DEB7309160021B
:102440008091E8035091680290916A0240915F0286
:10245000432B482B20916402242B252B292BC9F5D3
:102460006091800521E0611101C020E0211132C09E
:102470006091C10066FD2EC060919102662351F10A
:102480006091920201E0611125C01091AE07E12E2A
:10249000F12C1E3309F465C208F06BC0133309F444
:1024A00066C330F51E3209F446C3B0F41C3209F499
:1024B000FCC208F013C31B3209F46FC380E00F9015
:1024C0000F900F90DF91CF911F910F91FF90EF90A0
:1024D000089521E000E0D9CF103309F4D6C208F402
:1024E00034C3113309F479C3123341F78FEFE7CFC7
:1024F000183309F4B7C1B0F4163309F4B9C208F0BF
:10250000C0C11533D9F68091D8079091A102892BCB
:102510009091D907892B21F40E949B30811149C3E6
:1025200085E330C11A3309F43DC208F46CC11B3392
:1025300009F45AC21C3309F0C1CF40916202509194
:102540006302452B61F49091AC02892B41F4809198
:10255000800590912802892B282B09F4F4C18091E1
:102560000B01833611F08111C1CF80E180930B0103
:10257000BDCF133708F074C01F3508F01BC11634E7
:1025800009F493C1B0F41F3309F450C220EC210FB9
:10259000E22FF0E0EE50FF4F45915491FEE02F9F67
:1025A0009001112424503F4F612F802F0E947C11F5
:1025B0009DCF1B3458F380913002882309F47EC0EC
:1025C0002091620230916302232B09F077C0942B93
:1025D00080912802982B09F071C0533309F46EC022
:1025E0008091D8079091A102892B9091D907892BCE
:1025F00009F064C00E949B30882309F45FC061E049
:1026000081E00E94DC29811159C066E784E70E94BD
:10261000DC29811153C069E387E30E94DC29811121
:102620004DC0002309F44AC010926702109266025E
:10263000109368028FEF8093600246E050E06AE0FA
:1026400072E080E496E00E9467344AE066E476E057
:10265000C7018A5491090E9439350E94C92046CF8A
:10266000163709F449C080F4133701F54DEA52E0FA
:1026700064E973E08AEC92E00E94DE2C009709F096
:1026800053C01092600232CF193709F47EC01F394F
:1026900009F4ADC2173709F011CF2091300222237F
:1026A00019F0992309F41AC187E76CC020916202DE
:1026B00030916302232B11F4892B11F0812F62C01A
:1026C0008091D8079091A102892B9091D907892BED
:1026D000A9F70E949B30882389F3002379F3109295
:1026E0006702109266021093680281E0153709F0C4
:1026F00080E00E949311FACE109280054091610211
:102700006AEC72E08EE396E00E941E2E80916102D8
:1027100090E0880F991FFC01E25CF94F2AE12083C9
:1027200001960E949320E2CE9E012F5F3F4FAE01A3
:102730004E5F5F4FBE016D5F7F4F0E94372D2B8133
:10274000209399022A81209398022981209397024D
:102750009E012F5F3F4FAE014E5F5F4FBE016D5F29
:102760007F4F0E945A2D2B81209396022A8120931D
:1027700095022981209394024FE16DE777E00E9452
:10278000F52B89E70E949329B1CE8091D8079091CB
:10279000A102892B9091D907892B99F70E949B3030
:1027A000882379F310923A0282E08093B8030E9462
:1027B000AC0767CF4091620250916302452B09F04C
:1027C0007DCF832B3091AC02832B09F077CF8091A2
:1027D0008005811173CF002309F470CF1092670236
:1027E000109266021093680246E050E063E072E0E7
:1027F00080E496E00E9467344AE066E476E0C70130
:102800008E55910928CF8091D8079091A102892BEC
:102810009091D907892B11F089E3B4CF0E949B30A6
:102820008823D1F310923A0282E08093B8030E9489
:102830003B0B882371F08091080190910701892B4F
:1028400079F08CEF91E00E941004892B11F40E9422
:10285000700788E30E9493298FEF809351022FCE57
:1028600087E3F8CF011102C088E38CCF1092670292
:1028700010926602109368028AEF91E00E94AC20E9
:1028800035CE8091080190910701892B69F787E384
:10289000002309F477CF109267021092660287E353
:1028A0008093680288EF91E0E9CF992311F086E4E4
:1028B00069CF8091C10086FDFACF80919102882373
:1028C000B1F380919202582B91F710926702109207
:1028D00066021093680281EF91E0D0CF811106CE9D
:1028E000002309F4E1CE109267021092660287E796
:1028F0008093680285E18093B80384E68093400664
:1029000065EA73E081E496E00E94FE3485EA93E094
:10291000FC0101900020E9F7CF01865A93408F5FB8
:1029200090E0FC01E05CF94F2BE320838F5B994F33
:10293000FC0110820E94C9208CE291E09093630216
:1029400080936202D3CD8CE3002309F41BCF109255
:102950006702109266028CE3809368028CEE91E02D
:102960008DCF4091620250916302452B09F0BECD9C
:102970009091AC02892B09F0B9CD8091800590919E
:102980002802892B282B09F0B1CD8EE3002309F40E
:10299000F9CE10926702109266021093680285EEDB
:1029A00091E06CCF4091620250916302452B59F443
:1029B0009091AC02892B39F4809180059091280286
:1029C000892B282B19F01092580290CD8AE300230E
:1029D00009F4D8CE10926702109266028AE38093BF
:1029E00068028CED91E04ACF4091620250916302FF
:1029F000452B59F49091AC02892B39F480918005D4
:102A000090912802892B282B19F0109257026ECD35
:102A10008BE3002309F4B6CE10926702109266028F
:102A20008BE38093680285ED91E028CF40916202AC
:102A300050916302452B09F059CD9091AC02892B3E
:102A400009F054CD8091800590912802892B282B84
:102A500009F04CCD8FE3002309F494CE1092670265
:102A6000109266028FE3809368028EEC91E006CFAD
:102A700086E3002309F486CE109267021092660264
:102A80001093680287EC91E0F9CE80E3002309F40B
:102A900079CE10926702109266021093680282E467
:102AA0008093650282EB91E0E9CE8DE20E9493294A
:102AB00084E18093AC0210928205109281051092FD
:102AC000910580B7826080BFF8948091C1008068D2
:102AD0008093C10078940000439808CD8091520201
:102AE000811104CD8091AC02882311F08DE24ACE91
:102AF0008091C10086FDFACF109282051092810567
:102B00001092910580B7826080BFF8948091C100D7
:102B100080688093C1007894000043981092670207
:102B2000109266028DE28093680284E180935202E3
:102B300089EA91E0A3CE8FEF8093910280E40E9416
:102B4000932988E280936A02D1CC8FE2002309F4B2
:102B500019CE10926702109266028FE2809368028B
:102B60006CE971E080E496E00E947B3476CD809140
:102B70007902882311F081E405CE8FEF80937902EA
:102B800083E3002309F4FECD1092670210926602DF
:102B90001093680283E991E071CE0E94DC0F80916E
:102BA0009202813819F084E1809309011092920217
:102BB0009DCC002309F4B4CC1092670210926602F7
:102BC00085E38093680268E871E080E496E00E9403
:102BD0007B3481E38093650240CD8091900288230D
:102BE00009F484CC86E30E94932982E3CBCD8091C3
:102BF000D8079091A102892B9091D907892B21F4B4
:102C00000E949B30811102C08FE9BCCD0023E1F30B
:102C100010926702109266028FE98093680268EB57
:102C200077E080E496E00E94FE3417CD80916A023E
:102C3000882339F0815080936A02811102C010927A
:102C4000690280912C0290912D02009729F0019742
:102C500090932D0280932C0280913F02909140022C
:102C6000009771F001979093400280933F02892B67
:102C700039F480916402882319F088E30E94932933
:102C8000809152028823C1F08150809352028111B9
:102C900013C01092670210926602109268028DE2D1
:102CA0000E94932910929302F8948091C1008F7B27
:102CB0008093C100789400000E945F22882319F05D
:102CC0008CE20E94932980915D02882341F081501B
:102CD00080935D02811103C088E30E949329809153
:102CE000620290916302009771F0019790936302E2
:102CF00080936202892B39F482E00E949E0B10922D
:102D000064021092E803809178028F5F80937802CA
:102D1000803309F04EC08CE30E94A5298091AC025B
:102D2000882319F081508093AC028091300288236F
:102D300009F45EC080910B01833611F0811158C0F7
:102D40008091590290915A02883522E0920750F4FE
:102D50000196883522E0920709F443C090935A0205
:102D60008093590280915802863020F48091570256
:102D7000843110F00E943A0C80912F02882339F0A0
:102D8000815080932F02811102C00E943A0C8091E1
:102D90003002811132C08091550290915602019605
:102DA0009093560280935502813B944050F10C94CD
:102DB0003A0C843311F48EE3AFCF883311F48BE3F4
:102DC000ABCF8C3311F48AE3A7CF803508F4A6CFBC
:102DD0008091300210927802882309F49FCF8FE30C
:102DE0009BCF10925A02109259020E943A0CBACF0D
:102DF00010925A0210925902B5CF109256021092B8
:102E00005502089580919202882309F457C08BE2FD
:102E10000E9493298091E703882329F086E70E9486
:102E200093291092E70380913002882309F455C05A
:102E300080915F02882309F450C0809176029091BE
:102E400077020196883823E1920708F03CC09093FE
:102E500077028093760280916802909164028823C1
:102E600009F4A8C02091750282136AC091116AC04A
:102E70008D3231F09AE8980F44EF51E0923010F41F
:102E800040EE5EE29CE8980F923010F44CED55E075
:102E900020917302309174022F5F3F4F2417350742
:102EA00008F530937402209373021092720210920C
:102EB0007102809168028093750208950E94B02487
:102EC0008111A5CFA7CF109277021092760284E0ED
:102ED000809392020E94670CBECF109277021092EC
:102EE0007602B9CF10927402109273028E3929F1D2
:102EF000883301F191ED980F9230E0F09BEC980F40
:102F00009230C0F090EC980F9A30A0F095EB980FAB
:102F1000983280F0109265020E94230C1092670292
:102F2000109266028EE980936802109240060E9419
:102F3000C920BBCF80936502EFCF0E943A0CB5CF7A
:102F40009923C1F180919202811134C0F89480914B
:102F500081059091820578942091710230917202DE
:102F60002817390720F490937202809371028091A0
:102F70007102909172020A9708F49BCF80917302BC
:102F8000909174020196843F21E0920728F4909377
:102F90007402809373028DCF1092740210927302A8
:102FA00081E00E949E0B10927202109271020E94A8
:102FB0003A0C7FCF1092740210927302992309F495
:102FC00074CF77CF3F924F925F926F927F928F92A2
:102FD0009F92AF92BF92CF92DF92EF92FF920F93A8
:102FE0001F93CF93DF93CDB7DEB7E1970FB6F89479
:102FF000DEBF0FBECDBF9091AE07809160022091E1
:103000005F02822B2091E803822B20916402822BA5
:1030100020916802822B20916A02822B81F4809198
:10302000800581110CC08091C10086FD08C080918F
:103030009102882321F02091920281E0211180E009
:10304000993241F010E09A3209F094C08111ABC07E
:103050008AE203C0811104C089E20E94932980C0E2
:10306000809128029091D807892B9091A102892BF9
:103070009091D907892B81F70E949B30882361F3B7
:103080008AE280939D052EE9E22E25E0F22E35E0BE
:10309000D32E43E2C42E5AE0B52E80919203909134
:1030A00093038F719927892B09F4A8952091920396
:1030B00030919303D29EC001D39E900D11240896A7
:1030C0000E944630182F20919203309193038F3F36
:1030D000C1F1D29EC001D39E900D112441E1B701F0
:1030E00008960E94A72A8701080F111DF801C082C7
:1030F0007801F2E0EF0EF11CF801B18280919203A9
:103100009091930301969093930380939203980177
:103110002D5E3F4F2D53364068F4843C994008F4AF
:10312000BCCFF801128284E70E94932981E080934A
:10313000280216C0843C9940A0F789E20E94932996
:10314000F0CF2F5F3F4F3093930320939203243CA3
:10315000394008F4A2CF2DE9E21625E0F20611F479
:103160001FEF08C0F701108284E70E94932981E0D5
:1031700080932802812FE1960FB6F894DEBF0FBE30
:10318000CDBFDF91CF911F910F91FF90EF90DF9016
:10319000CF90BF90AF909F908F907F906F905F90F7
:1031A0004F903F900895809128029091D807892BE5
:1031B0009091A102892B9091D907892B09F048CFD2
:1031C0000E949B30882309F443CF10929D050DE99E
:1031D00015E085E0382E6E01F5E1CF0ED11CCE0151
:1031E00086963C0194EE492E91E0592EFE013196CF
:1031F0007F018090920390909303F4EC8F16F9E096
:103200009F0628F00D59154009F08DCFA9CFC401B4
:103210008F719927892B09F4A895389C5001399C06
:10322000B00C112448E0A40EB11CC5010E94463028
:103230008F3F09F468C08FEF881A980A41E1B60100
:10324000C5010E94A72AF60101900020E9F73197F5
:10325000EC19FD09B601EA3018F039976E0F7F1F9F
:10326000C3010E94FE347F926F929F928F925F9271
:103270004F92FF92EF920E945335F7010190002088
:10328000E9F73197EE19FF09E00FF11F0FB6F89437
:10329000DEBF0FBECDBFED53F64040F1E5E00D3986
:1032A0001E07C1F4B7018DE995E00E94FE348AE261
:1032B0000E94932984E70E94932981E08093280249
:1032C000809192039091930301969093930380933E
:1032D000920346CF8AE20E94932984E70E949329B1
:1032E00081E080932802F80110823ACFB701C8012B
:1032F0000E94FE34F70101900020E9F73197EE19A2
:10330000FF090E0F1F1F8091920390919303019666
:1033100090939303809392036CCF08950E94241F8F
:103320000E94170B0C94CD1FCF93DF930F92CDB754
:10333000DEB78091D8079091A102892B9091D9078F
:10334000892B59F50E949B30882339F1198291E02D
:103350008091AB02811101C090E081E04091D903DE
:103360005091DA036091DB037091DC03452B462B0F
:10337000472B09F480E0981711F081E0898385E0FC
:1033800090E00E9446309981891739F041E065E06C
:1033900070E0CE0101960E947E2B0F90DF91CF91BD
:1033A0000895EF92FF920F931F93CF93DF930F92A5
:1033B000CDB7DEB70E948E190E9416168091B80311
:1033C000882331F081508093B8038111CBC0409A9B
:1033D00080918C0290918D02009739F00197909323
:1033E0008D0280938C02892B11F410928E028091B1
:1033F000410290914202892B49F0809141029091C3
:1034000042020197909342028093410280914902C7
:103410008823F1F080914702909148020097C1F013
:1034200001979093480280934702892B89F464E9BD
:1034300073E089EB92E00E94FE346BEE71E08DE95F
:1034400095E00E94FE3484E70E949329109249027D
:1034500080912B02882309F47AC180917002811136
:1034600011C080913002882369F080916E029091A2
:103470006F028A3F910508F077C0019690936F0222
:1034800080936E028091810281110DC08091820231
:10349000909183028436910508F06AC0019690935A
:1034A0008302809382028091AE07882309F4E1C0F1
:1034B0009CE8980F923008F0D5C090918A0298133A
:1034C000D1C080918802909189028639910508F0D7
:1034D000A1C00196909389028093880280915F0237
:1034E000882309F4B8C080917F02909180028C32C9
:1034F00021E0920708F0C0C001969093800280936B
:103500007F0280915002882309F4DFC080914E022F
:1035100090914F028436910508F0CCC080914E0204
:1035200090914F02019690934F0280934E028091AA
:103530003A02882309F4E4C080913902823008F409
:10354000D5C0409A809139028F5F863008F0D0C094
:10355000809339020F90DF91CF911F910F91FF90CF
:10356000EF900895409834CF8FEF809370028ACF08
:1035700062EE70E089EB92E00E947B348091300231
:10358000882309F490CF80915F029091E803892B02
:1035900090916802892B09F086CFCE018F50984018
:1035A0007C010E94B40366ED70E08DE995E00E9415
:1035B0007B340DE915E0F80101900020E9F78F0157
:1035C000015011094AE0B801C7010E942E35F801E7
:1035D00001900020E9F78F010150110962ED70E0C0
:1035E000C8010E947B340D5F1F4F4AE0B8018091F3
:1035F0000001909101010E943935F80101900020ED
:10360000E9F73197108284E70E9493298FEF809326
:10361000810249CF65E784E70E94B929809184023D
:10362000909185028F3F980729F00196909385022B
:103630008093840283E30E94A52910928E02109247
:103640008D0210928C0210928902109288021092C0
:103650008A0210925F021092800210927F021092F2
:103660007E024FCF80938A021092890210928802C4
:1036700035CF10928A02F8CF1092800210927F020A
:103680000E94CD0310925F0210925E02109280059C
:103690001092280280917E028F3F29F410927E02C0
:1036A0000E943A0C2ECF8F5F80937E02833008F405
:1036B00028CFF4CF10924D0282E390E090934C0219
:1036C00080934B020E94CD0332CF80914B029091A8
:1036D0004C02892B09F42BCF80914B0290914C0224
:1036E000019790934C0280934B0221CF40982ACFB0
:1036F0001092390280913A02815080933A022ACF87
:1037000080913002811102C0409819C08091B803A5
:103710008111FACF80910B018031B0F480916D025C
:103720008F5F823378F480936D0280916D028832CE
:1037300059F38B3249F38E52843030F3409A0E9411
:10374000941908CF81E0EFCF10926D02EECF109266
:10375000700210926F0210926E0294CE0E94C31FEC
:103760000E9402170C94232BF89480916E008D7F99
:1037700080936E007894000080913402811109C01A
:10378000F89480916E00826080936E0078940000BF
:1037900008951092340280913302882329F081E049
:1037A0008093320210923302F89480916E0082600E
:1037B00080936E00789400008091320280FF33C0C5
:1037C00080916C028F5F8A3079F180936C020000E7
:1037D000F89400B601FE26C08091C1008F778093D7
:1037E000C10078948091810590918205892B11F117
:1037F000809191058F5F809391058333D8F0439A30
:103800008091C1008F778093C10080B78D7F80BF8A
:103810001092EA031092E90310927F0510927E0540
:103820001092E6037894089510926C0283E08093DE
:103830003202CDCFF8948091C10080688093C1009E
:1038400078940000EFCFA89582E084BD83E085BD29
:103850008FE387BDEEE6F0E080818260808383B7EE
:10386000817F83BF08951F93CF93DF9344E050E09F
:1038700061E070E089EB93E00E9463308091B903CE
:1038800081508E3F00F181E48093DA078093B90381
:1038900082E48093DB078093BA0383E48093DC07A0
:1038A0008093BB0384E48093DD078093BC030E9474
:1038B0009B308823E1F344E050E061E070E089EB65
:1038C00093E00E9469308DEE90E30E946A2F853A62
:1038D00009F050C081EE90E30E9446308F3F09F41A
:1038E00055C08093020182EE90E30E9446308F3FE4
:1038F00009F459C08093080186E090E00E944630A8
:103900008F3F09F45DC0809307018CED90E30E9426
:103910004630D82F8DED90E30E944630182F8EED63
:1039200090E30E944630C82F8FED90E30E9446300E
:10393000282F9D2F91239C2398239F3F09F04DC052
:1039400082E090E0A0E0B0E0809303019093040156
:10395000A0930501B093060110928E0210928D0281
:1039600010928C0210925F0210922B02DF91CF9185
:103970001F9108950E94F60365EA8DEE90E30E9480
:10398000F42F0E9411308823E1F3A4CF81E08093CB
:1039900002010E949B308823E1F361E081EE90E315
:1039A0000E944F30A0CF81E0809308010E949B309D
:1039B0008823E1F361E082EE90E30E944F309CCFD8
:1039C00081E0809307010E949B308823E1F361E04E
:1039D00086E090E00E944F3098CF8C2F90E0B0E0CE
:1039E000A0E0DC0199278827912B8D2BB22B8093A7
:1039F000030190930401A0930501B0930601AC016B
:103A0000BD0141505109610971094F395648614062
:103A1000710508F095CF8F399648A140B10509F09E
:103A20009BCF85E090E00E9446308F3F69F0817027
:103A300081958093AB021092D9031092DA03109211
:103A4000DB031092DC0388CF1092AB02F4CFCF924D
:103A5000DF92EF92FF920F931F93CF93DF93CDB737
:103A6000DEB761970FB6F894DEBF0FBECDBF1091E1
:103A7000AE07143209F410C1D0F4133208F0D2C0EA
:103A8000133008F088C0123009F457C010E0812FBD
:103A900061960FB6F894DEBF0FBECDBFDF91CF9118
:103AA0001F910F91FF90EF90DF90CF900895183203
:103AB00028F4163208F43AC11FEFE9CF183231F773
:103AC00065EA73E0FB0101900020E9F7BF01615056
:103AD00071094AED57E085EA93E00E94FE2908E06B
:103AE00010E0B8018AED97E00E94CB2A882309F400
:103AF0008DC11092A5034AED57E066EA73E085EAAE
:103B000093E00E94FE299AEDC92E97E0D92EF12C60
:103B1000E12CF60161916F01C701800F911F0E9496
:103B2000F42F0E9411308823E1F3FFEFEF1AFF0A10
:103B300025E0E216F10469F7BFCF8091D807909194
:103B4000A102892B9091D907892B21F082E00E9454
:103B50009329B2CF0E949B308823C1F381E48093E4
:103B6000DA078093B90382E48093DB078093BA037A
:103B700083E48093DC078093BB0384E48093DD07B8
:103B80008093BC0364E081E090E00E949F2B83E37C
:103B90008093B80391CF8091D8079091A102892B8F
:103BA0009091D907892B11F0812FD1CF0E949B30A2
:103BB0008823D1F30DEF010F40E250E06FEF70E08A
:103BC0008AED97E00E94D834011120C081E48093EF
:103BD000DB078093B90382E48093DC078093BA0308
:103BE00083E48093DD078093BB0384E48093DE0746
:103BF0008093BC031092DF071092AB021092D9039E
:103C00001092DA031092DB031092DC0360E220E2F0
:103C1000029FC00111240E949F2B81E0810F0E940E
:103C20009329B5CF0091D8078091A102082B8091EC
:103C3000D907082B11F083E28ACF0E949B3088239A
:103C4000D1F3F12CE12CC7010E944630F701E45179
:103C5000FF4FE4918E130FEF8FEFE81AF80A96E00A
:103C6000E916F10481F758E0E52EF12CC7010E9416
:103C70004630182F8F3F51F4EFEFEE1AFE0AFCED9D
:103C8000EF16F0E3FF0691F7002311F083E05FCF1A
:103C90000E94331C409AFBCE1091D8078091A1025C
:103CA000182B8091D907182B11F084E250CF0E9475
:103CB0009B308823D1F36DEB73E0CE0101967C013C
:103CC0000E94FE34F70101900020E9F7BF01615026
:103CD00071094AED57E0C7010E94FE298091020157
:103CE000813091F048E0E42EF12CB7018AED97E0A5
:103CF0000E94CB2A811114C0F5E0EF0EF11C2CEDCF
:103D0000E21620E3F20689F780910801882309F47E
:103D1000D3CE80910201813029F40E947007CCCE6D
:103D20001FEFF2CF112309F4C7CEF7CF65EA73E096
:103D3000FB0101900020E9F7BF01615071094AEDD4
:103D400057E085EA93E00E94FE2938E0E32EF12C4B
:103D500010E000E0C8018F719927892B21F401152B
:103D6000110509F0A895B7018AED97E00E94CB2ACA
:103D70008111A2CE0F5F1F4FF5E0EF0EF11C043C46
:103D800029E0120739F765EA73E0FB010190002092
:103D9000E9F7BF01615071094AED57E085EA93E008
:103DA0000E94FE2988E0E82EF12C10E000E00AC015
:103DB0000F5F1F4FF5E0EF0EF11C043C29E01207E6
:103DC00009F47ACEC8018F719927892B09F4A89537
:103DD000C7010E9446308F3F59F72AEDC22E27E0D7
:103DE000D22E10E000E0F60161916F01C8018E0D46
:103DF0009F1D0E94F42F0E9411308823E1F3A895A3
:103E00000F5F1F4F0530110571F756CE0B5F1F4F27
:103E10000C3D80E3180709F064CE4ECE0E941412C8
:103E2000811106C00E94271D811102C00E94E21765
:103E30000C94D129E82FF0E0E153FC4F9081907F62
:103E400081E009F080E008959091D803892F8D7F5B
:103E50008093D8038091CF03807F90FD56C081115D
:103E60004BC08091E1039091E203A091E303B091F4
:103E7000E4034091DD035091DE036091DF03709114
:103E8000E00384179507A607B70798F40196A11DCC
:103E9000B11D8093E1039093E203A093E303B093F9
:103EA000E403481759076A077B0719F481E08093F8
:103EB000D8038091D8039091E503891781F080930E
:103EC000E503982F92609093D80380FD53C0109221
:103ED000E1031092E2031092E3031092E403809155
:103EE000CE03882341F09091D8039D7F9093D8030F
:103EF00081508093CE0308951092E1031092E20363
:103F00001092E3031092E403D4CF882351F18091FF
:103F1000D4039091D503A091D603B091D7034091DB
:103F2000D0035091D1036091D2037091D3038417D1
:103F30009507A607B70708F0BCCF0196A11DB11DD4
:103F40008093D4039093D503A093D603B093D70363
:103F5000481759076A077B0709F0ABCF1092D803BF
:103F6000A8CF1092D4031092D5031092D6031092CA
:103F7000D7039FCF1092D4031092D5031092D6038B
:103F80001092D703ACCF8091CF03189B86958160A8
:103F90001899880F8093CF030895CF92DF92EF9204
:103FA000FF928091D9039091DA03A091DB03B09145
:103FB000DC032091AB020097A105B105A1F00197A8
:103FC000A109B1098093D9039093DA03A093DB038D
:103FD000B093DC03892B8A2B8B2B29F481E02111F0
:103FE00080E08093AB028091AB02882309F442C049
:103FF00080918F0281113EC0C0904302D090440254
:10400000E0904502F09046022FEFC216D206E2067B
:10401000F20681F18FEFC81AD80AE80AF80AC092AE
:104020004302D0924402E0924502F0924602C70158
:10403000B6012AE030E040E050E00E941632672BE3
:10404000682B692BB9F464EE70E38C2D0E94AE2BC3
:1040500065EE70E3809144020E94AE2B66EE70E341
:10406000809145020E94AE2B67EE70E3809146027C
:104070000E94AE2B8091AB0280938F02882369F05F
:104080008091430290914402A0914502B091460272
:104090008032914AA740B10510F05D9801C05D9A49
:1040A000FF90EF90DF90CF90089584E190E0A0E042
:1040B000B0E08093D0039093D103A093D203B09348
:1040C000D3038093DD039093DE03A093DF03B093CB
:1040D000E00384EE90E30E9473306F3F2FEF72078E
:1040E0008207920749F060934302709344028093E1
:1040F00045029093460208951092430210924402A2
:10410000109245021092460208951092E503109213
:10411000D9031092DA031092DB031092DC038EE1D4
:104120008093CE03089590937D0580937C05109233
:10413000860510928505E0ECF0E080818064808344
:10414000F894E1ECF0E08081806480837894000052
:104150008FEF809393020895CF93DF9321E4209310
:104160003E0624E520933F06A0E4B6E0FC0193E080
:10417000981B892F8E0FED0124912D93211107C0DB
:104180009DE0988390E0DF91CF910C94932031963D
:10419000F0CFEEE3F6E081E4808384E58183019053
:1041A0000020E9F7CF018F5396409927FC01E25C8C
:1041B000F94F2DE0208301960C94932078942F934F
:1041C0002FB72F933F938F939F93EF93FF9320915C
:1041D00085053091860580917C0590917D05281795
:1041E000390788F0F8948091C1008F7B8093C100DB
:1041F00078940000FF91EF919F918F913F912F91C3
:104200002FBF2F911895329910C0809185059091FC
:104210008605FC01E25CF94F2081019690938605AA
:10422000809385052093C600E5CF8FEF809393029E
:10423000E1CF8F938FB78F938091C1008F77809359
:10424000C10078948091C6000F924F931F92112461
:104250002F933F93EF93FF93AF93BF939F9320913F
:104260008105309182058F3F09F4E8C0EBEEF3E061
:10427000A901203991E0390708F0CDC02115310599
:1042800021F48A3009F04AC02CC09091EB038D30A4
:1042900009F59D30F9F09A30E9F09091E60391111B
:1042A00019C091E890939202439AF8949091C100BA
:1042B0009F779093C10090B79D7F90BF7894000046
:1042C0001092EA031092E90310927F0510927E0586
:1042D0001092E60321153105A1F290819D3089F6F7
:1042E0001DC09091E603911119C091E8909392023C
:1042F000439AF8949091C1009F779093C10090B732
:104300009D7F90BF789400001092EA031092E90319
:1043100010927F0510927E051092E6038F01A9018D
:104320004F5F5F4FDF01A20FB31F00B601FE5DC0FC
:104330002430310508F459C08A3009F056C0BD0157
:1043400061507109EB0198819D3009F04EC06150B8
:104350007109EB0198819A3009F447C061507109E5
:10436000EB0198819D3009F440C0EF0191819A30B2
:10437000E1F590819D30C9F560917E0570917F05D2
:104380007093EA036093E90350937F0540937E05A1
:104390009091E6039F5F9093E60360918D05709185
:1043A0008E057093900560938F0560918B057091D9
:1043B0008C0570938E0560938D05609189057091D1
:1043C0008A0570938C0560938B056091E903709169
:1043D000EA0370938A056093890560917E05709168
:1043E0007F057093880560938705909180059923D8
:1043F00061F02330310549F4803239F49091ED03B6
:104400009E3319F49FEF9093E7038C939A01E40F86
:10441000F51F10820FC030E020E080E88093920208
:104420001092EA031092E90310927F0510927E0524
:104430001092E60330938205209381051092910536
:104440009F91BF91AF91FF91EF913F912F911F905D
:104450004F9100B601FE08C0F8948091C1008068B9
:104460008093C100789400000F908F918FBF8F913F
:10447000189583E08093C4001092C500E1ECF0E051
:104480008081886180838BB18C7F8BB951984298F1
:1044900043983B98089599B1892F887093FF0EC077
:1044A00010920A011092820510928105519A8BB1E7
:1044B00083608BB93B9A439A429A8FEF089580911B
:1044C0000A018823B9F191E0980F90930A01913A7B
:1044D00039F1A8F49F30D9F030F49230D1F0933014
:1044E000E9F080E0089587528430D8F70E944B228B
:1044F00091E0811101C090E0892F819508959F3F3F
:10450000A0F4953F98F7983C49F0973D51F754989F
:10451000E8CF54980E944B2281110BC0549AE1CFEE
:104520001092910210929002DCCF81E080930A01F8
:10453000D8CF8FEF0895FC014217130609F048F415
:10454000DB01A551BC4F90E0491305C0942F81E0D9
:10455000491380E008952D9184912813F8CF319666
:104560009F5FF2CF8FB7F8941092EA031092E9039D
:1045700010927F0510927E058FBF08952F923F9273
:104580004F925F926F927F928F929F92AF92BF9263
:10459000CF92DF92EF92FF920F931F93CF93DF930F
:1045A000C8E047E0842E59E0952E63E0762E78E04F
:1045B000672EE5E15E2EF2E04F2EADE03A2E22248A
:1045C00023949FB7F8948091E603811128C09FBF80
:1045D000C0919C05CC2301F1C150C0939C05D0E053
:1045E000CE56DA4F8881809392021882C09192024F
:1045F0008C2FDF91CF911F910F91FF90EF90DF9063
:10460000CF90BF90AF909F908F907F906F905F9072
:104610004F903F902F90089510929202E9CF8530ED
:1046200008F084E0E82FF0E0EE0FFF1FE957FA4FA3
:10463000C080D180118210828150E82FF0E0EE0F0F
:10464000FF1FE957FA4F208131818093E6039FBF16
:10465000C216D306A8F580919C058A3010F090927E
:104660009C0589010C191D0904501109760142E0CD
:10467000E40EF11CC90185519C4FFC013397B080B9
:104680003197A080F601E551FC4FD581EBE4BE12D5
:104690001BC0FFE4AF1245C10597FC018081803249
:1046A00009F45AC12630310508F456C1E0919C0541
:1046B00081E08E0F80939C05F0E0EE56FA4F208249
:1046C000C15009F07ECF94CFD734A1F4980146E0D1
:1046D000B70183E594E00E949B22882359F0E09182
:1046E0009C0581E08E0F80939C05F0E0EE56FA4F1A
:1046F0003082E6CFFFE4AF1215C0980145E0B70164
:104700008DE494E00E949B22882361F0E0919C0557
:1047100081E08E0F80939C05F0E0EE56FA4F44E066
:104720004083CECF87E4B81215C0980147E0B701A7
:1047300085E494E00E949B22882309F4F5C0E0916F
:104740009C0581E08E0F80939C05F0E0EE56FA4FB9
:104750004082B6CFE4E4BE12E7C098014CE0B70156
:1047600088E394E00E949B22882309F4DDC0E09155
:104770009C0581E08E0F80939C05F0E0EE56FA4F89
:104780008CE080839DCFDD34A1F4980146E0B70131
:104790008AE294E00E949B22882309F1E0919C0523
:1047A00081E08E0F80939C05F0E0EE56FA4F508228
:1047B00087CFD435A1F4980146E0B70183E294E0B5
:1047C0000E949B22882359F0E0919C0581E08E0F86
:1047D00080939C05F0E0EE56FA4F608271CFF5E4CD
:1047E000AF1214C098014AE0B70188E194E00E943A
:1047F0009B22882359F0E0919C0581E08E0F8093E5
:104800009C05F0E0EE56FA4F70825ACF45E4B412A0
:1048100014C098014BE0B7018CE094E00E949B2209
:10482000882311F1E0919C0581E08E0F80939C0517
:10483000F0E0EE56FA4F908243CF89E5B81214C0EB
:10484000980144E0B70187E094E00E949B2288230E
:1048500059F0E0919C0581E08E0F80939C05F0E07B
:10486000EE56FA4F80822CCFD53411F598014BE0EB
:10487000B7018BEF93E00E949B22882309F420CF9D
:104880004AE050E070E060E0C60187509C4F0E9413
:10489000683370939D0260939C02E0919C0581E0D7
:1048A0008E0F80939C05F0E0EE56FA4F45E038CF2E
:1048B000D33509F005CF98014BE0B7018FEE93E0B7
:1048C0000E949B228823C1F04AE050E070E060E043
:1048D000C60187509C4F0E94683370939B0260937F
:1048E0009A02E0919C0581E08E0F80939C05F0E098
:1048F000EE56FA4F86E045CF980146E0B70188EEC4
:1049000093E00E949B22882309F4DACEE0919C0573
:1049100081E08E0F80939C05F0E0EE56FA4F8EE01A
:1049200030CFD73409F4D2CED93409F02CCF980146
:1049300046E0B70181E394E00E949B22882309F4BA
:104940004ECFE0919C0581E08E0F80939C05F0E0B6
:10495000EE56FA4F8AE015CFD73409F0CECEB6CE58
:10496000CF930E94BE228823D9F080919202843096
:1049700021F0833111F0813089F4CFB7F8940E948F
:10498000B222439AF8948091C1008F778093C1003E
:1049900080B78D7F80BF78940000CFBF8091920256
:1049A000CF910895AF92BF92CF92DF92EF92FF9294
:1049B0000F931F93CF93DF936C01B62EA42EF601B5
:1049C000C081D181888190E00E944934892B39F5DA
:1049D000FAE0BF9E800111240B571B4FBA1498F4C4
:1049E000F801E490F12CB8016F5F7F4FA701CE0171
:1049F0000E945A34065F1F4F892BB1F4CE0DDF1D84
:104A0000F601D183C0838B2DDF91CF911F910F9140
:104A1000FF90EF90DF90CF90BF90AF9008952196D8
:104A2000F601D183C083CBCFB394D8CFEF92FF925E
:104A30000F931F93CF93DF937C01F701C081D18146
:104A4000088110E0C8010E944934892B09F03FC059
:104A5000C8010E9452348C018091B90390E00E94F9
:104A6000523408171907C1F5898190E00E94523429
:104A70008C018091BA0390E00E9452340817190704
:104A800059F58A8190E00E9452348C018091BB03D9
:104A900090E00E94523408171907F1F48B8190E0DE
:104AA0000E9452348C018091BC0390E00E945234E9
:104AB0000817190789F42496F701D183C0838FEF73
:104AC000DF91CF911F910F91FF90EF900895219664
:104AD000F701D183C083B1CF80E0F2CF44E050E052
:104AE00060E874E00E945A3421E0892B09F020E04C
:104AF000822F08950C94D224EF92FF920F931F936C
:104B0000CF93DF93EC017B01088119814AE050E0EB
:104B1000BC01C8010E945832F7016083718382830F
:104B2000938381E0288139812017310709F480E0DF
:104B3000DF91CF911F910F91FF90EF900895DF9239
:104B4000EF92FF920F931F93CF93DF937C01D62EAA
:104B5000F701C081D181088110E0C8010E94493469
:104B6000892BA1F48D2D90E00E945234081719076B
:104B700091F42196F701D183C0838FEFDF91CF911C
:104B80001F910F91FF90EF90DF9008952196F7010C
:104B9000D183C083DDCF80E0F1CFDF92EF92FF922F
:104BA0000F931F93CF93DF938C01D62EF801E080F3
:104BB000F180CE2DDF2D899190E00E944934892B20
:104BC00089F48D2D90E00E945234982FF701819145
:104BD000882361F07F019813F9CFD801ED93FC93FE
:104BE0008FEF06C0D801CD93DC93E0CF9923A9F3D2
:104BF000DF91CF911F910F91FF90EF90DF9008957B
:104C0000CF92DF92EF92FF920F931F93CF93DF9398
:104C10008C01E62ED72EF42EF801C081D181888137
:104C200090E00E944934892B89F4CE2DDD2DEF0CC4
:104C30006E01EC1210C0F6011082DF91CF911F912E
:104C40000F91FF90EF90DF90CF9008952196D801BB
:104C5000CD93DC93E1CFD801ED91FC91F0808F2DC5
:104C600090E00E944934892B31F7F992FF2019F323
:104C7000D8018D919C91119701968D939C93D8CFDB
:104C80008F929F92AF92BF92CF92DF92EF92FF925C
:104C90000F931F93CF93DF93CDB7DEB764970FB613
:104CA000F894DEBF0FBECDBF7C016B01042FF7016E
:104CB000A080B180F501808190E00E944934892B69
:104CC00009F049C010E04501F50181915F01882399
:104CD00049F0143138F48032B1F30E94EB298D3061
:104CE00009F040C0512F1A3008F059E0812F1930D7
:104CF00008F489E08950990BA1E0B0E0AC0FBD1F2A
:104D0000A80FB91FC60130E020E00150110B251794
:104D100018F420173107BCF1F601E50FF11D1082E0
:104D2000F6018081882321F0F701808291828FEF44
:104D300064960FB6F894DEBF0FBECDBFDF91CF9162
:104D40001F910F91FF90EF90DF90CF90BF90AF90A9
:104D50009F908F9008958FEFA81AB80AF701B1823B
:104D6000A082A5CFF5013197808190ED980F9A3000
:104D700008F0A9CFE1E0F0E0EC0FFD1FE10FF11D1D
:104D800080831F5FA0CF4D91FC014193CF012F5F26
:104D90003F4FBDCF9F92AF92BF92CF92DF92EF92E3
:104DA000FF920F931F93CF93DF9300D000D000D0DA
:104DB0000F92CDB7DEB79F838E837C0182E3F7012C
:104DC000AAEDB7E001900D928A95E1F75701F50140
:104DD00081918F0190E00E944934892BE1F5CE0149
:104DE00001966C0185015C0184E0982E900EF8011B
:104DF00081918F01882349F090E00E945234F6019E
:104E000081936F019012F3CF8FEF1D82882329F1D8
:104E10006AE072E0C5010E94F534892BF1F461EA81
:104E200071E084E993E00E941435892BB1F010E120
:104E3000812F27960FB6F894DEBF0FBECDBFDF914E
:104E4000CF911F910F91FF90EF90DF90CF90BF9087
:104E5000AF909F9008955801BACFCE0106960E9458
:104E600016252E819F81811108C0822F0E946E25F8
:104E7000182F8823E9F21BE0DBCF022F192FF8014E
:104E800081918F01811110C04AE160E0CE01069648
:104E90000E94D224182F8A3108F043C2E82FF0E094
:104EA000EE5AF74C0C94383290E00E945234F801DC
:104EB00031978083E4CF0F5F1F4F1F830E830E81D6
:104EC0001F81F801808190E00E944934892B99F775
:104ED00030E020E0C8018E199F098652984FFC01EE
:104EE000E20FF31F40815FEB540F5A3128F040531B
:104EF0004A3010F012E09CCF2F5F3F4F2430310535
:104F000071F7FC0140815181628173814093B90343
:104F10005093BA036093BB037093BC0344E061E019
:104F200070E00E947E2B13E083CF4EE065EA73E0D1
:104F3000CE0106960E94402681117ACF0E811F81F4
:104F4000F801808190E00E944934892B69F443E0A4
:104F500050E06CE774E0C8010E94823418E0892BAD
:104F600009F466CF16E064CF0F5F1F4F1F830E83D7
:104F7000E5CF4EE065EA73E0CE0106960E9440263A
:104F8000882309F4B7CF85E20E949329CCCF4EE065
:104F900065EA73E0CE0106960E944026882309F454
:104FA000A9CF88E2F1CF47E168E0CE0106960E94E2
:104FB000D224883071F481E08093020161EE70E3C5
:104FC0000E94AE2B8FEF8093080162EE70E381E0C8
:104FD0000EC08930C1F481E08093020161EE70E37C
:104FE0000E94AE2B1092080162EE70E380E00E94F6
:104FF000AE2B1092070166E070E080E00E94AE2BBD
:105000000E94640790CF863191F481E08093020181
:1050100061EE70E30E94AE2B1092080162EE70E325
:1050200080E00E94AE2B8FEF8093070114C0853182
:1050300009F060CF81E08093020161EE70E30E948D
:10504000AE2B1FEF1093080162EE70E381E00E9427
:10505000AE2B1093070166E070E081E0CFCF47E10F
:1050600068E0CE0106960E94D224883031F4109276
:10507000020161EE70E380E0A3CF893031F4109239
:10508000020161EE70E380E0ABCF863131F4109223
:10509000020161EE70E380E0BDCF853109F02ACFD7
:1050A0001092020161EE70E380E0C9CF19E0C0CE3A
:1050B0000F5F1F4F1F830E830E811F81F801F08049
:1050C0008F2D90E00E944934892B91F7FF2009F43D
:1050D00011CF81E480933E0684E580933F061F93C1
:1050E0000F938FE092E09F938F9380E496E09F93DD
:1050F0008F930E9453350E94C9208FEF80934902FD
:105100008CE291E090934802809347020F900F90B9
:105110000F900F900F900F9006CF0F5F1F4F1F83C0
:105120000E830E811F81F801808190E00E94493436
:10513000892B99F743E050E068E774E0C8010E94CA
:105140008234892B21F410929F021DE071CE4EE033
:105150006CE977E0CE0106960E9440261CE0882389
:1051600009F466CE8FEF80939F021EE061CEB501F9
:10517000CE0106960E947C25882309F4BBCE898146
:10518000482F5A816B817C818A019B010150110952
:10519000210931090F3916482140310508F0AACEFE
:1051A000C0900301D0900401E0900501F090060149
:1051B000409303015093040160930501709306012D
:1051C0006CED70E30E94AE2B6DED70E380910401F5
:1051D0000E94AE2B6EED70E3809105010E94AE2B14
:1051E0006FED70E3809106010E94AE2B2FE9C2168D
:1051F00026E8D20621E0E206F104C9F489819A8109
:10520000AB81BC818F399648A140B10581F065E042
:1052100070E08FEF0E94AE2B1092AB021092D90378
:105220001092DA031092DB031092DC035D980E9467
:1052300064071FE0FDCD0F5F1F4F1F830E830E819C
:105240001F81F801808190E00E944934892B99F7F1
:1052500042E050E065E774E0C8010E948234892B87
:1052600021F58FE996E8A1E0B0E0809303019093E7
:105270000401A0930501B09306016CED70E38FE982
:105280000E94AE2B6DED70E3809104010E94AE2B65
:105290006EED70E3809105010E94AE2B6FED70E31F
:1052A000809106010E94AE2BC2CF43E050E061E73F
:1052B00074E0C8010E948234892B09F01BCE82E081
:1052C00090E0A0E0B0E08093030190930401A093EC
:1052D0000501B09306016CED70E3D2CF88E198E050
:1052E0000FB6F894A895809360000FBE909360006D
:1052F000FFCF8FEF8093290291E09093020180937A
:1053000008018093070164E973E089EB92E00E9451
:10531000FE346AE574E08DE995E00E947B3484E711
:1053200033CE11E085CDEEEAF7E030E020E0919158
:10533000911105C02255384FF901808308952F5FE0
:105340003F4F2A30310599F70895EEEAF7E030E053
:1053500020E09191981761F0911105C02255384FC6
:10536000F901808308952F5F3F4F2A30310589F777
:10537000089590E0E92FF0E0E255F84F20812817DA
:1053800070F0621760F0292F293028F01092B707CB
:105390009A3081F70895318131932F5FF5CF9F5F68
:1053A000F7CFEEEAF7E08181819387E0E73BF807EA
:1053B000D1F71092B7070895EEEAF7E02AE02E0F32
:1053C0009191981710F0691720F42E13F9CF80E00F
:1053D00008958FEF08958B3259F030F4833251F0F5
:1053E0008A3251F08DE0089580538A30D8F70895BD
:1053F0008AE008958CE008958BE00895AF92BF9203
:10540000CF92DF92FF920F931F93CF93DF93182FCA
:10541000EB016A0145E050E06FEF70E0C6010E94C9
:10542000D8348C2F811B182F219700E0823058F43C
:10543000DF91CF911F910F91FF90DF90CF90BF90A0
:10544000AF900895092F88810E94EB29F82EF294DD
:1054500080EFF822FE0182915F010E94EB298F29E3
:10546000113061F4E5018F6010E091E0900FF601DA
:10547000E00FF11D80831111E5CFDACF2297125092
:10548000F4CFE82FF0E0E757FA4F84910895CF93D7
:10549000DF939C01EB011882BC0180E0DB016F5FB0
:1054A0007F4F9C919F3F19F0853009F04AC0A217A9
:1054B000B30709F44AC0642F70E090E0880F991F89
:1054C00011976817790744F4DB011197B7FDDB01E9
:1054D000B595A795A20FB31FEC918E2F8F708F30CB
:1054E00091F5E295EF70F0E0E757FA4F84918883E9
:1054F000882319F02196119781E011961197A21730
:10550000B307D8F0EC91EF70F0E0E757FA4FE49171
:10551000E883EE2311F021968F5F841771F0EC91F0
:10552000E295EF70F0E0E757FA4FE491E9938F5F6F
:10553000481719F02A173B0709F71882DF91CF9116
:1055400008958F5FABCF80E0D8CF80E0F7CFFF9298
:105550000F931F93CF93DF9300D000D00F92CDB75E
:10556000DEB78B01F42E45E050E0BC01CE01019680
:105570000E9463304F2DB801CE0101960E94472A48
:105580000F900F900F900F900F90DF91CF911F9180
:105590000F91FF9008950F931F93CF93DF93EC012A
:1055A0008B0188818F3FF1F0CB010E9446308F3F05
:1055B000C9F0C8010E944630382F307F9991292FB9
:1055C000207F303FA9F0203F99F032130BC08F703D
:1055D0009F708F3069F09F3059F0891303C00F5FBF
:1055E0001F4FE7CF80E0DF91CF911F910F9108957A
:1055F0008FEFF9CF0F931F93CF93DF9300D000D09D
:105600000F92CDB7DEB78B01FC0101900020E9F7C6
:105610003197BF01681B790B680F792F711DAE019F
:105620004F5F5F4F0E94FE29B801CE0101960E9494
:10563000CB2A0F900F900F900F900F90DF91CF918A
:105640001F910F9108950F931F93CF930E949B304A
:10565000882381F18091D8079091A102892B9091A4
:10566000D907892B39F1C091A0020C2F10E080914D
:10567000D6079091D707800F911F0E946A2FF801DB
:10568000E652F84F9081891301C0CF5F8091A1024B
:10569000C817A0F48C2F90E0FC01E652F84F20913F
:1056A000D6073091D7076081820F931F0E94F42F95
:1056B000C093A002CF911F910F9108958091D807B8
:1056C0001092D8078093A1022AED37E0F9018823D0
:1056D00079F39E2F921B981770F080910C0890918F
:1056E0000D089093D7078093D6076091DA070E9440
:1056F000F42FC0E0DDCF90A59193EBCF0F931F93D4
:10570000CF938B01C42F4423B1F050E0BC018AED4C
:1057100097E00E94CF341093D7070093D6071092DA
:10572000A002C093A1026091DA07C801CF911F9136
:105730000F910C94F42FCF911F910F910895662330
:1057400061F09093D7078093D6071092A0026093E0
:10575000A1026091DA070C94F42F08951F93CF9360
:10576000DF93182FEB01CB010E944630811791F097
:105770001093DA07D093D707C093D6071092A002F0
:1057800081E08093A102612FCE01DF91CF911F9123
:105790000C94F42FDF91CF911F9108950F931F93D5
:1057A000CF93DF9300D000D0CDB7DEB78C01198244
:1057B0001A821B821C820E9446308983C80101968E
:1057C0000E9446308A83C80102960E9446308B832D
:1057D00069817A818B819C810F900F900F900F903F
:1057E000DF91CF911F910F910895DF92EF92FF9279
:1057F0000F931F93CF93DF93DC011D91141710F0CB
:105800001FEF140F862F072FC0E0D12C90E0D0E8B7
:1058100027E030E0C1130CC0C60FD72FD11D18826E
:10582000DF91CF911F910F91FF90EF90DF9008953E
:105830004D2D50E0EC91F0E0ED2EF12CE094F09441
:10584000EE21FF2102C0EE0FFF1FDA94E2F7E90F0D
:10585000F11DE655F94F9491E82EF02EF701919342
:105860007F01CF5FFC2FF770DF2E89F0ED91ED23E4
:10587000F0E0C901841B950B02C0F595E7958A9568
:10588000E2F79E2FD695D0588E2D0F2DC3CF90E0E6
:10589000D0E8FACFCF92DF92EF92FF920F931F934F
:1058A000CF93DF93EC01461B570BDC014D933FEF89
:1058B000340F90E020E00FE710E087E04FEF50E07A
:1058C000231738F188818770D1F0FB01E20FF11DB9
:1058D000E081F0E0E655FA4F24914FE750E0092EC1
:1058E00002C0440F551F0A94E2F7E22FF0E0E423D0
:1058F000F52302C0F695E7959A95E2F7ED93CD0171
:10590000DF91CF911F910F91FF90EF90DF90CF909B
:1059100008956B01C20ED11CF601F080EF2DF0E06E
:10592000E655FA4FE4917801092E02C0EE0CFF1CF7
:105930000A94E2F7F0E0EE22FF22092E02C0F6946C
:10594000E7940A94E2F7F601F180EF2DF0E0E655D6
:10595000FA4FE491F82EF91A6A010F2C02C0D6947E
:10596000C7940A94E2F7EC2101C0EE0FFA94EAF72B
:10597000EE29ED939F5F973011F42F5F90E02F5F3A
:105980009FCFFC01640F752F711D4617570709F44F
:10599000089590819A3370F49053292F2295207F97
:1059A00091819A3348F49053920FDA019D93AD019F
:1059B0003296EBCF9753F1CF9753F6CF1F93CF93F8
:1059C000DF93DC01EA018C91873C50F0DB011C92F3
:1059D0008FEF888390E080E0DF91CF911F91089551
:1059E00018828C9190E00196A80FB91F8C918B7F43
:1059F00011F08FEF888311963C911197313130F778
:105A0000FD01339612968C91982F9F7E41E091383C
:105A100009F040E0813921F48BE2DB018D93BD0177
:105A2000562F172F80E010C09081222311F09295FD
:105A300031969F70905D411101C090E3A52FB12F69
:105A40009D938F5F5A2F1B2F282F21708313ECCF2C
:105A5000680F711DDB011C92211101C031978281F9
:105A6000882311F08FEF8883CF010396B5CFFC0117
:105A70009081A92FAF708AE092959F70A89F900D9A
:105A80001124DB019C939181692F6F7092959F7017
:105A9000689F900D1124DA019C939281492F4F70D9
:105AA00092959F70489F900D1124D9019C93CF012E
:105AB00003960895FC019081A92FAF708AE092951A
:105AC0009F70A89F900D1124DB019C939181692FF9
:105AD0006F7092959F70689F900D1124DA019C93CE
