:100000000C9490030C94AD030C94AD030C94AD03CD
:100010000C94AD030C94AD030C94AD030C94AD03A0
:100020000C94AD030C94AD030C94AD030C94AD0390
:100030000C94AD030C94AD030C944F040C94AD03DD
:100040000C94AD030C94AD030C9432210C94AD03CD
:100050000C94F7200C94AD030C94AD030C94AD03F9
:100060000C94AD030C94AD030C94AD030C94AD0350
:100070000C94AD030C94AD030C94AD030C94AD0340
:100080000C94AD030C94AD030C94AD030C94AD0330
:100090000C94AD030C94AD030C94AD030C94AD0320
:1000A0000C94AD030C94AD030C94AD030C94AD0310
:1000B0000C94AD033A00206F3A200057796B7279A7
:1000C000746F20737465726F77616E6965207A3A18
:1000D0002000204D3A00444247204155544F2052C1
:1000E0003A00FF4142434400000043444547484929
:1000F0004A352B6370696E3F00000000000000006D
:100100002B636E6D693D322C312C322C31002B6DFE
:100110006F72696E673D3100000000002B636C69EF
:10012000703D31000000000000002B646465743DE8
:10013000312C31302C3100002B63616C6D3D31006E
:100140000000000000002B6372736C3D3100000062
:10015000000000002B637573643D31000000000057
:1001600000002B637062773D32362C223122000072
:100170002B636C74733D30000000000000002B63A3
:100180006D69633D302C3135002B636D6764613DD3
:1001900036002B6370696E3D223139373622002BD1
:1001A0006966633D322C32002B63706D733D2253C0
:1001B0004D222C22534D222C22534D22002B6364BE
:1001C000736362002B63636C6B3F002B636F707310
:1001D0003F002B637062723D3236002B637265679D
:1001E0003F002B637371002B7674733D3100610007
:1001F00068002B434D54493A002B636D67643D0002
:100200002B636D67723D002B636D67733D002B435D
:100210005553443A002B434D54493A002B44544D16
:10022000463A002B434C49503A003E002B434D4781
:10023000523A002B434F50533A002B435245473A12
:10024000002B4353513A002B4350494E3A2052451C
:10025000414459002B43434C4B3A00206F3A200055
:1002600057796B7279746F20737465726F77616EF2
:100270006965207A3A20004E6F74696679204F4E86
:100280003A20004E6F74696679204F4646004E6FE3
:1002900074696679204F4646004E6F74696679200E
:1002A0004F4E3A2000204D3A0020523A0020533A57
:1002B0000020433A00553A002B534D53200044543C
:1002C0004D4600434C495000505542200050524981
:1002D0005620004442472000303031414520426CD6
:1002E00061642050616D696563690044454255470A
:1002F000204552523A2042414420434F4445007722
:1003000077772E736F6E66792E706C00576C616311
:100310007A79204F5554206E613A200057796C61EC
:10032000637A79204F5554207A613A200057796CCE
:1003300061637A6F6E792028426973746162696CB7
:100340006E79290A00576C61637A6F6E79202842B2
:100350006973746162696C6E79290A00437A61730A
:10036000204F55543A20002044544D460020534D10
:10037000530020534D530020434C495000537465A3
:10038000726F77616E69653A20005075626C6963BF
:100390007A6E790A005072797761746E790A005426
:1003A0007279623A2000557A79746B6F776E69635F
:1003B000792000557A79746B6F776E6963793A208A
:1003C00000506F7A696F6D2047534D3A20004143CA
:1003D0002D323030302D44544D462D460A002B43EB
:1003E0005553443A002B434D53204552524F523AF5
:1003F000002B434D45204552524F523A004255532F
:1004000059004E4F204449414C544F4E45004E4FE9
:100410002043415252494552002B434D54493A0022
:100420002B44544D463A002B434C49503A004D4F13
:1004300020434F4E4E4543544544004D4F205249B2
:100440004E47004552524F52002B434D47533A00FE
:1004500054727962207365727769736F777920615E
:100460006B7479776E79004F4646004F4E004F46C9
:100470004600414C4C00433344340004434F444550
:10048000000000000003414444000000000000039D
:1004900044454C0000000000000458585858000023
:1004A000000000065245504F5254000000045553BE
:1004B00045520000000000044F50454E000000006F
:1004C0000005434C4F53450000000004434C495085
:1004D00000000000000444544D46000000000003EA
:1004E0005345540000000000000454494D450000ED
:1004F00000000006534B525942410000000544459C
:100500004255470000000003535542000000000020
:1005100000054D594E554D000000000455535344FD
:10052000000000000003434F4E00000000000002E6
:100530004F4E0000000000000005544F474C45009E
:100540000000000352535400000000000008534D07
:100550005320434C49500003534D5300000000000A
:1005600000045354414E0000000000045445434829
:100570000000000000035359530000000000003049
:100580003132333435363738392B2A2321210030A4
:1005900031323334353637383941424344454600E9
:1005A0003F3F3F3F3F3F3F3F3F3F0A3F3F0D3F3FC2
:1005B0003F3F3F3F3F3F3F3F3F3F3F3F3F3F3F3F4B
:1005C000202122230225262728292A2B2C2D2E2FD5
:1005D000303132333435363738393A3B3C3D3E3FA3
:1005E000004142434445464748494A4B4C4D4E4FD3
:1005F000505152535455565758595A3F3F3F3F1147
:100600003F6162636465666768696A6B6C6D6E6F93
:10061000707172737475767778797A3F3F3F3F3F98
:100620003F3F3F3F3F3F3F3F3F3F3F3F3F3F3F3FDA
:100630003F3F3F3F3F3F3F3F3F3F3F3F3F3F3F3FCA
:100640003F403F0124033F5F3F3F3F3F3F3F3F3F2E
:100650003F3F3F3F3F3F3F3F3F3F3F3F3F3F3F6089
:100660003F3F3F3F5B0E1C093F1F3F3F3F3F3F3F28
:100670003F5D3F3F3F3F5C3F0B3F3F3F5E3F3F1E85
:100680007F3F3F3F7B0F1D3F04053F3F073F3F3FFD
:100690003F7D083F3F3F7C3F0C063F3F7E3F3F3F53
:1006A00040A324A5E8E9F9ECF2C70AD8F80DC5E59E
:1006B0003F5F3F3F3F3F3F3F3F3F3F3FC6E6DFC9D2
:1006C00020212223A425262728292A2B2C2D2E2F32
:1006D000303132333435363738393A3B3C3D3E3FA2
:1006E000A14142434445464748494A4B4C4D4E4F31
:1006F000505152535455565758595AC4D6D1DCA765
:10070000BF6162636465666768696A6B6C6D6E6F12
:10071000707172737475767778797AE4F6F1FCE02B
:1007200011241FBECFEFD8E0DEBFCDBF12E0A0E0A6
:10073000B1E0EAE0F1E702C005900D92AC32B107FA
:10074000D9F728E0ACE2B2E001C01D92A633B207AF
:10075000E1F70E94B6300C9458380C940000CF9307
:10076000DF930F92CDB7DEB7CE018553984097FD4A
:100770000BC020910001309101018217930720F4F2
:1007800090930101809300010F90DF91CF91089524
:1007900010925402109253021092520208958091C6
:1007A0006C0295EB980F8C5E943108F083E30C9407
:1007B000BE2980918A0290918B028F3F980729F081
:1007C000019690938B0280938A028AE080933E0286
:1007D00010923D021092DC030E94C80383E30C9444
:1007E000BE29CF93DF93D0E0C0E06FEFCE010E942F
:1007F0000D300E942A308823E1F3CE018F709927B3
:10080000892B09F4A8952196CD3E84E3D80769F792
:10081000DF91CF910895BC018FE094E00C94C13436
:100820008FEF9FE80197F1F700C000008FEF9FE87E
:100830000197F1F700C000008FEF9FE80197F1F7F3
:1008400000C000008FEF9FE80197F1F700C00000A3
:100850008FEF9FE80197F1F700C00000A895089579
:10086000809181028F5F843618F48093810208950D
:10087000109281028091800291E0811190E090932A
:100880008002811102C040980895409A0895809195
:10089000F303807F11F4409A089540980895789466
:1008A0000F920FB60F921F9211242F938F939F9345
:1008B000EF93FF93809135028F5F809335028231F1
:1008C00028F0109235028FEF809337024B9B57C070
:1008D00000B601FC16C080919602811112C01092E0
:1008E000A6051092A5051092B50580B7826080BF5D
:1008F000F8948091C10080688093C10078940000D2
:10090000439832992FC0F8948091C10086FF29C086
:100910008091C1008F7B8093C10078948091970271
:100920008823C9F080919502811104C080916C02E6
:100930008D3289F4109297028091A9059091AA05B1
:10094000FC01EE59F94F208101969093AA058093FE
:10095000A9052093C600F8948091C100806480931B
:10096000C10078948FEF80933802FF91EF919F91AF
:100970008F912F911F900F900FBE0F901895439A53
:10098000F8948091C1008F738093C10080B78D7FF0
:1009900080BF78940000E6CF0F931F93CF93DF932F
:1009A0008C01DC01CD91DC914FE050E06EEC73E006
:1009B000CE010E94803461EC73E0CE010F960E945C
:1009C000943480910B01803210F590913402992378
:1009D000F1F06B96B4E68B9FC00111246FE170E0DB
:1009E0000E941B32CB014AE0BE010E9452350990A1
:1009F0000020E9F7FE01319785E281931082D8014A
:100A0000ED93FC93DF91CF911F910F9108958DE2AB
:100A10008B8F8C8FFE017E968D8FF0CF8F929F9261
:100A2000AF92BF92CF92DF92EF92FF920F931F93FC
:100A3000CF93DF938C01FC01C081D18163EB73E024
:100A4000CE010E94943409900020E9F7219788E0B4
:100A5000882E912CD12CC12CF12CE12CB12CA12C65
:100A6000C6018F719927892B21F4C114D10409F093
:100A7000A895C4010E945F308F3F91F1FFEFAF1A3C
:100A8000BF0AEFEFCE1ADE0AF5E08F0E911C84EC60
:100A9000C81689E0D80621F74AE0BE01C5010E94C8
:100AA000523509900020E9F721978FE289934AE0B7
:100AB000BE01C7010E94523509900020E9F7219735
:100AC000F801D183C083DF91CF911F910F91FF90E7
:100AD000EF90DF90CF90BF90AF909F908F90089550
:100AE0008FEFE81AF80ACDCFCF92DF92EF92FF9204
:100AF0000F931F93CF93DF938C01FC01C081D181B1
:100B00004CE050E066EA73E0CE010E9480342C96FF
:100B100088E0E82EF12CD12CC12CC7010E945F3057
:100B20008F3F59F1C394F5E0EF0EF11C8CEDE81600
:100B300080E3F80691F74AE0BE018C2D90E00E9418
:100B4000523509900020E9F721978FE289934AE016
:100B5000BE018D2D90E00E94523509900020E9F7EA
:100B60002197F801D183C083DF91CF911F910F911D
:100B7000FF90EF90DF90CF900895D394D4CFAF92B1
:100B8000BF92CF92DF92EF92FF920F931F93CF937A
:100B9000DF9300D0CDB7DEB7A89581EC95E09A83BE
:100BA0008983CE0101960E94CC04E981FA81CF01AC
:100BB00001969A8389831AE01083E981FA81108271
:100BC000CE0101960E940E05E981FA81CF010196BE
:100BD0009A8389831083E981FA8110826FE973E037
:100BE00089819A810E94943489819A8106969A8398
:100BF00089832091020165E973E0222311F06AE8FC
:100C000073E00E94943489819A81FC010190002054
:100C1000E9F7CF0101979A8389836DE773E00E941A
:100C2000943489819A810C969A8389832091080152
:100C3000222309F46CC067E773E00E949434898131
:100C40009A81FC0101900020E9F7CF0101979A8376
:100C500089832091070162E773E0211160C0E98177
:100C6000FA81CF0101969A8389838AE08083E981A2
:100C7000FA81108209811A81F80101900020E9F7B8
:100C80008F01015011091A830983C0900301D0908C
:100C90000401E0900501F0900601FFE9CF16F6E8A7
:100CA000DF06F1E0EF06F10409F046C06CE573E001
:100CB000C8010E94943489819A810A969A83898313
:100CC0002091AF0265E473E0211102C06DE273E090
:100CD0000E94943489819A81FC0101900020E9F7F7
:100CE000CF0101979A8389836FEF72E089819A819E
:100CF0000E9494340F900F90DF91CF911F910F912C
:100D0000FF90EF90DF90CF90BF90AF90089520912B
:100D100007016DE673E0211102C067E673E00E94EF
:100D2000943489819A81FC0101900020E9F7CF0178
:100D300001979A83898393CF8091AF026CE073E02F
:100D4000882391F06091FD037091FE038091FF0371
:100D5000909100042AE030E040E050E00E942F3201
:100D600069017A016CE173E0C8010E949434E98161
:100D7000FA8101900020E9F7CF0101975C019A8385
:100D80008983C701B60120E13EE040E050E00E94C7
:100D90002F32CB016CE370E00E940732F62E082F51
:100DA0001AE0822F612F0E94FB31E92E4AE0B50143
:100DB00090E00E94523569817A81FB010190002008
:100DC000E9F7BF01615071097A8369834AE08E2D8A
:100DD00090E00E945235E981FA8101900020E9F704
:100DE000DF011197FA83E98388E68C93E981FA8120
:100DF000CF0101969A8389838AE3E82EE0822981D4
:100E00003A818F2D612F0E94FB31F92E4AE0B90102
:100E100090E00E94523569817A81FB0101900020A7
:100E2000E9F7BF01615071097A8369834AE08F2D28
:100E300090E00E945235E981FA8101900020E9F7A3
:100E4000DF011197FA83E9838DE68C93E981FA81BA
:100E5000CF0101969A838983E08229813A81802F8C
:100E6000612F0E94FB31092F4AE0B90190E00E94F6
:100E7000523569817A81FB0101900020E9F7BF01B9
:100E8000615071097A8369834AE0802F90E00E9463
:100E90005235E981FA8101900020E9F7DF011197CD
:100EA000FA83E98383E78C93E981FA81CF01019684
:100EB0009A8389831083E981FA81108215CF109279
:100EC000AF021092FD031092FE031092FF031092E6
:100ED00000045D9808958091450290914602892B07
:100EE000A1F58AE090E0909346028093450220911C
:100EF00003013091040140910501509106012F3901
:100F000086E8380781E04807510581F481E0909137
:100F1000AF02911180E08093AF021092FD03109216
:100F2000FE031092FF031092000408958FEF809348
:100F3000AF02AAE0B0E00E9457326093FD037093C5
:100F4000FE038093FF039093000408950895AF92E9
:100F5000BF92CF92DF92EF92FF920F931F93CF93A6
:100F6000DF93CDB7DEB766970FB6F894DEBF0FBE3E
:100F7000CDBF0E94AF031092BF07A8958FEF80935B
:100F80005402109253021092520281EA97E00E949A
:100F9000E326182F80914E02811134C0809198026F
:100FA0001F928F93809199021F928F9380919A0242
:100FB0001F928F9388E191E09F938F938CE091E053
:100FC0009F938F930E946C35809198021F928F930C
:100FD000809199021F928F9380919A021F928F9312
:100FE00087E291E09F938F938CED97E09F938F938F
:100FF0000E946C358FE90E94AC290FB6F894DEBFD1
:101000000FBECDBF10924E0280912F02811110921F
:101010002F028CEF810F8230D8F4809192028C30B5
:10102000B8F00E94CF030E94D9030E94C8036696BD
:101030000FB6F894DEBF0FBECDBFDF91CF911F91E9
:101040000F91FF90EF90DF90CF90BF90AF900895F9
:1010500080916302882311F0193019F7E2EDF7E06F
:1010600020E090E08191882329F02F5F845782301F
:1010700008F49F5F87E0EC3DF807A1F7233208F4FE
:10108000F1C0193071F668EA73E08DEB92E00E94CE
:101090001735CE01855398407C010E94AF0308E0CC
:1010A00010E0D12CC12CC8010E945F308F3F19F095
:1010B0009FEFC91AD90A0B5F1F4F0C3DE0E31E07D3
:1010C00091F78091E1038823F1F061EE73E0FB0179
:1010D00001900020E9F7BF016150710940E058E03C
:1010E00081EE93E00E94172A08E010E0B80180E04A
:1010F00098E00E94E42A81114DC10B5F1F4F0C3D07
:10110000F0E31F0799F7A12C8091A8038823F1F041
:1011100068EA73E0FB0101900020E9F7BF0161502C
:10112000710940E058E088EA93E00E94172A08E03D
:1011300010E0B80180E098E00E94E42A81112DC1FE
:101140000B5F1F4F0C3DF0E31F0799F7B12C63EDC8
:1011500072E081EC95E00E9494348091020168EC89
:1011600072E0811102C06DEC72E085EC95E00E94A6
:10117000943405EC15E0F80101900020E9F78F01A7
:1011800001501109809108016EEB72E0882311F083
:1011900063EC72E0C8010E949434F80101900020D1
:1011A000E9F78F010150110980910701882309F4A3
:1011B000F7C068EB72E0C8010E9494340B5F1F4FC8
:1011C00065EB72E0C8010E9494340E5F1F4F4AE045
:1011D000B801C6010E945235F80101900020E9F7DC
:1011E0008F010150110961EB72E0C8010E94943433
:1011F00080E3A11081E3F80183836DEA72E0C80106
:1012000004960E94943480E3B11081E3F80187834F
:1012100069EA72E0C80108960E949434055F1F4F86
:101220004AE0B801C7010E944735F801019000204B
:10123000E9F78F010150110965EA72E0C8010E94C7
:1012400094340D5F1F4F4AE0B801809100019091E6
:1012500001010E945235F80101900020E9F7319711
:10126000108228C0963008F00CCF113108F0DDCE86
:10127000E12FF0E0E65AF74C0C9451326AE471E049
:1012800081EA97E00E942D35892B41F460E571E0F9
:1012900081EA97E00E942D35892BB9F068EA73E066
:1012A0008DEB92E00E9417356BEE72E081EC95E0D9
:1012B0000E94943484E70E94AC2982E080933E022D
:1012C00010923D021092DC03B0CE8091070188237A
:1012D00009F4ABCE80910201813009F168EA73E034
:1012E000FB0101900020E9F7BF0161507109AE01D7
:1012F0004F5F5F4F88EA93E00E94172A08E010E0F2
:10130000B801CE0101960E94E42A811108C00B5F4A
:101310001F4F0C3DF0E31F0799F781E0CFCF80917D
:101320002E028111FACF68EA73E081EE93E00E9409
:1013300017350E946B07F1CF80912D02811115C0E6
:1013400080912E02882389F068ED72E081EC95E0AF
:101350000E94943468EA73E08DEB92E00E941735A6
:1013600084E70E94AC2984E1A9CF809192028F5F2B
:101370008093920282EC91E090939102809390028C
:1013800068EA73E08DEB92E00E941735A8950E9401
:10139000BF0590CFAA24AA94B7CEBB24BA94D7CEC7
:1013A00080E2F80181938F010BCF809192028F5FD1
:1013B0008093920282EC91E090939102809390024C
:1013C00068EA73E08DEB92E00E94173569EB73E0F9
:1013D000FB0101900020E9F7BF0161507109AE01E6
:1013E0004E5E5F4F89EB93E00E94172A08E010E001
:1013F000B801CE0142960E94E42AF82E81113CC029
:101400000B5F1F4F0C3DF0E31F0791F741E1BE0159
:101410006F5F7F4FCE0142960E94602ABE016F5FD0
:101420007F4F81EC95E00E94173566E571E081EC15
:1014300095E00E94F83469E571E0F11002C06CE5B6
:1014400071E081EC95E00E94F83484E70E94AC29B9
:1014500082E080933E0210923D021092DC03809164
:10146000FE079091A502892B9091FF07892B09F027
:10147000DCCD0E94B430D9CDFF24FA94C7CF68EAFE
:1014800073E08DEB92E00E9417356BE771E081EC21
:1014900095E00E9417350ECF809192028F5F809366
:1014A000920282EC91E0909391028093900268EA1C
:1014B00073E08DEB92E00E9417351092A703109213
:1014C000A6038AE2F8CE68EA73E08DEB92E00E9410
:1014D00017351092A7031092A60389E2ECCE63E2BF
:1014E00082E00E94F5298111A0CD89E180933E021E
:1014F00010923D021092DC030E94F10383E00E94EF
:10150000AC2993CD68EA73E08DEB92E00E94173529
:101510008091A302882331F08091C00769E972E0CD
:10152000811114C06EE872E0C1CE68EA73E08DEB01
:1015300092E00E94173563E872E0B8CE68EA73E083
:101540008DEB92E00E94173567E772E081EC95E041
:101550000E94943460EC77E081EC95E00E94F834CE
:10156000A9CE64EA71E088EA93E00E942D35892BC8
:1015700009F454C0409147025091480260914902D9
:1015800070914A0240348DE0580783E06807710586
:1015900008F040C080E49DE0A3E0B0E0841B950B20
:1015A000A60BB70BBF93AF939F938F931F9283E0CC
:1015B0008F938DE08F9380E48F937F936F935F93EE
:1015C0004F931F9285E18F931F9286E08F931F9216
:1015D0008DE18F9381EB91E09F938F9381EC95E068
:1015E0009F938F930E946C3568EA73E08DEB92E0D5
:1015F0000E94173584E70E94AC2982E080933E0266
:1016000010923D021092DC030FB6F894DEBF0FBEBD
:10161000CDBF0BCD80E090E0DC01C4CF85E04ECEA5
:1016200083E04CCE80917F029091FC0390FF06C036
:10163000883C88F48F5F80937F020895883C60F037
:1016400063E282E00E94F529811103C083E00E94D9
:10165000AC2910927F0208958233D8F363E282E0CE
:101660000E94F5298111F5CF82E0F1CFCF93DF936E
:1016700080912E02882321F080912D02882389F108
:101680008091080181112FC080910701811129C02B
:1016900080910201813021F48FEFDF91CF91089585
:1016A0008091E1038823E9F061EE73E0FB01019092
:1016B0000020E9F7BF016150710940E058E081EE78
:1016C00093E00E94172AC8E0D0E0BE0180E098E0D5
:1016D0000E94E42A8111E0CF2596CC3DF0E3DF079C
:1016E000A1F780E0DACF809102018130A9F28091E8
:1016F000E1038823B1F361EE73E0FB010190002068
:10170000E9F7BF016150710940E058E081EE93E0D4
:101710000E94172AC8E0D0E0BE0180E098E00E9455
:10172000E42A8111B9CF2596CC3DF0E3DF07A1F77C
:10173000D8CF8CE380936E021092670210926602FB
:1017400010926002109261021092550280918F02F5
:10175000882309F456C08091C007882309F44FC03C
:1017600060EC77E08DEB92E00E94173560E672E066
:1017700081EC95E00E94943461EE73E081EC95E099
:101780000E94F8346BE572E081EC95E00E948934A8
:1017900081EC95E0FC0101900020E9F7CF01825C2B
:1017A0009540FC01EF53FA4F90910C019083E1E0DA
:1017B000E80FF0E0EF53FA4F90910D019083E2E0D3
:1017C000E80FF0E0EF53FA4F9AE39083E3E0E80F7D
:1017D000F0E0EF53FA4F90910F019083E4E0E80FAF
:1017E000F0E0EF53FA4F9091100190838B5FE82F58
:1017F000F0E0EF53FA4F108284E70E94AC29109278
:101800008F021092E10308958CE380936E02109290
:101810002C02089510920C04109267021092660236
:1018200010926B0210926A0210926C021092A40540
:101830008CE380936E021092630208950E940A0C5A
:1018400010926B0210926A0210926C021092C00504
:101850001092DA031092A40510920B041092680201
:1018600010922C021092640208950E941E0C86E9C8
:1018700080930A01109295021092940210925C02D9
:1018800010925B021092B20210925A021092590208
:10189000109255021092690283E680930B0162E771
:1018A0008FE50E94D2296FE38BE20E94D22969E47E
:1018B00080E40E94D22966E784E70E94D229109230
:1018C00034020895809196028D3051F41092620294
:1018D00010922C021092630286E480936E020895A7
:1018E00080919602863059F5209162022F5F2093F5
:1018F000620280919E0290919F02853032E09307B0
:1019000061F08A3331E0930741F0833032E093078E
:1019100021F080519240029770F48CE380936E0224
:1019200080916302223080F11092620210922C02A8
:101930001092630208958CE380936E02F5CF80913C
:101940009602843021F58CE380936E021092A405F8
:10195000809111048E3331F48091A5059091A605F4
:101960000A9720F080916302811107C010926202F1
:1019700010922C020E94350CDBCF909162029F5F87
:1019800090936202923080F60E94AC29D1CF809170
:1019900096028530B9F48091A0029091A1028A301C
:1019A000910539F09C012D7F2D30310511F04E97B6
:1019B00069F4109262028CE380936E0210922C0202
:1019C0000C94350C809196028091960208950F93A5
:1019D0001F93CF93DF93D0919602C0916C02CF33C7
:1019E00009F4C7C008F070C0C63309F429C238F53D
:1019F000C03309F4C8C288F4CD3209F4B4C0CF3280
:101A000009F437C110926B0210926A0210926C02B4
:101A1000DF91CF911F910F910895C33309F44DC108
:101A2000C53381F7D13009F4B5C28091DB038F5FF4
:101A30008093DB03833008F0ADC28C2F7BC1CA33A7
:101A400009F49FC188F4C73309F402C2C833D1F640
:101A500088E3D13009F0F6C081E00E94990B109222
:101A6000680210920C04CECFCC3309F467C108F49D
:101A70009CC1CE3339F6D13029F68AE392E00E9438
:101A80000B04FC01892B09F4BDCF27812C3209F00E
:101A90006CC1379680818C3229F081818C3209F0BB
:101AA00066C131964AE050E070E060E0CF010196F7
:101AB0000E947132662329F08DEF860F823008F084
:101AC00058C10E94350C9ECFCB3458F5C73408F06E
:101AD000A9CFC23409F4A6CFE8F4C03409F494C005
:101AE000C13409F08FCF80E3D13009F4ABC0D630D8
:101AF00009F002C180919E0290919F028A3321E0F9
:101B0000920721F08530924009F07CCF84E18093E8
:101B10006E02D5C0C33409F4F1C0C53409F482CFD4
:101B200071CFC33790F4CF3508F4C2C1D63009F075
:101B300000C280919E0290919F028134914009F4ED
:101B4000FBC18C2F0E94AC29FCC1C73709F4FBC133
:101B5000CE3909F057CF8AE292E00E940B04892B1C
:101B600009F0AFCF5FCF8EE20E94AC2910925602EF
:101B700049CFD13009F046CF84E592E00E940B04B2
:101B8000009709F43FCF62E270E00E9403350097AE
:101B900009F438CFEC01219662E270E0CE010E9498
:101BA00003358C01892B09F42DCF6CE270E0CE0156
:101BB0000E940335009709F425CFEC012196C01748
:101BC000D10708F01FCF6AE370E0CE010E94033511
:101BD000009709F417CF8017910708F013CFFE0183
:101BE00001900020E9F73197EC1BFD0B389708F4C2
:101BF00009CF88E0FE01ACE0B1E001900D928A953A
:101C0000E1F710921401FECED13099F487E492E00E
:101C10000E940B04892B59F08FEF8093940210924D
:101C2000A20283E30E94AC2910927E02EBCE8FE2E7
:101C3000F9CFD53051F48091A0029091A1020E9776
:101C400031F480E40E94AC29DDCED43021F08091C3
:101C500096028038B1F780917E028F5F80937E027A
:101C6000843118F00E94350CDFCF84E180936E023E
:101C7000E8CFD13061F48FEF809394021092A202EA
:101C800083E30E94AC2982E380936E02BBCED53001
:101C900079F48091A0029091A1028031910521F404
:101CA0008FEF8093A202AECE0E9721F48FE2CACFBF
:101CB000D430E1F380919602F9CFD13011F481E470
:101CC000C1CFD63089F480919E0290919F028A33D1
:101CD00021E0920721F08530924009F093CE8CE309
:101CE00080936E0283E3AECFD430E1F3809196020D
:101CF000803809F087CEF6CF8AE009CFD13049F09D
:101D0000D53081F48091A0029091A10203970297AF
:101D100048F4809169020E94AC29109269021092E5
:101D2000DB030AC08091DB038F5F8093DB0383308A
:101D300018F483E40E94AC2982E0A6CFD13089F464
:101D400081E492E00E940B04009709F45BCE4AE024
:101D500050E070E060E006960E94713260930B01E3
:101D600051CE83E680930B014DCE389693CE3296BA
:101D700099CE6B7F613009F045CE8FEF80933402AE
:101D800041CED13049F0D53051F48091A0029091EC
:101D9000A1024597029718F410925C0233CE80910D
:101DA0005C028F5F80935C022DCED13009F042C07F
:101DB00046E050E063E372E081E194E00E94B334D6
:101DC000892BC1F583E392E00E940B046CE270E082
:101DD0000E940335009771F16CE270E00E940335B8
:101DE000009741F162E270E00E940335009711F123
:101DF0008C010F5F1F4F62E270E0C8010E94033543
:101E00000097C1F008171907A9F0801B910B8C30BF
:101E1000910514F08BE090E0EC01DD27AE01B801F4
:101E200082EB92E00E94E834CE54DD4F188210928B
:101E30005B02E8CD80915B028F5F80935B02E2CD15
:101E4000D63009F479CF86E3D13009F475CF72CF5B
:101E5000D13021F0809196028C30A1F48FEF8093E5
:101E600068021092DB03809108018111CBCD8CE2D6
:101E700091E0909344028093430284E180936E0248
:101E800086E4E0CED43021F080919602803849F487
:101E90008091DB038F5F8093DB03833010F487E353
:101EA000D1CED33011F4109268021092DB03AACD88
:101EB000D130A9F58CE292E00E940B046AE070E058
:101EC0000E940335009741F1EC0121966DE070E02E
:101ED000CE010E9403350097F9F08C1B9D0B97FDF6
:101EE000019695958795893CA8F4809365024EEDFF
:101EF00052E060916502CE010E94DA2C83E70E94D5
:101F0000AC2980916C028C5E0E94AC298FEF80938B
:101F1000640278CD88ECE9CF1092640273CDD6309C
:101F200021F0109264028CE3AFCE8C2F0E94AC297A
:101F3000F8CFD43009F405CE80919602803809F4A8
:101F400000CE89E1A1CED43029F08091960280386C
:101F500009F0ABCF10920C048091DB038F5F80936C
:101F6000DB03833010F487E76DCE1092DB0380E053
:101F70000E94990B1092680210920C041092670252
:101F8000109266023FCDD13029F080E30E94AC2947
:101F900084E17ACE809169020E94AC298091690225
:101FA0008B54843108F0B9CE10926402B6CE0F93F0
:101FB0001F93CF93DF938091960280919602803891
:101FC00021F080916D02882381F080E88093960251
:101FD0000E94E70C82E380936E028FEF80936D0284
:101FE000DF91CF911F910F910895809196028138D2
:101FF00029F52091A0053091A1058091A50590912A
:10200000A6052817390761F44091A0055091A10554
:1020100062E676E08FE094E00E94DB34892B01F3E6
:102020008091A4058111DCCF80E8809396028FEF28
:1020300080936D0282E380936E02D2CF80919602EC
:102040008A3009F044C01092E10383E292E00E94DA
:102050000B0462E270E00E940335009739F18C01B5
:102060000F5F1F4F62E270E0C8010E9403350097C6
:10207000E9F0EC01C01BD10BC031C0F4DD27AE018B
:10208000B80181EE93E00E94E834CF51DC4F188212
:1020900080915B02811110925B0280910B01882379
:1020A00011F0833619F480E180930B0189E30E94DB
:1020B000BE2980916C028B54843110F4109264021A
:1020C00010926B0210926A0210926C0289CF80917A
:1020D0009602833089F480E00E94990B1092680286
:1020E00010920C04109267021092660280916C02AA
:1020F000873709F075CFE4CF80919602823039F5A9
:1021000080916C028737D1F40E94E70C80916C02B9
:102110008737A1F48091600281110BC08AE580931A
:1021200061028FEF80930C04109267021092660296
:1021300057CF8093610210926002F3CF1092E103B7
:1021400089E3DF91CF911F910F910C94BE298CE10F
:1021500092E00E940B04009799F0FC013796819160
:102160008032E9F390910801911107C0813329F47D
:102170000E946B078BE08093DC031092960230CFB5
:10218000809196028C3071F480910801882309F4C3
:1021900027CF1092680288E3DF91CF911F910F91B2
:1021A0000C94AC2980919602893061F480916C0284
:1021B000873711F40E94E70C80E00E94990B10927F
:1021C0000C04B2CF80919602873081F38091960201
:1021D000883029F585E192E00E940B046CE270E002
:1021E0000E9403350097A1F04AE050E070E060E003
:1021F00001960E9481339B01215031092431310520
:1022000038F48AE4860F0E94AC2981E080936E0244
:1022100080916C028B54843108F0E2CE4FCF8091D4
:1022200096028E3009F04CC084E180936E0280915A
:102230006C028B54843140F41092640210926B0251
:1022400010926A0210926C028EE092E00E940B04DF
:1022500062E270E00E940335009709F4C1CE8C0160
:102260000F5F1F4F62E270E0C8010E9403350097C4
:1022700009F4B6CE20914D02222309F4B1CEEC012F
:10228000C01BD10BC13AD10510F0C0EAD0E0AE01BD
:10229000B80181EC95E00E941E35CF53DA4F1882C9
:1022A00068EA73E08DEB92E00E94173584E70E94A4
:1022B000AC2910924D0210924C0210924B0290CE1B
:1022C0008091630281110E94620C8091A50590911A
:1022D000A605892B09F484CE80919602882309F4FF
:1022E0007FCEDF91CF911F910F910C94E70CCF938C
:1022F000C82FC901C11106C0862F0E94AC298C2F9E
:10230000CF91089510926B0210926A0260936C0252
:10231000409369020E94C520CFEFF1CF0F93CF9376
:10232000DF939FEF9093A40510920B0481114BC093
:1023300085E080933E0210923D021092DC0384E718
:10234000809363029093DE024AE060E078E08EEDD5
:1023500092E00E94602A00E020E040E058E06DEB4F
:1023600072E08EED92E00E941B2E41EC55E0FA01E6
:1023700001900020E9F7AF014150510961EC75E08F
:102380000E94632C8E5D924080936502C09165022D
:10239000C1508091DE02C81B46E050E067E072E069
:1023A00084E696E00E9480344AE06AE676E08C2F6C
:1023B00090E00E9452358AEF80930901DF91CF911E
:1023C0000F910C94E22085E080933E0210923D0232
:1023D0001092DC0385E7809363020091C10590931E
:1023E000DE024AE060E078E08EED92E00E94602A32
:1023F00020E040E058E06DEB72E08EED92E00E944C
:102400001B2EEC014091C20550E063EC75E00E9488
:10241000E8348091C2058C0F9D2F911DB3CFEF92B0
:10242000FF920F931F93CF93DF9300D00F92CDB7FE
:10243000DEB73091640280910C0450916C0290914F
:102440006E0240916302432B482B20916802242B9B
:10245000252B292BC9F56091A40521E0611101C04C
:1024600020E0211132C06091C10066FD2EC0609154
:102470009502662351F16091960201E0611125C039
:102480001091D207E12EF12C1E3309F465C208F039
:102490006BC0133309F466C330F51E3209F446C32A
:1024A000B0F41C3209F4FCC208F013C31B3209F467
:1024B0006FC380E00F900F900F90DF91CF911F912D
:1024C0000F91FF90EF90089521E000E0D9CF1033F5
:1024D00009F4D6C208F434C3113309F479C31233B2
:1024E00041F78FEFE7CF183309F4B7C1B0F41633D3
:1024F00009F4B9C208F0C0C11533D9F68091FE07BE
:102500009091A502892B9091FF07892B21F40E94BD
:10251000B430811149C385E330C11A3309F43DC297
:1025200008F46CC11B3309F45AC21C3309F0C1CF43
:102530004091660250916702452B61F49091B00280
:10254000892B41F48091A40590912C02892B282B92
:1025500009F4F4C180910B01833611F08111C1CFD0
:1025600080E180930B01BDCF133708F074C01F3595
:1025700008F01BC1163409F493C1B0F41F3309F4F9
:1025800050C220EC210FE22FF0E0E851FF4F4591BF
:102590005491FEE02F9F900111242E503F4F612F48
:1025A000802F0E9477119DCF1B3458F38091340205
:1025B000882309F47EC02091660230916702232BA4
:1025C00009F077C0942B80912C02982B09F071C0F0
:1025D000533309F46EC08091FE079091A502892BB8
:1025E0009091FF07892B09F064C00E94B4308823C2
:1025F00009F45FC061E081E00E94F529811159C0B2
:1026000066E784E70E94F529811153C069E387E3F7
:102610000E94F52981114DC0002309F44AC010928F
:102620006B0210926A0210936C028FEF8093640227
:1026300046E050E060E072E084E696E00E9480347C
:102640004AE06AE676E0C7018A5491090E94523551
:102650000E94E22046CF163709F449C080F41337B0
:1026600001F541EB52E068EA73E08EED92E00E94E2
:10267000F72C009709F053C01092640232CF19373B
:1026800009F47EC01F3909F4ADC2173709F011CF24
:1026900020913402222319F0992309F41AC187E703
:1026A0006CC02091660230916702232B11F4892BB4
:1026B00011F0812F62C08091FE079091A502892BB5
:1026C0009091FF07892BA9F70E94B430882389F3E2
:1026D000002379F310926B0210926A0210936C023D
:1026E00081E0153709F080E00E948E11FACE109239
:1026F000A405409165026EED72E082E696E00E94CC
:10270000372E8091650290E0880F991FFC01EE59E9
:10271000F94F2AE1208301960E94AC20E2CE9E016F
:102720002F5F3F4FAE014E5F5F4FBE016D5F7F4F2A
:102730000E94502D2B8120939D022A8120939C0280
:10274000298120939B029E012F5F3F4FAE014E5F78
:102750005F4FBE016D5F7F4F0E94732D2B812093D1
:102760009A022A81209399022981209398024FE1AD
:1027700061EA77E00E940E2C89E70E94AC29B1CE75
:102780008091FE079091A502892B9091FF07892BDC
:1027900099F70E94B430882379F310923E0282E0C8
:1027A0008093DC030E94A70767CF40916602509197
:1027B0006702452B09F07DCF832B3091B002832B2C
:1027C00009F077CF8091A405811173CF002309F41C
:1027D00070CF10926B0210926A0210936C0246E066
:1027E00050E069EF71E084E696E00E9480344AE0B0
:1027F0006AE676E0C7018E55910928CF8091FE07E1
:102800009091A502892B9091FF07892B11F089E304
:10281000B4CF0E94B4308823D1F310923E0282E0FC
:102820008093DC030E94360B882371F080910801AD
:1028300090910701892B79F082EF91E00E940B04BF
:10284000892B11F40E946B0788E30E94AC298FEF5B
:10285000809355022FCE87E3F8CF011102C088E3A1
:102860008CCF10926B0210926A0210936C0280EF70
:1028700091E00E94C52035CE80910801909107011A
:10288000892B69F787E3002309F477CF10926B0255
:1028900010926A0287E380936C028EEE91E0E9CF9A
:1028A000992311F086E469CF8091C10086FDFACFAB
:1028B000809195028823B1F380919602582B91F76D
:1028C00010926B0210926A0210936C0287EE91E0F4
:1028D000D0CF811106CE002309F4E1CE10926B0215
:1028E00010926A0287E780936C0285E18093DC0393
:1028F00084E68093640669EB73E085E696E00E94C7
:10290000173589EB93E0FC0101900020E9F7CF0136
:102910008A5B93408F5F90E0FC01EC59F94F2BE309
:1029200020838B59994FFC0110820E94E2208CE297
:1029300091E09093670280936602D3CD8CE30023ED
:1029400009F41BCF10926B0210926A028CE3809301
:102950006C0282EE91E08DCF409166025091670249
:10296000452B09F0BECD9091B002892B09F0B9CD6D
:102970008091A40590912C02892B282B09F0B1CDD0
:102980008EE3002309F4F9CE10926B0210926A02D2
:1029900010936C028BED91E06CCF409166025091E8
:1029A0006702452B59F49091B002892B39F480913C
:1029B000A40590912C02892B282B19F010925C020F
:1029C00090CD8AE3002309F4D8CE10926B021092C6
:1029D0006A028AE380936C0282ED91E04ACF4091D3
:1029E000660250916702452B59F49091B002892BF1
:1029F00039F48091A40590912C02892B282B19F091
:102A000010925B026ECD8BE3002309F4B6CE1092D8
:102A10006B0210926A028BE380936C028BEC91E064
:102A200028CF4091660250916702452B09F059CD9D
:102A30009091B002892B09F054CD8091A40590911A
:102A40002C02892B282B09F04CCD8FE3002309F4AD
:102A500094CE10926B0210926A028FE380936C0204
:102A600084EC91E006CF86E3002309F486CE109231
:102A70006B0210926A0210936C028DEB91E0F9CE1A
:102A800080E3002309F479CE10926B0210926A025F
:102A900010936C0282E48093690288EA91E0E9CEA7
:102AA0008DE20E94AC2984E18093B0021092A605C9
:102AB0001092A5051092B50580B7826080BFF8948A
:102AC0008091C10080688093C10078940000439891
:102AD00008CD80915602811104CD8091B0028823E7
:102AE00011F08DE24ACE8091C10086FDFACF10929E
:102AF000A6051092A5051092B50580B7826080BF2B
:102B0000F8948091C10080688093C100789400009F
:102B1000439810926B0210926A028DE280936C02CD
:102B200084E1809356028FE991E0A3CE8FEF8093EA
:102B3000950280E40E94AC2988E280936E02D1CC99
:102B40008FE2002309F419CE10926B0210926A02F0
:102B50008FE280936C0262E971E084E696E00E9465
:102B6000943476CD80917D02882311F081E405CEE6
:102B70008FEF80937D0283E3002309F4FECD109252
:102B80006B0210926A0210936C0289E891E071CE98
:102B90000E94D70F80919602813819F084E18093CA
:102BA0000901109296029DCC002309F4B4CC109236
:102BB0006B0210926A0285E380936C026EE771E00B
:102BC00084E696E00E94943481E38093690240CDCC
:102BD00080919402882309F484CC86E30E94AC2976
:102BE00082E3CBCD8091FE079091A502892B909135
:102BF000FF07892B21F40E94B430811102C08FE9B4
:102C0000BCCD0023E1F310926B0210926A028FE9AF
:102C100080936C026CED77E084E696E00E941735B5
:102C200017CD80916E02882339F0815080936E0217
:102C3000811102C010926D02809130029091310298
:102C4000009729F001979093310280933002809190
:102C5000430290914402009771F0019790934402CF
:102C600080934302892B39F480916802882319F0FC
:102C700088E30E94AC29809156028823C1F08150DC
:102C800080935602811113C010926B0210926A0257
:102C900010926C028DE20E94AC2910929702F89477
:102CA0008091C1008F7B8093C100789400000E94C6
:102CB0007822882319F08CE20E94AC29809161026D
:102CC000882341F0815080936102811103C088E321
:102CD0000E94AC298091660290916702009771F082
:102CE00001979093670280936602892B39F482E002
:102CF0000E94990B1092680210920C0480917C0241
:102D00008F5F80937C02803309F04EC08CE30E9479
:102D1000BE298091B002882319F081508093B002BF
:102D200080913402882309F45EC080910B018336C0
:102D300011F0811158C080915D0290915E0288353A
:102D400022E0920750F40196883522E0920709F4B8
:102D500043C090935E0280935D0280915C02863056
:102D600020F480915B02843110F00E94350C809138
:102D70003302882339F0815080933302811102C0DD
:102D80000E94350C80913402811132C08091590229
:102D900090915A02019690935A0280935902813B76
:102DA000944050F10C94350C843311F48EE3AFCF82
:102DB000883311F48BE3ABCF8C3311F48AE3A7CFC4
:102DC000803508F4A6CF8091340210927C028823CB
:102DD00009F49FCF8FE39BCF10925E0210925D02A9
:102DE0000E94350CBACF10925E0210925D02B5CFF0
:102DF00010925A02109259020895809196028823E7
:102E000009F457C08BE20E94AC2980910B048823FF
:102E100029F086E70E94AC2910920B0480913402BD
:102E2000882309F455C080916302882309F450C0B7
:102E300080917A0290917B020196883823E1920773
:102E400008F03CC090937B0280937A0280916C02E0
:102E500090916802882309F4A8C020917902821316
:102E60006AC091116AC08D3231F09AE8980F44EF30
:102E700051E0923010F440EE5EE29CE8980F923000
:102E800010F44CED55E020917702309178022F5FDD
:102E90003F4F2417350708F53093780220937702C7
:102EA000109276021092750280916C0280937902E2
:102EB00008950E94C9248111A5CFA7CF10927B024B
:102EC00010927A0284E0809396020E94620CBECF38
:102ED00010927B0210927A02B9CF1092780210926F
:102EE00077028E3929F1883301F191ED980F9230F4
:102EF000E0F09BEC980F9230C0F090EC980F9A3075
:102F0000A0F095EB980F983280F0109269020E9421
:102F10001E0C10926B0210926A028EE980936C0272
:102F2000109264060E94E220BBCF80936902EFCF2B
:102F30000E94350CB5CF9923C1F180919602811181
:102F400034C0F8948091A5059091A60578942091BD
:102F50007502309176022817390720F49093760293
:102F60008093750280917502909176020A9708F419
:102F70009BCF80917702909178020196843F21E067
:102F8000920728F490937802809377028DCF109265
:102F900078021092770281E00E94990B10927602DB
:102FA000109275020E94350C7FCF10927802109219
:102FB0007702992309F474CF77CF3F924F925F92B3
:102FC0006F927F928F929F92AF92BF92CF92DF9239
:102FD000EF92FF920F931F93CF93DF93CDB7DEB79E
:102FE000E1970FB6F894DEBF0FBECDBF9091D20728
:102FF0008091640220916302822B20910C04822B29
:1030000020916802822B20916C02822B20916E020B
:10301000822B81F48091A40581110CC08091C100A4
:1030200086FD08C080919502882321F020919602A8
:1030300081E0211180E0993241F010E09A3209F0EC
:1030400094C08111ABC08AE203C0811104C089E23F
:103050000E94AC2980C080912C029091FE07892BA0
:103060009091A502892B9091FF07892B81F70E94EF
:10307000B430882361F38AE28093C10522ECE22E0A
:1030800025E0F22E35E0D32E43E2C42E5AE0B52ED1
:103090008091A6039091A7038F719927892B09F43A
:1030A000A8952091A6033091A703D29EC001D39E7C
:1030B000900D112408960E945F30182F2091A603CE
:1030C0003091A7038F3FC1F1D29EC001D39E900DD6
:1030D000112441E1B70108960E94C02A8701080F18
:1030E000111DF801C0827801F2E0EF0EF11CF80129
:1030F000B1828091A6039091A70301969093A703B4
:103100008093A60398012D5E3F4F2156364068F408
:10311000843C994008F4BCCFF801128284E70E94F5
:10312000AC2981E080932C0216C0843C9940A0F722
:1031300089E20E94AC29F0CF2F5F3F4F3093A70365
:103140002093A603243C394008F4A2CF21ECE216D8
:1031500025E0F20611F41FEF08C0F701108284E7A2
:103160000E94AC2981E080932C02812FE1960FB65A
:10317000F894DEBF0FBECDBFDF91CF911F910F91AD
:10318000FF90EF90DF90CF90BF90AF909F908F9087
:103190007F906F905F904F903F90089580912C02A8
:1031A0009091FE07892B9091A502892B9091FF07A2
:1031B000892B09F048CF0E94B430882309F443CF0B
:1031C0001092C10501EC15E085E0382E6E01F5E1A5
:1031D000CF0ED11CCE0186963C0197EE492E91E090
:1031E000592EFE0131967F018090A6039090A7038F
:1031F000F4EC8F16F9E09F0628F0015C154009F009
:103200008DCFA9CFC4018F719927892B09F4A89577
:10321000389C5001399CB00C112448E0A40EB11C1C
:10322000C5010E945F308F3F09F468C08FEF881A94
:10323000980A41E1B601C5010E94C02AF601019039
:103240000020E9F73197EC19FD09B601EA3018F0D2
:1032500039976E0F7F1FC3010E9417357F926F92BF
:103260009F928F925F924F92FF92EF920E946C35E5
:10327000F70101900020E9F73197EE19FF09E00FFF
:10328000F11F0FB6F894DEBF0FBECDBFE156F6407A
:1032900040F1E5E0013C1E07C1F4B70181EC95E087
:1032A0000E9417358AE20E94AC2984E70E94AC296B
:1032B00081E080932C028091A6039091A703019650
:1032C0009093A7038093A60346CF8AE20E94AC297D
:1032D00084E70E94AC2981E080932C02F8011082DF
:1032E0003ACFB701C8010E941735F70101900020BD
:1032F000E9F73197EE19FF090E0F1F1F8091A60302
:103300009091A70301969093A7038093A6036CCF97
:1033100008950E943D1F0E94120B0C94E61FCF934C
:10332000DF930F92CDB7DEB78091FE079091A50293
:10333000892B9091FF07892B59F50E94B43088237F
:1033400039F1198291E08091AF02811101C090E0C2
:1033500081E04091FD035091FE036091FF03709165
:103360000004452B462B472B09F480E0981711F0F9
:1033700081E0898385E090E00E945F309981891720
:1033800039F041E065E070E0CE0101960E94972B94
:103390000F90DF91CF910895EF92FF920F931F93BB
:1033A000CF93DF930F92CDB7DEB70E9489190E94A9
:1033B00011168091DC03882331F081508093DC0367
:1033C0008111CBC0409A8091900290919102009718
:1033D00039F001979093910280939002892B11F418
:1033E000109292028091450290914602892B49F0F9
:1033F00080914502909146020197909346028093F6
:10340000450280914D028823F1F080914B0290910A
:103410004C020097C1F0019790934C0280934B02AD
:10342000892B89F468EA73E08DEB92E00E941735EE
:103430006EEE71E081EC95E00E94173584E70E9402
:10344000AC2910924D0280912F02882309F498C173
:1034500080917402811111C080913402882369F037
:1034600080917202909173028A3F910508F077C0B3
:10347000019690937302809372028091850281116C
:103480000DC080918602909187028436910508F0E4
:103490006AC0019690938702809386028091D2073A
:1034A000882309F4FFC09CE8980F923008F0F3C01D
:1034B00090918E029813EFC080918C0290918D02B2
:1034C0008639910508F0BFC0019690938D028093D4
:1034D0008C0280916302882309F4D6C08091830214
:1034E000909184028C3221E0920708F0DEC00196B0
:1034F000909384028093830280915402882309F47C
:10350000FDC080915202909153028436910508F0DB
:10351000EAC0809152029091530201969093530217
:103520008093520280913E02882309F402C1809167
:103530003D02823008F4F3C0409A80913D028F5FD3
:10354000863008F0EEC080933D020F90DF91CF915E
:103550001F910F91FF90EF900895409834CF8FEF17
:10356000809374028ACF8091C00708E010E088231E
:1035700009F459C060EC77E08DEB92E00E941735BA
:1035800080913402882309F489CF8091630290915D
:103590000C04892B90916C02892B09F07FCFCE010E
:1035A000855398407C010E94AF0366ED70E081EC8A
:1035B00095E00E94943401EC15E0F80101900020A0
:1035C000E9F78F01015011094AE0B801C7010E94D3
:1035D0004735F80101900020E9F78F0101501109EA
:1035E00062ED70E0C8010E9494340D5F1F4F4AE005
:1035F000B80180910001909101010E945235F801BB
:1036000001900020E9F73197108284E70E94AC29ED
:103610008FEF8093850242CF0B5F1F4F0C3D20E35D
:10362000120709F43BCFC8010E945F308F3FA1F31E
:1036300041E16DEB72E0C8010E94C02A8091BD0299
:1036400081119ECF2BCF65E784E70E94D22980911C
:103650008802909189028F3F980729F001969093F4
:1036600089028093880283E30E94BE29109292020D
:10367000109291021092900210928D0210928C0280
:1036800010928E02109263021092840210928302B2
:103690001092820231CF80938E0210928D0210928E
:1036A0008C0217CF10928E02F8CF109284021092E3
:1036B00083020E94C8031092630210926202109269
:1036C000A40510922C02809182028F3F29F410925F
:1036D00082020E94350C10CF8F5F8093820283306C
:1036E00008F40ACFF4CF1092510282E390E0909355
:1036F000500280934F020E94C80314CF80914F0262
:1037000090915002892B09F40DCF80914F02909136
:10371000500201979093500280934F0203CF40983C
:103720000CCF10923D0280913E02815080933E0268
:103730000CCF80913402811102C0409819C0809151
:10374000DC038111FACF80910B018031B0F48091BC
:1037500071028F5F823378F48093710280917102DD
:10376000883259F38B3249F38E52843030F3409AC9
:103770000E948F19EACE81E0EFCF10927102EECF56
:1037800010927402109273021092720276CE0E940E
:10379000DC1F0E94FD160C943C2BF89480916E0067
:1037A0008D7F80936E0078940000809138028111A3
:1037B00009C0F89480916E00826080936E007894C6
:1037C000000008951092380280913702882329F072
:1037D00081E08093360210923702F89480916E0057
:1037E000826080936E00789400008091360280FFA2
:1037F00033C0809170028F5F8A3079F180937002BC
:103800000000F89400B601FE26C08091C1008F77B9
:103810008093C10078948091A5059091A605892B8D
:1038200011F18091B5058F5F8093B5058333D8F092
:10383000439A8091C1008F778093C10080B78D7FBC
:1038400080BF10920E0410920D041092A3051092E6
:10385000A20510920A04789408951092700283E0F1
:1038600080933602CDCFF8948091C1008068809318
:10387000C10078940000EFCFA89582E084BD83E07A
:1038800085BD8FE387BDEEE6F0E0808182608083B6
:1038900083B7817F83BF08951F93CF93DF9344E065
:1038A00050E061E070E08DED93E00E947C3080910B
:1038B000DD0381508E3F00F181E480930008809306
:1038C000DD0382E4809301088093DE0383E4809328
:1038D00002088093DF0384E4809303088093E0036D
:1038E0000E94B4308823E1F344E050E061E070E0EE
:1038F0008DED93E00E9482308DEE90E30E94832F45
:10390000853A09F050C081EE90E30E945F308F3F0E
:1039100009F455C08093020182EE90E30E945F306B
:103920008F3F09F459C08093080186E090E00E941F
:103930005F308F3F09F45DC0809307018CED90E309
:103940000E945F30D82F8DED90E30E945F30182FDA
:103950008EED90E30E945F30C82F8FED90E30E94C0
:103960005F30282F9D2F91239C2398239F3F09F0A0
:103970004DC082E090E0A0E0B0E08093030190931E
:103980000401A0930501B0930601109292021092D7
:103990009102109290021092630210922F02DF9116
:1039A000CF911F9108950E94F10365EA8DEE90E397
:1039B0000E940D300E942A308823E1F3A4CF81E0D9
:1039C000809302010E94B4308823E1F361E081EE2C
:1039D00090E30E946830A0CF81E0809308010E94AC
:1039E000B4308823E1F361E082EE90E30E94683016
:1039F0009CCF81E0809307010E94B4308823E1F3DB
:103A000061E086E090E00E94683098CF8C2F90E0D3
:103A1000B0E0A0E0DC0199278827912B8D2BB22BF9
:103A20008093030190930401A0930501B0930601D4
:103A3000AC01BD0141505109610971094F39564826
:103A40006140710508F095CF8F399648A140B105C6
:103A500009F09BCF85E090E00E945F308F3F69F0D6
:103A6000817081958093AF021092FD031092FE0346
:103A70001092FF031092000488CF1092AF02F4CF8F
:103A8000CF92DF92EF92FF920F931F93CF93DF932A
:103A9000CDB7DEB761970FB6F894DEBF0FBECDBFCE
:103AA0001091D207143209F410C1D0F4133208F087
:103AB000D2C0133008F088C0123009F457C010E0AB
:103AC000812F61960FB6F894DEBF0FBECDBFDF9198
:103AD000CF911F910F91FF90EF90DF90CF900895BD
:103AE000183228F4163208F43AC11FEFE9CF183221
:103AF00031F769EB73E0FB0101900020E9F7BF01AA
:103B00006150710940E058E089EB93E00E94172A68
:103B100008E010E0B80180E098E00E94E42A8823E1
:103B200009F48DC11092B90340E058E06AEB73E0EC
:103B300089EB93E00E94172A90E0C92E98E0D92ED5
:103B4000F12CE12CF60161916F01C701800F911FEB
:103B50000E940D300E942A308823E1F3FFEFEF1A14
:103B6000FF0A25E0E216F10469F7BFCF8091FE0756
:103B70009091A502892B9091FF07892B21F082E07B
:103B80000E94AC29B2CF0E94B4308823C1F381E4F3
:103B9000809300088093DD0382E480930108809382
:103BA000DE0383E4809302088093DF0384E4809340
:103BB00003088093E00364E081E090E00E94B82B6A
:103BC00083E38093DC0391CF8091FE079091A5025F
:103BD000892B9091FF07892B11F0812FD1CF0E9463
:103BE000B4308823D1F30DEF010F40E250E06FEFC6
:103BF00070E080E098E00E94F134011120C081E47F
:103C0000809301088093DD0382E48093020880930F
:103C1000DE0383E4809303088093DF0384E48093CE
:103C200004088093E003109205081092AF021092EE
:103C3000FD031092FE031092FF031092000460E255
:103C400020E2029FC00111240E94B82B81E0810F65
:103C50000E94AC29B5CF0091FE078091A502082BE8
:103C60008091FF07082B11F083E28ACF0E94B430C5
:103C70008823D1F3F12CE12CC7010E945F30F701BA
:103C8000EE51FF4FE4918E130FEF8FEFE81AF80A11
:103C900096E0E916F10481F758E0E52EF12CC70112
:103CA0000E945F30182F8F3F51F4EFEFEE1AFE0A9B
:103CB000FCEDEF16F0E3FF0691F7002311F083E02F
:103CC0005FCF0E944C1C409AFBCE1091FE07809162
:103CD000A502182B8091FF07182B11F084E250CF1A
:103CE0000E94B4308823D1F361EE73E0CE010196D7
:103CF0007C010E941735F70101900020E9F7BF0110
:103D00006150710940E058E0C7010E94172A809174
:103D10000201813091F048E0E42EF12CB70180E0FF
:103D200098E00E94E42A811114C0F5E0EF0EF11C26
:103D30002CEDE21620E3F20689F780910801882332
:103D400009F4D3CE80910201813029F40E946B07DF
:103D5000CCCE1FEFF2CF112309F4C7CEF7CF69EB1A
:103D600073E0FB0101900020E9F7BF016150710988
:103D700040E058E089EB93E00E94172A38E0E32EF8
:103D8000F12C10E000E0C8018F719927892B21F4F4
:103D90000115110509F0A895B70180E098E00E948F
:103DA000E42A8111A2CE0F5F1F4FF5E0EF0EF11C48
:103DB000043C29E0120739F769EB73E0FB0101903D
:103DC0000020E9F7BF016150710940E058E089EB3C
:103DD00093E00E94172A88E0E82EF12C10E000E022
:103DE0000AC00F5F1F4FF5E0EF0EF11C043C29E005
:103DF000120709F47ACEC8018F719927892B09F42B
:103E0000A895C7010E945F308F3F59F720E0C22E6E
:103E100028E0D22E10E000E0F60161916F01C801A8
:103E20008E0D9F1D0E940D300E942A308823E1F3E1
:103E3000A8950F5F1F4F0530110571F756CE0B5F28
:103E40001F4F0C3D80E3180709F064CE4ECE0E9450
:103E50000F12811106C00E94401D811102C00E94F4
:103E6000DD170C94EA29E82FF0E0ED50FC4F90812B
:103E7000907F81E009F080E008959091FC03892F04
:103E80008D7F8093FC038091F303807F90FD56C06B
:103E900081114BC08091050490910604A091070404
:103EA000B091080440910104509102046091030410
:103EB0007091040484179507A607B70798F4019634
:103EC000A11DB11D8093050490930604A0930704DF
:103ED000B0930804481759076A077B0719F481E073
:103EE0008093FC038091FC0390910904891781F071
:103EF00080930904982F92609093FC0380FD53C037
:103F000010920504109206041092070410920804FF
:103F10008091F203882341F09091FC039D7F909360
:103F2000FC0381508093F2030895109205041092CF
:103F300006041092070410920804D4CF882351F18C
:103F40008091F8039091F903A091FA03B091FB03DB
:103F50004091F4035091F5036091F6037091F703DB
:103F600084179507A607B70708F0BCCF0196A11DD7
:103F7000B11D8093F8039093F903A093FA03B093D3
:103F8000FB03481759076A077B0709F0ABCF10926C
:103F9000FC03A8CF1092F8031092F9031092FA03D1
:103FA0001092FB039FCF1092F8031092F903109226
:103FB000FA031092FB03ACCF8091F303189B869514
:103FC00081601899880F8093F3030895CF92DF9250
:103FD000EF92FF928091FD039091FE03A091FF0369
:103FE000B09100042091AF020097A105B105A1F0A6
:103FF0000197A109B1098093FD039093FE03A0935B
:10400000FF03B0930004892B8A2B8B2B29F481E0CA
:10401000211180E08093AF028091AF02882309F4E0
:1040200042C08091930281113EC0C0904702D0905F
:104030004802E0904902F0904A022FEFC216D206E1
:10404000E206F20681F18FEFC81AD80AE80AF80AE8
:10405000C0924702D0924802E0924902F0924A028E
:10406000C701B6012AE030E040E050E00E942F3264
:10407000672B682B692BB9F464EE70E38C2D0E94DA
:10408000C72B65EE70E3809148020E94C72B66EE55
:1040900070E3809149020E94C72B67EE70E3809124
:1040A0004A020E94C72B8091AF028093930288231B
:1040B00069F08091470290914802A0914902B09125
:1040C0004A028032914AA740B10510F05D9801C0C4
:1040D0005D9AFF90EF90DF90CF90089584E190E09B
:1040E000A0E0B0E08093F4039093F503A093F6036F
:1040F000B093F7038093010490930204A093030408
:10410000B093040484EE90E30E948C306F3F2FEF55
:1041100072078207920749F0609347027093480242
:104120008093490290934A02089510924702109298
:1041300048021092490210924A020895109209040E
:104140001092FD031092FE031092FF0310920004E0
:104150008EE18093F20308959093A1058093A005CA
:104160001092AA051092A905E0ECF0E0808180642D
:104170008083F894E1ECF0E080818064808378941F
:1041800000008FEF809397020895CF93DF9321E48F
:104190002093620624E520936306A4E6B6E0FC01C2
:1041A00093E0981B892F8E0FED0124912D932111FF
:1041B00007C09DE0988390E0DF91CF910C94AC20F4
:1041C0003196F0CFE2E6F6E081E4808384E58183F6
:1041D00001900020E9F7CF01835696409927FC0112
:1041E000EE59F94F2DE0208301960C94AC20789481
:1041F0002F932FB72F933F938F939F93EF93FF931B
:104200002091A9053091AA058091A0059091A10562
:104210002817390788F0F8948091C1008F7B80932C
:10422000C10078940000FF91EF919F918F913F9191
:104230002F912FBF2F911895329910C08091A90509
:104240009091AA05FC01EE59F94F208101969093B7
:10425000AA058093A9052093C600E5CF8FEF809330
:104260009702E1CF8F938FB78F938091C1008F77A3
:104270008093C10078948091C6000F924F931F9253
:1042800011242F933F93EF93FF93AF93BF939F938B
:104290002091A5053091A6058F3F09F4E8C0EFE015
:1042A000F4E0A901203991E0390708F0CDC02115CB
:1042B000310521F48A3009F04AC02CC090910F04D6
:1042C0008D3009F59D30F9F09A30E9F090910A04AB
:1042D000911119C091E890939602439AF8949091A5
:1042E000C1009F779093C10090B79D7F90BF789455
:1042F000000010920E0410920D041092A30510926B
:10430000A20510920A0421153105A1F290819D3079
:1043100089F61DC090910A04911119C091E89093FB
:104320009602439AF8949091C1009F779093C100B0
:1043300090B79D7F90BF7894000010920E04109269
:104340000D041092A3051092A20510920A048F0189
:10435000A9014F5F5F4FDF01A20FB31F00B601FE3F
:104360005DC02430310508F459C08A3009F056C0C8
:10437000BD0161507109EB0198819D3009F04EC07B
:1043800061507109EB0198819A3009F447C061507E
:104390007109EB0198819D3009F440C0EF019181D2
:1043A0009A30E1F590819D30C9F56091A205709138
:1043B000A30570930E0460930D045093A3054093DE
:1043C000A20590910A049F5F90930A046091B10541
:1043D0007091B2057093B4056093B3056091AF0519
:1043E0007091B0057093B2056093B1056091AD0511
:1043F0007091AE057093B0056093AF0560910D04A8
:1044000070910E047093AE056093AD056091A205A6
:104410007091A3057093AC056093AB059091A405D2
:10442000992361F02330310549F4803239F49091B9
:1044300011049E3319F49FEF90930B048C939A010F
:10444000E40FF51F10820FC030E020E080E8809379
:10445000960210920E0410920D041092A305109271
:10446000A20510920A043093A6052093A505109288
:10447000B5059F91BF91AF91FF91EF913F912F9122
:104480001F904F9100B601FE08C0F8948091C100C2
:1044900080688093C100789400000F908F918FBF47
:1044A0008F91189583E08093C4001092C500E1ECD1
:1044B000F0E08081886180838BB18C7F8BB95198CB
:1044C000429843983B98089599B1892F887093FF3B
:1044D0000EC010920A011092A6051092A505519ADD
:1044E0008BB183608BB93B9A439A429A8FEF0895C0
:1044F00080910A018823B9F191E0980F90930A0105
:10450000913A39F1A8F49F30D9F030F49230D1F0DB
:104510009330E9F080E0089587528430D8F70E9404
:10452000642291E0811101C090E0892F8195089566
:104530009F3FA0F4953F98F7983C49F0973D51F77D
:104540005498E8CF54980E94642281110BC0549A69
:10455000E1CF1092950210929402DCCF81E080931B
:104560000A01D8CF8FEF0895FC014217130609F016
:1045700048F4DB01A15FBB4F90E0491305C0942FC5
:1045800081E0491380E008952D9184912813F8CF9C
:1045900031969F5FF2CF8FB7F89410920E0410926D
:1045A0000D041092A3051092A2058FBF08952F92BB
:1045B0003F924F925F926F927F928F929F92AF92B3
:1045C000BF92CF92DF92EF92FF920F931F93CF9300
:1045D000DF93C8E047E0842E59E0952E63E0762E05
:1045E00078E0672EE5E15E2EF2E04F2EADE03A2E48
:1045F000222423949FB7F89480910A04811128C043
:104600009FBFC091C005CC2301F1C150C093C0052C
:10461000D0E0CA54DA4F8881809396021882C09104
:1046200096028C2FDF91CF911F910F91FF90EF9009
:10463000DF90CF90BF90AF909F908F907F906F90C2
:104640005F904F903F902F90089510929602E9CF7F
:10465000853008F084E0E82FF0E0EE0FFF1FE5550D
:10466000FA4FC080D180118210828150E82FF0E093
:10467000EE0FFF1FE555FA4F2081318180930A0428
:104680009FBFC216D306A8F58091C0058A3010F0EE
:104690009092C00589010C191D0904501109760179
:1046A00042E0E40EF11CC901815F9B4FFC0133978E
:1046B000B0803197A080F601E15FFB4FD581EBE43C
:1046C000BE121BC0FFE4AF1245C10597FC018081FB
:1046D000803209F45AC12630310508F456C1E09100
:1046E000C00581E08E0F8093C005F0E0EA54FA4FD8
:1046F0002082C15009F07ECF94CFD734A1F4980125
:1047000046E0B70189E494E00E94B422882359F07E
:10471000E091C00581E08E0F8093C005F0E0EA547F
:10472000FA4F3082E6CFFFE4AF1215C0980145E0A2
:10473000B70183E494E00E94B422882361F0E09101
:10474000C00581E08E0F8093C005F0E0EA54FA4F77
:1047500044E04083CECF87E4B81215C0980147E00B
:10476000B7018BE394E00E94B422882309F4F5C0DA
:10477000E091C00581E08E0F8093C005F0E0EA541F
:10478000FA4F4082B6CFE4E4BE12E7C098014CE095
:10479000B7018EE294E00E94B422882309F4DDC0C0
:1047A000E091C00581E08E0F8093C005F0E0EA54EF
:1047B000FA4F8CE080839DCFDD34A1F4980146E070
:1047C000B70180E294E00E94B422882309F1E091CD
:1047D000C00581E08E0F8093C005F0E0EA54FA4FE7
:1047E000508287CFD435A1F4980146E0B70189E122
:1047F00094E00E94B422882359F0E091C00581E042
:104800008E0F8093C005F0E0EA54FA4F608271CFBA
:10481000F5E4AF1214C098014AE0B7018EE094E0CD
:104820000E94B422882359F0E091C00581E08E0FE8
:104830008093C005F0E0EA54FA4F70825ACF45E405
:10484000B41214C098014BE0B70182E094E00E94DA
:10485000B422882311F1E091C00581E08E0F80938E
:10486000C005F0E0EA54FA4F908243CF89E5B812D0
:1048700014C0980144E0B7018DEF93E00E94B42288
:10488000882359F0E091C00581E08E0F8093C00528
:10489000F0E0EA54FA4F80822CCFD53411F598011C
:1048A0004BE0B70181EF93E00E94B422882309F422
:1048B00020CF4AE050E070E060E0C601835E9B4F8D
:1048C0000E9481337093A1026093A002E091C00521
:1048D00081E08E0F8093C005F0E0EA54FA4F45E086
:1048E00038CFD33509F005CF98014BE0B70185EEFD
:1048F00093E00E94B4228823C1F04AE050E070E0C7
:1049000060E0C601835E9B4F0E94813370939F02DB
:1049100060939E02E091C00581E08E0F8093C005F8
:10492000F0E0EA54FA4F86E045CF980146E0B7013F
:104930008EED93E00E94B422882309F4DACEE09150
:10494000C00581E08E0F8093C005F0E0EA54FA4F75
:104950008EE030CFD73409F4D2CED93409F02CCF41
:10496000980146E0B70187E294E00E94B4228823D0
:1049700009F44ECFE091C00581E08E0F8093C00511
:10498000F0E0EA54FA4F8AE015CFD73409F0CECEE2
:10499000B6CECF930E94D7228823D9F08091960279
:1049A000843021F0833111F0813089F4CFB7F8944D
:1049B0000E94CB22439AF8948091C1008F77809314
:1049C000C10080B78D7F80BF78940000CFBF8091F9
:1049D0009602CF910895AF92BF92CF92DF92EF925D
:1049E000FF920F931F93CF93DF936C01B62EA42EEB
:1049F000F601C081D181888190E00E946234892BC8
:104A000039F5FAE0BF9E8001112405581B4FBA14F6
:104A100098F4F801E490F12CB8016F5F7F4FA70183
:104A2000CE010E947334065F1F4F892BB1F4CE0D67
:104A3000DF1DF601D183C0838B2DDF91CF911F91B4
:104A40000F91FF90EF90DF90CF90BF90AF900895BF
:104A50002196F601D183C083CBCFB394D8CFEF9208
:104A6000FF920F931F93CF93DF937C01F701C081D7
:104A7000D181088110E0C8010E946234892B09F0BD
:104A80003FC0C8010E946B348C018091DD0390E02F
:104A90000E946B3408171907C1F5898190E00E94C4
:104AA0006B348C018091DE0390E00E946B34081718
:104AB000190759F58A8190E00E946B348C0180912E
:104AC000DF0390E00E946B3408171907F1F48B8123
:104AD00090E00E946B348C018091E00390E00E9492
:104AE0006B340817190789F42496F701D183C08322
:104AF0008FEFDF91CF911F910F91FF90EF9008956D
:104B00002196F701D183C083B1CF80E0F2CF44E09A
:104B100050E066E774E00E94733421E0892B09F0CD
:104B200020E0822F08950C94EB24EF92FF920F93D4
:104B30001F93CF93DF93EC017B01088119814AE039
:104B400050E0BC01C8010E947132F701608371839B
:104B50008283938381E0288139812017310709F40A
:104B600080E0DF91CF911F910F91FF90EF9008951A
:104B7000DF92EF92FF920F931F93CF93DF937C010D
:104B8000D62EF701C081D181088110E0C8010E94B2
:104B90006234892BA1F48D2D90E00E946B340817AC
:104BA000190791F42196F701D183C0838FEFDF912C
:104BB000CF911F910F91FF90EF90DF900895219674
:104BC000F701D183C083DDCF80E0F1CFDF92EF9298
:104BD000FF920F931F93CF93DF938C01D62EF80192
:104BE000E080F180CE2DDF2D899190E00E9462342B
:104BF000892B89F48D2D90E00E946B34982FF7015A
:104C00008191882361F07F019813F9CFD801ED934A
:104C1000FC938FEF06C0D801CD93DC93E0CF9923AE
:104C2000A9F3DF91CF911F910F91FF90EF90DF904B
:104C30000895CF92DF92EF92FF920F931F93CF933D
:104C4000DF938C01E62ED72EF42EF801C081D1819E
:104C5000888190E00E946234892B89F4CE2DDD2D6D
:104C6000EF0C6E01EC1210C0F6011082DF91CF91B3
:104C70001F910F91FF90EF90DF90CF9008952196B4
:104C8000D801CD93DC93E1CFD801ED91FC91F08078
:104C90008F2D90E00E946234892B31F7F992FF202A
:104CA00019F3D8018D919C91119701968D939C9346
:104CB000D8CF8F929F92AF92BF92CF92DF92EF9216
:104CC000FF920F931F93CF93DF93CDB7DEB7649717
:104CD0000FB6F894DEBF0FBECDBF7C016B01042F71
:104CE000F701A080B180F501808190E00E946234DC
:104CF000892B09F049C010E04501F50181915F0160
:104D0000882349F0143138F48032B1F30E94042A28
:104D10008D3009F040C0512F1A3008F059E0812F32
:104D2000193008F489E08950990BA1E0B0E0AC0F8C
:104D3000BD1FA80FB91FC60130E020E00150110BC4
:104D4000251718F420173107BCF1F601E50FF11D06
:104D50001082F6018081882321F0F7018082918200
:104D60008FEF64960FB6F894DEBF0FBECDBFDF9114
:104D7000CF911F910F91FF90EF90DF90CF90BF9058
:104D8000AF909F908F9008958FEFA81AB80AF701FF
:104D9000B182A082A5CFF5013197808190ED980F67
:104DA0009A3008F0A9CFE1E0F0E0EC0FFD1FE10F31
:104DB000F11D80831F5FA0CF4D91FC014193CF0176
:104DC0002F5F3F4FBDCF9F92AF92BF92CF92DF92A6
:104DD000EF92FF920F931F93CF93DF9300D000D0F9
:104DE00000D00F92CDB7DEB79F838E837C0182E324
:104DF000F701A0E0B8E001900D928A95E1F7570124
:104E0000F50181918F0190E00E946234892BE1F5D8
:104E1000CE0101966C0185015C0184E0982E900E14
:104E2000F80181918F01882349F090E00E946B3452
:104E3000F60181936F019012F3CF8FEF1D828823CB
:104E400029F16DE072E0C5010E940E35892BF1F465
:104E500064EA71E088EA93E00E942D35892BB1F075
:104E600010E1812F27960FB6F894DEBF0FBECDBF9D
:104E7000DF91CF911F910F91FF90EF90DF90CF9036
:104E8000BF90AF909F9008955801BACFCE0106967B
:104E90000E942F252E819F81811108C0822F0E94A0
:104EA0008725182F8823E9F21BE0DBCF022F192F6B
:104EB000F80181918F01811110C04AE160E0CE01BB
:104EC00006960E94EB24182F8A3108F043C2E82F7F
:104ED000F0E0E559F74C0C94513290E00E946B34AD
:104EE000F80131978083E4CF0F5F1F4F1F830E833C
:104EF0000E811F81F801808190E00E946234892B2D
:104F000099F730E020E0C8018E199F098050984F32
:104F1000FC01E20FF31F40815FEB540F5A3128F080
:104F200040534A3010F012E09CCF2F5F3F4F2430A7
:104F3000310571F7FC014081518162817381409399
:104F4000DD035093DE036093DF037093E00344E0DE
:104F500061E070E00E94972B13E083CF4EE069EB95
:104F600073E0CE0106960E94592681117ACF0E81F8
:104F70001F81F801808190E00E946234892B69F4DE
:104F800043E050E062E774E0C8010E949B3418E0FF
:104F9000892B09F466CF16E064CF0F5F1F4F1F8384
:104FA0000E83E5CF4EE069EB73E0CE0106960E94DA
:104FB0005926882309F4B7CF85E20E94AC29CCCFCB
:104FC0004EE069EB73E0CE0106960E9459268823D5
:104FD00009F4A9CF88E2F1CF47E168E0CE01069657
:104FE0000E94EB24883071F481E08093020161EE2D
:104FF00070E30E94C72B8FEF8093080162EE70E38D
:1050000081E00EC08930C1F481E08093020161EE3D
:1050100070E30E94C72B1092080162EE70E380E0FB
:105020000E94C72B1092070166E070E080E00E94AA
:10503000C72B0E945F0790CF863191F481E0809367
:10504000020161EE70E30E94C72B1092080162EE2C
:1050500070E380E00E94C72B8FEF8093070114C09C
:10506000853109F060CF81E08093020161EE70E349
:105070000E94C72B1FEF1093080162EE70E381E0DE
:105080000E94C72B1093070166E070E081E0CFCF4C
:1050900047E168E0CE0106960E94EB24883031F4A7
:1050A0001092020161EE70E380E0A3CF893031F409
:1050B0001092020161EE70E380E0ABCF863131F4F3
:1050C0001092020161EE70E380E0BDCF853109F0FE
:1050D0002ACF1092020161EE70E380E0C9CF19E09F
:1050E000C0CE0F5F1F4F1F830E830E811F81F801FB
:1050F000F0808F2D90E00E946234892B91F7FF2081
:1051000009F411CF81E48093620684E580936306FD
:105110001F930F9382E192E09F938F9384E696E032
:105120009F938F930E946C350E94E2208FEF8093B3
:105130004D028CE291E090934C0280934B020F90D1
:105140000F900F900F900F900F9006CF0F5F1F4F93
:105150001F830E830E811F81F801808190E00E94E1
:105160006234892B99F743E050E06EE674E0C801A1
:105170000E949B34892B21F41092A3021DE071CE72
:105180004EE060EC77E0CE0106960E9459261CE0C6
:10519000882309F466CE8FEF8093A3021EE061CED0
:1051A000B501CE0106960E949525882309F4BBCE51
:1051B0008981482F5A816B817C818A019B01015032
:1051C0001109210931090F3916482140310508F02C
:1051D000AACEC0900301D0900401E0900501F090A8
:1051E00006014093030150930401609305017093FD
:1051F00006016CED70E30E94C72B6DED70E38091AA
:1052000004010E94C72B6EED70E3809105010E949E
:10521000C72B6FED70E3809106010E94C72B2FE929
:10522000C21626E8D20621E0E206F104C9F489811B
:105230009A81AB81BC818F399648A140B10581F03C
:1052400065E070E08FEF0E94C72B1092AF021092C2
:10525000FD031092FE031092FF03109200045D986C
:105260000E945F071FE0FDCD0F5F1F4F1F830E835E
:105270000E811F81F801808190E00E946234892BA9
:1052800099F742E050E06BE674E0C8010E949B345D
:10529000892B21F58FE996E8A1E0B0E08093030126
:1052A00090930401A0930501B09306016CED70E3A7
:1052B0008FE90E94C72B6DED70E3809104010E947D
:1052C000C72B6EED70E3809105010E94C72B6FED37
:1052D00070E3809106010E94C72BC2CF43E050E0EB
:1052E00067E674E0C8010E949B34892B09F01BCE4D
:1052F00082E090E0A0E0B0E080930301909304018D
:10530000A0930501B09306016CED70E3D2CF88E164
:1053100098E00FB6F894A895809360000FBE909324
:105320006000FFCF8FEF80932D0291E090930201F8
:10533000809308018093070168EA73E08DEB92E0A7
:105340000E94173560E574E081EC95E00E9494348A
:1053500084E733CE11E085CDE2EDF7E030E020E0E8
:105360009191911105C02E52384FF9018083089513
:105370002F5F3F4F2A30310599F70895E2EDF7E0AE
:1053800030E020E09191981761F0911105C02E5204
:10539000384FF901808308952F5F3F4F2A30310540
:1053A00089F7089590E0E92FF0E0EE52F84F208160
:1053B000281770F0621760F0292F293028F010921A
:1053C000DB079A3081F70895318131932F5FF5CF54
:1053D0009F5FF7CFE2EDF7E08181819387E0EB3DBE
:1053E000F807D1F71092DB070895E2EDF7E02AE025
:1053F0002E0F9191981710F0691720F42E13F9CF02
:1054000080E008958FEF08958B3259F030F48332A5
:1054100051F08A3251F08DE0089580538A30D8F7E8
:1054200008958AE008958CE008958BE00895AF9286
:10543000BF92CF92DF92FF920F931F93CF93DF9390
:10544000182FEB016A0145E050E06FEF70E0C601F4
:105450000E94F1348C2F811B182F219700E082309D
:1054600058F4DF91CF911F910F91FF90DF90CF9073
:10547000BF90AF900895092F88810E94042AF82ECA
:10548000F29480EFF822FE0182915F010E94042ACB
:105490008F29113061F4E5018F6010E091E0900FE9
:1054A000F601E00FF11D80831111E5CFDACF2297CD
:1054B0001250F4CFE82FF0E0E158FA4F84910895AC
:1054C000CF93DF939C01EB011882BC0180E0DB01EC
:1054D0006F5F7F4F9C919F3F19F0853009F04AC064
:1054E000A217B30709F44AC0642F70E090E0880F58
:1054F000991F11976817790744F4DB011197B7FDDD
:10550000DB01B595A795A20FB31FEC918E2F8F707D
:105510008F3091F5E295EF70F0E0E158FA4F849109
:105520008883882319F02196119781E011961197AD
:10553000A217B307D8F0EC91EF70F0E0E158FA4F02
:10554000E491E883EE2311F021968F5F841771F0C8
:10555000EC91E295EF70F0E0E158FA4FE491E993B5
:105560008F5F481719F02A173B0709F71882DF9158
:10557000CF9108958F5FABCF80E0D8CF80E0F7CF99
:10558000FF920F931F93CF93DF9300D000D00F9221
:10559000CDB7DEB78B01F42E45E050E0BC01CE0163
:1055A00001960E947C304F2DB801CE0101960E94D9
:1055B000602A0F900F900F900F900F90DF91CF9176
:1055C0001F910F91FF9008950F931F93CF93DF9337
:1055D000EC018B0188818F3FF1F0CB010E945F309D
:1055E0008F3FC9F0C8010E945F30382F307F9991FA
:1055F000292F207F303FA9F0203F99F032130BC0B4
:105600008F709F708F3069F09F3059F0891303C0FD
:105610000F5F1F4FE7CF80E0DF91CF911F910F9178
:1056200008958FEFF9CF0F931F93CF93DF9300D09F
:1056300000D00F92CDB7DEB78B01FC0101900020A6
:10564000E9F73197BF01681B790B680F792F711D3E
:10565000AE014F5F5F4F0E94172AB801CE0101963D
:105660000E94E42A0F900F900F900F900F90DF91FF
:10567000CF911F910F9108950F931F93CF930E9485
:10568000B430882381F18091FE079091A502892B87
:105690009091FF07892B39F1C091A4020C2F10E0E3
:1056A0008091FC079091FD07800F911F0E94832F2E
:1056B000F801E050F84F9081891301C0CF5F8091CD
:1056C000A502C817A0F48C2F90E0FC01E050F84F21
:1056D0002091FC073091FD076081820F931F0E948B
:1056E0000D30C093A402CF911F910F910895809126
:1056F000FE071092FE078093A50220E038E0F90132
:10570000882379F39E2F921B981770F080913208AE
:10571000909133089093FD078093FC0760910008F7
:105720000E940D30C0E0DDCF90A59193EBCF0F9399
:105730001F93CF938B01C42F4423B1F050E0BC01E1
:1057400080E098E00E94E8341093FD070093FC0786
:105750001092A402C093A50260910008C801CF91E5
:105760001F910F910C940D30CF911F910F910895BF
:10577000662361F09093FD078093FC071092A402CA
:105780006093A502609100080C940D3008951F935A
:10579000CF93DF93182FEB01CB010E945F3081176D
:1057A00091F010930008D093FD07C093FC0710926E
:1057B000A40281E08093A502612FCE01DF91CF91F9
:1057C0001F910C940D30DF91CF911F9108950F938D
:1057D0001F93CF93DF9300D000D0CDB7DEB78C01FD
:1057E00019821A821B821C820E945F308983C80141
:1057F00001960E945F308A83C80102960E945F3042
:105800008B8369817A818B819C810F900F900F909F
:105810000F90DF91CF911F910F910895DF92EF923A
:10582000FF920F931F93CF93DF93DC011D91141709
:1058300010F01FEF140F862F072FC0E0D12C90E03F
:10584000D0E827E030E0C1130CC0C60FD72FD11D20
:105850001882DF91CF911F910F91FF90EF90DF9011
:1058600008954D2D50E0EC91F0E0ED2EF12CE094F8
:10587000F094EE21FF2102C0EE0FFF1FDA94E2F751
:10588000E90FF11DE056F94F9491E82EF02EF70143
:1058900091937F01CF5FFC2FF770DF2E89F0ED91A0
:1058A000ED23F0E0C901841B950B02C0F595E79547
:1058B0008A95E2F79E2FD695D0588E2D0F2DC3CF07
:1058C00090E0D0E8FACFCF92DF92EF92FF920F9361
:1058D0001F93CF93DF93EC01461B570BDC014D93D5
:1058E0003FEF340F90E020E00FE710E087E04FEF4C
:1058F00050E0231738F188818770D1F0FB01E20F67
:10590000F11DE081F0E0E056FA4F24914FE750E0BE
:10591000092E02C0440F551F0A94E2F7E22FF0E06F
:10592000E423F52302C0F695E7959A95E2F7ED9307
:10593000CD01DF91CF911F910F91FF90EF90DF90FC
:10594000CF9008956B01C20ED11CF601F080EF2DAF
:10595000F0E0E056FA4FE4917801092E02C0EE0C17
:10596000FF1C0A94E2F7F0E0EE22FF22092E02C0AB
:10597000F694E7940A94E2F7F601F180EF2DF0E057
:10598000E056FA4FE491F82EF91A6A010F2C02C082
:10599000D694C7940A94E2F7EC2101C0EE0FFA9472
:1059A000EAF7EE29ED939F5F973011F42F5F90E0B7
:1059B0002F5F9FCFFC01640F752F711D461757078E
:1059C00009F4089590819A3370F49053292F229509
:1059D000207F91819A3348F49053920FDA019D937E
:1059E000AD013296EBCF9753F1CF9753F6CF1F937C
:1059F000CF93DF93DC01EA018C91873C50F0DB010F
:105A00001C928FEF888390E080E0DF91CF911F910F
:105A1000089518828C9190E00196A80FB91F8C917F
:105A20008B7F11F08FEF888311963C911197313164
:105A300030F7FD01339612968C91982F9F7E41E0AE
:105A4000913809F040E0813921F48BE2DB018D933C
:105A5000BD01562F172F80E010C09081222311F036
:105A6000929531969F70905D411101C090E3A52FF2
:105A7000B12F9D938F5F5A2F1B2F282F21708313D7
:105A8000ECCF680F711DDB011C92211101C0319711
:105A90008281882311F08FEF8883CF010396B5CFE1
:105AA000FC019081A92FAF708AE092959F70A89F0A
:105AB000900D1124DB019C939181692F6F70929559
:105AC0009F70689F900D1124DA019C939281492F59
:105AD0004F7092959F70489F900D1124D9019C930F
